{
  "address": "0xA59D7392De7a7873B96071537DE763d412327606",
  "abi": [
    {
      "inputs": [],
      "stateMutability": "nonpayable",
      "type": "constructor"
    },
    {
      "anonymous": false,
      "inputs": [
        {
          "indexed": false,
          "internalType": "uint256",
          "name": "amount",
          "type": "uint256"
        },
        {
          "indexed": false,
          "internalType": "uint256",
          "name": "timestamp",
          "type": "uint256"
        },
        {
          "indexed": true,
          "internalType": "address",
          "name": "validator",
          "type": "address"
        },
        {
          "indexed": false,
          "internalType": "bytes",
          "name": "signature",
          "type": "bytes"
        }
      ],
      "name": "DividendDistributed",
      "type": "event"
    },
    {
      "anonymous": false,
      "inputs": [
        {
          "indexed": true,
          "internalType": "address",
          "name": "oldTreasury",
          "type": "address"
        },
        {
          "indexed": true,
          "internalType": "address",
          "name": "newTreasury",
          "type": "address"
        }
      ],
      "name": "DividendTreasuryUpdated",
      "type": "event"
    },
    {
      "anonymous": false,
      "inputs": [
        {
          "indexed": true,
          "internalType": "address",
          "name": "shareToken",
          "type": "address"
        },
        {
          "indexed": true,
          "internalType": "address",
          "name": "rewardToken",
          "type": "address"
        },
        {
          "indexed": false,
          "internalType": "uint256",
          "name": "timestamp",
          "type": "uint256"
        }
      ],
      "name": "GlobalPoolInitialized",
      "type": "event"
    },
    {
      "anonymous": false,
      "inputs": [
        {
          "indexed": true,
          "internalType": "address",
          "name": "oldManager",
          "type": "address"
        },
        {
          "indexed": true,
          "internalType": "address",
          "name": "newManager",
          "type": "address"
        }
      ],
      "name": "ManagerUpdated",
      "type": "event"
    },
    {
      "anonymous": false,
      "inputs": [
        {
          "indexed": true,
          "internalType": "address",
          "name": "previousOwner",
          "type": "address"
        },
        {
          "indexed": true,
          "internalType": "address",
          "name": "newOwner",
          "type": "address"
        }
      ],
      "name": "OwnershipTransferred",
      "type": "event"
    },
    {
      "anonymous": false,
      "inputs": [
        {
          "indexed": true,
          "internalType": "address",
          "name": "user",
          "type": "address"
        },
        {
          "indexed": false,
          "internalType": "uint256",
          "name": "claimedRewardAmount",
          "type": "uint256"
        },
        {
          "indexed": false,
          "internalType": "uint256",
          "name": "timestamp",
          "type": "uint256"
        }
      ],
      "name": "RewardClaimed",
      "type": "event"
    },
    {
      "anonymous": false,
      "inputs": [
        {
          "indexed": true,
          "internalType": "address",
          "name": "from",
          "type": "address"
        },
        {
          "indexed": true,
          "internalType": "address",
          "name": "to",
          "type": "address"
        },
        {
          "indexed": false,
          "internalType": "uint256",
          "name": "amount",
          "type": "uint256"
        },
        {
          "indexed": false,
          "internalType": "uint256",
          "name": "timestamp",
          "type": "uint256"
        }
      ],
      "name": "ShareTokenTransferred",
      "type": "event"
    },
    {
      "anonymous": false,
      "inputs": [
        {
          "indexed": true,
          "internalType": "address",
          "name": "user",
          "type": "address"
        },
        {
          "indexed": false,
          "internalType": "uint256",
          "name": "newAccumulatedShares",
          "type": "uint256"
        },
        {
          "indexed": false,
          "internalType": "uint256",
          "name": "timestamp",
          "type": "uint256"
        }
      ],
      "name": "UserPoolUpdated",
      "type": "event"
    },
    {
      "inputs": [
        {
          "internalType": "address",
          "name": "user",
          "type": "address"
        },
        {
          "internalType": "uint256",
          "name": "userBalance",
          "type": "uint256"
        }
      ],
      "name": "calculateAccumulatedShares",
      "outputs": [
        {
          "internalType": "uint256",
          "name": "",
          "type": "uint256"
        }
      ],
      "stateMutability": "view",
      "type": "function"
    },
    {
      "inputs": [],
      "name": "claimReward",
      "outputs": [],
      "stateMutability": "nonpayable",
      "type": "function"
    },
    {
      "inputs": [
        {
          "internalType": "uint256",
          "name": "dividendAmount",
          "type": "uint256"
        },
        {
          "internalType": "bytes",
          "name": "signature",
          "type": "bytes"
        }
      ],
      "name": "distributeDividend",
      "outputs": [],
      "stateMutability": "nonpayable",
      "type": "function"
    },
    {
      "inputs": [],
      "name": "dividendNonce",
      "outputs": [
        {
          "internalType": "uint256",
          "name": "",
          "type": "uint256"
        }
      ],
      "stateMutability": "view",
      "type": "function"
    },
    {
      "inputs": [],
      "name": "dividendTreasury",
      "outputs": [
        {
          "internalType": "address",
          "name": "",
          "type": "address"
        }
      ],
      "stateMutability": "view",
      "type": "function"
    },
    {
      "inputs": [],
      "name": "getDividendNonce",
      "outputs": [
        {
          "internalType": "uint256",
          "name": "",
          "type": "uint256"
        }
      ],
      "stateMutability": "view",
      "type": "function"
    },
    {
      "inputs": [],
      "name": "getDividendTreasury",
      "outputs": [
        {
          "internalType": "address",
          "name": "",
          "type": "address"
        }
      ],
      "stateMutability": "view",
      "type": "function"
    },
    {
      "inputs": [],
      "name": "getGlobalPoolInfo",
      "outputs": [
        {
          "components": [
            {
              "internalType": "uint256",
              "name": "totalAccumulatedShares",
              "type": "uint256"
            },
            {
              "internalType": "uint256",
              "name": "lastDividendTime",
              "type": "uint256"
            },
            {
              "internalType": "uint256",
              "name": "totalDividend",
              "type": "uint256"
            },
            {
              "internalType": "bool",
              "name": "isActive",
              "type": "bool"
            },
            {
              "internalType": "address",
              "name": "shareToken",
              "type": "address"
            },
            {
              "internalType": "address",
              "name": "rewardToken",
              "type": "address"
            }
          ],
          "internalType": "struct IAccumulatedYield.GlobalPoolInfo",
          "name": "",
          "type": "tuple"
        }
      ],
      "stateMutability": "view",
      "type": "function"
    },
    {
      "inputs": [],
      "name": "getManager",
      "outputs": [
        {
          "internalType": "address",
          "name": "",
          "type": "address"
        }
      ],
      "stateMutability": "view",
      "type": "function"
    },
    {
      "inputs": [
        {
          "internalType": "address",
          "name": "user",
          "type": "address"
        }
      ],
      "name": "getUserInfo",
      "outputs": [
        {
          "components": [
            {
              "internalType": "uint256",
              "name": "accumulatedShares",
              "type": "uint256"
            },
            {
              "internalType": "uint256",
              "name": "lastClaimTime",
              "type": "uint256"
            },
            {
              "internalType": "uint256",
              "name": "lastClaimDividend",
              "type": "uint256"
            },
            {
              "internalType": "uint256",
              "name": "totalClaimed",
              "type": "uint256"
            }
          ],
          "internalType": "struct IAccumulatedYield.UserInfo",
          "name": "",
          "type": "tuple"
        }
      ],
      "stateMutability": "view",
      "type": "function"
    },
    {
      "inputs": [],
      "name": "globalPool",
      "outputs": [
        {
          "internalType": "uint256",
          "name": "totalAccumulatedShares",
          "type": "uint256"
        },
        {
          "internalType": "uint256",
          "name": "lastDividendTime",
          "type": "uint256"
        },
        {
          "internalType": "uint256",
          "name": "totalDividend",
          "type": "uint256"
        },
        {
          "internalType": "bool",
          "name": "isActive",
          "type": "bool"
        },
        {
          "internalType": "address",
          "name": "shareToken",
          "type": "address"
        },
        {
          "internalType": "address",
          "name": "rewardToken",
          "type": "address"
        }
      ],
      "stateMutability": "view",
      "type": "function"
    },
    {
      "inputs": [
        {
          "internalType": "address",
          "name": "_vault",
          "type": "address"
        },
        {
          "internalType": "address",
          "name": "_vaultToken",
          "type": "address"
        },
        {
          "internalType": "bytes",
          "name": "_initData",
          "type": "bytes"
        }
      ],
      "name": "initiate",
      "outputs": [],
      "stateMutability": "nonpayable",
      "type": "function"
    },
    {
      "inputs": [],
      "name": "manager",
      "outputs": [
        {
          "internalType": "address",
          "name": "",
          "type": "address"
        }
      ],
      "stateMutability": "view",
      "type": "function"
    },
    {
      "inputs": [],
      "name": "owner",
      "outputs": [
        {
          "internalType": "address",
          "name": "",
          "type": "address"
        }
      ],
      "stateMutability": "view",
      "type": "function"
    },
    {
      "inputs": [
        {
          "internalType": "address",
          "name": "user",
          "type": "address"
        }
      ],
      "name": "pendingReward",
      "outputs": [
        {
          "internalType": "uint256",
          "name": "",
          "type": "uint256"
        }
      ],
      "stateMutability": "view",
      "type": "function"
    },
    {
      "inputs": [],
      "name": "renounceOwnership",
      "outputs": [],
      "stateMutability": "nonpayable",
      "type": "function"
    },
    {
      "inputs": [
        {
          "internalType": "address",
          "name": "_dividendTreasury",
          "type": "address"
        }
      ],
      "name": "setDividendTreasury",
      "outputs": [],
      "stateMutability": "nonpayable",
      "type": "function"
    },
    {
      "inputs": [
        {
          "internalType": "address",
          "name": "_manager",
          "type": "address"
        }
      ],
      "name": "setManager",
      "outputs": [],
      "stateMutability": "nonpayable",
      "type": "function"
    },
    {
      "inputs": [],
      "name": "totalAccumulatedShares",
      "outputs": [
        {
          "internalType": "uint256",
          "name": "",
          "type": "uint256"
        }
      ],
      "stateMutability": "view",
      "type": "function"
    },
    {
      "inputs": [],
      "name": "totalDividend",
      "outputs": [
        {
          "internalType": "uint256",
          "name": "",
          "type": "uint256"
        }
      ],
      "stateMutability": "view",
      "type": "function"
    },
    {
      "inputs": [
        {
          "internalType": "address",
          "name": "newOwner",
          "type": "address"
        }
      ],
      "name": "transferOwnership",
      "outputs": [],
      "stateMutability": "nonpayable",
      "type": "function"
    },
    {
      "inputs": [
        {
          "internalType": "bool",
          "name": "isActive",
          "type": "bool"
        }
      ],
      "name": "updateGlobalPoolStatus",
      "outputs": [],
      "stateMutability": "nonpayable",
      "type": "function"
    },
    {
      "inputs": [
        {
          "internalType": "address",
          "name": "from",
          "type": "address"
        },
        {
          "internalType": "address",
          "name": "to",
          "type": "address"
        },
        {
          "internalType": "uint256",
          "name": "amount",
          "type": "uint256"
        }
      ],
      "name": "updateUserPoolsOnTransfer",
      "outputs": [],
      "stateMutability": "nonpayable",
      "type": "function"
    },
    {
      "inputs": [
        {
          "internalType": "address",
          "name": "",
          "type": "address"
        }
      ],
      "name": "users",
      "outputs": [
        {
          "internalType": "uint256",
          "name": "accumulatedShares",
          "type": "uint256"
        },
        {
          "internalType": "uint256",
          "name": "lastClaimTime",
          "type": "uint256"
        },
        {
          "internalType": "uint256",
          "name": "lastClaimDividend",
          "type": "uint256"
        },
        {
          "internalType": "uint256",
          "name": "totalClaimed",
          "type": "uint256"
        }
      ],
      "stateMutability": "view",
      "type": "function"
    },
    {
      "inputs": [],
      "name": "vault",
      "outputs": [
        {
          "internalType": "address",
          "name": "",
          "type": "address"
        }
      ],
      "stateMutability": "view",
      "type": "function"
    }
  ],
  "transactionHash": "0x0347b4d99950e15d0eb9c77cad8324ff6850fc3f5bd8a4bb436301d3fb4d73e8",
  "args": [],
  "numDeployments": 1,
  "solcInputHash": "7265ede183a18a70eae46f7ff11b5a8b",
  "bytecode": "0x60808060405234605d57600160008181558154336001600160a01b0319821681179093556001600160a01b0316907f8be0079c531659141344cd1fd0a4f28419497f9722a3daafe3b4186f6b6457e09080a3611cb890816100638239f35b600080fdfe608080604052600436101561001357600080fd5b60003560e01c9081630354489a14611154575080630b7c8a2a146110f457806315c2b81414610cc8578063275d660a14610caa5780632bb7e33c146109a9578063391157841461094a578063481c6a75146102e35780634b6acafb1461092c578063526aefaf146109055780636386c1c714610864578063715018a6146108075780638da5cb5b146107de5780639ba7361614610707578063a652883e14610609578063a87430ba146105ad578063b88a802f146103e7578063bec5a151146103c9578063cf6afb77146102ba578063d0ebdbe71461030c578063d5009584146102e3578063e5080f35146102ba578063f2fde38b1461022b578063f40f0f5214610200578063f9eb5c09146101605763fbfa77cf1461013257600080fd5b3461015b57600036600319011261015b576008546040516001600160a01b039091168152602090f35b600080fd5b3461015b57602036600319011261015b57610179611242565b6005546101939060081c6001600160a01b0316151561126e565b6101a860018060a01b036009541633146112c4565b6001600160a01b03166101bc811515611552565b600a80546001600160a01b0319811683179091556001600160a01b03167fb848ed3d9bc14fd1a853fa5476c4a015f9cf7e25fa66ee9731b25327497ca6e0600080a3005b3461015b57602036600319011261015b57602061022361021e611242565b6114c4565b604051908152f35b3461015b57602036600319011261015b57610244611242565b61024c611608565b6001600160a01b038116156102665761026490611660565b005b60405162461bcd60e51b815260206004820152602660248201527f4f776e61626c653a206e6577206f776e657220697320746865207a65726f206160448201526564647265737360d01b6064820152608490fd5b3461015b57600036600319011261015b57600a546040516001600160a01b039091168152602090f35b3461015b57600036600319011261015b576009546040516001600160a01b039091168152602090f35b3461015b57602036600319011261015b57610325611242565b60055461033f9060081c6001600160a01b0316151561126e565b600954906001600160a01b038216906103593383146112c4565b6001600160a01b03811692839061037182151561146e565b6001600160a01b031916176009556001546001600160a01b031682146103ba575b507fdac3632743b879638fd2d51c4d3c1dd796615b4758a55b50b0c19b971ba9fbc7600080a3005b6103c390611660565b82610392565b3461015b57600036600319011261015b576020600254604051908152f35b3461015b57600036600319011261015b576005546104209060ff9061041a600882901c6001600160a01b0316151561126e565b16611310565b6104286115b2565b610431336116a9565b33600052600760205260406000206024602060018060a01b0360055460081c16604051928380926370a0823160e01b82523360048301525afa80156105a15760009061056d575b6104839150336117cd565b90811561051c5760038101610499838254611366565b9055426001919091015560065460405163a9059cbb60e01b6020820152336024820152604480820184905281526104e3916001600160a01b03166104de6064836111bd565b611a49565b6040519081524260208201527ff01da32686223933d8a18a391060918c7f11a3648639edd87ae013e2e273174360403392a26001600055005b60405162461bcd60e51b815260206004820152602360248201527f416363756d756c617465645969656c643a206e6f2070656e64696e6720726577604482015262185c9960ea1b6064820152608490fd5b506020813d602011610599575b81610587602093836111bd565b8101031261015b576104839051610478565b3d915061057a565b6040513d6000823e3d90fd5b3461015b57602036600319011261015b576001600160a01b036105ce611242565b166000526007602052608060406000208054906001810154906003600282015491015491604051938452602084015260408301526060820152f35b3461015b57606036600319011261015b57610622611242565b61062a611258565b6008549091906001600160a01b031633036106b4576001600160a01b03811690816106a5575b506001600160a01b0382169182610696575b507ff92bc2ddaeb2d9f248229991a5e35e3b5bf400cc935c2ab6053793a55e60d5b2604080516044358152426020820152a3005b61069f906116a9565b82610662565b6106ae906116a9565b82610650565b60405162461bcd60e51b815260206004820152602560248201527f416363756d756c617465645969656c643a206f6e6c79207661756c742063616e6044820152640818d85b1b60da1b6064820152608490fd5b3461015b57600036600319011261015b57600060a06040516107288161116f565b828152826020820152826040820152826060820152826080820152015260c06040516107538161116f565b6002549081815260035460208201908152600454906040830191825260055491606084019160ff841615158352608085019360018060a01b039060081c16845260a0600180821b03600654169501948552604051958652516020860152516040850152511515606084015260018060a01b03905116608083015260018060a01b0390511660a0820152f35b3461015b57600036600319011261015b576001546040516001600160a01b039091168152602090f35b3461015b57600036600319011261015b57610820611608565b600180546001600160a01b031981169091556000906001600160a01b03167f8be0079c531659141344cd1fd0a4f28419497f9722a3daafe3b4186f6b6457e08280a3005b3461015b57602036600319011261015b5761087d611242565b6000606060405161088d816111a1565b828152826020820152826040820152015260018060a01b03166000526007602052608060406000206040516108c1816111a1565b815491828252600181015460208301908152606060036002840154936040860194855201549301928352604051938452516020840152516040830152516060820152f35b3461015b57604036600319011261015b576020610223610923611242565b602435906113e8565b3461015b57600036600319011261015b576020600454604051908152f35b3461015b57600036600319011261015b576002546003546004546005546006546040805195865260208601949094529284019190915260ff81161515606084015260081c6001600160a01b0390811660808401521660a082015260c090f35b3461015b57606036600319011261015b576109c2611242565b6109ca611258565b9060443567ffffffffffffffff811161015b576109eb9036906004016111fb565b9160608380518101031261015b57610a05602084016113c7565b610a1d6060610a16604087016113c7565b95016113c7565b6005546001600160a01b0392831695918316949183169260089190911c16610c57576001600160a01b0316908115610c1257610a5a81151561146e565b610a65841515611552565b6001600160a01b038316938415610bbf578515610b6b57610abf926001600160601b0360a01b6008541617600855816001600160601b0360a01b60095416176009556001600160601b0360a01b600a541617600a55611660565b8260a0604051610ace8161116f565b60008152426020820152600060408201526001606082015284608082015201526000600255426003556000600455600160ff19600554161760055560055490610100600160a81b039060081b1690610100600160a81b03191617600555816001600160601b0360a01b60065416176006557fd0fca15c379f5bbae8ca9e1d0b80323a86a6ec7263e540cb328cca7dc74f4dd96020604051428152a3005b60405162461bcd60e51b815260206004820152602660248201527f416363756d756c617465645969656c643a20696e76616c696420726577617264604482015265103a37b5b2b760d11b6064820152608490fd5b60405162461bcd60e51b815260206004820152602560248201527f416363756d756c617465645969656c643a20696e76616c6964207368617265206044820152643a37b5b2b760d91b6064820152608490fd5b60405162461bcd60e51b815260206004820152601f60248201527f416363756d756c617465645969656c643a20696e76616c6964207661756c74006044820152606490fd5b60405162461bcd60e51b815260206004820152602560248201527f416363756d756c617465645969656c643a20616c726561647920696e697469616044820152641b1a5e995960da1b6064820152608490fd5b3461015b57600036600319011261015b576020600b54604051908152f35b3461015b57604036600319011261015b5760043560243567ffffffffffffffff811161015b57610cfc9036906004016111fb565b600554610d17600882901c6001600160a01b0316151561126e565b600a546001600160a01b0316330361109e5760ff610d359116611310565b610d3d6115b2565b811561104757600854604051633a5381b560e01b81529091906020816004816001600160a01b0387165afa9081156105a157600091610ffe575b506001600160a01b0316928315610fad57600b549260405160208101916001600160601b03199060601b16825282603482015284605482015260548152610dbf6074826111bd565b5190207f19457468657265756d205369676e6564204d6573736167653a0a333200000000600052601c5283610e03610dfb84603c6000206118f7565b91909161192f565b6001600160a01b031603610f5c576000198314610f4657600160049301600b55610e6360018060a01b0360065416604051906323b872dd60e01b6020830152336024830152306044830152836064830152606482526104de6084836111bd565b610e6e818454611366565b8355426003556005546040516318160ddd60e01b815293602091859190829060081c6001600160a01b03165afa9283156105a157600093610f10575b50610ee1610ed9827fe8af7530ddd6b2b1e6f8ceb5e9e1296634589c9fffc26c4807550c1ca9e1cf2995611373565b600254611366565b600255610f066040519283928352426020840152606060408401526060830190611386565b0390a26001600055005b92506020833d602011610f3e575b81610f2b602093836111bd565b8101031261015b57915191610ee1610eaa565b3d9150610f1e565b634e487b7160e01b600052601160045260246000fd5b60405162461bcd60e51b815260206004820152602360248201527f416363756d756c617465645969656c643a20696e76616c6964207369676e617460448201526275726560e81b6064820152608490fd5b60405162461bcd60e51b815260206004820152602360248201527f416363756d756c617465645969656c643a2076616c696461746f72206e6f74206044820152621cd95d60ea1b6064820152608490fd5b6020813d60201161103f575b81611017602093836111bd565b8101031261103b5751906001600160a01b0382168203611038575084610d77565b80fd5b5080fd5b3d915061100a565b60405162461bcd60e51b815260206004820152602960248201527f416363756d756c617465645969656c643a20696e76616c6964206469766964656044820152681b9908185b5bdd5b9d60ba1b6064820152608490fd5b60405162461bcd60e51b815260206004820152602860248201527f416363756d756c617465645969656c643a206f6e6c79206469766964656e6420604482015267747265617375727960c01b6064820152608490fd5b3461015b57602036600319011261015b5760043580151580910361015b576005549060ff90611131600884901c6001600160a01b0316151561126e565b61114660018060a01b036009541633146112c4565b60ff19909216911617600555005b3461015b57600036600319011261015b57602090600b548152f35b60c0810190811067ffffffffffffffff82111761118b57604052565b634e487b7160e01b600052604160045260246000fd5b6080810190811067ffffffffffffffff82111761118b57604052565b90601f8019910116810190811067ffffffffffffffff82111761118b57604052565b67ffffffffffffffff811161118b57601f01601f191660200190565b81601f8201121561015b57803590611212826111df565b9261122060405194856111bd565b8284526020838301011161015b57816000926020809301838601378301015290565b600435906001600160a01b038216820361015b57565b602435906001600160a01b038216820361015b57565b1561127557565b60405162461bcd60e51b815260206004820152602160248201527f416363756d756c617465645969656c643a206e6f7420696e697469616c697a656044820152601960fa1b6064820152608490fd5b156112cb57565b60405162461bcd60e51b815260206004820152601e60248201527f416363756d756c617465645969656c643a206f6e6c79206d616e6167657200006044820152606490fd5b1561131757565b60405162461bcd60e51b815260206004820152602160248201527f416363756d756c617465645969656c643a20706f6f6c206e6f742061637469766044820152606560f81b6064820152608490fd5b91908201809211610f4657565b81810292918115918404141715610f4657565b919082519283825260005b8481106113b2575050826000602080949584010152601f8019910116010190565b80602080928401015182828601015201611391565b51906001600160a01b038216820361015b57565b91908203918211610f4657565b60055490919060081c6001600160a01b031615611467576114649160018060a01b0316600052600760205261145e60406000206114566040519161142b836111a1565b80548352600181015460208401526003600282015491826040860152015460608401526004546113db565b905192611373565b90611366565b90565b5050600090565b1561147557565b60405162461bcd60e51b815260206004820152602160248201527f416363756d756c617465645969656c643a20696e76616c6964206d616e6167656044820152603960f91b6064820152608490fd5b60055460081c6001600160a01b0316908115611467576040516370a0823160e01b81526001600160a01b038216600482015291602090839060249082905afa9081156105a15760009161151c575b61146492506117cd565b90506020823d60201161154a575b81611537602093836111bd565b8101031261015b57611464915190611512565b3d915061152a565b1561155957565b60405162461bcd60e51b815260206004820152602b60248201527f416363756d756c617465645969656c643a20696e76616c69642064697669646560448201526a6e6420747265617375727960a81b6064820152608490fd5b6002600054146115c3576002600055565b60405162461bcd60e51b815260206004820152601f60248201527f5265656e7472616e637947756172643a207265656e7472616e742063616c6c006044820152606490fd5b6001546001600160a01b0316330361161c57565b606460405162461bcd60e51b815260206004820152602060248201527f4f776e61626c653a2063616c6c6572206973206e6f7420746865206f776e65726044820152fd5b600180546001600160a01b039283166001600160a01b0319821681179092559091167f8be0079c531659141344cd1fd0a4f28419497f9722a3daafe3b4186f6b6457e0600080a3565b60055460081c6001600160a01b03169081156117c95760018060a01b03169081600052600760205260246020604060002092604051928380926370a0823160e01b82528760048301525afa9081156105a157600091611777575b507f03042d1ac6ef214f4d246cd1184e5d536ba09afdc4efeec5d74d432384cb97dd916040916004549061173d60028401928354906113db565b908161175a575b50506004549055548151908152426020820152a2565b61176e9161176791611373565b8354611366565b82553880611744565b90506020813d6020116117c1575b81611792602093836111bd565b8101031261015b57517f03042d1ac6ef214f4d246cd1184e5d536ba09afdc4efeec5d74d432384cb97dd611703565b3d9150611785565b5050565b60055460081c6001600160a01b03161580156118ed575b6114675760018060a01b0316600052600760205260406000206040519161180a836111a1565b8154808452600183015460208501526060600360028501549485604088015201549401938452809161183f60045494856113db565b90816118d6575b50505080156118ce57600254801592909190836118c25761186691611373565b91670de0b6b3a7640000830292808404670de0b6b3a76400001490151715610f46576118ac57670de0b6b3a7640000910404905b518082111561146757611464916113db565b634e487b7160e01b600052601260045260246000fd5b5050505060009061189a565b505050600090565b6118e593509061145e91611373565b388080611846565b50600254156117e4565b90604181511460001461192557611921916020820151906060604084015193015160001a90611b65565b9091565b5050600090600290565b6005811015611a3357806119405750565b6001810361198d5760405162461bcd60e51b815260206004820152601860248201527f45434453413a20696e76616c6964207369676e617475726500000000000000006044820152606490fd5b600281036119da5760405162461bcd60e51b815260206004820152601f60248201527f45434453413a20696e76616c6964207369676e6174757265206c656e677468006044820152606490fd5b6003146119e357565b60405162461bcd60e51b815260206004820152602260248201527f45434453413a20696e76616c6964207369676e6174757265202773272076616c604482015261756560f01b6064820152608490fd5b634e487b7160e01b600052602160045260246000fd5b604080519092611acd926001600160a01b0316906000908190611a6c87866111bd565b602085527f5361666545524332303a206c6f772d6c6576656c2063616c6c206661696c6564602086015260208151910182855af13d15611b5d573d91611ab1836111df565b92611abe875194856111bd565b83523d6000602085013e611be5565b8051908115918215611b3a575b505015611ae45750565b5162461bcd60e51b815260206004820152602a60248201527f5361666545524332303a204552433230206f7065726174696f6e20646964206e6044820152691bdd081cdd58d8d9595960b21b6064820152608490fd5b819250906020918101031261015b5760200151801515810361015b573880611ada565b606091611be5565b7f7fffffffffffffffffffffffffffffff5d576e7357a4501ddfe92f46681b20a08411611bd95760209360009360ff60809460405194855216868401526040830152606082015282805260015afa156105a1576000516001600160a01b03811615611bd05790600090565b50600090600190565b50505050600090600390565b91929015611c475750815115611bf9575090565b3b15611c025790565b60405162461bcd60e51b815260206004820152601d60248201527f416464726573733a2063616c6c20746f206e6f6e2d636f6e74726163740000006044820152606490fd5b825190915015611c5a5750805190602001fd5b60405162461bcd60e51b815260206004820152908190611c7e906024830190611386565b0390fdfea264697066735822122096126224f8895ad479197cde2289a5a8045c4a5b44e1869bcb77c2b0b89b34ea64736f6c634300081a0033",
  "devdoc": {
    "details": "Accumulated yield template implementation, providing yield distribution based on token holdings",
    "events": {
      "DividendDistributed(uint256,uint256,address,bytes)": {
        "details": "Dividend distribution event"
      },
      "DividendTreasuryUpdated(address,address)": {
        "details": "Dividend treasury update event"
      },
      "GlobalPoolInitialized(address,address,uint256)": {
        "details": "Global pool initialization event"
      },
      "ManagerUpdated(address,address)": {
        "details": "Manager update event"
      },
      "RewardClaimed(address,uint256,uint256)": {
        "details": "Reward claim event"
      },
      "ShareTokenTransferred(address,address,uint256,uint256)": {
        "details": "Token transfer event (for tracking transfers that affect yield)"
      },
      "UserPoolUpdated(address,uint256,uint256)": {
        "details": "User pool update event"
      }
    },
    "kind": "dev",
    "methods": {
      "calculateAccumulatedShares(address,uint256)": {
        "details": "Calculate user's accumulated shares at specified balance",
        "params": {
          "user": "User address",
          "userBalance": "Specified user balance"
        },
        "returns": {
          "_0": "Accumulated shares"
        }
      },
      "claimReward()": {
        "details": "User claim rewards"
      },
      "constructor": {
        "details": "Constructor"
      },
      "distributeDividend(uint256,bytes)": {
        "details": "Distribute dividend to global pool, only dividend treasury can call ",
        "params": {
          "dividendAmount": "Distribution amount",
          "signature": "Dividend signature"
        }
      },
      "getDividendNonce()": {
        "details": "Get current dividend nonce",
        "returns": {
          "_0": "Current dividend nonce"
        }
      },
      "getDividendTreasury()": {
        "details": "Query dividend treasury address",
        "returns": {
          "_0": "Dividend treasury address"
        }
      },
      "getGlobalPoolInfo()": {
        "details": "Query global pool information",
        "returns": {
          "_0": "Global pool information structure"
        }
      },
      "getManager()": {
        "details": "Query current manager",
        "returns": {
          "_0": "Manager address"
        }
      },
      "getUserInfo(address)": {
        "details": "Query user information",
        "params": {
          "user": "User address"
        },
        "returns": {
          "_0": "User information structure"
        }
      },
      "initiate(address,address,bytes)": {
        "details": "Unified initialization interface",
        "params": {
          "_initData": "Encoded initialization data (contains token and original initData)",
          "_vault": "Vault address",
          "_vaultToken": "Vault token address"
        }
      },
      "owner()": {
        "details": "Returns the address of the current owner."
      },
      "pendingReward(address)": {
        "details": "Query user's pending rewards",
        "params": {
          "user": "User address"
        },
        "returns": {
          "_0": "Pending reward amount"
        }
      },
      "renounceOwnership()": {
        "details": "Leaves the contract without owner. It will not be possible to call `onlyOwner` functions. Can only be called by the current owner. NOTE: Renouncing ownership will leave the contract without an owner, thereby disabling any functionality that is only available to the owner."
      },
      "setDividendTreasury(address)": {
        "details": "Set dividend treasury address",
        "params": {
          "_dividendTreasury": "New dividend treasury address"
        }
      },
      "setManager(address)": {
        "details": "Set manager",
        "params": {
          "_manager": "New manager address"
        }
      },
      "totalAccumulatedShares()": {
        "details": "Query global pool total accumulated shares",
        "returns": {
          "_0": "Total accumulated shares"
        }
      },
      "totalDividend()": {
        "details": "Query global pool total dividend amount",
        "returns": {
          "_0": "Total dividend amount"
        }
      },
      "transferOwnership(address)": {
        "details": "Transfers ownership of the contract to a new account (`newOwner`). Can only be called by the current owner."
      },
      "updateGlobalPoolStatus(bool)": {
        "details": "Update global pool status",
        "params": {
          "isActive": "Whether to activate"
        }
      },
      "updateUserPoolsOnTransfer(address,address,uint256)": {
        "details": "Update user pools on token transfer (core functionality)",
        "params": {
          "amount": "Transfer amount",
          "from": "Transfer from address",
          "to": "Transfer to address"
        }
      }
    },
    "title": "AccumulatedYield",
    "version": 1
  },
  "userdoc": {
    "kind": "user",
    "methods": {},
    "notice": "Supports accumulated yield and real-time claiming, similar to MasterChef design",
    "version": 1
  },
  "storageLayout": {
    "storage": [
      {
        "astId": 123,
        "contract": "contracts/v2/templates/yield/AccumulatedYield.sol:AccumulatedYield",
        "label": "_status",
        "offset": 0,
        "slot": "0",
        "type": "t_uint256"
      },
      {
        "astId": 7,
        "contract": "contracts/v2/templates/yield/AccumulatedYield.sol:AccumulatedYield",
        "label": "_owner",
        "offset": 0,
        "slot": "1",
        "type": "t_address"
      },
      {
        "astId": 4792,
        "contract": "contracts/v2/templates/yield/AccumulatedYield.sol:AccumulatedYield",
        "label": "globalPool",
        "offset": 0,
        "slot": "2",
        "type": "t_struct(GlobalPoolInfo)2635_storage"
      },
      {
        "astId": 4797,
        "contract": "contracts/v2/templates/yield/AccumulatedYield.sol:AccumulatedYield",
        "label": "users",
        "offset": 0,
        "slot": "7",
        "type": "t_mapping(t_address,t_struct(UserInfo)2645_storage)"
      },
      {
        "astId": 4799,
        "contract": "contracts/v2/templates/yield/AccumulatedYield.sol:AccumulatedYield",
        "label": "vault",
        "offset": 0,
        "slot": "8",
        "type": "t_address"
      },
      {
        "astId": 4801,
        "contract": "contracts/v2/templates/yield/AccumulatedYield.sol:AccumulatedYield",
        "label": "manager",
        "offset": 0,
        "slot": "9",
        "type": "t_address"
      },
      {
        "astId": 4803,
        "contract": "contracts/v2/templates/yield/AccumulatedYield.sol:AccumulatedYield",
        "label": "dividendTreasury",
        "offset": 0,
        "slot": "10",
        "type": "t_address"
      },
      {
        "astId": 4805,
        "contract": "contracts/v2/templates/yield/AccumulatedYield.sol:AccumulatedYield",
        "label": "dividendNonce",
        "offset": 0,
        "slot": "11",
        "type": "t_uint256"
      }
    ],
    "types": {
      "t_address": {
        "encoding": "inplace",
        "label": "address",
        "numberOfBytes": "20"
      },
      "t_bool": {
        "encoding": "inplace",
        "label": "bool",
        "numberOfBytes": "1"
      },
      "t_mapping(t_address,t_struct(UserInfo)2645_storage)": {
        "encoding": "mapping",
        "key": "t_address",
        "label": "mapping(address => struct IAccumulatedYield.UserInfo)",
        "numberOfBytes": "32",
        "value": "t_struct(UserInfo)2645_storage"
      },
      "t_struct(GlobalPoolInfo)2635_storage": {
        "encoding": "inplace",
        "label": "struct IAccumulatedYield.GlobalPoolInfo",
        "members": [
          {
            "astId": 2624,
            "contract": "contracts/v2/templates/yield/AccumulatedYield.sol:AccumulatedYield",
            "label": "totalAccumulatedShares",
            "offset": 0,
            "slot": "0",
            "type": "t_uint256"
          },
          {
            "astId": 2626,
            "contract": "contracts/v2/templates/yield/AccumulatedYield.sol:AccumulatedYield",
            "label": "lastDividendTime",
            "offset": 0,
            "slot": "1",
            "type": "t_uint256"
          },
          {
            "astId": 2628,
            "contract": "contracts/v2/templates/yield/AccumulatedYield.sol:AccumulatedYield",
            "label": "totalDividend",
            "offset": 0,
            "slot": "2",
            "type": "t_uint256"
          },
          {
            "astId": 2630,
            "contract": "contracts/v2/templates/yield/AccumulatedYield.sol:AccumulatedYield",
            "label": "isActive",
            "offset": 0,
            "slot": "3",
            "type": "t_bool"
          },
          {
            "astId": 2632,
            "contract": "contracts/v2/templates/yield/AccumulatedYield.sol:AccumulatedYield",
            "label": "shareToken",
            "offset": 1,
            "slot": "3",
            "type": "t_address"
          },
          {
            "astId": 2634,
            "contract": "contracts/v2/templates/yield/AccumulatedYield.sol:AccumulatedYield",
            "label": "rewardToken",
            "offset": 0,
            "slot": "4",
            "type": "t_address"
          }
        ],
        "numberOfBytes": "160"
      },
      "t_struct(UserInfo)2645_storage": {
        "encoding": "inplace",
        "label": "struct IAccumulatedYield.UserInfo",
        "members": [
          {
            "astId": 2638,
            "contract": "contracts/v2/templates/yield/AccumulatedYield.sol:AccumulatedYield",
            "label": "accumulatedShares",
            "offset": 0,
            "slot": "0",
            "type": "t_uint256"
          },
          {
            "astId": 2640,
            "contract": "contracts/v2/templates/yield/AccumulatedYield.sol:AccumulatedYield",
            "label": "lastClaimTime",
            "offset": 0,
            "slot": "1",
            "type": "t_uint256"
          },
          {
            "astId": 2642,
            "contract": "contracts/v2/templates/yield/AccumulatedYield.sol:AccumulatedYield",
            "label": "lastClaimDividend",
            "offset": 0,
            "slot": "2",
            "type": "t_uint256"
          },
          {
            "astId": 2644,
            "contract": "contracts/v2/templates/yield/AccumulatedYield.sol:AccumulatedYield",
            "label": "totalClaimed",
            "offset": 0,
            "slot": "3",
            "type": "t_uint256"
          }
        ],
        "numberOfBytes": "128"
      },
      "t_uint256": {
        "encoding": "inplace",
        "label": "uint256",
        "numberOfBytes": "32"
      }
    }
  }
}