{
  "address": "0x522B3f0955eFbA85D53509374d054D7c7258b606",
  "abi": [
    {
      "inputs": [],
      "stateMutability": "nonpayable",
      "type": "constructor"
    },
    {
      "anonymous": false,
      "inputs": [
        {
          "indexed": true,
          "internalType": "address",
          "name": "previousOwner",
          "type": "address"
        },
        {
          "indexed": true,
          "internalType": "address",
          "name": "newOwner",
          "type": "address"
        }
      ],
      "name": "OwnershipTransferred",
      "type": "event"
    },
    {
      "anonymous": false,
      "inputs": [],
      "name": "TokenPaused",
      "type": "event"
    },
    {
      "anonymous": false,
      "inputs": [],
      "name": "TokenUnpaused",
      "type": "event"
    },
    {
      "anonymous": false,
      "inputs": [
        {
          "indexed": false,
          "internalType": "bytes",
          "name": "dataHash",
          "type": "bytes"
        },
        {
          "indexed": false,
          "internalType": "bytes",
          "name": "signature",
          "type": "bytes"
        }
      ],
      "name": "VerifyDataUpdated",
      "type": "event"
    },
    {
      "anonymous": false,
      "inputs": [
        {
          "indexed": true,
          "internalType": "address",
          "name": "addr",
          "type": "address"
        }
      ],
      "name": "WhitelistAdded",
      "type": "event"
    },
    {
      "anonymous": false,
      "inputs": [
        {
          "indexed": true,
          "internalType": "address",
          "name": "addr",
          "type": "address"
        }
      ],
      "name": "WhitelistRemoved",
      "type": "event"
    },
    {
      "anonymous": false,
      "inputs": [
        {
          "indexed": false,
          "internalType": "bool",
          "name": "enabled",
          "type": "bool"
        }
      ],
      "name": "WhitelistStatusChanged",
      "type": "event"
    },
    {
      "inputs": [],
      "name": "accumulatedYield",
      "outputs": [
        {
          "internalType": "address",
          "name": "",
          "type": "address"
        }
      ],
      "stateMutability": "view",
      "type": "function"
    },
    {
      "inputs": [
        {
          "internalType": "address",
          "name": "_addr",
          "type": "address"
        }
      ],
      "name": "addToWhitelist",
      "outputs": [],
      "stateMutability": "nonpayable",
      "type": "function"
    },
    {
      "inputs": [
        {
          "internalType": "address",
          "name": "from",
          "type": "address"
        },
        {
          "internalType": "uint256",
          "name": "amount",
          "type": "uint256"
        }
      ],
      "name": "burnToken",
      "outputs": [],
      "stateMutability": "nonpayable",
      "type": "function"
    },
    {
      "inputs": [
        {
          "internalType": "address",
          "name": "_vaultToken",
          "type": "address"
        },
        {
          "internalType": "address",
          "name": "_funding",
          "type": "address"
        },
        {
          "internalType": "address",
          "name": "_yield",
          "type": "address"
        }
      ],
      "name": "configureModules",
      "outputs": [],
      "stateMutability": "nonpayable",
      "type": "function"
    },
    {
      "inputs": [],
      "name": "dataHash",
      "outputs": [
        {
          "internalType": "bytes",
          "name": "",
          "type": "bytes"
        }
      ],
      "stateMutability": "view",
      "type": "function"
    },
    {
      "inputs": [],
      "name": "disableWhitelist",
      "outputs": [],
      "stateMutability": "nonpayable",
      "type": "function"
    },
    {
      "inputs": [],
      "name": "enableWhitelist",
      "outputs": [],
      "stateMutability": "nonpayable",
      "type": "function"
    },
    {
      "inputs": [],
      "name": "funding",
      "outputs": [
        {
          "internalType": "address",
          "name": "",
          "type": "address"
        }
      ],
      "stateMutability": "view",
      "type": "function"
    },
    {
      "inputs": [
        {
          "internalType": "bytes",
          "name": "_initData",
          "type": "bytes"
        }
      ],
      "name": "initiate",
      "outputs": [],
      "stateMutability": "nonpayable",
      "type": "function"
    },
    {
      "inputs": [],
      "name": "isFundingSuccessful",
      "outputs": [
        {
          "internalType": "bool",
          "name": "",
          "type": "bool"
        }
      ],
      "stateMutability": "view",
      "type": "function"
    },
    {
      "inputs": [],
      "name": "isTokenPaused",
      "outputs": [
        {
          "internalType": "bool",
          "name": "",
          "type": "bool"
        }
      ],
      "stateMutability": "view",
      "type": "function"
    },
    {
      "inputs": [],
      "name": "isWhiteList",
      "outputs": [
        {
          "internalType": "bool",
          "name": "",
          "type": "bool"
        }
      ],
      "stateMutability": "view",
      "type": "function"
    },
    {
      "inputs": [
        {
          "internalType": "address",
          "name": "",
          "type": "address"
        }
      ],
      "name": "isWhitelisted",
      "outputs": [
        {
          "internalType": "bool",
          "name": "",
          "type": "bool"
        }
      ],
      "stateMutability": "view",
      "type": "function"
    },
    {
      "inputs": [],
      "name": "manager",
      "outputs": [
        {
          "internalType": "address",
          "name": "",
          "type": "address"
        }
      ],
      "stateMutability": "view",
      "type": "function"
    },
    {
      "inputs": [
        {
          "internalType": "address",
          "name": "to",
          "type": "address"
        },
        {
          "internalType": "uint256",
          "name": "amount",
          "type": "uint256"
        }
      ],
      "name": "mintToken",
      "outputs": [],
      "stateMutability": "nonpayable",
      "type": "function"
    },
    {
      "inputs": [
        {
          "internalType": "address",
          "name": "from",
          "type": "address"
        },
        {
          "internalType": "address",
          "name": "to",
          "type": "address"
        },
        {
          "internalType": "uint256",
          "name": "amount",
          "type": "uint256"
        }
      ],
      "name": "onTokenTransfer",
      "outputs": [],
      "stateMutability": "nonpayable",
      "type": "function"
    },
    {
      "inputs": [],
      "name": "owner",
      "outputs": [
        {
          "internalType": "address",
          "name": "",
          "type": "address"
        }
      ],
      "stateMutability": "view",
      "type": "function"
    },
    {
      "inputs": [],
      "name": "pauseToken",
      "outputs": [],
      "stateMutability": "nonpayable",
      "type": "function"
    },
    {
      "inputs": [
        {
          "internalType": "address",
          "name": "_addr",
          "type": "address"
        }
      ],
      "name": "removeFromWhitelist",
      "outputs": [],
      "stateMutability": "nonpayable",
      "type": "function"
    },
    {
      "inputs": [],
      "name": "renounceOwnership",
      "outputs": [],
      "stateMutability": "nonpayable",
      "type": "function"
    },
    {
      "inputs": [],
      "name": "signature",
      "outputs": [
        {
          "internalType": "bytes",
          "name": "",
          "type": "bytes"
        }
      ],
      "stateMutability": "view",
      "type": "function"
    },
    {
      "inputs": [
        {
          "internalType": "address",
          "name": "newOwner",
          "type": "address"
        }
      ],
      "name": "transferOwnership",
      "outputs": [],
      "stateMutability": "nonpayable",
      "type": "function"
    },
    {
      "inputs": [],
      "name": "unpauseToken",
      "outputs": [],
      "stateMutability": "nonpayable",
      "type": "function"
    },
    {
      "inputs": [
        {
          "internalType": "bytes",
          "name": "hash",
          "type": "bytes"
        },
        {
          "internalType": "bytes",
          "name": "_signature",
          "type": "bytes"
        }
      ],
      "name": "updateVerifyData",
      "outputs": [],
      "stateMutability": "nonpayable",
      "type": "function"
    },
    {
      "inputs": [],
      "name": "validator",
      "outputs": [
        {
          "internalType": "address",
          "name": "",
          "type": "address"
        }
      ],
      "stateMutability": "view",
      "type": "function"
    },
    {
      "inputs": [],
      "name": "vaultToken",
      "outputs": [
        {
          "internalType": "address",
          "name": "",
          "type": "address"
        }
      ],
      "stateMutability": "view",
      "type": "function"
    },
    {
      "inputs": [],
      "name": "verify",
      "outputs": [
        {
          "internalType": "bool",
          "name": "",
          "type": "bool"
        }
      ],
      "stateMutability": "pure",
      "type": "function"
    },
    {
      "inputs": [],
      "name": "whitelistEnabled",
      "outputs": [
        {
          "internalType": "bool",
          "name": "",
          "type": "bool"
        }
      ],
      "stateMutability": "view",
      "type": "function"
    }
  ],
  "transactionHash": "0xc03955a5de3e84204e16bd10940733237b3bb8ea78d32b2d93598b4382ce420a",
  "args": [],
  "numDeployments": 1,
  "solcInputHash": "69382e7fed480203e684e46f99a1d48f",
  "bytecode": "0x60808060405234605e5760008054336001600160a01b0319821681178355916001600160a01b03909116907f8be0079c531659141344cd1fd0a4f28419497f9722a3daafe3b4186f6b6457e09080a360018055611c1490816100648239f35b600080fdfe6080604052600436101561001257600080fd5b6000803560e01c80631790da96146116645780631b3012a3146115cf5780631edf47da146112565780632c349627146111985780632f17b18214610d0b57806331b1125f14610ee85780633a5381b514610ebf5780633af32abf14610e80578063481c6a7514610e5757806350669a0314610d3157806351fb012d14610d0b57806351ff484714610c36578063677ba3d314610aaa578063703bafd514610a81578063715018a614610a2757806379c65068146109665780638ab1d681146108c95780638da5cb5b146108a2578063cb4c86b714610879578063cdfb2b4e14610800578063d1df306c14610709578063d6b0f48414610697578063e43252d71461064f578063f2fde38b146105c1578063f64e881414610288578063f8a3c8f214610198578063fc735e991461017c5763fcdfd5c51461015157600080fd5b346101795780600319360112610179576007546040516001600160a01b039091168152602090f35b80fd5b5034610179578060031936011261017957602060405160018152f35b50346101795780600319360112610179576009546001600160a01b031690811561023857602060049260405193848092637c51e47960e11b82525afa90811561022c5780916101ef575b6020826040519015158152f35b90506020823d602011610224575b8161020a602093836116c3565b81010312610179575061021e6020916117c4565b386101e2565b3d91506101fd565b604051903d90823e3d90fd5b60405162461bcd60e51b815260206004820152602260248201527f42617369635661756c743a2066756e64696e67206d6f64756c65206e6f742073604482015261195d60f21b6064820152608490fd5b50346101795760203660031901126101795760043567ffffffffffffffff81116105bd576102ba90369060040161173c565b90815182019060808360208401930312610179576102da602084016119d2565b906102e7604085016119d2565b916102f4606086016117c4565b9460808101519067ffffffffffffffff82116105b9570184603f820112156105b55760208101519467ffffffffffffffff86116105a1578560051b916040519661034160208501896116c3565b87526020870192810160400191821161059d57604001915b8183106105795750506009546001600160a01b0392831694909216905060a082901c60ff166105345783156104ef5780156104aa578561041e575b60028054600480546001600160a01b0319169093179092556001600160a81b0319909116841795151560a01b60ff60a01b169590951790945560ff60a01b19909316600160a01b176009559091805b83518110156104115760019061040b6001600160a01b036104048388611b74565b5116611a85565b016103e3565b5061041b82611a3e565b80f35b825b85518110156104a4576001600160a01b0361043b8288611b74565b51161561044a57600101610420565b60405162461bcd60e51b815260206004820152602c60248201527f42617369635661756c743a2077686974656c697374206164647265737320636160448201526b6e6e6f74206265207a65726f60a01b6064820152608490fd5b50610394565b60405162461bcd60e51b815260206004820152601d60248201527f42617369635661756c743a20696e76616c69642076616c696461746f720000006044820152606490fd5b60405162461bcd60e51b815260206004820152601b60248201527f42617369635661756c743a20696e76616c6964206d616e6167657200000000006044820152606490fd5b60405162461bcd60e51b815260206004820152601f60248201527f42617369635661756c743a20616c726561647920696e697469616c697a6564006044820152606490fd5b82516001600160a01b038116810361059957815260209283019201610359565b8580fd5b8480fd5b634e487b7160e01b84526041600452602484fd5b8280fd5b8380fd5b5080fd5b5034610179576020366003190112610179576105db611798565b6105e36119e6565b6001600160a01b038116156105fb5761041b90611a3e565b60405162461bcd60e51b815260206004820152602660248201527f4f776e61626c653a206e6577206f776e657220697320746865207a65726f206160448201526564647265737360d01b6064820152608490fd5b50346101795760203660031901126101795761041b61066c611798565b61068160018060a01b03600254163314611856565b61069260ff60095460a01c166118a2565b611a85565b50346101795780600319360112610179576002546106bf336001600160a01b03831614611856565b6106d060ff60095460a01c166118a2565b60ff60a01b19166002556040518181527f1cf28b997975c7be355bcef74f2f5019aa48253bc1e54b3c8b002471865fdba890602090a180f35b50346101795760403660031901126101795780610724611798565b60095461074b9060ff90610742336001600160a01b03831614611986565b60a01c166118a2565b60ff60025460a01c166107d9575b6008546001600160a01b03166107708115156118ee565b803b156107d55760405163079cc67960e41b81526001600160a01b039092166004830152602480359083015282908290818381604481015b03925af180156107ca576107b95750f35b816107c3916116c3565b6101795780f35b6040513d84823e3d90fd5b5050fd5b6001600160a01b0381168252600360205260408220546107fb9060ff1661193a565b610759565b5034610179578060031936011261017957600254610828336001600160a01b03831614611856565b61083960ff60095460a01c166118a2565b60ff60a01b1916600160a01b17600255604051600181527f1cf28b997975c7be355bcef74f2f5019aa48253bc1e54b3c8b002471865fdba890602090a180f35b50346101795780600319360112610179576009546040516001600160a01b039091168152602090f35b5034610179578060031936011261017957546040516001600160a01b039091168152602090f35b5034610179576020366003190112610179576108e3611798565b6108f860018060a01b03600254163314611856565b61090960ff60095460a01c166118a2565b6001600160a01b03168082526003602052604082205461092b9060ff1661193a565b808252600360205260408220805460ff191690557fde8cf212af7ce38b2840785a2768d97ff2dbf3c21b516961cec0061e134c2a1e8280a280f35b50346101795760403660031901126101795780610981611798565b60095461099f9060ff90610742336001600160a01b03831614611986565b60ff60025460a01c16610a00575b6008546001600160a01b03166109c48115156118ee565b803b156107d5576040516340c10f1960e01b81526001600160a01b039092166004830152602480359083015282908290818381604481016107a8565b6001600160a01b038116825260036020526040822054610a229060ff1661193a565b6109ad565b5034610179578060031936011261017957610a406119e6565b80546001600160a01b03198116825581906001600160a01b03167f8be0079c531659141344cd1fd0a4f28419497f9722a3daafe3b4186f6b6457e08280a380f35b50346101795780600319360112610179576008546040516001600160a01b039091168152602090f35b503461017957606036600319011261017957610ac4611798565b610acc6117ae565b610add60ff60095460a01c166118a2565b60ff60025460a01c1680610c0f575b610be8575b6008546001600160a01b03163303610ba35760075483926001600160a01b039091169182151580610b91575b80610b7f575b610b2c57505050f35b823b15610b7a57604051635329441f60e11b81526001600160a01b0392831660048201529116602482015260448035908201529082908290606490829084905af180156107ca576107b95750f35b505050fd5b506001600160a01b0381161515610b23565b506001600160a01b0382161515610b1d565b60405162461bcd60e51b815260206004820152601f60248201527f42617369635661756c743a206f6e6c7920746f6b656e2063616e2063616c6c006044820152606490fd5b6001600160a01b038116835260036020526040832054610c0a9060ff1661193a565b610af1565b6001600160a01b038316845260036020526040842054610c319060ff1661193a565b610aec565b5034610179578060031936011261017957604051908060065490610c5982611689565b8085529160018116908115610ce45750600114610c99575b610c9584610c81818603826116c3565b6040519182916020835260208301906116fb565b0390f35b60068152600080516020611bbf833981519152939250905b808210610cca57509091508101602001610c8182610c71565b919260018160209254838588010152019101909291610cb1565b60ff191660208087019190915292151560051b85019092019250610c819150839050610c71565b5034610179578060031936011261017957602060ff60025460a01c166040519015158152f35b5034610179578060031936011261017957600954610d5460ff8260a01c166118a2565b6002546001600160a01b03163314908115610e44575b5015610df35760085481906001600160a01b0316610d898115156118ee565b803b15610df057818091600460405180948193631fa5d41d60e11b83525af180156107ca57610ddb575b50807f034f571e8421592eac76524eb9ce5c1ec88251bd2ea778a88cf713dbd15cfc3391a180f35b81610de5916116c3565b610179578038610db3565b50fd5b60405162461bcd60e51b815260206004820152602360248201527f42617369635661756c743a206f6e6c79206d616e61676572206f722066756e64604482015262696e6760e81b6064820152608490fd5b6001600160a01b03163314905038610d6a565b50346101795780600319360112610179576002546040516001600160a01b039091168152602090f35b50346101795760203660031901126101795760209060ff906040906001600160a01b03610eab611798565b168152600384522054166040519015158152f35b50346101795780600319360112610179576004546040516001600160a01b039091168152602090f35b503461017957606036600319011261017957610f02611798565b610f0a6117ae565b6044356001600160a01b0381169291908390036105b957610f296119e6565b60095491610f3c60ff8460a01c166118a2565b600854906001600160a01b038216611153576001600160a01b0316908115611104576001600160a01b031916176008556001600160a01b0382166110bf576001600160a01b031690811561106e576001600160a01b031916176009556007546001600160a01b038116611019578115610fc0576001600160a01b0319161760075580f35b60405162461bcd60e51b815260206004820152602b60248201527f42617369635661756c743a20696e76616c6964206469766964656e64206d6f6460448201526a756c65206164647265737360a81b6064820152608490fd5b60405162461bcd60e51b815260206004820152602760248201527f42617369635661756c743a206469766964656e64206d6f64756c6520616c726560448201526618591e481cd95d60ca1b6064820152608490fd5b60405162461bcd60e51b815260206004820152602360248201527f42617369635661756c743a20696e76616c69642066756e64696e67206164647260448201526265737360e81b6064820152608490fd5b60405162461bcd60e51b815260206004820152601f60248201527f42617369635661756c743a2066756e64696e6720616c726561647920736574006044820152606490fd5b60405162461bcd60e51b815260206004820152602160248201527f42617369635661756c743a20696e76616c696420746f6b656e206164647265736044820152607360f81b6064820152608490fd5b60405162461bcd60e51b815260206004820152601d60248201527f42617369635661756c743a20746f6b656e20616c7265616479207365740000006044820152606490fd5b50346101795780600319360112610179576111be60018060a01b03600254163314611856565b6111cf60ff60095460a01c166118a2565b60085481906001600160a01b03166111e88115156118ee565b803b15610df057818091600460405180958193638456cb5960e01b83525af1801561124957611239575b7fe7792495f34379948e170e2eaab4c10e47ffdd0999c32d6e9848e863802f188c8180a180f35b611242916116c3565b3881611212565b50604051903d90823e3d90fd5b50346101795760403660031901126101795760043567ffffffffffffffff81116105bd5761128890369060040161173c565b9060243567ffffffffffffffff81116105bd576112a990369060040161173c565b916112bf60018060a01b03600254163314611856565b6112d060ff60095460a01c166118a2565b80519267ffffffffffffffff84116115bb576112ed600554611689565b601f8111611550575b50602093601f81116001146114e157839481929394916114d6575b508160011b916000199060031b1c1916176005555b805167ffffffffffffffff81116105a157611342600654611689565b601f811161146b575b506020601f82116001146113d4576113b592827f54dddae9d1794a76ed9a0d813b38cd24dd636b9435046a24cfa0c81ed2cd53b595936113c39388916113c9575b508160011b916000199060031b1c1916176006555b6040519384936040855260408501906116fb565b9083820360208501526116fb565b0390a180f35b90508201513861138c565b60068552600080516020611bbf83398151915290601f198316865b8181106114535750836113c3936113b596937f54dddae9d1794a76ed9a0d813b38cd24dd636b9435046a24cfa0c81ed2cd53b598966001941061143a575b5050811b016006556113a1565b84015160001960f88460031b161c19169055388061142d565b919260206001819286890151815501940192016113ef565b60068552601f820160051c600080516020611bbf8339815191520190602083106114c0575b601f0160051c600080516020611bbf83398151915201905b8181106114b5575061134b565b8581556001016114a8565b600080516020611bbf8339815191529150611490565b905083015138611311565b60058452601f19811694600080516020611b9f83398151915290855b8781106115385750826001949596971061151f575b5050811b01600555611326565b85015160001960f88460031b161c191690553880611512565b909160206001819285890151815501930191016114fd565b60058452601f850160051c600080516020611b9f8339815191520190602086106115a5575b601f0160051c600080516020611b9f83398151915201905b81811061159a57506112f6565b84815560010161158d565b600080516020611b9f8339815191529150611575565b634e487b7160e01b83526041600452602483fd5b50346101795780600319360112610179576040519080600554906115f282611689565b8085529160018116908115610ce4575060011461161957610c9584610c81818603826116c3565b60058152600080516020611b9f833981519152939250905b80821061164a57509091508101602001610c8182610c71565b919260018160209254838588010152019101909291611631565b5034610179578060031936011261017957602061167f6117d1565b6040519015158152f35b90600182811c921680156116b9575b60208310146116a357565b634e487b7160e01b600052602260045260246000fd5b91607f1691611698565b90601f8019910116810190811067ffffffffffffffff8211176116e557604052565b634e487b7160e01b600052604160045260246000fd5b919082519283825260005b848110611727575050826000602080949584010152601f8019910116010190565b80602080928401015182828601015201611706565b81601f820112156117935780359067ffffffffffffffff82116116e55760405192611771601f8401601f1916602001856116c3565b8284526020838301011161179357816000926020809301838601378301015290565b600080fd5b600435906001600160a01b038216820361179357565b602435906001600160a01b038216820361179357565b5190811515820361179357565b6008546001600160a01b0316801561185057602060049160405192838092635c975abb60e01b82525afa9081156118445760009161180d575090565b90506020813d60201161183c575b81611828602093836116c3565b8101031261179357611839906117c4565b90565b3d915061181b565b6040513d6000823e3d90fd5b50600090565b1561185d57565b60405162461bcd60e51b815260206004820152601860248201527f42617369635661756c743a206f6e6c79206d616e6167657200000000000000006044820152606490fd5b156118a957565b60405162461bcd60e51b815260206004820152601b60248201527f42617369635661756c743a206e6f7420696e697469616c697a656400000000006044820152606490fd5b156118f557565b60405162461bcd60e51b815260206004820152601960248201527f42617369635661756c743a20746f6b656e206e6f7420736574000000000000006044820152606490fd5b1561194157565b60405162461bcd60e51b815260206004820152601b60248201527f42617369635661756c743a206e6f742077686974656c697374656400000000006044820152606490fd5b1561198d57565b60405162461bcd60e51b815260206004820152601860248201527f42617369635661756c743a206f6e6c792066756e64696e6700000000000000006044820152606490fd5b51906001600160a01b038216820361179357565b6000546001600160a01b031633036119fa57565b606460405162461bcd60e51b815260206004820152602060248201527f4f776e61626c653a2063616c6c6572206973206e6f7420746865206f776e65726044820152fd5b600080546001600160a01b039283166001600160a01b03198216811783559216907f8be0079c531659141344cd1fd0a4f28419497f9722a3daafe3b4186f6b6457e09080a3565b6001600160a01b03168015611b2f5780600052600360205260ff60406000205416611aea578060005260036020526040600020600160ff198254161790557f4790a4adb426ca2345bb5108f6e454eae852a7bf687544cd66a7270dff3a41d6600080a2565b60405162461bcd60e51b815260206004820152601f60248201527f42617369635661756c743a20616c72656164792077686974656c6973746564006044820152606490fd5b60405162461bcd60e51b815260206004820152601b60248201527f42617369635661756c743a20696e76616c6964206164647265737300000000006044820152606490fd5b8051821015611b885760209160051b010190565b634e487b7160e01b600052603260045260246000fdfe036b6384b5eca791c62761152d0c79bb0604c104a5fb6f4eb0703f3154bb3db0f652222313e28459528d920b65115c16c04f3efc82aaedc97be59f3f377c0d3fa26469706673582212207c593198a353966d6c15e51593da367e8b97c88761b6c00b2616b843b7d9bd2764736f6c634300081a0033",
  "devdoc": {
    "details": "Basic vault template implementation, providing fundamental storage and permission management",
    "kind": "dev",
    "methods": {
      "addToWhitelist(address)": {
        "details": "Add address to whitelist",
        "params": {
          "_addr": "Address to add"
        }
      },
      "burnToken(address,uint256)": {
        "details": "Burn tokens through vault, Only callable by the funding module",
        "params": {
          "amount": "Amount to burn",
          "from": "Address to burn from"
        }
      },
      "disableWhitelist()": {
        "details": "Disable whitelist"
      },
      "enableWhitelist()": {
        "details": "Enable whitelist"
      },
      "initiate(bytes)": {
        "details": "Unified initialization interface",
        "params": {
          "_initData": "Encoded initialization data"
        }
      },
      "isFundingSuccessful()": {
        "details": "Check if funding is successful by querying the funding module",
        "returns": {
          "_0": "Whether funding is successful"
        }
      },
      "isTokenPaused()": {
        "details": "Check if token is paused",
        "returns": {
          "_0": "Whether token is paused"
        }
      },
      "isWhiteList()": {
        "details": "Check if whitelist is enabled",
        "returns": {
          "_0": "Whether whitelist is enabled"
        }
      },
      "mintToken(address,uint256)": {
        "details": "Mint tokens through vault, Only callable by the funding module",
        "params": {
          "amount": "Amount to mint",
          "to": "Recipient address"
        }
      },
      "onTokenTransfer(address,address,uint256)": {
        "details": "Hook called on token transfer, Only callable by the token module",
        "params": {
          "amount": "Transfer amount",
          "from": "From address",
          "to": "To address"
        }
      },
      "owner()": {
        "details": "Returns the address of the current owner."
      },
      "pauseToken()": {
        "details": "Pause token"
      },
      "removeFromWhitelist(address)": {
        "details": "Remove address from whitelist",
        "params": {
          "_addr": "Address to remove"
        }
      },
      "renounceOwnership()": {
        "details": "Leaves the contract without owner. It will not be possible to call `onlyOwner` functions. Can only be called by the current owner. NOTE: Renouncing ownership will leave the contract without an owner, thereby disabling any functionality that is only available to the owner."
      },
      "transferOwnership(address)": {
        "details": "Transfers ownership of the contract to a new account (`newOwner`). Can only be called by the current owner."
      },
      "unpauseToken()": {
        "details": "Unpause token"
      },
      "updateVerifyData(bytes,bytes)": {
        "details": "Update verification data",
        "params": {
          "_signature": "Signature data",
          "hash": "Data hash"
        }
      },
      "verify()": {
        "details": "Verify data (simple implementation, actual applications need more complex verification logic)",
        "returns": {
          "_0": "Verification result"
        }
      }
    },
    "title": "BasicVault",
    "version": 1
  },
  "userdoc": {
    "kind": "user",
    "methods": {},
    "notice": "This contract does not contain specific business logic, business functions are implemented by other modules",
    "version": 1
  },
  "storageLayout": {
    "storage": [
      {
        "astId": 7,
        "contract": "contracts/v2/templates/vault/BasicVault.sol:BasicVault",
        "label": "_owner",
        "offset": 0,
        "slot": "0",
        "type": "t_address"
      },
      {
        "astId": 123,
        "contract": "contracts/v2/templates/vault/BasicVault.sol:BasicVault",
        "label": "_status",
        "offset": 0,
        "slot": "1",
        "type": "t_uint256"
      },
      {
        "astId": 4746,
        "contract": "contracts/v2/templates/vault/BasicVault.sol:BasicVault",
        "label": "manager",
        "offset": 0,
        "slot": "2",
        "type": "t_address"
      },
      {
        "astId": 4749,
        "contract": "contracts/v2/templates/vault/BasicVault.sol:BasicVault",
        "label": "whitelistEnabled",
        "offset": 20,
        "slot": "2",
        "type": "t_bool"
      },
      {
        "astId": 4754,
        "contract": "contracts/v2/templates/vault/BasicVault.sol:BasicVault",
        "label": "isWhitelisted",
        "offset": 0,
        "slot": "3",
        "type": "t_mapping(t_address,t_bool)"
      },
      {
        "astId": 4757,
        "contract": "contracts/v2/templates/vault/BasicVault.sol:BasicVault",
        "label": "validator",
        "offset": 0,
        "slot": "4",
        "type": "t_address"
      },
      {
        "astId": 4760,
        "contract": "contracts/v2/templates/vault/BasicVault.sol:BasicVault",
        "label": "dataHash",
        "offset": 0,
        "slot": "5",
        "type": "t_bytes_storage"
      },
      {
        "astId": 4763,
        "contract": "contracts/v2/templates/vault/BasicVault.sol:BasicVault",
        "label": "signature",
        "offset": 0,
        "slot": "6",
        "type": "t_bytes_storage"
      },
      {
        "astId": 4765,
        "contract": "contracts/v2/templates/vault/BasicVault.sol:BasicVault",
        "label": "accumulatedYield",
        "offset": 0,
        "slot": "7",
        "type": "t_address"
      },
      {
        "astId": 4768,
        "contract": "contracts/v2/templates/vault/BasicVault.sol:BasicVault",
        "label": "vaultToken",
        "offset": 0,
        "slot": "8",
        "type": "t_address"
      },
      {
        "astId": 4770,
        "contract": "contracts/v2/templates/vault/BasicVault.sol:BasicVault",
        "label": "funding",
        "offset": 0,
        "slot": "9",
        "type": "t_address"
      },
      {
        "astId": 4772,
        "contract": "contracts/v2/templates/vault/BasicVault.sol:BasicVault",
        "label": "_initialized",
        "offset": 20,
        "slot": "9",
        "type": "t_bool"
      }
    ],
    "types": {
      "t_address": {
        "encoding": "inplace",
        "label": "address",
        "numberOfBytes": "20"
      },
      "t_bool": {
        "encoding": "inplace",
        "label": "bool",
        "numberOfBytes": "1"
      },
      "t_bytes_storage": {
        "encoding": "bytes",
        "label": "bytes",
        "numberOfBytes": "32"
      },
      "t_mapping(t_address,t_bool)": {
        "encoding": "mapping",
        "key": "t_address",
        "label": "mapping(address => bool)",
        "numberOfBytes": "32",
        "value": "t_bool"
      },
      "t_uint256": {
        "encoding": "inplace",
        "label": "uint256",
        "numberOfBytes": "32"
      }
    }
  }
}