{
  "address": "0xe3E8e27e93446034Bf201c45A491624bB5751F0D",
  "abi": [
    {
      "inputs": [],
      "stateMutability": "nonpayable",
      "type": "constructor"
    },
    {
      "anonymous": false,
      "inputs": [
        {
          "indexed": true,
          "internalType": "address",
          "name": "previousOwner",
          "type": "address"
        },
        {
          "indexed": true,
          "internalType": "address",
          "name": "newOwner",
          "type": "address"
        }
      ],
      "name": "OwnershipTransferred",
      "type": "event"
    },
    {
      "anonymous": false,
      "inputs": [],
      "name": "TokenPaused",
      "type": "event"
    },
    {
      "anonymous": false,
      "inputs": [],
      "name": "TokenUnpaused",
      "type": "event"
    },
    {
      "anonymous": false,
      "inputs": [
        {
          "indexed": false,
          "internalType": "bytes",
          "name": "dataHash",
          "type": "bytes"
        },
        {
          "indexed": false,
          "internalType": "bytes",
          "name": "signature",
          "type": "bytes"
        }
      ],
      "name": "VerifyDataUpdated",
      "type": "event"
    },
    {
      "anonymous": false,
      "inputs": [
        {
          "indexed": true,
          "internalType": "address",
          "name": "addr",
          "type": "address"
        }
      ],
      "name": "WhitelistAdded",
      "type": "event"
    },
    {
      "anonymous": false,
      "inputs": [
        {
          "indexed": true,
          "internalType": "address",
          "name": "addr",
          "type": "address"
        }
      ],
      "name": "WhitelistRemoved",
      "type": "event"
    },
    {
      "anonymous": false,
      "inputs": [
        {
          "indexed": false,
          "internalType": "bool",
          "name": "enabled",
          "type": "bool"
        }
      ],
      "name": "WhitelistStatusChanged",
      "type": "event"
    },
    {
      "inputs": [
        {
          "internalType": "address",
          "name": "_addr",
          "type": "address"
        }
      ],
      "name": "addToWhitelist",
      "outputs": [],
      "stateMutability": "nonpayable",
      "type": "function"
    },
    {
      "inputs": [
        {
          "internalType": "address",
          "name": "from",
          "type": "address"
        },
        {
          "internalType": "uint256",
          "name": "amount",
          "type": "uint256"
        }
      ],
      "name": "burnToken",
      "outputs": [],
      "stateMutability": "nonpayable",
      "type": "function"
    },
    {
      "inputs": [
        {
          "internalType": "address",
          "name": "_vaultToken",
          "type": "address"
        },
        {
          "internalType": "address",
          "name": "_funding",
          "type": "address"
        },
        {
          "internalType": "address",
          "name": "_yield",
          "type": "address"
        }
      ],
      "name": "configureModules",
      "outputs": [],
      "stateMutability": "nonpayable",
      "type": "function"
    },
    {
      "inputs": [],
      "name": "dataHash",
      "outputs": [
        {
          "internalType": "bytes",
          "name": "",
          "type": "bytes"
        }
      ],
      "stateMutability": "view",
      "type": "function"
    },
    {
      "inputs": [],
      "name": "disableWhitelist",
      "outputs": [],
      "stateMutability": "nonpayable",
      "type": "function"
    },
    {
      "inputs": [],
      "name": "enableWhitelist",
      "outputs": [],
      "stateMutability": "nonpayable",
      "type": "function"
    },
    {
      "inputs": [],
      "name": "funding",
      "outputs": [
        {
          "internalType": "address",
          "name": "",
          "type": "address"
        }
      ],
      "stateMutability": "view",
      "type": "function"
    },
    {
      "inputs": [
        {
          "internalType": "bytes",
          "name": "_initData",
          "type": "bytes"
        }
      ],
      "name": "initiate",
      "outputs": [],
      "stateMutability": "nonpayable",
      "type": "function"
    },
    {
      "inputs": [],
      "name": "isFundingSuccessful",
      "outputs": [
        {
          "internalType": "bool",
          "name": "",
          "type": "bool"
        }
      ],
      "stateMutability": "view",
      "type": "function"
    },
    {
      "inputs": [],
      "name": "isTokenPaused",
      "outputs": [
        {
          "internalType": "bool",
          "name": "",
          "type": "bool"
        }
      ],
      "stateMutability": "view",
      "type": "function"
    },
    {
      "inputs": [],
      "name": "isWhiteList",
      "outputs": [
        {
          "internalType": "bool",
          "name": "",
          "type": "bool"
        }
      ],
      "stateMutability": "view",
      "type": "function"
    },
    {
      "inputs": [
        {
          "internalType": "address",
          "name": "",
          "type": "address"
        }
      ],
      "name": "isWhitelisted",
      "outputs": [
        {
          "internalType": "bool",
          "name": "",
          "type": "bool"
        }
      ],
      "stateMutability": "view",
      "type": "function"
    },
    {
      "inputs": [],
      "name": "manager",
      "outputs": [
        {
          "internalType": "address",
          "name": "",
          "type": "address"
        }
      ],
      "stateMutability": "view",
      "type": "function"
    },
    {
      "inputs": [
        {
          "internalType": "address",
          "name": "to",
          "type": "address"
        },
        {
          "internalType": "uint256",
          "name": "amount",
          "type": "uint256"
        }
      ],
      "name": "mintToken",
      "outputs": [],
      "stateMutability": "nonpayable",
      "type": "function"
    },
    {
      "inputs": [
        {
          "internalType": "address",
          "name": "from",
          "type": "address"
        },
        {
          "internalType": "address",
          "name": "to",
          "type": "address"
        },
        {
          "internalType": "uint256",
          "name": "amount",
          "type": "uint256"
        }
      ],
      "name": "onTokenTransfer",
      "outputs": [],
      "stateMutability": "nonpayable",
      "type": "function"
    },
    {
      "inputs": [],
      "name": "owner",
      "outputs": [
        {
          "internalType": "address",
          "name": "",
          "type": "address"
        }
      ],
      "stateMutability": "view",
      "type": "function"
    },
    {
      "inputs": [],
      "name": "pauseToken",
      "outputs": [],
      "stateMutability": "nonpayable",
      "type": "function"
    },
    {
      "inputs": [
        {
          "internalType": "address",
          "name": "_addr",
          "type": "address"
        }
      ],
      "name": "removeFromWhitelist",
      "outputs": [],
      "stateMutability": "nonpayable",
      "type": "function"
    },
    {
      "inputs": [],
      "name": "renounceOwnership",
      "outputs": [],
      "stateMutability": "nonpayable",
      "type": "function"
    },
    {
      "inputs": [],
      "name": "signature",
      "outputs": [
        {
          "internalType": "bytes",
          "name": "",
          "type": "bytes"
        }
      ],
      "stateMutability": "view",
      "type": "function"
    },
    {
      "inputs": [
        {
          "internalType": "address",
          "name": "newOwner",
          "type": "address"
        }
      ],
      "name": "transferOwnership",
      "outputs": [],
      "stateMutability": "nonpayable",
      "type": "function"
    },
    {
      "inputs": [],
      "name": "unpauseToken",
      "outputs": [],
      "stateMutability": "nonpayable",
      "type": "function"
    },
    {
      "inputs": [
        {
          "internalType": "bytes",
          "name": "hash",
          "type": "bytes"
        },
        {
          "internalType": "bytes",
          "name": "_signature",
          "type": "bytes"
        }
      ],
      "name": "updateVerifyData",
      "outputs": [],
      "stateMutability": "nonpayable",
      "type": "function"
    },
    {
      "inputs": [],
      "name": "validator",
      "outputs": [
        {
          "internalType": "address",
          "name": "",
          "type": "address"
        }
      ],
      "stateMutability": "view",
      "type": "function"
    },
    {
      "inputs": [],
      "name": "vaultToken",
      "outputs": [
        {
          "internalType": "address",
          "name": "",
          "type": "address"
        }
      ],
      "stateMutability": "view",
      "type": "function"
    },
    {
      "inputs": [],
      "name": "verify",
      "outputs": [
        {
          "internalType": "bool",
          "name": "",
          "type": "bool"
        }
      ],
      "stateMutability": "pure",
      "type": "function"
    },
    {
      "inputs": [],
      "name": "whitelistEnabled",
      "outputs": [
        {
          "internalType": "bool",
          "name": "",
          "type": "bool"
        }
      ],
      "stateMutability": "view",
      "type": "function"
    },
    {
      "inputs": [],
      "name": "yield",
      "outputs": [
        {
          "internalType": "address",
          "name": "",
          "type": "address"
        }
      ],
      "stateMutability": "view",
      "type": "function"
    }
  ],
  "transactionHash": "0x4cde1cd55427fb685d98367a98d4cc1d278ba7bd798016ab32ae99fdfedfbd0e",
  "args": [],
  "numDeployments": 1,
  "solcInputHash": "2d28f981e5391d692cda107a779297fe",
  "bytecode": "0x60808060405234605e5760008054336001600160a01b0319821681178355916001600160a01b03909116907f8be0079c531659141344cd1fd0a4f28419497f9722a3daafe3b4186f6b6457e09080a360018055611bf090816100648239f35b600080fdfe6080604052600436101561001257600080fd5b6000803560e01c80631790da96146116405780631b3012a3146115ab5780631edf47da14611243578063285939841461121a5780632c3496271461115c5780632f17b18214610cd757806331b1125f14610eb45780633a5381b514610e8b5780633af32abf14610e4c578063481c6a7514610e2357806350669a0314610cfd57806351fb012d14610cd757806351ff484714610c02578063677ba3d314610a76578063703bafd514610a4d578063715018a6146109f357806379c650681461093b5780638ab1d6811461089e5780638da5cb5b14610877578063cb4c86b71461084e578063cdfb2b4e146107d5578063d1df306c146106e0578063d6b0f4841461066e578063e43252d714610626578063f2fde38b14610598578063f64e88141461025f578063f8a3c8f21461016f5763fc735e991461015157600080fd5b3461016c578060031936011261016c57602060405160018152f35b80fd5b503461016c578060031936011261016c576009546001600160a01b031690811561020f57602060049260405193848092637c51e47960e11b82525afa9081156102035780916101c6575b6020826040519015158152f35b90506020823d6020116101fb575b816101e16020938361169f565b8101031261016c57506101f56020916117a0565b386101b9565b3d91506101d4565b604051903d90823e3d90fd5b60405162461bcd60e51b815260206004820152602260248201527f42617369635661756c743a2066756e64696e67206d6f64756c65206e6f742073604482015261195d60f21b6064820152608490fd5b503461016c57602036600319011261016c5760043567ffffffffffffffff811161059457610291903690600401611718565b9081518201906080836020840193031261016c576102b1602084016119ae565b906102be604085016119ae565b916102cb606086016117a0565b9460808101519067ffffffffffffffff8211610590570184603f8201121561058c5760208101519467ffffffffffffffff8611610578578560051b9160405196610318602085018961169f565b87526020870192810160400191821161057457604001915b8183106105505750506009546001600160a01b0392831694909216905060a082901c60ff1661050b5783156104c657801561048157856103f5575b60028054600480546001600160a01b0319169093179092556001600160a81b0319909116841795151560a01b60ff60a01b169590951790945560ff60a01b19909316600160a01b176009559091805b83518110156103e8576001906103e26001600160a01b036103db8388611b50565b5116611a61565b016103ba565b506103f282611a1a565b80f35b825b855181101561047b576001600160a01b036104128288611b50565b511615610421576001016103f7565b60405162461bcd60e51b815260206004820152602c60248201527f42617369635661756c743a2077686974656c697374206164647265737320636160448201526b6e6e6f74206265207a65726f60a01b6064820152608490fd5b5061036b565b60405162461bcd60e51b815260206004820152601d60248201527f42617369635661756c743a20696e76616c69642076616c696461746f720000006044820152606490fd5b60405162461bcd60e51b815260206004820152601b60248201527f42617369635661756c743a20696e76616c6964206d616e6167657200000000006044820152606490fd5b60405162461bcd60e51b815260206004820152601f60248201527f42617369635661756c743a20616c726561647920696e697469616c697a6564006044820152606490fd5b82516001600160a01b038116810361057057815260209283019201610330565b8580fd5b8480fd5b634e487b7160e01b84526041600452602484fd5b8280fd5b8380fd5b5080fd5b503461016c57602036600319011261016c576105b2611774565b6105ba6119c2565b6001600160a01b038116156105d2576103f290611a1a565b60405162461bcd60e51b815260206004820152602660248201527f4f776e61626c653a206e6577206f776e657220697320746865207a65726f206160448201526564647265737360d01b6064820152608490fd5b503461016c57602036600319011261016c576103f2610643611774565b61065460ff60095460a01c1661187e565b61066960018060a01b03600254163314611832565b611a61565b503461016c578060031936011261016c5761069060ff60095460a01c1661187e565b6002546106a7336001600160a01b03831614611832565b60ff60a01b19166002556040518181527f1cf28b997975c7be355bcef74f2f5019aa48253bc1e54b3c8b002471865fdba890602090a180f35b503461016c57604036600319011261016c57806106fb611774565b61072060095461071060ff8260a01c1661187e565b6001600160a01b03163314611962565b60ff60025460a01c166107ae575b6008546001600160a01b03166107458115156118ca565b803b156107aa5760405163079cc67960e41b81526001600160a01b039092166004830152602480359083015282908290818381604481015b03925af1801561079f5761078e5750f35b816107989161169f565b61016c5780f35b6040513d84823e3d90fd5b5050fd5b6001600160a01b0381168252600360205260408220546107d09060ff16611916565b61072e565b503461016c578060031936011261016c576107f760ff60095460a01c1661187e565b60025461080e336001600160a01b03831614611832565b60ff60a01b1916600160a01b17600255604051600181527f1cf28b997975c7be355bcef74f2f5019aa48253bc1e54b3c8b002471865fdba890602090a180f35b503461016c578060031936011261016c576009546040516001600160a01b039091168152602090f35b503461016c578060031936011261016c57546040516001600160a01b039091168152602090f35b503461016c57602036600319011261016c576108b8611774565b6108c960ff60095460a01c1661187e565b6108de60018060a01b03600254163314611832565b6001600160a01b0316808252600360205260408220546109009060ff16611916565b808252600360205260408220805460ff191690557fde8cf212af7ce38b2840785a2768d97ff2dbf3c21b516961cec0061e134c2a1e8280a280f35b503461016c57604036600319011261016c5780610956611774565b61096b60095461071060ff8260a01c1661187e565b60ff60025460a01c166109cc575b6008546001600160a01b03166109908115156118ca565b803b156107aa576040516340c10f1960e01b81526001600160a01b0390921660048301526024803590830152829082908183816044810161077d565b6001600160a01b0381168252600360205260408220546109ee9060ff16611916565b610979565b503461016c578060031936011261016c57610a0c6119c2565b80546001600160a01b03198116825581906001600160a01b03167f8be0079c531659141344cd1fd0a4f28419497f9722a3daafe3b4186f6b6457e08280a380f35b503461016c578060031936011261016c576008546040516001600160a01b039091168152602090f35b503461016c57606036600319011261016c57610a90611774565b610a9861178a565b610aa960ff60095460a01c1661187e565b60ff60025460a01c1680610bdb575b610bb4575b6008546001600160a01b03163303610b6f5760075483926001600160a01b039091169182151580610b5d575b80610b4b575b610af857505050f35b823b15610b4657604051635329441f60e11b81526001600160a01b0392831660048201529116602482015260448035908201529082908290606490829084905af1801561079f5761078e5750f35b505050fd5b506001600160a01b0381161515610aef565b506001600160a01b0382161515610ae9565b60405162461bcd60e51b815260206004820152601f60248201527f42617369635661756c743a206f6e6c7920746f6b656e2063616e2063616c6c006044820152606490fd5b6001600160a01b038116835260036020526040832054610bd69060ff16611916565b610abd565b6001600160a01b038316845260036020526040842054610bfd9060ff16611916565b610ab8565b503461016c578060031936011261016c57604051908060065490610c2582611665565b8085529160018116908115610cb05750600114610c65575b610c6184610c4d8186038261169f565b6040519182916020835260208301906116d7565b0390f35b60068152600080516020611b9b833981519152939250905b808210610c9657509091508101602001610c4d82610c3d565b919260018160209254838588010152019101909291610c7d565b60ff191660208087019190915292151560051b85019092019250610c4d9150839050610c3d565b503461016c578060031936011261016c57602060ff60025460a01c166040519015158152f35b503461016c578060031936011261016c57600954610d2060ff8260a01c1661187e565b6002546001600160a01b03163314908115610e10575b5015610dbf5760085481906001600160a01b0316610d558115156118ca565b803b15610dbc57818091600460405180948193631fa5d41d60e11b83525af1801561079f57610da7575b50807f034f571e8421592eac76524eb9ce5c1ec88251bd2ea778a88cf713dbd15cfc3391a180f35b81610db19161169f565b61016c578038610d7f565b50fd5b60405162461bcd60e51b815260206004820152602360248201527f42617369635661756c743a206f6e6c79206d616e61676572206f722066756e64604482015262696e6760e81b6064820152608490fd5b6001600160a01b03163314905038610d36565b503461016c578060031936011261016c576002546040516001600160a01b039091168152602090f35b503461016c57602036600319011261016c5760209060ff906040906001600160a01b03610e77611774565b168152600384522054166040519015158152f35b503461016c578060031936011261016c576004546040516001600160a01b039091168152602090f35b503461016c57606036600319011261016c57610ece611774565b610ed661178a565b6044356001600160a01b0381169291908390036105905760095491610f0060ff8460a01c1661187e565b600854906001600160a01b038216611117576001600160a01b03169081156110c8576001600160a01b031916176008556001600160a01b038216611083576001600160a01b0316908115611032576001600160a01b031916176009556007546001600160a01b038116610fdd578115610f84576001600160a01b0319161760075580f35b60405162461bcd60e51b815260206004820152602b60248201527f42617369635661756c743a20696e76616c6964206469766964656e64206d6f6460448201526a756c65206164647265737360a81b6064820152608490fd5b60405162461bcd60e51b815260206004820152602760248201527f42617369635661756c743a206469766964656e64206d6f64756c6520616c726560448201526618591e481cd95d60ca1b6064820152608490fd5b60405162461bcd60e51b815260206004820152602360248201527f42617369635661756c743a20696e76616c69642066756e64696e67206164647260448201526265737360e81b6064820152608490fd5b60405162461bcd60e51b815260206004820152601f60248201527f42617369635661756c743a2066756e64696e6720616c726561647920736574006044820152606490fd5b60405162461bcd60e51b815260206004820152602160248201527f42617369635661756c743a20696e76616c696420746f6b656e206164647265736044820152607360f81b6064820152608490fd5b60405162461bcd60e51b815260206004820152601d60248201527f42617369635661756c743a20746f6b656e20616c7265616479207365740000006044820152606490fd5b503461016c578060031936011261016c5761117e60ff60095460a01c1661187e565b61119360018060a01b03600254163314611832565b60085481906001600160a01b03166111ac8115156118ca565b803b15610dbc57818091600460405180958193638456cb5960e01b83525af1801561120d576111fd575b7fe7792495f34379948e170e2eaab4c10e47ffdd0999c32d6e9848e863802f188c8180a180f35b6112069161169f565b38816111d6565b50604051903d90823e3d90fd5b503461016c578060031936011261016c576007546040516001600160a01b039091168152602090f35b503461016c57604036600319011261016c5760043567ffffffffffffffff811161059457611275903690600401611718565b9060243567ffffffffffffffff811161059457611296903690600401611718565b916112ac60018060a01b03600254163314611832565b80519267ffffffffffffffff8411611597576112c9600554611665565b601f811161152c575b50602093601f81116001146114bd57839481929394916114b2575b508160011b916000199060031b1c1916176005555b805167ffffffffffffffff81116105785761131e600654611665565b601f8111611447575b506020601f82116001146113b05761139192827f54dddae9d1794a76ed9a0d813b38cd24dd636b9435046a24cfa0c81ed2cd53b5959361139f9388916113a5575b508160011b916000199060031b1c1916176006555b6040519384936040855260408501906116d7565b9083820360208501526116d7565b0390a180f35b905082015138611368565b60068552600080516020611b9b83398151915290601f198316865b81811061142f57508361139f9361139196937f54dddae9d1794a76ed9a0d813b38cd24dd636b9435046a24cfa0c81ed2cd53b5989660019410611416575b5050811b0160065561137d565b84015160001960f88460031b161c191690553880611409565b919260206001819286890151815501940192016113cb565b60068552601f820160051c600080516020611b9b83398151915201906020831061149c575b601f0160051c600080516020611b9b83398151915201905b8181106114915750611327565b858155600101611484565b600080516020611b9b833981519152915061146c565b9050830151386112ed565b60058452601f19811694600080516020611b7b83398151915290855b878110611514575082600194959697106114fb575b5050811b01600555611302565b85015160001960f88460031b161c1916905538806114ee565b909160206001819285890151815501930191016114d9565b60058452601f850160051c600080516020611b7b833981519152019060208610611581575b601f0160051c600080516020611b7b83398151915201905b81811061157657506112d2565b848155600101611569565b600080516020611b7b8339815191529150611551565b634e487b7160e01b83526041600452602483fd5b503461016c578060031936011261016c576040519080600554906115ce82611665565b8085529160018116908115610cb057506001146115f557610c6184610c4d8186038261169f565b60058152600080516020611b7b833981519152939250905b80821061162657509091508101602001610c4d82610c3d565b91926001816020925483858801015201910190929161160d565b503461016c578060031936011261016c57602061165b6117ad565b6040519015158152f35b90600182811c92168015611695575b602083101461167f57565b634e487b7160e01b600052602260045260246000fd5b91607f1691611674565b90601f8019910116810190811067ffffffffffffffff8211176116c157604052565b634e487b7160e01b600052604160045260246000fd5b919082519283825260005b848110611703575050826000602080949584010152601f8019910116010190565b806020809284010151828286010152016116e2565b81601f8201121561176f5780359067ffffffffffffffff82116116c1576040519261174d601f8401601f19166020018561169f565b8284526020838301011161176f57816000926020809301838601378301015290565b600080fd5b600435906001600160a01b038216820361176f57565b602435906001600160a01b038216820361176f57565b5190811515820361176f57565b6008546001600160a01b0316801561182c57602060049160405192838092635c975abb60e01b82525afa908115611820576000916117e9575090565b90506020813d602011611818575b816118046020938361169f565b8101031261176f57611815906117a0565b90565b3d91506117f7565b6040513d6000823e3d90fd5b50600090565b1561183957565b60405162461bcd60e51b815260206004820152601860248201527f42617369635661756c743a206f6e6c79206d616e6167657200000000000000006044820152606490fd5b1561188557565b60405162461bcd60e51b815260206004820152601b60248201527f42617369635661756c743a206e6f7420696e697469616c697a656400000000006044820152606490fd5b156118d157565b60405162461bcd60e51b815260206004820152601960248201527f42617369635661756c743a20746f6b656e206e6f7420736574000000000000006044820152606490fd5b1561191d57565b60405162461bcd60e51b815260206004820152601b60248201527f42617369635661756c743a206e6f742077686974656c697374656400000000006044820152606490fd5b1561196957565b60405162461bcd60e51b815260206004820152601860248201527f42617369635661756c743a206f6e6c792066756e64696e6700000000000000006044820152606490fd5b51906001600160a01b038216820361176f57565b6000546001600160a01b031633036119d657565b606460405162461bcd60e51b815260206004820152602060248201527f4f776e61626c653a2063616c6c6572206973206e6f7420746865206f776e65726044820152fd5b600080546001600160a01b039283166001600160a01b03198216811783559216907f8be0079c531659141344cd1fd0a4f28419497f9722a3daafe3b4186f6b6457e09080a3565b6001600160a01b03168015611b0b5780600052600360205260ff60406000205416611ac6578060005260036020526040600020600160ff198254161790557f4790a4adb426ca2345bb5108f6e454eae852a7bf687544cd66a7270dff3a41d6600080a2565b60405162461bcd60e51b815260206004820152601f60248201527f42617369635661756c743a20616c72656164792077686974656c6973746564006044820152606490fd5b60405162461bcd60e51b815260206004820152601b60248201527f42617369635661756c743a20696e76616c6964206164647265737300000000006044820152606490fd5b8051821015611b645760209160051b010190565b634e487b7160e01b600052603260045260246000fdfe036b6384b5eca791c62761152d0c79bb0604c104a5fb6f4eb0703f3154bb3db0f652222313e28459528d920b65115c16c04f3efc82aaedc97be59f3f377c0d3fa2646970667358221220ae357dd23e0a6a6904816e5605c26ec345550ffd933e64411fc32d785fba4d1064736f6c634300081a0033",
  "devdoc": {
    "details": "Basic vault template implementation, providing fundamental storage and permission management",
    "kind": "dev",
    "methods": {
      "addToWhitelist(address)": {
        "details": "Add address to whitelist",
        "params": {
          "_addr": "Address to add"
        }
      },
      "burnToken(address,uint256)": {
        "details": "Burn tokens through vault, Only callable by the funding module",
        "params": {
          "amount": "Amount to burn",
          "from": "Address to burn from"
        }
      },
      "disableWhitelist()": {
        "details": "Disable whitelist"
      },
      "enableWhitelist()": {
        "details": "Enable whitelist"
      },
      "initiate(bytes)": {
        "details": "Unified initialization interface",
        "params": {
          "_initData": "Encoded initialization data"
        }
      },
      "isFundingSuccessful()": {
        "details": "Check if funding is successful by querying the funding module",
        "returns": {
          "_0": "Whether funding is successful"
        }
      },
      "isTokenPaused()": {
        "details": "Check if token is paused",
        "returns": {
          "_0": "Whether token is paused"
        }
      },
      "isWhiteList()": {
        "details": "Check if whitelist is enabled",
        "returns": {
          "_0": "Whether whitelist is enabled"
        }
      },
      "mintToken(address,uint256)": {
        "details": "Mint tokens through vault, Only callable by the funding module",
        "params": {
          "amount": "Amount to mint",
          "to": "Recipient address"
        }
      },
      "onTokenTransfer(address,address,uint256)": {
        "details": "Hook called on token transfer, Only callable by the token module",
        "params": {
          "amount": "Transfer amount",
          "from": "From address",
          "to": "To address"
        }
      },
      "owner()": {
        "details": "Returns the address of the current owner."
      },
      "pauseToken()": {
        "details": "Pause token"
      },
      "removeFromWhitelist(address)": {
        "details": "Remove address from whitelist",
        "params": {
          "_addr": "Address to remove"
        }
      },
      "renounceOwnership()": {
        "details": "Leaves the contract without owner. It will not be possible to call `onlyOwner` functions. Can only be called by the current owner. NOTE: Renouncing ownership will leave the contract without an owner, thereby disabling any functionality that is only available to the owner."
      },
      "transferOwnership(address)": {
        "details": "Transfers ownership of the contract to a new account (`newOwner`). Can only be called by the current owner."
      },
      "unpauseToken()": {
        "details": "Unpause token"
      },
      "updateVerifyData(bytes,bytes)": {
        "details": "Update verification data",
        "params": {
          "_signature": "Signature data",
          "hash": "Data hash"
        }
      },
      "verify()": {
        "details": "Verify data (simple implementation, actual applications need more complex verification logic)",
        "returns": {
          "_0": "Verification result"
        }
      }
    },
    "title": "BasicVault",
    "version": 1
  },
  "userdoc": {
    "kind": "user",
    "methods": {},
    "notice": "This contract does not contain specific business logic, business functions are implemented by other modules",
    "version": 1
  },
  "storageLayout": {
    "storage": [
      {
        "astId": 7,
        "contract": "contracts/v2/templates/vault/BasicVault.sol:BasicVault",
        "label": "_owner",
        "offset": 0,
        "slot": "0",
        "type": "t_address"
      },
      {
        "astId": 231,
        "contract": "contracts/v2/templates/vault/BasicVault.sol:BasicVault",
        "label": "_status",
        "offset": 0,
        "slot": "1",
        "type": "t_uint256"
      },
      {
        "astId": 5981,
        "contract": "contracts/v2/templates/vault/BasicVault.sol:BasicVault",
        "label": "manager",
        "offset": 0,
        "slot": "2",
        "type": "t_address"
      },
      {
        "astId": 5984,
        "contract": "contracts/v2/templates/vault/BasicVault.sol:BasicVault",
        "label": "whitelistEnabled",
        "offset": 20,
        "slot": "2",
        "type": "t_bool"
      },
      {
        "astId": 5989,
        "contract": "contracts/v2/templates/vault/BasicVault.sol:BasicVault",
        "label": "isWhitelisted",
        "offset": 0,
        "slot": "3",
        "type": "t_mapping(t_address,t_bool)"
      },
      {
        "astId": 5992,
        "contract": "contracts/v2/templates/vault/BasicVault.sol:BasicVault",
        "label": "validator",
        "offset": 0,
        "slot": "4",
        "type": "t_address"
      },
      {
        "astId": 5995,
        "contract": "contracts/v2/templates/vault/BasicVault.sol:BasicVault",
        "label": "dataHash",
        "offset": 0,
        "slot": "5",
        "type": "t_bytes_storage"
      },
      {
        "astId": 5998,
        "contract": "contracts/v2/templates/vault/BasicVault.sol:BasicVault",
        "label": "signature",
        "offset": 0,
        "slot": "6",
        "type": "t_bytes_storage"
      },
      {
        "astId": 6000,
        "contract": "contracts/v2/templates/vault/BasicVault.sol:BasicVault",
        "label": "yield",
        "offset": 0,
        "slot": "7",
        "type": "t_address"
      },
      {
        "astId": 6003,
        "contract": "contracts/v2/templates/vault/BasicVault.sol:BasicVault",
        "label": "vaultToken",
        "offset": 0,
        "slot": "8",
        "type": "t_address"
      },
      {
        "astId": 6005,
        "contract": "contracts/v2/templates/vault/BasicVault.sol:BasicVault",
        "label": "funding",
        "offset": 0,
        "slot": "9",
        "type": "t_address"
      },
      {
        "astId": 6007,
        "contract": "contracts/v2/templates/vault/BasicVault.sol:BasicVault",
        "label": "_initialized",
        "offset": 20,
        "slot": "9",
        "type": "t_bool"
      }
    ],
    "types": {
      "t_address": {
        "encoding": "inplace",
        "label": "address",
        "numberOfBytes": "20"
      },
      "t_bool": {
        "encoding": "inplace",
        "label": "bool",
        "numberOfBytes": "1"
      },
      "t_bytes_storage": {
        "encoding": "bytes",
        "label": "bytes",
        "numberOfBytes": "32"
      },
      "t_mapping(t_address,t_bool)": {
        "encoding": "mapping",
        "key": "t_address",
        "label": "mapping(address => bool)",
        "numberOfBytes": "32",
        "value": "t_bool"
      },
      "t_uint256": {
        "encoding": "inplace",
        "label": "uint256",
        "numberOfBytes": "32"
      }
    }
  }
}