{
  "address": "0x8c9Ee0F7C67C32f78E4C7933AB529654B4e5A124",
  "abi": [
    {
      "inputs": [
        {
          "internalType": "address",
          "name": "_vaultFactory",
          "type": "address"
        },
        {
          "internalType": "address",
          "name": "_tokenFactory",
          "type": "address"
        },
        {
          "internalType": "address",
          "name": "_fundFactory",
          "type": "address"
        },
        {
          "internalType": "address",
          "name": "_YieldFactory",
          "type": "address"
        }
      ],
      "stateMutability": "nonpayable",
      "type": "constructor"
    },
    {
      "anonymous": false,
      "inputs": [
        {
          "indexed": false,
          "internalType": "address",
          "name": "vaultFactory",
          "type": "address"
        },
        {
          "indexed": false,
          "internalType": "address",
          "name": "tokenFactory",
          "type": "address"
        },
        {
          "indexed": false,
          "internalType": "address",
          "name": "fundFactory",
          "type": "address"
        },
        {
          "indexed": false,
          "internalType": "address",
          "name": "dividendFactory",
          "type": "address"
        }
      ],
      "name": "FactoriesUpdated",
      "type": "event"
    },
    {
      "anonymous": false,
      "inputs": [
        {
          "indexed": true,
          "internalType": "address",
          "name": "previousOwner",
          "type": "address"
        },
        {
          "indexed": true,
          "internalType": "address",
          "name": "newOwner",
          "type": "address"
        }
      ],
      "name": "OwnershipTransferred",
      "type": "event"
    },
    {
      "anonymous": false,
      "inputs": [
        {
          "indexed": false,
          "internalType": "string",
          "name": "projectName",
          "type": "string"
        },
        {
          "indexed": false,
          "internalType": "address",
          "name": "vault",
          "type": "address"
        },
        {
          "indexed": false,
          "internalType": "address",
          "name": "token",
          "type": "address"
        },
        {
          "indexed": false,
          "internalType": "address",
          "name": "fund",
          "type": "address"
        },
        {
          "indexed": false,
          "internalType": "address",
          "name": "accumulatedYield",
          "type": "address"
        },
        {
          "indexed": false,
          "internalType": "address",
          "name": "deployer",
          "type": "address"
        }
      ],
      "name": "ProjectCreated",
      "type": "event"
    },
    {
      "inputs": [
        {
          "internalType": "address",
          "name": "user",
          "type": "address"
        }
      ],
      "name": "addToWhitelist",
      "outputs": [],
      "stateMutability": "nonpayable",
      "type": "function"
    },
    {
      "inputs": [
        {
          "internalType": "string",
          "name": "projectName",
          "type": "string"
        },
        {
          "internalType": "uint256",
          "name": "vaultTemplateId",
          "type": "uint256"
        },
        {
          "internalType": "bytes",
          "name": "vaultInitData",
          "type": "bytes"
        },
        {
          "internalType": "uint256",
          "name": "tokenTemplateId",
          "type": "uint256"
        },
        {
          "internalType": "bytes",
          "name": "tokenInitData",
          "type": "bytes"
        },
        {
          "internalType": "uint256",
          "name": "fundTemplateId",
          "type": "uint256"
        },
        {
          "internalType": "bytes",
          "name": "fundInitData",
          "type": "bytes"
        },
        {
          "internalType": "uint256",
          "name": "yieldTemplateId",
          "type": "uint256"
        },
        {
          "internalType": "bytes",
          "name": "yieldInitData",
          "type": "bytes"
        }
      ],
      "name": "deployAll",
      "outputs": [],
      "stateMutability": "nonpayable",
      "type": "function"
    },
    {
      "inputs": [],
      "name": "fundFactory",
      "outputs": [
        {
          "internalType": "contract FundFactory",
          "name": "",
          "type": "address"
        }
      ],
      "stateMutability": "view",
      "type": "function"
    },
    {
      "inputs": [],
      "name": "getFactories",
      "outputs": [
        {
          "internalType": "address",
          "name": "",
          "type": "address"
        },
        {
          "internalType": "address",
          "name": "",
          "type": "address"
        },
        {
          "internalType": "address",
          "name": "",
          "type": "address"
        },
        {
          "internalType": "address",
          "name": "",
          "type": "address"
        }
      ],
      "stateMutability": "view",
      "type": "function"
    },
    {
      "inputs": [
        {
          "internalType": "string",
          "name": "projectName",
          "type": "string"
        }
      ],
      "name": "getProjectByName",
      "outputs": [
        {
          "components": [
            {
              "internalType": "string",
              "name": "name",
              "type": "string"
            },
            {
              "internalType": "address",
              "name": "vault",
              "type": "address"
            },
            {
              "internalType": "address",
              "name": "token",
              "type": "address"
            },
            {
              "internalType": "address",
              "name": "fund",
              "type": "address"
            },
            {
              "internalType": "address",
              "name": "accumulatedYield",
              "type": "address"
            },
            {
              "internalType": "uint256",
              "name": "createdAt",
              "type": "uint256"
            },
            {
              "internalType": "address",
              "name": "deployer",
              "type": "address"
            }
          ],
          "internalType": "struct ICreation.Project",
          "name": "",
          "type": "tuple"
        }
      ],
      "stateMutability": "view",
      "type": "function"
    },
    {
      "inputs": [
        {
          "internalType": "address",
          "name": "user",
          "type": "address"
        }
      ],
      "name": "getUserProjectDetails",
      "outputs": [
        {
          "components": [
            {
              "internalType": "string",
              "name": "name",
              "type": "string"
            },
            {
              "internalType": "address",
              "name": "vault",
              "type": "address"
            },
            {
              "internalType": "address",
              "name": "token",
              "type": "address"
            },
            {
              "internalType": "address",
              "name": "fund",
              "type": "address"
            },
            {
              "internalType": "address",
              "name": "accumulatedYield",
              "type": "address"
            },
            {
              "internalType": "uint256",
              "name": "createdAt",
              "type": "uint256"
            },
            {
              "internalType": "address",
              "name": "deployer",
              "type": "address"
            }
          ],
          "internalType": "struct ICreation.Project[]",
          "name": "",
          "type": "tuple[]"
        }
      ],
      "stateMutability": "view",
      "type": "function"
    },
    {
      "inputs": [],
      "name": "owner",
      "outputs": [
        {
          "internalType": "address",
          "name": "",
          "type": "address"
        }
      ],
      "stateMutability": "view",
      "type": "function"
    },
    {
      "inputs": [
        {
          "internalType": "string",
          "name": "",
          "type": "string"
        }
      ],
      "name": "projects",
      "outputs": [
        {
          "internalType": "string",
          "name": "name",
          "type": "string"
        },
        {
          "internalType": "address",
          "name": "vault",
          "type": "address"
        },
        {
          "internalType": "address",
          "name": "token",
          "type": "address"
        },
        {
          "internalType": "address",
          "name": "fund",
          "type": "address"
        },
        {
          "internalType": "address",
          "name": "accumulatedYield",
          "type": "address"
        },
        {
          "internalType": "uint256",
          "name": "createdAt",
          "type": "uint256"
        },
        {
          "internalType": "address",
          "name": "deployer",
          "type": "address"
        }
      ],
      "stateMutability": "view",
      "type": "function"
    },
    {
      "inputs": [
        {
          "internalType": "address",
          "name": "user",
          "type": "address"
        }
      ],
      "name": "removeFromWhitelist",
      "outputs": [],
      "stateMutability": "nonpayable",
      "type": "function"
    },
    {
      "inputs": [],
      "name": "renounceOwnership",
      "outputs": [],
      "stateMutability": "nonpayable",
      "type": "function"
    },
    {
      "inputs": [
        {
          "internalType": "address",
          "name": "_vaultFactory",
          "type": "address"
        },
        {
          "internalType": "address",
          "name": "_tokenFactory",
          "type": "address"
        },
        {
          "internalType": "address",
          "name": "_fundFactory",
          "type": "address"
        },
        {
          "internalType": "address",
          "name": "_yieldFactory",
          "type": "address"
        }
      ],
      "name": "setFactories",
      "outputs": [],
      "stateMutability": "nonpayable",
      "type": "function"
    },
    {
      "inputs": [],
      "name": "tokenFactory",
      "outputs": [
        {
          "internalType": "contract TokenFactory",
          "name": "",
          "type": "address"
        }
      ],
      "stateMutability": "view",
      "type": "function"
    },
    {
      "inputs": [
        {
          "internalType": "address",
          "name": "newOwner",
          "type": "address"
        }
      ],
      "name": "transferOwnership",
      "outputs": [],
      "stateMutability": "nonpayable",
      "type": "function"
    },
    {
      "inputs": [
        {
          "internalType": "address",
          "name": "",
          "type": "address"
        },
        {
          "internalType": "uint256",
          "name": "",
          "type": "uint256"
        }
      ],
      "name": "userProjects",
      "outputs": [
        {
          "internalType": "string",
          "name": "",
          "type": "string"
        }
      ],
      "stateMutability": "view",
      "type": "function"
    },
    {
      "inputs": [],
      "name": "vaultFactory",
      "outputs": [
        {
          "internalType": "contract VaultFactory",
          "name": "",
          "type": "address"
        }
      ],
      "stateMutability": "view",
      "type": "function"
    },
    {
      "inputs": [
        {
          "internalType": "address",
          "name": "",
          "type": "address"
        }
      ],
      "name": "whitelist",
      "outputs": [
        {
          "internalType": "bool",
          "name": "",
          "type": "bool"
        }
      ],
      "stateMutability": "view",
      "type": "function"
    },
    {
      "inputs": [],
      "name": "yieldFactory",
      "outputs": [
        {
          "internalType": "contract YieldFactory",
          "name": "",
          "type": "address"
        }
      ],
      "stateMutability": "view",
      "type": "function"
    }
  ],
  "transactionHash": "0x453361288453b20cffb63f9c1013bdacb9167f1d28867c9c3823ad52c9bb813b",
  "args": [
    "0x60Fb28635ac6162e089f3488A0c51669fAb91f1a",
    "0xab6d4D2F2A91F3431C823ADDCB78dD2Dc64Fd635",
    "0xF07e5f8bF0Ad05a0db59b98B21BCFA2f0BCf8f3f",
    "0xD9a0D2736B42838057154e3156be63Fc2DA4D758"
  ],
  "numDeployments": 1,
  "solcInputHash": "42d72c55161f263dde5fb479a35dbaf9",
  "bytecode": "0x6080346100f757601f61161e38819003918201601f19168301916001600160401b038311848410176100fc578084926080946040528339810103126100f75761004781610112565b9061005460208201610112565b61006c606061006560408501610112565b9301610112565b9261007633610126565b600180546001600160a01b03199081166001600160a01b0393841617909155600280548216938316939093179092556003805483169382169390931790925560048054909116929091169190911790556100cf33610126565b3360005260076020526040600020600160ff198254161790556040516114b0908161016e8239f35b600080fd5b634e487b7160e01b600052604160045260246000fd5b51906001600160a01b03821682036100f757565b600080546001600160a01b039283166001600160a01b03198216811783559216907f8be0079c531659141344cd1fd0a4f28419497f9722a3daafe3b4186f6b6457e09080a356fe608080604052600436101561001357600080fd5b60003560e01c90816316fd84f714610fde5750806329e5213a14610ee05780632fa9c00714610e765780633dea9e6614610e4d57806343417cea1461077f5780634b77f26914610656578063715018a6146105fd5780637e6cbb6a146105ab5780638ab1d681146105695780638da5cb5b1461054057806391c9b2681461046e5780639b19251a1461042f5780639de4ae011461023d578063d8a06f7314610214578063e43252d7146101cf578063e77772fe146101a65763f2fde38b146100da57600080fd5b346101a15760203660031901126101a1576100f3611002565b6100fb611422565b6001600160a01b0316801561014d57600080546001600160a01b03198116831782556001600160a01b0316907f8be0079c531659141344cd1fd0a4f28419497f9722a3daafe3b4186f6b6457e09080a3005b60405162461bcd60e51b815260206004820152602660248201527f4f776e61626c653a206e6577206f776e657220697320746865207a65726f206160448201526564647265737360d01b6064820152608490fd5b600080fd5b346101a15760003660031901126101a1576002546040516001600160a01b039091168152602090f35b346101a15760203660031901126101a1576101e8611002565b6101f0611422565b6001600160a01b03166000908152600760205260409020805460ff19166001179055005b346101a15760003660031901126101a1576001546040516001600160a01b039091168152602090f35b346101a15760203660031901126101a1576001600160a01b0361025e611002565b16600052600660205260406000208054610277816113f6565b91610285604051938461109c565b818352602083019060005260206000206000915b838310610412578451856102ac826113f6565b916102ba604051938461109c565b8083526102c9601f19916113f6565b0160005b8181106103fb57505060005b8151811015610393578061030860206102f46001948661140e565b518160405193828580945193849201611162565b810160058152030190206040519061031f82611080565b610328816110be565b82528084015460a085811b86900391821660208501526002830154821660408501526003830154821660608501526004830154821660808501526005830154908401526006909101541660c0820152610381828661140e565b5261038c818561140e565b50016102d9565b826040518091602082016020835281518091526040830190602060408260051b8601019301916000905b8282106103cc57505050500390f35b919360019193955060206103eb8192603f198a820301865288516111ff565b96019201920185949391926103bd565b6020906104066113be565b828287010152016102cd565b600160208192610421856110be565b815201920192019190610299565b346101a15760203660031901126101a1576001600160a01b03610450611002565b166000526007602052602060ff604060002054166040519015158152f35b346101a15760203660031901126101a15760043567ffffffffffffffff81116101a1576104ba60206104a761051d9336906004016111aa565b8160405193828580945193849201611162565b810160058152030190206104cd816110be565b6001820154600283015460038401546004850154600586015460069096015460405160e0808252909889986001600160a01b03978816989388169790969481169581169416929091890190611185565b95602088015260408701526060860152608085015260a084015260c08301520390f35b346101a15760003660031901126101a1576000546040516001600160a01b039091168152602090f35b346101a15760203660031901126101a157610582611002565b61058a611422565b6001600160a01b03166000908152600760205260409020805460ff19169055005b346101a15760003660031901126101a157600154600254600354600454604080516001600160a01b039586168152938516602085015291841691830191909152919091166060820152608090f35b0390f35b346101a15760003660031901126101a157610616611422565b600080546001600160a01b0319811682556001600160a01b03167f8be0079c531659141344cd1fd0a4f28419497f9722a3daafe3b4186f6b6457e08280a3005b346101a15760203660031901126101a15760043567ffffffffffffffff81116101a157602061068c6106a89236906004016111aa565b6106946113be565b508160405193828580945193849201611162565b81016005815203019020604051906106bf82611080565b6106c8816110be565b80835260018201546001600160a01b039081166020850152600283015481166040850152600383015481166060850152600483015481166080850152600583015460a085015260069092015490911660c0830152511561073a576105f9906040519182916020835260208301906111ff565b60405162461bcd60e51b815260206004820152601b60248201527f4372656174696f6e3a2070726f6a656374206e6f7420666f756e6400000000006044820152606490fd5b346101a1576101203660031901126101a15760043567ffffffffffffffff81116101a1576107b19036906004016111aa565b60443567ffffffffffffffff81116101a1576107d19036906004016111aa565b9060843567ffffffffffffffff81116101a1576107f29036906004016111aa565b9060c43567ffffffffffffffff81116101a1576108139036906004016111aa565b916101043567ffffffffffffffff81116101a1576108359036906004016111aa565b9233600052600760205260ff6040600020541615610e0857825115610db4576040519061088084519260208181880195610870818389611162565b8101600581520301902054611046565b610d615760206108c460009760018060a01b036001541690604051998a809481936325920b2160e01b83526024356004840152604060248401526044830190611185565b03925af1958615610c2757600096610d40575b506001600160a01b038616928315610cfb57602061091c9160018060a01b036002541689600060405180968195829463870837d760e01b845260643560048501611287565b03925af1908115610c2757600091610cdc575b506001600160a01b0316958615610c9757600354604051632e24c42b60e21b81529260209284926001600160a01b03169183916000918391610978919060a43560048501611287565b03925af1908115610c2757600091610c78575b506001600160a01b0316938415610c335760206109e860009260018060a01b03600454169060405194858094819363d16ce86f60e01b835260e43560048401528a60248401528d6044840152608060648401526084830190611185565b03925af1908115610c2757600091610bf8575b506001600160a01b0316908115610bb35760068460405192610a1c84611080565b81845260208401868152604085018a815260608601908a82526080870192888452610a78610a66602060a08b019742895260c08c0199338b52604051938492839251928391611162565b810160058152030190209851896112b2565b516001880180546001600160a01b03199081166001600160a01b039384161790915591516002890180548416918316919091179055915160038801805483169184169190911790559151600487018054841691831691909117905591516005860155915192909301805490911691909216179055336000908152600660205260409020805468010000000000000000811015610b9d57610b1d91600182018155611018565b949094610b87577f402345b597346bb627a93715b6a25cf10dae5136cdeb4ecb107d6e63616a1b0495610b5385610b67976112b2565b60405195869560c0875260c0870190611185565b9360208601526040850152606084015260808301523360a08301520390a1005b634e487b7160e01b600052600060045260246000fd5b634e487b7160e01b600052604160045260246000fd5b60405162461bcd60e51b815260206004820152601f60248201527f4372656174696f6e3a207969656c64206372656174696f6e206661696c6564006044820152606490fd5b610c1a915060203d602011610c20575b610c12818361109c565b810190611268565b866109fb565b503d610c08565b6040513d6000823e3d90fd5b60405162461bcd60e51b815260206004820152601e60248201527f4372656174696f6e3a2066756e64206372656174696f6e206661696c656400006044820152606490fd5b610c91915060203d602011610c2057610c12818361109c565b8661098b565b60405162461bcd60e51b815260206004820152601f60248201527f4372656174696f6e3a20746f6b656e206372656174696f6e206661696c6564006044820152606490fd5b610cf5915060203d602011610c2057610c12818361109c565b8761092f565b60405162461bcd60e51b815260206004820152601f60248201527f4372656174696f6e3a207661756c74206372656174696f6e206661696c6564006044820152606490fd5b610d5a91965060203d602011610c2057610c12818361109c565b94866108d7565b60405162461bcd60e51b815260206004820152602560248201527f4372656174696f6e3a2070726f6a656374206e616d6520616c72656164792065604482015264786973747360d81b6064820152608490fd5b60405162461bcd60e51b815260206004820152602660248201527f4372656174696f6e3a2070726f6a656374206e616d652063616e6e6f7420626560448201526520656d70747960d01b6064820152608490fd5b60405162461bcd60e51b815260206004820152601960248201527f4372656174696f6e3a206e6f742077686974656c6973746564000000000000006044820152606490fd5b346101a15760003660031901126101a1576003546040516001600160a01b039091168152602090f35b346101a15760403660031901126101a157610e8f611002565b6001600160a01b031660009081526006602052604090208054602435908110156101a157610ebc91611018565b610b8757610ecc6105f9916110be565b604051918291602083526020830190611185565b346101a15760803660031901126101a157610ef9611002565b6024356001600160a01b038116918282036101a1576044356001600160a01b03811693908481036101a157606435906001600160a01b0382168083036101a1577fae4e3fe398aa4a573a52068d6240e84dc4df03ac5a0a80e77168a56711453b5f96610fd994610f67611422565b600180546001600160a01b039889166001600160a01b031991821681179092556002805482169390931790925560038054831693909317909255600480549091169290921790915560408051918252958516602082015290841694810194909452909116606083015281906080820190565b0390a1005b346101a15760003660031901126101a1576004546001600160a01b03168152602090f35b600435906001600160a01b03821682036101a157565b80548210156110305760005260206000200190600090565b634e487b7160e01b600052603260045260246000fd5b90600182811c92168015611076575b602083101461106057565b634e487b7160e01b600052602260045260246000fd5b91607f1691611055565b60e0810190811067ffffffffffffffff821117610b9d57604052565b90601f8019910116810190811067ffffffffffffffff821117610b9d57604052565b90604051918260008254926110d284611046565b808452936001811690811561114057506001146110f9575b506110f79250038361109c565b565b90506000929192526020600020906000915b8183106111245750509060206110f792820101386110ea565b602091935080600191548385890101520191019091849261110b565b9050602092506110f794915060ff191682840152151560051b820101386110ea565b60005b8381106111755750506000910152565b8181015183820152602001611165565b9060209161119e81518092818552858086019101611162565b601f01601f1916010190565b81601f820112156101a15760208135910167ffffffffffffffff8211610b9d57604051926111e2601f8401601f19166020018561109c565b828452828201116101a15781600092602092838601378301015290565b9060c0611215835160e0845260e0840190611185565b6020808501516001600160a01b039081169185019190915260408086015182169085015260608086015182169085015260808086015182169085015260a080860151908501529382015190931691015290565b908160209103126101a157516001600160a01b03811681036101a15790565b9081526001600160a01b0390911660208201526060604082018190526112af92910190611185565b90565b919091825167ffffffffffffffff8111610b9d576112d08254611046565b601f8111611376575b506020601f82116001146113145781929394600092611309575b50508160011b916000199060031b1c1916179055565b0151905038806112f3565b601f1982169083600052806000209160005b81811061135e57509583600195969710611345575b505050811b019055565b015160001960f88460031b161c1916905538808061133b565b9192602060018192868b015181550194019201611326565b826000526020600020601f830160051c810191602084106113b4575b601f0160051c01905b8181106113a857506112d9565b6000815560010161139b565b9091508190611392565b604051906113cb82611080565b600060c083606081528260208201528260408201528260608201528260808201528260a08201520152565b67ffffffffffffffff8111610b9d5760051b60200190565b80518210156110305760209160051b010190565b6000546001600160a01b0316330361143657565b606460405162461bcd60e51b815260206004820152602060248201527f4f776e61626c653a2063616c6c6572206973206e6f7420746865206f776e65726044820152fdfea2646970667358221220e4f5daa4cb49bec272df0599d4a608bc1645bd0905e79aae0fe4848d4d8c560164736f6c634300081a0033",
  "devdoc": {
    "kind": "dev",
    "methods": {
      "addToWhitelist(address)": {
        "params": {
          "user": "The address to add."
        }
      },
      "deployAll(string,uint256,bytes,uint256,bytes,uint256,bytes,uint256,bytes)": {
        "details": "This function deploys each module via their respective factories and records the project information. Emits ProjectCreated event on success.",
        "params": {
          "fundInitData": "The initialization data for the Fund module (encoded as bytes).",
          "fundTemplateId": "The template ID for the Fund module.",
          "projectName": "The name of the project to be created.",
          "tokenInitData": "The initialization data for the Token module (encoded as bytes).",
          "tokenTemplateId": "The template ID for the Token module.",
          "vaultInitData": "The initialization data for the Vault module (encoded as bytes).",
          "vaultTemplateId": "The template ID for the Vault module.",
          "yieldInitData": "The initialization data for the Yield module (encoded as bytes).",
          "yieldTemplateId": "The template ID for the Yield module."
        }
      },
      "getFactories()": {
        "returns": {
          "_0": "The address of the VaultFactory contract.",
          "_1": "The address of the TokenFactory contract.",
          "_2": "The address of the FundFactory contract.",
          "_3": "The address of the DividendFactory contract."
        }
      },
      "getProjectByName(string)": {
        "params": {
          "projectName": "The name of the project."
        },
        "returns": {
          "_0": "The project struct."
        }
      },
      "getUserProjectDetails(address)": {
        "params": {
          "user": "The address of the user."
        },
        "returns": {
          "_0": "projects The array of project structs."
        }
      },
      "owner()": {
        "details": "Returns the address of the current owner."
      },
      "removeFromWhitelist(address)": {
        "params": {
          "user": "The address to remove."
        }
      },
      "renounceOwnership()": {
        "details": "Leaves the contract without owner. It will not be possible to call `onlyOwner` functions. Can only be called by the current owner. NOTE: Renouncing ownership will leave the contract without an owner, thereby disabling any functionality that is only available to the owner."
      },
      "transferOwnership(address)": {
        "details": "Transfers ownership of the contract to a new account (`newOwner`). Can only be called by the current owner."
      }
    },
    "version": 1
  },
  "userdoc": {
    "kind": "user",
    "methods": {
      "addToWhitelist(address)": {
        "notice": "Add a user to the whitelist."
      },
      "deployAll(string,uint256,bytes,uint256,bytes,uint256,bytes,uint256,bytes)": {
        "notice": "Deploy a new project with all modules (Vault, Token, Fund, Yield) in one transaction."
      },
      "getFactories()": {
        "notice": "Get the addresses of all factory contracts."
      },
      "getProjectByName(string)": {
        "notice": "Get project details by project name."
      },
      "getUserProjectDetails(address)": {
        "notice": "Get project details by user address."
      },
      "removeFromWhitelist(address)": {
        "notice": "Remove a user from the whitelist."
      }
    },
    "version": 1
  },
  "storageLayout": {
    "storage": [
      {
        "astId": 3547,
        "contract": "contracts/v2/creation/Creation.sol:Creation",
        "label": "_owner",
        "offset": 0,
        "slot": "0",
        "type": "t_address"
      },
      {
        "astId": 12250,
        "contract": "contracts/v2/creation/Creation.sol:Creation",
        "label": "vaultFactory",
        "offset": 0,
        "slot": "1",
        "type": "t_contract(VaultFactory)13311"
      },
      {
        "astId": 12253,
        "contract": "contracts/v2/creation/Creation.sol:Creation",
        "label": "tokenFactory",
        "offset": 0,
        "slot": "2",
        "type": "t_contract(TokenFactory)13120"
      },
      {
        "astId": 12256,
        "contract": "contracts/v2/creation/Creation.sol:Creation",
        "label": "fundFactory",
        "offset": 0,
        "slot": "3",
        "type": "t_contract(FundFactory)12926"
      },
      {
        "astId": 12259,
        "contract": "contracts/v2/creation/Creation.sol:Creation",
        "label": "yieldFactory",
        "offset": 0,
        "slot": "4",
        "type": "t_contract(YieldFactory)13508"
      },
      {
        "astId": 12309,
        "contract": "contracts/v2/creation/Creation.sol:Creation",
        "label": "projects",
        "offset": 0,
        "slot": "5",
        "type": "t_mapping(t_string_memory_ptr,t_struct(Project)13730_storage)"
      },
      {
        "astId": 12314,
        "contract": "contracts/v2/creation/Creation.sol:Creation",
        "label": "userProjects",
        "offset": 0,
        "slot": "6",
        "type": "t_mapping(t_address,t_array(t_string_storage)dyn_storage)"
      },
      {
        "astId": 12318,
        "contract": "contracts/v2/creation/Creation.sol:Creation",
        "label": "whitelist",
        "offset": 0,
        "slot": "7",
        "type": "t_mapping(t_address,t_bool)"
      }
    ],
    "types": {
      "t_address": {
        "encoding": "inplace",
        "label": "address",
        "numberOfBytes": "20"
      },
      "t_array(t_string_storage)dyn_storage": {
        "base": "t_string_storage",
        "encoding": "dynamic_array",
        "label": "string[]",
        "numberOfBytes": "32"
      },
      "t_bool": {
        "encoding": "inplace",
        "label": "bool",
        "numberOfBytes": "1"
      },
      "t_contract(FundFactory)12926": {
        "encoding": "inplace",
        "label": "contract FundFactory",
        "numberOfBytes": "20"
      },
      "t_contract(TokenFactory)13120": {
        "encoding": "inplace",
        "label": "contract TokenFactory",
        "numberOfBytes": "20"
      },
      "t_contract(VaultFactory)13311": {
        "encoding": "inplace",
        "label": "contract VaultFactory",
        "numberOfBytes": "20"
      },
      "t_contract(YieldFactory)13508": {
        "encoding": "inplace",
        "label": "contract YieldFactory",
        "numberOfBytes": "20"
      },
      "t_mapping(t_address,t_array(t_string_storage)dyn_storage)": {
        "encoding": "mapping",
        "key": "t_address",
        "label": "mapping(address => string[])",
        "numberOfBytes": "32",
        "value": "t_array(t_string_storage)dyn_storage"
      },
      "t_mapping(t_address,t_bool)": {
        "encoding": "mapping",
        "key": "t_address",
        "label": "mapping(address => bool)",
        "numberOfBytes": "32",
        "value": "t_bool"
      },
      "t_mapping(t_string_memory_ptr,t_struct(Project)13730_storage)": {
        "encoding": "mapping",
        "key": "t_string_memory_ptr",
        "label": "mapping(string => struct ICreation.Project)",
        "numberOfBytes": "32",
        "value": "t_struct(Project)13730_storage"
      },
      "t_string_memory_ptr": {
        "encoding": "bytes",
        "label": "string",
        "numberOfBytes": "32"
      },
      "t_string_storage": {
        "encoding": "bytes",
        "label": "string",
        "numberOfBytes": "32"
      },
      "t_struct(Project)13730_storage": {
        "encoding": "inplace",
        "label": "struct ICreation.Project",
        "members": [
          {
            "astId": 13717,
            "contract": "contracts/v2/creation/Creation.sol:Creation",
            "label": "name",
            "offset": 0,
            "slot": "0",
            "type": "t_string_storage"
          },
          {
            "astId": 13719,
            "contract": "contracts/v2/creation/Creation.sol:Creation",
            "label": "vault",
            "offset": 0,
            "slot": "1",
            "type": "t_address"
          },
          {
            "astId": 13721,
            "contract": "contracts/v2/creation/Creation.sol:Creation",
            "label": "token",
            "offset": 0,
            "slot": "2",
            "type": "t_address"
          },
          {
            "astId": 13723,
            "contract": "contracts/v2/creation/Creation.sol:Creation",
            "label": "fund",
            "offset": 0,
            "slot": "3",
            "type": "t_address"
          },
          {
            "astId": 13725,
            "contract": "contracts/v2/creation/Creation.sol:Creation",
            "label": "accumulatedYield",
            "offset": 0,
            "slot": "4",
            "type": "t_address"
          },
          {
            "astId": 13727,
            "contract": "contracts/v2/creation/Creation.sol:Creation",
            "label": "createdAt",
            "offset": 0,
            "slot": "5",
            "type": "t_uint256"
          },
          {
            "astId": 13729,
            "contract": "contracts/v2/creation/Creation.sol:Creation",
            "label": "deployer",
            "offset": 0,
            "slot": "6",
            "type": "t_address"
          }
        ],
        "numberOfBytes": "224"
      },
      "t_uint256": {
        "encoding": "inplace",
        "label": "uint256",
        "numberOfBytes": "32"
      }
    }
  }
}