{
  "address": "0xf384d07646212255599637b8A9b9e23D1C42B711",
  "abi": [
    {
      "inputs": [],
      "stateMutability": "nonpayable",
      "type": "constructor"
    },
    {
      "anonymous": false,
      "inputs": [
        {
          "indexed": true,
          "internalType": "address",
          "name": "receiver",
          "type": "address"
        },
        {
          "indexed": false,
          "internalType": "uint256",
          "name": "assertAmount",
          "type": "uint256"
        },
        {
          "indexed": false,
          "internalType": "uint256",
          "name": "manageFee",
          "type": "uint256"
        },
        {
          "indexed": false,
          "internalType": "uint256",
          "name": "shares",
          "type": "uint256"
        }
      ],
      "name": "Deposit",
      "type": "event"
    },
    {
      "anonymous": false,
      "inputs": [
        {
          "indexed": false,
          "internalType": "address",
          "name": "redeemer",
          "type": "address"
        },
        {
          "indexed": false,
          "internalType": "uint256",
          "name": "shares",
          "type": "uint256"
        },
        {
          "indexed": false,
          "internalType": "uint256",
          "name": "assetAmount",
          "type": "uint256"
        },
        {
          "indexed": false,
          "internalType": "uint256",
          "name": "feeAmount",
          "type": "uint256"
        }
      ],
      "name": "FundFailRedeem",
      "type": "event"
    },
    {
      "anonymous": false,
      "inputs": [
        {
          "indexed": true,
          "internalType": "address",
          "name": "receiver",
          "type": "address"
        },
        {
          "indexed": false,
          "internalType": "uint256",
          "name": "amount",
          "type": "uint256"
        }
      ],
      "name": "FundingAssetsWithdrawn",
      "type": "event"
    },
    {
      "anonymous": false,
      "inputs": [
        {
          "indexed": true,
          "internalType": "address",
          "name": "receiver",
          "type": "address"
        },
        {
          "indexed": false,
          "internalType": "uint256",
          "name": "amount",
          "type": "uint256"
        }
      ],
      "name": "ManageFeeWithdrawn",
      "type": "event"
    },
    {
      "anonymous": false,
      "inputs": [
        {
          "indexed": true,
          "internalType": "address",
          "name": "receiver",
          "type": "address"
        },
        {
          "indexed": false,
          "internalType": "uint256",
          "name": "assertAmount",
          "type": "uint256"
        },
        {
          "indexed": false,
          "internalType": "uint256",
          "name": "shares",
          "type": "uint256"
        },
        {
          "indexed": false,
          "internalType": "bytes",
          "name": "signature",
          "type": "bytes"
        }
      ],
      "name": "OffChainDeposit",
      "type": "event"
    },
    {
      "anonymous": false,
      "inputs": [
        {
          "indexed": true,
          "internalType": "address",
          "name": "receiver",
          "type": "address"
        },
        {
          "indexed": false,
          "internalType": "uint256",
          "name": "assertAmount",
          "type": "uint256"
        }
      ],
      "name": "OffChainRedeem",
      "type": "event"
    },
    {
      "anonymous": false,
      "inputs": [
        {
          "indexed": true,
          "internalType": "address",
          "name": "previousOwner",
          "type": "address"
        },
        {
          "indexed": true,
          "internalType": "address",
          "name": "newOwner",
          "type": "address"
        }
      ],
      "name": "OwnershipTransferred",
      "type": "event"
    },
    {
      "anonymous": false,
      "inputs": [],
      "name": "TokenUnpausedOnFundingSuccess",
      "type": "event"
    },
    {
      "inputs": [],
      "name": "BPS_DENOMINATOR",
      "outputs": [
        {
          "internalType": "uint256",
          "name": "",
          "type": "uint256"
        }
      ],
      "stateMutability": "view",
      "type": "function"
    },
    {
      "inputs": [],
      "name": "SHARE_PRICE_DENOMINATOR",
      "outputs": [
        {
          "internalType": "uint256",
          "name": "",
          "type": "uint256"
        }
      ],
      "stateMutability": "view",
      "type": "function"
    },
    {
      "inputs": [],
      "name": "assetToken",
      "outputs": [
        {
          "internalType": "address",
          "name": "",
          "type": "address"
        }
      ],
      "stateMutability": "view",
      "type": "function"
    },
    {
      "inputs": [],
      "name": "decimalsMultiplier",
      "outputs": [
        {
          "internalType": "uint256",
          "name": "",
          "type": "uint256"
        }
      ],
      "stateMutability": "view",
      "type": "function"
    },
    {
      "inputs": [
        {
          "internalType": "uint256",
          "name": "amount",
          "type": "uint256"
        },
        {
          "internalType": "address",
          "name": "receiver",
          "type": "address"
        },
        {
          "internalType": "bytes",
          "name": "signature",
          "type": "bytes"
        }
      ],
      "name": "deposit",
      "outputs": [
        {
          "internalType": "uint256",
          "name": "shares",
          "type": "uint256"
        }
      ],
      "stateMutability": "nonpayable",
      "type": "function"
    },
    {
      "inputs": [],
      "name": "endTime",
      "outputs": [
        {
          "internalType": "uint256",
          "name": "",
          "type": "uint256"
        }
      ],
      "stateMutability": "view",
      "type": "function"
    },
    {
      "inputs": [],
      "name": "fundingAssets",
      "outputs": [
        {
          "internalType": "uint256",
          "name": "",
          "type": "uint256"
        }
      ],
      "stateMutability": "view",
      "type": "function"
    },
    {
      "inputs": [],
      "name": "fundingReceiver",
      "outputs": [
        {
          "internalType": "address",
          "name": "",
          "type": "address"
        }
      ],
      "stateMutability": "view",
      "type": "function"
    },
    {
      "inputs": [
        {
          "internalType": "uint256",
          "name": "amount",
          "type": "uint256"
        },
        {
          "internalType": "address",
          "name": "receiver",
          "type": "address"
        },
        {
          "internalType": "uint256",
          "name": "nonce",
          "type": "uint256"
        }
      ],
      "name": "getDepositSignatureMessage",
      "outputs": [
        {
          "internalType": "bytes32",
          "name": "",
          "type": "bytes32"
        }
      ],
      "stateMutability": "view",
      "type": "function"
    },
    {
      "inputs": [],
      "name": "getManagerNonce",
      "outputs": [
        {
          "internalType": "uint256",
          "name": "",
          "type": "uint256"
        }
      ],
      "stateMutability": "view",
      "type": "function"
    },
    {
      "inputs": [
        {
          "internalType": "uint256",
          "name": "amount",
          "type": "uint256"
        },
        {
          "internalType": "address",
          "name": "receiver",
          "type": "address"
        },
        {
          "internalType": "uint256",
          "name": "nonce",
          "type": "uint256"
        }
      ],
      "name": "getRedeemSignatureMessage",
      "outputs": [
        {
          "internalType": "bytes32",
          "name": "",
          "type": "bytes32"
        }
      ],
      "stateMutability": "view",
      "type": "function"
    },
    {
      "inputs": [],
      "name": "getRemainingSupply",
      "outputs": [
        {
          "internalType": "uint256",
          "name": "",
          "type": "uint256"
        }
      ],
      "stateMutability": "view",
      "type": "function"
    },
    {
      "inputs": [],
      "name": "getTotalRaised",
      "outputs": [
        {
          "internalType": "uint256",
          "name": "",
          "type": "uint256"
        }
      ],
      "stateMutability": "view",
      "type": "function"
    },
    {
      "inputs": [
        {
          "internalType": "address",
          "name": "_vault",
          "type": "address"
        },
        {
          "internalType": "bytes",
          "name": "_initData",
          "type": "bytes"
        }
      ],
      "name": "initiate",
      "outputs": [],
      "stateMutability": "nonpayable",
      "type": "function"
    },
    {
      "inputs": [],
      "name": "isFundingPeriodActive",
      "outputs": [
        {
          "internalType": "bool",
          "name": "",
          "type": "bool"
        }
      ],
      "stateMutability": "view",
      "type": "function"
    },
    {
      "inputs": [],
      "name": "isFundingSuccessful",
      "outputs": [
        {
          "internalType": "bool",
          "name": "",
          "type": "bool"
        }
      ],
      "stateMutability": "view",
      "type": "function"
    },
    {
      "inputs": [],
      "name": "isInitialized",
      "outputs": [
        {
          "internalType": "bool",
          "name": "",
          "type": "bool"
        }
      ],
      "stateMutability": "view",
      "type": "function"
    },
    {
      "inputs": [],
      "name": "manageFee",
      "outputs": [
        {
          "internalType": "uint256",
          "name": "",
          "type": "uint256"
        }
      ],
      "stateMutability": "view",
      "type": "function"
    },
    {
      "inputs": [],
      "name": "manageFeeBps",
      "outputs": [
        {
          "internalType": "uint256",
          "name": "",
          "type": "uint256"
        }
      ],
      "stateMutability": "view",
      "type": "function"
    },
    {
      "inputs": [],
      "name": "manageFeeReceiver",
      "outputs": [
        {
          "internalType": "address",
          "name": "",
          "type": "address"
        }
      ],
      "stateMutability": "view",
      "type": "function"
    },
    {
      "inputs": [],
      "name": "manager",
      "outputs": [
        {
          "internalType": "address",
          "name": "",
          "type": "address"
        }
      ],
      "stateMutability": "view",
      "type": "function"
    },
    {
      "inputs": [],
      "name": "managerNonce",
      "outputs": [
        {
          "internalType": "uint256",
          "name": "",
          "type": "uint256"
        }
      ],
      "stateMutability": "view",
      "type": "function"
    },
    {
      "inputs": [],
      "name": "maxSupply",
      "outputs": [
        {
          "internalType": "uint256",
          "name": "",
          "type": "uint256"
        }
      ],
      "stateMutability": "view",
      "type": "function"
    },
    {
      "inputs": [],
      "name": "minDepositAmount",
      "outputs": [
        {
          "internalType": "uint256",
          "name": "",
          "type": "uint256"
        }
      ],
      "stateMutability": "view",
      "type": "function"
    },
    {
      "inputs": [
        {
          "internalType": "uint256",
          "name": "amount",
          "type": "uint256"
        },
        {
          "internalType": "address",
          "name": "receiver",
          "type": "address"
        },
        {
          "internalType": "bytes",
          "name": "drdsSignature",
          "type": "bytes"
        }
      ],
      "name": "offChainDeposit",
      "outputs": [],
      "stateMutability": "nonpayable",
      "type": "function"
    },
    {
      "inputs": [
        {
          "internalType": "address",
          "name": "receiver",
          "type": "address"
        }
      ],
      "name": "offChainRedeem",
      "outputs": [],
      "stateMutability": "nonpayable",
      "type": "function"
    },
    {
      "inputs": [],
      "name": "owner",
      "outputs": [
        {
          "internalType": "address",
          "name": "",
          "type": "address"
        }
      ],
      "stateMutability": "view",
      "type": "function"
    },
    {
      "inputs": [
        {
          "internalType": "address",
          "name": "receiver",
          "type": "address"
        },
        {
          "internalType": "bytes",
          "name": "signature",
          "type": "bytes"
        }
      ],
      "name": "redeem",
      "outputs": [],
      "stateMutability": "nonpayable",
      "type": "function"
    },
    {
      "inputs": [],
      "name": "renounceOwnership",
      "outputs": [],
      "stateMutability": "nonpayable",
      "type": "function"
    },
    {
      "inputs": [],
      "name": "sharePrice",
      "outputs": [
        {
          "internalType": "uint256",
          "name": "",
          "type": "uint256"
        }
      ],
      "stateMutability": "view",
      "type": "function"
    },
    {
      "inputs": [],
      "name": "softCap",
      "outputs": [
        {
          "internalType": "uint256",
          "name": "",
          "type": "uint256"
        }
      ],
      "stateMutability": "view",
      "type": "function"
    },
    {
      "inputs": [],
      "name": "startTime",
      "outputs": [
        {
          "internalType": "uint256",
          "name": "",
          "type": "uint256"
        }
      ],
      "stateMutability": "view",
      "type": "function"
    },
    {
      "inputs": [
        {
          "internalType": "address",
          "name": "newOwner",
          "type": "address"
        }
      ],
      "name": "transferOwnership",
      "outputs": [],
      "stateMutability": "nonpayable",
      "type": "function"
    },
    {
      "inputs": [],
      "name": "unpauseTokenOnFundingSuccess",
      "outputs": [],
      "stateMutability": "nonpayable",
      "type": "function"
    },
    {
      "inputs": [],
      "name": "vault",
      "outputs": [
        {
          "internalType": "address",
          "name": "",
          "type": "address"
        }
      ],
      "stateMutability": "view",
      "type": "function"
    },
    {
      "inputs": [],
      "name": "withdrawFundingAssets",
      "outputs": [],
      "stateMutability": "nonpayable",
      "type": "function"
    },
    {
      "inputs": [],
      "name": "withdrawManageFee",
      "outputs": [],
      "stateMutability": "nonpayable",
      "type": "function"
    }
  ],
  "transactionHash": "0xb667236a48d9b6d82701fafd9684f27f3fb46f16c2f8ff407b1cb31d5ca625b6",
  "args": [],
  "numDeployments": 1,
  "solcInputHash": "cae1dd62554d52e09fb9f916bdfeb2b7",
  "bytecode": "0x60808060405234605d57600160008181558154336001600160a01b0319821681179093556001600160a01b0316907f8be0079c531659141344cd1fd0a4f28419497f9722a3daafe3b4186f6b6457e09080a361292b90816100638239f35b600080fdfe608080604052600436101561001357600080fd5b600090813560e01c9081631083f76114611c035750806321bb725a14611ba3578063244e126c14611b88578063285f1b76146117765780632c365cda146117585780633197cbb61461173a57806337b5213f146116835780633841185e146113c7578063392e53cd146113a457806344f45127146111bc578063481c6a75146111935780634bbdf4da14611175578063579e2b62146108db5780635a05ddb5146110335780635a3cb0f614610ef9578063645006ca14610edb578063715018a614610e7e57806374f72e7f146108bd57806378e9792514610e605780637cc8a75314610e375780638726972914610e19578063888e4486146109405780638da5cb5b14610917578063906a26e0146108f95780639f550293146108db578063a0c81fc8146108bd578063aac6be7914610894578063b4b5020714610875578063bb13245f14610857578063d5abeb0114610839578063d827a541146107cd578063e1a45218146107b0578063e4b7fb73146106a9578063f2fde38b14610618578063f8a3c8f2146105f3578063faa9bce9146101e35763fbfa77cf146101b857600080fd5b346101e057806003193601126101e0576002546040516001600160a01b039091168152602090f35b80fd5b50346101e0576101f236611d1f565b906102046101fe612319565b15611e09565b61021461020f611da5565b611e5f565b61022260ff60125416611eaa565b61022a612435565b60095461023981851015611ef6565b6001600160a01b0382169161024f831515611f4e565b61033261031c6103146011549661026588612180565b6011558660405161027581611c68565b6102e260409a8b51926102888d85611c9a565b600784526619195c1bdcda5d60ca1b60208501528381528d6020820152848d82015281606082015246608082015260a0309101526102d48d8d519485936020850197309346938a61218f565b03601f198101835282611c9a565b5190207f19457468657265756d205369676e6564204d6573736167653a0a3332000000008b52601c52603c8a2061256a565b9190916125a2565b600e546001600160a01b039182169116146121e1565b600a5461035461034f612710610348848a61222d565b0488611fb9565b6123e5565b600254865163703bafd560e01b815291979190602090829060049082906001600160a01b03165afa9081156105bc576004916020918b916105c6575b5088516318160ddd60e01b815292839182906001600160a01b03165afa80156105bc578990610583575b6103c79150600654611fb9565b96878111156105725750506103db86612416565b612710810290808204612710149015171561055e57816127100390612710821161054a579161041c6104136104229361271095612240565b95861015611fdc565b8461222d565b049061043082601054612260565b6010556104486104408385611fb9565b600f54612260565b600f5560055485516323b872dd60e01b602082015233602482015230604482015260648082018690528152610490916001600160a01b031661048b608483611c9a565b6126bc565b6002546001600160a01b0316908790823b15610546578651630f38ca0d60e31b81526001600160a01b0391909116600482015260248101889052918290604490829084905af1801561053c57610523575b50917f36af321ec8d3c75236829c5317affd40ddb308863a1236d2d277a4025cccee1e6060602097936001958751918252898201528787820152a25551908152f35b61052e878092611c9a565b61053857386104e1565b8580fd5b85513d89823e3d90fd5b5080fd5b634e487b7160e01b89526011600452602489fd5b634e487b7160e01b88526011600452602488fd5b96509250612710906104229061041c565b506020813d6020116105b4575b8161059d60209383611c9a565b810103126105af576103c790516103ba565b600080fd5b3d9150610590565b87513d8b823e3d90fd5b6105e69150823d84116105ec575b6105de8183611c9a565b810190611f9a565b38610390565b503d6105d4565b50346101e057806003193601126101e057602061060e612319565b6040519015158152f35b50346101e05760203660031901126101e057610632611c28565b61063a6124c9565b6001600160a01b038116156106555761065290612521565b80f35b60405162461bcd60e51b815260206004820152602660248201527f4f776e61626c653a206e6577206f776e657220697320746865207a65726f206160448201526564647265737360d01b6064820152608490fd5b50346101e057806003193601126101e05760025460405163703bafd560e01b815290602090829060049082906001600160a01b03165afa9081156107a557829160209160049491610788575b506040516318160ddd60e01b815293849182906001600160a01b03165afa801561077b578190610748575b6006546020935081811115610741576107399250611fb9565b604051908152f35b5050610739565b506020823d602011610773575b8161076260209383611c9a565b810103126105af5760209151610720565b3d9150610755565b50604051903d90823e3d90fd5b61079f9150823d84116105ec576105de8183611c9a565b386106f5565b6040513d84823e3d90fd5b50346101e057806003193601126101e05760206040516127108152f35b50346101e05760206107de36611c3e565b60405191848301936619195c1bdcda5d60ca1b855260278401526001600160601b03199060601b166047830152605b82015246607b8201523060601b609b820152608f815261082e60af82611c9a565b519020604051908152f35b50346101e057806003193601126101e0576020600654604051908152f35b50346101e057806003193601126101e0576020600d54604051908152f35b50346101e057806003193601126101e05760206040516305f5e1008152f35b50346101e057806003193601126101e057600c546040516001600160a01b039091168152602090f35b50346101e057806003193601126101e0576020601154604051908152f35b50346101e057806003193601126101e0576020600f54604051908152f35b50346101e057806003193601126101e0576020600754604051908152f35b50346101e057806003193601126101e0576001546040516001600160a01b039091168152602090f35b50346101e05761094f36611d65565b9060125460ff811615916109628361226d565b6001600160a01b03168015159390919061097b856122b9565b61018081805181010312610538576020810151604082015190956109a160608401612305565b91608084015160a085015160c08601519060e0870151928b61010089015195806101208b016109cf90612305565b926109dd6101408d01612305565b996101608d01519c610180016109f290612305565b9b600160a01b600190031694600160a01b60019003169a600160a01b60019003169b600160a01b60019003169f610a289061226d565b610a31906122b9565b1015610dd45742811115610d8f578115610d4a578215610d055783151580610cfb575b15610cb6578415610c71578515610c2c576127108711610be7578715610b96578815610b51578c15610b0c576106529d60019c6001600160601b0360a01b60025416176002556003556004556001600160601b0360a01b6005541617600555600655600755600855600955600a556001600160601b0360a01b600b541617600b556001600160601b0360a01b600c541617600c55600d55826001600160601b0360a01b600e541617600e5560ff191617601255612521565b60405162461bcd60e51b815260206004820152601a60248201527f43726f776473616c653a20696e76616c6964206d616e616765720000000000006044820152606490fd5b60405162461bcd60e51b815260206004820152601f60248201527f43726f776473616c653a20696e76616c696420666565207265636569766572006044820152606490fd5b60405162461bcd60e51b815260206004820152602360248201527f43726f776473616c653a20696e76616c69642066756e64696e672072656365696044820152623b32b960e91b6064820152608490fd5b60405162461bcd60e51b815260206004820152601d60248201527f43726f776473616c653a20696e76616c6964206d616e616765206665650000006044820152606490fd5b60405162461bcd60e51b815260206004820152601e60248201527f43726f776473616c653a20696e76616c6964206d696e206465706f73697400006044820152606490fd5b60405162461bcd60e51b815260206004820152601e60248201527f43726f776473616c653a20696e76616c696420736861726520707269636500006044820152606490fd5b60405162461bcd60e51b815260206004820152601b60248201527f43726f776473616c653a20696e76616c696420736f66742063617000000000006044820152606490fd5b5082841115610a54565b60405162461bcd60e51b815260206004820152601d60248201527f43726f776473616c653a20696e76616c6964206d617820737570706c790000006044820152606490fd5b60405162461bcd60e51b815260206004820152601e60248201527f43726f776473616c653a20696e76616c696420617373657420746f6b656e00006044820152606490fd5b60405162461bcd60e51b815260206004820152601b60248201527f43726f776473616c653a20656e642074696d6520696e207061737400000000006044820152606490fd5b60405162461bcd60e51b815260206004820152601d60248201527f43726f776473616c653a20696e76616c69642074696d652072616e67650000006044820152606490fd5b50346101e057806003193601126101e0576020600854604051908152f35b50346101e057806003193601126101e057600b546040516001600160a01b039091168152602090f35b50346101e057806003193601126101e0576020600354604051908152f35b50346101e057806003193601126101e057610e976124c9565b600180546001600160a01b0319811690915581906001600160a01b03167f8be0079c531659141344cd1fd0a4f28419497f9722a3daafe3b4186f6b6457e08280a380f35b50346101e057806003193601126101e0576020600954604051908152f35b50346101e057806003193601126101e057610f1a610f15612319565b612082565b610f2860ff60125416611eaa565b610f30612435565b600b546001600160a01b031633819003610fef57600f54908115610faa57600f839055600554610f6a9183916001600160a01b031661248b565b600b546040519182526001600160a01b0316907f95c2f2f0b8c75d4ae87961d54e381ca366d0b1bf25a2c823eb0f3b6ea827b3d290602090a26001815580f35b60405162461bcd60e51b815260206004820152601c60248201527f43726f776473616c653a206e6f2066756e64696e6720617373657473000000006044820152606490fd5b606460405162461bcd60e51b815260206004820152602060248201527f43726f776473616c653a206f6e6c792066756e64696e672072656365697665726044820152fd5b50346101e057806003193601126101e05761104f610f15612319565b61105d60ff60125416611eaa565b611065612435565b600c546001600160a01b031633819003611124576010549081156110df57601083905560055461109f9183916001600160a01b031661248b565b600c546040519182526001600160a01b0316907fe0c47f951725b858d4295bf72d6eae743cfe10d318b04f1db124052f9b5a4c0c90602090a26001815580f35b60405162461bcd60e51b815260206004820152601860248201527f43726f776473616c653a206e6f206d616e6167652066656500000000000000006044820152606490fd5b60405162461bcd60e51b815260206004820152602360248201527f43726f776473616c653a206f6e6c79206d616e616765206665652072656365696044820152623b32b960e91b6064820152608490fd5b50346101e057806003193601126101e0576020601054604051908152f35b50346101e057806003193601126101e057600e546040516001600160a01b039091168152602090f35b50346101e05760203660031901126101e0576111d6611c28565b6111eb60018060a01b03600e54163314611dbd565b6111f66101fe612319565b61120360045442116120dc565b61121160ff60125416611eaa565b61121c6101fe612319565b6001600160a01b03811690611232821515611f4e565b60025460405163703bafd560e01b81529184916001600160a01b031690602084600481855afa93841561137c576024946020918591611387575b506040516370a0823160e01b81526004810188905295869182906001600160a01b03165afa93841561137c578394611345575b506112ab841515612134565b6112b484612416565b93823b1561134157604051633477cc1b60e21b81526001600160a01b0392909216600483015260248201529082908290604490829084905af180156107a557611328575b505060207f861e2da04a5f7106dcb29520bc69654fa98fd012e4e10d0398911f8188a9f30091604051908152a280f35b8161133291611c9a565b61133d5782386112f8565b8280fd5b8380fd5b925092506020823d602011611374575b8161136260209383611c9a565b810103126105af57849151923861129f565b3d9150611355565b6040513d85823e3d90fd5b61139e9150823d84116105ec576105de8183611c9a565b3861126c565b50346101e057806003193601126101e057602060ff601254166040519015158152f35b50346101e0576113d636611d65565b906113e26101fe612319565b6113ef60045442116120dc565b6113fd60ff60125416611eaa565b611405612435565b6114106101fe612319565b6001600160a01b03811690611426821515611f4e565b60025460405163703bafd560e01b8152936001600160a01b039091169190602085600481865afa94851561165b576024956020918891611666575b506040516370a0823160e01b815233600482015296879182906001600160a01b03165afa94851561165b578695611627575b5061149f851515612134565b61152361031c610314601154936114b585612180565b601155876040516114c581611c68565b6102e26040978851926114d88a85611c9a565b600684526572656465656d60d01b60208501528381528d6020820152848a82015281606082015246608082015260a0309101526102d48d8a519485936020850197309346938a61218f565b61152c85612416565b918661271061153d600a548661222d565b0494803b15610546578351633477cc1b60e21b8152336004820152602481018990529082908290604490829084905af1801561161d576115fa575b509383608093886115e089956115b17ff54122745b7c48254b9d8e22b57ebd7176d8e786dd8fadd4932aa02294bd074799600f54611fb9565b600f556115c086601054611fb9565b6010556005546001600160a01b0316906115da8787612260565b9161248b565b815194855260208501528301526060820152a16001815580f35b8161160a91979695949397611c9a565b61161957909192938638611578565b8680fd5b84513d84823e3d90fd5b9094506020813d602011611653575b8161164360209383611c9a565b810103126105af57519338611493565b3d9150611636565b6040513d88823e3d90fd5b61167d9150823d84116105ec576105de8183611c9a565b38611461565b50346101e057806003193601126101e0576116a960018060a01b03600e54163314611dbd565b6116b4610f15612319565b6116c260ff60125416611eaa565b60025481906001600160a01b0316803b15611737578180916004604051809481936350669a0360e01b83525af180156107a557611722575b50807fba9a1b2ede938b9820087753e1645dd4b6542ac61fa6b06a3df09cd9dee6945491a180f35b8161172c91611c9a565b6101e05780386116fa565b50fd5b50346101e057806003193601126101e0576020600454604051908152f35b50346101e057806003193601126101e0576020600a54604051908152f35b50346101e05761178536611d1f565b929161179c60018060a01b03600e54163314611dbd565b6117a76101fe612319565b6117b261020f611da5565b6117c060ff60125416611eaa565b6009546117cf81831015611ef6565b6001600160a01b038316926117e5841515611f4e565b604051906040820182811067ffffffffffffffff821117611b7457604052838252602082019185835260018060a01b036002541692604051633a5381b560e01b8152602081600481885afa908115611b69578991611b4a575b506001600160a01b0316918215611b05575190516040519060208201926e1bd99990da185a5b91195c1bdcda5d608a1b8452602f8301526001600160601b03199060601b16604f8201524660638201523060601b6083820152607781526118a6609782611c9a565b5190207f19457468657265756d205369676e6564204d6573736167653a0a3332000000008852601c526118df61031489603c8a2061256a565b6001600160a01b031603611ab6576118f6846123e5565b9360405163703bafd560e01b8152602081600481875afa908115611a8e576004916020918a91611a99575b506040516318160ddd60e01b815292839182906001600160a01b03165afa8015611a8e578890611a56575b6119599150600654611fb9565b9485811115611a4d57505061197961197085612416565b93841015611fdc565b813b1561053857604051630f38ca0d60e31b81526001600160a01b03919091166004820152602481018490529085908290604490829084905af18015611a4257611a0a575b50611a047f63258194677400bf465d9734c48cbf894a267862a28b706b43fbc83e69f236909394956040519384938452602084015260606040840152606083019061205d565b0390a280f35b84611a3a7f63258194677400bf465d9734c48cbf894a267862a28b706b43fbc83e69f236909596611a0493611c9a565b9493506119be565b6040513d87823e3d90fd5b94509250611979565b506020813d602011611a86575b81611a7060209383611c9a565b81010312611a8257611959905161194c565b8780fd5b3d9150611a63565b6040513d8a823e3d90fd5b611ab09150823d84116105ec576105de8183611c9a565b38611921565b60405162461bcd60e51b815260206004820152602160248201527f43726f776473616c653a20696e76616c69642064726473207369676e617475726044820152606560f81b6064820152608490fd5b60405162461bcd60e51b815260206004820152601c60248201527f43726f776473616c653a2076616c696461746f72206e6f7420736574000000006044820152606490fd5b611b63915060203d6020116105ec576105de8183611c9a565b3861183e565b6040513d8b823e3d90fd5b634e487b7160e01b87526041600452602487fd5b50346101e057806003193601126101e057602061060e611da5565b50346101e0576020611bb436611c3e565b60405191848301936572656465656d60d01b855260268401526001600160601b03199060601b166046830152605a82015246607a8201523060601b609a820152608e815261082e60ae82611c9a565b9050346105465781600319360112610546576005546001600160a01b03168152602090f35b600435906001600160a01b03821682036105af57565b60609060031901126105af57600435906024356001600160a01b03811681036105af579060443590565b60c0810190811067ffffffffffffffff821117611c8457604052565b634e487b7160e01b600052604160045260246000fd5b90601f8019910116810190811067ffffffffffffffff821117611c8457604052565b67ffffffffffffffff8111611c8457601f01601f191660200190565b81601f820112156105af57803590611cef82611cbc565b92611cfd6040519485611c9a565b828452602083830101116105af57816000926020809301838601378301015290565b60606003198201126105af57600435916024356001600160a01b03811681036105af57916044359067ffffffffffffffff82116105af57611d6291600401611cd8565b90565b9060406003198301126105af576004356001600160a01b03811681036105af57916024359067ffffffffffffffff82116105af57611d6291600401611cd8565b60035442101580611db35790565b5060045442111590565b15611dc457565b60405162461bcd60e51b815260206004820152601760248201527f43726f776473616c653a206f6e6c79206d616e616765720000000000000000006044820152606490fd5b15611e1057565b60405162461bcd60e51b815260206004820152602160248201527f43726f776473616c653a2066756e64696e6720776173207375636365737366756044820152601b60fa1b6064820152608490fd5b15611e6657565b606460405162461bcd60e51b815260206004820152602060248201527f43726f776473616c653a206e6f7420696e2066756e64696e6720706572696f646044820152fd5b15611eb157565b60405162461bcd60e51b815260206004820152601a60248201527f43726f776473616c653a206e6f7420696e697469616c697a65640000000000006044820152606490fd5b15611efd57565b60405162461bcd60e51b815260206004820152602360248201527f43726f776473616c653a20616d6f756e74206c657373207468616e206d696e696044820152626d756d60e81b6064820152608490fd5b15611f5557565b60405162461bcd60e51b815260206004820152601b60248201527f43726f776473616c653a20696e76616c696420726563656976657200000000006044820152606490fd5b908160209103126105af57516001600160a01b03811681036105af5790565b91908203918211611fc657565b634e487b7160e01b600052601160045260246000fd5b15611fe357565b60405162461bcd60e51b815260206004820152602960248201527f43726f776473616c653a2072656d61696e696e6720616d6f756e742062656c6f60448201526877206d696e696d756d60b81b6064820152608490fd5b60005b83811061204d5750506000910152565b818101518382015260200161203d565b906020916120768151809281855285808601910161203a565b601f01601f1916010190565b1561208957565b60405162461bcd60e51b815260206004820152602560248201527f43726f776473616c653a2066756e64696e6720776173206e6f742073756363656044820152641cdcd99d5b60da1b6064820152608490fd5b156120e357565b60405162461bcd60e51b815260206004820152602360248201527f43726f776473616c653a2066756e64696e6720706572696f64206e6f7420656e60448201526219195960ea1b6064820152608490fd5b1561213b57565b60405162461bcd60e51b815260206004820152601e60248201527f43726f776473616c653a206e6f2073686172657320746f2072656465656d00006044820152606490fd5b6000198114611fc65760010190565b6020906121a960889896949795938281519485920161203a565b019485526001600160601b03199060601b166020850152603484015260548301526001600160601b03199060601b1660748201520190565b156121e857565b60405162461bcd60e51b815260206004820152601c60248201527f43726f776473616c653a20696e76616c6964207369676e6174757265000000006044820152606490fd5b81810292918115918404141715611fc657565b811561224a570490565b634e487b7160e01b600052601260045260246000fd5b91908201809211611fc657565b1561227457565b60405162461bcd60e51b815260206004820152601e60248201527f43726f776473616c653a20616c726561647920696e697469616c697a656400006044820152606490fd5b156122c057565b60405162461bcd60e51b815260206004820152601860248201527f43726f776473616c653a20696e76616c6964207661756c7400000000000000006044820152606490fd5b51906001600160a01b03821682036105af57565b60025460405163703bafd560e01b815290602090829060049082906001600160a01b03165afa9081156123bc576004916020916000916123c8575b506040516318160ddd60e01b815292839182906001600160a01b03165afa9081156123bc5760009161238a575b50600754111590565b90506020813d6020116123b4575b816123a560209383611c9a565b810103126105af575138612381565b3d9150612398565b6040513d6000823e3d90fd5b6123df9150823d84116105ec576105de8183611c9a565b38612354565b600d546123f19161222d565b6305f5e1008102908082046305f5e1001490151715611fc657600854611d6291612240565b6305f5e10061242b611d62926008549061222d565b04600d5490612240565b600260005414612446576002600055565b60405162461bcd60e51b815260206004820152601f60248201527f5265656e7472616e637947756172643a207265656e7472616e742063616c6c006044820152606490fd5b60405163a9059cbb60e01b60208201526001600160a01b039290921660248301526044808301939093529181526124c79161048b606483611c9a565b565b6001546001600160a01b031633036124dd57565b606460405162461bcd60e51b815260206004820152602060248201527f4f776e61626c653a2063616c6c6572206973206e6f7420746865206f776e65726044820152fd5b600180546001600160a01b039283166001600160a01b0319821681179092559091167f8be0079c531659141344cd1fd0a4f28419497f9722a3daafe3b4186f6b6457e0600080a3565b90604181511460001461259857612594916020820151906060604084015193015160001a906127d8565b9091565b5050600090600290565b60058110156126a657806125b35750565b600181036126005760405162461bcd60e51b815260206004820152601860248201527f45434453413a20696e76616c6964207369676e617475726500000000000000006044820152606490fd5b6002810361264d5760405162461bcd60e51b815260206004820152601f60248201527f45434453413a20696e76616c6964207369676e6174757265206c656e677468006044820152606490fd5b60031461265657565b60405162461bcd60e51b815260206004820152602260248201527f45434453413a20696e76616c6964207369676e6174757265202773272076616c604482015261756560f01b6064820152608490fd5b634e487b7160e01b600052602160045260246000fd5b604080519092612740926001600160a01b03169060009081906126df8786611c9a565b602085527f5361666545524332303a206c6f772d6c6576656c2063616c6c206661696c6564602086015260208151910182855af13d156127d0573d9161272483611cbc565b9261273187519485611c9a565b83523d6000602085013e612858565b80519081159182156127ad575b5050156127575750565b5162461bcd60e51b815260206004820152602a60248201527f5361666545524332303a204552433230206f7065726174696f6e20646964206e6044820152691bdd081cdd58d8d9595960b21b6064820152608490fd5b81925090602091810103126105af576020015180151581036105af57388061274d565b606091612858565b7f7fffffffffffffffffffffffffffffff5d576e7357a4501ddfe92f46681b20a0841161284c5760209360009360ff60809460405194855216868401526040830152606082015282805260015afa156123bc576000516001600160a01b038116156128435790600090565b50600090600190565b50505050600090600390565b919290156128ba575081511561286c575090565b3b156128755790565b60405162461bcd60e51b815260206004820152601d60248201527f416464726573733a2063616c6c20746f206e6f6e2d636f6e74726163740000006044820152606490fd5b8251909150156128cd5750805190602001fd5b60405162461bcd60e51b8152602060048201529081906128f190602483019061205d565b0390fdfea264697066735822122066408dd45407b359ce353b081251b1af458939661a9449abbfc3e20e330a9b3564736f6c634300081a0033",
  "devdoc": {
    "details": "Crowdsale template implementation, providing fair fundraising functionality",
    "kind": "dev",
    "methods": {
      "deposit(uint256,address,bytes)": {
        "details": "Deposit to purchase shares (user initiated, requires manager signature)",
        "params": {
          "amount": "Deposit amount",
          "receiver": "Receiver address",
          "signature": "Manager signature"
        },
        "returns": {
          "shares": "Number of shares received"
        }
      },
      "getDepositSignatureMessage(uint256,address,uint256)": {
        "details": "Generate deposit signature message hash for backend signing",
        "params": {
          "amount": "Deposit amount",
          "nonce": "Manager nonce",
          "receiver": "Receiver address"
        },
        "returns": {
          "_0": "Message hash to be signed"
        }
      },
      "getManagerNonce()": {
        "details": "Query manager nonce for signature verification",
        "returns": {
          "_0": "Current manager nonce"
        }
      },
      "getRedeemSignatureMessage(uint256,address,uint256)": {
        "details": "Generate redeem signature message hash for backend signing",
        "params": {
          "amount": "Number of shares to redeem",
          "nonce": "Manager nonce",
          "receiver": "Receiver address"
        },
        "returns": {
          "_0": "Message hash to be signed"
        }
      },
      "getRemainingSupply()": {
        "details": "Get remaining supply",
        "returns": {
          "_0": "Remaining supply"
        }
      },
      "getTotalRaised()": {
        "details": "Get total amount raised",
        "returns": {
          "_0": "Total amount raised"
        }
      },
      "initiate(address,bytes)": {
        "details": "Unified initialization interface",
        "params": {
          "_initData": "Encoded initialization data",
          "_vault": "Vault address"
        }
      },
      "isFundingPeriodActive()": {
        "details": "Check if funding period is active",
        "returns": {
          "_0": "Whether funding period is active"
        }
      },
      "isFundingSuccessful()": {
        "details": "Check if funding is successful",
        "returns": {
          "_0": "Whether funding is successful"
        }
      },
      "isInitialized()": {
        "details": "Query if initialized"
      },
      "offChainDeposit(uint256,address,bytes)": {
        "details": "Off-chain deposit (only manager can call, requires DRDS signature verification)",
        "params": {
          "amount": "Deposit amount",
          "drdsSignature": "DRDS signature data",
          "receiver": "Receiver address"
        }
      },
      "offChainRedeem(address)": {
        "details": "Off-chain redeem all shares (only manager can call)",
        "params": {
          "receiver": "Receiver address"
        }
      },
      "owner()": {
        "details": "Returns the address of the current owner."
      },
      "redeem(address,bytes)": {
        "details": "Redeem all shares (user initiated, requires manager signature)",
        "params": {
          "receiver": "Receiver address",
          "signature": "Manager signature"
        }
      },
      "renounceOwnership()": {
        "details": "Leaves the contract without owner. It will not be possible to call `onlyOwner` functions. Can only be called by the current owner. NOTE: Renouncing ownership will leave the contract without an owner, thereby disabling any functionality that is only available to the owner."
      },
      "transferOwnership(address)": {
        "details": "Transfers ownership of the contract to a new account (`newOwner`). Can only be called by the current owner."
      },
      "unpauseTokenOnFundingSuccess()": {
        "details": "Unpause token trading when funding is successful This function should be called after funding period ends and funding is successful"
      },
      "withdrawFundingAssets()": {
        "details": "Withdraw funding assets (only when funding is successful)"
      },
      "withdrawManageFee()": {
        "details": "Withdraw management fee (only when funding is successful)"
      }
    },
    "title": "Crowdsale",
    "version": 1
  },
  "userdoc": {
    "kind": "user",
    "methods": {},
    "notice": "Supports on-chain and off-chain deposits, refundable if funding fails",
    "version": 1
  },
  "storageLayout": {
    "storage": [
      {
        "astId": 4744,
        "contract": "contracts/v2/templates/funding/Crowdsale.sol:Crowdsale",
        "label": "_status",
        "offset": 0,
        "slot": "0",
        "type": "t_uint256"
      },
      {
        "astId": 3547,
        "contract": "contracts/v2/templates/funding/Crowdsale.sol:Crowdsale",
        "label": "_owner",
        "offset": 0,
        "slot": "1",
        "type": "t_address"
      },
      {
        "astId": 15297,
        "contract": "contracts/v2/templates/funding/Crowdsale.sol:Crowdsale",
        "label": "vault",
        "offset": 0,
        "slot": "2",
        "type": "t_address"
      },
      {
        "astId": 15300,
        "contract": "contracts/v2/templates/funding/Crowdsale.sol:Crowdsale",
        "label": "startTime",
        "offset": 0,
        "slot": "3",
        "type": "t_uint256"
      },
      {
        "astId": 15303,
        "contract": "contracts/v2/templates/funding/Crowdsale.sol:Crowdsale",
        "label": "endTime",
        "offset": 0,
        "slot": "4",
        "type": "t_uint256"
      },
      {
        "astId": 15306,
        "contract": "contracts/v2/templates/funding/Crowdsale.sol:Crowdsale",
        "label": "assetToken",
        "offset": 0,
        "slot": "5",
        "type": "t_address"
      },
      {
        "astId": 15309,
        "contract": "contracts/v2/templates/funding/Crowdsale.sol:Crowdsale",
        "label": "maxSupply",
        "offset": 0,
        "slot": "6",
        "type": "t_uint256"
      },
      {
        "astId": 15312,
        "contract": "contracts/v2/templates/funding/Crowdsale.sol:Crowdsale",
        "label": "softCap",
        "offset": 0,
        "slot": "7",
        "type": "t_uint256"
      },
      {
        "astId": 15315,
        "contract": "contracts/v2/templates/funding/Crowdsale.sol:Crowdsale",
        "label": "sharePrice",
        "offset": 0,
        "slot": "8",
        "type": "t_uint256"
      },
      {
        "astId": 15318,
        "contract": "contracts/v2/templates/funding/Crowdsale.sol:Crowdsale",
        "label": "minDepositAmount",
        "offset": 0,
        "slot": "9",
        "type": "t_uint256"
      },
      {
        "astId": 15321,
        "contract": "contracts/v2/templates/funding/Crowdsale.sol:Crowdsale",
        "label": "manageFeeBps",
        "offset": 0,
        "slot": "10",
        "type": "t_uint256"
      },
      {
        "astId": 15324,
        "contract": "contracts/v2/templates/funding/Crowdsale.sol:Crowdsale",
        "label": "fundingReceiver",
        "offset": 0,
        "slot": "11",
        "type": "t_address"
      },
      {
        "astId": 15327,
        "contract": "contracts/v2/templates/funding/Crowdsale.sol:Crowdsale",
        "label": "manageFeeReceiver",
        "offset": 0,
        "slot": "12",
        "type": "t_address"
      },
      {
        "astId": 15330,
        "contract": "contracts/v2/templates/funding/Crowdsale.sol:Crowdsale",
        "label": "decimalsMultiplier",
        "offset": 0,
        "slot": "13",
        "type": "t_uint256"
      },
      {
        "astId": 15333,
        "contract": "contracts/v2/templates/funding/Crowdsale.sol:Crowdsale",
        "label": "manager",
        "offset": 0,
        "slot": "14",
        "type": "t_address"
      },
      {
        "astId": 15336,
        "contract": "contracts/v2/templates/funding/Crowdsale.sol:Crowdsale",
        "label": "fundingAssets",
        "offset": 0,
        "slot": "15",
        "type": "t_uint256"
      },
      {
        "astId": 15339,
        "contract": "contracts/v2/templates/funding/Crowdsale.sol:Crowdsale",
        "label": "manageFee",
        "offset": 0,
        "slot": "16",
        "type": "t_uint256"
      },
      {
        "astId": 15349,
        "contract": "contracts/v2/templates/funding/Crowdsale.sol:Crowdsale",
        "label": "managerNonce",
        "offset": 0,
        "slot": "17",
        "type": "t_uint256"
      },
      {
        "astId": 15351,
        "contract": "contracts/v2/templates/funding/Crowdsale.sol:Crowdsale",
        "label": "_initialized",
        "offset": 0,
        "slot": "18",
        "type": "t_bool"
      }
    ],
    "types": {
      "t_address": {
        "encoding": "inplace",
        "label": "address",
        "numberOfBytes": "20"
      },
      "t_bool": {
        "encoding": "inplace",
        "label": "bool",
        "numberOfBytes": "1"
      },
      "t_uint256": {
        "encoding": "inplace",
        "label": "uint256",
        "numberOfBytes": "32"
      }
    }
  }
}