{
  "address": "0x51148C456b80f2e72f3529a029AA462c8062C821",
  "abi": [
    {
      "anonymous": false,
      "inputs": [
        {
          "indexed": true,
          "internalType": "uint256",
          "name": "templateId",
          "type": "uint256"
        },
        {
          "indexed": true,
          "internalType": "address",
          "name": "fund",
          "type": "address"
        },
        {
          "indexed": true,
          "internalType": "address",
          "name": "vault",
          "type": "address"
        }
      ],
      "name": "FundCreated",
      "type": "event"
    },
    {
      "anonymous": false,
      "inputs": [
        {
          "indexed": true,
          "internalType": "address",
          "name": "previousOwner",
          "type": "address"
        },
        {
          "indexed": true,
          "internalType": "address",
          "name": "newOwner",
          "type": "address"
        }
      ],
      "name": "OwnershipTransferred",
      "type": "event"
    },
    {
      "anonymous": false,
      "inputs": [
        {
          "indexed": true,
          "internalType": "uint256",
          "name": "templateId",
          "type": "uint256"
        },
        {
          "indexed": true,
          "internalType": "address",
          "name": "template",
          "type": "address"
        }
      ],
      "name": "TemplateAdded",
      "type": "event"
    },
    {
      "inputs": [
        {
          "internalType": "uint256",
          "name": "templateId",
          "type": "uint256"
        },
        {
          "internalType": "address",
          "name": "template",
          "type": "address"
        }
      ],
      "name": "addTemplate",
      "outputs": [],
      "stateMutability": "nonpayable",
      "type": "function"
    },
    {
      "inputs": [
        {
          "internalType": "uint256",
          "name": "templateId",
          "type": "uint256"
        },
        {
          "internalType": "address",
          "name": "vault",
          "type": "address"
        },
        {
          "internalType": "bytes",
          "name": "initData",
          "type": "bytes"
        }
      ],
      "name": "createFund",
      "outputs": [
        {
          "internalType": "address",
          "name": "fund",
          "type": "address"
        }
      ],
      "stateMutability": "nonpayable",
      "type": "function"
    },
    {
      "inputs": [
        {
          "internalType": "uint256",
          "name": "templateId",
          "type": "uint256"
        }
      ],
      "name": "getTemplate",
      "outputs": [
        {
          "internalType": "address",
          "name": "",
          "type": "address"
        }
      ],
      "stateMutability": "view",
      "type": "function"
    },
    {
      "inputs": [],
      "name": "getTemplateCount",
      "outputs": [
        {
          "internalType": "uint256",
          "name": "",
          "type": "uint256"
        }
      ],
      "stateMutability": "view",
      "type": "function"
    },
    {
      "inputs": [],
      "name": "owner",
      "outputs": [
        {
          "internalType": "address",
          "name": "",
          "type": "address"
        }
      ],
      "stateMutability": "view",
      "type": "function"
    },
    {
      "inputs": [],
      "name": "renounceOwnership",
      "outputs": [],
      "stateMutability": "nonpayable",
      "type": "function"
    },
    {
      "inputs": [],
      "name": "templateCount",
      "outputs": [
        {
          "internalType": "uint256",
          "name": "",
          "type": "uint256"
        }
      ],
      "stateMutability": "view",
      "type": "function"
    },
    {
      "inputs": [
        {
          "internalType": "uint256",
          "name": "",
          "type": "uint256"
        }
      ],
      "name": "templates",
      "outputs": [
        {
          "internalType": "address",
          "name": "",
          "type": "address"
        }
      ],
      "stateMutability": "view",
      "type": "function"
    },
    {
      "inputs": [
        {
          "internalType": "address",
          "name": "newOwner",
          "type": "address"
        }
      ],
      "name": "transferOwnership",
      "outputs": [],
      "stateMutability": "nonpayable",
      "type": "function"
    }
  ],
  "transactionHash": "0x10bab75f25ba87e84d95c17161caa2b2b05c78a95b29608450e338dc4a2558f4",
  "args": [],
  "numDeployments": 1,
  "solcInputHash": "cae1dd62554d52e09fb9f916bdfeb2b7",
  "bytecode": "0x60808060405234605a5760008054336001600160a01b0319821681178355916001600160a01b03909116907f8be0079c531659141344cd1fd0a4f28419497f9722a3daafe3b4186f6b6457e09080a361093b90816100608239f35b600080fdfe6080604052600436101561001257600080fd5b60003560e01c806326705c3c146100a257806331543cf4146100895780635016959a1461009d578063715018a6146100985780638da5cb5b14610093578063b89310ac1461008e578063bc52565214610089578063cafdadde146100845763f2fde38b1461007f57600080fd5b6103df565b6102a9565b6100c4565b610207565b61016f565b610116565b6100f8565b346100bf5760003660031901126100bf5760025460805260206080f35b600080fd5b346100bf5760203660031901126100bf576004356000526001602052602060018060a01b0360406000205416604051908152f35b346100bf5760003660031901126100bf576020600254604051908152f35b346100bf5760003660031901126100bf5761012f6107d2565b600080546001600160a01b0319811682556001600160a01b03167f8be0079c531659141344cd1fd0a4f28419497f9722a3daafe3b4186f6b6457e08280a3005b346100bf5760003660031901126100bf576000546040516001600160a01b039091168152602090f35b602435906001600160a01b03821682036100bf57565b634e487b7160e01b600052604160045260246000fd5b90601f8019910116810190811067ffffffffffffffff8211176101e657604052565b6101ae565b67ffffffffffffffff81116101e657601f01601f191660200190565b346100bf5760603660031901126100bf57600435610223610198565b906044359067ffffffffffffffff82116100bf57366023830112156100bf57816004013592610251846101eb565b9161025f60405193846101c4565b84835236602486860101116100bf5760006020866102a597602461028b980183880137850101526105e9565b6040516001600160a01b0390911681529081906020820190565b0390f35b346100bf5760403660031901126100bf576004356102c5610198565b906102ce6107d2565b6001600160a01b03821691821561039a576103529061031f61031961030d610300866000526001602052604060002090565b546001600160a01b031690565b6001600160a01b031690565b15610756565b610333836000526001602052604060002090565b80546001600160a01b0319166001600160a01b03909216919091179055565b600254811015610384575b7f015902ea38b371359d3cfcc702e9445d97bf18c32ee4f72ebe2361cf53e0088e600080a3005b610395610390826107ae565b600255565b61035d565b60405162461bcd60e51b815260206004820152601d60248201527f46756e64466163746f72793a20696e76616c69642074656d706c6174650000006044820152606490fd5b346100bf5760203660031901126100bf576004356001600160a01b03811681036100bf5761040b6107d2565b6001600160a01b03811615610425576104239061082a565b005b60405162461bcd60e51b815260206004820152602660248201527f4f776e61626c653a206e6577206f776e657220697320746865207a65726f206160448201526564647265737360d01b6064820152608490fd5b1561048057565b60405162461bcd60e51b815260206004820152601f60248201527f46756e64466163746f72793a2074656d706c617465206e6f7420666f756e64006044820152606490fd5b60005b8381106104d85750506000910152565b81810151838201526020016104c8565b90602091610501815180928185528580860191016104c5565b601f01601f1916010190565b6001600160a01b03909116815260406020820181905261052f929101906104e8565b90565b3d1561055d573d90610543826101eb565b9161055160405193846101c4565b82523d6000602084013e565b606090565b6020818303126100bf5780519067ffffffffffffffff82116100bf570181601f820112156100bf578051610595816101eb565b926105a360405194856101c4565b818452602082840101116100bf5761052f91602080850191016104c5565b906105d4602092828151948592016104c5565b0190565b90602061052f9281815201906104e8565b906000809161064661065461062761060e610300886000526001602052604060002090565b6106226001600160a01b0382161515610479565b610871565b966040519283916020830195634447224360e11b87526024840161050d565b03601f1981018352826101c4565b519082865af1610662610532565b901561069e575033906001600160a01b038316907fa959597a97640f580ec183ce9d99c257fc0be7ba0581643b5863da0505d1dca2600080a490565b805115610706576106466106ea6106c48360248060046107029701518301019101610562565b6040516c0233ab7322330b1ba37b93c9d1609d1b6020820152928391602d8301906105c1565b60405162461bcd60e51b8152918291600483016105d8565b0390fd5b60405162461bcd60e51b815260206004820152602260248201527f46756e64466163746f72793a20696e697469616c697a6174696f6e206661696c604482015261195960f21b6064820152608490fd5b1561075d57565b60405162461bcd60e51b8152602060048201526024808201527f46756e64466163746f72793a2074656d706c61746520616c72656164792065786044820152636973747360e01b6064820152608490fd5b90600182018092116107bc57565b634e487b7160e01b600052601160045260246000fd5b6000546001600160a01b031633036107e657565b606460405162461bcd60e51b815260206004820152602060248201527f4f776e61626c653a2063616c6c6572206973206e6f7420746865206f776e65726044820152fd5b600080546001600160a01b039283166001600160a01b03198216811783559216907f8be0079c531659141344cd1fd0a4f28419497f9722a3daafe3b4186f6b6457e09080a3565b6e5af43d82803e903d91602b57fd5bf390763d602d80600a3d3981f3363d3d373d3d3d363d7300000062ffffff8260881c161760005260781b17602052603760096000f0906001600160a01b038216156108c757565b60405162461bcd60e51b8152602060048201526016602482015275115490cc4c4d8dce8818dc99585d194819985a5b195960521b6044820152606490fdfea26469706673582212200998e20537a87a76682980dc4b7b513dbf84d6158fe52a51b7def971be77765764736f6c634300081a0033",
  "devdoc": {
    "kind": "dev",
    "methods": {
      "owner()": {
        "details": "Returns the address of the current owner."
      },
      "renounceOwnership()": {
        "details": "Leaves the contract without owner. It will not be possible to call `onlyOwner` functions. Can only be called by the current owner. NOTE: Renouncing ownership will leave the contract without an owner, thereby disabling any functionality that is only available to the owner."
      },
      "transferOwnership(address)": {
        "details": "Transfers ownership of the contract to a new account (`newOwner`). Can only be called by the current owner."
      }
    },
    "version": 1
  },
  "userdoc": {
    "kind": "user",
    "methods": {},
    "version": 1
  },
  "storageLayout": {
    "storage": [
      {
        "astId": 3547,
        "contract": "contracts/v2/factories/FundFactory.sol:FundFactory",
        "label": "_owner",
        "offset": 0,
        "slot": "0",
        "type": "t_address"
      },
      {
        "astId": 13394,
        "contract": "contracts/v2/factories/FundFactory.sol:FundFactory",
        "label": "templates",
        "offset": 0,
        "slot": "1",
        "type": "t_mapping(t_uint256,t_address)"
      },
      {
        "astId": 13396,
        "contract": "contracts/v2/factories/FundFactory.sol:FundFactory",
        "label": "templateCount",
        "offset": 0,
        "slot": "2",
        "type": "t_uint256"
      }
    ],
    "types": {
      "t_address": {
        "encoding": "inplace",
        "label": "address",
        "numberOfBytes": "20"
      },
      "t_mapping(t_uint256,t_address)": {
        "encoding": "mapping",
        "key": "t_uint256",
        "label": "mapping(uint256 => address)",
        "numberOfBytes": "32",
        "value": "t_address"
      },
      "t_uint256": {
        "encoding": "inplace",
        "label": "uint256",
        "numberOfBytes": "32"
      }
    }
  }
}