{
  "address": "0x5E6a91E777Fee55eB00099704e9b3d85831c78Fb",
  "abi": [
    {
      "anonymous": false,
      "inputs": [
        {
          "indexed": true,
          "internalType": "address",
          "name": "previousOwner",
          "type": "address"
        },
        {
          "indexed": true,
          "internalType": "address",
          "name": "newOwner",
          "type": "address"
        }
      ],
      "name": "OwnershipTransferred",
      "type": "event"
    },
    {
      "anonymous": false,
      "inputs": [
        {
          "indexed": true,
          "internalType": "uint256",
          "name": "templateId",
          "type": "uint256"
        },
        {
          "indexed": true,
          "internalType": "address",
          "name": "template",
          "type": "address"
        }
      ],
      "name": "TemplateAdded",
      "type": "event"
    },
    {
      "anonymous": false,
      "inputs": [
        {
          "indexed": true,
          "internalType": "uint256",
          "name": "templateId",
          "type": "uint256"
        },
        {
          "indexed": true,
          "internalType": "address",
          "name": "vault",
          "type": "address"
        },
        {
          "indexed": true,
          "internalType": "address",
          "name": "deployer",
          "type": "address"
        }
      ],
      "name": "VaultCreated",
      "type": "event"
    },
    {
      "inputs": [
        {
          "internalType": "uint256",
          "name": "templateId",
          "type": "uint256"
        },
        {
          "internalType": "address",
          "name": "template",
          "type": "address"
        }
      ],
      "name": "addTemplate",
      "outputs": [],
      "stateMutability": "nonpayable",
      "type": "function"
    },
    {
      "inputs": [
        {
          "internalType": "uint256",
          "name": "templateId",
          "type": "uint256"
        },
        {
          "internalType": "bytes",
          "name": "initData",
          "type": "bytes"
        }
      ],
      "name": "createVault",
      "outputs": [
        {
          "internalType": "address",
          "name": "vault",
          "type": "address"
        }
      ],
      "stateMutability": "nonpayable",
      "type": "function"
    },
    {
      "inputs": [
        {
          "internalType": "uint256",
          "name": "templateId",
          "type": "uint256"
        }
      ],
      "name": "getTemplate",
      "outputs": [
        {
          "internalType": "address",
          "name": "",
          "type": "address"
        }
      ],
      "stateMutability": "view",
      "type": "function"
    },
    {
      "inputs": [],
      "name": "getTemplateCount",
      "outputs": [
        {
          "internalType": "uint256",
          "name": "",
          "type": "uint256"
        }
      ],
      "stateMutability": "view",
      "type": "function"
    },
    {
      "inputs": [],
      "name": "owner",
      "outputs": [
        {
          "internalType": "address",
          "name": "",
          "type": "address"
        }
      ],
      "stateMutability": "view",
      "type": "function"
    },
    {
      "inputs": [],
      "name": "renounceOwnership",
      "outputs": [],
      "stateMutability": "nonpayable",
      "type": "function"
    },
    {
      "inputs": [],
      "name": "templateCount",
      "outputs": [
        {
          "internalType": "uint256",
          "name": "",
          "type": "uint256"
        }
      ],
      "stateMutability": "view",
      "type": "function"
    },
    {
      "inputs": [
        {
          "internalType": "uint256",
          "name": "",
          "type": "uint256"
        }
      ],
      "name": "templates",
      "outputs": [
        {
          "internalType": "address",
          "name": "",
          "type": "address"
        }
      ],
      "stateMutability": "view",
      "type": "function"
    },
    {
      "inputs": [
        {
          "internalType": "address",
          "name": "newOwner",
          "type": "address"
        }
      ],
      "name": "transferOwnership",
      "outputs": [],
      "stateMutability": "nonpayable",
      "type": "function"
    }
  ],
  "transactionHash": "0xd9c6c51d1ea2349ddaea92e58dde1c922488f0fc0d0c1f90a824205183fde4e6",
  "args": [],
  "numDeployments": 1,
  "solcInputHash": "cae1dd62554d52e09fb9f916bdfeb2b7",
  "bytecode": "0x60808060405234605a5760008054336001600160a01b0319821681178355916001600160a01b03909116907f8be0079c531659141344cd1fd0a4f28419497f9722a3daafe3b4186f6b6457e09080a361070c90816100608239f35b600080fdfe6080604052600436101561001257600080fd5b60003560e01c806325920b211461038857806326705c3c1461036a57806331543cf4146102b45780635016959a1461036a578063715018a6146103115780638da5cb5b146102e8578063bc525652146102b4578063cafdadde1461014f5763f2fde38b1461007f57600080fd5b3461014a57602036600319011261014a576004356001600160a01b0381169081900361014a576100ad61067e565b80156100f657600080546001600160a01b03198116831782556001600160a01b0316907f8be0079c531659141344cd1fd0a4f28419497f9722a3daafe3b4186f6b6457e09080a3005b60405162461bcd60e51b815260206004820152602660248201527f4f776e61626c653a206e6577206f776e657220697320746865207a65726f206160448201526564647265737360d01b6064820152608490fd5b600080fd5b3461014a57604036600319011261014a576024356001600160a01b038116906004359082900361014a5761018161067e565b811561026f576000818152600160205260409020546001600160a01b031661021c57600081815260016020526040902080546001600160a01b031916831790556002548110156101f3575b7f015902ea38b371359d3cfcc702e9445d97bf18c32ee4f72ebe2361cf53e0088e600080a3005b60018101808211610206576002556101cc565b634e487b7160e01b600052601160045260246000fd5b60405162461bcd60e51b815260206004820152602560248201527f5661756c74466163746f72793a2074656d706c61746520616c72656164792065604482015264786973747360d81b6064820152608490fd5b60405162461bcd60e51b815260206004820152601e60248201527f5661756c74466163746f72793a20696e76616c69642074656d706c61746500006044820152606490fd5b3461014a57602036600319011261014a576004356000526001602052602060018060a01b0360406000205416604051908152f35b3461014a57600036600319011261014a576000546040516001600160a01b039091168152602090f35b3461014a57600036600319011261014a5761032a61067e565b600080546001600160a01b0319811682556001600160a01b03167f8be0079c531659141344cd1fd0a4f28419497f9722a3daafe3b4186f6b6457e08280a3005b3461014a57600036600319011261014a576020600254604051908152f35b3461014a57604036600319011261014a5760243560043567ffffffffffffffff821161014a573660238301121561014a5781600401356103c781610662565b926103d5604051948561062a565b818452366024838301011161014a578160009260246020930183870137840101526000818152600160205260409020546001600160a01b038116156105e65780763d602d80600a3d3981f3363d3d373d3d3d363d7300000062ffffff6e5af43d82803e903d91602b57fd5bf39360881c16176000526effffffffffffffffffffffffffffff199060781b1617602052603760096000f06001600160a01b0381169283156105a8576040516020810191633d93a20560e21b83526020602483015280519081604484015260005b8281106105925787876000808989828a6104d76064828d85838284010152601f801991011681010301601f19810183528261062a565b51925af13d1561058d573d6104eb81610662565b906104f9604051928361062a565b8152600060203d92013e5b1561053c57602091604051918133917fa8596cc4a052ecc7656e9ca0fb7a10472573699e3aa34ac5659bc37c1b0a44fc600080a48152f35b60405162461bcd60e51b815260206004820152602360248201527f5661756c74466163746f72793a20696e697469616c697a6174696f6e206661696044820152621b195960ea1b6064820152608490fd5b610504565b80602080928401015160648287010152016104a1565b60405162461bcd60e51b8152602060048201526016602482015275115490cc4c4d8dce8818dc99585d194819985a5b195960521b6044820152606490fd5b606460405162461bcd60e51b815260206004820152602060248201527f5661756c74466163746f72793a2074656d706c617465206e6f7420666f756e646044820152fd5b90601f8019910116810190811067ffffffffffffffff82111761064c57604052565b634e487b7160e01b600052604160045260246000fd5b67ffffffffffffffff811161064c57601f01601f191660200190565b6000546001600160a01b0316330361069257565b606460405162461bcd60e51b815260206004820152602060248201527f4f776e61626c653a2063616c6c6572206973206e6f7420746865206f776e65726044820152fdfea2646970667358221220f424f9690fe25cb15ffd63d34216e191c9dac93f2cd7216949b0c8f4e02fc18b64736f6c634300081a0033",
  "devdoc": {
    "kind": "dev",
    "methods": {
      "owner()": {
        "details": "Returns the address of the current owner."
      },
      "renounceOwnership()": {
        "details": "Leaves the contract without owner. It will not be possible to call `onlyOwner` functions. Can only be called by the current owner. NOTE: Renouncing ownership will leave the contract without an owner, thereby disabling any functionality that is only available to the owner."
      },
      "transferOwnership(address)": {
        "details": "Transfers ownership of the contract to a new account (`newOwner`). Can only be called by the current owner."
      }
    },
    "version": 1
  },
  "userdoc": {
    "kind": "user",
    "methods": {},
    "version": 1
  },
  "storageLayout": {
    "storage": [
      {
        "astId": 3547,
        "contract": "contracts/v2/factories/VaultFactory.sol:VaultFactory",
        "label": "_owner",
        "offset": 0,
        "slot": "0",
        "type": "t_address"
      },
      {
        "astId": 13753,
        "contract": "contracts/v2/factories/VaultFactory.sol:VaultFactory",
        "label": "templates",
        "offset": 0,
        "slot": "1",
        "type": "t_mapping(t_uint256,t_address)"
      },
      {
        "astId": 13755,
        "contract": "contracts/v2/factories/VaultFactory.sol:VaultFactory",
        "label": "templateCount",
        "offset": 0,
        "slot": "2",
        "type": "t_uint256"
      }
    ],
    "types": {
      "t_address": {
        "encoding": "inplace",
        "label": "address",
        "numberOfBytes": "20"
      },
      "t_mapping(t_uint256,t_address)": {
        "encoding": "mapping",
        "key": "t_uint256",
        "label": "mapping(uint256 => address)",
        "numberOfBytes": "32",
        "value": "t_address"
      },
      "t_uint256": {
        "encoding": "inplace",
        "label": "uint256",
        "numberOfBytes": "32"
      }
    }
  }
}