{
  "address": "0x1C41C18D773016553766bea7878771E946dC8918",
  "abi": [
    {
      "inputs": [],
      "stateMutability": "nonpayable",
      "type": "constructor"
    },
    {
      "anonymous": false,
      "inputs": [
        {
          "indexed": true,
          "internalType": "address",
          "name": "owner",
          "type": "address"
        },
        {
          "indexed": true,
          "internalType": "address",
          "name": "spender",
          "type": "address"
        },
        {
          "indexed": false,
          "internalType": "uint256",
          "name": "value",
          "type": "uint256"
        }
      ],
      "name": "Approval",
      "type": "event"
    },
    {
      "anonymous": false,
      "inputs": [
        {
          "indexed": true,
          "internalType": "address",
          "name": "previousOwner",
          "type": "address"
        },
        {
          "indexed": true,
          "internalType": "address",
          "name": "newOwner",
          "type": "address"
        }
      ],
      "name": "OwnershipTransferred",
      "type": "event"
    },
    {
      "anonymous": false,
      "inputs": [
        {
          "indexed": false,
          "internalType": "address",
          "name": "account",
          "type": "address"
        }
      ],
      "name": "Paused",
      "type": "event"
    },
    {
      "anonymous": false,
      "inputs": [
        {
          "indexed": true,
          "internalType": "address",
          "name": "from",
          "type": "address"
        },
        {
          "indexed": false,
          "internalType": "uint256",
          "name": "amount",
          "type": "uint256"
        }
      ],
      "name": "TokenBurned",
      "type": "event"
    },
    {
      "anonymous": false,
      "inputs": [
        {
          "indexed": true,
          "internalType": "address",
          "name": "to",
          "type": "address"
        },
        {
          "indexed": false,
          "internalType": "uint256",
          "name": "amount",
          "type": "uint256"
        }
      ],
      "name": "TokenMinted",
      "type": "event"
    },
    {
      "anonymous": false,
      "inputs": [],
      "name": "TokenPaused",
      "type": "event"
    },
    {
      "anonymous": false,
      "inputs": [],
      "name": "TokenUnpaused",
      "type": "event"
    },
    {
      "anonymous": false,
      "inputs": [
        {
          "indexed": true,
          "internalType": "address",
          "name": "from",
          "type": "address"
        },
        {
          "indexed": true,
          "internalType": "address",
          "name": "to",
          "type": "address"
        },
        {
          "indexed": false,
          "internalType": "uint256",
          "name": "value",
          "type": "uint256"
        }
      ],
      "name": "Transfer",
      "type": "event"
    },
    {
      "anonymous": false,
      "inputs": [
        {
          "indexed": false,
          "internalType": "address",
          "name": "account",
          "type": "address"
        }
      ],
      "name": "Unpaused",
      "type": "event"
    },
    {
      "inputs": [
        {
          "internalType": "address",
          "name": "owner",
          "type": "address"
        },
        {
          "internalType": "address",
          "name": "spender",
          "type": "address"
        }
      ],
      "name": "allowance",
      "outputs": [
        {
          "internalType": "uint256",
          "name": "",
          "type": "uint256"
        }
      ],
      "stateMutability": "view",
      "type": "function"
    },
    {
      "inputs": [
        {
          "internalType": "address",
          "name": "spender",
          "type": "address"
        },
        {
          "internalType": "uint256",
          "name": "amount",
          "type": "uint256"
        }
      ],
      "name": "approve",
      "outputs": [
        {
          "internalType": "bool",
          "name": "",
          "type": "bool"
        }
      ],
      "stateMutability": "nonpayable",
      "type": "function"
    },
    {
      "inputs": [
        {
          "internalType": "address",
          "name": "account",
          "type": "address"
        }
      ],
      "name": "balanceOf",
      "outputs": [
        {
          "internalType": "uint256",
          "name": "",
          "type": "uint256"
        }
      ],
      "stateMutability": "view",
      "type": "function"
    },
    {
      "inputs": [
        {
          "internalType": "address",
          "name": "account",
          "type": "address"
        },
        {
          "internalType": "uint256",
          "name": "amount",
          "type": "uint256"
        }
      ],
      "name": "burnFrom",
      "outputs": [],
      "stateMutability": "nonpayable",
      "type": "function"
    },
    {
      "inputs": [],
      "name": "decimals",
      "outputs": [
        {
          "internalType": "uint8",
          "name": "",
          "type": "uint8"
        }
      ],
      "stateMutability": "view",
      "type": "function"
    },
    {
      "inputs": [
        {
          "internalType": "address",
          "name": "spender",
          "type": "address"
        },
        {
          "internalType": "uint256",
          "name": "subtractedValue",
          "type": "uint256"
        }
      ],
      "name": "decreaseAllowance",
      "outputs": [
        {
          "internalType": "bool",
          "name": "",
          "type": "bool"
        }
      ],
      "stateMutability": "nonpayable",
      "type": "function"
    },
    {
      "inputs": [
        {
          "internalType": "address",
          "name": "spender",
          "type": "address"
        },
        {
          "internalType": "uint256",
          "name": "addedValue",
          "type": "uint256"
        }
      ],
      "name": "increaseAllowance",
      "outputs": [
        {
          "internalType": "bool",
          "name": "",
          "type": "bool"
        }
      ],
      "stateMutability": "nonpayable",
      "type": "function"
    },
    {
      "inputs": [
        {
          "internalType": "address",
          "name": "_vault",
          "type": "address"
        },
        {
          "internalType": "bytes",
          "name": "_initData",
          "type": "bytes"
        }
      ],
      "name": "initiate",
      "outputs": [],
      "stateMutability": "nonpayable",
      "type": "function"
    },
    {
      "inputs": [],
      "name": "isInitialized",
      "outputs": [
        {
          "internalType": "bool",
          "name": "",
          "type": "bool"
        }
      ],
      "stateMutability": "view",
      "type": "function"
    },
    {
      "inputs": [
        {
          "internalType": "address",
          "name": "to",
          "type": "address"
        },
        {
          "internalType": "uint256",
          "name": "amount",
          "type": "uint256"
        }
      ],
      "name": "mint",
      "outputs": [],
      "stateMutability": "nonpayable",
      "type": "function"
    },
    {
      "inputs": [],
      "name": "name",
      "outputs": [
        {
          "internalType": "string",
          "name": "",
          "type": "string"
        }
      ],
      "stateMutability": "view",
      "type": "function"
    },
    {
      "inputs": [],
      "name": "owner",
      "outputs": [
        {
          "internalType": "address",
          "name": "",
          "type": "address"
        }
      ],
      "stateMutability": "view",
      "type": "function"
    },
    {
      "inputs": [],
      "name": "pause",
      "outputs": [],
      "stateMutability": "nonpayable",
      "type": "function"
    },
    {
      "inputs": [],
      "name": "paused",
      "outputs": [
        {
          "internalType": "bool",
          "name": "",
          "type": "bool"
        }
      ],
      "stateMutability": "view",
      "type": "function"
    },
    {
      "inputs": [],
      "name": "renounceOwnership",
      "outputs": [],
      "stateMutability": "nonpayable",
      "type": "function"
    },
    {
      "inputs": [],
      "name": "symbol",
      "outputs": [
        {
          "internalType": "string",
          "name": "",
          "type": "string"
        }
      ],
      "stateMutability": "view",
      "type": "function"
    },
    {
      "inputs": [],
      "name": "totalSupply",
      "outputs": [
        {
          "internalType": "uint256",
          "name": "",
          "type": "uint256"
        }
      ],
      "stateMutability": "view",
      "type": "function"
    },
    {
      "inputs": [
        {
          "internalType": "address",
          "name": "to",
          "type": "address"
        },
        {
          "internalType": "uint256",
          "name": "amount",
          "type": "uint256"
        }
      ],
      "name": "transfer",
      "outputs": [
        {
          "internalType": "bool",
          "name": "",
          "type": "bool"
        }
      ],
      "stateMutability": "nonpayable",
      "type": "function"
    },
    {
      "inputs": [
        {
          "internalType": "address",
          "name": "from",
          "type": "address"
        },
        {
          "internalType": "address",
          "name": "to",
          "type": "address"
        },
        {
          "internalType": "uint256",
          "name": "amount",
          "type": "uint256"
        }
      ],
      "name": "transferFrom",
      "outputs": [
        {
          "internalType": "bool",
          "name": "",
          "type": "bool"
        }
      ],
      "stateMutability": "nonpayable",
      "type": "function"
    },
    {
      "inputs": [
        {
          "internalType": "address",
          "name": "newOwner",
          "type": "address"
        }
      ],
      "name": "transferOwnership",
      "outputs": [],
      "stateMutability": "nonpayable",
      "type": "function"
    },
    {
      "inputs": [],
      "name": "unpause",
      "outputs": [],
      "stateMutability": "nonpayable",
      "type": "function"
    },
    {
      "inputs": [],
      "name": "vault",
      "outputs": [
        {
          "internalType": "address",
          "name": "",
          "type": "address"
        }
      ],
      "stateMutability": "view",
      "type": "function"
    }
  ],
  "transactionHash": "0xc8d7d5fae3c4cd72c0b80c316e0ac5e01e2f9a3fd5f2a00029e1a0b7abe393a3",
  "args": [],
  "numDeployments": 1,
  "solcInputHash": "cae1dd62554d52e09fb9f916bdfeb2b7",
  "bytecode": "0x60806040523461033057610011610335565b610019610335565b81516001600160401b03811161023b57600354600181811c91168015610326575b602082101461021b57601f81116102c1575b50602092601f821160011461025c5792819293600092610251575b50508160011b916000199060031b1c1916176003555b80516001600160401b03811161023b57600454600181811c91168015610231575b602082101461021b57601f81116101b6575b50602091601f821160011461015257918192600092610147575b50508160011b916000199060031b1c1916176004555b600580546001600160a81b0319811633600881811b610100600160a81b0316929092179093556040519291901c6001600160a01b03167f8be0079c531659141344cd1fd0a4f28419497f9722a3daafe3b4186f6b6457e0600080a3611ca890816103598239f35b0151905038806100ca565b601f198216926004600052806000209160005b85811061019e57508360019510610185575b505050811b016004556100e0565b015160001960f88460031b161c19169055388080610177565b91926020600181928685015181550194019201610165565b60046000527f8a35acfbc15ff81a39ae7d344fd709f28e8600b4aa8c65c6b64bfe7fe36bd19b601f830160051c81019160208410610211575b601f0160051c01905b81811061020557506100b0565b600081556001016101f8565b90915081906101ef565b634e487b7160e01b600052602260045260246000fd5b90607f169061009e565b634e487b7160e01b600052604160045260246000fd5b015190503880610067565b601f198216936003600052806000209160005b8681106102a95750836001959610610290575b505050811b0160035561007d565b015160001960f88460031b161c19169055388080610282565b9192602060018192868501518155019401920161026f565b60036000527fc2575a0e9e593c00f959f8c92f12db2869c3395a3b0502d05e2516446f71f85b601f830160051c8101916020841061031c575b601f0160051c01905b818110610310575061004c565b60008155600101610303565b90915081906102fa565b90607f169061003a565b600080fd5b60405190602082016001600160401b0381118382101761023b576040526000825256fe608080604052600436101561001357600080fd5b600090813560e01c90816306fdde031461144f57508063095ea7b31461142857806318160ddd1461140a57806323b872dd1461126b578063313ce5671461124a578063392e53cd1461122457806339509351146111d35780633f4ba83a1461113157806340c10f1914610fc55780635c975abb14610fa257806370a0823114610f6a578063715018a614610f0957806379cc679014610bda5780638456cb5914610b2e578063888e4486146105925780638da5cb5b1461056557806395d89b4114610498578063a457c2d7146103f3578063a9059cbb14610224578063dd62ed3e146101cf578063f2fde38b1461013e5763fbfa77cf1461011357600080fd5b3461013b578060031936011261013b576006546040516001600160a01b039091168152602090f35b80fd5b503461013b57602036600319011261013b5761015861152e565b6101606118e7565b6001600160a01b0381161561017b5761017890611942565b80f35b60405162461bcd60e51b815260206004820152602660248201527f4f776e61626c653a206e6577206f776e657220697320746865207a65726f206160448201526564647265737360d01b6064820152608490fd5b503461013b57604036600319011261013b5760406101eb61152e565b916101f4611549565b9260018060a01b031681526001602052209060018060a01b03166000526020526020604060002054604051908152f35b503461013b57604036600319011261013b5761023e61152e565b33610350575b6001600160a01b0381168061026c575b6102616024358333611a3b565b602060405160018152f35b6006546040516351fb012d60e01b81526001600160a01b039091169190602081600481865afa908115610345578591610326575b506102ac575b50610254565b602090602460405180948193633af32abf60e01b835260048301525afa90811561031b57906102e59161026194916102ec575b50611605565b38806102a6565b61030e915060203d602011610314575b610306818361155f565b8101906115ed565b386102df565b503d6102fc565b6040513d85823e3d90fd5b61033f915060203d60201161031457610306818361155f565b386102a0565b6040513d87823e3d90fd5b6006546040516351fb012d60e01b81526001600160a01b0390911690602081600481855afa9081156103e85784916103c9575b5061038f575b50610244565b602060249160405192838092633af32abf60e01b82523360048301525afa801561031b576103c39184916102ec5750611605565b38610389565b6103e2915060203d60201161031457610306818361155f565b38610383565b6040513d86823e3d90fd5b503461013b57604036600319011261013b5761040d61152e565b60406024359233815260016020522060018060a01b038216600052602052604060002054918083106104455761026192039033611796565b60405162461bcd60e51b815260206004820152602560248201527f45524332303a2064656372656173656420616c6c6f77616e63652062656c6f77604482015264207a65726f60d81b6064820152608490fd5b503461013b578060031936011261013b576040519080600854906104bb826115b3565b808552916001811690811561053e57506001146104f3575b6104ef846104e38186038261155f565b60405191829182611502565b0390f35b60088152600080516020611c53833981519152939250905b808210610524575090915081016020016104e3826104d3565b91926001816020925483858801015201910190929161050b565b60ff191660208087019190915292151560051b850190920192506104e391508390506104d3565b503461013b578060031936011261013b5760055460405160089190911c6001600160a01b03168152602090f35b503461013b57604036600319011261013b576105ac61152e565b906024359167ffffffffffffffff8311610b2a5736602384011215610b2a578260040135926105da84611597565b936105e8604051958661155f565b80855260208501913660248383010111610b265781859260246020930185378601015260ff60095460081c16159061061f82611705565b6001600160a01b0383168015610ae157855186019160608760208501940312610ad9575167ffffffffffffffff8111610ad95782602061066192890101611751565b91604087015167ffffffffffffffff8111610add576060916020610687928a0101611751565b9601519260ff8416809403610ad95761069f90611705565b815115610a9b57855115610a565760188311610a11576bffffffffffffffffffffffff60a01b600654161760065580519067ffffffffffffffff82116109fd5781906106ec6007546115b3565b601f8111610988575b50602090601f831160011461091757869261090c575b50508160011b916000199060031b1c1916176007555b835167ffffffffffffffff81116108f85761073d6008546115b3565b601f811161088d575b506020601f82116001146108155790806101009392869761078f979261080a575b50508160011b916000199060031b1c1916176008555b61ffff19600954161717600955611942565b60055460ff81166107d25760019060ff1916176005557f62e78cea01bee320cd4e420270b5ea74000d11b0c9f74754ebdbfc544b05a2586020604051338152a180f35b60405162461bcd60e51b815260206004820152601060248201526f14185d5cd8589b194e881c185d5cd95960821b6044820152606490fd5b015190503880610767565b60088552600080516020611c5383398151915295601f198316865b8181106108755750966001928492610100969561078f999a1061085c575b505050811b0160085561077d565b015160001960f88460031b161c1916905538808061084e565b83830151895560019098019760209384019301610830565b60088552601f820160051c600080516020611c538339815191520190602083106108e2575b601f0160051c600080516020611c5383398151915201905b8181106108d75750610746565b8581556001016108ca565b600080516020611c5383398151915291506108b2565b634e487b7160e01b84526041600452602484fd5b01519050388061070b565b60078752600080516020611c338339815191529250601f198416875b8181106109705750908460019594939210610957575b505050811b01600755610721565b015160001960f88460031b161c19169055388080610949565b92936020600181928786015181550195019301610933565b90915060078652601f830160051c600080516020611c338339815191520190602084106109e7575b90601f8493920160051c600080516020611c3383398151915201905b8181106109d957506106f5565b8781558493506001016109cc565b600080516020611c3383398151915291506109b0565b634e487b7160e01b85526041600452602485fd5b60405162461bcd60e51b815260206004820152601c60248201527f5661756c74546f6b656e3a20696e76616c696420646563696d616c73000000006044820152606490fd5b60405162461bcd60e51b815260206004820152601860248201527f5661756c74546f6b656e3a20656d7074792073796d626f6c00000000000000006044820152606490fd5b60405162461bcd60e51b81526020600482015260166024820152755661756c74546f6b656e3a20656d707479206e616d6560501b6044820152606490fd5b8580fd5b8680fd5b60405162461bcd60e51b815260206004820152601960248201527f5661756c74546f6b656e3a20696e76616c6964207661756c74000000000000006044820152606490fd5b8480fd5b5080fd5b503461013b578060031936011261013b57610b5460018060a01b03600654163314611674565b610b6560ff60095460081c166116b9565b60055460ff81161580610b76578280f35b156107d25760019060ff1916176005557f62e78cea01bee320cd4e420270b5ea74000d11b0c9f74754ebdbfc544b05a2586020604051338152a17fe7792495f34379948e170e2eaab4c10e47ffdd0999c32d6e9848e863802f188c8180a138808280f35b503461013b57604036600319011261013b57610bf461152e565b602435610c0c60018060a01b03600654163314611674565b610c1d60ff60095460081c166116b9565b6001600160a01b038216918215610eb9578115610e63578284528360205281604085205410610e1f5781610c5291339061199e565b8115158080610e18575b610db7575b80610db0575b610d3e575b818352826020526040832054818110610cee57817f1af5163f80e79b5e554f61e1d052084d3a3fe1166e42a265798c4e2ddce8ffa292602092858752868452036040862055806002540360025584847fddf252ad1be2c89b69c2b068fc378daa952ba7f163c4a11628f55a4df523b3ef84604051858152a3604051908152a280f35b60405162461bcd60e51b815260206004820152602260248201527f45524332303a206275726e20616d6f756e7420657863656564732062616c616e604482015261636560f01b6064820152608490fd5b60065483906001600160a01b0316803b610d5a575b5050610c6c565b803b15610b2a57819060646040518094819363677ba3d360e01b83528860048401528160248401528760448401525af180156103e857610d9c575b8390610d53565b83610da99194929461155f565b9138610d95565b5082610c67565b60ff6005541615610c61575b60405162461bcd60e51b815260206004820152602760248201527f5661756c74546f6b656e3a20746f6b656e207472616e73666572207768696c65604482015266081c185d5cd95960ca1b6064820152608490fd5b5083610c5c565b606460405162461bcd60e51b815260206004820152602060248201527f5661756c74546f6b656e3a20696e73756666696369656e742062616c616e63656044820152fd5b60405162461bcd60e51b815260206004820152602860248201527f5661756c74546f6b656e3a206275726e20616d6f756e74206d75737420626520604482015267706f73697469766560c01b6064820152608490fd5b60405162461bcd60e51b815260206004820152602260248201527f5661756c74546f6b656e3a206275726e2066726f6d207a65726f206164647265604482015261737360f01b6064820152608490fd5b503461013b578060031936011261013b57610f226118e7565b60058054610100600160a81b03198116909155819060081c6001600160a01b03167f8be0079c531659141344cd1fd0a4f28419497f9722a3daafe3b4186f6b6457e08280a380f35b503461013b57602036600319011261013b576020906040906001600160a01b03610f9261152e565b1681528083522054604051908152f35b503461013b578060031936011261013b57602060ff600554166040519015158152f35b503461013b57604036600319011261013b57610fdf61152e565b60243590610ff860018060a01b03600654163314611674565b61100960ff60095460081c166116b9565b6001600160a01b03169081156110ed5780156110975760207fb9144c96c86541f6fa89c9f2f02495cccf4b08cd6643e26d34ee00aa586558a89161104f81600254611651565b6002558385528482526040852081815401905583857fddf252ad1be2c89b69c2b068fc378daa952ba7f163c4a11628f55a4df523b3ef84604051858152a3604051908152a280f35b60405162461bcd60e51b815260206004820152602860248201527f5661756c74546f6b656e3a206d696e7420616d6f756e74206d75737420626520604482015267706f73697469766560c01b6064820152608490fd5b606460405162461bcd60e51b815260206004820152602060248201527f5661756c74546f6b656e3a206d696e7420746f207a65726f20616464726573736044820152fd5b503461013b578060031936011261013b5761115760018060a01b03600654163314611674565b61116860ff60095460081c166116b9565b61117061189e565b61117861189e565b60ff19600554166005557f5db9ee0a495bf2e6ff9c91a7834c1ba4fdd244a5e8aa4e537bd38aeae4b073aa6020604051338152a17f034f571e8421592eac76524eb9ce5c1ec88251bd2ea778a88cf713dbd15cfc338180a180f35b503461013b57604036600319011261013b576102619061121d60406111f661152e565b338452600160209081528285206001600160a01b0383168652905292205460243590611651565b9033611796565b503461013b578060031936011261013b57602060ff60095460081c166040519015158152f35b503461013b578060031936011261013b57602060ff60095416604051908152f35b503461013b57606036600319011261013b5761128561152e565b61128d611549565b604435916001600160a01b03811680611371575b506001600160a01b038216806112c8575b5061026193506112c383338361199e565b611a3b565b6006546040516351fb012d60e01b81526001600160a01b039091169190602081600481865afa908115611366578791611347575b50611308575b506112b2565b602090602460405180948193633af32abf60e01b835260048301525afa90811561034557906113409161026196916102ec5750611605565b3880611302565b611360915060203d60201161031457610306818361155f565b386112fc565b6040513d89823e3d90fd5b6006546040516351fb012d60e01b81526001600160a01b039091169190602081600481865afa9081156113665787916113eb575b506113b1575b506112a1565b602090602460405180948193633af32abf60e01b835260048301525afa8015610345576113e49186916102ec5750611605565b38806113ab565b611404915060203d60201161031457610306818361155f565b386113a5565b503461013b578060031936011261013b576020600254604051908152f35b503461013b57604036600319011261013b5761026161144561152e565b6024359033611796565b823461013b578060031936011261013b576007548161146d826115b3565b808552916001811690811561053e5750600114611494576104ef846104e38186038261155f565b60078152600080516020611c33833981519152939250905b8082106114c5575090915081016020016104e3826104d3565b9192600181602092548385880101520191019092916114ac565b60005b8381106114f25750506000910152565b81810151838201526020016114e2565b6040916020825261152281518092816020860152602086860191016114df565b601f01601f1916010190565b600435906001600160a01b038216820361154457565b600080fd5b602435906001600160a01b038216820361154457565b90601f8019910116810190811067ffffffffffffffff82111761158157604052565b634e487b7160e01b600052604160045260246000fd5b67ffffffffffffffff811161158157601f01601f191660200190565b90600182811c921680156115e3575b60208310146115cd57565b634e487b7160e01b600052602260045260246000fd5b91607f16916115c2565b90816020910312611544575180151581036115445790565b1561160c57565b60405162461bcd60e51b815260206004820152601b60248201527f5661756c74546f6b656e3a206e6f742077686974656c697374656400000000006044820152606490fd5b9190820180921161165e57565b634e487b7160e01b600052601160045260246000fd5b1561167b57565b60405162461bcd60e51b815260206004820152601660248201527515985d5b1d151bdad95b8e881bdb9b1e481d985d5b1d60521b6044820152606490fd5b156116c057565b60405162461bcd60e51b815260206004820152601b60248201527f5661756c74546f6b656e3a206e6f7420696e697469616c697a656400000000006044820152606490fd5b1561170c57565b60405162461bcd60e51b815260206004820152601f60248201527f5661756c74546f6b656e3a20616c726561647920696e697469616c697a6564006044820152606490fd5b81601f8201121561154457805161176781611597565b92611775604051948561155f565b818452602082840101116115445761179391602080850191016114df565b90565b6001600160a01b031690811561184d576001600160a01b03169182156117fd5760207f8c5be1e5ebec7d5bd14f71427d1e84f3dd0314c0f7b2291e5b200ac8c7c3b925918360005260018252604060002085600052825280604060002055604051908152a3565b60405162461bcd60e51b815260206004820152602260248201527f45524332303a20617070726f766520746f20746865207a65726f206164647265604482015261737360f01b6064820152608490fd5b60405162461bcd60e51b8152602060048201526024808201527f45524332303a20617070726f76652066726f6d20746865207a65726f206164646044820152637265737360e01b6064820152608490fd5b60ff60055416156118ab57565b60405162461bcd60e51b815260206004820152601460248201527314185d5cd8589b194e881b9bdd081c185d5cd95960621b6044820152606490fd5b60055460081c6001600160a01b031633036118fe57565b606460405162461bcd60e51b815260206004820152602060248201527f4f776e61626c653a2063616c6c6572206973206e6f7420746865206f776e65726044820152fd5b60058054610100600160a81b03198116600884811b610100600160a81b0316919091179092556001600160a01b0392831692911c167f8be0079c531659141344cd1fd0a4f28419497f9722a3daafe3b4186f6b6457e0600080a3565b9060018060a01b0382166000526001602052604060002060018060a01b0382166000526020526040600020549260001984036119db575b50505050565b8084106119f6576119ed930391611796565b388080806119d5565b60405162461bcd60e51b815260206004820152601d60248201527f45524332303a20696e73756666696369656e7420616c6c6f77616e63650000006044820152606490fd5b6000926001600160a01b03909116918215611bdf576001600160a01b0316928315611b8e5760ff60055416610dc3576006546001600160a01b0316803b611b2f575b5082815280602052604081205491808310611adb57604082827fddf252ad1be2c89b69c2b068fc378daa952ba7f163c4a11628f55a4df523b3ef958760209652828652038282205586815280845220818154019055604051908152a3565b60405162461bcd60e51b815260206004820152602660248201527f45524332303a207472616e7366657220616d6f756e7420657863656564732062604482015265616c616e636560d01b6064820152608490fd5b803b15610b2a5781809160646040518094819363677ba3d360e01b83528960048401528a60248401528860448401525af18015611b83578290611b73575b50611a7d565b611b7c9161155f565b3881611b6d565b6040513d84823e3d90fd5b60405162461bcd60e51b815260206004820152602360248201527f45524332303a207472616e7366657220746f20746865207a65726f206164647260448201526265737360e81b6064820152608490fd5b60405162461bcd60e51b815260206004820152602560248201527f45524332303a207472616e736665722066726f6d20746865207a65726f206164604482015264647265737360d81b6064820152608490fdfea66cc928b5edb82af9bd49922954155ab7b0942694bea4ce44661d9a8736c688f3f7a9fe364faab93b216da50a3214154f22a0a2b415b23a84c8169e8b636ee3a26469706673582212207ec985d1064d6417d89a3421c3eb256b4717fcceb4245a842840fcea066cf5f464736f6c634300081a0033",
  "devdoc": {
    "details": "Vault share certificate token, supporting accumulated yield distribution",
    "events": {
      "Approval(address,address,uint256)": {
        "details": "Emitted when the allowance of a `spender` for an `owner` is set by a call to {approve}. `value` is the new allowance."
      },
      "Paused(address)": {
        "details": "Emitted when the pause is triggered by `account`."
      },
      "Transfer(address,address,uint256)": {
        "details": "Emitted when `value` tokens are moved from one account (`from`) to another (`to`). Note that `value` may be zero."
      },
      "Unpaused(address)": {
        "details": "Emitted when the pause is lifted by `account`."
      }
    },
    "kind": "dev",
    "methods": {
      "allowance(address,address)": {
        "details": "See {IERC20-allowance}."
      },
      "approve(address,uint256)": {
        "details": "See {IERC20-approve}. NOTE: If `amount` is the maximum `uint256`, the allowance is not updated on `transferFrom`. This is semantically equivalent to an infinite approval. Requirements: - `spender` cannot be the zero address."
      },
      "balanceOf(address)": {
        "details": "See {IERC20-balanceOf}."
      },
      "burnFrom(address,uint256)": {
        "details": "Burn function",
        "params": {
          "account": "Address to burn from",
          "amount": "Burn amount"
        }
      },
      "decimals()": {
        "details": "Query token decimals"
      },
      "decreaseAllowance(address,uint256)": {
        "details": "Atomically decreases the allowance granted to `spender` by the caller. This is an alternative to {approve} that can be used as a mitigation for problems described in {IERC20-approve}. Emits an {Approval} event indicating the updated allowance. Requirements: - `spender` cannot be the zero address. - `spender` must have allowance for the caller of at least `subtractedValue`."
      },
      "increaseAllowance(address,uint256)": {
        "details": "Atomically increases the allowance granted to `spender` by the caller. This is an alternative to {approve} that can be used as a mitigation for problems described in {IERC20-approve}. Emits an {Approval} event indicating the updated allowance. Requirements: - `spender` cannot be the zero address."
      },
      "initiate(address,bytes)": {
        "details": "Unified initialization interface",
        "params": {
          "_initData": "Encoded initialization data",
          "_vault": "Vault address"
        }
      },
      "isInitialized()": {
        "details": "Query if initialized"
      },
      "mint(address,uint256)": {
        "details": "Mint function",
        "params": {
          "amount": "Mint amount",
          "to": "Recipient address"
        }
      },
      "name()": {
        "details": "Query token name"
      },
      "owner()": {
        "details": "Returns the address of the current owner."
      },
      "pause()": {
        "details": "Pause token transfers"
      },
      "paused()": {
        "details": "Query pause status"
      },
      "renounceOwnership()": {
        "details": "Leaves the contract without owner. It will not be possible to call `onlyOwner` functions. Can only be called by the current owner. NOTE: Renouncing ownership will leave the contract without an owner, thereby disabling any functionality that is only available to the owner."
      },
      "symbol()": {
        "details": "Query token symbol"
      },
      "totalSupply()": {
        "details": "See {IERC20-totalSupply}."
      },
      "transfer(address,uint256)": {
        "details": "transfer function, check whitelist for sender and recipient",
        "params": {
          "amount": "Transfer amount",
          "to": "Recipient address"
        }
      },
      "transferFrom(address,address,uint256)": {
        "details": "transferFrom function, check whitelist for sender and recipient",
        "params": {
          "amount": "Transfer amount",
          "from": "Sender address",
          "to": "Recipient address"
        }
      },
      "transferOwnership(address)": {
        "details": "Transfers ownership of the contract to a new account (`newOwner`). Can only be called by the current owner."
      },
      "unpause()": {
        "details": "Resume token transfers"
      }
    },
    "title": "VaultToken",
    "version": 1
  },
  "userdoc": {
    "kind": "user",
    "methods": {},
    "notice": "Inherits ERC20 standard, supports pause functionality, integrates with AccumulatedYield",
    "version": 1
  },
  "storageLayout": {
    "storage": [
      {
        "astId": 4814,
        "contract": "contracts/v2/templates/token/VaultToken.sol:VaultToken",
        "label": "_balances",
        "offset": 0,
        "slot": "0",
        "type": "t_mapping(t_address,t_uint256)"
      },
      {
        "astId": 4820,
        "contract": "contracts/v2/templates/token/VaultToken.sol:VaultToken",
        "label": "_allowances",
        "offset": 0,
        "slot": "1",
        "type": "t_mapping(t_address,t_mapping(t_address,t_uint256))"
      },
      {
        "astId": 4822,
        "contract": "contracts/v2/templates/token/VaultToken.sol:VaultToken",
        "label": "_totalSupply",
        "offset": 0,
        "slot": "2",
        "type": "t_uint256"
      },
      {
        "astId": 4824,
        "contract": "contracts/v2/templates/token/VaultToken.sol:VaultToken",
        "label": "_name",
        "offset": 0,
        "slot": "3",
        "type": "t_string_storage"
      },
      {
        "astId": 4826,
        "contract": "contracts/v2/templates/token/VaultToken.sol:VaultToken",
        "label": "_symbol",
        "offset": 0,
        "slot": "4",
        "type": "t_string_storage"
      },
      {
        "astId": 4643,
        "contract": "contracts/v2/templates/token/VaultToken.sol:VaultToken",
        "label": "_paused",
        "offset": 0,
        "slot": "5",
        "type": "t_bool"
      },
      {
        "astId": 3547,
        "contract": "contracts/v2/templates/token/VaultToken.sol:VaultToken",
        "label": "_owner",
        "offset": 1,
        "slot": "5",
        "type": "t_address"
      },
      {
        "astId": 16745,
        "contract": "contracts/v2/templates/token/VaultToken.sol:VaultToken",
        "label": "vault",
        "offset": 0,
        "slot": "6",
        "type": "t_address"
      },
      {
        "astId": 16747,
        "contract": "contracts/v2/templates/token/VaultToken.sol:VaultToken",
        "label": "_tokenName",
        "offset": 0,
        "slot": "7",
        "type": "t_string_storage"
      },
      {
        "astId": 16749,
        "contract": "contracts/v2/templates/token/VaultToken.sol:VaultToken",
        "label": "_tokenSymbol",
        "offset": 0,
        "slot": "8",
        "type": "t_string_storage"
      },
      {
        "astId": 16751,
        "contract": "contracts/v2/templates/token/VaultToken.sol:VaultToken",
        "label": "_tokenDecimals",
        "offset": 0,
        "slot": "9",
        "type": "t_uint8"
      },
      {
        "astId": 16753,
        "contract": "contracts/v2/templates/token/VaultToken.sol:VaultToken",
        "label": "_initialized",
        "offset": 1,
        "slot": "9",
        "type": "t_bool"
      }
    ],
    "types": {
      "t_address": {
        "encoding": "inplace",
        "label": "address",
        "numberOfBytes": "20"
      },
      "t_bool": {
        "encoding": "inplace",
        "label": "bool",
        "numberOfBytes": "1"
      },
      "t_mapping(t_address,t_mapping(t_address,t_uint256))": {
        "encoding": "mapping",
        "key": "t_address",
        "label": "mapping(address => mapping(address => uint256))",
        "numberOfBytes": "32",
        "value": "t_mapping(t_address,t_uint256)"
      },
      "t_mapping(t_address,t_uint256)": {
        "encoding": "mapping",
        "key": "t_address",
        "label": "mapping(address => uint256)",
        "numberOfBytes": "32",
        "value": "t_uint256"
      },
      "t_string_storage": {
        "encoding": "bytes",
        "label": "string",
        "numberOfBytes": "32"
      },
      "t_uint256": {
        "encoding": "inplace",
        "label": "uint256",
        "numberOfBytes": "32"
      },
      "t_uint8": {
        "encoding": "inplace",
        "label": "uint8",
        "numberOfBytes": "1"
      }
    }
  }
}