{
  "address": "0xB6782506F0ed02abd73b414e1e635f30fcf1E738",
  "abi": [
    {
      "anonymous": false,
      "inputs": [
        {
          "indexed": true,
          "internalType": "address",
          "name": "previousOwner",
          "type": "address"
        },
        {
          "indexed": true,
          "internalType": "address",
          "name": "newOwner",
          "type": "address"
        }
      ],
      "name": "OwnershipTransferred",
      "type": "event"
    },
    {
      "anonymous": false,
      "inputs": [
        {
          "indexed": true,
          "internalType": "uint256",
          "name": "templateId",
          "type": "uint256"
        },
        {
          "indexed": true,
          "internalType": "address",
          "name": "template",
          "type": "address"
        }
      ],
      "name": "TemplateAdded",
      "type": "event"
    },
    {
      "anonymous": false,
      "inputs": [
        {
          "indexed": true,
          "internalType": "uint256",
          "name": "templateId",
          "type": "uint256"
        },
        {
          "indexed": true,
          "internalType": "address",
          "name": "accumulatedYield",
          "type": "address"
        },
        {
          "indexed": true,
          "internalType": "address",
          "name": "vault",
          "type": "address"
        }
      ],
      "name": "YieldCreated",
      "type": "event"
    },
    {
      "inputs": [
        {
          "internalType": "uint256",
          "name": "templateId",
          "type": "uint256"
        },
        {
          "internalType": "address",
          "name": "template",
          "type": "address"
        }
      ],
      "name": "addTemplate",
      "outputs": [],
      "stateMutability": "nonpayable",
      "type": "function"
    },
    {
      "inputs": [
        {
          "internalType": "uint256",
          "name": "templateId",
          "type": "uint256"
        },
        {
          "internalType": "address",
          "name": "vault",
          "type": "address"
        },
        {
          "internalType": "address",
          "name": "vaultToken",
          "type": "address"
        },
        {
          "internalType": "bytes",
          "name": "initData",
          "type": "bytes"
        }
      ],
      "name": "createYield",
      "outputs": [
        {
          "internalType": "address",
          "name": "accumulatedYield",
          "type": "address"
        }
      ],
      "stateMutability": "nonpayable",
      "type": "function"
    },
    {
      "inputs": [
        {
          "internalType": "uint256",
          "name": "templateId",
          "type": "uint256"
        }
      ],
      "name": "getTemplate",
      "outputs": [
        {
          "internalType": "address",
          "name": "",
          "type": "address"
        }
      ],
      "stateMutability": "view",
      "type": "function"
    },
    {
      "inputs": [],
      "name": "getTemplateCount",
      "outputs": [
        {
          "internalType": "uint256",
          "name": "",
          "type": "uint256"
        }
      ],
      "stateMutability": "view",
      "type": "function"
    },
    {
      "inputs": [],
      "name": "owner",
      "outputs": [
        {
          "internalType": "address",
          "name": "",
          "type": "address"
        }
      ],
      "stateMutability": "view",
      "type": "function"
    },
    {
      "inputs": [],
      "name": "renounceOwnership",
      "outputs": [],
      "stateMutability": "nonpayable",
      "type": "function"
    },
    {
      "inputs": [],
      "name": "templateCount",
      "outputs": [
        {
          "internalType": "uint256",
          "name": "",
          "type": "uint256"
        }
      ],
      "stateMutability": "view",
      "type": "function"
    },
    {
      "inputs": [
        {
          "internalType": "uint256",
          "name": "",
          "type": "uint256"
        }
      ],
      "name": "templates",
      "outputs": [
        {
          "internalType": "address",
          "name": "",
          "type": "address"
        }
      ],
      "stateMutability": "view",
      "type": "function"
    },
    {
      "inputs": [
        {
          "internalType": "address",
          "name": "newOwner",
          "type": "address"
        }
      ],
      "name": "transferOwnership",
      "outputs": [],
      "stateMutability": "nonpayable",
      "type": "function"
    }
  ],
  "transactionHash": "0xc426c15957f188ac1bc497104c55f76e97caf9001c07594ca7097a90ca11c3f5",
  "args": [],
  "numDeployments": 1,
  "solcInputHash": "42d72c55161f263dde5fb479a35dbaf9",
  "bytecode": "0x60808060405234605a5760008054336001600160a01b0319821681178355916001600160a01b03909116907f8be0079c531659141344cd1fd0a4f28419497f9722a3daafe3b4186f6b6457e09080a361098a90816100608239f35b600080fdfe6080604052600436101561001257600080fd5b60003560e01c806326705c3c146100a257806331543cf41461008e5780635016959a1461009d578063715018a6146100985780638da5cb5b14610093578063bc5256521461008e578063cafdadde14610089578063d16ce86f146100845763f2fde38b1461007f57600080fd5b6103fe565b610353565b6101c4565b6100c4565b61016f565b610116565b6100f8565b346100bf5760003660031901126100bf5760025460805260206080f35b600080fd5b346100bf5760203660031901126100bf576004356000526001602052602060018060a01b0360406000205416604051908152f35b346100bf5760003660031901126100bf576020600254604051908152f35b346100bf5760003660031901126100bf5761012f610821565b600080546001600160a01b0319811682556001600160a01b03167f8be0079c531659141344cd1fd0a4f28419497f9722a3daafe3b4186f6b6457e08280a3005b346100bf5760003660031901126100bf576000546040516001600160a01b039091168152602090f35b602435906001600160a01b03821682036100bf57565b604435906001600160a01b03821682036100bf57565b346100bf5760403660031901126100bf576004356101e0610198565b906101e9610821565b6001600160a01b0382169182156102b55761026d9061023a61023461022861021b866000526001602052604060002090565b546001600160a01b031690565b6001600160a01b031690565b15610498565b61024e836000526001602052604060002090565b80546001600160a01b0319166001600160a01b03909216919091179055565b60025481101561029f575b7f015902ea38b371359d3cfcc702e9445d97bf18c32ee4f72ebe2361cf53e0088e600080a3005b6102b06102ab826104f2565b600255565b610278565b60405162461bcd60e51b815260206004820152601e60248201527f5969656c64466163746f72793a20696e76616c69642074656d706c61746500006044820152606490fd5b634e487b7160e01b600052604160045260246000fd5b90601f8019910116810190811067ffffffffffffffff82111761033257604052565b6102fa565b67ffffffffffffffff811161033257601f01601f191660200190565b346100bf5760803660031901126100bf5760043561036f610198565b906103786101ae565b906064359167ffffffffffffffff83116100bf57366023840112156100bf578260040135936103a685610337565b926103b46040519485610310565b85845236602487870101116100bf5760006020876103fa9860246103e09901838901378601015261068c565b6040516001600160a01b0390911681529081906020820190565b0390f35b346100bf5760203660031901126100bf576004356001600160a01b03811681036100bf5761042a610821565b6001600160a01b038116156104445761044290610879565b005b60405162461bcd60e51b815260206004820152602660248201527f4f776e61626c653a206e6577206f776e657220697320746865207a65726f206160448201526564647265737360d01b6064820152608490fd5b1561049f57565b60405162461bcd60e51b815260206004820152602560248201527f5969656c64466163746f72793a2074656d706c61746520616c72656164792065604482015264786973747360d81b6064820152608490fd5b906001820180921161050057565b634e487b7160e01b600052601160045260246000fd5b1561051d57565b606460405162461bcd60e51b815260206004820152602060248201527f5969656c64466163746f72793a2074656d706c617465206e6f7420666f756e646044820152fd5b60005b8381106105745750506000910152565b8181015183820152602001610564565b9060209161059d81518092818552858086019101610561565b601f01601f1916010190565b6001600160a01b039182168152911660208201526060604082018190526105d292910190610584565b90565b3d15610600573d906105e682610337565b916105f46040519384610310565b82523d6000602084013e565b606090565b6020818303126100bf5780519067ffffffffffffffff82116100bf570181601f820112156100bf57805161063881610337565b926106466040519485610310565b818452602082840101116100bf576105d29160208085019101610561565b9061067760209282815194859201610561565b0190565b9060206105d2928181520190610584565b919260009182916106f96106c96106b061021b886000526001602052604060002090565b6106c46001600160a01b0382161515610516565b6108c0565b966106eb6040519384926020840196630aedf8cf60e21b8852602485016105a9565b03601f198101835282610310565b519082865af16107076105d5565b9015610743575033906001600160a01b038316907fc7cf0f921e5c6314ed32730ef0319d666986f4be68576276607ed6e16ed7828a600080a490565b8051156107d0576106eb6107b46107698360248060046107cc9701518301019101610605565b6040519283916107ae602084016025907f5969656c64466163746f72793a20696e697469616c697a6174696f6e2066616981526403632b21d160dd1b60208201520190565b90610664565b60405162461bcd60e51b81529182916004830161067b565b0390fd5b60405162461bcd60e51b815260206004820152602360248201527f5969656c64466163746f72793a20696e697469616c697a6174696f6e206661696044820152621b195960ea1b6064820152608490fd5b6000546001600160a01b0316330361083557565b606460405162461bcd60e51b815260206004820152602060248201527f4f776e61626c653a2063616c6c6572206973206e6f7420746865206f776e65726044820152fd5b600080546001600160a01b039283166001600160a01b03198216811783559216907f8be0079c531659141344cd1fd0a4f28419497f9722a3daafe3b4186f6b6457e09080a3565b6e5af43d82803e903d91602b57fd5bf390763d602d80600a3d3981f3363d3d373d3d3d363d7300000062ffffff8260881c161760005260781b17602052603760096000f0906001600160a01b0382161561091657565b60405162461bcd60e51b8152602060048201526016602482015275115490cc4c4d8dce8818dc99585d194819985a5b195960521b6044820152606490fdfea264697066735822122052dcdd467fb914f4e078a47a80c99c8c507f5342e708059823c0b69ed8d67fdb64736f6c634300081a0033",
  "devdoc": {
    "kind": "dev",
    "methods": {
      "owner()": {
        "details": "Returns the address of the current owner."
      },
      "renounceOwnership()": {
        "details": "Leaves the contract without owner. It will not be possible to call `onlyOwner` functions. Can only be called by the current owner. NOTE: Renouncing ownership will leave the contract without an owner, thereby disabling any functionality that is only available to the owner."
      },
      "transferOwnership(address)": {
        "details": "Transfers ownership of the contract to a new account (`newOwner`). Can only be called by the current owner."
      }
    },
    "version": 1
  },
  "userdoc": {
    "kind": "user",
    "methods": {},
    "version": 1
  },
  "storageLayout": {
    "storage": [
      {
        "astId": 3547,
        "contract": "contracts/v2/factories/YieldFactory.sol:YieldFactory",
        "label": "_owner",
        "offset": 0,
        "slot": "0",
        "type": "t_address"
      },
      {
        "astId": 13327,
        "contract": "contracts/v2/factories/YieldFactory.sol:YieldFactory",
        "label": "templates",
        "offset": 0,
        "slot": "1",
        "type": "t_mapping(t_uint256,t_address)"
      },
      {
        "astId": 13329,
        "contract": "contracts/v2/factories/YieldFactory.sol:YieldFactory",
        "label": "templateCount",
        "offset": 0,
        "slot": "2",
        "type": "t_uint256"
      }
    ],
    "types": {
      "t_address": {
        "encoding": "inplace",
        "label": "address",
        "numberOfBytes": "20"
      },
      "t_mapping(t_uint256,t_address)": {
        "encoding": "mapping",
        "key": "t_uint256",
        "label": "mapping(uint256 => address)",
        "numberOfBytes": "32",
        "value": "t_address"
      },
      "t_uint256": {
        "encoding": "inplace",
        "label": "uint256",
        "numberOfBytes": "32"
      }
    }
  }
}