{
  "address": "0x482229e0B1E6A723E6E64dCe6bbc65Ea25365277",
  "abi": [
    {
      "inputs": [],
      "stateMutability": "nonpayable",
      "type": "constructor"
    },
    {
      "anonymous": false,
      "inputs": [
        {
          "indexed": true,
          "internalType": "address",
          "name": "operator",
          "type": "address"
        },
        {
          "indexed": true,
          "internalType": "address",
          "name": "receiver",
          "type": "address"
        },
        {
          "indexed": false,
          "internalType": "uint256",
          "name": "assetAmount",
          "type": "uint256"
        },
        {
          "indexed": false,
          "internalType": "uint256",
          "name": "manageFee",
          "type": "uint256"
        },
        {
          "indexed": false,
          "internalType": "uint256",
          "name": "shares",
          "type": "uint256"
        }
      ],
      "name": "Deposit",
      "type": "event"
    },
    {
      "anonymous": false,
      "inputs": [
        {
          "indexed": true,
          "internalType": "address",
          "name": "operator",
          "type": "address"
        },
        {
          "indexed": true,
          "internalType": "address",
          "name": "redeemReceiver",
          "type": "address"
        },
        {
          "indexed": false,
          "internalType": "uint256",
          "name": "shares",
          "type": "uint256"
        },
        {
          "indexed": false,
          "internalType": "uint256",
          "name": "assetAmount",
          "type": "uint256"
        },
        {
          "indexed": false,
          "internalType": "uint256",
          "name": "feeAmount",
          "type": "uint256"
        }
      ],
      "name": "FundFailedRedeem",
      "type": "event"
    },
    {
      "anonymous": false,
      "inputs": [
        {
          "indexed": true,
          "internalType": "address",
          "name": "operator",
          "type": "address"
        },
        {
          "indexed": true,
          "internalType": "address",
          "name": "receiver",
          "type": "address"
        },
        {
          "indexed": false,
          "internalType": "uint256",
          "name": "amount",
          "type": "uint256"
        }
      ],
      "name": "FundingAssetsWithdrawn",
      "type": "event"
    },
    {
      "anonymous": false,
      "inputs": [
        {
          "indexed": true,
          "internalType": "address",
          "name": "operator",
          "type": "address"
        },
        {
          "indexed": true,
          "internalType": "address",
          "name": "receiver",
          "type": "address"
        },
        {
          "indexed": false,
          "internalType": "uint256",
          "name": "amount",
          "type": "uint256"
        }
      ],
      "name": "ManageFeeWithdrawn",
      "type": "event"
    },
    {
      "anonymous": false,
      "inputs": [
        {
          "indexed": true,
          "internalType": "address",
          "name": "operator",
          "type": "address"
        },
        {
          "indexed": true,
          "internalType": "address",
          "name": "receiver",
          "type": "address"
        },
        {
          "indexed": false,
          "internalType": "uint256",
          "name": "shares",
          "type": "uint256"
        },
        {
          "indexed": false,
          "internalType": "uint256",
          "name": "assetAmount",
          "type": "uint256"
        }
      ],
      "name": "OffChainDeposit",
      "type": "event"
    },
    {
      "anonymous": false,
      "inputs": [
        {
          "indexed": true,
          "internalType": "address",
          "name": "operator",
          "type": "address"
        },
        {
          "indexed": true,
          "internalType": "address",
          "name": "redeemReceiver",
          "type": "address"
        },
        {
          "indexed": false,
          "internalType": "uint256",
          "name": "shares",
          "type": "uint256"
        },
        {
          "indexed": false,
          "internalType": "uint256",
          "name": "assetAmount",
          "type": "uint256"
        }
      ],
      "name": "OffChainRedeem",
      "type": "event"
    },
    {
      "anonymous": false,
      "inputs": [
        {
          "indexed": true,
          "internalType": "address",
          "name": "previousOwner",
          "type": "address"
        },
        {
          "indexed": true,
          "internalType": "address",
          "name": "newOwner",
          "type": "address"
        }
      ],
      "name": "OwnershipTransferred",
      "type": "event"
    },
    {
      "anonymous": false,
      "inputs": [],
      "name": "TokenUnpausedOnFundingSuccess",
      "type": "event"
    },
    {
      "inputs": [],
      "name": "BPS_DENOMINATOR",
      "outputs": [
        {
          "internalType": "uint256",
          "name": "",
          "type": "uint256"
        }
      ],
      "stateMutability": "view",
      "type": "function"
    },
    {
      "inputs": [],
      "name": "SHARE_PRICE_DENOMINATOR",
      "outputs": [
        {
          "internalType": "uint256",
          "name": "",
          "type": "uint256"
        }
      ],
      "stateMutability": "view",
      "type": "function"
    },
    {
      "inputs": [],
      "name": "assetToken",
      "outputs": [
        {
          "internalType": "address",
          "name": "",
          "type": "address"
        }
      ],
      "stateMutability": "view",
      "type": "function"
    },
    {
      "inputs": [
        {
          "internalType": "address",
          "name": "",
          "type": "address"
        }
      ],
      "name": "callerNonce",
      "outputs": [
        {
          "internalType": "uint256",
          "name": "",
          "type": "uint256"
        }
      ],
      "stateMutability": "view",
      "type": "function"
    },
    {
      "inputs": [],
      "name": "decimalsMultiplier",
      "outputs": [
        {
          "internalType": "uint256",
          "name": "",
          "type": "uint256"
        }
      ],
      "stateMutability": "view",
      "type": "function"
    },
    {
      "inputs": [
        {
          "internalType": "uint256",
          "name": "amount",
          "type": "uint256"
        },
        {
          "internalType": "address",
          "name": "receiver",
          "type": "address"
        },
        {
          "internalType": "bytes",
          "name": "signature",
          "type": "bytes"
        }
      ],
      "name": "deposit",
      "outputs": [],
      "stateMutability": "nonpayable",
      "type": "function"
    },
    {
      "inputs": [],
      "name": "endTime",
      "outputs": [
        {
          "internalType": "uint256",
          "name": "",
          "type": "uint256"
        }
      ],
      "stateMutability": "view",
      "type": "function"
    },
    {
      "inputs": [],
      "name": "fundingAssets",
      "outputs": [
        {
          "internalType": "uint256",
          "name": "",
          "type": "uint256"
        }
      ],
      "stateMutability": "view",
      "type": "function"
    },
    {
      "inputs": [],
      "name": "fundingReceiver",
      "outputs": [
        {
          "internalType": "address",
          "name": "",
          "type": "address"
        }
      ],
      "stateMutability": "view",
      "type": "function"
    },
    {
      "inputs": [
        {
          "internalType": "address",
          "name": "caller",
          "type": "address"
        }
      ],
      "name": "getCallerNonce",
      "outputs": [
        {
          "internalType": "uint256",
          "name": "",
          "type": "uint256"
        }
      ],
      "stateMutability": "view",
      "type": "function"
    },
    {
      "inputs": [
        {
          "internalType": "uint256",
          "name": "amount",
          "type": "uint256"
        },
        {
          "internalType": "address",
          "name": "receiver",
          "type": "address"
        },
        {
          "internalType": "uint256",
          "name": "nonce",
          "type": "uint256"
        }
      ],
      "name": "getDepositSignatureMessage",
      "outputs": [
        {
          "internalType": "bytes32",
          "name": "",
          "type": "bytes32"
        }
      ],
      "stateMutability": "view",
      "type": "function"
    },
    {
      "inputs": [
        {
          "internalType": "uint256",
          "name": "amount",
          "type": "uint256"
        },
        {
          "internalType": "address",
          "name": "receiver",
          "type": "address"
        },
        {
          "internalType": "uint256",
          "name": "nonce",
          "type": "uint256"
        }
      ],
      "name": "getRedeemSignatureMessage",
      "outputs": [
        {
          "internalType": "bytes32",
          "name": "",
          "type": "bytes32"
        }
      ],
      "stateMutability": "view",
      "type": "function"
    },
    {
      "inputs": [],
      "name": "getRemainingSupply",
      "outputs": [
        {
          "internalType": "uint256",
          "name": "",
          "type": "uint256"
        }
      ],
      "stateMutability": "view",
      "type": "function"
    },
    {
      "inputs": [],
      "name": "getTotalRaised",
      "outputs": [
        {
          "internalType": "uint256",
          "name": "",
          "type": "uint256"
        }
      ],
      "stateMutability": "view",
      "type": "function"
    },
    {
      "inputs": [
        {
          "internalType": "address",
          "name": "_vault",
          "type": "address"
        },
        {
          "internalType": "address",
          "name": "_token",
          "type": "address"
        },
        {
          "internalType": "bytes",
          "name": "_initData",
          "type": "bytes"
        }
      ],
      "name": "initiate",
      "outputs": [],
      "stateMutability": "nonpayable",
      "type": "function"
    },
    {
      "inputs": [],
      "name": "isFundingPeriodActive",
      "outputs": [
        {
          "internalType": "bool",
          "name": "",
          "type": "bool"
        }
      ],
      "stateMutability": "view",
      "type": "function"
    },
    {
      "inputs": [],
      "name": "isFundingSuccessful",
      "outputs": [
        {
          "internalType": "bool",
          "name": "",
          "type": "bool"
        }
      ],
      "stateMutability": "view",
      "type": "function"
    },
    {
      "inputs": [],
      "name": "isInitialized",
      "outputs": [
        {
          "internalType": "bool",
          "name": "",
          "type": "bool"
        }
      ],
      "stateMutability": "view",
      "type": "function"
    },
    {
      "inputs": [],
      "name": "manageFee",
      "outputs": [
        {
          "internalType": "uint256",
          "name": "",
          "type": "uint256"
        }
      ],
      "stateMutability": "view",
      "type": "function"
    },
    {
      "inputs": [],
      "name": "manageFeeBps",
      "outputs": [
        {
          "internalType": "uint256",
          "name": "",
          "type": "uint256"
        }
      ],
      "stateMutability": "view",
      "type": "function"
    },
    {
      "inputs": [],
      "name": "manageFeeReceiver",
      "outputs": [
        {
          "internalType": "address",
          "name": "",
          "type": "address"
        }
      ],
      "stateMutability": "view",
      "type": "function"
    },
    {
      "inputs": [],
      "name": "manager",
      "outputs": [
        {
          "internalType": "address",
          "name": "",
          "type": "address"
        }
      ],
      "stateMutability": "view",
      "type": "function"
    },
    {
      "inputs": [],
      "name": "maxSupply",
      "outputs": [
        {
          "internalType": "uint256",
          "name": "",
          "type": "uint256"
        }
      ],
      "stateMutability": "view",
      "type": "function"
    },
    {
      "inputs": [],
      "name": "minDepositAmount",
      "outputs": [
        {
          "internalType": "uint256",
          "name": "",
          "type": "uint256"
        }
      ],
      "stateMutability": "view",
      "type": "function"
    },
    {
      "inputs": [
        {
          "internalType": "uint256",
          "name": "amount",
          "type": "uint256"
        },
        {
          "internalType": "address",
          "name": "receiver",
          "type": "address"
        }
      ],
      "name": "offChainDeposit",
      "outputs": [],
      "stateMutability": "nonpayable",
      "type": "function"
    },
    {
      "inputs": [
        {
          "internalType": "address",
          "name": "receiver",
          "type": "address"
        }
      ],
      "name": "offChainRedeem",
      "outputs": [],
      "stateMutability": "nonpayable",
      "type": "function"
    },
    {
      "inputs": [],
      "name": "owner",
      "outputs": [
        {
          "internalType": "address",
          "name": "",
          "type": "address"
        }
      ],
      "stateMutability": "view",
      "type": "function"
    },
    {
      "inputs": [
        {
          "internalType": "uint256",
          "name": "amount",
          "type": "uint256"
        },
        {
          "internalType": "address",
          "name": "receiver",
          "type": "address"
        },
        {
          "internalType": "bytes",
          "name": "signature",
          "type": "bytes"
        }
      ],
      "name": "redeem",
      "outputs": [],
      "stateMutability": "nonpayable",
      "type": "function"
    },
    {
      "inputs": [],
      "name": "renounceOwnership",
      "outputs": [],
      "stateMutability": "nonpayable",
      "type": "function"
    },
    {
      "inputs": [],
      "name": "sharePrice",
      "outputs": [
        {
          "internalType": "uint256",
          "name": "",
          "type": "uint256"
        }
      ],
      "stateMutability": "view",
      "type": "function"
    },
    {
      "inputs": [],
      "name": "softCap",
      "outputs": [
        {
          "internalType": "uint256",
          "name": "",
          "type": "uint256"
        }
      ],
      "stateMutability": "view",
      "type": "function"
    },
    {
      "inputs": [],
      "name": "startTime",
      "outputs": [
        {
          "internalType": "uint256",
          "name": "",
          "type": "uint256"
        }
      ],
      "stateMutability": "view",
      "type": "function"
    },
    {
      "inputs": [
        {
          "internalType": "address",
          "name": "newOwner",
          "type": "address"
        }
      ],
      "name": "transferOwnership",
      "outputs": [],
      "stateMutability": "nonpayable",
      "type": "function"
    },
    {
      "inputs": [],
      "name": "unpauseTokenOnFundingSuccess",
      "outputs": [],
      "stateMutability": "nonpayable",
      "type": "function"
    },
    {
      "inputs": [],
      "name": "vault",
      "outputs": [
        {
          "internalType": "address",
          "name": "",
          "type": "address"
        }
      ],
      "stateMutability": "view",
      "type": "function"
    },
    {
      "inputs": [],
      "name": "withdrawFundingAssets",
      "outputs": [],
      "stateMutability": "nonpayable",
      "type": "function"
    },
    {
      "inputs": [],
      "name": "withdrawManageFee",
      "outputs": [],
      "stateMutability": "nonpayable",
      "type": "function"
    }
  ],
  "transactionHash": "0xb3b00561ef57eca92283b5f4e12b7c1d3cd496c4585751594929aa72a47c9f8a",
  "args": [],
  "numDeployments": 1,
  "solcInputHash": "91f7740687f0dd8f067fde9f0b941740",
  "bytecode": "0x60808060405234605d57600160008181558154336001600160a01b0319821681179093556001600160a01b0316907f8be0079c531659141344cd1fd0a4f28419497f9722a3daafe3b4186f6b6457e09080a361297d90816100638239f35b600080fdfe608080604052600436101561001357600080fd5b600090813560e01c9081631083f76114611ce75750806321bb725a14611c87578063244e126c14611c385780632bb7e33c146116165780632c365cda146115f85780633197cbb6146115da57806337b5213f14611529578063392e53cd1461150657806344f45127146112f6578063481c6a75146112cd5780634bbdf4da146112af578063579e2b6214610eea5780635a05ddb51461116b5780635a3cb0f61461102f578063645006ca14611011578063715018a614610fb457806378e9792514610f965780637cc8a75314610f6d5780638726972914610f4f5780638840074b14610c1e5780638da5cb5b14610f26578063906a26e014610f085780639f55029314610eea578063aac6be7914610ec1578063b4b5020714610ea2578063bb13245f14610e84578063c01df21114610c57578063c2068e1c14610c1e578063d5abeb0114610c00578063d827a54114610b94578063d855ef78146107f7578063e1a45218146107da578063e4b7fb73146106d3578063f2fde38b14610642578063f8a3c8f21461061d578063faa9bce9146101e35763fbfa77cf146101b857600080fd5b346101e057806003193601126101e0576002546040516001600160a01b039091168152602090f35b80fd5b50346101e0576101f236611e19565b61020060ff60125416611e73565b60035442101580610611575b6102159061207e565b6102266102206122d9565b156120c9565b61022e612440565b61023c600954841015612123565b6001600160a01b03821692610252841515612013565b338552601160205261034161032b6103236040882094855495610274876121fc565b90556040519561028387611d62565b886102f16040988951906102978b83611d94565b600782526619195c1bdcda5d60ca1b6020830152818152896020820152838b82015284606082015246608082015260a0309101526102e38a51938492602084019630928d46938a61222e565b03601f198101835282611d94565b5190207f19457468657265756d205369676e6564204d6573736167653a0a3332000000008a52601c52603c89206126c2565b9190916126fa565b600e546001600160a01b03918216911614612280565b600a549261036461035f61271061035887866123d5565b048461217b565b612575565b600254845163703bafd560e01b81529193918891602090829060049082906001600160a01b03165afa9081156105da5760049160209184916105e4575b5087516318160ddd60e01b815292839182906001600160a01b03165afa9081156105da57829161059e575b506103d99060065461217b565b938481111561058c575050506103ee82612421565b6127108102908082046127101490151715610578578461271003906127108211610564576104386104238993612710936123e8565b9661043260095489101561219e565b876123d5565b0491610446836010546122cc565b60105561045e610456848861217b565b600f546122cc565b600f5560055485516323b872dd60e01b6020820152336024820152306044820152606480820189905281526104a6916001600160a01b03166104a1608483611d94565b6125a6565b6002546001600160a01b0316803b15610560578551630f38ca0d60e31b81526001600160a01b039290921660048301526024820185905282908290604490829084905af180156105565761053d575b505091519283526020830191909152604082015233907f4e2ca0515ed1aef1395f66b5303bb5d6f1bf9d61a353fa53f73f8ac9973fa9f69080606081015b0390a36001815580f35b8161054791611d94565b6105525785386104f5565b8580fd5b85513d84823e3d90fd5b8280fd5b634e487b7160e01b88526011600452602488fd5b634e487b7160e01b87526011600452602487fd5b61271091929450610438909496610432565b9150506020813d6020116105d2575b816105ba60209383611d94565b810103126105cd575187906103d96103cc565b600080fd5b3d91506105ad565b86513d84823e3d90fd5b6106049150823d841161060a575b6105fc8183611d94565b81019061205f565b386103a1565b503d6105f2565b5060045442111561020c565b50346101e057806003193601126101e05760206106386122d9565b6040519015158152f35b50346101e05760203660031901126101e05761065c611d0c565b6106646124d4565b6001600160a01b0381161561067f5761067c9061252c565b80f35b60405162461bcd60e51b815260206004820152602660248201527f4f776e61626c653a206e6577206f776e657220697320746865207a65726f206160448201526564647265737360d01b6064820152608490fd5b50346101e057806003193601126101e05760025460405163703bafd560e01b815290602090829060049082906001600160a01b03165afa9081156107cf578291602091600494916107b2575b506040516318160ddd60e01b815293849182906001600160a01b03165afa80156107a5578190610772575b600654602093508181111561076b57610763925061217b565b604051908152f35b5050610763565b506020823d60201161079d575b8161078c60209383611d94565b810103126105cd576020915161074a565b3d915061077f565b50604051903d90823e3d90fd5b6107c99150823d841161060a576105fc8183611d94565b3861071f565b6040513d84823e3d90fd5b50346101e057806003193601126101e05760206040516127108152f35b50346101e05761080636611e19565b61081760ff60129493945416611e73565b6108246004544211611f65565b61083561082f6122d9565b15611fbd565b61083d612440565b6001600160a01b03831692610853841515612013565b8215610b3e5760025460405163703bafd560e01b815290602090829060049082906001600160a01b03165afa908115610b16576024916020918891610b21575b506040516370a0823160e01b815233600482015292839182906001600160a01b03165afa8015610b165784918791610ae1575b5010610a8b57338552601160205261095b61032b61032360408820948554956108ee876121fc565b9055876040516108fd81611d62565b6102f16040988951926109108b85611d94565b600684526572656465656d60d01b60208501528381528b6020820152848b82015281606082015246608082015260a0309101526102e38b8b519485936020850197309346938a61222e565b61096483612421565b61096d84612421565b61097a600a5480926123d5565b90612710039061271082116105645790610993916123e8565b9161099e83836122cc565b60025490919088906001600160a01b0316803b15610a87578651633477cc1b60e21b8152336004820152602481018990529082908290604490829084905af18015610a7d57610a60575b505093610a43610533927fb2baee7ba5c4dca5d2f8b224500d642e3ff29cc77a25038d2ef2beba9a93512a96610a2086600f5461217b565b600f55610a2f8760105461217b565b6010556005546001600160a01b0316612496565b519283923396846040919493926060820195825260208201520152565b81610a6d91979397611d94565b610a79579387386109e8565b8780fd5b87513d84823e3d90fd5b5080fd5b60405162461bcd60e51b815260206004820152602860248201527f43726f776473616c653a20696e73756666696369656e742073686172657320746044820152676f2072656465656d60c01b6064820152608490fd5b9150506020813d602011610b0e575b81610afd60209383611d94565b810103126105cd57839051386108c6565b3d9150610af0565b6040513d88823e3d90fd5b610b389150823d841161060a576105fc8183611d94565b38610893565b60405162461bcd60e51b815260206004820152602860248201527f43726f776473616c653a20616d6f756e74206d75737420626520677265617465604482015267072207468616e20360c41b6064820152608490fd5b50346101e0576020610ba536611d38565b60405191848301936619195c1bdcda5d60ca1b855260278401526001600160601b03199060601b166047830152605b82015246607b8201523060601b609b820152608f8152610bf560af82611d94565b519020604051908152f35b50346101e057806003193601126101e0576020600654604051908152f35b50346101e05760203660031901126101e0576020906040906001600160a01b03610c46611d0c565b168152601183522054604051908152f35b50346101e05760403660031901126101e057600435610c74611d22565b90610c8360ff60125416611e73565b610c9860018060a01b03600e54163314611ebf565b60035442101580610e78575b610cad9061207e565b610cb86102206122d9565b600954610cc781831015612123565b6001600160a01b038316928490610cdf851515612013565b610ce884612575565b60025460405163703bafd560e01b815291956001600160a01b0390911691602081600481865afa908115610e50576004916020918791610e5b575b506040516318160ddd60e01b815292839182906001600160a01b03165afa908115610e50578591610e18575b50610d5c9060065461217b565b9586811115610e0f575050610d7c610d7386612421565b9485101561219e565b803b1561056057604051630f38ca0d60e31b81526001600160a01b039290921660048301526024820185905282908290604490829084905af180156107cf57610df6575b505060405191825260208201527fcb08c388b544b22822fb047422597a8e196b56d8365ba02efcaa84b41ae9803660403392a380f35b81610e0091611d94565b610e0b578338610dc0565b8380fd5b95509350610d7c565b9450506020843d602011610e48575b81610e3460209383611d94565b810103126105cd57610d5c88945190610d4f565b3d9150610e27565b6040513d87823e3d90fd5b610e729150823d841161060a576105fc8183611d94565b38610d23565b50600454421115610ca4565b50346101e057806003193601126101e0576020600d54604051908152f35b50346101e057806003193601126101e05760206040516305f5e1008152f35b50346101e057806003193601126101e057600c546040516001600160a01b039091168152602090f35b50346101e057806003193601126101e0576020600f54604051908152f35b50346101e057806003193601126101e0576020600754604051908152f35b50346101e057806003193601126101e0576001546040516001600160a01b039091168152602090f35b50346101e057806003193601126101e0576020600854604051908152f35b50346101e057806003193601126101e057600b546040516001600160a01b039091168152602090f35b50346101e057806003193601126101e0576020600354604051908152f35b50346101e057806003193601126101e057610fcd6124d4565b600180546001600160a01b0319811690915581906001600160a01b03167f8be0079c531659141344cd1fd0a4f28419497f9722a3daafe3b4186f6b6457e08280a380f35b50346101e057806003193601126101e0576020600954604051908152f35b50346101e057806003193601126101e05761104e60ff60125416611e73565b61105e6110596122d9565b611f0b565b611066612440565b600b546001600160a01b03163381900361112757600f549081156110e257600f8390556005546110a09183916001600160a01b0316612496565b600b546040519182526001600160a01b03169033907f4fea16621a5e74d906d980762a4481b57f98e1035eddf0313075e6942a4976b090602090a36001815580f35b60405162461bcd60e51b815260206004820152601c60248201527f43726f776473616c653a206e6f2066756e64696e6720617373657473000000006044820152606490fd5b606460405162461bcd60e51b815260206004820152602060248201527f43726f776473616c653a206f6e6c792066756e64696e672072656365697665726044820152fd5b50346101e057806003193601126101e05761118a60ff60125416611e73565b6111956110596122d9565b61119d612440565b600c546001600160a01b03163381900361125e576010549081156112195760108390556005546111d79183916001600160a01b0316612496565b600c546040519182526001600160a01b03169033907f57e7440b88a00f81b2505eff9d5a54fc7d208e84016a9ab7e2e30821003e50c690602090a36001815580f35b60405162461bcd60e51b815260206004820152601860248201527f43726f776473616c653a206e6f206d616e6167652066656500000000000000006044820152606490fd5b60405162461bcd60e51b815260206004820152602360248201527f43726f776473616c653a206f6e6c79206d616e616765206665652072656365696044820152623b32b960e91b6064820152608490fd5b50346101e057806003193601126101e0576020601054604051908152f35b50346101e057806003193601126101e057600e546040516001600160a01b039091168152602090f35b50346101e05760203660031901126101e057611310611d0c565b61131e60ff60125416611e73565b61133360018060a01b03600e54163314611ebf565b6113406004544211611f65565b61134b61082f6122d9565b6001600160a01b03811690611361821515612013565b60025460405163703bafd560e01b8152916001600160a01b0390911690602083600481855afa928315610e505760249360209187916114e9575b506040516370a0823160e01b81526004810187905294859182906001600160a01b03165afa928315610e505785936114b5575b5082156114705784906113e084612421565b92803b1561056057604051633477cc1b60e21b81526001600160a01b039290921660048301526024820185905282908290604490829084905af180156107cf5761145b575b505060405191825260208201527fba0ea16a6a60555dafc6b515242f3fcd28f079d3b5d596e19f71e583006fd9eb60403392a380f35b8161146591611d94565b610e0b578338611425565b60405162461bcd60e51b815260206004820152601e60248201527f43726f776473616c653a206e6f2073686172657320746f2072656465656d00006044820152606490fd5b9092506020813d6020116114e1575b816114d160209383611d94565b810103126105cd575191386113ce565b3d91506114c4565b6115009150823d841161060a576105fc8183611d94565b3861139b565b50346101e057806003193601126101e057602060ff601254166040519015158152f35b50346101e057806003193601126101e05761154860ff60125416611e73565b61155d60018060a01b03600e54163314611ebf565b6115686110596122d9565b60025481906001600160a01b0316803b156115d7578180916004604051809581936350669a0360e01b83525af180156107a5576115c7575b7fba9a1b2ede938b9820087753e1645dd4b6542ac61fa6b06a3df09cd9dee694548180a180f35b6115d091611d94565b38816115a0565b50fd5b50346101e057806003193601126101e0576020600454604051908152f35b50346101e057806003193601126101e0576020600a54604051908152f35b50346101e05760603660031901126101e057611630611d0c565b611638611d22565b9060443567ffffffffffffffff8111610e0b57611659903690600401611dd2565b61016081805181010312610e0b57602081015190604081015161167e60608301611e5f565b9460808301519560a08401519360c081015160e0820151610100830151916116a96101208501611e5f565b976116c46101606116bd6101408801611e5f565b9601611e5f565b6012546001600160a01b039182169d909c9782169a96821697969091169560ff8d16611bf3576001600160a01b0316988915611bae57808c1015611b695742811115611b24578a15611adf578115611a9a57818311611a55578315611a105784156119cb5761271086116119865786156119355787156118f0578d156118ab5760049b60209a6001600160601b0360a01b60025416176002556003558b55896001600160601b0360a01b6005541617600555600655600755600855600955600a556001600160601b0360a01b600b541617600b556001600160601b0360a01b600c541617600c556040519384809263313ce56760e01b825260018060a01b03165afa918215610e50578592611886575b5060206004916040519283809263313ce56760e01b82525afa908115610e505760ff9182918791611857575b501691160360ff81116118435760ff16604d811161184357600a0a600d55600e80546001600160a01b0319168317905560ff191660011760125561067c9061252c565b634e487b7160e01b84526011600452602484fd5b611879915060203d60201161187f575b6118718183611d94565b810190612408565b38611800565b503d611867565b60049192506118a3602091823d841161187f576118718183611d94565b9291506117d4565b60405162461bcd60e51b815260206004820152601a60248201527f43726f776473616c653a20696e76616c6964206d616e616765720000000000006044820152606490fd5b60405162461bcd60e51b815260206004820152601f60248201527f43726f776473616c653a20696e76616c696420666565207265636569766572006044820152606490fd5b60405162461bcd60e51b815260206004820152602360248201527f43726f776473616c653a20696e76616c69642066756e64696e672072656365696044820152623b32b960e91b6064820152608490fd5b60405162461bcd60e51b815260206004820152601d60248201527f43726f776473616c653a20696e76616c6964206d616e616765206665650000006044820152606490fd5b60405162461bcd60e51b815260206004820152601e60248201527f43726f776473616c653a20696e76616c6964206d696e206465706f73697400006044820152606490fd5b60405162461bcd60e51b815260206004820152601e60248201527f43726f776473616c653a20696e76616c696420736861726520707269636500006044820152606490fd5b60405162461bcd60e51b815260206004820152601b60248201527f43726f776473616c653a20696e76616c696420736f66742063617000000000006044820152606490fd5b60405162461bcd60e51b815260206004820152601d60248201527f43726f776473616c653a20696e76616c6964206d617820737570706c790000006044820152606490fd5b60405162461bcd60e51b815260206004820152601e60248201527f43726f776473616c653a20696e76616c696420617373657420746f6b656e00006044820152606490fd5b60405162461bcd60e51b815260206004820152601b60248201527f43726f776473616c653a20656e642074696d6520696e207061737400000000006044820152606490fd5b60405162461bcd60e51b815260206004820152601d60248201527f43726f776473616c653a20696e76616c69642074696d652072616e67650000006044820152606490fd5b60405162461bcd60e51b815260206004820152601860248201527f43726f776473616c653a20696e76616c6964207661756c7400000000000000006044820152606490fd5b60405162461bcd60e51b815260206004820152601e60248201527f43726f776473616c653a20616c726561647920696e697469616c697a656400006044820152606490fd5b50346101e057806003193601126101e05760035442101580611c7b575b80611c68575b6020906040519015158152f35b506020611c736122d9565b159050611c5b565b50600454421115611c55565b50346101e0576020611c9836611d38565b60405191848301936572656465656d60d01b855260268401526001600160601b03199060601b166046830152605a82015246607a8201523060601b609a820152608e8152610bf560ae82611d94565b905034610a875781600319360112610a87576005546001600160a01b03168152602090f35b600435906001600160a01b03821682036105cd57565b602435906001600160a01b03821682036105cd57565b60609060031901126105cd57600435906024356001600160a01b03811681036105cd579060443590565b60c0810190811067ffffffffffffffff821117611d7e57604052565b634e487b7160e01b600052604160045260246000fd5b90601f8019910116810190811067ffffffffffffffff821117611d7e57604052565b67ffffffffffffffff8111611d7e57601f01601f191660200190565b81601f820112156105cd57803590611de982611db6565b92611df76040519485611d94565b828452602083830101116105cd57816000926020809301838601378301015290565b60606003198201126105cd57600435916024356001600160a01b03811681036105cd57916044359067ffffffffffffffff82116105cd57611e5c91600401611dd2565b90565b51906001600160a01b03821682036105cd57565b15611e7a57565b60405162461bcd60e51b815260206004820152601a60248201527f43726f776473616c653a206e6f7420696e697469616c697a65640000000000006044820152606490fd5b15611ec657565b60405162461bcd60e51b815260206004820152601760248201527f43726f776473616c653a206f6e6c79206d616e616765720000000000000000006044820152606490fd5b15611f1257565b60405162461bcd60e51b815260206004820152602560248201527f43726f776473616c653a2066756e64696e6720776173206e6f742073756363656044820152641cdcd99d5b60da1b6064820152608490fd5b15611f6c57565b60405162461bcd60e51b815260206004820152602360248201527f43726f776473616c653a2066756e64696e6720706572696f64206e6f7420656e60448201526219195960ea1b6064820152608490fd5b15611fc457565b60405162461bcd60e51b815260206004820152602160248201527f43726f776473616c653a2066756e64696e6720776173207375636365737366756044820152601b60fa1b6064820152608490fd5b1561201a57565b60405162461bcd60e51b815260206004820152601b60248201527f43726f776473616c653a20696e76616c696420726563656976657200000000006044820152606490fd5b908160209103126105cd57516001600160a01b03811681036105cd5790565b1561208557565b606460405162461bcd60e51b815260206004820152602060248201527f43726f776473616c653a206e6f7420696e2066756e64696e6720706572696f646044820152fd5b156120d057565b60405162461bcd60e51b815260206004820152602560248201527f43726f776473616c653a2066756e64696e6720616c72656164792073756363656044820152641cdcd99d5b60da1b6064820152608490fd5b1561212a57565b60405162461bcd60e51b815260206004820152602360248201527f43726f776473616c653a20616d6f756e74206c657373207468616e206d696e696044820152626d756d60e81b6064820152608490fd5b9190820391821161218857565b634e487b7160e01b600052601160045260246000fd5b156121a557565b60405162461bcd60e51b815260206004820152602960248201527f43726f776473616c653a2072656d61696e696e6720616d6f756e742062656c6f60448201526877206d696e696d756d60b81b6064820152608490fd5b60001981146121885760010190565b60005b83811061221e5750506000910152565b818101518382015260200161220e565b60209061224860889896949795938281519485920161220b565b019485526001600160601b03199060601b166020850152603484015260548301526001600160601b03199060601b1660748201520190565b1561228757565b60405162461bcd60e51b815260206004820152601c60248201527f43726f776473616c653a20696e76616c6964207369676e6174757265000000006044820152606490fd5b9190820180921161218857565b60025460405163703bafd560e01b815290602090829060049082906001600160a01b03165afa9081156123ac576004916020916000916123b8575b506040516318160ddd60e01b815292839182906001600160a01b03165afa9081156123ac5760009161237a575b506006548110156123745760045442119081612367575b5061236257600090565b600190565b9050600754111538612358565b50600190565b906020823d6020116123a4575b8161239460209383611d94565b810103126101e057505138612341565b3d9150612387565b6040513d6000823e3d90fd5b6123cf9150823d841161060a576105fc8183611d94565b38612314565b8181029291811591840414171561218857565b81156123f2570490565b634e487b7160e01b600052601260045260246000fd5b908160209103126105cd575160ff811681036105cd5790565b6305f5e100612436611e5c92600854906123d5565b04600d54906123e8565b600260005414612451576002600055565b60405162461bcd60e51b815260206004820152601f60248201527f5265656e7472616e637947756172643a207265656e7472616e742063616c6c006044820152606490fd5b60405163a9059cbb60e01b60208201526001600160a01b039290921660248301526044808301939093529181526124d2916104a1606483611d94565b565b6001546001600160a01b031633036124e857565b606460405162461bcd60e51b815260206004820152602060248201527f4f776e61626c653a2063616c6c6572206973206e6f7420746865206f776e65726044820152fd5b600180546001600160a01b039283166001600160a01b0319821681179092559091167f8be0079c531659141344cd1fd0a4f28419497f9722a3daafe3b4186f6b6457e0600080a3565b600d54612581916123d5565b6305f5e1008102908082046305f5e100149015171561218857600854611e5c916123e8565b60408051909261262a926001600160a01b03169060009081906125c98786611d94565b602085527f5361666545524332303a206c6f772d6c6576656c2063616c6c206661696c6564602086015260208151910182855af13d156126ba573d9161260e83611db6565b9261261b87519485611d94565b83523d6000602085013e612894565b8051908115918215612697575b5050156126415750565b5162461bcd60e51b815260206004820152602a60248201527f5361666545524332303a204552433230206f7065726174696f6e20646964206e6044820152691bdd081cdd58d8d9595960b21b6064820152608490fd5b81925090602091810103126105cd576020015180151581036105cd573880612637565b606091612894565b9060418151146000146126f0576126ec916020820151906060604084015193015160001a90612814565b9091565b5050600090600290565b60058110156127fe578061270b5750565b600181036127585760405162461bcd60e51b815260206004820152601860248201527f45434453413a20696e76616c6964207369676e617475726500000000000000006044820152606490fd5b600281036127a55760405162461bcd60e51b815260206004820152601f60248201527f45434453413a20696e76616c6964207369676e6174757265206c656e677468006044820152606490fd5b6003146127ae57565b60405162461bcd60e51b815260206004820152602260248201527f45434453413a20696e76616c6964207369676e6174757265202773272076616c604482015261756560f01b6064820152608490fd5b634e487b7160e01b600052602160045260246000fd5b7f7fffffffffffffffffffffffffffffff5d576e7357a4501ddfe92f46681b20a084116128885760209360009360ff60809460405194855216868401526040830152606082015282805260015afa156123ac576000516001600160a01b0381161561287f5790600090565b50600090600190565b50505050600090600390565b919290156128f657508151156128a8575090565b3b156128b15790565b60405162461bcd60e51b815260206004820152601d60248201527f416464726573733a2063616c6c20746f206e6f6e2d636f6e74726163740000006044820152606490fd5b8251909150156129095750805190602001fd5b6044604051809262461bcd60e51b825260206004830152612939815180928160248601526020868601910161220b565b601f01601f19168101030190fdfea26469706673582212206a8b9cef94b08aa1373443dae3d1eb55ba9b4d8fcf7d4271e7aec89228727dea64736f6c634300081a0033",
  "devdoc": {
    "details": "Crowdsale template implementation, providing fair fundraising functionality",
    "kind": "dev",
    "methods": {
      "deposit(uint256,address,bytes)": {
        "details": "Deposit to purchase shares (user initiated, requires manager signature)",
        "params": {
          "amount": "Deposit amount",
          "receiver": "Receiver address",
          "signature": "Manager signature"
        }
      },
      "getCallerNonce(address)": {
        "details": "Query caller nonce for signature verification",
        "params": {
          "caller": "Caller address"
        },
        "returns": {
          "_0": "Current caller nonce"
        }
      },
      "getDepositSignatureMessage(uint256,address,uint256)": {
        "details": "Generate deposit signature message hash for backend signing",
        "params": {
          "amount": "Deposit amount",
          "nonce": "Manager nonce",
          "receiver": "Receiver address"
        },
        "returns": {
          "_0": "Message hash to be signed"
        }
      },
      "getRedeemSignatureMessage(uint256,address,uint256)": {
        "details": "Generate redeem signature message hash for backend signing",
        "params": {
          "amount": "Number of shares to redeem",
          "nonce": "Manager nonce",
          "receiver": "Receiver address"
        },
        "returns": {
          "_0": "Message hash to be signed"
        }
      },
      "getRemainingSupply()": {
        "details": "Get remaining supply",
        "returns": {
          "_0": "Remaining supply"
        }
      },
      "getTotalRaised()": {
        "details": "Get total amount raised",
        "returns": {
          "_0": "Total amount raised"
        }
      },
      "initiate(address,address,bytes)": {
        "details": "Unified initialization interface",
        "params": {
          "_initData": "Encoded initialization data",
          "_token": "Token address",
          "_vault": "Vault address"
        }
      },
      "isFundingPeriodActive()": {
        "details": "Check if funding period is active",
        "returns": {
          "_0": "Whether funding period is active"
        }
      },
      "isFundingSuccessful()": {
        "details": "Check if funding is successful",
        "returns": {
          "_0": "Whether funding is successful Success conditions: 1. MaxSupply reached (immediate success) 2. Time ended AND softCap reached"
        }
      },
      "isInitialized()": {
        "details": "Query if initialized"
      },
      "offChainDeposit(uint256,address)": {
        "details": "Off-chain deposit (only manager can call)",
        "params": {
          "amount": "Deposit amount",
          "receiver": "Receiver address"
        }
      },
      "offChainRedeem(address)": {
        "details": "Off-chain redeem all shares (only manager can call)",
        "params": {
          "receiver": "Receiver address"
        }
      },
      "owner()": {
        "details": "Returns the address of the current owner."
      },
      "redeem(uint256,address,bytes)": {
        "details": "Redeem specified amount of shares (user initiated, requires manager signature)",
        "params": {
          "amount": "Amount of shares to redeem",
          "receiver": "Receiver address",
          "signature": "Manager signature"
        }
      },
      "renounceOwnership()": {
        "details": "Leaves the contract without owner. It will not be possible to call `onlyOwner` functions. Can only be called by the current owner. NOTE: Renouncing ownership will leave the contract without an owner, thereby disabling any functionality that is only available to the owner."
      },
      "transferOwnership(address)": {
        "details": "Transfers ownership of the contract to a new account (`newOwner`). Can only be called by the current owner."
      },
      "unpauseTokenOnFundingSuccess()": {
        "details": "Unpause token trading when funding is successful This function should be called after funding period ends and funding is successful"
      },
      "withdrawFundingAssets()": {
        "details": "Withdraw funding assets (only when funding is successful)"
      },
      "withdrawManageFee()": {
        "details": "Withdraw management fee (only when funding is successful)"
      }
    },
    "title": "Crowdsale",
    "version": 1
  },
  "userdoc": {
    "kind": "user",
    "methods": {},
    "notice": "Supports on-chain and off-chain deposits, refundable if funding fails",
    "version": 1
  },
  "storageLayout": {
    "storage": [
      {
        "astId": 123,
        "contract": "contracts/v2/templates/funding/Crowdsale.sol:Crowdsale",
        "label": "_status",
        "offset": 0,
        "slot": "0",
        "type": "t_uint256"
      },
      {
        "astId": 7,
        "contract": "contracts/v2/templates/funding/Crowdsale.sol:Crowdsale",
        "label": "_owner",
        "offset": 0,
        "slot": "1",
        "type": "t_address"
      },
      {
        "astId": 3128,
        "contract": "contracts/v2/templates/funding/Crowdsale.sol:Crowdsale",
        "label": "vault",
        "offset": 0,
        "slot": "2",
        "type": "t_address"
      },
      {
        "astId": 3131,
        "contract": "contracts/v2/templates/funding/Crowdsale.sol:Crowdsale",
        "label": "startTime",
        "offset": 0,
        "slot": "3",
        "type": "t_uint256"
      },
      {
        "astId": 3134,
        "contract": "contracts/v2/templates/funding/Crowdsale.sol:Crowdsale",
        "label": "endTime",
        "offset": 0,
        "slot": "4",
        "type": "t_uint256"
      },
      {
        "astId": 3137,
        "contract": "contracts/v2/templates/funding/Crowdsale.sol:Crowdsale",
        "label": "assetToken",
        "offset": 0,
        "slot": "5",
        "type": "t_address"
      },
      {
        "astId": 3140,
        "contract": "contracts/v2/templates/funding/Crowdsale.sol:Crowdsale",
        "label": "maxSupply",
        "offset": 0,
        "slot": "6",
        "type": "t_uint256"
      },
      {
        "astId": 3143,
        "contract": "contracts/v2/templates/funding/Crowdsale.sol:Crowdsale",
        "label": "softCap",
        "offset": 0,
        "slot": "7",
        "type": "t_uint256"
      },
      {
        "astId": 3146,
        "contract": "contracts/v2/templates/funding/Crowdsale.sol:Crowdsale",
        "label": "sharePrice",
        "offset": 0,
        "slot": "8",
        "type": "t_uint256"
      },
      {
        "astId": 3149,
        "contract": "contracts/v2/templates/funding/Crowdsale.sol:Crowdsale",
        "label": "minDepositAmount",
        "offset": 0,
        "slot": "9",
        "type": "t_uint256"
      },
      {
        "astId": 3152,
        "contract": "contracts/v2/templates/funding/Crowdsale.sol:Crowdsale",
        "label": "manageFeeBps",
        "offset": 0,
        "slot": "10",
        "type": "t_uint256"
      },
      {
        "astId": 3155,
        "contract": "contracts/v2/templates/funding/Crowdsale.sol:Crowdsale",
        "label": "fundingReceiver",
        "offset": 0,
        "slot": "11",
        "type": "t_address"
      },
      {
        "astId": 3158,
        "contract": "contracts/v2/templates/funding/Crowdsale.sol:Crowdsale",
        "label": "manageFeeReceiver",
        "offset": 0,
        "slot": "12",
        "type": "t_address"
      },
      {
        "astId": 3161,
        "contract": "contracts/v2/templates/funding/Crowdsale.sol:Crowdsale",
        "label": "decimalsMultiplier",
        "offset": 0,
        "slot": "13",
        "type": "t_uint256"
      },
      {
        "astId": 3164,
        "contract": "contracts/v2/templates/funding/Crowdsale.sol:Crowdsale",
        "label": "manager",
        "offset": 0,
        "slot": "14",
        "type": "t_address"
      },
      {
        "astId": 3167,
        "contract": "contracts/v2/templates/funding/Crowdsale.sol:Crowdsale",
        "label": "fundingAssets",
        "offset": 0,
        "slot": "15",
        "type": "t_uint256"
      },
      {
        "astId": 3170,
        "contract": "contracts/v2/templates/funding/Crowdsale.sol:Crowdsale",
        "label": "manageFee",
        "offset": 0,
        "slot": "16",
        "type": "t_uint256"
      },
      {
        "astId": 3182,
        "contract": "contracts/v2/templates/funding/Crowdsale.sol:Crowdsale",
        "label": "callerNonce",
        "offset": 0,
        "slot": "17",
        "type": "t_mapping(t_address,t_uint256)"
      },
      {
        "astId": 3184,
        "contract": "contracts/v2/templates/funding/Crowdsale.sol:Crowdsale",
        "label": "_initialized",
        "offset": 0,
        "slot": "18",
        "type": "t_bool"
      }
    ],
    "types": {
      "t_address": {
        "encoding": "inplace",
        "label": "address",
        "numberOfBytes": "20"
      },
      "t_bool": {
        "encoding": "inplace",
        "label": "bool",
        "numberOfBytes": "1"
      },
      "t_mapping(t_address,t_uint256)": {
        "encoding": "mapping",
        "key": "t_address",
        "label": "mapping(address => uint256)",
        "numberOfBytes": "32",
        "value": "t_uint256"
      },
      "t_uint256": {
        "encoding": "inplace",
        "label": "uint256",
        "numberOfBytes": "32"
      }
    }
  }
}