{
  "address": "0x1e42994A1A957136340d060ed117d0D5F6000928",
  "abi": [
    {
      "anonymous": false,
      "inputs": [
        {
          "indexed": true,
          "internalType": "uint256",
          "name": "templateId",
          "type": "uint256"
        },
        {
          "indexed": true,
          "internalType": "address",
          "name": "fund",
          "type": "address"
        },
        {
          "indexed": true,
          "internalType": "address",
          "name": "vault",
          "type": "address"
        }
      ],
      "name": "FundCreated",
      "type": "event"
    },
    {
      "anonymous": false,
      "inputs": [
        {
          "indexed": true,
          "internalType": "address",
          "name": "previousOwner",
          "type": "address"
        },
        {
          "indexed": true,
          "internalType": "address",
          "name": "newOwner",
          "type": "address"
        }
      ],
      "name": "OwnershipTransferred",
      "type": "event"
    },
    {
      "anonymous": false,
      "inputs": [
        {
          "indexed": true,
          "internalType": "uint256",
          "name": "templateId",
          "type": "uint256"
        },
        {
          "indexed": true,
          "internalType": "address",
          "name": "template",
          "type": "address"
        }
      ],
      "name": "TemplateAdded",
      "type": "event"
    },
    {
      "inputs": [
        {
          "internalType": "uint256",
          "name": "templateId",
          "type": "uint256"
        },
        {
          "internalType": "address",
          "name": "template",
          "type": "address"
        }
      ],
      "name": "addTemplate",
      "outputs": [],
      "stateMutability": "nonpayable",
      "type": "function"
    },
    {
      "inputs": [
        {
          "internalType": "uint256",
          "name": "templateId",
          "type": "uint256"
        },
        {
          "internalType": "address",
          "name": "vault",
          "type": "address"
        },
        {
          "internalType": "address",
          "name": "token",
          "type": "address"
        },
        {
          "internalType": "bytes",
          "name": "initData",
          "type": "bytes"
        }
      ],
      "name": "createFund",
      "outputs": [
        {
          "internalType": "address",
          "name": "fund",
          "type": "address"
        }
      ],
      "stateMutability": "nonpayable",
      "type": "function"
    },
    {
      "inputs": [
        {
          "internalType": "uint256",
          "name": "templateId",
          "type": "uint256"
        }
      ],
      "name": "getTemplate",
      "outputs": [
        {
          "internalType": "address",
          "name": "",
          "type": "address"
        }
      ],
      "stateMutability": "view",
      "type": "function"
    },
    {
      "inputs": [],
      "name": "getTemplateCount",
      "outputs": [
        {
          "internalType": "uint256",
          "name": "",
          "type": "uint256"
        }
      ],
      "stateMutability": "view",
      "type": "function"
    },
    {
      "inputs": [],
      "name": "owner",
      "outputs": [
        {
          "internalType": "address",
          "name": "",
          "type": "address"
        }
      ],
      "stateMutability": "view",
      "type": "function"
    },
    {
      "inputs": [],
      "name": "renounceOwnership",
      "outputs": [],
      "stateMutability": "nonpayable",
      "type": "function"
    },
    {
      "inputs": [],
      "name": "templateCount",
      "outputs": [
        {
          "internalType": "uint256",
          "name": "",
          "type": "uint256"
        }
      ],
      "stateMutability": "view",
      "type": "function"
    },
    {
      "inputs": [
        {
          "internalType": "uint256",
          "name": "",
          "type": "uint256"
        }
      ],
      "name": "templates",
      "outputs": [
        {
          "internalType": "address",
          "name": "",
          "type": "address"
        }
      ],
      "stateMutability": "view",
      "type": "function"
    },
    {
      "inputs": [
        {
          "internalType": "address",
          "name": "newOwner",
          "type": "address"
        }
      ],
      "name": "transferOwnership",
      "outputs": [],
      "stateMutability": "nonpayable",
      "type": "function"
    }
  ],
  "transactionHash": "0x0ce37c7799e1ad2f3caf146ddcbe263bca703d2e1bbf8aa14dee91350cd5ef3c",
  "args": [],
  "numDeployments": 1,
  "solcInputHash": "c440ffa6380d0a7b9b1538bf82b44267",
  "bytecode": "0x60808060405234605a5760008054336001600160a01b0319821681178355916001600160a01b03909116907f8be0079c531659141344cd1fd0a4f28419497f9722a3daafe3b4186f6b6457e09080a361098790816100608239f35b600080fdfe6080604052600436101561001257600080fd5b60003560e01c806326705c3c146100a257806331543cf4146100895780635016959a1461009d578063715018a6146100985780638da5cb5b14610093578063af4e07721461008e578063bc52565214610089578063cafdadde146100845763f2fde38b1461007f57600080fd5b6103fe565b6102c8565b6100c4565b61021d565b61016f565b610116565b6100f8565b346100bf5760003660031901126100bf5760025460805260206080f35b600080fd5b346100bf5760203660031901126100bf576004356000526001602052602060018060a01b0360406000205416604051908152f35b346100bf5760003660031901126100bf576020600254604051908152f35b346100bf5760003660031901126100bf5761012f61081e565b600080546001600160a01b0319811682556001600160a01b03167f8be0079c531659141344cd1fd0a4f28419497f9722a3daafe3b4186f6b6457e08280a3005b346100bf5760003660031901126100bf576000546040516001600160a01b039091168152602090f35b602435906001600160a01b03821682036100bf57565b604435906001600160a01b03821682036100bf57565b634e487b7160e01b600052604160045260246000fd5b90601f8019910116810190811067ffffffffffffffff8211176101fc57604052565b6101c4565b67ffffffffffffffff81116101fc57601f01601f191660200190565b346100bf5760803660031901126100bf57600435610239610198565b906102426101ae565b906064359167ffffffffffffffff83116100bf57366023840112156100bf5782600401359361027085610201565b9261027e60405194856101da565b85845236602487870101116100bf5760006020876102c49860246102aa9901838901378601015261060f565b6040516001600160a01b0390911681529081906020820190565b0390f35b346100bf5760403660031901126100bf576004356102e4610198565b906102ed61081e565b6001600160a01b0382169182156103b9576103719061033e61033861032c61031f866000526001602052604060002090565b546001600160a01b031690565b6001600160a01b031690565b156107a2565b610352836000526001602052604060002090565b80546001600160a01b0319166001600160a01b03909216919091179055565b6002548110156103a3575b7f015902ea38b371359d3cfcc702e9445d97bf18c32ee4f72ebe2361cf53e0088e600080a3005b6103b46103af826107fa565b600255565b61037c565b60405162461bcd60e51b815260206004820152601d60248201527f46756e64466163746f72793a20696e76616c69642074656d706c6174650000006044820152606490fd5b346100bf5760203660031901126100bf576004356001600160a01b03811681036100bf5761042a61081e565b6001600160a01b038116156104445761044290610876565b005b60405162461bcd60e51b815260206004820152602660248201527f4f776e61626c653a206e6577206f776e657220697320746865207a65726f206160448201526564647265737360d01b6064820152608490fd5b1561049f57565b60405162461bcd60e51b815260206004820152601f60248201527f46756e64466163746f72793a2074656d706c617465206e6f7420666f756e64006044820152606490fd5b60005b8381106104f75750506000910152565b81810151838201526020016104e7565b90602091610520815180928185528580860191016104e4565b601f01601f1916010190565b6001600160a01b0391821681529116602082015260606040820181905261055592910190610507565b90565b3d15610583573d9061056982610201565b9161057760405193846101da565b82523d6000602084013e565b606090565b6020818303126100bf5780519067ffffffffffffffff82116100bf570181601f820112156100bf5780516105bb81610201565b926105c960405194856101da565b818452602082840101116100bf5761055591602080850191016104e4565b906105fa602092828151948592016104e4565b0190565b906020610555928181520190610507565b9192600091829161067c61064c61063361031f886000526001602052604060002090565b6106476001600160a01b0382161515610498565b6108bd565b9661066e6040519384926020840196630aedf8cf60e21b88526024850161052c565b03601f1981018352826101da565b519082865af161068a610558565b90156106c6575033906001600160a01b038316907fa959597a97640f580ec183ce9d99c257fc0be7ba0581643b5863da0505d1dca2600080a490565b8051156107525761066e6107366106ec83602480600461074e9701518301019101610588565b604051928391610730602084016024907f46756e64466163746f72793a20696e697469616c697a6174696f6e206661696c815263032b21d160e51b60208201520190565b906105e7565b60405162461bcd60e51b8152918291600483016105fe565b0390fd5b60405162461bcd60e51b815260206004820152602260248201527f46756e64466163746f72793a20696e697469616c697a6174696f6e206661696c604482015261195960f21b6064820152608490fd5b156107a957565b60405162461bcd60e51b8152602060048201526024808201527f46756e64466163746f72793a2074656d706c61746520616c72656164792065786044820152636973747360e01b6064820152608490fd5b906001820180921161080857565b634e487b7160e01b600052601160045260246000fd5b6000546001600160a01b0316330361083257565b606460405162461bcd60e51b815260206004820152602060248201527f4f776e61626c653a2063616c6c6572206973206e6f7420746865206f776e65726044820152fd5b600080546001600160a01b039283166001600160a01b03198216811783559216907f8be0079c531659141344cd1fd0a4f28419497f9722a3daafe3b4186f6b6457e09080a3565b6e5af43d82803e903d91602b57fd5bf390763d602d80600a3d3981f3363d3d373d3d3d363d7300000062ffffff8260881c161760005260781b17602052603760096000f0906001600160a01b0382161561091357565b60405162461bcd60e51b8152602060048201526016602482015275115490cc4c4d8dce8818dc99585d194819985a5b195960521b6044820152606490fdfea26469706673582212206de18bb92ec54bbbad614c78a1e45d8fd2ed728b2f412aaea0402c5743f47f0f64736f6c634300081a0033",
  "devdoc": {
    "kind": "dev",
    "methods": {
      "owner()": {
        "details": "Returns the address of the current owner."
      },
      "renounceOwnership()": {
        "details": "Leaves the contract without owner. It will not be possible to call `onlyOwner` functions. Can only be called by the current owner. NOTE: Renouncing ownership will leave the contract without an owner, thereby disabling any functionality that is only available to the owner."
      },
      "transferOwnership(address)": {
        "details": "Transfers ownership of the contract to a new account (`newOwner`). Can only be called by the current owner."
      }
    },
    "version": 1
  },
  "userdoc": {
    "kind": "user",
    "methods": {},
    "version": 1
  },
  "storageLayout": {
    "storage": [
      {
        "astId": 3547,
        "contract": "contracts/v2/factories/FundFactory.sol:FundFactory",
        "label": "_owner",
        "offset": 0,
        "slot": "0",
        "type": "t_address"
      },
      {
        "astId": 12759,
        "contract": "contracts/v2/factories/FundFactory.sol:FundFactory",
        "label": "templates",
        "offset": 0,
        "slot": "1",
        "type": "t_mapping(t_uint256,t_address)"
      },
      {
        "astId": 12761,
        "contract": "contracts/v2/factories/FundFactory.sol:FundFactory",
        "label": "templateCount",
        "offset": 0,
        "slot": "2",
        "type": "t_uint256"
      }
    ],
    "types": {
      "t_address": {
        "encoding": "inplace",
        "label": "address",
        "numberOfBytes": "20"
      },
      "t_mapping(t_uint256,t_address)": {
        "encoding": "mapping",
        "key": "t_uint256",
        "label": "mapping(uint256 => address)",
        "numberOfBytes": "32",
        "value": "t_address"
      },
      "t_uint256": {
        "encoding": "inplace",
        "label": "uint256",
        "numberOfBytes": "32"
      }
    }
  }
}