{
  "address": "0x2aD177fd9508Fa45dE3040BcE712B178BC822685",
  "abi": [
    {
      "anonymous": false,
      "inputs": [
        {
          "indexed": true,
          "internalType": "address",
          "name": "previousOwner",
          "type": "address"
        },
        {
          "indexed": true,
          "internalType": "address",
          "name": "newOwner",
          "type": "address"
        }
      ],
      "name": "OwnershipTransferred",
      "type": "event"
    },
    {
      "anonymous": false,
      "inputs": [
        {
          "indexed": true,
          "internalType": "uint256",
          "name": "templateId",
          "type": "uint256"
        },
        {
          "indexed": true,
          "internalType": "address",
          "name": "template",
          "type": "address"
        }
      ],
      "name": "TemplateAdded",
      "type": "event"
    },
    {
      "anonymous": false,
      "inputs": [
        {
          "indexed": true,
          "internalType": "uint256",
          "name": "templateId",
          "type": "uint256"
        },
        {
          "indexed": true,
          "internalType": "address",
          "name": "vault",
          "type": "address"
        },
        {
          "indexed": true,
          "internalType": "address",
          "name": "deployer",
          "type": "address"
        }
      ],
      "name": "VaultCreated",
      "type": "event"
    },
    {
      "inputs": [
        {
          "internalType": "uint256",
          "name": "templateId",
          "type": "uint256"
        },
        {
          "internalType": "address",
          "name": "template",
          "type": "address"
        }
      ],
      "name": "addTemplate",
      "outputs": [],
      "stateMutability": "nonpayable",
      "type": "function"
    },
    {
      "inputs": [
        {
          "internalType": "uint256",
          "name": "templateId",
          "type": "uint256"
        },
        {
          "internalType": "bytes",
          "name": "initData",
          "type": "bytes"
        }
      ],
      "name": "createVault",
      "outputs": [
        {
          "internalType": "address",
          "name": "vault",
          "type": "address"
        }
      ],
      "stateMutability": "nonpayable",
      "type": "function"
    },
    {
      "inputs": [
        {
          "internalType": "uint256",
          "name": "templateId",
          "type": "uint256"
        }
      ],
      "name": "getTemplate",
      "outputs": [
        {
          "internalType": "address",
          "name": "",
          "type": "address"
        }
      ],
      "stateMutability": "view",
      "type": "function"
    },
    {
      "inputs": [],
      "name": "getTemplateCount",
      "outputs": [
        {
          "internalType": "uint256",
          "name": "",
          "type": "uint256"
        }
      ],
      "stateMutability": "view",
      "type": "function"
    },
    {
      "inputs": [],
      "name": "owner",
      "outputs": [
        {
          "internalType": "address",
          "name": "",
          "type": "address"
        }
      ],
      "stateMutability": "view",
      "type": "function"
    },
    {
      "inputs": [],
      "name": "renounceOwnership",
      "outputs": [],
      "stateMutability": "nonpayable",
      "type": "function"
    },
    {
      "inputs": [],
      "name": "templateCount",
      "outputs": [
        {
          "internalType": "uint256",
          "name": "",
          "type": "uint256"
        }
      ],
      "stateMutability": "view",
      "type": "function"
    },
    {
      "inputs": [
        {
          "internalType": "uint256",
          "name": "",
          "type": "uint256"
        }
      ],
      "name": "templates",
      "outputs": [
        {
          "internalType": "address",
          "name": "",
          "type": "address"
        }
      ],
      "stateMutability": "view",
      "type": "function"
    },
    {
      "inputs": [
        {
          "internalType": "address",
          "name": "newOwner",
          "type": "address"
        }
      ],
      "name": "transferOwnership",
      "outputs": [],
      "stateMutability": "nonpayable",
      "type": "function"
    }
  ],
  "transactionHash": "0xf31dbe6ddf5512acd0dd31f6504bb3c804e457eed2dfc4e7f87570757d775cdb",
  "args": [],
  "numDeployments": 1,
  "solcInputHash": "c440ffa6380d0a7b9b1538bf82b44267",
  "bytecode": "0x60808060405234605a5760008054336001600160a01b0319821681178355916001600160a01b03909116907f8be0079c531659141344cd1fd0a4f28419497f9722a3daafe3b4186f6b6457e09080a361090590816100608239f35b600080fdfe6080604052600436101561001257600080fd5b60003560e01c806325920b211461009d57806326705c3c1461009857806331543cf4146100895780635016959a14610098578063715018a6146100935780638da5cb5b1461008e578063bc52565214610089578063cafdadde146100845763f2fde38b1461007f57600080fd5b6103b3565b61027d565b6101b1565b61023e565b6101e5565b610193565b346101355760403660031901126101355760043560243567ffffffffffffffff81116101355736602382011215610135578060040135916100dd83610177565b906100eb6040519283610150565b83825236602485850101116101355760006020856101319660246101179701838701378401015261058f565b6040516001600160a01b0390911681529081906020820190565b0390f35b600080fd5b634e487b7160e01b600052604160045260246000fd5b90601f8019910116810190811067ffffffffffffffff82111761017257604052565b61013a565b67ffffffffffffffff811161017257601f01601f191660200190565b34610135576000366003190112610135576020600254604051908152f35b34610135576020366003190112610135576004356000526001602052602060018060a01b0360406000205416604051908152f35b34610135576000366003190112610135576101fe610830565b600080546001600160a01b0319811682556001600160a01b03167f8be0079c531659141344cd1fd0a4f28419497f9722a3daafe3b4186f6b6457e08280a3005b34610135576000366003190112610135576000546040516001600160a01b039091168152602090f35b602435906001600160a01b038216820361013557565b3461013557604036600319011261013557600435610299610267565b906102a2610830565b6001600160a01b03821691821561036e57610326906102f36102ed6102e16102d4866000526001602052604060002090565b546001600160a01b031690565b6001600160a01b031690565b1561071e565b610307836000526001602052604060002090565b80546001600160a01b0319166001600160a01b03909216919091179055565b600254811015610358575b7f015902ea38b371359d3cfcc702e9445d97bf18c32ee4f72ebe2361cf53e0088e600080a3005b61036961036482610778565b600255565b610331565b60405162461bcd60e51b815260206004820152601e60248201527f5661756c74466163746f72793a20696e76616c69642074656d706c61746500006044820152606490fd5b34610135576020366003190112610135576004356001600160a01b0381168103610135576103df610830565b6001600160a01b038116156103f9576103f790610888565b005b60405162461bcd60e51b815260206004820152602660248201527f4f776e61626c653a206e6577206f776e657220697320746865207a65726f206160448201526564647265737360d01b6064820152608490fd5b1561045457565b606460405162461bcd60e51b815260206004820152602060248201527f5661756c74466163746f72793a2074656d706c617465206e6f7420666f756e646044820152fd5b60005b8381106104ab5750506000910152565b818101518382015260200161049b565b906020809281815201906104da81518092818552858086019101610498565b601f01601f1916010190565b3d15610511573d906104f782610177565b916105056040519384610150565b82523d6000602084013e565b606090565b6020818303126101355780519067ffffffffffffffff8211610135570181601f8201121561013557805161054981610177565b926105576040519485610150565b81845260208284010111610135576105759160208085019101610498565b90565b9061058b60209282815194859201610498565b0190565b6000806105c56105ac6102d4856000526001602052604060002090565b6105c06001600160a01b038216151561044d565b61079c565b936040516105f6816105e86020820194633d93a20560e21b8652602483016104bb565b03601f198101835282610150565b519082865af16106046104e6565b9015610640575033906001600160a01b038316907fa8596cc4a052ecc7656e9ca0fb7a10472573699e3aa34ac5659bc37c1b0a44fc600080a490565b8051156106cd576105e86106b16106668360248060046106c99701518301019101610516565b6040519283916106ab602084016025907f5661756c74466163746f72793a20696e697469616c697a6174696f6e2066616981526403632b21d160dd1b60208201520190565b90610578565b60405162461bcd60e51b8152918291600483016104bb565b0390fd5b60405162461bcd60e51b815260206004820152602360248201527f5661756c74466163746f72793a20696e697469616c697a6174696f6e206661696044820152621b195960ea1b6064820152608490fd5b1561072557565b60405162461bcd60e51b815260206004820152602560248201527f5661756c74466163746f72793a2074656d706c61746520616c72656164792065604482015264786973747360d81b6064820152608490fd5b906001820180921161078657565b634e487b7160e01b600052601160045260246000fd5b6e5af43d82803e903d91602b57fd5bf390763d602d80600a3d3981f3363d3d373d3d3d363d7300000062ffffff8260881c161760005260781b17602052603760096000f0906001600160a01b038216156107f257565b60405162461bcd60e51b8152602060048201526016602482015275115490cc4c4d8dce8818dc99585d194819985a5b195960521b6044820152606490fd5b6000546001600160a01b0316330361084457565b606460405162461bcd60e51b815260206004820152602060248201527f4f776e61626c653a2063616c6c6572206973206e6f7420746865206f776e65726044820152fd5b600080546001600160a01b039283166001600160a01b03198216811783559216907f8be0079c531659141344cd1fd0a4f28419497f9722a3daafe3b4186f6b6457e09080a356fea26469706673582212203fdbfd7365b209a8c8bc80f099d659c35763333cc0f8d883cb69eadd64e4a3a464736f6c634300081a0033",
  "devdoc": {
    "kind": "dev",
    "methods": {
      "owner()": {
        "details": "Returns the address of the current owner."
      },
      "renounceOwnership()": {
        "details": "Leaves the contract without owner. It will not be possible to call `onlyOwner` functions. Can only be called by the current owner. NOTE: Renouncing ownership will leave the contract without an owner, thereby disabling any functionality that is only available to the owner."
      },
      "transferOwnership(address)": {
        "details": "Transfers ownership of the contract to a new account (`newOwner`). Can only be called by the current owner."
      }
    },
    "version": 1
  },
  "userdoc": {
    "kind": "user",
    "methods": {},
    "version": 1
  },
  "storageLayout": {
    "storage": [
      {
        "astId": 3547,
        "contract": "contracts/v2/factories/VaultFactory.sol:VaultFactory",
        "label": "_owner",
        "offset": 0,
        "slot": "0",
        "type": "t_address"
      },
      {
        "astId": 13150,
        "contract": "contracts/v2/factories/VaultFactory.sol:VaultFactory",
        "label": "templates",
        "offset": 0,
        "slot": "1",
        "type": "t_mapping(t_uint256,t_address)"
      },
      {
        "astId": 13152,
        "contract": "contracts/v2/factories/VaultFactory.sol:VaultFactory",
        "label": "templateCount",
        "offset": 0,
        "slot": "2",
        "type": "t_uint256"
      }
    ],
    "types": {
      "t_address": {
        "encoding": "inplace",
        "label": "address",
        "numberOfBytes": "20"
      },
      "t_mapping(t_uint256,t_address)": {
        "encoding": "mapping",
        "key": "t_uint256",
        "label": "mapping(uint256 => address)",
        "numberOfBytes": "32",
        "value": "t_address"
      },
      "t_uint256": {
        "encoding": "inplace",
        "label": "uint256",
        "numberOfBytes": "32"
      }
    }
  }
}