{
  "address": "0xe76f231177d883d3773b134d1DE2E847c62E6415",
  "abi": [
    {
      "inputs": [],
      "stateMutability": "nonpayable",
      "type": "constructor"
    },
    {
      "anonymous": false,
      "inputs": [
        {
          "indexed": true,
          "internalType": "address",
          "name": "owner",
          "type": "address"
        },
        {
          "indexed": true,
          "internalType": "address",
          "name": "spender",
          "type": "address"
        },
        {
          "indexed": false,
          "internalType": "uint256",
          "name": "value",
          "type": "uint256"
        }
      ],
      "name": "Approval",
      "type": "event"
    },
    {
      "anonymous": false,
      "inputs": [
        {
          "indexed": true,
          "internalType": "address",
          "name": "previousOwner",
          "type": "address"
        },
        {
          "indexed": true,
          "internalType": "address",
          "name": "newOwner",
          "type": "address"
        }
      ],
      "name": "OwnershipTransferred",
      "type": "event"
    },
    {
      "anonymous": false,
      "inputs": [
        {
          "indexed": false,
          "internalType": "address",
          "name": "account",
          "type": "address"
        }
      ],
      "name": "Paused",
      "type": "event"
    },
    {
      "anonymous": false,
      "inputs": [
        {
          "indexed": true,
          "internalType": "address",
          "name": "from",
          "type": "address"
        },
        {
          "indexed": false,
          "internalType": "uint256",
          "name": "amount",
          "type": "uint256"
        }
      ],
      "name": "TokenBurned",
      "type": "event"
    },
    {
      "anonymous": false,
      "inputs": [
        {
          "indexed": true,
          "internalType": "address",
          "name": "to",
          "type": "address"
        },
        {
          "indexed": false,
          "internalType": "uint256",
          "name": "amount",
          "type": "uint256"
        }
      ],
      "name": "TokenMinted",
      "type": "event"
    },
    {
      "anonymous": false,
      "inputs": [],
      "name": "TokenPaused",
      "type": "event"
    },
    {
      "anonymous": false,
      "inputs": [],
      "name": "TokenUnpaused",
      "type": "event"
    },
    {
      "anonymous": false,
      "inputs": [
        {
          "indexed": true,
          "internalType": "address",
          "name": "from",
          "type": "address"
        },
        {
          "indexed": true,
          "internalType": "address",
          "name": "to",
          "type": "address"
        },
        {
          "indexed": false,
          "internalType": "uint256",
          "name": "value",
          "type": "uint256"
        }
      ],
      "name": "Transfer",
      "type": "event"
    },
    {
      "anonymous": false,
      "inputs": [
        {
          "indexed": false,
          "internalType": "address",
          "name": "account",
          "type": "address"
        }
      ],
      "name": "Unpaused",
      "type": "event"
    },
    {
      "inputs": [
        {
          "internalType": "address",
          "name": "owner",
          "type": "address"
        },
        {
          "internalType": "address",
          "name": "spender",
          "type": "address"
        }
      ],
      "name": "allowance",
      "outputs": [
        {
          "internalType": "uint256",
          "name": "",
          "type": "uint256"
        }
      ],
      "stateMutability": "view",
      "type": "function"
    },
    {
      "inputs": [
        {
          "internalType": "address",
          "name": "spender",
          "type": "address"
        },
        {
          "internalType": "uint256",
          "name": "amount",
          "type": "uint256"
        }
      ],
      "name": "approve",
      "outputs": [
        {
          "internalType": "bool",
          "name": "",
          "type": "bool"
        }
      ],
      "stateMutability": "nonpayable",
      "type": "function"
    },
    {
      "inputs": [
        {
          "internalType": "address",
          "name": "account",
          "type": "address"
        }
      ],
      "name": "balanceOf",
      "outputs": [
        {
          "internalType": "uint256",
          "name": "",
          "type": "uint256"
        }
      ],
      "stateMutability": "view",
      "type": "function"
    },
    {
      "inputs": [
        {
          "internalType": "address",
          "name": "account",
          "type": "address"
        },
        {
          "internalType": "uint256",
          "name": "amount",
          "type": "uint256"
        }
      ],
      "name": "burnFrom",
      "outputs": [],
      "stateMutability": "nonpayable",
      "type": "function"
    },
    {
      "inputs": [],
      "name": "decimals",
      "outputs": [
        {
          "internalType": "uint8",
          "name": "",
          "type": "uint8"
        }
      ],
      "stateMutability": "view",
      "type": "function"
    },
    {
      "inputs": [
        {
          "internalType": "address",
          "name": "spender",
          "type": "address"
        },
        {
          "internalType": "uint256",
          "name": "subtractedValue",
          "type": "uint256"
        }
      ],
      "name": "decreaseAllowance",
      "outputs": [
        {
          "internalType": "bool",
          "name": "",
          "type": "bool"
        }
      ],
      "stateMutability": "nonpayable",
      "type": "function"
    },
    {
      "inputs": [
        {
          "internalType": "address",
          "name": "spender",
          "type": "address"
        },
        {
          "internalType": "uint256",
          "name": "addedValue",
          "type": "uint256"
        }
      ],
      "name": "increaseAllowance",
      "outputs": [
        {
          "internalType": "bool",
          "name": "",
          "type": "bool"
        }
      ],
      "stateMutability": "nonpayable",
      "type": "function"
    },
    {
      "inputs": [
        {
          "internalType": "address",
          "name": "_vault",
          "type": "address"
        },
        {
          "internalType": "bytes",
          "name": "_initData",
          "type": "bytes"
        }
      ],
      "name": "initiate",
      "outputs": [],
      "stateMutability": "nonpayable",
      "type": "function"
    },
    {
      "inputs": [
        {
          "internalType": "address",
          "name": "to",
          "type": "address"
        },
        {
          "internalType": "uint256",
          "name": "amount",
          "type": "uint256"
        }
      ],
      "name": "mint",
      "outputs": [],
      "stateMutability": "nonpayable",
      "type": "function"
    },
    {
      "inputs": [],
      "name": "name",
      "outputs": [
        {
          "internalType": "string",
          "name": "",
          "type": "string"
        }
      ],
      "stateMutability": "view",
      "type": "function"
    },
    {
      "inputs": [],
      "name": "owner",
      "outputs": [
        {
          "internalType": "address",
          "name": "",
          "type": "address"
        }
      ],
      "stateMutability": "view",
      "type": "function"
    },
    {
      "inputs": [],
      "name": "pause",
      "outputs": [],
      "stateMutability": "nonpayable",
      "type": "function"
    },
    {
      "inputs": [],
      "name": "paused",
      "outputs": [
        {
          "internalType": "bool",
          "name": "",
          "type": "bool"
        }
      ],
      "stateMutability": "view",
      "type": "function"
    },
    {
      "inputs": [],
      "name": "renounceOwnership",
      "outputs": [],
      "stateMutability": "nonpayable",
      "type": "function"
    },
    {
      "inputs": [],
      "name": "symbol",
      "outputs": [
        {
          "internalType": "string",
          "name": "",
          "type": "string"
        }
      ],
      "stateMutability": "view",
      "type": "function"
    },
    {
      "inputs": [],
      "name": "totalSupply",
      "outputs": [
        {
          "internalType": "uint256",
          "name": "",
          "type": "uint256"
        }
      ],
      "stateMutability": "view",
      "type": "function"
    },
    {
      "inputs": [
        {
          "internalType": "address",
          "name": "to",
          "type": "address"
        },
        {
          "internalType": "uint256",
          "name": "amount",
          "type": "uint256"
        }
      ],
      "name": "transfer",
      "outputs": [
        {
          "internalType": "bool",
          "name": "",
          "type": "bool"
        }
      ],
      "stateMutability": "nonpayable",
      "type": "function"
    },
    {
      "inputs": [
        {
          "internalType": "address",
          "name": "from",
          "type": "address"
        },
        {
          "internalType": "address",
          "name": "to",
          "type": "address"
        },
        {
          "internalType": "uint256",
          "name": "amount",
          "type": "uint256"
        }
      ],
      "name": "transferFrom",
      "outputs": [
        {
          "internalType": "bool",
          "name": "",
          "type": "bool"
        }
      ],
      "stateMutability": "nonpayable",
      "type": "function"
    },
    {
      "inputs": [
        {
          "internalType": "address",
          "name": "newOwner",
          "type": "address"
        }
      ],
      "name": "transferOwnership",
      "outputs": [],
      "stateMutability": "nonpayable",
      "type": "function"
    },
    {
      "inputs": [],
      "name": "unpause",
      "outputs": [],
      "stateMutability": "nonpayable",
      "type": "function"
    },
    {
      "inputs": [],
      "name": "vault",
      "outputs": [
        {
          "internalType": "address",
          "name": "",
          "type": "address"
        }
      ],
      "stateMutability": "view",
      "type": "function"
    }
  ],
  "transactionHash": "0x92a61508ddadacf1b9b295fa087e4b86d651246ad9f8060b34c9ba1ea2de8909",
  "args": [],
  "numDeployments": 1,
  "solcInputHash": "2d28f981e5391d692cda107a779297fe",
  "bytecode": "0x60806040523461033057610011610335565b610019610335565b81516001600160401b03811161023b57600354600181811c91168015610326575b602082101461021b57601f81116102c1575b50602092601f821160011461025c5792819293600092610251575b50508160011b916000199060031b1c1916176003555b80516001600160401b03811161023b57600454600181811c91168015610231575b602082101461021b57601f81116101b6575b50602091601f821160011461015257918192600092610147575b50508160011b916000199060031b1c1916176004555b600580546001600160a81b0319811633600881811b610100600160a81b0316929092179093556040519291901c6001600160a01b03167f8be0079c531659141344cd1fd0a4f28419497f9722a3daafe3b4186f6b6457e0600080a3611c8890816103598239f35b0151905038806100ca565b601f198216926004600052806000209160005b85811061019e57508360019510610185575b505050811b016004556100e0565b015160001960f88460031b161c19169055388080610177565b91926020600181928685015181550194019201610165565b60046000527f8a35acfbc15ff81a39ae7d344fd709f28e8600b4aa8c65c6b64bfe7fe36bd19b601f830160051c81019160208410610211575b601f0160051c01905b81811061020557506100b0565b600081556001016101f8565b90915081906101ef565b634e487b7160e01b600052602260045260246000fd5b90607f169061009e565b634e487b7160e01b600052604160045260246000fd5b015190503880610067565b601f198216936003600052806000209160005b8681106102a95750836001959610610290575b505050811b0160035561007d565b015160001960f88460031b161c19169055388080610282565b9192602060018192868501518155019401920161026f565b60036000527fc2575a0e9e593c00f959f8c92f12db2869c3395a3b0502d05e2516446f71f85b601f830160051c8101916020841061031c575b601f0160051c01905b818110610310575061004c565b60008155600101610303565b90915081906102fa565b90607f169061003a565b600080fd5b60405190602082016001600160401b0381118382101761023b576040526000825256fe608080604052600436101561001357600080fd5b600090813560e01c90816306fdde031461147b57508063095ea7b31461145457806318160ddd1461143657806323b872dd14611286578063313ce5671461126557806339509351146112145780633f4ba83a1461117257806340c10f19146110065780635c975abb14610fe357806370a0823114610fab578063715018a614610f4a57806379cc679014610c1b5780638456cb5914610b6f578063888e4486146105985780638da5cb5b1461056b57806395d89b411461049e578063a457c2d7146103f9578063a9059cbb14610219578063dd62ed3e146101c4578063f2fde38b146101335763fbfa77cf1461010857600080fd5b346101305780600319360112610130576006546040516001600160a01b039091168152602090f35b80fd5b50346101305760203660031901126101305761014d61155a565b6101556118c7565b6001600160a01b038116156101705761016d90611922565b80f35b60405162461bcd60e51b815260206004820152602660248201527f4f776e61626c653a206e6577206f776e657220697320746865207a65726f206160448201526564647265737360d01b6064820152608490fd5b50346101305760403660031901126101305760406101e061155a565b916101e9611575565b9260018060a01b031681526001602052209060018060a01b03166000526020526020604060002054604051908152f35b50346101305760403660031901126101305761023361155a565b61024460ff60095460081c16611619565b33610356575b6001600160a01b03811680610272575b6102676024358333611a1b565b602060405160018152f35b6006546040516351fb012d60e01b81526001600160a01b039091169190602081600481865afa90811561034b57859161032c575b506102b2575b5061025a565b602090602460405180948193633af32abf60e01b835260048301525afa90811561032157906102eb9161026794916102f2575b5061167d565b38806102ac565b610314915060203d60201161031a575b61030c818361158b565b810190611665565b386102e5565b503d610302565b6040513d85823e3d90fd5b610345915060203d60201161031a5761030c818361158b565b386102a6565b6040513d87823e3d90fd5b6006546040516351fb012d60e01b81526001600160a01b0390911690602081600481855afa9081156103ee5784916103cf575b50610395575b5061024a565b602060249160405192838092633af32abf60e01b82523360048301525afa8015610321576103c99184916102f2575061167d565b3861038f565b6103e8915060203d60201161031a5761030c818361158b565b38610389565b6040513d86823e3d90fd5b50346101305760403660031901126101305761041361155a565b60406024359233815260016020522060018060a01b0382166000526020526040600020549180831061044b5761026792039033611776565b60405162461bcd60e51b815260206004820152602560248201527f45524332303a2064656372656173656420616c6c6f77616e63652062656c6f77604482015264207a65726f60d81b6064820152608490fd5b50346101305780600319360112610130576040519080600854906104c1826115df565b808552916001811690811561054457506001146104f9575b6104f5846104e98186038261158b565b6040519182918261152e565b0390f35b60088152600080516020611c33833981519152939250905b80821061052a575090915081016020016104e9826104d9565b919260018160209254838588010152019101909291610511565b60ff191660208087019190915292151560051b850190920192506104e991508390506104d9565b503461013057806003193601126101305760055460405160089190911c6001600160a01b03168152602090f35b5034610130576040366003190112610130576105b261155a565b906024359167ffffffffffffffff8311610b6b5736602384011215610b6b578260040135926105e0846115c3565b936105ee604051958661158b565b80855260208501913660248383010111610b6757818592602460209301853786010152835184019060608560208401930312610b63575167ffffffffffffffff8111610b635781602061064392870101611731565b90604085015167ffffffffffffffff8111610b6757606091602061066992880101611731565b9401519060ff8216809203610b635760ff60095460081c16610b1e576001600160a01b0383168015610acf57815115610a9157855115610a4c5760188311610a07576bffffffffffffffffffffffff60a01b600654161760065580519067ffffffffffffffff82116109f35781906106e26007546115df565b601f811161097e575b50602090601f831160011461090d578692610902575b50508160011b916000199060031b1c1916176007555b835167ffffffffffffffff81116108ee576107336008546115df565b601f8111610883575b506020601f821160011461080b579080610100939286976107859792610800575b50508160011b916000199060031b1c1916176008555b61ffff19600954161717600955611922565b60055460ff81166107c85760019060ff1916176005557f62e78cea01bee320cd4e420270b5ea74000d11b0c9f74754ebdbfc544b05a2586020604051338152a180f35b60405162461bcd60e51b815260206004820152601060248201526f14185d5cd8589b194e881c185d5cd95960821b6044820152606490fd5b01519050388061075d565b60088552600080516020611c3383398151915295601f198316865b81811061086b57509660019284926101009695610785999a10610852575b505050811b01600855610773565b015160001960f88460031b161c19169055388080610844565b83830151895560019098019760209384019301610826565b60088552601f820160051c600080516020611c338339815191520190602083106108d8575b601f0160051c600080516020611c3383398151915201905b8181106108cd575061073c565b8581556001016108c0565b600080516020611c3383398151915291506108a8565b634e487b7160e01b84526041600452602484fd5b015190503880610701565b60078752600080516020611c138339815191529250601f198416875b818110610966575090846001959493921061094d575b505050811b01600755610717565b015160001960f88460031b161c1916905538808061093f565b92936020600181928786015181550195019301610929565b90915060078652601f830160051c600080516020611c138339815191520190602084106109dd575b90601f8493920160051c600080516020611c1383398151915201905b8181106109cf57506106eb565b8781558493506001016109c2565b600080516020611c1383398151915291506109a6565b634e487b7160e01b85526041600452602485fd5b60405162461bcd60e51b815260206004820152601c60248201527f5661756c74546f6b656e3a20696e76616c696420646563696d616c73000000006044820152606490fd5b60405162461bcd60e51b815260206004820152601860248201527f5661756c74546f6b656e3a20656d7074792073796d626f6c00000000000000006044820152606490fd5b60405162461bcd60e51b81526020600482015260166024820152755661756c74546f6b656e3a20656d707479206e616d6560501b6044820152606490fd5b60405162461bcd60e51b815260206004820152602160248201527f5661756c74546f6b656e3a20696e76616c6964207661756c74206164647265736044820152607360f81b6064820152608490fd5b60405162461bcd60e51b815260206004820152601f60248201527f5661756c74546f6b656e3a20616c726561647920696e697469616c697a6564006044820152606490fd5b8380fd5b8480fd5b5080fd5b5034610130578060031936011261013057610b9160ff60095460081c16611619565b610ba660018060a01b036006541633146116ec565b60055460ff81161580610bb7578280f35b156107c85760019060ff1916176005557f62e78cea01bee320cd4e420270b5ea74000d11b0c9f74754ebdbfc544b05a2586020604051338152a17fe7792495f34379948e170e2eaab4c10e47ffdd0999c32d6e9848e863802f188c8180a138808280f35b503461013057604036600319011261013057610c3561155a565b602435610c4960ff60095460081c16611619565b610c5e60018060a01b036006541633146116ec565b6001600160a01b038216918215610efa578115610ea4578284528360205281604085205410610e605781610c9391339061197e565b8115158080610e59575b610df8575b80610df1575b610d7f575b818352826020526040832054818110610d2f57817f1af5163f80e79b5e554f61e1d052084d3a3fe1166e42a265798c4e2ddce8ffa292602092858752868452036040862055806002540360025584847fddf252ad1be2c89b69c2b068fc378daa952ba7f163c4a11628f55a4df523b3ef84604051858152a3604051908152a280f35b60405162461bcd60e51b815260206004820152602260248201527f45524332303a206275726e20616d6f756e7420657863656564732062616c616e604482015261636560f01b6064820152608490fd5b60065483906001600160a01b0316803b610d9b575b5050610cad565b803b15610b6b57819060646040518094819363677ba3d360e01b83528860048401528160248401528760448401525af180156103ee57610ddd575b8390610d94565b83610dea9194929461158b565b9138610dd6565b5082610ca8565b60ff6005541615610ca2575b60405162461bcd60e51b815260206004820152602760248201527f5661756c74546f6b656e3a20746f6b656e207472616e73666572207768696c65604482015266081c185d5cd95960ca1b6064820152608490fd5b5083610c9d565b606460405162461bcd60e51b815260206004820152602060248201527f5661756c74546f6b656e3a20696e73756666696369656e742062616c616e63656044820152fd5b60405162461bcd60e51b815260206004820152602860248201527f5661756c74546f6b656e3a206275726e20616d6f756e74206d75737420626520604482015267706f73697469766560c01b6064820152608490fd5b60405162461bcd60e51b815260206004820152602260248201527f5661756c74546f6b656e3a206275726e2066726f6d207a65726f206164647265604482015261737360f01b6064820152608490fd5b5034610130578060031936011261013057610f636118c7565b60058054610100600160a81b03198116909155819060081c6001600160a01b03167f8be0079c531659141344cd1fd0a4f28419497f9722a3daafe3b4186f6b6457e08280a380f35b5034610130576020366003190112610130576020906040906001600160a01b03610fd361155a565b1681528083522054604051908152f35b5034610130578060031936011261013057602060ff600554166040519015158152f35b50346101305760403660031901126101305761102061155a565b6024359061103560ff60095460081c16611619565b61104a60018060a01b036006541633146116ec565b6001600160a01b031690811561112e5780156110d85760207fb9144c96c86541f6fa89c9f2f02495cccf4b08cd6643e26d34ee00aa586558a891611090816002546116c9565b6002558385528482526040852081815401905583857fddf252ad1be2c89b69c2b068fc378daa952ba7f163c4a11628f55a4df523b3ef84604051858152a3604051908152a280f35b60405162461bcd60e51b815260206004820152602860248201527f5661756c74546f6b656e3a206d696e7420616d6f756e74206d75737420626520604482015267706f73697469766560c01b6064820152608490fd5b606460405162461bcd60e51b815260206004820152602060248201527f5661756c74546f6b656e3a206d696e7420746f207a65726f20616464726573736044820152fd5b503461013057806003193601126101305761119460ff60095460081c16611619565b6111a960018060a01b036006541633146116ec565b6111b161187e565b6111b961187e565b60ff19600554166005557f5db9ee0a495bf2e6ff9c91a7834c1ba4fdd244a5e8aa4e537bd38aeae4b073aa6020604051338152a17f034f571e8421592eac76524eb9ce5c1ec88251bd2ea778a88cf713dbd15cfc338180a180f35b5034610130576040366003190112610130576102679061125e604061123761155a565b338452600160209081528285206001600160a01b03831686529052922054602435906116c9565b9033611776565b5034610130578060031936011261013057602060ff60095416604051908152f35b5034610130576060366003190112610130576112a061155a565b6112a8611575565b604435916112bd60ff60095460081c16611619565b6001600160a01b0381168061139d575b506001600160a01b038216806112f4575b5061026793506112ef83338361197e565b611a1b565b6006546040516351fb012d60e01b81526001600160a01b039091169190602081600481865afa908115611392578791611373575b50611334575b506112de565b602090602460405180948193633af32abf60e01b835260048301525afa90811561034b579061136c9161026796916102f2575061167d565b388061132e565b61138c915060203d60201161031a5761030c818361158b565b38611328565b6040513d89823e3d90fd5b6006546040516351fb012d60e01b81526001600160a01b039091169190602081600481865afa908115611392578791611417575b506113dd575b506112cd565b602090602460405180948193633af32abf60e01b835260048301525afa801561034b576114109186916102f2575061167d565b38806113d7565b611430915060203d60201161031a5761030c818361158b565b386113d1565b50346101305780600319360112610130576020600254604051908152f35b50346101305760403660031901126101305761026761147161155a565b6024359033611776565b823461013057806003193601126101305760075481611499826115df565b808552916001811690811561054457506001146114c0576104f5846104e98186038261158b565b60078152600080516020611c13833981519152939250905b8082106114f1575090915081016020016104e9826104d9565b9192600181602092548385880101520191019092916114d8565b60005b83811061151e5750506000910152565b818101518382015260200161150e565b6040916020825261154e815180928160208601526020868601910161150b565b601f01601f1916010190565b600435906001600160a01b038216820361157057565b600080fd5b602435906001600160a01b038216820361157057565b90601f8019910116810190811067ffffffffffffffff8211176115ad57604052565b634e487b7160e01b600052604160045260246000fd5b67ffffffffffffffff81116115ad57601f01601f191660200190565b90600182811c9216801561160f575b60208310146115f957565b634e487b7160e01b600052602260045260246000fd5b91607f16916115ee565b1561162057565b60405162461bcd60e51b815260206004820152601b60248201527f5661756c74546f6b656e3a206e6f7420696e697469616c697a656400000000006044820152606490fd5b90816020910312611570575180151581036115705790565b1561168457565b60405162461bcd60e51b815260206004820152601b60248201527f5661756c74546f6b656e3a206e6f742077686974656c697374656400000000006044820152606490fd5b919082018092116116d657565b634e487b7160e01b600052601160045260246000fd5b156116f357565b60405162461bcd60e51b815260206004820152601660248201527515985d5b1d151bdad95b8e881bdb9b1e481d985d5b1d60521b6044820152606490fd5b81601f82011215611570578051611747816115c3565b92611755604051948561158b565b8184526020828401011161157057611773916020808501910161150b565b90565b6001600160a01b031690811561182d576001600160a01b03169182156117dd5760207f8c5be1e5ebec7d5bd14f71427d1e84f3dd0314c0f7b2291e5b200ac8c7c3b925918360005260018252604060002085600052825280604060002055604051908152a3565b60405162461bcd60e51b815260206004820152602260248201527f45524332303a20617070726f766520746f20746865207a65726f206164647265604482015261737360f01b6064820152608490fd5b60405162461bcd60e51b8152602060048201526024808201527f45524332303a20617070726f76652066726f6d20746865207a65726f206164646044820152637265737360e01b6064820152608490fd5b60ff600554161561188b57565b60405162461bcd60e51b815260206004820152601460248201527314185d5cd8589b194e881b9bdd081c185d5cd95960621b6044820152606490fd5b60055460081c6001600160a01b031633036118de57565b606460405162461bcd60e51b815260206004820152602060248201527f4f776e61626c653a2063616c6c6572206973206e6f7420746865206f776e65726044820152fd5b60058054610100600160a81b03198116600884811b610100600160a81b0316919091179092556001600160a01b0392831692911c167f8be0079c531659141344cd1fd0a4f28419497f9722a3daafe3b4186f6b6457e0600080a3565b9060018060a01b0382166000526001602052604060002060018060a01b0382166000526020526040600020549260001984036119bb575b50505050565b8084106119d6576119cd930391611776565b388080806119b5565b60405162461bcd60e51b815260206004820152601d60248201527f45524332303a20696e73756666696369656e7420616c6c6f77616e63650000006044820152606490fd5b6000926001600160a01b03909116918215611bbf576001600160a01b0316928315611b6e5760ff60055416610e04576006546001600160a01b0316803b611b0f575b5082815280602052604081205491808310611abb57604082827fddf252ad1be2c89b69c2b068fc378daa952ba7f163c4a11628f55a4df523b3ef958760209652828652038282205586815280845220818154019055604051908152a3565b60405162461bcd60e51b815260206004820152602660248201527f45524332303a207472616e7366657220616d6f756e7420657863656564732062604482015265616c616e636560d01b6064820152608490fd5b803b15610b6b5781809160646040518094819363677ba3d360e01b83528960048401528a60248401528860448401525af18015611b63578290611b53575b50611a5d565b611b5c9161158b565b3881611b4d565b6040513d84823e3d90fd5b60405162461bcd60e51b815260206004820152602360248201527f45524332303a207472616e7366657220746f20746865207a65726f206164647260448201526265737360e81b6064820152608490fd5b60405162461bcd60e51b815260206004820152602560248201527f45524332303a207472616e736665722066726f6d20746865207a65726f206164604482015264647265737360d81b6064820152608490fdfea66cc928b5edb82af9bd49922954155ab7b0942694bea4ce44661d9a8736c688f3f7a9fe364faab93b216da50a3214154f22a0a2b415b23a84c8169e8b636ee3a26469706673582212205bb34ef5f86a85a5a9b7d3ce733d1069ac9095e755c6b38ca54797ba3bda12f964736f6c634300081a0033",
  "devdoc": {
    "details": "Vault share certificate token, supporting accumulated yield distribution",
    "events": {
      "Approval(address,address,uint256)": {
        "details": "Emitted when the allowance of a `spender` for an `owner` is set by a call to {approve}. `value` is the new allowance."
      },
      "Paused(address)": {
        "details": "Emitted when the pause is triggered by `account`."
      },
      "Transfer(address,address,uint256)": {
        "details": "Emitted when `value` tokens are moved from one account (`from`) to another (`to`). Note that `value` may be zero."
      },
      "Unpaused(address)": {
        "details": "Emitted when the pause is lifted by `account`."
      }
    },
    "kind": "dev",
    "methods": {
      "allowance(address,address)": {
        "details": "See {IERC20-allowance}."
      },
      "approve(address,uint256)": {
        "details": "See {IERC20-approve}. NOTE: If `amount` is the maximum `uint256`, the allowance is not updated on `transferFrom`. This is semantically equivalent to an infinite approval. Requirements: - `spender` cannot be the zero address."
      },
      "balanceOf(address)": {
        "details": "See {IERC20-balanceOf}."
      },
      "burnFrom(address,uint256)": {
        "details": "Burn function",
        "params": {
          "account": "Address to burn from",
          "amount": "Burn amount"
        }
      },
      "decimals()": {
        "details": "Query token decimals"
      },
      "decreaseAllowance(address,uint256)": {
        "details": "Atomically decreases the allowance granted to `spender` by the caller. This is an alternative to {approve} that can be used as a mitigation for problems described in {IERC20-approve}. Emits an {Approval} event indicating the updated allowance. Requirements: - `spender` cannot be the zero address. - `spender` must have allowance for the caller of at least `subtractedValue`."
      },
      "increaseAllowance(address,uint256)": {
        "details": "Atomically increases the allowance granted to `spender` by the caller. This is an alternative to {approve} that can be used as a mitigation for problems described in {IERC20-approve}. Emits an {Approval} event indicating the updated allowance. Requirements: - `spender` cannot be the zero address."
      },
      "initiate(address,bytes)": {
        "details": "Unified initialization interface",
        "params": {
          "_initData": "Encoded initialization data",
          "_vault": "Vault address"
        }
      },
      "mint(address,uint256)": {
        "details": "Mint function",
        "params": {
          "amount": "Mint amount",
          "to": "Recipient address"
        }
      },
      "name()": {
        "details": "Query token name"
      },
      "owner()": {
        "details": "Returns the address of the current owner."
      },
      "pause()": {
        "details": "Pause token transfers"
      },
      "paused()": {
        "details": "Query pause status"
      },
      "renounceOwnership()": {
        "details": "Leaves the contract without owner. It will not be possible to call `onlyOwner` functions. Can only be called by the current owner. NOTE: Renouncing ownership will leave the contract without an owner, thereby disabling any functionality that is only available to the owner."
      },
      "symbol()": {
        "details": "Query token symbol"
      },
      "totalSupply()": {
        "details": "See {IERC20-totalSupply}."
      },
      "transfer(address,uint256)": {
        "details": "transfer function, check whitelist for sender and recipient",
        "params": {
          "amount": "Transfer amount",
          "to": "Recipient address"
        }
      },
      "transferFrom(address,address,uint256)": {
        "details": "transferFrom function, check whitelist for sender and recipient",
        "params": {
          "amount": "Transfer amount",
          "from": "Sender address",
          "to": "Recipient address"
        }
      },
      "transferOwnership(address)": {
        "details": "Transfers ownership of the contract to a new account (`newOwner`). Can only be called by the current owner."
      },
      "unpause()": {
        "details": "Resume token transfers"
      }
    },
    "title": "VaultToken",
    "version": 1
  },
  "userdoc": {
    "kind": "user",
    "methods": {},
    "notice": "Inherits ERC20 standard, supports pause functionality, integrates with AccumulatedYield",
    "version": 1
  },
  "storageLayout": {
    "storage": [
      {
        "astId": 301,
        "contract": "contracts/v2/templates/token/VaultToken.sol:VaultToken",
        "label": "_balances",
        "offset": 0,
        "slot": "0",
        "type": "t_mapping(t_address,t_uint256)"
      },
      {
        "astId": 307,
        "contract": "contracts/v2/templates/token/VaultToken.sol:VaultToken",
        "label": "_allowances",
        "offset": 0,
        "slot": "1",
        "type": "t_mapping(t_address,t_mapping(t_address,t_uint256))"
      },
      {
        "astId": 309,
        "contract": "contracts/v2/templates/token/VaultToken.sol:VaultToken",
        "label": "_totalSupply",
        "offset": 0,
        "slot": "2",
        "type": "t_uint256"
      },
      {
        "astId": 311,
        "contract": "contracts/v2/templates/token/VaultToken.sol:VaultToken",
        "label": "_name",
        "offset": 0,
        "slot": "3",
        "type": "t_string_storage"
      },
      {
        "astId": 313,
        "contract": "contracts/v2/templates/token/VaultToken.sol:VaultToken",
        "label": "_symbol",
        "offset": 0,
        "slot": "4",
        "type": "t_string_storage"
      },
      {
        "astId": 130,
        "contract": "contracts/v2/templates/token/VaultToken.sol:VaultToken",
        "label": "_paused",
        "offset": 0,
        "slot": "5",
        "type": "t_bool"
      },
      {
        "astId": 7,
        "contract": "contracts/v2/templates/token/VaultToken.sol:VaultToken",
        "label": "_owner",
        "offset": 1,
        "slot": "5",
        "type": "t_address"
      },
      {
        "astId": 5448,
        "contract": "contracts/v2/templates/token/VaultToken.sol:VaultToken",
        "label": "vault",
        "offset": 0,
        "slot": "6",
        "type": "t_address"
      },
      {
        "astId": 5450,
        "contract": "contracts/v2/templates/token/VaultToken.sol:VaultToken",
        "label": "_tokenName",
        "offset": 0,
        "slot": "7",
        "type": "t_string_storage"
      },
      {
        "astId": 5452,
        "contract": "contracts/v2/templates/token/VaultToken.sol:VaultToken",
        "label": "_tokenSymbol",
        "offset": 0,
        "slot": "8",
        "type": "t_string_storage"
      },
      {
        "astId": 5454,
        "contract": "contracts/v2/templates/token/VaultToken.sol:VaultToken",
        "label": "_tokenDecimals",
        "offset": 0,
        "slot": "9",
        "type": "t_uint8"
      },
      {
        "astId": 5456,
        "contract": "contracts/v2/templates/token/VaultToken.sol:VaultToken",
        "label": "_initialized",
        "offset": 1,
        "slot": "9",
        "type": "t_bool"
      }
    ],
    "types": {
      "t_address": {
        "encoding": "inplace",
        "label": "address",
        "numberOfBytes": "20"
      },
      "t_bool": {
        "encoding": "inplace",
        "label": "bool",
        "numberOfBytes": "1"
      },
      "t_mapping(t_address,t_mapping(t_address,t_uint256))": {
        "encoding": "mapping",
        "key": "t_address",
        "label": "mapping(address => mapping(address => uint256))",
        "numberOfBytes": "32",
        "value": "t_mapping(t_address,t_uint256)"
      },
      "t_mapping(t_address,t_uint256)": {
        "encoding": "mapping",
        "key": "t_address",
        "label": "mapping(address => uint256)",
        "numberOfBytes": "32",
        "value": "t_uint256"
      },
      "t_string_storage": {
        "encoding": "bytes",
        "label": "string",
        "numberOfBytes": "32"
      },
      "t_uint256": {
        "encoding": "inplace",
        "label": "uint256",
        "numberOfBytes": "32"
      },
      "t_uint8": {
        "encoding": "inplace",
        "label": "uint8",
        "numberOfBytes": "1"
      }
    }
  }
}