{
  "address": "0x9A676e781A523b5d0C0e43731313A708CB607508",
  "abi": [
    {
      "inputs": [],
      "stateMutability": "nonpayable",
      "type": "constructor"
    },
    {
      "anonymous": false,
      "inputs": [
        {
          "indexed": false,
          "internalType": "uint256",
          "name": "amount",
          "type": "uint256"
        },
        {
          "indexed": false,
          "internalType": "uint256",
          "name": "timestamp",
          "type": "uint256"
        },
        {
          "indexed": true,
          "internalType": "address",
          "name": "validator",
          "type": "address"
        },
        {
          "indexed": false,
          "internalType": "bytes",
          "name": "signature",
          "type": "bytes"
        }
      ],
      "name": "DividendDistributed",
      "type": "event"
    },
    {
      "anonymous": false,
      "inputs": [
        {
          "indexed": true,
          "internalType": "address",
          "name": "oldTreasury",
          "type": "address"
        },
        {
          "indexed": true,
          "internalType": "address",
          "name": "newTreasury",
          "type": "address"
        }
      ],
      "name": "DividendTreasuryUpdated",
      "type": "event"
    },
    {
      "anonymous": false,
      "inputs": [
        {
          "indexed": true,
          "internalType": "address",
          "name": "shareToken",
          "type": "address"
        },
        {
          "indexed": true,
          "internalType": "address",
          "name": "rewardToken",
          "type": "address"
        },
        {
          "indexed": false,
          "internalType": "uint256",
          "name": "timestamp",
          "type": "uint256"
        }
      ],
      "name": "GlobalPoolInitialized",
      "type": "event"
    },
    {
      "anonymous": false,
      "inputs": [
        {
          "indexed": true,
          "internalType": "address",
          "name": "oldManager",
          "type": "address"
        },
        {
          "indexed": true,
          "internalType": "address",
          "name": "newManager",
          "type": "address"
        }
      ],
      "name": "ManagerUpdated",
      "type": "event"
    },
    {
      "anonymous": false,
      "inputs": [
        {
          "indexed": true,
          "internalType": "address",
          "name": "previousOwner",
          "type": "address"
        },
        {
          "indexed": true,
          "internalType": "address",
          "name": "newOwner",
          "type": "address"
        }
      ],
      "name": "OwnershipTransferred",
      "type": "event"
    },
    {
      "anonymous": false,
      "inputs": [
        {
          "indexed": true,
          "internalType": "address",
          "name": "user",
          "type": "address"
        },
        {
          "indexed": false,
          "internalType": "uint256",
          "name": "claimedAmount",
          "type": "uint256"
        },
        {
          "indexed": false,
          "internalType": "uint256",
          "name": "transferredAmount",
          "type": "uint256"
        },
        {
          "indexed": false,
          "internalType": "uint256",
          "name": "timestamp",
          "type": "uint256"
        }
      ],
      "name": "RewardClaimed",
      "type": "event"
    },
    {
      "anonymous": false,
      "inputs": [
        {
          "indexed": true,
          "internalType": "address",
          "name": "from",
          "type": "address"
        },
        {
          "indexed": true,
          "internalType": "address",
          "name": "to",
          "type": "address"
        },
        {
          "indexed": false,
          "internalType": "uint256",
          "name": "amount",
          "type": "uint256"
        },
        {
          "indexed": false,
          "internalType": "uint256",
          "name": "timestamp",
          "type": "uint256"
        }
      ],
      "name": "ShareTokenTransferred",
      "type": "event"
    },
    {
      "anonymous": false,
      "inputs": [
        {
          "indexed": true,
          "internalType": "address",
          "name": "user",
          "type": "address"
        },
        {
          "indexed": false,
          "internalType": "uint256",
          "name": "newAccumulatedShares",
          "type": "uint256"
        },
        {
          "indexed": false,
          "internalType": "uint256",
          "name": "timestamp",
          "type": "uint256"
        }
      ],
      "name": "UserPoolUpdated",
      "type": "event"
    },
    {
      "inputs": [
        {
          "internalType": "address",
          "name": "user",
          "type": "address"
        },
        {
          "internalType": "uint256",
          "name": "userBalance",
          "type": "uint256"
        }
      ],
      "name": "calculateAccumulatedShares",
      "outputs": [
        {
          "internalType": "uint256",
          "name": "",
          "type": "uint256"
        }
      ],
      "stateMutability": "view",
      "type": "function"
    },
    {
      "inputs": [],
      "name": "claimReward",
      "outputs": [],
      "stateMutability": "nonpayable",
      "type": "function"
    },
    {
      "inputs": [
        {
          "internalType": "uint256",
          "name": "dividendAmount",
          "type": "uint256"
        },
        {
          "internalType": "bytes",
          "name": "signature",
          "type": "bytes"
        }
      ],
      "name": "distributeDividend",
      "outputs": [],
      "stateMutability": "nonpayable",
      "type": "function"
    },
    {
      "inputs": [],
      "name": "dividendNonce",
      "outputs": [
        {
          "internalType": "uint256",
          "name": "",
          "type": "uint256"
        }
      ],
      "stateMutability": "view",
      "type": "function"
    },
    {
      "inputs": [],
      "name": "dividendTreasury",
      "outputs": [
        {
          "internalType": "address",
          "name": "",
          "type": "address"
        }
      ],
      "stateMutability": "view",
      "type": "function"
    },
    {
      "inputs": [],
      "name": "getDividendNonce",
      "outputs": [
        {
          "internalType": "uint256",
          "name": "",
          "type": "uint256"
        }
      ],
      "stateMutability": "view",
      "type": "function"
    },
    {
      "inputs": [],
      "name": "getDividendTreasury",
      "outputs": [
        {
          "internalType": "address",
          "name": "",
          "type": "address"
        }
      ],
      "stateMutability": "view",
      "type": "function"
    },
    {
      "inputs": [],
      "name": "getGlobalPoolInfo",
      "outputs": [
        {
          "components": [
            {
              "internalType": "uint256",
              "name": "totalAccumulatedShares",
              "type": "uint256"
            },
            {
              "internalType": "uint256",
              "name": "lastDividendTime",
              "type": "uint256"
            },
            {
              "internalType": "uint256",
              "name": "totalDividend",
              "type": "uint256"
            },
            {
              "internalType": "bool",
              "name": "isActive",
              "type": "bool"
            },
            {
              "internalType": "address",
              "name": "shareToken",
              "type": "address"
            },
            {
              "internalType": "address",
              "name": "rewardToken",
              "type": "address"
            }
          ],
          "internalType": "struct IAccumulatedYield.GlobalPoolInfo",
          "name": "",
          "type": "tuple"
        }
      ],
      "stateMutability": "view",
      "type": "function"
    },
    {
      "inputs": [],
      "name": "getManager",
      "outputs": [
        {
          "internalType": "address",
          "name": "",
          "type": "address"
        }
      ],
      "stateMutability": "view",
      "type": "function"
    },
    {
      "inputs": [
        {
          "internalType": "address",
          "name": "user",
          "type": "address"
        }
      ],
      "name": "getUserInfo",
      "outputs": [
        {
          "components": [
            {
              "internalType": "uint256",
              "name": "accumulatedShares",
              "type": "uint256"
            },
            {
              "internalType": "uint256",
              "name": "lastClaimTime",
              "type": "uint256"
            },
            {
              "internalType": "uint256",
              "name": "lastClaimDividend",
              "type": "uint256"
            },
            {
              "internalType": "uint256",
              "name": "totalClaimed",
              "type": "uint256"
            }
          ],
          "internalType": "struct IAccumulatedYield.UserInfo",
          "name": "",
          "type": "tuple"
        }
      ],
      "stateMutability": "view",
      "type": "function"
    },
    {
      "inputs": [],
      "name": "globalPool",
      "outputs": [
        {
          "internalType": "uint256",
          "name": "totalAccumulatedShares",
          "type": "uint256"
        },
        {
          "internalType": "uint256",
          "name": "lastDividendTime",
          "type": "uint256"
        },
        {
          "internalType": "uint256",
          "name": "totalDividend",
          "type": "uint256"
        },
        {
          "internalType": "bool",
          "name": "isActive",
          "type": "bool"
        },
        {
          "internalType": "address",
          "name": "shareToken",
          "type": "address"
        },
        {
          "internalType": "address",
          "name": "rewardToken",
          "type": "address"
        }
      ],
      "stateMutability": "view",
      "type": "function"
    },
    {
      "inputs": [
        {
          "internalType": "address",
          "name": "_vault",
          "type": "address"
        },
        {
          "internalType": "address",
          "name": "_vaultToken",
          "type": "address"
        },
        {
          "internalType": "bytes",
          "name": "_initData",
          "type": "bytes"
        }
      ],
      "name": "initiate",
      "outputs": [],
      "stateMutability": "nonpayable",
      "type": "function"
    },
    {
      "inputs": [],
      "name": "manager",
      "outputs": [
        {
          "internalType": "address",
          "name": "",
          "type": "address"
        }
      ],
      "stateMutability": "view",
      "type": "function"
    },
    {
      "inputs": [],
      "name": "owner",
      "outputs": [
        {
          "internalType": "address",
          "name": "",
          "type": "address"
        }
      ],
      "stateMutability": "view",
      "type": "function"
    },
    {
      "inputs": [
        {
          "internalType": "address",
          "name": "user",
          "type": "address"
        }
      ],
      "name": "pendingReward",
      "outputs": [
        {
          "internalType": "uint256",
          "name": "",
          "type": "uint256"
        }
      ],
      "stateMutability": "view",
      "type": "function"
    },
    {
      "inputs": [],
      "name": "renounceOwnership",
      "outputs": [],
      "stateMutability": "nonpayable",
      "type": "function"
    },
    {
      "inputs": [
        {
          "internalType": "address",
          "name": "_dividendTreasury",
          "type": "address"
        }
      ],
      "name": "setDividendTreasury",
      "outputs": [],
      "stateMutability": "nonpayable",
      "type": "function"
    },
    {
      "inputs": [
        {
          "internalType": "address",
          "name": "_manager",
          "type": "address"
        }
      ],
      "name": "setManager",
      "outputs": [],
      "stateMutability": "nonpayable",
      "type": "function"
    },
    {
      "inputs": [],
      "name": "totalAccumulatedShares",
      "outputs": [
        {
          "internalType": "uint256",
          "name": "",
          "type": "uint256"
        }
      ],
      "stateMutability": "view",
      "type": "function"
    },
    {
      "inputs": [],
      "name": "totalDividend",
      "outputs": [
        {
          "internalType": "uint256",
          "name": "",
          "type": "uint256"
        }
      ],
      "stateMutability": "view",
      "type": "function"
    },
    {
      "inputs": [
        {
          "internalType": "address",
          "name": "newOwner",
          "type": "address"
        }
      ],
      "name": "transferOwnership",
      "outputs": [],
      "stateMutability": "nonpayable",
      "type": "function"
    },
    {
      "inputs": [
        {
          "internalType": "bool",
          "name": "isActive",
          "type": "bool"
        }
      ],
      "name": "updateGlobalPoolStatus",
      "outputs": [],
      "stateMutability": "nonpayable",
      "type": "function"
    },
    {
      "inputs": [
        {
          "internalType": "address",
          "name": "from",
          "type": "address"
        },
        {
          "internalType": "address",
          "name": "to",
          "type": "address"
        },
        {
          "internalType": "uint256",
          "name": "amount",
          "type": "uint256"
        }
      ],
      "name": "updateUserPoolsOnTransfer",
      "outputs": [],
      "stateMutability": "nonpayable",
      "type": "function"
    },
    {
      "inputs": [
        {
          "internalType": "address",
          "name": "",
          "type": "address"
        }
      ],
      "name": "users",
      "outputs": [
        {
          "internalType": "uint256",
          "name": "accumulatedShares",
          "type": "uint256"
        },
        {
          "internalType": "uint256",
          "name": "lastClaimTime",
          "type": "uint256"
        },
        {
          "internalType": "uint256",
          "name": "lastClaimDividend",
          "type": "uint256"
        },
        {
          "internalType": "uint256",
          "name": "totalClaimed",
          "type": "uint256"
        }
      ],
      "stateMutability": "view",
      "type": "function"
    },
    {
      "inputs": [],
      "name": "vault",
      "outputs": [
        {
          "internalType": "address",
          "name": "",
          "type": "address"
        }
      ],
      "stateMutability": "view",
      "type": "function"
    }
  ],
  "transactionHash": "0x9028a8e823ca87da63521a214887242c5b0681810b979e8e527b48357c4d125d",
  "args": [],
  "numDeployments": 1,
  "solcInputHash": "cae1dd62554d52e09fb9f916bdfeb2b7",
  "bytecode": "0x60808060405234605d57600160008181558154336001600160a01b0319821681179093556001600160a01b0316907f8be0079c531659141344cd1fd0a4f28419497f9722a3daafe3b4186f6b6457e09080a3611da690816100638239f35b600080fdfe608080604052600436101561001357600080fd5b60003560e01c9081630354489a1461118a575080630b7c8a2a1461106257806315c2b81414610c9e578063275d660a14610c6b5780632bb7e33c146109a35780633911578414610944578063481c6a75146102e35780634b6acafb14610926578063526aefaf146108ff5780636386c1c71461085e578063715018a6146108015780638da5cb5b146107d85780639ba7361614610701578063a652883e14610603578063a87430ba146105a7578063b88a802f146103de578063bec5a151146103c0578063cf6afb77146102ba578063d0ebdbe71461030c578063d5009584146102e3578063e5080f35146102ba578063f2fde38b1461022b578063f40f0f5214610200578063f9eb5c09146101605763fbfa77cf1461013257600080fd5b3461015b57600036600319011261015b576008546040516001600160a01b039091168152602090f35b600080fd5b3461015b57602036600319011261015b57610179611278565b61018e60018060a01b036009541633146112a4565b6005546101a89060081c6001600160a01b031615156112f0565b6001600160a01b03166101bc811515611649565b600a80546001600160a01b0319811683179091556001600160a01b03167fb848ed3d9bc14fd1a853fa5476c4a015f9cf7e25fa66ee9731b25327497ca6e0600080a3005b3461015b57602036600319011261015b57602061022361021e611278565b6115bb565b604051908152f35b3461015b57602036600319011261015b57610244611278565b61024c6116ff565b6001600160a01b038116156102665761026490611757565b005b60405162461bcd60e51b815260206004820152602660248201527f4f776e61626c653a206e6577206f776e657220697320746865207a65726f206160448201526564647265737360d01b6064820152608490fd5b3461015b57600036600319011261015b57600a546040516001600160a01b039091168152602090f35b3461015b57600036600319011261015b576009546040516001600160a01b039091168152602090f35b3461015b57602036600319011261015b57610325611278565b61032d6116ff565b6005546103479060081c6001600160a01b031615156112f0565b6001600160a01b0381169061035d821515611565565b600980546001600160a01b0319811684179091556001546001600160a01b0391821692911682146103b1575b507fdac3632743b879638fd2d51c4d3c1dd796615b4758a55b50b0c19b971ba9fbc7600080a3005b6103ba90611757565b82610389565b3461015b57600036600319011261015b576020600254604051908152f35b3461015b57600036600319011261015b5761041460055461040160ff82166113bb565b60081c6001600160a01b031615156112f0565b61041c6116a9565b610425336117a0565b33600052600760205260406000206024602060018060a01b0360055460081c16604051928380926370a0823160e01b82523360048301525afa801561059b57600090610567575b6104779150336118c4565b908115610516576003810161048d838254611411565b9055426001919091015560065460405163a9059cbb60e01b6020820152336024820152604480820184905281526104d7916001600160a01b03166104d26064836111f3565b611b40565b6040519080825260208201524260408201527f812be816db82c66cd18ca8457005cd84689642d8ac4d38599cc6af444a2dc72a60603392a26001600055005b60405162461bcd60e51b815260206004820152602360248201527f416363756d756c617465645969656c643a206e6f2070656e64696e6720726577604482015262185c9960ea1b6064820152608490fd5b506020813d602011610593575b81610581602093836111f3565b8101031261015b57610477905161046c565b3d9150610574565b6040513d6000823e3d90fd5b3461015b57602036600319011261015b576001600160a01b036105c8611278565b166000526007602052608060406000208054906001810154906003600282015491015491604051938452602084015260408301526060820152f35b3461015b57606036600319011261015b5761061c611278565b61062461128e565b6008549091906001600160a01b031633036106ae576001600160a01b038116908161069f575b506001600160a01b0382169182610690575b507ff92bc2ddaeb2d9f248229991a5e35e3b5bf400cc935c2ab6053793a55e60d5b2604080516044358152426020820152a3005b610699906117a0565b8261065c565b6106a8906117a0565b8261064a565b60405162461bcd60e51b815260206004820152602560248201527f416363756d756c617465645969656c643a206f6e6c79207661756c742063616e6044820152640818d85b1b60da1b6064820152608490fd5b3461015b57600036600319011261015b57600060a0604051610722816111a5565b828152826020820152826040820152826060820152826080820152015260c060405161074d816111a5565b6002549081815260035460208201908152600454906040830191825260055491606084019160ff841615158352608085019360018060a01b039060081c16845260a0600180821b03600654169501948552604051958652516020860152516040850152511515606084015260018060a01b03905116608083015260018060a01b0390511660a0820152f35b3461015b57600036600319011261015b576001546040516001600160a01b039091168152602090f35b3461015b57600036600319011261015b5761081a6116ff565b600180546001600160a01b031981169091556000906001600160a01b03167f8be0079c531659141344cd1fd0a4f28419497f9722a3daafe3b4186f6b6457e08280a3005b3461015b57602036600319011261015b57610877611278565b60006060604051610887816111d7565b828152826020820152826040820152015260018060a01b03166000526007602052608060406000206040516108bb816111d7565b815491828252600181015460208301908152606060036002840154936040860194855201549301928352604051938452516020840152516040830152516060820152f35b3461015b57604036600319011261015b57602061022361091d611278565b602435906114df565b3461015b57600036600319011261015b576020600454604051908152f35b3461015b57600036600319011261015b576002546003546004546005546006546040805195865260208601949094529284019190915260ff81161515606084015260081c6001600160a01b0390811660808401521660a082015260c090f35b3461015b57606036600319011261015b576109bc611278565b6109c461128e565b60443567ffffffffffffffff811161015b576109e4903690600401611231565b916001600160a01b031680151591906109fc83611472565b60608480518101031261015b57610a15602085016114be565b610a2d6060610a26604088016114be565b96016114be565b6005546001600160a01b0392831696918316959183169260089190911c16610c1857610a5890611472565b610a63811515611565565b610a6e841515611649565b6001600160a01b038316938415610bc5578515610b7157610ac8926001600160601b0360a01b6008541617600855816001600160601b0360a01b60095416176009556001600160601b0360a01b600a541617600a55611757565b8260a0604051610ad7816111a5565b6000815242602082015260006040820152600060608201528460808201520152600060025542600355600060045560ff196005541660055560055490610100600160a81b039060081b1690610100600160a81b03191617600555816001600160601b0360a01b60065416176006557fd0fca15c379f5bbae8ca9e1d0b80323a86a6ec7263e540cb328cca7dc74f4dd96020604051428152a3005b60405162461bcd60e51b815260206004820152602660248201527f416363756d756c617465645969656c643a20696e76616c696420726577617264604482015265103a37b5b2b760d11b6064820152608490fd5b60405162461bcd60e51b815260206004820152602560248201527f416363756d756c617465645969656c643a20696e76616c6964207368617265206044820152643a37b5b2b760d91b6064820152608490fd5b60405162461bcd60e51b815260206004820152602560248201527f416363756d756c617465645969656c643a20616c726561647920696e697469616044820152641b1a5e995960da1b6064820152608490fd5b3461015b57600036600319011261015b57610c9160018060a01b03600a5416331461135e565b6020600b54604051908152f35b3461015b57604036600319011261015b5760043560243567ffffffffffffffff811161015b57610cd2903690600401611231565b610ce760018060a01b03600a5416331461135e565b610cf960055461040160ff82166113bb565b610d016116a9565b811561100b57600854604051633a5381b560e01b81529091906020816004816001600160a01b0387165afa90811561059b57600091610fc2575b506001600160a01b0316928315610f7157600b549260405160208101916001600160601b03199060601b16825282603482015284605482015260548152610d836074826111f3565b5190207f19457468657265756d205369676e6564204d6573736167653a0a333200000000600052601c5283610dc7610dbf84603c6000206119ee565b919091611a26565b6001600160a01b031603610f20576000198314610f0a57600160049301600b55610e2760018060a01b0360065416604051906323b872dd60e01b6020830152336024830152306044830152836064830152606482526104d26084836111f3565b610e32818454611411565b8355426003556005546040516318160ddd60e01b815293602091859190829060081c6001600160a01b03165afa92831561059b57600093610ed4575b50610ea5610e9d827fe8af7530ddd6b2b1e6f8ceb5e9e1296634589c9fffc26c4807550c1ca9e1cf299561141e565b600254611411565b600255610eca6040519283928352426020840152606060408401526060830190611431565b0390a26001600055005b92506020833d602011610f02575b81610eef602093836111f3565b8101031261015b57915191610ea5610e6e565b3d9150610ee2565b634e487b7160e01b600052601160045260246000fd5b60405162461bcd60e51b815260206004820152602360248201527f416363756d756c617465645969656c643a20696e76616c6964207369676e617460448201526275726560e81b6064820152608490fd5b60405162461bcd60e51b815260206004820152602360248201527f416363756d756c617465645969656c643a2076616c696461746f72206e6f74206044820152621cd95d60ea1b6064820152608490fd5b6020813d602011611003575b81610fdb602093836111f3565b81010312610fff5751906001600160a01b0382168203610ffc575084610d3b565b80fd5b5080fd5b3d9150610fce565b60405162461bcd60e51b815260206004820152602960248201527f416363756d756c617465645969656c643a20696e76616c6964206469766964656044820152681b9908185b5bdd5b9d60ba1b6064820152608490fd5b3461015b57602036600319011261015b5760043580151580820361015b5761109560018060a01b036009541633146112a4565b600554916110b1600884901c6001600160a01b031615156112f0565b6110c7575b60ff169060ff191617600555600080f35b600854604051637c51e47960e11b815290602090829060049082906001600160a01b03165afa90811561059b5760009161115b575b506110b65760405162461bcd60e51b815260206004820152602c60248201527f416363756d756c617465645969656c643a2066756e64696e6720776173206e6f60448201526b1d081cdd58d8d95cdcd99d5b60a21b6064820152608490fd5b61117d915060203d602011611183575b61117581836111f3565b810190611346565b836110fc565b503d61116b565b3461015b57600036600319011261015b57602090600b548152f35b60c0810190811067ffffffffffffffff8211176111c157604052565b634e487b7160e01b600052604160045260246000fd5b6080810190811067ffffffffffffffff8211176111c157604052565b90601f8019910116810190811067ffffffffffffffff8211176111c157604052565b67ffffffffffffffff81116111c157601f01601f191660200190565b81601f8201121561015b5780359061124882611215565b9261125660405194856111f3565b8284526020838301011161015b57816000926020809301838601378301015290565b600435906001600160a01b038216820361015b57565b602435906001600160a01b038216820361015b57565b156112ab57565b60405162461bcd60e51b815260206004820152601e60248201527f416363756d756c617465645969656c643a206f6e6c79206d616e6167657200006044820152606490fd5b156112f757565b60405162461bcd60e51b815260206004820152602160248201527f416363756d756c617465645969656c643a206e6f7420696e697469616c697a656044820152601960fa1b6064820152608490fd5b9081602091031261015b5751801515810361015b5790565b1561136557565b60405162461bcd60e51b815260206004820152602860248201527f416363756d756c617465645969656c643a206f6e6c79206469766964656e6420604482015267747265617375727960c01b6064820152608490fd5b156113c257565b60405162461bcd60e51b815260206004820152602160248201527f416363756d756c617465645969656c643a20706f6f6c206e6f742061637469766044820152606560f81b6064820152608490fd5b91908201809211610f0a57565b81810292918115918404141715610f0a57565b919082519283825260005b84811061145d575050826000602080949584010152601f8019910116010190565b8060208092840101518282860101520161143c565b1561147957565b60405162461bcd60e51b815260206004820152601f60248201527f416363756d756c617465645969656c643a20696e76616c6964207661756c74006044820152606490fd5b51906001600160a01b038216820361015b57565b91908203918211610f0a57565b60055490919060081c6001600160a01b03161561155e5761155b9160018060a01b03166000526007602052611555604060002061154d60405191611522836111d7565b80548352600181015460208401526003600282015491826040860152015460608401526004546114d2565b90519261141e565b90611411565b90565b5050600090565b1561156c57565b60405162461bcd60e51b815260206004820152602160248201527f416363756d756c617465645969656c643a20696e76616c6964206d616e6167656044820152603960f91b6064820152608490fd5b60055460081c6001600160a01b031690811561155e576040516370a0823160e01b81526001600160a01b038216600482015291602090839060249082905afa90811561059b57600091611613575b61155b92506118c4565b90506020823d602011611641575b8161162e602093836111f3565b8101031261015b5761155b915190611609565b3d9150611621565b1561165057565b60405162461bcd60e51b815260206004820152602b60248201527f416363756d756c617465645969656c643a20696e76616c69642064697669646560448201526a6e6420747265617375727960a81b6064820152608490fd5b6002600054146116ba576002600055565b60405162461bcd60e51b815260206004820152601f60248201527f5265656e7472616e637947756172643a207265656e7472616e742063616c6c006044820152606490fd5b6001546001600160a01b0316330361171357565b606460405162461bcd60e51b815260206004820152602060248201527f4f776e61626c653a2063616c6c6572206973206e6f7420746865206f776e65726044820152fd5b600180546001600160a01b039283166001600160a01b0319821681179092559091167f8be0079c531659141344cd1fd0a4f28419497f9722a3daafe3b4186f6b6457e0600080a3565b60055460081c6001600160a01b03169081156118c05760018060a01b03169081600052600760205260246020604060002092604051928380926370a0823160e01b82528760048301525afa90811561059b5760009161186e575b507f03042d1ac6ef214f4d246cd1184e5d536ba09afdc4efeec5d74d432384cb97dd916040916004549061183460028401928354906114d2565b9081611851575b50506004549055548151908152426020820152a2565b6118659161185e9161141e565b8354611411565b8255388061183b565b90506020813d6020116118b8575b81611889602093836111f3565b8101031261015b57517f03042d1ac6ef214f4d246cd1184e5d536ba09afdc4efeec5d74d432384cb97dd6117fa565b3d915061187c565b5050565b60055460081c6001600160a01b03161580156119e4575b61155e5760018060a01b03166000526007602052604060002060405191611901836111d7565b8154808452600183015460208501526060600360028501549485604088015201549401938452809161193660045494856114d2565b90816119cd575b50505080156119c557600254801592909190836119b95761195d9161141e565b91670de0b6b3a7640000830292808404670de0b6b3a76400001490151715610f0a576119a357670de0b6b3a7640000910404905b518082111561155e5761155b916114d2565b634e487b7160e01b600052601260045260246000fd5b50505050600090611991565b505050600090565b6119dc9350906115559161141e565b38808061193d565b50600254156118db565b906041815114600014611a1c57611a18916020820151906060604084015193015160001a90611c53565b9091565b5050600090600290565b6005811015611b2a5780611a375750565b60018103611a845760405162461bcd60e51b815260206004820152601860248201527f45434453413a20696e76616c6964207369676e617475726500000000000000006044820152606490fd5b60028103611ad15760405162461bcd60e51b815260206004820152601f60248201527f45434453413a20696e76616c6964207369676e6174757265206c656e677468006044820152606490fd5b600314611ada57565b60405162461bcd60e51b815260206004820152602260248201527f45434453413a20696e76616c6964207369676e6174757265202773272076616c604482015261756560f01b6064820152608490fd5b634e487b7160e01b600052602160045260246000fd5b604080519092611bc4926001600160a01b0316906000908190611b6387866111f3565b602085527f5361666545524332303a206c6f772d6c6576656c2063616c6c206661696c6564602086015260208151910182855af13d15611c4b573d91611ba883611215565b92611bb5875194856111f3565b83523d6000602085013e611cd3565b8051908115918215611c31575b505015611bdb5750565b5162461bcd60e51b815260206004820152602a60248201527f5361666545524332303a204552433230206f7065726174696f6e20646964206e6044820152691bdd081cdd58d8d9595960b21b6064820152608490fd5b611c449250602080918301019101611346565b3880611bd1565b606091611cd3565b7f7fffffffffffffffffffffffffffffff5d576e7357a4501ddfe92f46681b20a08411611cc75760209360009360ff60809460405194855216868401526040830152606082015282805260015afa1561059b576000516001600160a01b03811615611cbe5790600090565b50600090600190565b50505050600090600390565b91929015611d355750815115611ce7575090565b3b15611cf05790565b60405162461bcd60e51b815260206004820152601d60248201527f416464726573733a2063616c6c20746f206e6f6e2d636f6e74726163740000006044820152606490fd5b825190915015611d485750805190602001fd5b60405162461bcd60e51b815260206004820152908190611d6c906024830190611431565b0390fdfea26469706673582212201a36aa73c12e1a7cedb0bcd609a41950f57d6800eb576a912dd160db1e4e3a2d64736f6c634300081a0033",
  "devdoc": {
    "details": "Accumulated yield template implementation, providing yield distribution based on token holdings",
    "events": {
      "DividendDistributed(uint256,uint256,address,bytes)": {
        "details": "Dividend distribution event"
      },
      "DividendTreasuryUpdated(address,address)": {
        "details": "Dividend treasury update event"
      },
      "GlobalPoolInitialized(address,address,uint256)": {
        "details": "Global pool initialization event"
      },
      "ManagerUpdated(address,address)": {
        "details": "Manager update event"
      },
      "RewardClaimed(address,uint256,uint256,uint256)": {
        "details": "Reward claim event"
      },
      "ShareTokenTransferred(address,address,uint256,uint256)": {
        "details": "Token transfer event (for tracking transfers that affect yield)"
      },
      "UserPoolUpdated(address,uint256,uint256)": {
        "details": "User pool update event"
      }
    },
    "kind": "dev",
    "methods": {
      "calculateAccumulatedShares(address,uint256)": {
        "details": "Calculate user's accumulated shares at specified balance",
        "params": {
          "user": "User address",
          "userBalance": "Specified user balance"
        },
        "returns": {
          "_0": "Accumulated shares"
        }
      },
      "claimReward()": {
        "details": "User claim rewards"
      },
      "constructor": {
        "details": "Constructor"
      },
      "distributeDividend(uint256,bytes)": {
        "details": "Distribute dividend to global pool",
        "params": {
          "dividendAmount": "Distribution amount",
          "signature": "Dividend signature"
        }
      },
      "getDividendNonce()": {
        "details": "dividendNonce",
        "returns": {
          "_0": "dividendNonce"
        }
      },
      "getDividendTreasury()": {
        "details": "Query dividend treasury address",
        "returns": {
          "_0": "Dividend treasury address"
        }
      },
      "getGlobalPoolInfo()": {
        "details": "Query global pool information",
        "returns": {
          "_0": "Global pool information structure"
        }
      },
      "getManager()": {
        "details": "Query current manager",
        "returns": {
          "_0": "Manager address"
        }
      },
      "getUserInfo(address)": {
        "details": "Query user information",
        "params": {
          "user": "User address"
        },
        "returns": {
          "_0": "User information structure"
        }
      },
      "initiate(address,address,bytes)": {
        "details": "Unified initialization interface",
        "params": {
          "_initData": "Encoded initialization data (contains token and original initData)",
          "_vault": "Vault address",
          "_vaultToken": "Vault token address"
        }
      },
      "owner()": {
        "details": "Returns the address of the current owner."
      },
      "pendingReward(address)": {
        "details": "Query user's pending rewards",
        "params": {
          "user": "User address"
        },
        "returns": {
          "_0": "Pending reward amount"
        }
      },
      "renounceOwnership()": {
        "details": "Leaves the contract without owner. It will not be possible to call `onlyOwner` functions. Can only be called by the current owner. NOTE: Renouncing ownership will leave the contract without an owner, thereby disabling any functionality that is only available to the owner."
      },
      "setDividendTreasury(address)": {
        "details": "Set dividend treasury address",
        "params": {
          "_dividendTreasury": "New dividend treasury address"
        }
      },
      "setManager(address)": {
        "details": "Set manager",
        "params": {
          "_manager": "New manager address"
        }
      },
      "totalAccumulatedShares()": {
        "details": "Query global pool total accumulated shares",
        "returns": {
          "_0": "Total accumulated shares"
        }
      },
      "totalDividend()": {
        "details": "Query global pool total dividend amount",
        "returns": {
          "_0": "Total dividend amount"
        }
      },
      "transferOwnership(address)": {
        "details": "Transfers ownership of the contract to a new account (`newOwner`). Can only be called by the current owner."
      },
      "updateGlobalPoolStatus(bool)": {
        "details": "Update global pool status",
        "params": {
          "isActive": "Whether to activate"
        }
      },
      "updateUserPoolsOnTransfer(address,address,uint256)": {
        "details": "Update user pools on token transfer (core functionality)",
        "params": {
          "amount": "Transfer amount",
          "from": "Transfer from address",
          "to": "Transfer to address"
        }
      }
    },
    "title": "AccumulatedYield",
    "version": 1
  },
  "userdoc": {
    "kind": "user",
    "methods": {},
    "notice": "Supports accumulated yield and real-time claiming, similar to MasterChef design",
    "version": 1
  },
  "storageLayout": {
    "storage": [
      {
        "astId": 4744,
        "contract": "contracts/v2/templates/yield/AccumulatedYield.sol:AccumulatedYield",
        "label": "_status",
        "offset": 0,
        "slot": "0",
        "type": "t_uint256"
      },
      {
        "astId": 3547,
        "contract": "contracts/v2/templates/yield/AccumulatedYield.sol:AccumulatedYield",
        "label": "_owner",
        "offset": 0,
        "slot": "1",
        "type": "t_address"
      },
      {
        "astId": 18201,
        "contract": "contracts/v2/templates/yield/AccumulatedYield.sol:AccumulatedYield",
        "label": "globalPool",
        "offset": 0,
        "slot": "2",
        "type": "t_struct(GlobalPoolInfo)14076_storage"
      },
      {
        "astId": 18206,
        "contract": "contracts/v2/templates/yield/AccumulatedYield.sol:AccumulatedYield",
        "label": "users",
        "offset": 0,
        "slot": "7",
        "type": "t_mapping(t_address,t_struct(UserInfo)14086_storage)"
      },
      {
        "astId": 18208,
        "contract": "contracts/v2/templates/yield/AccumulatedYield.sol:AccumulatedYield",
        "label": "vault",
        "offset": 0,
        "slot": "8",
        "type": "t_address"
      },
      {
        "astId": 18210,
        "contract": "contracts/v2/templates/yield/AccumulatedYield.sol:AccumulatedYield",
        "label": "manager",
        "offset": 0,
        "slot": "9",
        "type": "t_address"
      },
      {
        "astId": 18212,
        "contract": "contracts/v2/templates/yield/AccumulatedYield.sol:AccumulatedYield",
        "label": "dividendTreasury",
        "offset": 0,
        "slot": "10",
        "type": "t_address"
      },
      {
        "astId": 18214,
        "contract": "contracts/v2/templates/yield/AccumulatedYield.sol:AccumulatedYield",
        "label": "dividendNonce",
        "offset": 0,
        "slot": "11",
        "type": "t_uint256"
      }
    ],
    "types": {
      "t_address": {
        "encoding": "inplace",
        "label": "address",
        "numberOfBytes": "20"
      },
      "t_bool": {
        "encoding": "inplace",
        "label": "bool",
        "numberOfBytes": "1"
      },
      "t_mapping(t_address,t_struct(UserInfo)14086_storage)": {
        "encoding": "mapping",
        "key": "t_address",
        "label": "mapping(address => struct IAccumulatedYield.UserInfo)",
        "numberOfBytes": "32",
        "value": "t_struct(UserInfo)14086_storage"
      },
      "t_struct(GlobalPoolInfo)14076_storage": {
        "encoding": "inplace",
        "label": "struct IAccumulatedYield.GlobalPoolInfo",
        "members": [
          {
            "astId": 14065,
            "contract": "contracts/v2/templates/yield/AccumulatedYield.sol:AccumulatedYield",
            "label": "totalAccumulatedShares",
            "offset": 0,
            "slot": "0",
            "type": "t_uint256"
          },
          {
            "astId": 14067,
            "contract": "contracts/v2/templates/yield/AccumulatedYield.sol:AccumulatedYield",
            "label": "lastDividendTime",
            "offset": 0,
            "slot": "1",
            "type": "t_uint256"
          },
          {
            "astId": 14069,
            "contract": "contracts/v2/templates/yield/AccumulatedYield.sol:AccumulatedYield",
            "label": "totalDividend",
            "offset": 0,
            "slot": "2",
            "type": "t_uint256"
          },
          {
            "astId": 14071,
            "contract": "contracts/v2/templates/yield/AccumulatedYield.sol:AccumulatedYield",
            "label": "isActive",
            "offset": 0,
            "slot": "3",
            "type": "t_bool"
          },
          {
            "astId": 14073,
            "contract": "contracts/v2/templates/yield/AccumulatedYield.sol:AccumulatedYield",
            "label": "shareToken",
            "offset": 1,
            "slot": "3",
            "type": "t_address"
          },
          {
            "astId": 14075,
            "contract": "contracts/v2/templates/yield/AccumulatedYield.sol:AccumulatedYield",
            "label": "rewardToken",
            "offset": 0,
            "slot": "4",
            "type": "t_address"
          }
        ],
        "numberOfBytes": "160"
      },
      "t_struct(UserInfo)14086_storage": {
        "encoding": "inplace",
        "label": "struct IAccumulatedYield.UserInfo",
        "members": [
          {
            "astId": 14079,
            "contract": "contracts/v2/templates/yield/AccumulatedYield.sol:AccumulatedYield",
            "label": "accumulatedShares",
            "offset": 0,
            "slot": "0",
            "type": "t_uint256"
          },
          {
            "astId": 14081,
            "contract": "contracts/v2/templates/yield/AccumulatedYield.sol:AccumulatedYield",
            "label": "lastClaimTime",
            "offset": 0,
            "slot": "1",
            "type": "t_uint256"
          },
          {
            "astId": 14083,
            "contract": "contracts/v2/templates/yield/AccumulatedYield.sol:AccumulatedYield",
            "label": "lastClaimDividend",
            "offset": 0,
            "slot": "2",
            "type": "t_uint256"
          },
          {
            "astId": 14085,
            "contract": "contracts/v2/templates/yield/AccumulatedYield.sol:AccumulatedYield",
            "label": "totalClaimed",
            "offset": 0,
            "slot": "3",
            "type": "t_uint256"
          }
        ],
        "numberOfBytes": "128"
      },
      "t_uint256": {
        "encoding": "inplace",
        "label": "uint256",
        "numberOfBytes": "32"
      }
    }
  }
}