{
  "address": "0xCf7Ed3AccA5a467e9e704C703E8D87F634fB0Fc9",
  "abi": [
    {
      "inputs": [],
      "stateMutability": "nonpayable",
      "type": "constructor"
    },
    {
      "anonymous": false,
      "inputs": [
        {
          "indexed": false,
          "internalType": "address",
          "name": "proxy",
          "type": "address"
        },
        {
          "indexed": false,
          "internalType": "address",
          "name": "proxyAdmin",
          "type": "address"
        },
        {
          "indexed": false,
          "internalType": "address",
          "name": "implementation",
          "type": "address"
        },
        {
          "indexed": false,
          "internalType": "address",
          "name": "guardian",
          "type": "address"
        }
      ],
      "name": "YieldDeployed",
      "type": "event"
    },
    {
      "inputs": [
        {
          "internalType": "address",
          "name": "vault",
          "type": "address"
        },
        {
          "internalType": "address",
          "name": "vaultToken",
          "type": "address"
        },
        {
          "internalType": "bytes",
          "name": "initData",
          "type": "bytes"
        },
        {
          "internalType": "address",
          "name": "guardian",
          "type": "address"
        }
      ],
      "name": "newYield",
      "outputs": [
        {
          "internalType": "address",
          "name": "",
          "type": "address"
        },
        {
          "internalType": "address",
          "name": "",
          "type": "address"
        },
        {
          "internalType": "address",
          "name": "",
          "type": "address"
        }
      ],
      "stateMutability": "nonpayable",
      "type": "function"
    }
  ],
  "transactionHash": "0x7ddf5d986eb094fc1d45416ad7f6723341512fa7ad1d8cc9ffa5819f113cbd1a",
  "args": [],
  "numDeployments": 1,
  "solcInputHash": "bf854f03069a11264233a9803646134e",
  "bytecode": "0x60808060405234601557613818908161001b8239f35b600080fdfe608080604052600436101561001357600080fd5b600090813560e01c63d6f8680b1461002a57600080fd5b346103ae5760803660031901126103ae576004356001600160a01b038116908190036103a6576024356001600160a01b03811692908390036102e35760443567ffffffffffffffff81116103aa57366023820112156103aa57806004013567ffffffffffffffff81116102f2578591906100ae601f8201601f1916602001856103b2565b80845236602482840101116103a6578060246020930183860137830101526064356001600160a01b03811694908590036102aa57841561033b576040516121148082019082821067ffffffffffffffff831117610327579082916116cf8339039082f092831561031a5760405161066f8082019082821067ffffffffffffffff831117610306579082916103eb8339039083f09384156102ad576040516001600160a01b03918216959091169390610c758082019067ffffffffffffffff8211838310176102f2576080918391610a5a83398881528760208201526060604082015286606082015203019084f080156102e7576001600160a01b031695863b156102e357918391604051938492630aedf8cf60e21b84526004840152602483015260606044830152805190816064840152835b8281106102c85750508181846084809484010152601f8019910116810103018183895af180156102ad5782906102b8575b5050813b156102aa5760405163f2fde38b60e01b815260048101869052818160248183875af180156102ad57610295575b50507fc27bcd4e88c955d2e53c1c720496a2851aab2f8c9ae34f51aa9b3c115c6af54f60806060956040519086825284602083015285604083015287820152a160405192835260208301526040820152f35b6102a08280926103b2565b6102aa5780610243565b80fd5b6040513d84823e3d90fd5b6102c1916103b2565b3881610212565b602081830181015160848884010152879550869450016101e1565b8380fd5b6040513d85823e3d90fd5b634e487b7160e01b86526041600452602486fd5b634e487b7160e01b85526041600452602485fd5b50604051903d90823e3d90fd5b634e487b7160e01b84526041600452602484fd5b60405162461bcd60e51b815260206004820152603960248201527f416363756d756c617465645969656c64466163746f72793a206775617264696160448201527f6e2063616e206e6f74206265207a65726f2061646472657373000000000000006064820152608490fd5b8280fd5b8480fd5b5080fd5b90601f8019910116810190811067ffffffffffffffff8211176103d457604052565b634e487b7160e01b600052604160045260246000fdfe60808060405234605a5760008054336001600160a01b0319821681178355916001600160a01b03909116907f8be0079c531659141344cd1fd0a4f28419497f9722a3daafe3b4186f6b6457e09080a361060f90816100608239f35b600080fdfe608080604052600436101561001357600080fd5b60009081803560e01c918263204e1c7a1461046d5750508063715018a6146104135780637eff275e146103825780638da5cb5b1461035b5780639623609d1461024957806399a88ec4146101b4578063f2fde38b146100ee5763f3b7dead1461007b57600080fd5b346100eb5760203660031901126100eb57808060046001600160a01b036100a06104ad565b6040516303e1469160e61b815291165afa6100b9610532565b90156100e75780516020916001600160a01b03916100de919081018401908401610562565b16604051908152f35b5080fd5b80fd5b50346100eb5760203660031901126100eb576101086104ad565b610110610581565b6001600160a01b031680156101605781546001600160a01b03198116821783556001600160a01b03167f8be0079c531659141344cd1fd0a4f28419497f9722a3daafe3b4186f6b6457e08380a380f35b60405162461bcd60e51b815260206004820152602660248201527f4f776e61626c653a206e6577206f776e657220697320746865207a65726f206160448201526564647265737360d01b6064820152608490fd5b50346100eb5760403660031901126100eb57806101cf6104ad565b6101d76104c8565b906101e0610581565b6001600160a01b031690813b1561024557604051631b2ce7f360e11b81526001600160a01b0390911660048201529082908290602490829084905af1801561023a576102295750f35b81610233916104de565b6100eb5780f35b6040513d84823e3d90fd5b5050fd5b5060603660031901126100eb5761025e6104ad565b906102676104c8565b6044359267ffffffffffffffff8411610353573660238501121561035357836004013561029381610516565b946102a160405196876104de565b81865236602483830101116103575781859260246020930183890137860101526102c9610581565b6001600160a01b0316803b15610353576040805163278f794360e11b81526001600160a01b0390931660048401526024830152835160448301819052835b81811061033d57848085818187816064818a86838284010152601f8019910116810103019134905af1801561023a576102295750f35b8060208092880101516064828701015201610307565b8280fd5b8480fd5b50346100eb57806003193601126100eb57546040516001600160a01b039091168152602090f35b50346100eb5760403660031901126100eb578061039d6104ad565b6103a56104c8565b906103ae610581565b6001600160a01b031690813b15610245576040516308f2839760e41b81526001600160a01b039091166004820152919081908390602490829084905af18015610406576103f85780f35b610401916104de565b388180f35b50604051903d90823e3d90fd5b50346100eb57806003193601126100eb5761042c610581565b80546001600160a01b03198116825581906001600160a01b03167f8be0079c531659141344cd1fd0a4f28419497f9722a3daafe3b4186f6b6457e08280a380f35b8190346104aa5760203660031901126104aa5781906004906001600160a01b036104956104ad565b635c60da1b60e01b8352165afa6100b9610532565b50fd5b600435906001600160a01b03821682036104c357565b600080fd5b602435906001600160a01b03821682036104c357565b90601f8019910116810190811067ffffffffffffffff82111761050057604052565b634e487b7160e01b600052604160045260246000fd5b67ffffffffffffffff811161050057601f01601f191660200190565b3d1561055d573d9061054382610516565b9161055160405193846104de565b82523d6000602084013e565b606090565b908160209103126104c357516001600160a01b03811681036104c35790565b6000546001600160a01b0316330361059557565b606460405162461bcd60e51b815260206004820152602060248201527f4f776e61626c653a2063616c6c6572206973206e6f7420746865206f776e65726044820152fdfea264697066735822122058b9e5a891b425518778f28ada758022b0fa6de418f37fd8bf81041900605fe864736f6c634300081a00336080604052610c7580380380610014816102ce565b92833981016060828203126102c95761002c82610309565b61003860208401610309565b604084015190936001600160401b0382116102c957019082601f830112156102c95781519161006e6100698461031d565b6102ce565b928084526020840194602082840101116102c95784602061008f9301610338565b803b1561026e577f360894a13ba1a3210667c828492db98dca3e2076cc3735a920a3ca505d382bbc80546001600160a01b0319166001600160a01b0383169081179091557fbc7cd75a20ee27fd9adebab32041f755214dbc6bffa90cc0225b39da2e5c2d3b600080a2815115801590610266575b6101e0575b5050600080516020610c5583398151915254604080516001600160a01b03808416825290941660208501819052939192507f7e644d79422f17c01e4894b5f4f588d331ebfa28653d42ae832dc59e38c9798f91a1811561018c576001600160a01b03191617600080516020610c5583398151915255604051610846908161040f8239f35b60405162461bcd60e51b815260206004820152602660248201527f455243313936373a206e65772061646d696e20697320746865207a65726f206160448201526564647265737360d01b6064820152608490fd5b600080610255946101f160606102ce565b94602786527f416464726573733a206c6f772d6c6576656c2064656c65676174652063616c6c6020870152660819985a5b195960ca1b60408701525190845af43d1561025e573d916102456100698461031d565b9283523d6000602085013e61035b565b50388080610108565b60609161035b565b506000610103565b60405162461bcd60e51b815260206004820152602d60248201527f455243313936373a206e657720696d706c656d656e746174696f6e206973206e60448201526c1bdd08184818dbdb9d1c9858dd609a1b6064820152608490fd5b600080fd5b6040519190601f01601f191682016001600160401b038111838210176102f357604052565b634e487b7160e01b600052604160045260246000fd5b51906001600160a01b03821682036102c957565b6001600160401b0381116102f357601f01601f191660200190565b60005b83811061034b5750506000910152565b818101518382015260200161033b565b919290156103bd575081511561036f575090565b3b156103785790565b60405162461bcd60e51b815260206004820152601d60248201527f416464726573733a2063616c6c20746f206e6f6e2d636f6e74726163740000006044820152606490fd5b8251909150156103d05750805190602001fd5b6044604051809262461bcd60e51b8252602060048301526104008151809281602486015260208686019101610338565b601f01601f19168101030190fdfe60806040523661013f576000805160206107d183398151915254610033906001600160a01b03165b6001600160a01b031690565b330361013a576000356001600160e01b031916631b2ce7f360e11b8103610065575061005d61045b565b602081519101f35b63278f794360e11b8103610081575061007c6103ca565b61005d565b6308f2839760e41b8103610098575061007c6102e4565b6303e1469160e61b81036100af575061007c61023e565b635c60da1b60e01b036100c45761007c610203565b60405162461bcd60e51b815260206004820152604260248201527f5472616e73706172656e745570677261646561626c6550726f78793a2061646d60448201527f696e2063616e6e6f742066616c6c6261636b20746f2070726f78792074617267606482015261195d60f21b608482015260a490fd5b61018b565b6000805160206107d183398151915254610161906001600160a01b0316610027565b330361018b576000356001600160e01b031916631b2ce7f360e11b8103610065575061005d61045b565b6000805160206107f18339815191525460009081906001600160a01b0316368280378136915af43d6000803e156101c1573d6000f35b3d6000fd5b634e487b7160e01b600052604160045260246000fd5b90601f8019910116810190811067ffffffffffffffff8211176101fe57604052565b6101c6565b61020b610581565b60018060a01b036000805160206107f183398151915254166040519060208201526020815261023b6040826101dc565b90565b610246610581565b60018060a01b036000805160206107d183398151915254166040519060208201526020815261023b6040826101dc565b600435906001600160a01b038216820361028c57565b600080fd5b602090600319011261028c576004356001600160a01b038116810361028c5790565b67ffffffffffffffff81116101fe57601f01601f191660200190565b604051906102de6020836101dc565b60008252565b6102ec610581565b3660041161028c576001600160a01b0361030536610291565b166000805160206107d1833981519152547f7e644d79422f17c01e4894b5f4f588d331ebfa28653d42ae832dc59e38c9798f6040805160018060a01b0384168152846020820152a18115610376576001600160a01b031916176000805160206107d18339815191525561023b6102cf565b60405162461bcd60e51b815260206004820152602660248201527f455243313936373a206e65772061646d696e20697320746865207a65726f206160448201526564647265737360d01b6064820152608490fd5b3660041161028c57604036600319011261028c576103e6610276565b6024359067ffffffffffffffff821161028c573660238301121561028c57816004013590610413826102b3565b9161042160405193846101dc565b808352366024828601011161028c576020816000926024610453970183870137840101526001600160a01b0316610588565b61023b6102cf565b610463610581565b3660041161028c576001600160a01b0361047c36610291565b166020906040519061048e83836101dc565b60008252803b15610526576000805160206107f183398151915280546001600160a01b03191682179055807fbc7cd75a20ee27fd9adebab32041f755214dbc6bffa90cc0225b39da2e5c2d3b600080a281511580159061051e575b610504575b50506104fd60405191826101dc565b6000815290565b61051691610510610664565b916106af565b5038806104ee565b5060006104e9565b60405162461bcd60e51b815260048101849052602d60248201527f455243313936373a206e657720696d706c656d656e746174696f6e206973206e60448201526c1bdd08184818dbdb9d1c9858dd609a1b6064820152608490fd5b3461028c57565b803b15610609576000805160206107f183398151915280546001600160a01b0319166001600160a01b0383169081179091557fbc7cd75a20ee27fd9adebab32041f755214dbc6bffa90cc0225b39da2e5c2d3b600080a2815115801590610601575b6105f2575050565b6105fe91610510610664565b50565b5060016105ea565b60405162461bcd60e51b815260206004820152602d60248201527f455243313936373a206e657720696d706c656d656e746174696f6e206973206e60448201526c1bdd08184818dbdb9d1c9858dd609a1b6064820152608490fd5b604051906106736060836101dc565b60278252660819985a5b195960ca1b6040837f416464726573733a206c6f772d6c6576656c2064656c65676174652063616c6c60208201520152565b60008061023b9493602081519101845af43d156106ee573d916106d1836102b3565b926106df60405194856101dc565b83523d6000602085013e610742565b606091610742565b156106fd57565b60405162461bcd60e51b815260206004820152601d60248201527f416464726573733a2063616c6c20746f206e6f6e2d636f6e74726163740000006044820152606490fd5b919290156107625750815115610756575090565b61023b903b15156106f6565b8251909150156107755750805190602001fd5b6040519062461bcd60e51b8252602060048301528181519182602483015260005b8381106107b85750508160006044809484010152601f80199101168101030190fd5b6020828201810151604487840101528593500161079656feb53127684a568b3173ae13b9f8a6016e243e63b6e8ee1178d6a717850b5d6103360894a13ba1a3210667c828492db98dca3e2076cc3735a920a3ca505d382bbca26469706673582212205a24e37b8404c988bf286ad5736caa678faca592c0f556e954fd90f779592ec164736f6c634300081a0033b53127684a568b3173ae13b9f8a6016e243e63b6e8ee1178d6a717850b5d61036080806040523460bd576000549060ff8260081c16606b575060ff808216036031575b60405161205190816100c38239f35b60ff90811916176000557f7f26b83ff96e1f2b6a682f133852f6798a09c465da95921460cefb3847402498602060405160ff8152a1386022565b62461bcd60e51b815260206004820152602760248201527f496e697469616c697a61626c653a20636f6e747261637420697320696e697469604482015266616c697a696e6760c81b6064820152608490fd5b600080fdfe608080604052600436101561001357600080fd5b60003560e01c9081630354489a14611449575080630b7c8a2a146113e157806315c2b81414610fac578063275d660a14610f8e5780632bb7e33c14610b345780633911578414610ad55780633f4ba83a14610a23578063481c6a751461030c5780634b6acafb14610a05578063526aefaf146109de5780635c975abb146109bb5780636386c1c71461091a578063715018a6146108bd5780638456cb59146108455780638da5cb5b1461081c5780639ba7361614610745578063a652883e14610641578063a87430ba146105e5578063b88a802f14610418578063bec5a151146103fa578063cf6afb77146102e3578063d0ebdbe714610335578063d50095841461030c578063e5080f35146102e3578063f2fde38b14610254578063f40f0f5214610229578063f9eb5c09146101815763fbfa77cf1461015357600080fd5b3461017c57600036600319011261017c5760cf546040516001600160a01b039091168152602090f35b600080fd5b3461017c57602036600319011261017c5761019a611537565b60cc546101b49060081c6001600160a01b03161515611563565b6101c960018060a01b0360d0541633146115b9565b6101d1611907565b6001600160a01b03166101e58115156118a7565b60d180546001600160a01b0319811683179091556001600160a01b03167fb848ed3d9bc14fd1a853fa5476c4a015f9cf7e25fa66ee9731b25327497ca6e0600080a3005b3461017c57602036600319011261017c57602061024c610247611537565b611819565b604051908152f35b3461017c57602036600319011261017c5761026d611537565b6102756119a1565b6001600160a01b0381161561028f5761028d906119f9565b005b60405162461bcd60e51b815260206004820152602660248201527f4f776e61626c653a206e6577206f776e657220697320746865207a65726f206160448201526564647265737360d01b6064820152608490fd5b3461017c57600036600319011261017c5760d1546040516001600160a01b039091168152602090f35b3461017c57600036600319011261017c5760d0546040516001600160a01b039091168152602090f35b3461017c57602036600319011261017c5761034e611537565b60cc546103689060081c6001600160a01b03161515611563565b60d054906001600160a01b038216906103823383146115b9565b61038a611907565b6001600160a01b0381169283906103a28215156117c3565b6001600160a01b0319161760d0556097546001600160a01b031682146103eb575b507fdac3632743b879638fd2d51c4d3c1dd796615b4758a55b50b0c19b971ba9fbc7600080a3005b6103f4906119f9565b826103c3565b3461017c57600036600319011261017c57602060c954604051908152f35b3461017c57600036600319011261017c5760cc546104519060ff9061044b600882901c6001600160a01b03161515611563565b16611605565b61045961194b565b610461611907565b61046a33611a42565b3360005260ce60205260406000206024602060018060a01b0360cc5460081c16604051928380926370a0823160e01b82523360048301525afa80156105d9576000906105a5575b6104bc915033611b66565b90811561055457600381016104d283825461165b565b9055426001919091015560cd5460405163a9059cbb60e01b60208201523360248201526044808201849052815261051c916001600160a01b03166105176064836114b2565b611de2565b6040519081524260208201527ff01da32686223933d8a18a391060918c7f11a3648639edd87ae013e2e273174360403392a260018055005b60405162461bcd60e51b815260206004820152602360248201527f416363756d756c617465645969656c643a206e6f2070656e64696e6720726577604482015262185c9960ea1b6064820152608490fd5b506020813d6020116105d1575b816105bf602093836114b2565b8101031261017c576104bc90516104b1565b3d91506105b2565b6040513d6000823e3d90fd5b3461017c57602036600319011261017c576001600160a01b03610606611537565b1660005260ce602052608060406000208054906001810154906003600282015491015491604051938452602084015260408301526060820152f35b3461017c57606036600319011261017c5761065a611537565b61066261154d565b9061066b611907565b60cf546001600160a01b031633036106f2576001600160a01b03811690816106e3575b506001600160a01b03821691826106d4575b507ff92bc2ddaeb2d9f248229991a5e35e3b5bf400cc935c2ab6053793a55e60d5b2604080516044358152426020820152a3005b6106dd90611a42565b826106a0565b6106ec90611a42565b8261068e565b60405162461bcd60e51b815260206004820152602560248201527f416363756d756c617465645969656c643a206f6e6c79207661756c742063616e6044820152640818d85b1b60da1b6064820152608490fd5b3461017c57600036600319011261017c57600060a060405161076681611464565b828152826020820152826040820152826060820152826080820152015260c060405161079181611464565b60c9549081815260ca546020820190815260cb54906040830191825260cc5491606084019160ff841615158352608085019360018060a01b039060081c16845260a0600180821b0360cd54169501948552604051958652516020860152516040850152511515606084015260018060a01b03905116608083015260018060a01b0390511660a0820152f35b3461017c57600036600319011261017c576097546040516001600160a01b039091168152602090f35b3461017c57600036600319011261017c5761086760ff60005460081c166116d0565b61087c60018060a01b0360d0541633146115b9565b610884611907565b600160ff1960655416176065557f62e78cea01bee320cd4e420270b5ea74000d11b0c9f74754ebdbfc544b05a2586020604051338152a1005b3461017c57600036600319011261017c576108d66119a1565b609780546001600160a01b031981169091556000906001600160a01b03167f8be0079c531659141344cd1fd0a4f28419497f9722a3daafe3b4186f6b6457e08280a3005b3461017c57602036600319011261017c57610933611537565b6000606060405161094381611496565b828152826020820152826040820152015260018060a01b031660005260ce6020526080604060002060405161097781611496565b815491828252600181015460208301908152606060036002840154936040860194855201549301928352604051938452516020840152516040830152516060820152f35b3461017c57600036600319011261017c57602060ff606554166040519015158152f35b3461017c57604036600319011261017c57602061024c6109fc611537565b6024359061173d565b3461017c57600036600319011261017c57602060cb54604051908152f35b3461017c57600036600319011261017c57610a4560ff60005460081c166116d0565b610a5a60018060a01b0360d0541633146115b9565b60655460ff811615610a995760ff19166065557f5db9ee0a495bf2e6ff9c91a7834c1ba4fdd244a5e8aa4e537bd38aeae4b073aa6020604051338152a1005b60405162461bcd60e51b815260206004820152601460248201527314185d5cd8589b194e881b9bdd081c185d5cd95960621b6044820152606490fd5b3461017c57600036600319011261017c5760c95460ca5460cb5460cc5460cd546040805195865260208601949094529284019190915260ff81161515606084015260081c6001600160a01b0390811660808401521660a082015260c090f35b3461017c57606036600319011261017c57610b4d611537565b610b5561154d565b9060443567ffffffffffffffff811161017c57610b769036906004016114f0565b906000549260ff8460081c161593848095610f81575b8015610f6a575b15610f0e5760ff19811660011760005584610efc575b5060608380518101031261017c57610bc3602084016116bc565b610bdb6060610bd4604087016116bc565b95016116bc565b60cc546001600160a01b0392831695918316949183169260089190911c16610ea9576001600160a01b0316908115610e6457610c188115156117c3565b610c238415156118a7565b6001600160a01b038316938415610e11578515610dbd57610cd592610c5860ff60005460081c16610c53816116d0565b6116d0565b610c61336119f9565b610c8c60ff60005460081c16610c76816116d0565b610c7f816116d0565b60018055610c53816116d0565b60ff19606554166065556001600160601b0360a01b60cf54161760cf55816001600160601b0360a01b60d054161760d0556001600160601b0360a01b60d154161760d1556119f9565b8260a0604051610ce481611464565b6000815242602082015260006040820152600160608201528460808201520152600060c9554260ca55600060cb55600160ff1960cc54161760cc5560cc5490610100600160a81b039060081b1690610100600160a81b0319161760cc55816001600160601b0360a01b60cd54161760cd557fd0fca15c379f5bbae8ca9e1d0b80323a86a6ec7263e540cb328cca7dc74f4dd96020604051428152a3610d8557005b61ff0019600054166000557f7f26b83ff96e1f2b6a682f133852f6798a09c465da95921460cefb3847402498602060405160018152a1005b60405162461bcd60e51b815260206004820152602660248201527f416363756d756c617465645969656c643a20696e76616c696420726577617264604482015265103a37b5b2b760d11b6064820152608490fd5b60405162461bcd60e51b815260206004820152602560248201527f416363756d756c617465645969656c643a20696e76616c6964207368617265206044820152643a37b5b2b760d91b6064820152608490fd5b60405162461bcd60e51b815260206004820152601f60248201527f416363756d756c617465645969656c643a20696e76616c6964207661756c74006044820152606490fd5b60405162461bcd60e51b815260206004820152602560248201527f416363756d756c617465645969656c643a20616c726561647920696e697469616044820152641b1a5e995960da1b6064820152608490fd5b61ffff19166101011760005584610ba9565b60405162461bcd60e51b815260206004820152602e60248201527f496e697469616c697a61626c653a20636f6e747261637420697320616c72656160448201526d191e481a5b9a5d1a585b1a5e995960921b6064820152608490fd5b50303b158015610b935750600160ff821614610b93565b50600160ff821610610b8c565b3461017c57600036600319011261017c57602060d254604051908152f35b3461017c57604036600319011261017c5760043560243567ffffffffffffffff811161017c57610fe09036906004016114f0565b60cc54610ffb600882901c6001600160a01b03161515611563565b60d1546001600160a01b0316330361138b5760ff6110199116611605565b61102161194b565b611029611907565b81156113345760cf54604051633a5381b560e01b81529091906020816004816001600160a01b0387165afa9081156105d9576000916112eb575b506001600160a01b031692831561129a5760d2549260405160208101916001600160601b03199060601b168252826034820152846054820152605481526110ab6074826114b2565b5190207f19457468657265756d205369676e6564204d6573736167653a0a333200000000600052601c52836110ef6110e784603c600020611c90565b919091611cc8565b6001600160a01b0316036112495760001983146112335760016004930160d25561114f60018060a01b0360cd5416604051906323b872dd60e01b6020830152336024830152306044830152836064830152606482526105176084836114b2565b61115b8160cb5461165b565b60cb554260ca5560cc546040516318160ddd60e01b815293602091859190829060081c6001600160a01b03165afa9283156105d9576000936111fd575b506111cf6111c7827fe8af7530ddd6b2b1e6f8ceb5e9e1296634589c9fffc26c4807550c1ca9e1cf2995611668565b60c95461165b565b60c9556111f4604051928392835242602084015260606040840152606083019061167b565b0390a260018055005b92506020833d60201161122b575b81611218602093836114b2565b8101031261017c579151916111cf611198565b3d915061120b565b634e487b7160e01b600052601160045260246000fd5b60405162461bcd60e51b815260206004820152602360248201527f416363756d756c617465645969656c643a20696e76616c6964207369676e617460448201526275726560e81b6064820152608490fd5b60405162461bcd60e51b815260206004820152602360248201527f416363756d756c617465645969656c643a2076616c696461746f72206e6f74206044820152621cd95d60ea1b6064820152608490fd5b6020813d60201161132c575b81611304602093836114b2565b810103126113285751906001600160a01b0382168203611325575084611063565b80fd5b5080fd5b3d91506112f7565b60405162461bcd60e51b815260206004820152602960248201527f416363756d756c617465645969656c643a20696e76616c6964206469766964656044820152681b9908185b5bdd5b9d60ba1b6064820152608490fd5b60405162461bcd60e51b815260206004820152602860248201527f416363756d756c617465645969656c643a206f6e6c79206469766964656e6420604482015267747265617375727960c01b6064820152608490fd5b3461017c57602036600319011261017c5760043580151580910361017c5760cc549060ff9061141e600884901c6001600160a01b03161515611563565b61143360018060a01b0360d0541633146115b9565b61143b611907565b60ff1990921691161760cc55005b3461017c57600036600319011261017c5760209060d2548152f35b60c0810190811067ffffffffffffffff82111761148057604052565b634e487b7160e01b600052604160045260246000fd5b6080810190811067ffffffffffffffff82111761148057604052565b90601f8019910116810190811067ffffffffffffffff82111761148057604052565b67ffffffffffffffff811161148057601f01601f191660200190565b81601f8201121561017c57803590611507826114d4565b9261151560405194856114b2565b8284526020838301011161017c57816000926020809301838601378301015290565b600435906001600160a01b038216820361017c57565b602435906001600160a01b038216820361017c57565b1561156a57565b60405162461bcd60e51b815260206004820152602160248201527f416363756d756c617465645969656c643a206e6f7420696e697469616c697a656044820152601960fa1b6064820152608490fd5b156115c057565b60405162461bcd60e51b815260206004820152601e60248201527f416363756d756c617465645969656c643a206f6e6c79206d616e6167657200006044820152606490fd5b1561160c57565b60405162461bcd60e51b815260206004820152602160248201527f416363756d756c617465645969656c643a20706f6f6c206e6f742061637469766044820152606560f81b6064820152608490fd5b9190820180921161123357565b8181029291811591840414171561123357565b919082519283825260005b8481106116a7575050826000602080949584010152601f8019910116010190565b80602080928401015182828601015201611686565b51906001600160a01b038216820361017c57565b156116d757565b60405162461bcd60e51b815260206004820152602b60248201527f496e697469616c697a61626c653a20636f6e7472616374206973206e6f74206960448201526a6e697469616c697a696e6760a81b6064820152608490fd5b9190820391821161123357565b60cc5490919060081c6001600160a01b0316156117bc576117b99160018060a01b031660005260ce6020526117b360406000206117ab6040519161178083611496565b805483526001810154602084015260036002820154918260408601520154606084015260cb54611730565b905192611668565b9061165b565b90565b5050600090565b156117ca57565b60405162461bcd60e51b815260206004820152602160248201527f416363756d756c617465645969656c643a20696e76616c6964206d616e6167656044820152603960f91b6064820152608490fd5b60cc5460081c6001600160a01b03169081156117bc576040516370a0823160e01b81526001600160a01b038216600482015291602090839060249082905afa9081156105d957600091611871575b6117b99250611b66565b90506020823d60201161189f575b8161188c602093836114b2565b8101031261017c576117b9915190611867565b3d915061187f565b156118ae57565b60405162461bcd60e51b815260206004820152602b60248201527f416363756d756c617465645969656c643a20696e76616c69642064697669646560448201526a6e6420747265617375727960a81b6064820152608490fd5b60ff6065541661191357565b60405162461bcd60e51b815260206004820152601060248201526f14185d5cd8589b194e881c185d5cd95960821b6044820152606490fd5b60026001541461195c576002600155565b60405162461bcd60e51b815260206004820152601f60248201527f5265656e7472616e637947756172643a207265656e7472616e742063616c6c006044820152606490fd5b6097546001600160a01b031633036119b557565b606460405162461bcd60e51b815260206004820152602060248201527f4f776e61626c653a2063616c6c6572206973206e6f7420746865206f776e65726044820152fd5b609780546001600160a01b039283166001600160a01b0319821681179092559091167f8be0079c531659141344cd1fd0a4f28419497f9722a3daafe3b4186f6b6457e0600080a3565b60cc5460081c6001600160a01b0316908115611b625760018060a01b0316908160005260ce60205260246020604060002092604051928380926370a0823160e01b82528760048301525afa9081156105d957600091611b10575b507f03042d1ac6ef214f4d246cd1184e5d536ba09afdc4efeec5d74d432384cb97dd9160409160cb5490611ad66002840192835490611730565b9081611af3575b505060cb549055548151908152426020820152a2565b611b0791611b0091611668565b835461165b565b82553880611add565b90506020813d602011611b5a575b81611b2b602093836114b2565b8101031261017c57517f03042d1ac6ef214f4d246cd1184e5d536ba09afdc4efeec5d74d432384cb97dd611a9c565b3d9150611b1e565b5050565b60cc5460081c6001600160a01b0316158015611c86575b6117bc5760018060a01b031660005260ce602052604060002060405191611ba383611496565b81548084526001830154602085015260606003600285015494856040880152015494019384528091611bd860cb549485611730565b9081611c6f575b5050508015611c675760c95480159290919083611c5b57611bff91611668565b91670de0b6b3a7640000830292808404670de0b6b3a7640000149015171561123357611c4557670de0b6b3a7640000910404905b51808211156117bc576117b991611730565b634e487b7160e01b600052601260045260246000fd5b50505050600090611c33565b505050600090565b611c7e9350906117b391611668565b388080611bdf565b5060c95415611b7d565b906041815114600014611cbe57611cba916020820151906060604084015193015160001a90611efe565b9091565b5050600090600290565b6005811015611dcc5780611cd95750565b60018103611d265760405162461bcd60e51b815260206004820152601860248201527f45434453413a20696e76616c6964207369676e617475726500000000000000006044820152606490fd5b60028103611d735760405162461bcd60e51b815260206004820152601f60248201527f45434453413a20696e76616c6964207369676e6174757265206c656e677468006044820152606490fd5b600314611d7c57565b60405162461bcd60e51b815260206004820152602260248201527f45434453413a20696e76616c6964207369676e6174757265202773272076616c604482015261756560f01b6064820152608490fd5b634e487b7160e01b600052602160045260246000fd5b604080519092611e66926001600160a01b0316906000908190611e0587866114b2565b602085527f5361666545524332303a206c6f772d6c6576656c2063616c6c206661696c6564602086015260208151910182855af13d15611ef6573d91611e4a836114d4565b92611e57875194856114b2565b83523d6000602085013e611f7e565b8051908115918215611ed3575b505015611e7d5750565b5162461bcd60e51b815260206004820152602a60248201527f5361666545524332303a204552433230206f7065726174696f6e20646964206e6044820152691bdd081cdd58d8d9595960b21b6064820152608490fd5b819250906020918101031261017c5760200151801515810361017c573880611e73565b606091611f7e565b7f7fffffffffffffffffffffffffffffff5d576e7357a4501ddfe92f46681b20a08411611f725760209360009360ff60809460405194855216868401526040830152606082015282805260015afa156105d9576000516001600160a01b03811615611f695790600090565b50600090600190565b50505050600090600390565b91929015611fe05750815115611f92575090565b3b15611f9b5790565b60405162461bcd60e51b815260206004820152601d60248201527f416464726573733a2063616c6c20746f206e6f6e2d636f6e74726163740000006044820152606490fd5b825190915015611ff35750805190602001fd5b60405162461bcd60e51b81526020600482015290819061201790602483019061167b565b0390fdfea264697066735822122050410e2e6a0316513a579e6bcdd31cf22592c61ff3bdf46164596bd68d0c78ec64736f6c634300081a0033a2646970667358221220da4eaaab18716c935c6bba956aa965c36e9687fd5bf5e6c390e4d6cc624e453964736f6c634300081a0033",
  "devdoc": {
    "kind": "dev",
    "methods": {},
    "version": 1
  },
  "userdoc": {
    "kind": "user",
    "methods": {},
    "version": 1
  },
  "storageLayout": {
    "storage": [],
    "types": null
  }
}