{
  "address": "0xB7f8BC63BbcaD18155201308C8f3540b07f84F5e",
  "abi": [
    {
      "inputs": [],
      "stateMutability": "nonpayable",
      "type": "constructor"
    },
    {
      "anonymous": false,
      "inputs": [
        {
          "indexed": true,
          "internalType": "address",
          "name": "previousOwner",
          "type": "address"
        },
        {
          "indexed": true,
          "internalType": "address",
          "name": "newOwner",
          "type": "address"
        }
      ],
      "name": "OwnershipTransferred",
      "type": "event"
    },
    {
      "anonymous": false,
      "inputs": [],
      "name": "TokenPaused",
      "type": "event"
    },
    {
      "anonymous": false,
      "inputs": [],
      "name": "TokenUnpaused",
      "type": "event"
    },
    {
      "anonymous": false,
      "inputs": [
        {
          "indexed": false,
          "internalType": "bytes",
          "name": "dataHash",
          "type": "bytes"
        },
        {
          "indexed": false,
          "internalType": "bytes",
          "name": "signature",
          "type": "bytes"
        }
      ],
      "name": "VerifyDataUpdated",
      "type": "event"
    },
    {
      "anonymous": false,
      "inputs": [
        {
          "indexed": true,
          "internalType": "address",
          "name": "addr",
          "type": "address"
        }
      ],
      "name": "WhitelistAdded",
      "type": "event"
    },
    {
      "anonymous": false,
      "inputs": [
        {
          "indexed": true,
          "internalType": "address",
          "name": "addr",
          "type": "address"
        }
      ],
      "name": "WhitelistRemoved",
      "type": "event"
    },
    {
      "anonymous": false,
      "inputs": [
        {
          "indexed": false,
          "internalType": "bool",
          "name": "enabled",
          "type": "bool"
        }
      ],
      "name": "WhitelistStatusChanged",
      "type": "event"
    },
    {
      "inputs": [],
      "name": "accumulatedYield",
      "outputs": [
        {
          "internalType": "address",
          "name": "",
          "type": "address"
        }
      ],
      "stateMutability": "view",
      "type": "function"
    },
    {
      "inputs": [
        {
          "internalType": "address",
          "name": "_addr",
          "type": "address"
        }
      ],
      "name": "addToWhitelist",
      "outputs": [],
      "stateMutability": "nonpayable",
      "type": "function"
    },
    {
      "inputs": [
        {
          "internalType": "address",
          "name": "from",
          "type": "address"
        },
        {
          "internalType": "uint256",
          "name": "amount",
          "type": "uint256"
        }
      ],
      "name": "burnToken",
      "outputs": [],
      "stateMutability": "nonpayable",
      "type": "function"
    },
    {
      "inputs": [
        {
          "internalType": "address",
          "name": "_vaultToken",
          "type": "address"
        },
        {
          "internalType": "address",
          "name": "_funding",
          "type": "address"
        },
        {
          "internalType": "address",
          "name": "_yield",
          "type": "address"
        }
      ],
      "name": "configureModules",
      "outputs": [],
      "stateMutability": "nonpayable",
      "type": "function"
    },
    {
      "inputs": [],
      "name": "dataHash",
      "outputs": [
        {
          "internalType": "bytes",
          "name": "",
          "type": "bytes"
        }
      ],
      "stateMutability": "view",
      "type": "function"
    },
    {
      "inputs": [],
      "name": "disableWhitelist",
      "outputs": [],
      "stateMutability": "nonpayable",
      "type": "function"
    },
    {
      "inputs": [],
      "name": "enableWhitelist",
      "outputs": [],
      "stateMutability": "nonpayable",
      "type": "function"
    },
    {
      "inputs": [],
      "name": "funding",
      "outputs": [
        {
          "internalType": "address",
          "name": "",
          "type": "address"
        }
      ],
      "stateMutability": "view",
      "type": "function"
    },
    {
      "inputs": [],
      "name": "getDividendModule",
      "outputs": [
        {
          "internalType": "address",
          "name": "",
          "type": "address"
        }
      ],
      "stateMutability": "view",
      "type": "function"
    },
    {
      "inputs": [],
      "name": "getFundingModule",
      "outputs": [
        {
          "internalType": "address",
          "name": "",
          "type": "address"
        }
      ],
      "stateMutability": "view",
      "type": "function"
    },
    {
      "inputs": [
        {
          "internalType": "bytes",
          "name": "_initData",
          "type": "bytes"
        }
      ],
      "name": "initiate",
      "outputs": [],
      "stateMutability": "nonpayable",
      "type": "function"
    },
    {
      "inputs": [],
      "name": "isFundingSuccessful",
      "outputs": [
        {
          "internalType": "bool",
          "name": "",
          "type": "bool"
        }
      ],
      "stateMutability": "view",
      "type": "function"
    },
    {
      "inputs": [],
      "name": "isTokenPaused",
      "outputs": [
        {
          "internalType": "bool",
          "name": "",
          "type": "bool"
        }
      ],
      "stateMutability": "view",
      "type": "function"
    },
    {
      "inputs": [],
      "name": "isWhiteList",
      "outputs": [
        {
          "internalType": "bool",
          "name": "",
          "type": "bool"
        }
      ],
      "stateMutability": "view",
      "type": "function"
    },
    {
      "inputs": [
        {
          "internalType": "address",
          "name": "",
          "type": "address"
        }
      ],
      "name": "isWhitelisted",
      "outputs": [
        {
          "internalType": "bool",
          "name": "",
          "type": "bool"
        }
      ],
      "stateMutability": "view",
      "type": "function"
    },
    {
      "inputs": [],
      "name": "manager",
      "outputs": [
        {
          "internalType": "address",
          "name": "",
          "type": "address"
        }
      ],
      "stateMutability": "view",
      "type": "function"
    },
    {
      "inputs": [
        {
          "internalType": "address",
          "name": "to",
          "type": "address"
        },
        {
          "internalType": "uint256",
          "name": "amount",
          "type": "uint256"
        }
      ],
      "name": "mintToken",
      "outputs": [],
      "stateMutability": "nonpayable",
      "type": "function"
    },
    {
      "inputs": [
        {
          "internalType": "address",
          "name": "from",
          "type": "address"
        },
        {
          "internalType": "address",
          "name": "to",
          "type": "address"
        },
        {
          "internalType": "uint256",
          "name": "amount",
          "type": "uint256"
        }
      ],
      "name": "onTokenTransfer",
      "outputs": [],
      "stateMutability": "nonpayable",
      "type": "function"
    },
    {
      "inputs": [],
      "name": "owner",
      "outputs": [
        {
          "internalType": "address",
          "name": "",
          "type": "address"
        }
      ],
      "stateMutability": "view",
      "type": "function"
    },
    {
      "inputs": [],
      "name": "pauseToken",
      "outputs": [],
      "stateMutability": "nonpayable",
      "type": "function"
    },
    {
      "inputs": [
        {
          "internalType": "address",
          "name": "_addr",
          "type": "address"
        }
      ],
      "name": "removeFromWhitelist",
      "outputs": [],
      "stateMutability": "nonpayable",
      "type": "function"
    },
    {
      "inputs": [],
      "name": "renounceOwnership",
      "outputs": [],
      "stateMutability": "nonpayable",
      "type": "function"
    },
    {
      "inputs": [
        {
          "internalType": "address",
          "name": "_dividendModule",
          "type": "address"
        }
      ],
      "name": "setDividendModule",
      "outputs": [],
      "stateMutability": "nonpayable",
      "type": "function"
    },
    {
      "inputs": [
        {
          "internalType": "address",
          "name": "_funding",
          "type": "address"
        }
      ],
      "name": "setFundingModule",
      "outputs": [],
      "stateMutability": "nonpayable",
      "type": "function"
    },
    {
      "inputs": [
        {
          "internalType": "address",
          "name": "_vaultToken",
          "type": "address"
        }
      ],
      "name": "setVaultToken",
      "outputs": [],
      "stateMutability": "nonpayable",
      "type": "function"
    },
    {
      "inputs": [],
      "name": "signature",
      "outputs": [
        {
          "internalType": "bytes",
          "name": "",
          "type": "bytes"
        }
      ],
      "stateMutability": "view",
      "type": "function"
    },
    {
      "inputs": [
        {
          "internalType": "address",
          "name": "newOwner",
          "type": "address"
        }
      ],
      "name": "transferOwnership",
      "outputs": [],
      "stateMutability": "nonpayable",
      "type": "function"
    },
    {
      "inputs": [],
      "name": "unpauseToken",
      "outputs": [],
      "stateMutability": "nonpayable",
      "type": "function"
    },
    {
      "inputs": [
        {
          "internalType": "bytes",
          "name": "hash",
          "type": "bytes"
        },
        {
          "internalType": "bytes",
          "name": "_signature",
          "type": "bytes"
        }
      ],
      "name": "updateVerifyData",
      "outputs": [],
      "stateMutability": "nonpayable",
      "type": "function"
    },
    {
      "inputs": [],
      "name": "validator",
      "outputs": [
        {
          "internalType": "address",
          "name": "",
          "type": "address"
        }
      ],
      "stateMutability": "view",
      "type": "function"
    },
    {
      "inputs": [],
      "name": "vaultToken",
      "outputs": [
        {
          "internalType": "address",
          "name": "",
          "type": "address"
        }
      ],
      "stateMutability": "view",
      "type": "function"
    },
    {
      "inputs": [],
      "name": "verify",
      "outputs": [
        {
          "internalType": "bool",
          "name": "",
          "type": "bool"
        }
      ],
      "stateMutability": "pure",
      "type": "function"
    },
    {
      "inputs": [],
      "name": "whitelistEnabled",
      "outputs": [
        {
          "internalType": "bool",
          "name": "",
          "type": "bool"
        }
      ],
      "stateMutability": "view",
      "type": "function"
    }
  ],
  "transactionHash": "0x94ab81e0e5b4d8b93ab9d7b69b7664ea2cd4a54ad2579cb14c5a9900e67ef103",
  "args": [],
  "numDeployments": 1,
  "solcInputHash": "96bf22df9e6c6214045c3865d56b99e5",
  "bytecode": "0x60808060405234605e5760008054336001600160a01b0319821681178355916001600160a01b03909116907f8be0079c531659141344cd1fd0a4f28419497f9722a3daafe3b4186f6b6457e09080a360018055611d2d90816100648239f35b600080fdfe6080604052600436101561001257600080fd5b6000803560e01c80631790da961461150f5780631b3012a31461147a5780631edf47da1461110157806328441ca8146110dc5780632c3496271461101e5780632f17b18214610d7d57806331b1125f14610fbe578063348519fe14610f835780633841ce5814610f5a5780633a5381b514610f315780633af32abf14610ef2578063481c6a7514610ec957806350669a0314610da357806351fb012d14610d7d57806351ff484714610ca8578063677ba3d314610b1c578063703bafd514610af3578063715018a614610a9957806379c65068146109d85780638ab1d6811461093b5780638da5cb5b14610914578063942e55d8146108d9578063cb4c86b7146106ce578063cdfb2b4e14610860578063d1df306c14610769578063d6b0f484146106f7578063dd53bd2b146106ce578063e43252d714610686578063f2fde38b146105f8578063f64e8814146102bf578063f8a3c8f2146101cf578063fc735e99146101b35763fcdfd5c51461018857600080fd5b346101b057806003193601126101b0576007546040516001600160a01b039091168152602090f35b80fd5b50346101b057806003193601126101b057602060405160018152f35b50346101b057806003193601126101b0576009546001600160a01b031690811561026f57602060049260405193848092637c51e47960e11b82525afa908115610263578091610226575b6020826040519015158152f35b90506020823d60201161025b575b816102416020938361156e565b810103126101b0575061025560209161166f565b38610219565b3d9150610234565b604051903d90823e3d90fd5b60405162461bcd60e51b815260206004820152602260248201527f42617369635661756c743a2066756e64696e67206d6f64756c65206e6f742073604482015261195d60f21b6064820152608490fd5b50346101b05760203660031901126101b05760043567ffffffffffffffff81116105f4576102f19036906004016115e7565b908151820190608083602084019303126101b0576103116020840161187d565b9061031e6040850161187d565b9161032b6060860161166f565b9460808101519067ffffffffffffffff82116105f0570184603f820112156105ec5760208101519467ffffffffffffffff86116105d8578560051b9160405196610378602085018961156e565b8752602087019281016040019182116105d457604001915b8183106105b05750506009546001600160a01b0392831694909216905060a082901c60ff1661056b5783156105265780156104e15785610455575b60028054600480546001600160a01b0319169093179092556001600160a81b0319909116841795151560a01b60ff60a01b169590951790945560ff60a01b19909316600160a01b176009559091805b8351811015610448576001906104426001600160a01b0361043b8388611c8d565b5116611b9e565b0161041a565b5061045282611b57565b80f35b825b85518110156104db576001600160a01b036104728288611c8d565b51161561048157600101610457565b60405162461bcd60e51b815260206004820152602c60248201527f42617369635661756c743a2077686974656c697374206164647265737320636160448201526b6e6e6f74206265207a65726f60a01b6064820152608490fd5b506103cb565b60405162461bcd60e51b815260206004820152601d60248201527f42617369635661756c743a20696e76616c69642076616c696461746f720000006044820152606490fd5b60405162461bcd60e51b815260206004820152601b60248201527f42617369635661756c743a20696e76616c6964206d616e6167657200000000006044820152606490fd5b60405162461bcd60e51b815260206004820152601f60248201527f42617369635661756c743a20616c726561647920696e697469616c697a6564006044820152606490fd5b82516001600160a01b03811681036105d057815260209283019201610390565b8580fd5b8480fd5b634e487b7160e01b84526041600452602484fd5b8280fd5b8380fd5b5080fd5b50346101b05760203660031901126101b057610612611643565b61061a611891565b6001600160a01b038116156106325761045290611b57565b60405162461bcd60e51b815260206004820152602660248201527f4f776e61626c653a206e6577206f776e657220697320746865207a65726f206160448201526564647265737360d01b6064820152608490fd5b50346101b05760203660031901126101b0576104526106a3611643565b6106b860018060a01b03600254163314611701565b6106c960ff60095460a01c1661174d565b611b9e565b50346101b057806003193601126101b0576009546040516001600160a01b039091168152602090f35b50346101b057806003193601126101b05760025461071f336001600160a01b03831614611701565b61073060ff60095460a01c1661174d565b60ff60a01b19166002556040518181527f1cf28b997975c7be355bcef74f2f5019aa48253bc1e54b3c8b002471865fdba890602090a180f35b50346101b05760403660031901126101b05780610784611643565b6009546107ab9060ff906107a2336001600160a01b03831614611831565b60a01c1661174d565b60ff60025460a01c16610839575b6008546001600160a01b03166107d0811515611799565b803b156108355760405163079cc67960e41b81526001600160a01b039092166004830152602480359083015282908290818381604481015b03925af1801561082a576108195750f35b816108239161156e565b6101b05780f35b6040513d84823e3d90fd5b5050fd5b6001600160a01b03811682526003602052604082205461085b9060ff166117e5565b6107b9565b50346101b057806003193601126101b057600254610888336001600160a01b03831614611701565b61089960ff60095460a01c1661174d565b60ff60a01b1916600160a01b17600255604051600181527f1cf28b997975c7be355bcef74f2f5019aa48253bc1e54b3c8b002471865fdba890602090a180f35b50346101b05760203660031901126101b0576104526108f6611643565b6108fe611891565b61090f60ff60095460a01c1661174d565b611a77565b50346101b057806003193601126101b057546040516001600160a01b039091168152602090f35b50346101b05760203660031901126101b057610955611643565b61096a60018060a01b03600254163314611701565b61097b60ff60095460a01c1661174d565b6001600160a01b03168082526003602052604082205461099d9060ff166117e5565b808252600360205260408220805460ff191690557fde8cf212af7ce38b2840785a2768d97ff2dbf3c21b516961cec0061e134c2a1e8280a280f35b50346101b05760403660031901126101b057806109f3611643565b600954610a119060ff906107a2336001600160a01b03831614611831565b60ff60025460a01c16610a72575b6008546001600160a01b0316610a36811515611799565b803b15610835576040516340c10f1960e01b81526001600160a01b03909216600483015260248035908301528290829081838160448101610808565b6001600160a01b038116825260036020526040822054610a949060ff166117e5565b610a1f565b50346101b057806003193601126101b057610ab2611891565b80546001600160a01b03198116825581906001600160a01b03167f8be0079c531659141344cd1fd0a4f28419497f9722a3daafe3b4186f6b6457e08280a380f35b50346101b057806003193601126101b0576008546040516001600160a01b039091168152602090f35b50346101b05760603660031901126101b057610b36611643565b610b3e611659565b610b4f60ff60095460a01c1661174d565b60ff60025460a01c1680610c81575b610c5a575b6008546001600160a01b03163303610c155760075483926001600160a01b039091169182151580610c03575b80610bf1575b610b9e57505050f35b823b15610bec57604051635329441f60e11b81526001600160a01b0392831660048201529116602482015260448035908201529082908290606490829084905af1801561082a576108195750f35b505050fd5b506001600160a01b0381161515610b95565b506001600160a01b0382161515610b8f565b60405162461bcd60e51b815260206004820152601f60248201527f42617369635661756c743a206f6e6c7920746f6b656e2063616e2063616c6c006044820152606490fd5b6001600160a01b038116835260036020526040832054610c7c9060ff166117e5565b610b63565b6001600160a01b038316845260036020526040842054610ca39060ff166117e5565b610b5e565b50346101b057806003193601126101b057604051908060065490610ccb82611534565b8085529160018116908115610d565750600114610d0b575b610d0784610cf38186038261156e565b6040519182916020835260208301906115a6565b0390f35b60068152600080516020611cd8833981519152939250905b808210610d3c57509091508101602001610cf382610ce3565b919260018160209254838588010152019101909291610d23565b60ff191660208087019190915292151560051b85019092019250610cf39150839050610ce3565b50346101b057806003193601126101b057602060ff60025460a01c166040519015158152f35b50346101b057806003193601126101b057600954610dc660ff8260a01c1661174d565b6002546001600160a01b03163314908115610eb6575b5015610e655760085481906001600160a01b0316610dfb811515611799565b803b15610e6257818091600460405180948193631fa5d41d60e11b83525af1801561082a57610e4d575b50807f034f571e8421592eac76524eb9ce5c1ec88251bd2ea778a88cf713dbd15cfc3391a180f35b81610e579161156e565b6101b0578038610e25565b50fd5b60405162461bcd60e51b815260206004820152602360248201527f42617369635661756c743a206f6e6c79206d616e61676572206f722066756e64604482015262696e6760e81b6064820152608490fd5b6001600160a01b03163314905038610ddc565b50346101b057806003193601126101b0576002546040516001600160a01b039091168152602090f35b50346101b05760203660031901126101b05760209060ff906040906001600160a01b03610f1d611643565b168152600384522054166040519015158152f35b50346101b057806003193601126101b0576004546040516001600160a01b039091168152602090f35b50346101b057806003193601126101b0576007546040516001600160a01b039091168152602090f35b50346101b05760203660031901126101b057610452610fa0611643565b610fa8611891565b610fb960ff60095460a01c1661174d565b6119af565b50346101b05760603660031901126101b057610fd8611643565b610fe0611659565b90604435906001600160a01b03821682036105f05761045292610fb961090f92611008611891565b61101960ff60095460a01c1661174d565b6118e9565b50346101b057806003193601126101b05761104460018060a01b03600254163314611701565b61105560ff60095460a01c1661174d565b60085481906001600160a01b031661106e811515611799565b803b15610e6257818091600460405180958193638456cb5960e01b83525af180156110cf576110bf575b7fe7792495f34379948e170e2eaab4c10e47ffdd0999c32d6e9848e863802f188c8180a180f35b6110c89161156e565b3881611098565b50604051903d90823e3d90fd5b50346101b05760203660031901126101b0576104526110f9611643565b611008611891565b50346101b05760403660031901126101b05760043567ffffffffffffffff81116105f4576111339036906004016115e7565b9060243567ffffffffffffffff81116105f4576111549036906004016115e7565b9161116a60018060a01b03600254163314611701565b61117b60ff60095460a01c1661174d565b80519267ffffffffffffffff841161146657611198600554611534565b601f81116113fb575b50602093601f811160011461138c5783948192939491611381575b508160011b916000199060031b1c1916176005555b805167ffffffffffffffff81116105d8576111ed600654611534565b601f8111611316575b506020601f821160011461127f5761126092827f54dddae9d1794a76ed9a0d813b38cd24dd636b9435046a24cfa0c81ed2cd53b5959361126e938891611274575b508160011b916000199060031b1c1916176006555b6040519384936040855260408501906115a6565b9083820360208501526115a6565b0390a180f35b905082015138611237565b60068552600080516020611cd883398151915290601f198316865b8181106112fe57508361126e9361126096937f54dddae9d1794a76ed9a0d813b38cd24dd636b9435046a24cfa0c81ed2cd53b59896600194106112e5575b5050811b0160065561124c565b84015160001960f88460031b161c1916905538806112d8565b9192602060018192868901518155019401920161129a565b60068552601f820160051c600080516020611cd883398151915201906020831061136b575b601f0160051c600080516020611cd883398151915201905b81811061136057506111f6565b858155600101611353565b600080516020611cd8833981519152915061133b565b9050830151386111bc565b60058452601f19811694600080516020611cb883398151915290855b8781106113e3575082600194959697106113ca575b5050811b016005556111d1565b85015160001960f88460031b161c1916905538806113bd565b909160206001819285890151815501930191016113a8565b60058452601f850160051c600080516020611cb8833981519152019060208610611450575b601f0160051c600080516020611cb883398151915201905b81811061144557506111a1565b848155600101611438565b600080516020611cb88339815191529150611420565b634e487b7160e01b83526041600452602483fd5b50346101b057806003193601126101b05760405190806005549061149d82611534565b8085529160018116908115610d5657506001146114c457610d0784610cf38186038261156e565b60058152600080516020611cb8833981519152939250905b8082106114f557509091508101602001610cf382610ce3565b9192600181602092548385880101520191019092916114dc565b50346101b057806003193601126101b057602061152a61167c565b6040519015158152f35b90600182811c92168015611564575b602083101461154e57565b634e487b7160e01b600052602260045260246000fd5b91607f1691611543565b90601f8019910116810190811067ffffffffffffffff82111761159057604052565b634e487b7160e01b600052604160045260246000fd5b919082519283825260005b8481106115d2575050826000602080949584010152601f8019910116010190565b806020809284010151828286010152016115b1565b81601f8201121561163e5780359067ffffffffffffffff8211611590576040519261161c601f8401601f19166020018561156e565b8284526020838301011161163e57816000926020809301838601378301015290565b600080fd5b600435906001600160a01b038216820361163e57565b602435906001600160a01b038216820361163e57565b5190811515820361163e57565b6008546001600160a01b031680156116fb57602060049160405192838092635c975abb60e01b82525afa9081156116ef576000916116b8575090565b90506020813d6020116116e7575b816116d36020938361156e565b8101031261163e576116e49061166f565b90565b3d91506116c6565b6040513d6000823e3d90fd5b50600090565b1561170857565b60405162461bcd60e51b815260206004820152601860248201527f42617369635661756c743a206f6e6c79206d616e6167657200000000000000006044820152606490fd5b1561175457565b60405162461bcd60e51b815260206004820152601b60248201527f42617369635661756c743a206e6f7420696e697469616c697a656400000000006044820152606490fd5b156117a057565b60405162461bcd60e51b815260206004820152601960248201527f42617369635661756c743a20746f6b656e206e6f7420736574000000000000006044820152606490fd5b156117ec57565b60405162461bcd60e51b815260206004820152601b60248201527f42617369635661756c743a206e6f742077686974656c697374656400000000006044820152606490fd5b1561183857565b60405162461bcd60e51b815260206004820152601860248201527f42617369635661756c743a206f6e6c792066756e64696e6700000000000000006044820152606490fd5b51906001600160a01b038216820361163e57565b6000546001600160a01b031633036118a557565b606460405162461bcd60e51b815260206004820152602060248201527f4f776e61626c653a2063616c6c6572206973206e6f7420746865206f776e65726044820152fd5b600854906001600160a01b03821661196a576001600160a01b031690811561191b576001600160a01b03191617600855565b60405162461bcd60e51b815260206004820152602160248201527f42617369635661756c743a20696e76616c696420746f6b656e206164647265736044820152607360f81b6064820152608490fd5b60405162461bcd60e51b815260206004820152601d60248201527f42617369635661756c743a20746f6b656e20616c7265616479207365740000006044820152606490fd5b600954906001600160a01b038216611a32576001600160a01b03169081156119e1576001600160a01b03191617600955565b60405162461bcd60e51b815260206004820152602360248201527f42617369635661756c743a20696e76616c69642066756e64696e67206164647260448201526265737360e81b6064820152608490fd5b60405162461bcd60e51b815260206004820152601f60248201527f42617369635661756c743a2066756e64696e6720616c726561647920736574006044820152606490fd5b600754906001600160a01b038216611b02576001600160a01b0316908115611aa9576001600160a01b03191617600755565b60405162461bcd60e51b815260206004820152602b60248201527f42617369635661756c743a20696e76616c6964206469766964656e64206d6f6460448201526a756c65206164647265737360a81b6064820152608490fd5b60405162461bcd60e51b815260206004820152602760248201527f42617369635661756c743a206469766964656e64206d6f64756c6520616c726560448201526618591e481cd95d60ca1b6064820152608490fd5b600080546001600160a01b039283166001600160a01b03198216811783559216907f8be0079c531659141344cd1fd0a4f28419497f9722a3daafe3b4186f6b6457e09080a3565b6001600160a01b03168015611c485780600052600360205260ff60406000205416611c03578060005260036020526040600020600160ff198254161790557f4790a4adb426ca2345bb5108f6e454eae852a7bf687544cd66a7270dff3a41d6600080a2565b60405162461bcd60e51b815260206004820152601f60248201527f42617369635661756c743a20616c72656164792077686974656c6973746564006044820152606490fd5b60405162461bcd60e51b815260206004820152601b60248201527f42617369635661756c743a20696e76616c6964206164647265737300000000006044820152606490fd5b8051821015611ca15760209160051b010190565b634e487b7160e01b600052603260045260246000fdfe036b6384b5eca791c62761152d0c79bb0604c104a5fb6f4eb0703f3154bb3db0f652222313e28459528d920b65115c16c04f3efc82aaedc97be59f3f377c0d3fa2646970667358221220fedd6e960db1a083c0356d1f79712d0bfcc79f5bb3ad3b586e4d13a24d68116d64736f6c634300081a0033",
  "devdoc": {
    "details": "Basic vault template implementation, providing fundamental storage and permission management",
    "kind": "dev",
    "methods": {
      "addToWhitelist(address)": {
        "details": "Add address to whitelist",
        "params": {
          "_addr": "Address to add"
        }
      },
      "burnToken(address,uint256)": {
        "details": "Burn tokens through vault, Only callable by the funding module",
        "params": {
          "amount": "Amount to burn",
          "from": "Address to burn from"
        }
      },
      "disableWhitelist()": {
        "details": "Disable whitelist"
      },
      "enableWhitelist()": {
        "details": "Enable whitelist"
      },
      "getDividendModule()": {
        "details": "Get dividend module address",
        "returns": {
          "_0": "Dividend module address"
        }
      },
      "getFundingModule()": {
        "details": "Get funding module address",
        "returns": {
          "_0": "Funding module address"
        }
      },
      "initiate(bytes)": {
        "details": "Unified initialization interface",
        "params": {
          "_initData": "Encoded initialization data"
        }
      },
      "isFundingSuccessful()": {
        "details": "Check if funding is successful by querying the funding module",
        "returns": {
          "_0": "Whether funding is successful"
        }
      },
      "isTokenPaused()": {
        "details": "Check if token is paused",
        "returns": {
          "_0": "Whether token is paused"
        }
      },
      "isWhiteList()": {
        "details": "Check if whitelist is enabled",
        "returns": {
          "_0": "Whether whitelist is enabled"
        }
      },
      "mintToken(address,uint256)": {
        "details": "Mint tokens through vault, Only callable by the funding module",
        "params": {
          "amount": "Amount to mint",
          "to": "Recipient address"
        }
      },
      "onTokenTransfer(address,address,uint256)": {
        "details": "Hook called on token transfer, Only callable by the token module",
        "params": {
          "amount": "Transfer amount",
          "from": "From address",
          "to": "To address"
        }
      },
      "owner()": {
        "details": "Returns the address of the current owner."
      },
      "pauseToken()": {
        "details": "Pause token"
      },
      "removeFromWhitelist(address)": {
        "details": "Remove address from whitelist",
        "params": {
          "_addr": "Address to remove"
        }
      },
      "renounceOwnership()": {
        "details": "Leaves the contract without owner. It will not be possible to call `onlyOwner` functions. Can only be called by the current owner. NOTE: Renouncing ownership will leave the contract without an owner, thereby disabling any functionality that is only available to the owner."
      },
      "transferOwnership(address)": {
        "details": "Transfers ownership of the contract to a new account (`newOwner`). Can only be called by the current owner."
      },
      "unpauseToken()": {
        "details": "Unpause token"
      },
      "updateVerifyData(bytes,bytes)": {
        "details": "Update verification data",
        "params": {
          "_signature": "Signature data",
          "hash": "Data hash"
        }
      },
      "verify()": {
        "details": "Verify data (simple implementation, actual applications need more complex verification logic)",
        "returns": {
          "_0": "Verification result"
        }
      }
    },
    "title": "BasicVault",
    "version": 1
  },
  "userdoc": {
    "kind": "user",
    "methods": {},
    "notice": "This contract does not contain specific business logic, business functions are implemented by other modules",
    "version": 1
  },
  "storageLayout": {
    "storage": [
      {
        "astId": 7,
        "contract": "contracts/v2/templates/vault/BasicVault.sol:BasicVault",
        "label": "_owner",
        "offset": 0,
        "slot": "0",
        "type": "t_address"
      },
      {
        "astId": 231,
        "contract": "contracts/v2/templates/vault/BasicVault.sol:BasicVault",
        "label": "_status",
        "offset": 0,
        "slot": "1",
        "type": "t_uint256"
      },
      {
        "astId": 5981,
        "contract": "contracts/v2/templates/vault/BasicVault.sol:BasicVault",
        "label": "manager",
        "offset": 0,
        "slot": "2",
        "type": "t_address"
      },
      {
        "astId": 5984,
        "contract": "contracts/v2/templates/vault/BasicVault.sol:BasicVault",
        "label": "whitelistEnabled",
        "offset": 20,
        "slot": "2",
        "type": "t_bool"
      },
      {
        "astId": 5989,
        "contract": "contracts/v2/templates/vault/BasicVault.sol:BasicVault",
        "label": "isWhitelisted",
        "offset": 0,
        "slot": "3",
        "type": "t_mapping(t_address,t_bool)"
      },
      {
        "astId": 5992,
        "contract": "contracts/v2/templates/vault/BasicVault.sol:BasicVault",
        "label": "validator",
        "offset": 0,
        "slot": "4",
        "type": "t_address"
      },
      {
        "astId": 5995,
        "contract": "contracts/v2/templates/vault/BasicVault.sol:BasicVault",
        "label": "dataHash",
        "offset": 0,
        "slot": "5",
        "type": "t_bytes_storage"
      },
      {
        "astId": 5998,
        "contract": "contracts/v2/templates/vault/BasicVault.sol:BasicVault",
        "label": "signature",
        "offset": 0,
        "slot": "6",
        "type": "t_bytes_storage"
      },
      {
        "astId": 6000,
        "contract": "contracts/v2/templates/vault/BasicVault.sol:BasicVault",
        "label": "accumulatedYield",
        "offset": 0,
        "slot": "7",
        "type": "t_address"
      },
      {
        "astId": 6003,
        "contract": "contracts/v2/templates/vault/BasicVault.sol:BasicVault",
        "label": "vaultToken",
        "offset": 0,
        "slot": "8",
        "type": "t_address"
      },
      {
        "astId": 6005,
        "contract": "contracts/v2/templates/vault/BasicVault.sol:BasicVault",
        "label": "funding",
        "offset": 0,
        "slot": "9",
        "type": "t_address"
      },
      {
        "astId": 6007,
        "contract": "contracts/v2/templates/vault/BasicVault.sol:BasicVault",
        "label": "_initialized",
        "offset": 20,
        "slot": "9",
        "type": "t_bool"
      }
    ],
    "types": {
      "t_address": {
        "encoding": "inplace",
        "label": "address",
        "numberOfBytes": "20"
      },
      "t_bool": {
        "encoding": "inplace",
        "label": "bool",
        "numberOfBytes": "1"
      },
      "t_bytes_storage": {
        "encoding": "bytes",
        "label": "bytes",
        "numberOfBytes": "32"
      },
      "t_mapping(t_address,t_bool)": {
        "encoding": "mapping",
        "key": "t_address",
        "label": "mapping(address => bool)",
        "numberOfBytes": "32",
        "value": "t_bool"
      },
      "t_uint256": {
        "encoding": "inplace",
        "label": "uint256",
        "numberOfBytes": "32"
      }
    }
  }
}