{
  "address": "0x5FbDB2315678afecb367f032d93F642f64180aa3",
  "abi": [
    {
      "inputs": [],
      "stateMutability": "nonpayable",
      "type": "constructor"
    },
    {
      "anonymous": false,
      "inputs": [
        {
          "indexed": false,
          "internalType": "address",
          "name": "proxy",
          "type": "address"
        },
        {
          "indexed": false,
          "internalType": "address",
          "name": "proxyAdmin",
          "type": "address"
        },
        {
          "indexed": false,
          "internalType": "address",
          "name": "implementation",
          "type": "address"
        },
        {
          "indexed": false,
          "internalType": "address",
          "name": "guardian",
          "type": "address"
        }
      ],
      "name": "VaultDeployed",
      "type": "event"
    },
    {
      "inputs": [
        {
          "internalType": "bytes",
          "name": "initData",
          "type": "bytes"
        },
        {
          "internalType": "address",
          "name": "guardian",
          "type": "address"
        }
      ],
      "name": "newVault",
      "outputs": [
        {
          "internalType": "address",
          "name": "",
          "type": "address"
        },
        {
          "internalType": "address",
          "name": "",
          "type": "address"
        },
        {
          "internalType": "address",
          "name": "",
          "type": "address"
        }
      ],
      "stateMutability": "nonpayable",
      "type": "function"
    }
  ],
  "transactionHash": "0xf1db377177ba13496d869ced599b88942be8b0e2ca82f67dbf784482bb59ba72",
  "args": [],
  "numDeployments": 1,
  "solcInputHash": "4eabf80cfa4533815a3c0398e325c614",
  "bytecode": "0x60808060405234601557613660908161001b8239f35b600080fdfe608080604052600436101561001357600080fd5b600090813560e01c63179d59bc1461002a57600080fd5b346102ab5760403660031901126102ab5760043567ffffffffffffffff811161033d573660238201121561033d57806004013567ffffffffffffffff81116102bc57839190610083601f8201601f191660200185610341565b808452366024828401011161033d578060246020930183860137830101526024356001600160a01b03811692908390036102725782156102dc57604051611fcd8082019082821067ffffffffffffffff8311176102bc5790829161165e8339039082f09081156102d05760405161066f8082019082821067ffffffffffffffff8311176102bc5790829161037a8339039082f09182156102af576040516001600160a01b03918216939091169190610c758082019067ffffffffffffffff8211838310176102bc5760809183916109e983398681528560208201526060604082015284606082015203019082f080156102af576001600160a01b031693843b156102ab57816040518092633d93a20560e21b825260206004830152805190816024840152835b8281106102905750508181846044809484010152601f8019910116810103018183895af18015610275578290610280575b5050813b156102725760405163f2fde38b60e01b815260048101869052818160248183875af180156102755761025d575b50507f08063c8075192206c58e6dd01ffef672f99055179aead6066f80fb31dd2db15060806060956040519086825284602083015285604083015287820152a160405192835260208301526040820152f35b610268828092610341565b610272578061020b565b80fd5b6040513d84823e3d90fd5b61028991610341565b38816101da565b602081830181015160448884010152879550869450016101a9565b5080fd5b50604051903d90823e3d90fd5b634e487b7160e01b84526041600452602484fd5b604051903d90823e3d90fd5b60405162461bcd60e51b815260206004820152603360248201527f42617369635661756c74466163746f72793a20677561726469616e2063616e206044820152726e6f74206265207a65726f206164647265737360681b6064820152608490fd5b8280fd5b90601f8019910116810190811067ffffffffffffffff82111761036357604052565b634e487b7160e01b600052604160045260246000fdfe60808060405234605a5760008054336001600160a01b0319821681178355916001600160a01b03909116907f8be0079c531659141344cd1fd0a4f28419497f9722a3daafe3b4186f6b6457e09080a361060f90816100608239f35b600080fdfe608080604052600436101561001357600080fd5b60009081803560e01c918263204e1c7a1461046d5750508063715018a6146104135780637eff275e146103825780638da5cb5b1461035b5780639623609d1461024957806399a88ec4146101b4578063f2fde38b146100ee5763f3b7dead1461007b57600080fd5b346100eb5760203660031901126100eb57808060046001600160a01b036100a06104ad565b6040516303e1469160e61b815291165afa6100b9610532565b90156100e75780516020916001600160a01b03916100de919081018401908401610562565b16604051908152f35b5080fd5b80fd5b50346100eb5760203660031901126100eb576101086104ad565b610110610581565b6001600160a01b031680156101605781546001600160a01b03198116821783556001600160a01b03167f8be0079c531659141344cd1fd0a4f28419497f9722a3daafe3b4186f6b6457e08380a380f35b60405162461bcd60e51b815260206004820152602660248201527f4f776e61626c653a206e6577206f776e657220697320746865207a65726f206160448201526564647265737360d01b6064820152608490fd5b50346100eb5760403660031901126100eb57806101cf6104ad565b6101d76104c8565b906101e0610581565b6001600160a01b031690813b1561024557604051631b2ce7f360e11b81526001600160a01b0390911660048201529082908290602490829084905af1801561023a576102295750f35b81610233916104de565b6100eb5780f35b6040513d84823e3d90fd5b5050fd5b5060603660031901126100eb5761025e6104ad565b906102676104c8565b6044359267ffffffffffffffff8411610353573660238501121561035357836004013561029381610516565b946102a160405196876104de565b81865236602483830101116103575781859260246020930183890137860101526102c9610581565b6001600160a01b0316803b15610353576040805163278f794360e11b81526001600160a01b0390931660048401526024830152835160448301819052835b81811061033d57848085818187816064818a86838284010152601f8019910116810103019134905af1801561023a576102295750f35b8060208092880101516064828701015201610307565b8280fd5b8480fd5b50346100eb57806003193601126100eb57546040516001600160a01b039091168152602090f35b50346100eb5760403660031901126100eb578061039d6104ad565b6103a56104c8565b906103ae610581565b6001600160a01b031690813b15610245576040516308f2839760e41b81526001600160a01b039091166004820152919081908390602490829084905af18015610406576103f85780f35b610401916104de565b388180f35b50604051903d90823e3d90fd5b50346100eb57806003193601126100eb5761042c610581565b80546001600160a01b03198116825581906001600160a01b03167f8be0079c531659141344cd1fd0a4f28419497f9722a3daafe3b4186f6b6457e08280a380f35b8190346104aa5760203660031901126104aa5781906004906001600160a01b036104956104ad565b635c60da1b60e01b8352165afa6100b9610532565b50fd5b600435906001600160a01b03821682036104c357565b600080fd5b602435906001600160a01b03821682036104c357565b90601f8019910116810190811067ffffffffffffffff82111761050057604052565b634e487b7160e01b600052604160045260246000fd5b67ffffffffffffffff811161050057601f01601f191660200190565b3d1561055d573d9061054382610516565b9161055160405193846104de565b82523d6000602084013e565b606090565b908160209103126104c357516001600160a01b03811681036104c35790565b6000546001600160a01b0316330361059557565b606460405162461bcd60e51b815260206004820152602060248201527f4f776e61626c653a2063616c6c6572206973206e6f7420746865206f776e65726044820152fdfea264697066735822122058b9e5a891b425518778f28ada758022b0fa6de418f37fd8bf81041900605fe864736f6c634300081a00336080604052610c7580380380610014816102ce565b92833981016060828203126102c95761002c82610309565b61003860208401610309565b604084015190936001600160401b0382116102c957019082601f830112156102c95781519161006e6100698461031d565b6102ce565b928084526020840194602082840101116102c95784602061008f9301610338565b803b1561026e577f360894a13ba1a3210667c828492db98dca3e2076cc3735a920a3ca505d382bbc80546001600160a01b0319166001600160a01b0383169081179091557fbc7cd75a20ee27fd9adebab32041f755214dbc6bffa90cc0225b39da2e5c2d3b600080a2815115801590610266575b6101e0575b5050600080516020610c5583398151915254604080516001600160a01b03808416825290941660208501819052939192507f7e644d79422f17c01e4894b5f4f588d331ebfa28653d42ae832dc59e38c9798f91a1811561018c576001600160a01b03191617600080516020610c5583398151915255604051610846908161040f8239f35b60405162461bcd60e51b815260206004820152602660248201527f455243313936373a206e65772061646d696e20697320746865207a65726f206160448201526564647265737360d01b6064820152608490fd5b600080610255946101f160606102ce565b94602786527f416464726573733a206c6f772d6c6576656c2064656c65676174652063616c6c6020870152660819985a5b195960ca1b60408701525190845af43d1561025e573d916102456100698461031d565b9283523d6000602085013e61035b565b50388080610108565b60609161035b565b506000610103565b60405162461bcd60e51b815260206004820152602d60248201527f455243313936373a206e657720696d706c656d656e746174696f6e206973206e60448201526c1bdd08184818dbdb9d1c9858dd609a1b6064820152608490fd5b600080fd5b6040519190601f01601f191682016001600160401b038111838210176102f357604052565b634e487b7160e01b600052604160045260246000fd5b51906001600160a01b03821682036102c957565b6001600160401b0381116102f357601f01601f191660200190565b60005b83811061034b5750506000910152565b818101518382015260200161033b565b919290156103bd575081511561036f575090565b3b156103785790565b60405162461bcd60e51b815260206004820152601d60248201527f416464726573733a2063616c6c20746f206e6f6e2d636f6e74726163740000006044820152606490fd5b8251909150156103d05750805190602001fd5b6044604051809262461bcd60e51b8252602060048301526104008151809281602486015260208686019101610338565b601f01601f19168101030190fdfe60806040523661013f576000805160206107d183398151915254610033906001600160a01b03165b6001600160a01b031690565b330361013a576000356001600160e01b031916631b2ce7f360e11b8103610065575061005d61045b565b602081519101f35b63278f794360e11b8103610081575061007c6103ca565b61005d565b6308f2839760e41b8103610098575061007c6102e4565b6303e1469160e61b81036100af575061007c61023e565b635c60da1b60e01b036100c45761007c610203565b60405162461bcd60e51b815260206004820152604260248201527f5472616e73706172656e745570677261646561626c6550726f78793a2061646d60448201527f696e2063616e6e6f742066616c6c6261636b20746f2070726f78792074617267606482015261195d60f21b608482015260a490fd5b61018b565b6000805160206107d183398151915254610161906001600160a01b0316610027565b330361018b576000356001600160e01b031916631b2ce7f360e11b8103610065575061005d61045b565b6000805160206107f18339815191525460009081906001600160a01b0316368280378136915af43d6000803e156101c1573d6000f35b3d6000fd5b634e487b7160e01b600052604160045260246000fd5b90601f8019910116810190811067ffffffffffffffff8211176101fe57604052565b6101c6565b61020b610581565b60018060a01b036000805160206107f183398151915254166040519060208201526020815261023b6040826101dc565b90565b610246610581565b60018060a01b036000805160206107d183398151915254166040519060208201526020815261023b6040826101dc565b600435906001600160a01b038216820361028c57565b600080fd5b602090600319011261028c576004356001600160a01b038116810361028c5790565b67ffffffffffffffff81116101fe57601f01601f191660200190565b604051906102de6020836101dc565b60008252565b6102ec610581565b3660041161028c576001600160a01b0361030536610291565b166000805160206107d1833981519152547f7e644d79422f17c01e4894b5f4f588d331ebfa28653d42ae832dc59e38c9798f6040805160018060a01b0384168152846020820152a18115610376576001600160a01b031916176000805160206107d18339815191525561023b6102cf565b60405162461bcd60e51b815260206004820152602660248201527f455243313936373a206e65772061646d696e20697320746865207a65726f206160448201526564647265737360d01b6064820152608490fd5b3660041161028c57604036600319011261028c576103e6610276565b6024359067ffffffffffffffff821161028c573660238301121561028c57816004013590610413826102b3565b9161042160405193846101dc565b808352366024828601011161028c576020816000926024610453970183870137840101526001600160a01b0316610588565b61023b6102cf565b610463610581565b3660041161028c576001600160a01b0361047c36610291565b166020906040519061048e83836101dc565b60008252803b15610526576000805160206107f183398151915280546001600160a01b03191682179055807fbc7cd75a20ee27fd9adebab32041f755214dbc6bffa90cc0225b39da2e5c2d3b600080a281511580159061051e575b610504575b50506104fd60405191826101dc565b6000815290565b61051691610510610664565b916106af565b5038806104ee565b5060006104e9565b60405162461bcd60e51b815260048101849052602d60248201527f455243313936373a206e657720696d706c656d656e746174696f6e206973206e60448201526c1bdd08184818dbdb9d1c9858dd609a1b6064820152608490fd5b3461028c57565b803b15610609576000805160206107f183398151915280546001600160a01b0319166001600160a01b0383169081179091557fbc7cd75a20ee27fd9adebab32041f755214dbc6bffa90cc0225b39da2e5c2d3b600080a2815115801590610601575b6105f2575050565b6105fe91610510610664565b50565b5060016105ea565b60405162461bcd60e51b815260206004820152602d60248201527f455243313936373a206e657720696d706c656d656e746174696f6e206973206e60448201526c1bdd08184818dbdb9d1c9858dd609a1b6064820152608490fd5b604051906106736060836101dc565b60278252660819985a5b195960ca1b6040837f416464726573733a206c6f772d6c6576656c2064656c65676174652063616c6c60208201520152565b60008061023b9493602081519101845af43d156106ee573d916106d1836102b3565b926106df60405194856101dc565b83523d6000602085013e610742565b606091610742565b156106fd57565b60405162461bcd60e51b815260206004820152601d60248201527f416464726573733a2063616c6c20746f206e6f6e2d636f6e74726163740000006044820152606490fd5b919290156107625750815115610756575090565b61023b903b15156106f6565b8251909150156107755750805190602001fd5b6040519062461bcd60e51b8252602060048301528181519182602483015260005b8381106107b85750508160006044809484010152601f80199101168101030190fd5b6020828201810151604487840101528593500161079656feb53127684a568b3173ae13b9f8a6016e243e63b6e8ee1178d6a717850b5d6103360894a13ba1a3210667c828492db98dca3e2076cc3735a920a3ca505d382bbca26469706673582212205a24e37b8404c988bf286ad5736caa678faca592c0f556e954fd90f779592ec164736f6c634300081a0033b53127684a568b3173ae13b9f8a6016e243e63b6e8ee1178d6a717850b5d61036080806040523460bd576000549060ff8260081c16606b575060ff808216036031575b604051611f0a90816100c38239f35b60ff90811916176000557f7f26b83ff96e1f2b6a682f133852f6798a09c465da95921460cefb3847402498602060405160ff8152a1386022565b62461bcd60e51b815260206004820152602760248201527f496e697469616c697a61626c653a20636f6e747261637420697320696e697469604482015266616c697a696e6760c81b6064820152608490fd5b600080fdfe6080604052600436101561001257600080fd5b6000803560e01c80631790da96146119005780631b3012a31461186b5780631edf47da146114e757806328593984146114be5780632c349627146113f95780632f17b18214610ed157806331b1125f146111495780633a5381b5146111205780633af32abf146110e15780633f4ba83a1461102f578063481c6a751461100657806350669a0314610ef757806351fb012d14610ed157806351ff484714610dfc5780635c975abb14610dd9578063677ba3d314610c46578063703bafd514610c1d578063715018a614610bc057806379c6506814610af05780638456cb5914610a785780638ab1d681146109d45780638da5cb5b146109ab578063cb4c86b714610982578063cdfb2b4e14610902578063d1df306c14610805578063d6b0f4841461078c578063e43252d71461073d578063f2fde38b146106ac578063f64e881414610280578063f8a3c8f2146101905763fc735e991461017257600080fd5b3461018d578060031936011261018d57602060405160018152f35b80fd5b503461018d578060031936011261018d5760d0546001600160a01b031690811561023057602060049260405193848092637c51e47960e11b82525afa9081156102245780916101e7575b6020826040519015158152f35b90506020823d60201161021c575b816102026020938361195f565b8101031261018d5750610216602091611a60565b386101da565b3d91506101f5565b604051903d90823e3d90fd5b60405162461bcd60e51b815260206004820152602260248201527f42617369635661756c743a2066756e64696e67206d6f64756c65206e6f742073604482015261195d60f21b6064820152608490fd5b503461018d57602036600319011261018d5760043567ffffffffffffffff81116106a8576102b29036906004016119d8565b90805460ff8160081c16159081809261069b575b8015610684575b156106285760ff198116600117835581610617575b5082518301916080846020850194031261018d5761030260208501611c82565b9161030f60408601611c82565b9261031c60608701611a60565b9560808101519067ffffffffffffffff8211610613570185603f8201121561060f5760208101519567ffffffffffffffff87116105fb578660051b9160405197610369602085018a61195f565b8852602088019281016040019182116105f757604001915b8183106105d3575050506001600160a01b039081169316831561058e57801561054957856104bd575b9091928094956103c960ff865460081c166103c481611b3e565b611b3e565b6103d233611d32565b6103fd60ff865460081c166103e681611b3e565b6103ef81611b3e565b60016065556103c481611b3e565b60ff196097541660975560c954926bffffffffffffffffffffffff60a01b60cb54161760cb5560ff60a01b90151560a01b16916affffffffffffffffffffff60a81b16171760c955815b84518110156104755760019061046f6001600160a01b036104688389611e6a565b5116611d7b565b01610447565b5061047f83611d32565b6104865780f35b61ff001981541681557f7f26b83ff96e1f2b6a682f133852f6798a09c465da95921460cefb3847402498602060405160018152a180f35b825b8551811015610543576001600160a01b036104da8288611e6a565b5116156104e9576001016104bf565b60405162461bcd60e51b815260206004820152602c60248201527f42617369635661756c743a2077686974656c697374206164647265737320636160448201526b6e6e6f74206265207a65726f60a01b6064820152608490fd5b506103aa565b60405162461bcd60e51b815260206004820152601d60248201527f42617369635661756c743a20696e76616c69642076616c696461746f720000006044820152606490fd5b60405162461bcd60e51b815260206004820152601b60248201527f42617369635661756c743a20696e76616c6964206d616e6167657200000000006044820152606490fd5b82516001600160a01b03811681036105f357815260209283019201610381565b8680fd5b8580fd5b634e487b7160e01b85526041600452602485fd5b8380fd5b8480fd5b61ffff1916610101178255386102e2565b60405162461bcd60e51b815260206004820152602e60248201527f496e697469616c697a61626c653a20636f6e747261637420697320616c72656160448201526d191e481a5b9a5d1a585b1a5e995960921b6064820152608490fd5b50303b1580156102cd5750600160ff8216146102cd565b50600160ff8216106102c6565b5080fd5b503461018d57602036600319011261018d576106c6611a34565b6106ce611cda565b6001600160a01b038116156106e9576106e690611d32565b80f35b60405162461bcd60e51b815260206004820152602660248201527f4f776e61626c653a206e6577206f776e657220697320746865207a65726f206160448201526564647265737360d01b6064820152608490fd5b503461018d57602036600319011261018d576106e661075a611a34565b61076a60ff845460081c16611b3e565b61077f60018060a01b0360c954163314611af2565b610787611c96565b611d7b565b503461018d578060031936011261018d576107ad60ff825460081c16611b3e565b60c9546107c4336001600160a01b03831614611af2565b6107cc611c96565b60ff60a01b191660c9556040518181527f1cf28b997975c7be355bcef74f2f5019aa48253bc1e54b3c8b002471865fdba890602090a180f35b503461018d57604036600319011261018d5780610820611a34565b61083060ff835460081c16611b3e565b61084560018060a01b0360d054163314611c36565b60ff60c95460a01c166108db575b61085b611c96565b60cf546001600160a01b0316610872811515611b9e565b803b156108d75760405163079cc67960e41b81526001600160a01b039092166004830152602480359083015282908290818381604481015b03925af180156108cc576108bb5750f35b816108c59161195f565b61018d5780f35b6040513d84823e3d90fd5b5050fd5b6001600160a01b038116825260ca60205260408220546108fd9060ff16611bea565b610853565b503461018d578060031936011261018d5761092360ff825460081c16611b3e565b60c95461093a336001600160a01b03831614611af2565b610942611c96565b60ff60a01b1916600160a01b1760c955604051600181527f1cf28b997975c7be355bcef74f2f5019aa48253bc1e54b3c8b002471865fdba890602090a180f35b503461018d578060031936011261018d5760d0546040516001600160a01b039091168152602090f35b503461018d578060031936011261018d576033546040516001600160a01b039091168152602090f35b503461018d57602036600319011261018d576109ee611a34565b6109fe60ff835460081c16611b3e565b610a1360018060a01b0360c954163314611af2565b610a1b611c96565b6001600160a01b031680825260ca6020526040822054610a3d9060ff16611bea565b80825260ca60205260408220805460ff191690557fde8cf212af7ce38b2840785a2768d97ff2dbf3c21b516961cec0061e134c2a1e8280a280f35b503461018d578060031936011261018d57610a9960ff825460081c16611b3e565b610aae60018060a01b0360c954163314611af2565b610ab6611c96565b600160ff1960975416176097557f62e78cea01bee320cd4e420270b5ea74000d11b0c9f74754ebdbfc544b05a2586020604051338152a180f35b503461018d57604036600319011261018d5780610b0b611a34565b610b1b60ff835460081c16611b3e565b610b3060018060a01b0360d054163314611c36565b60ff60c95460a01c16610b99575b610b46611c96565b60cf546001600160a01b0316610b5d811515611b9e565b803b156108d7576040516340c10f1960e01b81526001600160a01b039092166004830152602480359083015282908290818381604481016108aa565b6001600160a01b038116825260ca6020526040822054610bbb9060ff16611bea565b610b3e565b503461018d578060031936011261018d57610bd9611cda565b603380546001600160a01b0319811690915581906001600160a01b03167f8be0079c531659141344cd1fd0a4f28419497f9722a3daafe3b4186f6b6457e08280a380f35b503461018d578060031936011261018d5760cf546040516001600160a01b039091168152602090f35b503461018d57606036600319011261018d57610c60611a34565b610c68611a4a565b610c7860ff845460081c16611b3e565b60ff60c95460a01c1680610db2575b610d8b575b610c94611c96565b60cf546001600160a01b03163303610d465760ce5483926001600160a01b039091169182151580610d34575b80610d22575b610ccf57505050f35b823b15610d1d57604051635329441f60e11b81526001600160a01b0392831660048201529116602482015260448035908201529082908290606490829084905af180156108cc576108bb5750f35b505050fd5b506001600160a01b0381161515610cc6565b506001600160a01b0382161515610cc0565b60405162461bcd60e51b815260206004820152601f60248201527f42617369635661756c743a206f6e6c7920746f6b656e2063616e2063616c6c006044820152606490fd5b6001600160a01b038116835260ca6020526040832054610dad9060ff16611bea565b610c8c565b6001600160a01b038316845260ca6020526040842054610dd49060ff16611bea565b610c87565b503461018d578060031936011261018d57602060ff609754166040519015158152f35b503461018d578060031936011261018d57604051908060cd5490610e1f82611925565b8085529160018116908115610eaa5750600114610e5f575b610e5b84610e478186038261195f565b604051918291602083526020830190611997565b0390f35b60cd8152600080516020611e95833981519152939250905b808210610e9057509091508101602001610e4782610e37565b919260018160209254838588010152019101909291610e77565b60ff191660208087019190915292151560051b85019092019250610e479150839050610e37565b503461018d578060031936011261018d57602060ff60c95460a01c166040519015158152f35b503461018d578060031936011261018d57610f1860ff825460081c16611b3e565b610f20611c96565b60c9546001600160a01b03163303610fb55760cf5481906001600160a01b0316610f4b811515611b9e565b803b15610fb257818091600460405180948193631fa5d41d60e11b83525af180156108cc57610f9d575b50807f034f571e8421592eac76524eb9ce5c1ec88251bd2ea778a88cf713dbd15cfc3391a180f35b81610fa79161195f565b61018d578038610f75565b50fd5b60405162461bcd60e51b815260206004820152602360248201527f42617369635661756c743a206f6e6c79206d616e61676572206f722066756e64604482015262696e6760e81b6064820152608490fd5b503461018d578060031936011261018d5760c9546040516001600160a01b039091168152602090f35b503461018d578060031936011261018d5761105060ff825460081c16611b3e565b61106560018060a01b0360c954163314611af2565b60975460ff8116156110a55760ff19166097557f5db9ee0a495bf2e6ff9c91a7834c1ba4fdd244a5e8aa4e537bd38aeae4b073aa6020604051338152a180f35b60405162461bcd60e51b815260206004820152601460248201527314185d5cd8589b194e881b9bdd081c185d5cd95960621b6044820152606490fd5b503461018d57602036600319011261018d5760209060ff906040906001600160a01b0361110c611a34565b16815260ca84522054166040519015158152f35b503461018d578060031936011261018d5760cb546040516001600160a01b039091168152602090f35b503461018d57606036600319011261018d57611163611a34565b61116b611a4a565b6044356001600160a01b038116929083900361060f5761119160ff855460081c16611b3e565b611199611c96565b60cf54906001600160a01b0382166113b4576001600160a01b0316908115611365576001600160a01b0319161760cf5560d054906001600160a01b038216611320576001600160a01b03169081156112cf576001600160a01b0319161760d05560ce546001600160a01b03811661127a578115611221576001600160a01b0319161760ce5580f35b60405162461bcd60e51b815260206004820152602b60248201527f42617369635661756c743a20696e76616c6964206469766964656e64206d6f6460448201526a756c65206164647265737360a81b6064820152608490fd5b60405162461bcd60e51b815260206004820152602760248201527f42617369635661756c743a206469766964656e64206d6f64756c6520616c726560448201526618591e481cd95d60ca1b6064820152608490fd5b60405162461bcd60e51b815260206004820152602360248201527f42617369635661756c743a20696e76616c69642066756e64696e67206164647260448201526265737360e81b6064820152608490fd5b60405162461bcd60e51b815260206004820152601f60248201527f42617369635661756c743a2066756e64696e6720616c726561647920736574006044820152606490fd5b60405162461bcd60e51b815260206004820152602160248201527f42617369635661756c743a20696e76616c696420746f6b656e206164647265736044820152607360f81b6064820152608490fd5b60405162461bcd60e51b815260206004820152601d60248201527f42617369635661756c743a20746f6b656e20616c7265616479207365740000006044820152606490fd5b503461018d578060031936011261018d5761141a60ff825460081c16611b3e565b61142f60018060a01b0360c954163314611af2565b611437611c96565b60cf5481906001600160a01b0316611450811515611b9e565b803b15610fb257818091600460405180958193638456cb5960e01b83525af180156114b1576114a1575b7fe7792495f34379948e170e2eaab4c10e47ffdd0999c32d6e9848e863802f188c8180a180f35b6114aa9161195f565b388161147a565b50604051903d90823e3d90fd5b503461018d578060031936011261018d5760ce546040516001600160a01b039091168152602090f35b503461018d57604036600319011261018d5760043567ffffffffffffffff81116106a8576115199036906004016119d8565b9060243567ffffffffffffffff81116106a85761153a9036906004016119d8565b9161155060018060a01b0360c954163314611af2565b611558611c96565b80519267ffffffffffffffff84116118575761157560cc54611925565b601f81116117ec575b50602093601f811160011461177d5783948192939491611772575b508160011b916000199060031b1c19161760cc555b805167ffffffffffffffff811161175e576115ca60cd54611925565b601f81116116f3575b506020601f821160011461165c5761163d92827f54dddae9d1794a76ed9a0d813b38cd24dd636b9435046a24cfa0c81ed2cd53b5959361164b938891611651575b508160011b916000199060031b1c19161760cd555b604051938493604085526040850190611997565b908382036020850152611997565b0390a180f35b905082015138611614565b60cd8552600080516020611e9583398151915290601f198316865b8181106116db57508361164b9361163d96937f54dddae9d1794a76ed9a0d813b38cd24dd636b9435046a24cfa0c81ed2cd53b59896600194106116c2575b5050811b0160cd55611629565b84015160001960f88460031b161c1916905538806116b5565b91926020600181928689015181550194019201611677565b60cd8552601f820160051c600080516020611e95833981519152019060208310611748575b601f0160051c600080516020611e9583398151915201905b81811061173d57506115d3565b858155600101611730565b600080516020611e958339815191529150611718565b634e487b7160e01b84526041600452602484fd5b905083015138611599565b60cc8452601f19811694600080516020611eb583398151915290855b8781106117d4575082600194959697106117bb575b5050811b0160cc556115ae565b85015160001960f88460031b161c1916905538806117ae565b90916020600181928589015181550193019101611799565b60cc8452601f850160051c600080516020611eb5833981519152019060208610611841575b601f0160051c600080516020611eb583398151915201905b818110611836575061157e565b848155600101611829565b600080516020611eb58339815191529150611811565b634e487b7160e01b83526041600452602483fd5b503461018d578060031936011261018d57604051908060cc549061188e82611925565b8085529160018116908115610eaa57506001146118b557610e5b84610e478186038261195f565b60cc8152600080516020611eb5833981519152939250905b8082106118e657509091508101602001610e4782610e37565b9192600181602092548385880101520191019092916118cd565b503461018d578060031936011261018d57602061191b611a6d565b6040519015158152f35b90600182811c92168015611955575b602083101461193f57565b634e487b7160e01b600052602260045260246000fd5b91607f1691611934565b90601f8019910116810190811067ffffffffffffffff82111761198157604052565b634e487b7160e01b600052604160045260246000fd5b919082519283825260005b8481106119c3575050826000602080949584010152601f8019910116010190565b806020809284010151828286010152016119a2565b81601f82011215611a2f5780359067ffffffffffffffff82116119815760405192611a0d601f8401601f19166020018561195f565b82845260208383010111611a2f57816000926020809301838601378301015290565b600080fd5b600435906001600160a01b0382168203611a2f57565b602435906001600160a01b0382168203611a2f57565b51908115158203611a2f57565b60cf546001600160a01b03168015611aec57602060049160405192838092635c975abb60e01b82525afa908115611ae057600091611aa9575090565b90506020813d602011611ad8575b81611ac46020938361195f565b81010312611a2f57611ad590611a60565b90565b3d9150611ab7565b6040513d6000823e3d90fd5b50600090565b15611af957565b60405162461bcd60e51b815260206004820152601860248201527f42617369635661756c743a206f6e6c79206d616e6167657200000000000000006044820152606490fd5b15611b4557565b60405162461bcd60e51b815260206004820152602b60248201527f496e697469616c697a61626c653a20636f6e7472616374206973206e6f74206960448201526a6e697469616c697a696e6760a81b6064820152608490fd5b15611ba557565b60405162461bcd60e51b815260206004820152601960248201527f42617369635661756c743a20746f6b656e206e6f7420736574000000000000006044820152606490fd5b15611bf157565b60405162461bcd60e51b815260206004820152601b60248201527f42617369635661756c743a206e6f742077686974656c697374656400000000006044820152606490fd5b15611c3d57565b60405162461bcd60e51b815260206004820152601860248201527f42617369635661756c743a206f6e6c792066756e64696e6700000000000000006044820152606490fd5b51906001600160a01b0382168203611a2f57565b60ff60975416611ca257565b60405162461bcd60e51b815260206004820152601060248201526f14185d5cd8589b194e881c185d5cd95960821b6044820152606490fd5b6033546001600160a01b03163303611cee57565b606460405162461bcd60e51b815260206004820152602060248201527f4f776e61626c653a2063616c6c6572206973206e6f7420746865206f776e65726044820152fd5b603380546001600160a01b039283166001600160a01b0319821681179092559091167f8be0079c531659141344cd1fd0a4f28419497f9722a3daafe3b4186f6b6457e0600080a3565b6001600160a01b03168015611e25578060005260ca60205260ff60406000205416611de0578060005260ca6020526040600020600160ff198254161790557f4790a4adb426ca2345bb5108f6e454eae852a7bf687544cd66a7270dff3a41d6600080a2565b60405162461bcd60e51b815260206004820152601f60248201527f42617369635661756c743a20616c72656164792077686974656c6973746564006044820152606490fd5b60405162461bcd60e51b815260206004820152601b60248201527f42617369635661756c743a20696e76616c6964206164647265737300000000006044820152606490fd5b8051821015611e7e5760209160051b010190565b634e487b7160e01b600052603260045260246000fdfe83978b4c69c48dd978ab43fe30f077615294f938fb7f936d9eb340e51ea7db2e47197230e1e4b29fc0bd84d7d78966c0925452aff72a2a121538b102457e9ebea2646970667358221220afcb9b2e0b6c8ffe93f923c665bdf5010f3d2e2ffd7f895d5315d6f1065d19b664736f6c634300081a0033a2646970667358221220c158eddb99ab88b3c0c64f7de1d35cfc219dbb84b83d074c14b7a291a6fc94aa64736f6c634300081a0033",
  "devdoc": {
    "kind": "dev",
    "methods": {},
    "version": 1
  },
  "userdoc": {
    "kind": "user",
    "methods": {},
    "version": 1
  },
  "storageLayout": {
    "storage": [],
    "types": null
  }
}