{
  "address": "0xB7f8BC63BbcaD18155201308C8f3540b07f84F5e",
  "abi": [
    {
      "inputs": [],
      "stateMutability": "nonpayable",
      "type": "constructor"
    },
    {
      "anonymous": false,
      "inputs": [
        {
          "indexed": true,
          "internalType": "address",
          "name": "previousOwner",
          "type": "address"
        },
        {
          "indexed": true,
          "internalType": "address",
          "name": "newOwner",
          "type": "address"
        }
      ],
      "name": "OwnershipTransferred",
      "type": "event"
    },
    {
      "anonymous": false,
      "inputs": [],
      "name": "TokenPaused",
      "type": "event"
    },
    {
      "anonymous": false,
      "inputs": [],
      "name": "TokenUnpaused",
      "type": "event"
    },
    {
      "anonymous": false,
      "inputs": [
        {
          "indexed": false,
          "internalType": "bytes",
          "name": "dataHash",
          "type": "bytes"
        },
        {
          "indexed": false,
          "internalType": "bytes",
          "name": "signature",
          "type": "bytes"
        }
      ],
      "name": "VerifyDataUpdated",
      "type": "event"
    },
    {
      "anonymous": false,
      "inputs": [
        {
          "indexed": true,
          "internalType": "address",
          "name": "addr",
          "type": "address"
        }
      ],
      "name": "WhitelistAdded",
      "type": "event"
    },
    {
      "anonymous": false,
      "inputs": [
        {
          "indexed": true,
          "internalType": "address",
          "name": "addr",
          "type": "address"
        }
      ],
      "name": "WhitelistRemoved",
      "type": "event"
    },
    {
      "anonymous": false,
      "inputs": [
        {
          "indexed": false,
          "internalType": "bool",
          "name": "enabled",
          "type": "bool"
        }
      ],
      "name": "WhitelistStatusChanged",
      "type": "event"
    },
    {
      "inputs": [],
      "name": "accumulatedYield",
      "outputs": [
        {
          "internalType": "address",
          "name": "",
          "type": "address"
        }
      ],
      "stateMutability": "view",
      "type": "function"
    },
    {
      "inputs": [
        {
          "internalType": "address",
          "name": "_addr",
          "type": "address"
        }
      ],
      "name": "addToWhitelist",
      "outputs": [],
      "stateMutability": "nonpayable",
      "type": "function"
    },
    {
      "inputs": [
        {
          "internalType": "address",
          "name": "from",
          "type": "address"
        },
        {
          "internalType": "uint256",
          "name": "amount",
          "type": "uint256"
        }
      ],
      "name": "burnToken",
      "outputs": [],
      "stateMutability": "nonpayable",
      "type": "function"
    },
    {
      "inputs": [
        {
          "internalType": "address",
          "name": "_vaultToken",
          "type": "address"
        },
        {
          "internalType": "address",
          "name": "_funding",
          "type": "address"
        },
        {
          "internalType": "address",
          "name": "_yield",
          "type": "address"
        }
      ],
      "name": "configureModules",
      "outputs": [],
      "stateMutability": "nonpayable",
      "type": "function"
    },
    {
      "inputs": [],
      "name": "dataHash",
      "outputs": [
        {
          "internalType": "bytes",
          "name": "",
          "type": "bytes"
        }
      ],
      "stateMutability": "view",
      "type": "function"
    },
    {
      "inputs": [],
      "name": "disableWhitelist",
      "outputs": [],
      "stateMutability": "nonpayable",
      "type": "function"
    },
    {
      "inputs": [],
      "name": "enableWhitelist",
      "outputs": [],
      "stateMutability": "nonpayable",
      "type": "function"
    },
    {
      "inputs": [],
      "name": "funding",
      "outputs": [
        {
          "internalType": "address",
          "name": "",
          "type": "address"
        }
      ],
      "stateMutability": "view",
      "type": "function"
    },
    {
      "inputs": [],
      "name": "getDividendModule",
      "outputs": [
        {
          "internalType": "address",
          "name": "",
          "type": "address"
        }
      ],
      "stateMutability": "view",
      "type": "function"
    },
    {
      "inputs": [],
      "name": "getFundingModule",
      "outputs": [
        {
          "internalType": "address",
          "name": "",
          "type": "address"
        }
      ],
      "stateMutability": "view",
      "type": "function"
    },
    {
      "inputs": [
        {
          "internalType": "bytes",
          "name": "_initData",
          "type": "bytes"
        }
      ],
      "name": "initiate",
      "outputs": [],
      "stateMutability": "nonpayable",
      "type": "function"
    },
    {
      "inputs": [],
      "name": "isFundingSuccessful",
      "outputs": [
        {
          "internalType": "bool",
          "name": "",
          "type": "bool"
        }
      ],
      "stateMutability": "view",
      "type": "function"
    },
    {
      "inputs": [],
      "name": "isInitialized",
      "outputs": [
        {
          "internalType": "bool",
          "name": "",
          "type": "bool"
        }
      ],
      "stateMutability": "view",
      "type": "function"
    },
    {
      "inputs": [],
      "name": "isTokenPaused",
      "outputs": [
        {
          "internalType": "bool",
          "name": "",
          "type": "bool"
        }
      ],
      "stateMutability": "view",
      "type": "function"
    },
    {
      "inputs": [],
      "name": "isWhiteList",
      "outputs": [
        {
          "internalType": "bool",
          "name": "",
          "type": "bool"
        }
      ],
      "stateMutability": "view",
      "type": "function"
    },
    {
      "inputs": [
        {
          "internalType": "address",
          "name": "",
          "type": "address"
        }
      ],
      "name": "isWhitelisted",
      "outputs": [
        {
          "internalType": "bool",
          "name": "",
          "type": "bool"
        }
      ],
      "stateMutability": "view",
      "type": "function"
    },
    {
      "inputs": [],
      "name": "manager",
      "outputs": [
        {
          "internalType": "address",
          "name": "",
          "type": "address"
        }
      ],
      "stateMutability": "view",
      "type": "function"
    },
    {
      "inputs": [
        {
          "internalType": "address",
          "name": "to",
          "type": "address"
        },
        {
          "internalType": "uint256",
          "name": "amount",
          "type": "uint256"
        }
      ],
      "name": "mintToken",
      "outputs": [],
      "stateMutability": "nonpayable",
      "type": "function"
    },
    {
      "inputs": [
        {
          "internalType": "address",
          "name": "from",
          "type": "address"
        },
        {
          "internalType": "address",
          "name": "to",
          "type": "address"
        },
        {
          "internalType": "uint256",
          "name": "amount",
          "type": "uint256"
        }
      ],
      "name": "onTokenTransfer",
      "outputs": [],
      "stateMutability": "nonpayable",
      "type": "function"
    },
    {
      "inputs": [],
      "name": "owner",
      "outputs": [
        {
          "internalType": "address",
          "name": "",
          "type": "address"
        }
      ],
      "stateMutability": "view",
      "type": "function"
    },
    {
      "inputs": [],
      "name": "pauseToken",
      "outputs": [],
      "stateMutability": "nonpayable",
      "type": "function"
    },
    {
      "inputs": [
        {
          "internalType": "address",
          "name": "_addr",
          "type": "address"
        }
      ],
      "name": "removeFromWhitelist",
      "outputs": [],
      "stateMutability": "nonpayable",
      "type": "function"
    },
    {
      "inputs": [],
      "name": "renounceOwnership",
      "outputs": [],
      "stateMutability": "nonpayable",
      "type": "function"
    },
    {
      "inputs": [
        {
          "internalType": "address",
          "name": "_dividendModule",
          "type": "address"
        }
      ],
      "name": "setDividendModule",
      "outputs": [],
      "stateMutability": "nonpayable",
      "type": "function"
    },
    {
      "inputs": [
        {
          "internalType": "address",
          "name": "_funding",
          "type": "address"
        }
      ],
      "name": "setFundingModule",
      "outputs": [],
      "stateMutability": "nonpayable",
      "type": "function"
    },
    {
      "inputs": [
        {
          "internalType": "address",
          "name": "_vaultToken",
          "type": "address"
        }
      ],
      "name": "setVaultToken",
      "outputs": [],
      "stateMutability": "nonpayable",
      "type": "function"
    },
    {
      "inputs": [],
      "name": "signature",
      "outputs": [
        {
          "internalType": "bytes",
          "name": "",
          "type": "bytes"
        }
      ],
      "stateMutability": "view",
      "type": "function"
    },
    {
      "inputs": [
        {
          "internalType": "address",
          "name": "newOwner",
          "type": "address"
        }
      ],
      "name": "transferOwnership",
      "outputs": [],
      "stateMutability": "nonpayable",
      "type": "function"
    },
    {
      "inputs": [],
      "name": "unpauseToken",
      "outputs": [],
      "stateMutability": "nonpayable",
      "type": "function"
    },
    {
      "inputs": [
        {
          "internalType": "bytes",
          "name": "hash",
          "type": "bytes"
        },
        {
          "internalType": "bytes",
          "name": "_signature",
          "type": "bytes"
        }
      ],
      "name": "updateVerifyData",
      "outputs": [],
      "stateMutability": "nonpayable",
      "type": "function"
    },
    {
      "inputs": [],
      "name": "validator",
      "outputs": [
        {
          "internalType": "address",
          "name": "",
          "type": "address"
        }
      ],
      "stateMutability": "view",
      "type": "function"
    },
    {
      "inputs": [],
      "name": "vaultToken",
      "outputs": [
        {
          "internalType": "address",
          "name": "",
          "type": "address"
        }
      ],
      "stateMutability": "view",
      "type": "function"
    },
    {
      "inputs": [],
      "name": "verify",
      "outputs": [
        {
          "internalType": "bool",
          "name": "",
          "type": "bool"
        }
      ],
      "stateMutability": "pure",
      "type": "function"
    },
    {
      "inputs": [],
      "name": "whitelistEnabled",
      "outputs": [
        {
          "internalType": "bool",
          "name": "",
          "type": "bool"
        }
      ],
      "stateMutability": "view",
      "type": "function"
    }
  ],
  "transactionHash": "0x9c8b156b3e79da5e7792269d361f0279042a583f4a5dbac951cb691fe2ae6dd3",
  "args": [],
  "numDeployments": 1,
  "solcInputHash": "f1be8cbce48837c78e5cc7d0ac6d83ae",
  "bytecode": "0x60808060405234605e5760008054336001600160a01b0319821681178355916001600160a01b03909116907f8be0079c531659141344cd1fd0a4f28419497f9722a3daafe3b4186f6b6457e09080a360018055611d8c90816100648239f35b600080fdfe6080604052600436101561001257600080fd5b6000803560e01c80631790da961461151a5780631b3012a3146114855780631edf47da146110f857806328441ca8146110d35780632c349627146110155780632f17b18214610d4a57806331b1125f14610fb1578063348519fe14610f765780633841ce5814610f4d578063392e53cd14610f275780633a5381b514610efe5780633af32abf14610ebf578063481c6a7514610e9657806350669a0314610d7057806351fb012d14610d4a57806351ff484714610c75578063677ba3d314610a90578063703bafd514610a67578063715018a614610a0d57806379c650681461094c5780638ab1d681146108af5780638da5cb5b14610888578063942e55d81461084d578063cb4c86b714610642578063cdfb2b4e146107d4578063d1df306c146106dd578063d6b0f4841461066b578063dd53bd2b14610642578063e43252d7146105fa578063f2fde38b1461056c578063f64e881414610300578063f8a3c8f2146101da578063fc735e99146101be5763fcdfd5c51461019357600080fd5b346101bb57806003193601126101bb576007546040516001600160a01b039091168152602090f35b80fd5b50346101bb57806003193601126101bb57602060405160018152f35b50346101bb57806003193601126101bb576009546001600160a01b031680156102b0578180916040516020810190637c51e47960e11b82526004815261022160248261156f565b51915afa9061022e61183e565b9115610258576020828051810103126101bb57602061024e81840161167c565b6040519015158152f35b60405162461bcd60e51b815260206004820152602a60248201527f42617369635661756c743a206661696c656420746f2071756572792066756e64604482015269696e672073746174757360b01b6064820152608490fd5b60405162461bcd60e51b815260206004820152602260248201527f42617369635661756c743a2066756e64696e67206d6f64756c65206e6f742073604482015261195d60f21b6064820152608490fd5b50346101bb5760203660031901126101bb5760043567ffffffffffffffff811161056857610332903690600401611604565b60095460ff8160a01c161590610347826118ba565b8251830191608084602085019403126105645761036660208501611906565b9361037360408201611906565b946103806060830161167c565b9160808101519067ffffffffffffffff8211610560570185603f8201121561055c5760208101519567ffffffffffffffff8711610548578660051b91604051976103cd602085018a61156f565b88526020880192810160400191821161054457604001915b818310610520575050506001600160a01b03908116951691610406906118ba565b84156104db5781156104965760028054600480546001600160a01b0319169094179093556001600160a81b0319909216851790151560a01b60ff60a01b1617905560ff60a01b1916600160a01b17600955825b815181101561048957600581901b82016020015160019190610483906001600160a01b0316611c27565b01610459565b8361049384611be0565b80f35b60405162461bcd60e51b815260206004820152601d60248201527f42617369635661756c743a20696e76616c69642076616c696461746f720000006044820152606490fd5b60405162461bcd60e51b815260206004820152601b60248201527f42617369635661756c743a20696e76616c6964206d616e6167657200000000006044820152606490fd5b82516001600160a01b0381168103610540578152602092830192016103e5565b8a80fd5b8980fd5b634e487b7160e01b89526041600452602489fd5b8780fd5b8880fd5b8480fd5b5080fd5b50346101bb5760203660031901126101bb57610586611650565b61058e61191a565b6001600160a01b038116156105a65761049390611be0565b60405162461bcd60e51b815260206004820152602660248201527f4f776e61626c653a206e6577206f776e657220697320746865207a65726f206160448201526564647265737360d01b6064820152608490fd5b50346101bb5760203660031901126101bb57610493610617611650565b61062c60018060a01b0360025416331461170e565b61063d60ff60095460a01c1661175a565b611c27565b50346101bb57806003193601126101bb576009546040516001600160a01b039091168152602090f35b50346101bb57806003193601126101bb57600254610693336001600160a01b0383161461170e565b6106a460ff60095460a01c1661175a565b60ff60a01b19166002556040518181527f1cf28b997975c7be355bcef74f2f5019aa48253bc1e54b3c8b002471865fdba890602090a180f35b50346101bb5760403660031901126101bb57806106f8611650565b60095461071f9060ff90610716336001600160a01b0383161461186e565b60a01c1661175a565b60ff60025460a01c166107ad575b6008546001600160a01b03166107448115156117a6565b803b156107a95760405163079cc67960e41b81526001600160a01b039092166004830152602480359083015282908290818381604481015b03925af1801561079e5761078d5750f35b816107979161156f565b6101bb5780f35b6040513d84823e3d90fd5b5050fd5b6001600160a01b0381168252600360205260408220546107cf9060ff166117f2565b61072d565b50346101bb57806003193601126101bb576002546107fc336001600160a01b0383161461170e565b61080d60ff60095460a01c1661175a565b60ff60a01b1916600160a01b17600255604051600181527f1cf28b997975c7be355bcef74f2f5019aa48253bc1e54b3c8b002471865fdba890602090a180f35b50346101bb5760203660031901126101bb5761049361086a611650565b61087261191a565b61088360ff60095460a01c1661175a565b611b00565b50346101bb57806003193601126101bb57546040516001600160a01b039091168152602090f35b50346101bb5760203660031901126101bb576108c9611650565b6108de60018060a01b0360025416331461170e565b6108ef60ff60095460a01c1661175a565b6001600160a01b0316808252600360205260408220546109119060ff166117f2565b808252600360205260408220805460ff191690557fde8cf212af7ce38b2840785a2768d97ff2dbf3c21b516961cec0061e134c2a1e8280a280f35b50346101bb5760403660031901126101bb5780610967611650565b6009546109859060ff90610716336001600160a01b0383161461186e565b60ff60025460a01c166109e6575b6008546001600160a01b03166109aa8115156117a6565b803b156107a9576040516340c10f1960e01b81526001600160a01b0390921660048301526024803590830152829082908183816044810161077c565b6001600160a01b038116825260036020526040822054610a089060ff166117f2565b610993565b50346101bb57806003193601126101bb57610a2661191a565b80546001600160a01b03198116825581906001600160a01b03167f8be0079c531659141344cd1fd0a4f28419497f9722a3daafe3b4186f6b6457e08280a380f35b50346101bb57806003193601126101bb576008546040516001600160a01b039091168152602090f35b50346101bb5760603660031901126101bb57610aaa611650565b610ab2611666565b610ac360ff60095460a01c1661175a565b60ff60025460a01c1680610c4e575b610c27575b6008546001600160a01b03163303610be25760075483926001600160a01b039091169081151580610bd0575b80610bbe575b610b1257505050f35b838093604051906020820193635329441f60e11b855260018060a01b0316602483015260018060a01b03166044820152604435606482015260648152610b5960848261156f565b51925af1610b6561183e565b5015610b6e5780f35b60405162461bcd60e51b815260206004820152602260248201527f42617369635661756c743a206f6e546f6b656e5472616e73666572206661696c604482015261195960f21b6064820152608490fd5b506001600160a01b0383161515610b09565b506001600160a01b0381161515610b03565b60405162461bcd60e51b815260206004820152601f60248201527f42617369635661756c743a206f6e6c7920746f6b656e2063616e2063616c6c006044820152606490fd5b6001600160a01b038116835260036020526040832054610c499060ff166117f2565b610ad7565b6001600160a01b038316845260036020526040842054610c709060ff166117f2565b610ad2565b50346101bb57806003193601126101bb57604051908060065490610c9882611535565b8085529160018116908115610d235750600114610cd8575b610cd484610cc08186038261156f565b6040519182916020835260208301906115a7565b0390f35b60068152600080516020611d37833981519152939250905b808210610d0957509091508101602001610cc082610cb0565b919260018160209254838588010152019101909291610cf0565b60ff191660208087019190915292151560051b85019092019250610cc09150839050610cb0565b50346101bb57806003193601126101bb57602060ff60025460a01c166040519015158152f35b50346101bb57806003193601126101bb57600954610d9360ff8260a01c1661175a565b6002546001600160a01b03163314908115610e83575b5015610e325760085481906001600160a01b0316610dc88115156117a6565b803b15610e2f57818091600460405180948193631fa5d41d60e11b83525af1801561079e57610e1a575b50807f034f571e8421592eac76524eb9ce5c1ec88251bd2ea778a88cf713dbd15cfc3391a180f35b81610e249161156f565b6101bb578038610df2565b50fd5b60405162461bcd60e51b815260206004820152602360248201527f42617369635661756c743a206f6e6c79206d616e61676572206f722066756e64604482015262696e6760e81b6064820152608490fd5b6001600160a01b03163314905038610da9565b50346101bb57806003193601126101bb576002546040516001600160a01b039091168152602090f35b50346101bb5760203660031901126101bb5760209060ff906040906001600160a01b03610eea611650565b168152600384522054166040519015158152f35b50346101bb57806003193601126101bb576004546040516001600160a01b039091168152602090f35b50346101bb57806003193601126101bb57602060ff60095460a01c166040519015158152f35b50346101bb57806003193601126101bb576007546040516001600160a01b039091168152602090f35b50346101bb5760203660031901126101bb57610493610f93611650565b610f9b61191a565b610fac60ff60095460a01c1661175a565b611a38565b50346101bb5760603660031901126101bb57610fcb611650565b610fd3611666565b90604435906001600160a01b03821682036110115761049392610fac61088392610ffb61191a565b61100c60ff60095460a01c1661175a565b611972565b8380fd5b50346101bb57806003193601126101bb5761103b60018060a01b0360025416331461170e565b61104c60ff60095460a01c1661175a565b60085481906001600160a01b03166110658115156117a6565b803b15610e2f57818091600460405180958193638456cb5960e01b83525af180156110c6576110b6575b7fe7792495f34379948e170e2eaab4c10e47ffdd0999c32d6e9848e863802f188c8180a180f35b6110bf9161156f565b388161108f565b50604051903d90823e3d90fd5b50346101bb5760203660031901126101bb576104936110f0611650565b610ffb61191a565b50346101bb5760403660031901126101bb5760043567ffffffffffffffff81116105685761112a903690600401611604565b9060243567ffffffffffffffff81116105685761114b903690600401611604565b9161116160018060a01b0360025416331461170e565b61117260ff60095460a01c1661175a565b80519267ffffffffffffffff84116114715761118f600554611535565b601f8111611406575b50602093601f8111600114611397578394819293949161138c575b508160011b916000199060031b1c1916176005555b805167ffffffffffffffff8111611378576111e4600654611535565b601f811161130d575b506020601f82116001146112765761125792827f54dddae9d1794a76ed9a0d813b38cd24dd636b9435046a24cfa0c81ed2cd53b5959361126593889161126b575b508160011b916000199060031b1c1916176006555b6040519384936040855260408501906115a7565b9083820360208501526115a7565b0390a180f35b90508201513861122e565b60068552600080516020611d3783398151915290601f198316865b8181106112f55750836112659361125796937f54dddae9d1794a76ed9a0d813b38cd24dd636b9435046a24cfa0c81ed2cd53b59896600194106112dc575b5050811b01600655611243565b84015160001960f88460031b161c1916905538806112cf565b91926020600181928689015181550194019201611291565b60068552601f820160051c600080516020611d37833981519152019060208310611362575b601f0160051c600080516020611d3783398151915201905b81811061135757506111ed565b85815560010161134a565b600080516020611d378339815191529150611332565b634e487b7160e01b84526041600452602484fd5b9050830151386111b3565b60058452601f19811694600080516020611d1783398151915290855b8781106113ee575082600194959697106113d5575b5050811b016005556111c8565b85015160001960f88460031b161c1916905538806113c8565b909160206001819285890151815501930191016113b3565b60058452601f850160051c600080516020611d1783398151915201906020861061145b575b601f0160051c600080516020611d1783398151915201905b8181106114505750611198565b848155600101611443565b600080516020611d17833981519152915061142b565b634e487b7160e01b83526041600452602483fd5b50346101bb57806003193601126101bb576040519080600554906114a882611535565b8085529160018116908115610d2357506001146114cf57610cd484610cc08186038261156f565b60058152600080516020611d17833981519152939250905b80821061150057509091508101602001610cc082610cb0565b9192600181602092548385880101520191019092916114e7565b50346101bb57806003193601126101bb57602061024e611689565b90600182811c92168015611565575b602083101461154f57565b634e487b7160e01b600052602260045260246000fd5b91607f1691611544565b90601f8019910116810190811067ffffffffffffffff82111761159157604052565b634e487b7160e01b600052604160045260246000fd5b919082519283825260005b8481106115d3575050826000602080949584010152601f8019910116010190565b806020809284010151828286010152016115b2565b67ffffffffffffffff811161159157601f01601f191660200190565b81601f8201121561164b5780359061161b826115e8565b92611629604051948561156f565b8284526020838301011161164b57816000926020809301838601378301015290565b600080fd5b600435906001600160a01b038216820361164b57565b602435906001600160a01b038216820361164b57565b5190811515820361164b57565b6008546001600160a01b0316801561170857602060049160405192838092635c975abb60e01b82525afa9081156116fc576000916116c5575090565b90506020813d6020116116f4575b816116e06020938361156f565b8101031261164b576116f19061167c565b90565b3d91506116d3565b6040513d6000823e3d90fd5b50600090565b1561171557565b60405162461bcd60e51b815260206004820152601860248201527f42617369635661756c743a206f6e6c79206d616e6167657200000000000000006044820152606490fd5b1561176157565b60405162461bcd60e51b815260206004820152601b60248201527f42617369635661756c743a206e6f7420696e697469616c697a656400000000006044820152606490fd5b156117ad57565b60405162461bcd60e51b815260206004820152601960248201527f42617369635661756c743a20746f6b656e206e6f7420736574000000000000006044820152606490fd5b156117f957565b60405162461bcd60e51b815260206004820152601b60248201527f42617369635661756c743a206e6f742077686974656c697374656400000000006044820152606490fd5b3d15611869573d9061184f826115e8565b9161185d604051938461156f565b82523d6000602084013e565b606090565b1561187557565b60405162461bcd60e51b815260206004820152601860248201527f42617369635661756c743a206f6e6c792066756e64696e6700000000000000006044820152606490fd5b156118c157565b60405162461bcd60e51b815260206004820152601f60248201527f42617369635661756c743a20616c726561647920696e697469616c697a6564006044820152606490fd5b51906001600160a01b038216820361164b57565b6000546001600160a01b0316330361192e57565b606460405162461bcd60e51b815260206004820152602060248201527f4f776e61626c653a2063616c6c6572206973206e6f7420746865206f776e65726044820152fd5b600854906001600160a01b0382166119f3576001600160a01b03169081156119a4576001600160a01b03191617600855565b60405162461bcd60e51b815260206004820152602160248201527f42617369635661756c743a20696e76616c696420746f6b656e206164647265736044820152607360f81b6064820152608490fd5b60405162461bcd60e51b815260206004820152601d60248201527f42617369635661756c743a20746f6b656e20616c7265616479207365740000006044820152606490fd5b600954906001600160a01b038216611abb576001600160a01b0316908115611a6a576001600160a01b03191617600955565b60405162461bcd60e51b815260206004820152602360248201527f42617369635661756c743a20696e76616c69642066756e64696e67206164647260448201526265737360e81b6064820152608490fd5b60405162461bcd60e51b815260206004820152601f60248201527f42617369635661756c743a2066756e64696e6720616c726561647920736574006044820152606490fd5b600754906001600160a01b038216611b8b576001600160a01b0316908115611b32576001600160a01b03191617600755565b60405162461bcd60e51b815260206004820152602b60248201527f42617369635661756c743a20696e76616c6964206469766964656e64206d6f6460448201526a756c65206164647265737360a81b6064820152608490fd5b60405162461bcd60e51b815260206004820152602760248201527f42617369635661756c743a206469766964656e64206d6f64756c6520616c726560448201526618591e481cd95d60ca1b6064820152608490fd5b600080546001600160a01b039283166001600160a01b03198216811783559216907f8be0079c531659141344cd1fd0a4f28419497f9722a3daafe3b4186f6b6457e09080a3565b6001600160a01b03168015611cd15780600052600360205260ff60406000205416611c8c578060005260036020526040600020600160ff198254161790557f4790a4adb426ca2345bb5108f6e454eae852a7bf687544cd66a7270dff3a41d6600080a2565b60405162461bcd60e51b815260206004820152601f60248201527f42617369635661756c743a20616c72656164792077686974656c6973746564006044820152606490fd5b60405162461bcd60e51b815260206004820152601b60248201527f42617369635661756c743a20696e76616c6964206164647265737300000000006044820152606490fdfe036b6384b5eca791c62761152d0c79bb0604c104a5fb6f4eb0703f3154bb3db0f652222313e28459528d920b65115c16c04f3efc82aaedc97be59f3f377c0d3fa26469706673582212207b91a73799247e809e14b2d33d073158aef58fbadc6ac39c4d2fce7f79991d9864736f6c634300081a0033",
  "devdoc": {
    "details": "Basic vault template implementation, providing fundamental storage and permission management",
    "kind": "dev",
    "methods": {
      "addToWhitelist(address)": {
        "details": "Add address to whitelist",
        "params": {
          "_addr": "Address to add"
        }
      },
      "burnToken(address,uint256)": {
        "details": "Burn tokens through vault",
        "params": {
          "amount": "Amount to burn",
          "from": "Address to burn from"
        }
      },
      "disableWhitelist()": {
        "details": "Disable whitelist"
      },
      "enableWhitelist()": {
        "details": "Enable whitelist"
      },
      "getDividendModule()": {
        "details": "Get dividend module address",
        "returns": {
          "_0": "Dividend module address"
        }
      },
      "getFundingModule()": {
        "details": "Get funding module address",
        "returns": {
          "_0": "Funding module address"
        }
      },
      "initiate(bytes)": {
        "details": "Unified initialization interface",
        "params": {
          "_initData": "Encoded initialization data"
        }
      },
      "isFundingSuccessful()": {
        "details": "Check if funding is successful by querying the funding module",
        "returns": {
          "_0": "Whether funding is successful"
        }
      },
      "isInitialized()": {
        "details": "Query if initialized"
      },
      "isTokenPaused()": {
        "details": "Check if token is paused",
        "returns": {
          "_0": "Whether token is paused"
        }
      },
      "isWhiteList()": {
        "details": "Check if whitelist is enabled",
        "returns": {
          "_0": "Whether whitelist is enabled"
        }
      },
      "mintToken(address,uint256)": {
        "details": "Mint tokens through vault",
        "params": {
          "amount": "Amount to mint",
          "to": "Recipient address"
        }
      },
      "onTokenTransfer(address,address,uint256)": {
        "details": "Hook called on token transfer",
        "params": {
          "amount": "Transfer amount",
          "from": "From address",
          "to": "To address"
        }
      },
      "owner()": {
        "details": "Returns the address of the current owner."
      },
      "pauseToken()": {
        "details": "Pause token"
      },
      "removeFromWhitelist(address)": {
        "details": "Remove address from whitelist",
        "params": {
          "_addr": "Address to remove"
        }
      },
      "renounceOwnership()": {
        "details": "Leaves the contract without owner. It will not be possible to call `onlyOwner` functions. Can only be called by the current owner. NOTE: Renouncing ownership will leave the contract without an owner, thereby disabling any functionality that is only available to the owner."
      },
      "transferOwnership(address)": {
        "details": "Transfers ownership of the contract to a new account (`newOwner`). Can only be called by the current owner."
      },
      "unpauseToken()": {
        "details": "Unpause token"
      },
      "updateVerifyData(bytes,bytes)": {
        "details": "Update verification data",
        "params": {
          "_signature": "Signature data",
          "hash": "Data hash"
        }
      },
      "verify()": {
        "details": "Verify data (simple implementation, actual applications need more complex verification logic)",
        "returns": {
          "_0": "Verification result"
        }
      }
    },
    "title": "BasicVault",
    "version": 1
  },
  "userdoc": {
    "kind": "user",
    "methods": {},
    "notice": "This contract does not contain specific business logic, business functions are implemented by other modules",
    "version": 1
  },
  "storageLayout": {
    "storage": [
      {
        "astId": 7,
        "contract": "contracts/v2/templates/vault/BasicVault.sol:BasicVault",
        "label": "_owner",
        "offset": 0,
        "slot": "0",
        "type": "t_address"
      },
      {
        "astId": 311,
        "contract": "contracts/v2/templates/vault/BasicVault.sol:BasicVault",
        "label": "_status",
        "offset": 0,
        "slot": "1",
        "type": "t_uint256"
      },
      {
        "astId": 8262,
        "contract": "contracts/v2/templates/vault/BasicVault.sol:BasicVault",
        "label": "manager",
        "offset": 0,
        "slot": "2",
        "type": "t_address"
      },
      {
        "astId": 8265,
        "contract": "contracts/v2/templates/vault/BasicVault.sol:BasicVault",
        "label": "whitelistEnabled",
        "offset": 20,
        "slot": "2",
        "type": "t_bool"
      },
      {
        "astId": 8270,
        "contract": "contracts/v2/templates/vault/BasicVault.sol:BasicVault",
        "label": "isWhitelisted",
        "offset": 0,
        "slot": "3",
        "type": "t_mapping(t_address,t_bool)"
      },
      {
        "astId": 8273,
        "contract": "contracts/v2/templates/vault/BasicVault.sol:BasicVault",
        "label": "validator",
        "offset": 0,
        "slot": "4",
        "type": "t_address"
      },
      {
        "astId": 8276,
        "contract": "contracts/v2/templates/vault/BasicVault.sol:BasicVault",
        "label": "dataHash",
        "offset": 0,
        "slot": "5",
        "type": "t_bytes_storage"
      },
      {
        "astId": 8279,
        "contract": "contracts/v2/templates/vault/BasicVault.sol:BasicVault",
        "label": "signature",
        "offset": 0,
        "slot": "6",
        "type": "t_bytes_storage"
      },
      {
        "astId": 8281,
        "contract": "contracts/v2/templates/vault/BasicVault.sol:BasicVault",
        "label": "accumulatedYield",
        "offset": 0,
        "slot": "7",
        "type": "t_address"
      },
      {
        "astId": 8284,
        "contract": "contracts/v2/templates/vault/BasicVault.sol:BasicVault",
        "label": "vaultToken",
        "offset": 0,
        "slot": "8",
        "type": "t_address"
      },
      {
        "astId": 8286,
        "contract": "contracts/v2/templates/vault/BasicVault.sol:BasicVault",
        "label": "funding",
        "offset": 0,
        "slot": "9",
        "type": "t_address"
      },
      {
        "astId": 8288,
        "contract": "contracts/v2/templates/vault/BasicVault.sol:BasicVault",
        "label": "_initialized",
        "offset": 20,
        "slot": "9",
        "type": "t_bool"
      }
    ],
    "types": {
      "t_address": {
        "encoding": "inplace",
        "label": "address",
        "numberOfBytes": "20"
      },
      "t_bool": {
        "encoding": "inplace",
        "label": "bool",
        "numberOfBytes": "1"
      },
      "t_bytes_storage": {
        "encoding": "bytes",
        "label": "bytes",
        "numberOfBytes": "32"
      },
      "t_mapping(t_address,t_bool)": {
        "encoding": "mapping",
        "key": "t_address",
        "label": "mapping(address => bool)",
        "numberOfBytes": "32",
        "value": "t_bool"
      },
      "t_uint256": {
        "encoding": "inplace",
        "label": "uint256",
        "numberOfBytes": "32"
      }
    }
  }
}