{
  "address": "0xa85233C63b9Ee964Add6F2cffe00Fd84eb32338f",
  "abi": [
    {
      "inputs": [
        {
          "internalType": "address",
          "name": "_vaultFactory",
          "type": "address"
        },
        {
          "internalType": "address",
          "name": "_tokenFactory",
          "type": "address"
        },
        {
          "internalType": "address",
          "name": "_fundFactory",
          "type": "address"
        },
        {
          "internalType": "address",
          "name": "_YieldFactory",
          "type": "address"
        }
      ],
      "stateMutability": "nonpayable",
      "type": "constructor"
    },
    {
      "anonymous": false,
      "inputs": [
        {
          "indexed": false,
          "internalType": "address",
          "name": "vaultFactory",
          "type": "address"
        },
        {
          "indexed": false,
          "internalType": "address",
          "name": "tokenFactory",
          "type": "address"
        },
        {
          "indexed": false,
          "internalType": "address",
          "name": "fundFactory",
          "type": "address"
        },
        {
          "indexed": false,
          "internalType": "address",
          "name": "dividendFactory",
          "type": "address"
        }
      ],
      "name": "FactoriesUpdated",
      "type": "event"
    },
    {
      "anonymous": false,
      "inputs": [
        {
          "indexed": true,
          "internalType": "address",
          "name": "fund",
          "type": "address"
        }
      ],
      "name": "FundCreated",
      "type": "event"
    },
    {
      "anonymous": false,
      "inputs": [
        {
          "indexed": true,
          "internalType": "address",
          "name": "previousOwner",
          "type": "address"
        },
        {
          "indexed": true,
          "internalType": "address",
          "name": "newOwner",
          "type": "address"
        }
      ],
      "name": "OwnershipTransferred",
      "type": "event"
    },
    {
      "anonymous": false,
      "inputs": [
        {
          "indexed": false,
          "internalType": "string",
          "name": "name",
          "type": "string"
        },
        {
          "indexed": false,
          "internalType": "address",
          "name": "vault",
          "type": "address"
        },
        {
          "indexed": false,
          "internalType": "address",
          "name": "token",
          "type": "address"
        },
        {
          "indexed": false,
          "internalType": "address",
          "name": "fund",
          "type": "address"
        },
        {
          "indexed": false,
          "internalType": "address",
          "name": "yield",
          "type": "address"
        },
        {
          "indexed": false,
          "internalType": "address",
          "name": "deployer",
          "type": "address"
        }
      ],
      "name": "ProjectCreated",
      "type": "event"
    },
    {
      "anonymous": false,
      "inputs": [
        {
          "indexed": true,
          "internalType": "address",
          "name": "token",
          "type": "address"
        }
      ],
      "name": "TokenCreated",
      "type": "event"
    },
    {
      "anonymous": false,
      "inputs": [
        {
          "indexed": true,
          "internalType": "address",
          "name": "vault",
          "type": "address"
        }
      ],
      "name": "VaultCreated",
      "type": "event"
    },
    {
      "anonymous": false,
      "inputs": [
        {
          "indexed": true,
          "internalType": "address",
          "name": "yield",
          "type": "address"
        }
      ],
      "name": "YieldCreated",
      "type": "event"
    },
    {
      "inputs": [
        {
          "internalType": "address",
          "name": "user",
          "type": "address"
        }
      ],
      "name": "addToWhitelist",
      "outputs": [],
      "stateMutability": "nonpayable",
      "type": "function"
    },
    {
      "inputs": [
        {
          "internalType": "string",
          "name": "projectName",
          "type": "string"
        },
        {
          "internalType": "uint256",
          "name": "vaultTemplateId",
          "type": "uint256"
        },
        {
          "internalType": "bytes",
          "name": "vaultInitData",
          "type": "bytes"
        },
        {
          "internalType": "uint256",
          "name": "tokenTemplateId",
          "type": "uint256"
        },
        {
          "internalType": "bytes",
          "name": "tokenInitData",
          "type": "bytes"
        },
        {
          "internalType": "uint256",
          "name": "fundTemplateId",
          "type": "uint256"
        },
        {
          "internalType": "bytes",
          "name": "fundInitData",
          "type": "bytes"
        },
        {
          "internalType": "uint256",
          "name": "dividendTemplateId",
          "type": "uint256"
        },
        {
          "internalType": "bytes",
          "name": "dividendInitData",
          "type": "bytes"
        }
      ],
      "name": "deployAll",
      "outputs": [
        {
          "components": [
            {
              "internalType": "address",
              "name": "vault",
              "type": "address"
            },
            {
              "internalType": "address",
              "name": "token",
              "type": "address"
            },
            {
              "internalType": "address",
              "name": "fund",
              "type": "address"
            },
            {
              "internalType": "address",
              "name": "accumulatedYield",
              "type": "address"
            }
          ],
          "internalType": "struct ICreation.DeploymentResult",
          "name": "result",
          "type": "tuple"
        }
      ],
      "stateMutability": "nonpayable",
      "type": "function"
    },
    {
      "inputs": [
        {
          "internalType": "uint256",
          "name": "templateId",
          "type": "uint256"
        },
        {
          "internalType": "address",
          "name": "vault",
          "type": "address"
        },
        {
          "internalType": "address",
          "name": "vaultToken",
          "type": "address"
        },
        {
          "internalType": "bytes",
          "name": "initData",
          "type": "bytes"
        }
      ],
      "name": "deployDividend",
      "outputs": [
        {
          "internalType": "address",
          "name": "dividend",
          "type": "address"
        }
      ],
      "stateMutability": "nonpayable",
      "type": "function"
    },
    {
      "inputs": [
        {
          "internalType": "uint256",
          "name": "templateId",
          "type": "uint256"
        },
        {
          "internalType": "address",
          "name": "vault",
          "type": "address"
        },
        {
          "internalType": "bytes",
          "name": "initData",
          "type": "bytes"
        }
      ],
      "name": "deployFund",
      "outputs": [
        {
          "internalType": "address",
          "name": "fund",
          "type": "address"
        }
      ],
      "stateMutability": "nonpayable",
      "type": "function"
    },
    {
      "inputs": [
        {
          "internalType": "uint256",
          "name": "templateId",
          "type": "uint256"
        },
        {
          "internalType": "address",
          "name": "vault",
          "type": "address"
        },
        {
          "internalType": "bytes",
          "name": "initData",
          "type": "bytes"
        }
      ],
      "name": "deployToken",
      "outputs": [
        {
          "internalType": "address",
          "name": "token",
          "type": "address"
        }
      ],
      "stateMutability": "nonpayable",
      "type": "function"
    },
    {
      "inputs": [
        {
          "internalType": "uint256",
          "name": "templateId",
          "type": "uint256"
        },
        {
          "internalType": "bytes",
          "name": "initData",
          "type": "bytes"
        }
      ],
      "name": "deployVault",
      "outputs": [
        {
          "internalType": "address",
          "name": "vault",
          "type": "address"
        }
      ],
      "stateMutability": "nonpayable",
      "type": "function"
    },
    {
      "inputs": [],
      "name": "fundFactory",
      "outputs": [
        {
          "internalType": "contract FundFactory",
          "name": "",
          "type": "address"
        }
      ],
      "stateMutability": "view",
      "type": "function"
    },
    {
      "inputs": [],
      "name": "getFactories",
      "outputs": [
        {
          "internalType": "address",
          "name": "",
          "type": "address"
        },
        {
          "internalType": "address",
          "name": "",
          "type": "address"
        },
        {
          "internalType": "address",
          "name": "",
          "type": "address"
        },
        {
          "internalType": "address",
          "name": "",
          "type": "address"
        }
      ],
      "stateMutability": "view",
      "type": "function"
    },
    {
      "inputs": [
        {
          "internalType": "string",
          "name": "projectName",
          "type": "string"
        }
      ],
      "name": "getProjectByName",
      "outputs": [
        {
          "components": [
            {
              "internalType": "string",
              "name": "name",
              "type": "string"
            },
            {
              "internalType": "address",
              "name": "vault",
              "type": "address"
            },
            {
              "internalType": "address",
              "name": "token",
              "type": "address"
            },
            {
              "internalType": "address",
              "name": "fund",
              "type": "address"
            },
            {
              "internalType": "address",
              "name": "accumulatedYield",
              "type": "address"
            },
            {
              "internalType": "uint256",
              "name": "createdAt",
              "type": "uint256"
            },
            {
              "internalType": "address",
              "name": "deployer",
              "type": "address"
            }
          ],
          "internalType": "struct ICreation.Project",
          "name": "",
          "type": "tuple"
        }
      ],
      "stateMutability": "view",
      "type": "function"
    },
    {
      "inputs": [
        {
          "internalType": "address",
          "name": "user",
          "type": "address"
        }
      ],
      "name": "getUserProjectDetails",
      "outputs": [
        {
          "components": [
            {
              "internalType": "string",
              "name": "name",
              "type": "string"
            },
            {
              "internalType": "address",
              "name": "vault",
              "type": "address"
            },
            {
              "internalType": "address",
              "name": "token",
              "type": "address"
            },
            {
              "internalType": "address",
              "name": "fund",
              "type": "address"
            },
            {
              "internalType": "address",
              "name": "accumulatedYield",
              "type": "address"
            },
            {
              "internalType": "uint256",
              "name": "createdAt",
              "type": "uint256"
            },
            {
              "internalType": "address",
              "name": "deployer",
              "type": "address"
            }
          ],
          "internalType": "struct ICreation.Project[]",
          "name": "",
          "type": "tuple[]"
        }
      ],
      "stateMutability": "view",
      "type": "function"
    },
    {
      "inputs": [
        {
          "internalType": "address",
          "name": "user",
          "type": "address"
        }
      ],
      "name": "getUserProjects",
      "outputs": [
        {
          "components": [
            {
              "internalType": "address",
              "name": "vault",
              "type": "address"
            },
            {
              "internalType": "address",
              "name": "token",
              "type": "address"
            },
            {
              "internalType": "address",
              "name": "fund",
              "type": "address"
            },
            {
              "internalType": "address",
              "name": "accumulatedYield",
              "type": "address"
            }
          ],
          "internalType": "struct ICreation.DeploymentResult[]",
          "name": "result",
          "type": "tuple[]"
        }
      ],
      "stateMutability": "view",
      "type": "function"
    },
    {
      "inputs": [],
      "name": "owner",
      "outputs": [
        {
          "internalType": "address",
          "name": "",
          "type": "address"
        }
      ],
      "stateMutability": "view",
      "type": "function"
    },
    {
      "inputs": [
        {
          "internalType": "string",
          "name": "",
          "type": "string"
        }
      ],
      "name": "projects",
      "outputs": [
        {
          "internalType": "string",
          "name": "name",
          "type": "string"
        },
        {
          "internalType": "address",
          "name": "vault",
          "type": "address"
        },
        {
          "internalType": "address",
          "name": "token",
          "type": "address"
        },
        {
          "internalType": "address",
          "name": "fund",
          "type": "address"
        },
        {
          "internalType": "address",
          "name": "accumulatedYield",
          "type": "address"
        },
        {
          "internalType": "uint256",
          "name": "createdAt",
          "type": "uint256"
        },
        {
          "internalType": "address",
          "name": "deployer",
          "type": "address"
        }
      ],
      "stateMutability": "view",
      "type": "function"
    },
    {
      "inputs": [
        {
          "internalType": "address",
          "name": "user",
          "type": "address"
        }
      ],
      "name": "removeFromWhitelist",
      "outputs": [],
      "stateMutability": "nonpayable",
      "type": "function"
    },
    {
      "inputs": [],
      "name": "renounceOwnership",
      "outputs": [],
      "stateMutability": "nonpayable",
      "type": "function"
    },
    {
      "inputs": [
        {
          "internalType": "address",
          "name": "_vaultFactory",
          "type": "address"
        },
        {
          "internalType": "address",
          "name": "_tokenFactory",
          "type": "address"
        },
        {
          "internalType": "address",
          "name": "_fundFactory",
          "type": "address"
        },
        {
          "internalType": "address",
          "name": "_dividendFactory",
          "type": "address"
        }
      ],
      "name": "setFactories",
      "outputs": [],
      "stateMutability": "nonpayable",
      "type": "function"
    },
    {
      "inputs": [],
      "name": "tokenFactory",
      "outputs": [
        {
          "internalType": "contract TokenFactory",
          "name": "",
          "type": "address"
        }
      ],
      "stateMutability": "view",
      "type": "function"
    },
    {
      "inputs": [
        {
          "internalType": "address",
          "name": "newOwner",
          "type": "address"
        }
      ],
      "name": "transferOwnership",
      "outputs": [],
      "stateMutability": "nonpayable",
      "type": "function"
    },
    {
      "inputs": [
        {
          "internalType": "address",
          "name": "",
          "type": "address"
        },
        {
          "internalType": "uint256",
          "name": "",
          "type": "uint256"
        }
      ],
      "name": "userProjects",
      "outputs": [
        {
          "internalType": "string",
          "name": "",
          "type": "string"
        }
      ],
      "stateMutability": "view",
      "type": "function"
    },
    {
      "inputs": [
        {
          "internalType": "bytes",
          "name": "dividendInitData",
          "type": "bytes"
        }
      ],
      "name": "validateDividendInitData",
      "outputs": [],
      "stateMutability": "pure",
      "type": "function"
    },
    {
      "inputs": [
        {
          "internalType": "bytes",
          "name": "fundInitData",
          "type": "bytes"
        }
      ],
      "name": "validateFundInitData",
      "outputs": [],
      "stateMutability": "pure",
      "type": "function"
    },
    {
      "inputs": [
        {
          "internalType": "bytes",
          "name": "tokenInitData",
          "type": "bytes"
        }
      ],
      "name": "validateTokenInitData",
      "outputs": [],
      "stateMutability": "pure",
      "type": "function"
    },
    {
      "inputs": [
        {
          "internalType": "bytes",
          "name": "vaultInitData",
          "type": "bytes"
        }
      ],
      "name": "validateVaultInitData",
      "outputs": [],
      "stateMutability": "pure",
      "type": "function"
    },
    {
      "inputs": [],
      "name": "vaultFactory",
      "outputs": [
        {
          "internalType": "contract VaultFactory",
          "name": "",
          "type": "address"
        }
      ],
      "stateMutability": "view",
      "type": "function"
    },
    {
      "inputs": [
        {
          "internalType": "address",
          "name": "",
          "type": "address"
        }
      ],
      "name": "whitelist",
      "outputs": [
        {
          "internalType": "bool",
          "name": "",
          "type": "bool"
        }
      ],
      "stateMutability": "view",
      "type": "function"
    },
    {
      "inputs": [],
      "name": "yieldFactory",
      "outputs": [
        {
          "internalType": "contract YieldFactory",
          "name": "",
          "type": "address"
        }
      ],
      "stateMutability": "view",
      "type": "function"
    }
  ],
  "transactionHash": "0x5004e8f6c5ce7a0d20795627d7452468e9f858380a7d01497256f3f65e23811b",
  "args": [
    "0x959922bE3CAee4b8Cd9a407cc3ac1C251C2007B1",
    "0x9A9f2CCfdE556A7E9Ff0848998Aa4a0CFD8863AE",
    "0x68B1D87F95878fE05B998F19b66F4baba5De1aed",
    "0x3Aa5ebB10DC797CAC828524e59A333d0A371443c"
  ],
  "numDeployments": 1,
  "solcInputHash": "bef6192f43a977a4b049f0349069cccf",
  "bytecode": "0x6080346100f757601f612d8338819003918201601f19168301916001600160401b038311848410176100fc578084926080946040528339810103126100f75761004781610112565b9061005460208201610112565b61006c606061006560408501610112565b9301610112565b9261007633610126565b600180546001600160a01b03199081166001600160a01b0393841617909155600280548216938316939093179092556003805483169382169390931790925560048054909116929091169190911790556100cf33610126565b3360005260076020526040600020600160ff19825416179055604051612c15908161016e8239f35b600080fd5b634e487b7160e01b600052604160045260246000fd5b51906001600160a01b03821682036100f757565b600080546001600160a01b039283166001600160a01b03198216811783559216907f8be0079c531659141344cd1fd0a4f28419497f9722a3daafe3b4186f6b6457e09080a356fe608080604052600436101561001357600080fd5b600090813560e01c90816316fd84f7146125cf5750806329e5213a146124ed5780632e600c0214611fd65780632fa9c00714611f6b5780633239298e14611dc25780633dea9e6614611d9957806343417cea146111fa5780634b77f269146110d15780636c96768014610fd4578063715018a614610f7a57806377bdbaba14610eb05780637e6cbb6a14610e5e5780638525aff114610caa5780638ab1d68114610c695780638da5cb5b14610c4257806391c9b26814610b705780639803ba4114610aa65780639b19251a14610a675780639de4ae011461089b578063d8a06f7314610872578063e32e723c14610652578063e43252d71461060e578063e45917671461032f578063e77772fe14610306578063f2fde38b146102405763f5839fa71461013f57600080fd5b3461023d57604036600319011261023d57806024356001600160401b03811161023a576101a461017560209236906004016126c3565b6001546040516325920b2160e01b81529586936001600160a01b03909216928492839160048035908401612969565b03925af1801561022d5781906101ed575b6020925060018060a01b0316807f2e49a5810fda2439a23771848b4acec786b0a64d4de3d124ac57fc8739c388756040519380a28152f35b50906020813d602011610225575b8161020860209383612687565b81010312610221579061021c602092612930565b6101b5565b5080fd5b3d91506101fb565b50604051903d90823e3d90fd5b50fd5b80fd5b503461023d57602036600319011261023d5761025a6125f4565b610262612b87565b6001600160a01b031680156102b25781546001600160a01b03198116821783556001600160a01b03167f8be0079c531659141344cd1fd0a4f28419497f9722a3daafe3b4186f6b6457e08380a380f35b60405162461bcd60e51b815260206004820152602660248201527f4f776e61626c653a206e6577206f776e657220697320746865207a65726f206160448201526564647265737360d01b6064820152608490fd5b503461023d578060031936011261023d576002546040516001600160a01b039091168152602090f35b503461023d57602036600319011261023d576004356001600160401b038111610221576103609036906004016126c3565b80518101906080816020840193031261060a5761037f60208201612930565b61038b60408301612930565b906060830151928315158403610602576080810151906001600160401b03821161060657019380603f860112156106025760208501516103ca81612b5c565b956103d86040519788612687565b8187526020808089019360051b830101019283116105fe57604001905b8282106105e6575050506001600160a01b03161561058a576001600160a01b03161561052c57610423575080f35b8051156104b357815b81518110156104ae576001600160a01b036104478284612b73565b5116156104565760010161042c565b60405162461bcd60e51b815260206004820152602a60248201527f4372656174696f6e3a2077686974656c69737420616464726573732063616e6e6044820152696f74206265207a65726f60b01b6064820152608490fd5b505080f35b60405162461bcd60e51b815260206004820152604560248201527f4372656174696f6e3a20696e697469616c2077686974656c6973742063616e6e60448201527f6f7420626520656d707479207768656e2077686974656c69737420697320656e60648201526418589b195960da1b608482015260a490fd5b60405162461bcd60e51b815260206004820152603060248201527f4372656174696f6e3a207661756c742076616c696461746f722063616e6e6f7460448201526f206265207a65726f206164647265737360801b6064820152608490fd5b60405162461bcd60e51b815260206004820152602e60248201527f4372656174696f6e3a207661756c74206d616e616765722063616e6e6f74206260448201526d65207a65726f206164647265737360901b6064820152608490fd5b602080916105f384612930565b8152019101906103f5565b8780fd5b8580fd5b8680fd5b8280fd5b503461023d57602036600319011261023d576106286125f4565b610630612b87565b6001600160a01b03168152600760205260408120805460ff1916600117905580f35b503461023d57602036600319011261023d576001600160a01b036106746125f4565b168152600660205260408120805461068b81612b5c565b916106996040519384612687565b81835283526020808420849184015b8383106108555785858051906106bd82612b5c565b916106cb6040519384612687565b8083526106da601f1991612b5c565b01835b81811061083e575050825b81518110156107be578061070761070160019385612b73565b5161290a565b604051906107148261263b565b61071d81612770565b8252838060a01b03848201541691826020820152848060a01b03600283015416806040830152858060a01b036003840154169182606082015260c0878060a01b0360048601541694856080840152600581015460a08401526006898060a01b0391015416910152604051936107918561266c565b84526020840152604083015260608201526107ac8286612b73565b526107b78185612b73565b50016106e8565b505090604051918291602083016020845282518091526020604085019301915b8181106107ec575050500390f35b919350916020608082610830600194885180516001600160a01b03908116835260208083015182169084015260408083015182169084015260609182015116910152565b0194019101918493926107de565b602090610849612944565b828287010152016106dd565b60016020819261086485612770565b8152019201920191906106a8565b503461023d578060031936011261023d576001546040516001600160a01b039091168152602090f35b503461023d57602036600319011261023d576001600160a01b036108bd6125f4565b16815260066020526040812080546108d481612b5c565b916108e26040519384612687565b81835283526020808420849184015b838310610a4a57858580519061090682612b5c565b916109146040519384612687565b808352610923601f1991612b5c565b01835b818110610a33575050825b81518110156109cb578061094a61070160019385612b73565b604051906109578261263b565b61096081612770565b82528084015460a085811b86900391821660208501526002830154821660408501526003830154821660608501526004830154821660808501526005830154908401526006909101541660c08201526109b98286612b73565b526109c48185612b73565b5001610931565b5050906040519182916020830160208452825180915260408401602060408360051b870101940192905b828210610a0457505050500390f35b91936001919395506020610a238192603f198a8203018652885161285c565b96019201920185949391926109f5565b602090610a3e612ae2565b82828701015201610926565b600160208192610a5985612770565b8152019201920191906108f1565b503461023d57602036600319011261023d5760209060ff906040906001600160a01b03610a926125f4565b168152600784522054166040519015158152f35b503461023d57610aeb906020610abb366128c5565b600354604051632e24c42b60e21b81529687946001600160a01b0390921693859388938593929060048501612980565b03925af1801561022d578190610b34575b6020925060018060a01b0316807fbeacbaab8887097be64d667b2a06e62db7e00cc1429a8ebe02535e97a6cc8fcd6040519380a28152f35b50906020813d602011610b68575b81610b4f60209383612687565b810103126102215790610b63602092612930565b610afc565b3d9150610b42565b503461023d57602036600319011261023d57600435906001600160401b03821161023d57610c1f610bbc6020610ba936600487016126c3565b8160405193828580945193849201612814565b81016005815203019020610bcf81612770565b6001820154600283015460038401546004850154600586015460069096015460405160e0808252909889986001600160a01b03978816989388169790969481169581169416929091890190612837565b95602088015260408701526060860152608085015260a084015260c08301520390f35b503461023d578060031936011261023d57546040516001600160a01b039091168152602090f35b503461023d57602036600319011261023d57610c836125f4565b610c8b612b87565b6001600160a01b03168152600760205260408120805460ff1916905580f35b503461023d57602036600319011261023d576004356001600160401b03811161022157610cdb9036906004016126c3565b80518101906060816020840193031261060a5760208101516001600160401b038111610e5657826020610d1092840101612b1a565b9160408201516001600160401b038111610e5a576060916020610d3592850101612b1a565b9101519160ff8316809303610e56575115610e05575115610db157601210610d5a5780f35b60405162461bcd60e51b815260206004820152602960248201527f4372656174696f6e3a20746f6b656e20646563696d616c732063616e6e6f74206044820152680caf0c6cacac84062760bb1b6064820152608490fd5b60405162461bcd60e51b815260206004820152602660248201527f4372656174696f6e3a20746f6b656e2073796d626f6c2063616e6e6f7420626560448201526520656d70747960d01b6064820152608490fd5b60405162461bcd60e51b8152602060048201526024808201527f4372656174696f6e3a20746f6b656e206e616d652063616e6e6f7420626520656044820152636d70747960e01b6064820152608490fd5b8380fd5b8480fd5b503461023d578060031936011261023d57600154600254600354600454604080516001600160a01b039586168152938516602085015291841691830191909152919091166060820152608090f35b0390f35b503461023d57610ef5906020610ec5366128c5565b60025460405163870837d760e01b81529687946001600160a01b0390921693859388938593929060048501612980565b03925af1801561022d578190610f3e575b6020925060018060a01b0316807f2e2b3f61b70d2d131b2a807371103cc98d51adcaa5e9a8f9c32658ad8426e74e6040519380a28152f35b50906020813d602011610f72575b81610f5960209383612687565b810103126102215790610f6d602092612930565b610f06565b3d9150610f4c565b503461023d578060031936011261023d57610f93612b87565b80546001600160a01b03198116825581906001600160a01b03167f8be0079c531659141344cd1fd0a4f28419497f9722a3daafe3b4186f6b6457e08280a380f35b503461023d57608036600319011261023d57610fee61260f565b610ff6612625565b906064356001600160401b038111610e56579160209161101e61104c959436906004016126c3565b918460018060a01b0360045416926040519788958694859363d16ce86f60e01b8552600435600486016129a8565b03925af1801561022d578190611095575b6020925060018060a01b0316807f49b83e87fd3fc3e573ac9d92e450ad140ef4835d0b7c83ad39d3a49d8f2246c76040519380a28152f35b50906020813d6020116110c9575b816110b060209383612687565b8101031261022157906110c4602092612930565b61105d565b3d91506110a3565b503461023d57602036600319011261023d57600435906001600160401b03821161023d57611123602061110736600486016126c3565b61110f612ae2565b508160405193828580945193849201612814565b810160058152030190206040519061113a8261263b565b61114381612770565b80835260018201546001600160a01b039081166020850152600283015481166040850152600383015481166060850152600483015481166080850152600583015460a085015260069092015490911660c083015251156111b557610eac9060405191829160208352602083019061285c565b60405162461bcd60e51b815260206004820152601b60248201527f4372656174696f6e3a2070726f6a656374206e6f7420666f756e6400000000006044820152606490fd5b503461023d5761012036600319011261023d576004356001600160401b0381116102215761122c9036906004016126c3565b906044356001600160401b0381116102215761124c9036906004016126c3565b6084356001600160401b03811161060a5761126b9036906004016126c3565b9060c4356001600160401b038111610e565761128b9036906004016126c3565b92610104356001600160401b038111610221576112ac9036906004016126c3565b906112b5612944565b50338152600760205260ff60408220541615611d5457855115611d0057604051926112fe875194602081818b01976112ee81838b612814565b8101600581520301902054612736565b611cad57805115611c5657303b156102215760405163e459176760e01b8152602060048201528281806113346024820186612837565b0381305afa9081611c42575b5061139b5760405162461bcd60e51b815260206004820152602860248201527f4372656174696f6e3a20696e76616c6964207661756c7420696e6974206461746044820152671848199bdc9b585d60c21b6064820152608490fd5b845115611beb57303b1561022157604051638525aff160e01b815260206004820152828082806113ce602482018b612837565b0381305afa9182611bd6575b50506114365760405162461bcd60e51b815260206004820152602860248201527f4372656174696f6e3a20696e76616c696420746f6b656e20696e6974206461746044820152671848199bdc9b585d60c21b6064820152608490fd5b855115611b8057303b1561022157604051631730060160e11b81526020600482015282808280611469602482018c612837565b0381305afa9182611b6b575b50506114d05760405162461bcd60e51b815260206004820152602760248201527f4372656174696f6e3a20696e76616c69642066756e6420696e6974206461746160448201526608199bdc9b585d60ca1b6064820152608490fd5b825115611b1157303b156102215760405163191c94c760e11b815260206004820152828082806115036024820189612837565b0381305afa9182611afc575b505061156e5760405162461bcd60e51b815260206004820152602b60248201527f4372656174696f6e3a20696e76616c6964206469766964656e6420696e69742060448201526a19185d1848199bdc9b585d60aa1b6064820152608490fd5b60206115a0839260018060a01b0360015416906040519485809481936325920b2160e01b835260243560048401612969565b03925af190811561195e578291611ac2575b506001600160a01b038116948515611a7d5760206115f7849260018060a01b03600254169060405194858094819363870837d760e01b83528960643560048501612980565b03925af1908115611a72578391611a38575b506001600160a01b0381169687156119f357602061164e859260018060a01b036003541690604051948580948193632e24c42b60e21b83528a60a43560048501612980565b03925af19081156119e85784916119ae575b506001600160a01b0316938415611969576116a5926020928560018060a01b0360045416926040519687958694859363d16ce86f60e01b855260e435600486016129a8565b03925af190811561195e578291611924575b506001600160a01b03169283156118cc57600687604051926116d88461263b565b81845260208401888152604085018a8152606086019088825260808701928a8452611734611722602060a08b019742895260c08c0199338b52604051938492839251928391612814565b810160058152030190209851896129d7565b516001880180546001600160a01b03199081166001600160a01b039384161790915591516002890180548416918316919091179055915160038801805483169184169190911790559151600487018054841691831691909117905591516005860155915192909301805490911691909216179055338152600660205260408120805490680100000000000000008210156118b857906117d891600182018155612708565b9190916118a457509261184a9286926118146080987f402345b597346bb627a93715b6a25cf10dae5136cdeb4ecb107d6e63616a1b04976129d7565b604051966118218861266c565b83885280602089015281604089015282606089015260405195869560c0875260c0870190612837565b93602086015260408501526060840152868301523360a08301520390a16118a2604051809280516001600160a01b03908116835260208083015182169084015260408083015182169084015260609182015116910152565bf35b634e487b7160e01b81526004819052602490fd5b634e487b7160e01b83526041600452602483fd5b60405162461bcd60e51b815260206004820152602a60248201527f4372656174696f6e3a20616363756d756c617465645969656c642063726561746044820152691a5bdb8819985a5b195960b21b6064820152608490fd5b90506020813d602011611956575b8161193f60209383612687565b810103126102215761195090612930565b386116b7565b3d9150611932565b6040513d84823e3d90fd5b60405162461bcd60e51b815260206004820152601e60248201527f4372656174696f6e3a2066756e64206372656174696f6e206661696c656400006044820152606490fd5b90506020813d6020116119e0575b816119c960209383612687565b81010312610e56576119da90612930565b38611660565b3d91506119bc565b6040513d86823e3d90fd5b60405162461bcd60e51b815260206004820152601f60248201527f4372656174696f6e3a20746f6b656e206372656174696f6e206661696c6564006044820152606490fd5b90506020813d602011611a6a575b81611a5360209383612687565b8101031261060a57611a6490612930565b38611609565b3d9150611a46565b6040513d85823e3d90fd5b60405162461bcd60e51b815260206004820152601f60248201527f4372656174696f6e3a207661756c74206372656174696f6e206661696c6564006044820152606490fd5b90506020813d602011611af4575b81611add60209383612687565b8101031261022157611aee90612930565b386115b2565b3d9150611ad0565b81611b0691612687565b61060a57823861150f565b60405162461bcd60e51b815260206004820152602c60248201527f4372656174696f6e3a206469766964656e6420696e697420646174612063616e60448201526b6e6f7420626520656d70747960a01b6064820152608490fd5b81611b7591612687565b61060a578238611475565b60405162461bcd60e51b815260206004820152602860248201527f4372656174696f6e3a2066756e6420696e697420646174612063616e6e6f7420604482015267626520656d70747960c01b6064820152608490fd5b81611be091612687565b61060a5782386113da565b60405162461bcd60e51b815260206004820152602960248201527f4372656174696f6e3a20746f6b656e20696e697420646174612063616e6e6f7460448201526820626520656d70747960b81b6064820152608490fd5b83611c4f91949294612687565b9138611340565b60405162461bcd60e51b815260206004820152602960248201527f4372656174696f6e3a207661756c7420696e697420646174612063616e6e6f7460448201526820626520656d70747960b81b6064820152608490fd5b60405162461bcd60e51b815260206004820152602560248201527f4372656174696f6e3a2070726f6a656374206e616d6520616c72656164792065604482015264786973747360d81b6064820152608490fd5b60405162461bcd60e51b815260206004820152602660248201527f4372656174696f6e3a2070726f6a656374206e616d652063616e6e6f7420626560448201526520656d70747960d01b6064820152608490fd5b60405162461bcd60e51b815260206004820152601960248201527f4372656174696f6e3a206e6f742077686974656c6973746564000000000000006044820152606490fd5b503461023d578060031936011261023d576003546040516001600160a01b039091168152602090f35b503461023d57602036600319011261023d576004356001600160401b03811161022157611df39036906004016126c3565b60608180518101031261022157611e0c60208201612930565b90611e256060611e1e60408401612930565b9201612930565b916001600160a01b031615611f10576001600160a01b031615611eb3576001600160a01b031615611e535780f35b60405162461bcd60e51b815260206004820152603260248201527f4372656174696f6e3a206469766964656e642074726561737572792063616e6e6044820152716f74206265207a65726f206164647265737360701b6064820152608490fd5b60405162461bcd60e51b815260206004820152602f60248201527f4372656174696f6e3a20726577617264206d616e616765722063616e6e6f742060448201526e6265207a65726f206164647265737360881b6064820152608490fd5b60405162461bcd60e51b815260206004820152602d60248201527f4372656174696f6e3a2072657761726420746f6b656e2063616e6e6f7420626560448201526c207a65726f206164647265737360981b6064820152608490fd5b503461023d57604036600319011261023d57611f856125f4565b6001600160a01b0316815260066020526040812080546024359081101561060a57611faf91612708565b9190916118a457610eac611fc283612770565b604051918291602083526020830190612837565b503461023d57602036600319011261023d576004356001600160401b038111610221576120079036906004016126c3565b610160818051810103126102215760208101519060408101519161202d60608301612930565b608083015160a084015160c08501519060e086015192610100870151946120576101208901612930565b966101606120686101408b01612930565b99015199811561249457111561243b576001600160a01b0316156123e157801561238857811515918261237d575b50501561230657156122ac571561224b57612710106121f6576001600160a01b031615612197576001600160a01b03161561213557156120d35780f35b60405162461bcd60e51b815260206004820152603460248201527f4372656174696f6e3a20646563696d616c73206d756c7469706c696572206d75604482015273073742062652067726561746572207468616e20360641b6064820152608490fd5b60405162461bcd60e51b815260206004820152603460248201527f4372656174696f6e3a206d616e616765206665652072656365697665722063616044820152736e6e6f74206265207a65726f206164647265737360601b6064820152608490fd5b60405162461bcd60e51b815260206004820152603160248201527f4372656174696f6e3a2066756e64696e672072656365697665722063616e6e6f60448201527074206265207a65726f206164647265737360781b6064820152608490fd5b60405162461bcd60e51b815260206004820152602760248201527f4372656174696f6e3a206d616e616765206665652063616e6e6f7420657863656044820152666564203130302560c81b6064820152608490fd5b60405162461bcd60e51b815260206004820152603360248201527f4372656174696f6e3a206d696e206465706f73697420616d6f756e74206d75736044820152720742062652067726561746572207468616e203606c1b6064820152608490fd5b60405162461bcd60e51b815260206004820152602c60248201527f4372656174696f6e3a207368617265207072696365206d75737420626520677260448201526b06561746572207468616e20360a41b6064820152608490fd5b60405162461bcd60e51b815260206004820152604360248201527f4372656174696f6e3a20736f667420636170206d75737420626520677265617460448201527f6572207468616e203020616e64206e6f7420657863656564206d617820737570606482015262706c7960e81b608482015260a490fd5b111590503880612096565b60405162461bcd60e51b815260206004820152602b60248201527f4372656174696f6e3a206d617820737570706c79206d7573742062652067726560448201526a061746572207468616e20360ac1b6064820152608490fd5b60405162461bcd60e51b815260206004820152602c60248201527f4372656174696f6e3a20617373657420746f6b656e2063616e6e6f742062652060448201526b7a65726f206164647265737360a01b6064820152608490fd5b60405162461bcd60e51b815260206004820152602b60248201527f4372656174696f6e3a20656e642074696d65206d75737420626520616674657260448201526a2073746172742074696d6560a81b6064820152608490fd5b60405162461bcd60e51b815260206004820152602b60248201527f4372656174696f6e3a2073746172742074696d65206d7573742062652067726560448201526a061746572207468616e20360ac1b6064820152608490fd5b503461023d57608036600319011261023d576125076125f4565b61250f61260f565b612517612625565b916064356001600160a01b03811690818103610602577fae4e3fe398aa4a573a52068d6240e84dc4df03ac5a0a80e77168a56711453b5f946125c99261255b612b87565b600180546001600160a01b039687166001600160a01b0319918216811790925560028054988816988216891790556003805494881694821685179055600480549091169290921790915560408051918252602082019690965294850152909116606083015281906080820190565b0390a180f35b9050346102215781600319360112610221576004546001600160a01b03168152602090f35b600435906001600160a01b038216820361260a57565b600080fd5b602435906001600160a01b038216820361260a57565b604435906001600160a01b038216820361260a57565b60e081019081106001600160401b0382111761265657604052565b634e487b7160e01b600052604160045260246000fd5b608081019081106001600160401b0382111761265657604052565b90601f801991011681019081106001600160401b0382111761265657604052565b6001600160401b03811161265657601f01601f191660200190565b81601f8201121561260a576020813591016126dd826126a8565b926126eb6040519485612687565b8284528282011161260a5781600092602092838601378301015290565b80548210156127205760005260206000200190600090565b634e487b7160e01b600052603260045260246000fd5b90600182811c92168015612766575b602083101461275057565b634e487b7160e01b600052602260045260246000fd5b91607f1691612745565b906040519182600082549261278484612736565b80845293600181169081156127f257506001146127ab575b506127a992500383612687565b565b90506000929192526020600020906000915b8183106127d65750509060206127a9928201013861279c565b60209193508060019154838589010152019101909184926127bd565b9050602092506127a994915060ff191682840152151560051b8201013861279c565b60005b8381106128275750506000910152565b8181015183820152602001612817565b9060209161285081518092818552858086019101612814565b601f01601f1916010190565b9060c0612872835160e0845260e0840190612837565b6020808501516001600160a01b039081169185019190915260408086015182169085015260608086015182169085015260808086015182169085015260a080860151908501529382015190931691015290565b606060031982011261260a57600435916024356001600160a01b038116810361260a5791604435906001600160401b03821161260a57612907916004016126c3565b90565b6020612923918160405193828580945193849201612814565b8101600581520301902090565b51906001600160a01b038216820361260a57565b604051906129518261266c565b60006060838281528260208201528260408201520152565b604090612907939281528160208201520190612837565b9081526001600160a01b03909116602082015260606040820181905261290792910190612837565b9081526001600160a01b0391821660208201529116604082015260806060820181905261290792910190612837565b91909182516001600160401b038111612656576129f48254612736565b601f8111612a9a575b506020601f8211600114612a385781929394600092612a2d575b50508160011b916000199060031b1c1916179055565b015190503880612a17565b601f1982169083600052806000209160005b818110612a8257509583600195969710612a69575b505050811b019055565b015160001960f88460031b161c19169055388080612a5f565b9192602060018192868b015181550194019201612a4a565b826000526020600020601f830160051c81019160208410612ad8575b601f0160051c01905b818110612acc57506129fd565b60008155600101612abf565b9091508190612ab6565b60405190612aef8261263b565b600060c083606081528260208201528260408201528260608201528260808201528260a08201520152565b81601f8201121561260a578051612b30816126a8565b92612b3e6040519485612687565b8184526020828401011161260a576129079160208085019101612814565b6001600160401b0381116126565760051b60200190565b80518210156127205760209160051b010190565b6000546001600160a01b03163303612b9b57565b606460405162461bcd60e51b815260206004820152602060248201527f4f776e61626c653a2063616c6c6572206973206e6f7420746865206f776e65726044820152fdfea264697066735822122080b8d8a031df3bf56ca979ba7934df0e0edcaf751dde5f7be94c0a22bbbd459864736f6c634300081a0033",
  "devdoc": {
    "kind": "dev",
    "methods": {
      "deployAll(string,uint256,bytes,uint256,bytes,uint256,bytes,uint256,bytes)": {
        "details": "bytes",
        "params": {
          "dividendInitData": "Dividendbytes",
          "dividendTemplateId": "DividendID",
          "fundInitData": "Fundbytes",
          "fundTemplateId": "FundID",
          "projectName": "",
          "tokenInitData": "Tokenbytes",
          "tokenTemplateId": "TokenID",
          "vaultInitData": "Vaultbytes",
          "vaultTemplateId": "VaultID"
        },
        "returns": {
          "result": ""
        }
      },
      "deployFund(uint256,address,bytes)": {
        "details": "Fund",
        "params": {
          "initData": "bytes",
          "templateId": "ID",
          "vault": "Vault"
        },
        "returns": {
          "fund": "Fund"
        }
      },
      "deployToken(uint256,address,bytes)": {
        "details": "Token",
        "params": {
          "initData": "bytes",
          "templateId": "ID",
          "vault": "Vault"
        },
        "returns": {
          "token": "Token"
        }
      },
      "deployVault(uint256,bytes)": {
        "details": "Vault",
        "params": {
          "initData": "bytes",
          "templateId": "ID"
        },
        "returns": {
          "vault": "Vault"
        }
      },
      "getFactories()": {
        "details": "",
        "returns": {
          "_0": "Vault",
          "_1": "Token",
          "_2": "Fund",
          "_3": "Dividend"
        }
      },
      "getProjectByName(string)": {
        "details": "",
        "params": {
          "projectName": ""
        },
        "returns": {
          "_0": "project "
        }
      },
      "getUserProjectDetails(address)": {
        "details": "",
        "params": {
          "user": ""
        },
        "returns": {
          "_0": "projects "
        }
      },
      "getUserProjects(address)": {
        "details": "",
        "params": {
          "user": ""
        },
        "returns": {
          "result": ""
        }
      },
      "owner()": {
        "details": "Returns the address of the current owner."
      },
      "renounceOwnership()": {
        "details": "Leaves the contract without owner. It will not be possible to call `onlyOwner` functions. Can only be called by the current owner. NOTE: Renouncing ownership will leave the contract without an owner, thereby disabling any functionality that is only available to the owner."
      },
      "setFactories(address,address,address,address)": {
        "details": "",
        "params": {
          "_dividendFactory": "Dividend",
          "_fundFactory": "Fund",
          "_tokenFactory": "Token",
          "_vaultFactory": "Vault"
        }
      },
      "transferOwnership(address)": {
        "details": "Transfers ownership of the contract to a new account (`newOwner`). Can only be called by the current owner."
      }
    },
    "version": 1
  },
  "userdoc": {
    "kind": "user",
    "methods": {},
    "version": 1
  },
  "storageLayout": {
    "storage": [
      {
        "astId": 7,
        "contract": "contracts/v2/creation/Creation.sol:Creation",
        "label": "_owner",
        "offset": 0,
        "slot": "0",
        "type": "t_address"
      },
      {
        "astId": 238,
        "contract": "contracts/v2/creation/Creation.sol:Creation",
        "label": "vaultFactory",
        "offset": 0,
        "slot": "1",
        "type": "t_contract(VaultFactory)1817"
      },
      {
        "astId": 241,
        "contract": "contracts/v2/creation/Creation.sol:Creation",
        "label": "tokenFactory",
        "offset": 0,
        "slot": "2",
        "type": "t_contract(TokenFactory)1659"
      },
      {
        "astId": 244,
        "contract": "contracts/v2/creation/Creation.sol:Creation",
        "label": "fundFactory",
        "offset": 0,
        "slot": "3",
        "type": "t_contract(FundFactory)1498"
      },
      {
        "astId": 247,
        "contract": "contracts/v2/creation/Creation.sol:Creation",
        "label": "yieldFactory",
        "offset": 0,
        "slot": "4",
        "type": "t_contract(YieldFactory)1981"
      },
      {
        "astId": 297,
        "contract": "contracts/v2/creation/Creation.sol:Creation",
        "label": "projects",
        "offset": 0,
        "slot": "5",
        "type": "t_mapping(t_string_memory_ptr,t_struct(Project)2057_storage)"
      },
      {
        "astId": 302,
        "contract": "contracts/v2/creation/Creation.sol:Creation",
        "label": "userProjects",
        "offset": 0,
        "slot": "6",
        "type": "t_mapping(t_address,t_array(t_string_storage)dyn_storage)"
      },
      {
        "astId": 306,
        "contract": "contracts/v2/creation/Creation.sol:Creation",
        "label": "whitelist",
        "offset": 0,
        "slot": "7",
        "type": "t_mapping(t_address,t_bool)"
      }
    ],
    "types": {
      "t_address": {
        "encoding": "inplace",
        "label": "address",
        "numberOfBytes": "20"
      },
      "t_array(t_string_storage)dyn_storage": {
        "base": "t_string_storage",
        "encoding": "dynamic_array",
        "label": "string[]",
        "numberOfBytes": "32"
      },
      "t_bool": {
        "encoding": "inplace",
        "label": "bool",
        "numberOfBytes": "1"
      },
      "t_contract(FundFactory)1498": {
        "encoding": "inplace",
        "label": "contract FundFactory",
        "numberOfBytes": "20"
      },
      "t_contract(TokenFactory)1659": {
        "encoding": "inplace",
        "label": "contract TokenFactory",
        "numberOfBytes": "20"
      },
      "t_contract(VaultFactory)1817": {
        "encoding": "inplace",
        "label": "contract VaultFactory",
        "numberOfBytes": "20"
      },
      "t_contract(YieldFactory)1981": {
        "encoding": "inplace",
        "label": "contract YieldFactory",
        "numberOfBytes": "20"
      },
      "t_mapping(t_address,t_array(t_string_storage)dyn_storage)": {
        "encoding": "mapping",
        "key": "t_address",
        "label": "mapping(address => string[])",
        "numberOfBytes": "32",
        "value": "t_array(t_string_storage)dyn_storage"
      },
      "t_mapping(t_address,t_bool)": {
        "encoding": "mapping",
        "key": "t_address",
        "label": "mapping(address => bool)",
        "numberOfBytes": "32",
        "value": "t_bool"
      },
      "t_mapping(t_string_memory_ptr,t_struct(Project)2057_storage)": {
        "encoding": "mapping",
        "key": "t_string_memory_ptr",
        "label": "mapping(string => struct ICreation.Project)",
        "numberOfBytes": "32",
        "value": "t_struct(Project)2057_storage"
      },
      "t_string_memory_ptr": {
        "encoding": "bytes",
        "label": "string",
        "numberOfBytes": "32"
      },
      "t_string_storage": {
        "encoding": "bytes",
        "label": "string",
        "numberOfBytes": "32"
      },
      "t_struct(Project)2057_storage": {
        "encoding": "inplace",
        "label": "struct ICreation.Project",
        "members": [
          {
            "astId": 2044,
            "contract": "contracts/v2/creation/Creation.sol:Creation",
            "label": "name",
            "offset": 0,
            "slot": "0",
            "type": "t_string_storage"
          },
          {
            "astId": 2046,
            "contract": "contracts/v2/creation/Creation.sol:Creation",
            "label": "vault",
            "offset": 0,
            "slot": "1",
            "type": "t_address"
          },
          {
            "astId": 2048,
            "contract": "contracts/v2/creation/Creation.sol:Creation",
            "label": "token",
            "offset": 0,
            "slot": "2",
            "type": "t_address"
          },
          {
            "astId": 2050,
            "contract": "contracts/v2/creation/Creation.sol:Creation",
            "label": "fund",
            "offset": 0,
            "slot": "3",
            "type": "t_address"
          },
          {
            "astId": 2052,
            "contract": "contracts/v2/creation/Creation.sol:Creation",
            "label": "accumulatedYield",
            "offset": 0,
            "slot": "4",
            "type": "t_address"
          },
          {
            "astId": 2054,
            "contract": "contracts/v2/creation/Creation.sol:Creation",
            "label": "createdAt",
            "offset": 0,
            "slot": "5",
            "type": "t_uint256"
          },
          {
            "astId": 2056,
            "contract": "contracts/v2/creation/Creation.sol:Creation",
            "label": "deployer",
            "offset": 0,
            "slot": "6",
            "type": "t_address"
          }
        ],
        "numberOfBytes": "224"
      },
      "t_uint256": {
        "encoding": "inplace",
        "label": "uint256",
        "numberOfBytes": "32"
      }
    }
  }
}