{
  "address": "0x9fE46736679d2D9a65F0992F2272dE9f3c7fa6e0",
  "abi": [
    {
      "inputs": [],
      "stateMutability": "nonpayable",
      "type": "constructor"
    },
    {
      "anonymous": false,
      "inputs": [
        {
          "indexed": false,
          "internalType": "address",
          "name": "proxy",
          "type": "address"
        },
        {
          "indexed": false,
          "internalType": "address",
          "name": "proxyAdmin",
          "type": "address"
        },
        {
          "indexed": false,
          "internalType": "address",
          "name": "implementation",
          "type": "address"
        },
        {
          "indexed": false,
          "internalType": "address",
          "name": "guardian",
          "type": "address"
        }
      ],
      "name": "FundDeployed",
      "type": "event"
    },
    {
      "inputs": [
        {
          "internalType": "address",
          "name": "vault",
          "type": "address"
        },
        {
          "internalType": "address",
          "name": "token",
          "type": "address"
        },
        {
          "internalType": "bytes",
          "name": "initData",
          "type": "bytes"
        },
        {
          "internalType": "address",
          "name": "guardian",
          "type": "address"
        }
      ],
      "name": "newFund",
      "outputs": [
        {
          "internalType": "address",
          "name": "",
          "type": "address"
        },
        {
          "internalType": "address",
          "name": "",
          "type": "address"
        },
        {
          "internalType": "address",
          "name": "",
          "type": "address"
        }
      ],
      "stateMutability": "nonpayable",
      "type": "function"
    }
  ],
  "transactionHash": "0x5f3d8dc2a5896f3e878ff9bbb02cd79bb4ce78172e3114d1be06dc7329acb6df",
  "args": [],
  "numDeployments": 1,
  "solcInputHash": "bf854f03069a11264233a9803646134e",
  "bytecode": "0x60808060405234601557614427908161001b8239f35b600080fdfe608080604052600436101561001357600080fd5b600090813560e01c63657131121461002a57600080fd5b346103a35760803660031901126103a3576004356001600160a01b0381169081900361039b576024356001600160a01b03811692908390036102e35760443567ffffffffffffffff811161039f573660238201121561039f57806004013567ffffffffffffffff81116102f2578591906100ae601f8201601f1916602001856103a7565b808452366024828401011161039b578060246020930183860137830101526064356001600160a01b03811694908590036102aa57841561033b57604051612d2e8082019082821067ffffffffffffffff831117610327579082916116c48339039082f092831561031a5760405161066f8082019082821067ffffffffffffffff831117610306579082916103e08339039083f09384156102ad576040516001600160a01b03918216959091169390610c758082019067ffffffffffffffff8211838310176102f2576080918391610a4f83398881528760208201526060604082015286606082015203019084f080156102e7576001600160a01b031695863b156102e357918391604051938492630aedf8cf60e21b84526004840152602483015260606044830152805190816064840152835b8281106102c85750508181846084809484010152601f8019910116810103018183895af180156102ad5782906102b8575b5050813b156102aa5760405163f2fde38b60e01b815260048101869052818160248183875af180156102ad57610295575b50507fd1a7ff02c6c62ca6a661fa78192e257ba10bce5bb568f40e449026f8dcb6973860806060956040519086825284602083015285604083015287820152a160405192835260208301526040820152f35b6102a08280926103a7565b6102aa5780610243565b80fd5b6040513d84823e3d90fd5b6102c1916103a7565b3881610212565b602081830181015160848884010152879550869450016101e1565b8380fd5b6040513d85823e3d90fd5b634e487b7160e01b86526041600452602486fd5b634e487b7160e01b85526041600452602485fd5b50604051903d90823e3d90fd5b634e487b7160e01b84526041600452602484fd5b60405162461bcd60e51b815260206004820152603260248201527f43726f776473616c65466163746f72793a20677561726469616e2063616e206e6044820152716f74206265207a65726f206164647265737360701b6064820152608490fd5b8280fd5b8480fd5b5080fd5b90601f8019910116810190811067ffffffffffffffff8211176103c957604052565b634e487b7160e01b600052604160045260246000fdfe60808060405234605a5760008054336001600160a01b0319821681178355916001600160a01b03909116907f8be0079c531659141344cd1fd0a4f28419497f9722a3daafe3b4186f6b6457e09080a361060f90816100608239f35b600080fdfe608080604052600436101561001357600080fd5b60009081803560e01c918263204e1c7a1461046d5750508063715018a6146104135780637eff275e146103825780638da5cb5b1461035b5780639623609d1461024957806399a88ec4146101b4578063f2fde38b146100ee5763f3b7dead1461007b57600080fd5b346100eb5760203660031901126100eb57808060046001600160a01b036100a06104ad565b6040516303e1469160e61b815291165afa6100b9610532565b90156100e75780516020916001600160a01b03916100de919081018401908401610562565b16604051908152f35b5080fd5b80fd5b50346100eb5760203660031901126100eb576101086104ad565b610110610581565b6001600160a01b031680156101605781546001600160a01b03198116821783556001600160a01b03167f8be0079c531659141344cd1fd0a4f28419497f9722a3daafe3b4186f6b6457e08380a380f35b60405162461bcd60e51b815260206004820152602660248201527f4f776e61626c653a206e6577206f776e657220697320746865207a65726f206160448201526564647265737360d01b6064820152608490fd5b50346100eb5760403660031901126100eb57806101cf6104ad565b6101d76104c8565b906101e0610581565b6001600160a01b031690813b1561024557604051631b2ce7f360e11b81526001600160a01b0390911660048201529082908290602490829084905af1801561023a576102295750f35b81610233916104de565b6100eb5780f35b6040513d84823e3d90fd5b5050fd5b5060603660031901126100eb5761025e6104ad565b906102676104c8565b6044359267ffffffffffffffff8411610353573660238501121561035357836004013561029381610516565b946102a160405196876104de565b81865236602483830101116103575781859260246020930183890137860101526102c9610581565b6001600160a01b0316803b15610353576040805163278f794360e11b81526001600160a01b0390931660048401526024830152835160448301819052835b81811061033d57848085818187816064818a86838284010152601f8019910116810103019134905af1801561023a576102295750f35b8060208092880101516064828701015201610307565b8280fd5b8480fd5b50346100eb57806003193601126100eb57546040516001600160a01b039091168152602090f35b50346100eb5760403660031901126100eb578061039d6104ad565b6103a56104c8565b906103ae610581565b6001600160a01b031690813b15610245576040516308f2839760e41b81526001600160a01b039091166004820152919081908390602490829084905af18015610406576103f85780f35b610401916104de565b388180f35b50604051903d90823e3d90fd5b50346100eb57806003193601126100eb5761042c610581565b80546001600160a01b03198116825581906001600160a01b03167f8be0079c531659141344cd1fd0a4f28419497f9722a3daafe3b4186f6b6457e08280a380f35b8190346104aa5760203660031901126104aa5781906004906001600160a01b036104956104ad565b635c60da1b60e01b8352165afa6100b9610532565b50fd5b600435906001600160a01b03821682036104c357565b600080fd5b602435906001600160a01b03821682036104c357565b90601f8019910116810190811067ffffffffffffffff82111761050057604052565b634e487b7160e01b600052604160045260246000fd5b67ffffffffffffffff811161050057601f01601f191660200190565b3d1561055d573d9061054382610516565b9161055160405193846104de565b82523d6000602084013e565b606090565b908160209103126104c357516001600160a01b03811681036104c35790565b6000546001600160a01b0316330361059557565b606460405162461bcd60e51b815260206004820152602060248201527f4f776e61626c653a2063616c6c6572206973206e6f7420746865206f776e65726044820152fdfea264697066735822122058b9e5a891b425518778f28ada758022b0fa6de418f37fd8bf81041900605fe864736f6c634300081a00336080604052610c7580380380610014816102ce565b92833981016060828203126102c95761002c82610309565b61003860208401610309565b604084015190936001600160401b0382116102c957019082601f830112156102c95781519161006e6100698461031d565b6102ce565b928084526020840194602082840101116102c95784602061008f9301610338565b803b1561026e577f360894a13ba1a3210667c828492db98dca3e2076cc3735a920a3ca505d382bbc80546001600160a01b0319166001600160a01b0383169081179091557fbc7cd75a20ee27fd9adebab32041f755214dbc6bffa90cc0225b39da2e5c2d3b600080a2815115801590610266575b6101e0575b5050600080516020610c5583398151915254604080516001600160a01b03808416825290941660208501819052939192507f7e644d79422f17c01e4894b5f4f588d331ebfa28653d42ae832dc59e38c9798f91a1811561018c576001600160a01b03191617600080516020610c5583398151915255604051610846908161040f8239f35b60405162461bcd60e51b815260206004820152602660248201527f455243313936373a206e65772061646d696e20697320746865207a65726f206160448201526564647265737360d01b6064820152608490fd5b600080610255946101f160606102ce565b94602786527f416464726573733a206c6f772d6c6576656c2064656c65676174652063616c6c6020870152660819985a5b195960ca1b60408701525190845af43d1561025e573d916102456100698461031d565b9283523d6000602085013e61035b565b50388080610108565b60609161035b565b506000610103565b60405162461bcd60e51b815260206004820152602d60248201527f455243313936373a206e657720696d706c656d656e746174696f6e206973206e60448201526c1bdd08184818dbdb9d1c9858dd609a1b6064820152608490fd5b600080fd5b6040519190601f01601f191682016001600160401b038111838210176102f357604052565b634e487b7160e01b600052604160045260246000fd5b51906001600160a01b03821682036102c957565b6001600160401b0381116102f357601f01601f191660200190565b60005b83811061034b5750506000910152565b818101518382015260200161033b565b919290156103bd575081511561036f575090565b3b156103785790565b60405162461bcd60e51b815260206004820152601d60248201527f416464726573733a2063616c6c20746f206e6f6e2d636f6e74726163740000006044820152606490fd5b8251909150156103d05750805190602001fd5b6044604051809262461bcd60e51b8252602060048301526104008151809281602486015260208686019101610338565b601f01601f19168101030190fdfe60806040523661013f576000805160206107d183398151915254610033906001600160a01b03165b6001600160a01b031690565b330361013a576000356001600160e01b031916631b2ce7f360e11b8103610065575061005d61045b565b602081519101f35b63278f794360e11b8103610081575061007c6103ca565b61005d565b6308f2839760e41b8103610098575061007c6102e4565b6303e1469160e61b81036100af575061007c61023e565b635c60da1b60e01b036100c45761007c610203565b60405162461bcd60e51b815260206004820152604260248201527f5472616e73706172656e745570677261646561626c6550726f78793a2061646d60448201527f696e2063616e6e6f742066616c6c6261636b20746f2070726f78792074617267606482015261195d60f21b608482015260a490fd5b61018b565b6000805160206107d183398151915254610161906001600160a01b0316610027565b330361018b576000356001600160e01b031916631b2ce7f360e11b8103610065575061005d61045b565b6000805160206107f18339815191525460009081906001600160a01b0316368280378136915af43d6000803e156101c1573d6000f35b3d6000fd5b634e487b7160e01b600052604160045260246000fd5b90601f8019910116810190811067ffffffffffffffff8211176101fe57604052565b6101c6565b61020b610581565b60018060a01b036000805160206107f183398151915254166040519060208201526020815261023b6040826101dc565b90565b610246610581565b60018060a01b036000805160206107d183398151915254166040519060208201526020815261023b6040826101dc565b600435906001600160a01b038216820361028c57565b600080fd5b602090600319011261028c576004356001600160a01b038116810361028c5790565b67ffffffffffffffff81116101fe57601f01601f191660200190565b604051906102de6020836101dc565b60008252565b6102ec610581565b3660041161028c576001600160a01b0361030536610291565b166000805160206107d1833981519152547f7e644d79422f17c01e4894b5f4f588d331ebfa28653d42ae832dc59e38c9798f6040805160018060a01b0384168152846020820152a18115610376576001600160a01b031916176000805160206107d18339815191525561023b6102cf565b60405162461bcd60e51b815260206004820152602660248201527f455243313936373a206e65772061646d696e20697320746865207a65726f206160448201526564647265737360d01b6064820152608490fd5b3660041161028c57604036600319011261028c576103e6610276565b6024359067ffffffffffffffff821161028c573660238301121561028c57816004013590610413826102b3565b9161042160405193846101dc565b808352366024828601011161028c576020816000926024610453970183870137840101526001600160a01b0316610588565b61023b6102cf565b610463610581565b3660041161028c576001600160a01b0361047c36610291565b166020906040519061048e83836101dc565b60008252803b15610526576000805160206107f183398151915280546001600160a01b03191682179055807fbc7cd75a20ee27fd9adebab32041f755214dbc6bffa90cc0225b39da2e5c2d3b600080a281511580159061051e575b610504575b50506104fd60405191826101dc565b6000815290565b61051691610510610664565b916106af565b5038806104ee565b5060006104e9565b60405162461bcd60e51b815260048101849052602d60248201527f455243313936373a206e657720696d706c656d656e746174696f6e206973206e60448201526c1bdd08184818dbdb9d1c9858dd609a1b6064820152608490fd5b3461028c57565b803b15610609576000805160206107f183398151915280546001600160a01b0319166001600160a01b0383169081179091557fbc7cd75a20ee27fd9adebab32041f755214dbc6bffa90cc0225b39da2e5c2d3b600080a2815115801590610601575b6105f2575050565b6105fe91610510610664565b50565b5060016105ea565b60405162461bcd60e51b815260206004820152602d60248201527f455243313936373a206e657720696d706c656d656e746174696f6e206973206e60448201526c1bdd08184818dbdb9d1c9858dd609a1b6064820152608490fd5b604051906106736060836101dc565b60278252660819985a5b195960ca1b6040837f416464726573733a206c6f772d6c6576656c2064656c65676174652063616c6c60208201520152565b60008061023b9493602081519101845af43d156106ee573d916106d1836102b3565b926106df60405194856101dc565b83523d6000602085013e610742565b606091610742565b156106fd57565b60405162461bcd60e51b815260206004820152601d60248201527f416464726573733a2063616c6c20746f206e6f6e2d636f6e74726163740000006044820152606490fd5b919290156107625750815115610756575090565b61023b903b15156106f6565b8251909150156107755750805190602001fd5b6040519062461bcd60e51b8252602060048301528181519182602483015260005b8381106107b85750508160006044809484010152601f80199101168101030190fd5b6020828201810151604487840101528593500161079656feb53127684a568b3173ae13b9f8a6016e243e63b6e8ee1178d6a717850b5d6103360894a13ba1a3210667c828492db98dca3e2076cc3735a920a3ca505d382bbca26469706673582212205a24e37b8404c988bf286ad5736caa678faca592c0f556e954fd90f779592ec164736f6c634300081a0033b53127684a568b3173ae13b9f8a6016e243e63b6e8ee1178d6a717850b5d61036080806040523460bd576000549060ff8260081c16606b575060ff808216036031575b604051612c6b90816100c38239f35b60ff90811916176000557f7f26b83ff96e1f2b6a682f133852f6798a09c465da95921460cefb3847402498602060405160ff8152a1386022565b62461bcd60e51b815260206004820152602760248201527f496e697469616c697a61626c653a20636f6e747261637420697320696e697469604482015266616c697a696e6760c81b6064820152608490fd5b600080fdfe608080604052600436101561001357600080fd5b600090813560e01c9081631083f76114611f7d5750806321bb725a14611f1d578063244e126c14611ece5780632bb7e33c146117b45780632c365cda146117965780633197cbb61461177857806337b5213f146116bd5780633f4ba83a1461160b57806344f45127146113e5578063481c6a75146113bc5780634bbdf4da1461139e578063579e2b6214610f2a5780635a05ddb5146112505780635a3cb0f61461110a5780635c975abb146110e7578063645006ca146110c9578063715018a61461106c57806378e979251461104e5780637cc8a753146110255780638456cb5914610fad5780638726972914610f8f5780638840074b14610c485780638da5cb5b14610f66578063906a26e014610f485780639f55029314610f2a578063aac6be7914610f01578063b4b5020714610ee2578063bb13245f14610ec4578063c01df21114610c81578063c2068e1c14610c48578063d5abeb0114610c2a578063d827a54114610bbe578063d855ef7814610817578063e1a45218146107fa578063e4b7fb73146106f3578063f2fde38b14610662578063f8a3c8f21461063d578063faa9bce9146101f95763fbfa77cf146101ce57600080fd5b346101f657806003193601126101f65760c9546040516001600160a01b039091168152602090f35b80fd5b50346101f657610208366120af565b61021860ff855460081c16612109565b60ca5442101580610631575b61022d90612328565b61023e610238612583565b15612373565b61024661270f565b61024e6126cb565b61025c60d0548410156123cd565b6001600160a01b038216926102728415156122bd565b33855260d860205261036161034b6103436040882094855495610294876124a6565b9055604051956102a387611ff8565b886103116040988951906102b78b8361202a565b600782526619195c1bdcda5d60ca1b6020830152818152896020820152838b82015284606082015246608082015260a0309101526103038a51938492602084019630928d46938a6124d8565b03601f19810183528261202a565b5190207f19457468657265756d205369676e6564204d6573736167653a0a3332000000008a52601c52603c89206129b0565b9190916129e8565b60d5546001600160a01b0391821691161461252a565b60d1549261038461037f612710610378878661267f565b0484612425565b612863565b60c954845163703bafd560e01b81529193918891602090829060049082906001600160a01b03165afa9081156105fa576004916020918491610604575b5087516318160ddd60e01b815292839182906001600160a01b03165afa9081156105fa5782916105be575b506103f99060cd54612425565b93848111156105ac5750505061040e82612765565b612710810290808204612710149015171561059857846127100390612710821161058457610458610443899361271093612692565b9661045260d054891015612448565b8761267f565b04916104668360d754612576565b60d75561047e6104768488612425565b60d654612576565b60d65560cc5485516323b872dd60e01b6020820152336024820152306044820152606480820189905281526104c6916001600160a01b03166104c160848361202a565b612894565b60c9546001600160a01b0316803b15610580578551630f38ca0d60e31b81526001600160a01b039290921660048301526024820185905282908290604490829084905af180156105765761055d575b505091519283526020830191909152604082015233907f4e2ca0515ed1aef1395f66b5303bb5d6f1bf9d61a353fa53f73f8ac9973fa9f69080606081015b0390a36001805580f35b816105679161202a565b610572578538610515565b8580fd5b85513d84823e3d90fd5b8280fd5b634e487b7160e01b88526011600452602488fd5b634e487b7160e01b87526011600452602487fd5b61271091929450610458909496610452565b9150506020813d6020116105f2575b816105da6020938361202a565b810103126105ed575187906103f96103ec565b600080fd5b3d91506105cd565b86513d84823e3d90fd5b6106249150823d841161062a575b61061c818361202a565b810190612309565b386103c1565b503d610612565b5060cb54421115610224565b50346101f657806003193601126101f6576020610658612583565b6040519015158152f35b50346101f65760203660031901126101f65761067c611fa2565b6106846127c2565b6001600160a01b0381161561069f5761069c9061281a565b80f35b60405162461bcd60e51b815260206004820152602660248201527f4f776e61626c653a206e6577206f776e657220697320746865207a65726f206160448201526564647265737360d01b6064820152608490fd5b50346101f657806003193601126101f65760c95460405163703bafd560e01b815290602090829060049082906001600160a01b03165afa9081156107ef578291602091600494916107d2575b506040516318160ddd60e01b815293849182906001600160a01b03165afa80156107c5578190610792575b60cd54602093508181111561078b576107839250612425565b604051908152f35b5050610783565b506020823d6020116107bd575b816107ac6020938361202a565b810103126105ed576020915161076a565b3d915061079f565b50604051903d90823e3d90fd5b6107e99150823d841161062a5761061c818361202a565b3861073f565b6040513d84823e3d90fd5b50346101f657806003193601126101f65760206040516127108152f35b50346101f657610826366120af565b61083960ff859493945460081c16612109565b61084660cb54421161220f565b610857610851612583565b15612267565b61085f61270f565b6108676126cb565b6001600160a01b0383169261087d8415156122bd565b8215610b685760c95460405163703bafd560e01b815290602090829060049082906001600160a01b03165afa908115610b40576024916020918891610b4b575b506040516370a0823160e01b815233600482015292839182906001600160a01b03165afa8015610b405784918791610b0b575b5010610ab55733855260d860205261098561034b6103436040882094855495610918876124a6565b90558760405161092781611ff8565b61031160409889519261093a8b8561202a565b600684526572656465656d60d01b60208501528381528b6020820152848b82015281606082015246608082015260a0309101526103038b8b519485936020850197309346938a6124d8565b61098e83612765565b61099784612765565b6109a460d154809261267f565b906127100390612710821161058457906109bd91612692565b916109c88383612576565b60c95490919088906001600160a01b0316803b15610ab1578651633477cc1b60e21b8152336004820152602481018990529082908290604490829084905af18015610aa757610a8a575b505093610a6d610553927fb2baee7ba5c4dca5d2f8b224500d642e3ff29cc77a25038d2ef2beba9a93512a96610a4a8660d654612425565b60d655610a598760d754612425565b60d75560cc546001600160a01b0316612784565b519283923396846040919493926060820195825260208201520152565b81610a979197939761202a565b610aa357938738610a12565b8780fd5b87513d84823e3d90fd5b5080fd5b60405162461bcd60e51b815260206004820152602860248201527f43726f776473616c653a20696e73756666696369656e742073686172657320746044820152676f2072656465656d60c01b6064820152608490fd5b9150506020813d602011610b38575b81610b276020938361202a565b810103126105ed57839051386108f0565b3d9150610b1a565b6040513d88823e3d90fd5b610b629150823d841161062a5761061c818361202a565b386108bd565b60405162461bcd60e51b815260206004820152602860248201527f43726f776473616c653a20616d6f756e74206d75737420626520677265617465604482015267072207468616e20360c41b6064820152608490fd5b50346101f6576020610bcf36611fce565b60405191848301936619195c1bdcda5d60ca1b855260278401526001600160601b03199060601b166047830152605b82015246607b8201523060601b609b820152608f8152610c1f60af8261202a565b519020604051908152f35b50346101f657806003193601126101f657602060cd54604051908152f35b50346101f65760203660031901126101f6576020906040906001600160a01b03610c70611fa2565b16815260d883522054604051908152f35b50346101f65760403660031901126101f657600435610c9e611fb8565b90610caf60ff845460081c16612109565b610cc460018060a01b0360d554163314612169565b60ca5442101580610eb8575b610cd990612328565b610ce4610238612583565b610cec61270f565b610cf46126cb565b60d054610d03818310156123cd565b6001600160a01b038316928490610d1b8515156122bd565b610d2484612863565b60c95460405163703bafd560e01b815291956001600160a01b0390911691602081600481865afa908115610e90576004916020918791610e9b575b506040516318160ddd60e01b815292839182906001600160a01b03165afa908115610e90578591610e58575b50610d989060cd54612425565b9586811115610e4f575050610db8610daf86612765565b94851015612448565b803b1561058057604051630f38ca0d60e31b81526001600160a01b039290921660048301526024820185905282908290604490829084905af180156107ef57610e36575b505060405191825260208201527fcb08c388b544b22822fb047422597a8e196b56d8365ba02efcaa84b41ae9803660403392a36001805580f35b81610e409161202a565b610e4b578338610dfc565b8380fd5b95509350610db8565b9450506020843d602011610e88575b81610e746020938361202a565b810103126105ed57610d9888945190610d8b565b3d9150610e67565b6040513d87823e3d90fd5b610eb29150823d841161062a5761061c818361202a565b38610d5f565b5060cb54421115610cd0565b50346101f657806003193601126101f657602060d454604051908152f35b50346101f657806003193601126101f65760206040516305f5e1008152f35b50346101f657806003193601126101f65760d3546040516001600160a01b039091168152602090f35b50346101f657806003193601126101f657602060d654604051908152f35b50346101f657806003193601126101f657602060ce54604051908152f35b50346101f657806003193601126101f6576065546040516001600160a01b039091168152602090f35b50346101f657806003193601126101f657602060cf54604051908152f35b50346101f657806003193601126101f657610fce60ff825460081c16612109565b610fe360018060a01b0360d554163314612169565b610feb6126cb565b600160ff1960975416176097557f62e78cea01bee320cd4e420270b5ea74000d11b0c9f74754ebdbfc544b05a2586020604051338152a180f35b50346101f657806003193601126101f65760d2546040516001600160a01b039091168152602090f35b50346101f657806003193601126101f657602060ca54604051908152f35b50346101f657806003193601126101f6576110856127c2565b606580546001600160a01b0319811690915581906001600160a01b03167f8be0079c531659141344cd1fd0a4f28419497f9722a3daafe3b4186f6b6457e08280a380f35b50346101f657806003193601126101f657602060d054604051908152f35b50346101f657806003193601126101f657602060ff609754166040519015158152f35b50346101f657806003193601126101f65761112b60ff825460081c16612109565b61113b611136612583565b6121b5565b61114361270f565b61114b6126cb565b60d2546001600160a01b03163381900361120c5760d6549081156111c75760d683905560cc546111859183916001600160a01b0316612784565b60d2546040519182526001600160a01b03169033907f4fea16621a5e74d906d980762a4481b57f98e1035eddf0313075e6942a4976b090602090a36001805580f35b60405162461bcd60e51b815260206004820152601c60248201527f43726f776473616c653a206e6f2066756e64696e6720617373657473000000006044820152606490fd5b606460405162461bcd60e51b815260206004820152602060248201527f43726f776473616c653a206f6e6c792066756e64696e672072656365697665726044820152fd5b50346101f657806003193601126101f65761127160ff825460081c16612109565b61127c611136612583565b61128461270f565b61128c6126cb565b60d3546001600160a01b03163381900361134d5760d7549081156113085760d783905560cc546112c69183916001600160a01b0316612784565b60d3546040519182526001600160a01b03169033907f57e7440b88a00f81b2505eff9d5a54fc7d208e84016a9ab7e2e30821003e50c690602090a36001805580f35b60405162461bcd60e51b815260206004820152601860248201527f43726f776473616c653a206e6f206d616e6167652066656500000000000000006044820152606490fd5b60405162461bcd60e51b815260206004820152602360248201527f43726f776473616c653a206f6e6c79206d616e616765206665652072656365696044820152623b32b960e91b6064820152608490fd5b50346101f657806003193601126101f657602060d754604051908152f35b50346101f657806003193601126101f65760d5546040516001600160a01b039091168152602090f35b50346101f65760203660031901126101f6576113ff611fa2565b61140f60ff835460081c16612109565b61142460018060a01b0360d554163314612169565b61143160cb54421161220f565b61143c610851612583565b61144461270f565b61144c6126cb565b6001600160a01b038116906114628215156122bd565b60c95460405163703bafd560e01b8152916001600160a01b0390911690602083600481855afa928315610e905760249360209187916115ee575b506040516370a0823160e01b81526004810187905294859182906001600160a01b03165afa928315610e905785936115ba575b5082156115755784906114e184612765565b92803b1561058057604051633477cc1b60e21b81526001600160a01b039290921660048301526024820185905282908290604490829084905af180156107ef57611560575b505060405191825260208201527fba0ea16a6a60555dafc6b515242f3fcd28f079d3b5d596e19f71e583006fd9eb60403392a36001805580f35b8161156a9161202a565b610e4b578338611526565b60405162461bcd60e51b815260206004820152601e60248201527f43726f776473616c653a206e6f2073686172657320746f2072656465656d00006044820152606490fd5b9092506020813d6020116115e6575b816115d66020938361202a565b810103126105ed575191386114cf565b3d91506115c9565b6116059150823d841161062a5761061c818361202a565b3861149c565b50346101f657806003193601126101f65761162c60ff825460081c16612109565b61164160018060a01b0360d554163314612169565b60975460ff8116156116815760ff19166097557f5db9ee0a495bf2e6ff9c91a7834c1ba4fdd244a5e8aa4e537bd38aeae4b073aa6020604051338152a180f35b60405162461bcd60e51b815260206004820152601460248201527314185d5cd8589b194e881b9bdd081c185d5cd95960621b6044820152606490fd5b50346101f657806003193601126101f6576116de60ff825460081c16612109565b6116f360018060a01b0360d554163314612169565b6116fe611136612583565b6117066126cb565b60c95481906001600160a01b0316803b15611775578180916004604051809581936350669a0360e01b83525af180156107c557611765575b7fba9a1b2ede938b9820087753e1645dd4b6542ac61fa6b06a3df09cd9dee694548180a180f35b61176e9161202a565b388161173e565b50fd5b50346101f657806003193601126101f657602060cb54604051908152f35b50346101f657806003193601126101f657602060d154604051908152f35b50346101f65760603660031901126101f6576117ce611fa2565b6117d6611fb8565b9060443567ffffffffffffffff8111610e4b576117f7903690600401612068565b9183549260ff8460081c161593848095611ec1575b8015611eaa575b15611e4e5760ff198116600117865584611e3d575b5061016081805181010312611e395760208101519160408201519061184f606084016120f5565b60808401519360a081015160c082015160e0830151906101008401519261187961012086016120f5565b9861189461016061188d61014089016120f5565b97016120f5565b6001600160a01b039081169c9781169a978116999681169716958915611df457808c1015611daf5742811115611d6a578a15611d25578115611ce057818311611c9b578315611c56578415611c11576127108611611bcc578615611b7b578715611b36578c15611af15760049b8f9a61195160ff8d61192460209f83905460081c1661191f81612109565b612109565b61192d3361281a565b5460081c1661193b81612109565b61194481612109565b6001805561191f81612109565b60ff19609754166097556001600160601b0360a01b60c954161760c95560ca5560cb55896001600160601b0360a01b60cc54161760cc5560cd5560ce5560cf5560d05560d1556001600160601b0360a01b60d254161760d2556001600160601b0360a01b60d354161760d3556040519384809263313ce56760e01b825260018060a01b03165afa918215610e90578592611acc575b5060206004916040519283809263313ce56760e01b82525afa908115610e905760ff9182918791611a9d575b501691160360ff8111611a895760ff16604d8111611a8957600a0a60d45560d580546001600160a01b03191682179055611a4b9061281a565b611a525780f35b61ff001981541681557f7f26b83ff96e1f2b6a682f133852f6798a09c465da95921460cefb3847402498602060405160018152a180f35b634e487b7160e01b84526011600452602484fd5b611abf915060203d602011611ac5575b611ab7818361202a565b8101906126b2565b38611a12565b503d611aad565b6004919250611ae9602091823d8411611ac557611ab7818361202a565b9291506119e6565b60405162461bcd60e51b815260206004820152601a60248201527f43726f776473616c653a20696e76616c6964206d616e616765720000000000006044820152606490fd5b60405162461bcd60e51b815260206004820152601f60248201527f43726f776473616c653a20696e76616c696420666565207265636569766572006044820152606490fd5b60405162461bcd60e51b815260206004820152602360248201527f43726f776473616c653a20696e76616c69642066756e64696e672072656365696044820152623b32b960e91b6064820152608490fd5b60405162461bcd60e51b815260206004820152601d60248201527f43726f776473616c653a20696e76616c6964206d616e616765206665650000006044820152606490fd5b60405162461bcd60e51b815260206004820152601e60248201527f43726f776473616c653a20696e76616c6964206d696e206465706f73697400006044820152606490fd5b60405162461bcd60e51b815260206004820152601e60248201527f43726f776473616c653a20696e76616c696420736861726520707269636500006044820152606490fd5b60405162461bcd60e51b815260206004820152601b60248201527f43726f776473616c653a20696e76616c696420736f66742063617000000000006044820152606490fd5b60405162461bcd60e51b815260206004820152601d60248201527f43726f776473616c653a20696e76616c6964206d617820737570706c790000006044820152606490fd5b60405162461bcd60e51b815260206004820152601e60248201527f43726f776473616c653a20696e76616c696420617373657420746f6b656e00006044820152606490fd5b60405162461bcd60e51b815260206004820152601b60248201527f43726f776473616c653a20656e642074696d6520696e207061737400000000006044820152606490fd5b60405162461bcd60e51b815260206004820152601d60248201527f43726f776473616c653a20696e76616c69642074696d652072616e67650000006044820152606490fd5b60405162461bcd60e51b815260206004820152601860248201527f43726f776473616c653a20696e76616c6964207661756c7400000000000000006044820152606490fd5b8480fd5b61ffff191661010117855538611828565b60405162461bcd60e51b815260206004820152602e60248201527f496e697469616c697a61626c653a20636f6e747261637420697320616c72656160448201526d191e481a5b9a5d1a585b1a5e995960921b6064820152608490fd5b50303b1580156118135750600160ff821614611813565b50600160ff82161061180c565b50346101f657806003193601126101f65760ca5442101580611f11575b80611efe575b6020906040519015158152f35b506020611f09612583565b159050611ef1565b5060cb54421115611eeb565b50346101f6576020611f2e36611fce565b60405191848301936572656465656d60d01b855260268401526001600160601b03199060601b166046830152605a82015246607a8201523060601b609a820152608e8152610c1f60ae8261202a565b905034610ab15781600319360112610ab15760cc546001600160a01b03168152602090f35b600435906001600160a01b03821682036105ed57565b602435906001600160a01b03821682036105ed57565b60609060031901126105ed57600435906024356001600160a01b03811681036105ed579060443590565b60c0810190811067ffffffffffffffff82111761201457604052565b634e487b7160e01b600052604160045260246000fd5b90601f8019910116810190811067ffffffffffffffff82111761201457604052565b67ffffffffffffffff811161201457601f01601f191660200190565b81601f820112156105ed5780359061207f8261204c565b9261208d604051948561202a565b828452602083830101116105ed57816000926020809301838601378301015290565b60606003198201126105ed57600435916024356001600160a01b03811681036105ed57916044359067ffffffffffffffff82116105ed576120f291600401612068565b90565b51906001600160a01b03821682036105ed57565b1561211057565b60405162461bcd60e51b815260206004820152602b60248201527f496e697469616c697a61626c653a20636f6e7472616374206973206e6f74206960448201526a6e697469616c697a696e6760a81b6064820152608490fd5b1561217057565b60405162461bcd60e51b815260206004820152601760248201527f43726f776473616c653a206f6e6c79206d616e616765720000000000000000006044820152606490fd5b156121bc57565b60405162461bcd60e51b815260206004820152602560248201527f43726f776473616c653a2066756e64696e6720776173206e6f742073756363656044820152641cdcd99d5b60da1b6064820152608490fd5b1561221657565b60405162461bcd60e51b815260206004820152602360248201527f43726f776473616c653a2066756e64696e6720706572696f64206e6f7420656e60448201526219195960ea1b6064820152608490fd5b1561226e57565b60405162461bcd60e51b815260206004820152602160248201527f43726f776473616c653a2066756e64696e6720776173207375636365737366756044820152601b60fa1b6064820152608490fd5b156122c457565b60405162461bcd60e51b815260206004820152601b60248201527f43726f776473616c653a20696e76616c696420726563656976657200000000006044820152606490fd5b908160209103126105ed57516001600160a01b03811681036105ed5790565b1561232f57565b606460405162461bcd60e51b815260206004820152602060248201527f43726f776473616c653a206e6f7420696e2066756e64696e6720706572696f646044820152fd5b1561237a57565b60405162461bcd60e51b815260206004820152602560248201527f43726f776473616c653a2066756e64696e6720616c72656164792073756363656044820152641cdcd99d5b60da1b6064820152608490fd5b156123d457565b60405162461bcd60e51b815260206004820152602360248201527f43726f776473616c653a20616d6f756e74206c657373207468616e206d696e696044820152626d756d60e81b6064820152608490fd5b9190820391821161243257565b634e487b7160e01b600052601160045260246000fd5b1561244f57565b60405162461bcd60e51b815260206004820152602960248201527f43726f776473616c653a2072656d61696e696e6720616d6f756e742062656c6f60448201526877206d696e696d756d60b81b6064820152608490fd5b60001981146124325760010190565b60005b8381106124c85750506000910152565b81810151838201526020016124b8565b6020906124f26088989694979593828151948592016124b5565b019485526001600160601b03199060601b166020850152603484015260548301526001600160601b03199060601b1660748201520190565b1561253157565b60405162461bcd60e51b815260206004820152601c60248201527f43726f776473616c653a20696e76616c6964207369676e6174757265000000006044820152606490fd5b9190820180921161243257565b60c95460405163703bafd560e01b815290602090829060049082906001600160a01b03165afa90811561265657600491602091600091612662575b506040516318160ddd60e01b815292839182906001600160a01b03165afa90811561265657600091612624575b5060cd5481101561261e5760cb5442119081612611575b5061260c57600090565b600190565b905060ce54111538612602565b50600190565b906020823d60201161264e575b8161263e6020938361202a565b810103126101f6575051386125eb565b3d9150612631565b6040513d6000823e3d90fd5b6126799150823d841161062a5761061c818361202a565b386125be565b8181029291811591840414171561243257565b811561269c570490565b634e487b7160e01b600052601260045260246000fd5b908160209103126105ed575160ff811681036105ed5790565b60ff609754166126d757565b60405162461bcd60e51b815260206004820152601060248201526f14185d5cd8589b194e881c185d5cd95960821b6044820152606490fd5b600260015414612720576002600155565b60405162461bcd60e51b815260206004820152601f60248201527f5265656e7472616e637947756172643a207265656e7472616e742063616c6c006044820152606490fd5b6305f5e10061277a6120f29260cf549061267f565b0460d45490612692565b60405163a9059cbb60e01b60208201526001600160a01b039290921660248301526044808301939093529181526127c0916104c160648361202a565b565b6065546001600160a01b031633036127d657565b606460405162461bcd60e51b815260206004820152602060248201527f4f776e61626c653a2063616c6c6572206973206e6f7420746865206f776e65726044820152fd5b606580546001600160a01b039283166001600160a01b0319821681179092559091167f8be0079c531659141344cd1fd0a4f28419497f9722a3daafe3b4186f6b6457e0600080a3565b60d45461286f9161267f565b6305f5e1008102908082046305f5e10014901517156124325760cf546120f291612692565b604080519092612918926001600160a01b03169060009081906128b7878661202a565b602085527f5361666545524332303a206c6f772d6c6576656c2063616c6c206661696c6564602086015260208151910182855af13d156129a8573d916128fc8361204c565b926129098751948561202a565b83523d6000602085013e612b82565b8051908115918215612985575b50501561292f5750565b5162461bcd60e51b815260206004820152602a60248201527f5361666545524332303a204552433230206f7065726174696f6e20646964206e6044820152691bdd081cdd58d8d9595960b21b6064820152608490fd5b81925090602091810103126105ed576020015180151581036105ed573880612925565b606091612b82565b9060418151146000146129de576129da916020820151906060604084015193015160001a90612b02565b9091565b5050600090600290565b6005811015612aec57806129f95750565b60018103612a465760405162461bcd60e51b815260206004820152601860248201527f45434453413a20696e76616c6964207369676e617475726500000000000000006044820152606490fd5b60028103612a935760405162461bcd60e51b815260206004820152601f60248201527f45434453413a20696e76616c6964207369676e6174757265206c656e677468006044820152606490fd5b600314612a9c57565b60405162461bcd60e51b815260206004820152602260248201527f45434453413a20696e76616c6964207369676e6174757265202773272076616c604482015261756560f01b6064820152608490fd5b634e487b7160e01b600052602160045260246000fd5b7f7fffffffffffffffffffffffffffffff5d576e7357a4501ddfe92f46681b20a08411612b765760209360009360ff60809460405194855216868401526040830152606082015282805260015afa15612656576000516001600160a01b03811615612b6d5790600090565b50600090600190565b50505050600090600390565b91929015612be45750815115612b96575090565b3b15612b9f5790565b60405162461bcd60e51b815260206004820152601d60248201527f416464726573733a2063616c6c20746f206e6f6e2d636f6e74726163740000006044820152606490fd5b825190915015612bf75750805190602001fd5b6044604051809262461bcd60e51b825260206004830152612c2781518092816024860152602086860191016124b5565b601f01601f19168101030190fdfea2646970667358221220a2bf8a3e02de660515e1349d545ff6036dded46bf1bce7cbd791c4406ff5a1ef64736f6c634300081a0033a26469706673582212202795519ee9d01073d8b3769c8ab7192bdd0033ccaf76dec0b1c08d3c3b9e0e7664736f6c634300081a0033",
  "devdoc": {
    "kind": "dev",
    "methods": {},
    "version": 1
  },
  "userdoc": {
    "kind": "user",
    "methods": {},
    "version": 1
  },
  "storageLayout": {
    "storage": [],
    "types": null
  }
}