{
  "address": "0x9fE46736679d2D9a65F0992F2272dE9f3c7fa6e0",
  "abi": [
    {
      "inputs": [],
      "stateMutability": "nonpayable",
      "type": "constructor"
    },
    {
      "anonymous": false,
      "inputs": [
        {
          "indexed": true,
          "internalType": "address",
          "name": "receiver",
          "type": "address"
        },
        {
          "indexed": false,
          "internalType": "uint256",
          "name": "assertAmount",
          "type": "uint256"
        },
        {
          "indexed": false,
          "internalType": "uint256",
          "name": "manageFee",
          "type": "uint256"
        },
        {
          "indexed": false,
          "internalType": "uint256",
          "name": "shares",
          "type": "uint256"
        }
      ],
      "name": "Deposit",
      "type": "event"
    },
    {
      "anonymous": false,
      "inputs": [
        {
          "indexed": false,
          "internalType": "address",
          "name": "redeemer",
          "type": "address"
        },
        {
          "indexed": false,
          "internalType": "uint256",
          "name": "shares",
          "type": "uint256"
        },
        {
          "indexed": false,
          "internalType": "uint256",
          "name": "assetAmount",
          "type": "uint256"
        },
        {
          "indexed": false,
          "internalType": "uint256",
          "name": "feeAmount",
          "type": "uint256"
        }
      ],
      "name": "FundFailRedeem",
      "type": "event"
    },
    {
      "anonymous": false,
      "inputs": [
        {
          "indexed": true,
          "internalType": "address",
          "name": "receiver",
          "type": "address"
        },
        {
          "indexed": false,
          "internalType": "uint256",
          "name": "amount",
          "type": "uint256"
        }
      ],
      "name": "FundingAssetsWithdrawn",
      "type": "event"
    },
    {
      "anonymous": false,
      "inputs": [
        {
          "indexed": true,
          "internalType": "address",
          "name": "receiver",
          "type": "address"
        },
        {
          "indexed": false,
          "internalType": "uint256",
          "name": "amount",
          "type": "uint256"
        }
      ],
      "name": "ManageFeeWithdrawn",
      "type": "event"
    },
    {
      "anonymous": false,
      "inputs": [
        {
          "indexed": true,
          "internalType": "address",
          "name": "receiver",
          "type": "address"
        },
        {
          "indexed": false,
          "internalType": "uint256",
          "name": "assertAmount",
          "type": "uint256"
        },
        {
          "indexed": false,
          "internalType": "uint256",
          "name": "shares",
          "type": "uint256"
        },
        {
          "indexed": false,
          "internalType": "bytes",
          "name": "signature",
          "type": "bytes"
        }
      ],
      "name": "OffChainDeposit",
      "type": "event"
    },
    {
      "anonymous": false,
      "inputs": [
        {
          "indexed": true,
          "internalType": "address",
          "name": "receiver",
          "type": "address"
        },
        {
          "indexed": false,
          "internalType": "uint256",
          "name": "assertAmount",
          "type": "uint256"
        }
      ],
      "name": "OffChainRedeem",
      "type": "event"
    },
    {
      "anonymous": false,
      "inputs": [
        {
          "indexed": true,
          "internalType": "address",
          "name": "previousOwner",
          "type": "address"
        },
        {
          "indexed": true,
          "internalType": "address",
          "name": "newOwner",
          "type": "address"
        }
      ],
      "name": "OwnershipTransferred",
      "type": "event"
    },
    {
      "anonymous": false,
      "inputs": [],
      "name": "TokenUnpausedOnFundingSuccess",
      "type": "event"
    },
    {
      "inputs": [],
      "name": "BPS_DENOMINATOR",
      "outputs": [
        {
          "internalType": "uint256",
          "name": "",
          "type": "uint256"
        }
      ],
      "stateMutability": "view",
      "type": "function"
    },
    {
      "inputs": [],
      "name": "SHARE_PRICE_DENOMINATOR",
      "outputs": [
        {
          "internalType": "uint256",
          "name": "",
          "type": "uint256"
        }
      ],
      "stateMutability": "view",
      "type": "function"
    },
    {
      "inputs": [],
      "name": "assetToken",
      "outputs": [
        {
          "internalType": "address",
          "name": "",
          "type": "address"
        }
      ],
      "stateMutability": "view",
      "type": "function"
    },
    {
      "inputs": [],
      "name": "decimalsMultiplier",
      "outputs": [
        {
          "internalType": "uint256",
          "name": "",
          "type": "uint256"
        }
      ],
      "stateMutability": "view",
      "type": "function"
    },
    {
      "inputs": [
        {
          "internalType": "uint256",
          "name": "amount",
          "type": "uint256"
        },
        {
          "internalType": "address",
          "name": "receiver",
          "type": "address"
        },
        {
          "internalType": "bytes",
          "name": "signature",
          "type": "bytes"
        }
      ],
      "name": "deposit",
      "outputs": [],
      "stateMutability": "nonpayable",
      "type": "function"
    },
    {
      "inputs": [],
      "name": "endTime",
      "outputs": [
        {
          "internalType": "uint256",
          "name": "",
          "type": "uint256"
        }
      ],
      "stateMutability": "view",
      "type": "function"
    },
    {
      "inputs": [],
      "name": "fundingAssets",
      "outputs": [
        {
          "internalType": "uint256",
          "name": "",
          "type": "uint256"
        }
      ],
      "stateMutability": "view",
      "type": "function"
    },
    {
      "inputs": [],
      "name": "fundingReceiver",
      "outputs": [
        {
          "internalType": "address",
          "name": "",
          "type": "address"
        }
      ],
      "stateMutability": "view",
      "type": "function"
    },
    {
      "inputs": [
        {
          "internalType": "uint256",
          "name": "amount",
          "type": "uint256"
        },
        {
          "internalType": "address",
          "name": "receiver",
          "type": "address"
        },
        {
          "internalType": "uint256",
          "name": "nonce",
          "type": "uint256"
        }
      ],
      "name": "getDepositSignatureMessage",
      "outputs": [
        {
          "internalType": "bytes32",
          "name": "",
          "type": "bytes32"
        }
      ],
      "stateMutability": "view",
      "type": "function"
    },
    {
      "inputs": [],
      "name": "getManagerNonce",
      "outputs": [
        {
          "internalType": "uint256",
          "name": "",
          "type": "uint256"
        }
      ],
      "stateMutability": "view",
      "type": "function"
    },
    {
      "inputs": [
        {
          "internalType": "uint256",
          "name": "amount",
          "type": "uint256"
        },
        {
          "internalType": "address",
          "name": "receiver",
          "type": "address"
        },
        {
          "internalType": "uint256",
          "name": "nonce",
          "type": "uint256"
        }
      ],
      "name": "getRedeemSignatureMessage",
      "outputs": [
        {
          "internalType": "bytes32",
          "name": "",
          "type": "bytes32"
        }
      ],
      "stateMutability": "view",
      "type": "function"
    },
    {
      "inputs": [],
      "name": "getRemainingSupply",
      "outputs": [
        {
          "internalType": "uint256",
          "name": "",
          "type": "uint256"
        }
      ],
      "stateMutability": "view",
      "type": "function"
    },
    {
      "inputs": [],
      "name": "getTotalRaised",
      "outputs": [
        {
          "internalType": "uint256",
          "name": "",
          "type": "uint256"
        }
      ],
      "stateMutability": "view",
      "type": "function"
    },
    {
      "inputs": [
        {
          "internalType": "address",
          "name": "_vault",
          "type": "address"
        },
        {
          "internalType": "bytes",
          "name": "_initData",
          "type": "bytes"
        }
      ],
      "name": "initiate",
      "outputs": [],
      "stateMutability": "nonpayable",
      "type": "function"
    },
    {
      "inputs": [],
      "name": "isFundingPeriodActive",
      "outputs": [
        {
          "internalType": "bool",
          "name": "",
          "type": "bool"
        }
      ],
      "stateMutability": "view",
      "type": "function"
    },
    {
      "inputs": [],
      "name": "isFundingSuccessful",
      "outputs": [
        {
          "internalType": "bool",
          "name": "",
          "type": "bool"
        }
      ],
      "stateMutability": "view",
      "type": "function"
    },
    {
      "inputs": [],
      "name": "isInitialized",
      "outputs": [
        {
          "internalType": "bool",
          "name": "",
          "type": "bool"
        }
      ],
      "stateMutability": "view",
      "type": "function"
    },
    {
      "inputs": [],
      "name": "manageFee",
      "outputs": [
        {
          "internalType": "uint256",
          "name": "",
          "type": "uint256"
        }
      ],
      "stateMutability": "view",
      "type": "function"
    },
    {
      "inputs": [],
      "name": "manageFeeBps",
      "outputs": [
        {
          "internalType": "uint256",
          "name": "",
          "type": "uint256"
        }
      ],
      "stateMutability": "view",
      "type": "function"
    },
    {
      "inputs": [],
      "name": "manageFeeReceiver",
      "outputs": [
        {
          "internalType": "address",
          "name": "",
          "type": "address"
        }
      ],
      "stateMutability": "view",
      "type": "function"
    },
    {
      "inputs": [],
      "name": "manager",
      "outputs": [
        {
          "internalType": "address",
          "name": "",
          "type": "address"
        }
      ],
      "stateMutability": "view",
      "type": "function"
    },
    {
      "inputs": [],
      "name": "managerNonce",
      "outputs": [
        {
          "internalType": "uint256",
          "name": "",
          "type": "uint256"
        }
      ],
      "stateMutability": "view",
      "type": "function"
    },
    {
      "inputs": [],
      "name": "maxSupply",
      "outputs": [
        {
          "internalType": "uint256",
          "name": "",
          "type": "uint256"
        }
      ],
      "stateMutability": "view",
      "type": "function"
    },
    {
      "inputs": [],
      "name": "minDepositAmount",
      "outputs": [
        {
          "internalType": "uint256",
          "name": "",
          "type": "uint256"
        }
      ],
      "stateMutability": "view",
      "type": "function"
    },
    {
      "inputs": [
        {
          "internalType": "uint256",
          "name": "amount",
          "type": "uint256"
        },
        {
          "internalType": "address",
          "name": "receiver",
          "type": "address"
        },
        {
          "internalType": "bytes",
          "name": "drdsSignature",
          "type": "bytes"
        }
      ],
      "name": "offChainDeposit",
      "outputs": [],
      "stateMutability": "nonpayable",
      "type": "function"
    },
    {
      "inputs": [
        {
          "internalType": "address",
          "name": "receiver",
          "type": "address"
        }
      ],
      "name": "offChainRedeem",
      "outputs": [],
      "stateMutability": "nonpayable",
      "type": "function"
    },
    {
      "inputs": [],
      "name": "owner",
      "outputs": [
        {
          "internalType": "address",
          "name": "",
          "type": "address"
        }
      ],
      "stateMutability": "view",
      "type": "function"
    },
    {
      "inputs": [
        {
          "internalType": "address",
          "name": "receiver",
          "type": "address"
        },
        {
          "internalType": "bytes",
          "name": "signature",
          "type": "bytes"
        }
      ],
      "name": "redeem",
      "outputs": [],
      "stateMutability": "nonpayable",
      "type": "function"
    },
    {
      "inputs": [],
      "name": "renounceOwnership",
      "outputs": [],
      "stateMutability": "nonpayable",
      "type": "function"
    },
    {
      "inputs": [],
      "name": "sharePrice",
      "outputs": [
        {
          "internalType": "uint256",
          "name": "",
          "type": "uint256"
        }
      ],
      "stateMutability": "view",
      "type": "function"
    },
    {
      "inputs": [],
      "name": "softCap",
      "outputs": [
        {
          "internalType": "uint256",
          "name": "",
          "type": "uint256"
        }
      ],
      "stateMutability": "view",
      "type": "function"
    },
    {
      "inputs": [],
      "name": "startTime",
      "outputs": [
        {
          "internalType": "uint256",
          "name": "",
          "type": "uint256"
        }
      ],
      "stateMutability": "view",
      "type": "function"
    },
    {
      "inputs": [
        {
          "internalType": "address",
          "name": "newOwner",
          "type": "address"
        }
      ],
      "name": "transferOwnership",
      "outputs": [],
      "stateMutability": "nonpayable",
      "type": "function"
    },
    {
      "inputs": [],
      "name": "unpauseTokenOnFundingSuccess",
      "outputs": [],
      "stateMutability": "nonpayable",
      "type": "function"
    },
    {
      "inputs": [],
      "name": "vault",
      "outputs": [
        {
          "internalType": "address",
          "name": "",
          "type": "address"
        }
      ],
      "stateMutability": "view",
      "type": "function"
    },
    {
      "inputs": [],
      "name": "withdrawFundingAssets",
      "outputs": [],
      "stateMutability": "nonpayable",
      "type": "function"
    },
    {
      "inputs": [],
      "name": "withdrawManageFee",
      "outputs": [],
      "stateMutability": "nonpayable",
      "type": "function"
    }
  ],
  "transactionHash": "0xd81ef632a3b2d65492b27cffcccfd16506ef16964b8dcb5d525ebfdbebca9fef",
  "args": [],
  "numDeployments": 1,
  "solcInputHash": "69382e7fed480203e684e46f99a1d48f",
  "bytecode": "0x60808060405234605d57600160008181558154336001600160a01b0319821681179093556001600160a01b0316907f8be0079c531659141344cd1fd0a4f28419497f9722a3daafe3b4186f6b6457e09080a36128f090816100638239f35b600080fdfe608080604052600436101561001357600080fd5b600090813560e01c9081631083f76114611c605750806321bb725a14611c00578063244e126c14611be5578063285f1b76146117d35780632c365cda146117b55780633197cbb61461179757806337b5213f146116e05780633841185e14611420578063392e53cd146113fd57806344f4512714611219578063481c6a75146111f05780634bbdf4da146111d2578063579e2b62146108e75780635a05ddb5146110905780635a3cb0f614610f56578063645006ca14610f38578063715018a614610edb57806374f72e7f146108c957806378e9792514610ebd5780637cc8a75314610e945780638726972914610e76578063888e44861461094c5780638da5cb5b14610923578063906a26e0146109055780639f550293146108e7578063a0c81fc8146108c9578063aac6be79146108a0578063b4b5020714610881578063bb13245f14610863578063d5abeb0114610845578063d827a541146107d9578063e1a45218146107bc578063e4b7fb73146106b5578063f2fde38b14610624578063f8a3c8f2146105ff578063faa9bce9146101e35763fbfa77cf146101b857600080fd5b346101e057806003193601126101e0576002546040516001600160a01b039091168152602090f35b80fd5b50346101e0576101f236611d7c565b90916102056101ff6122de565b15611e66565b610215610210611e02565b611ebc565b61022360ff60125416611f07565b61022b6123fa565b6009549061023b82821015611f53565b6001600160a01b03841693610251851515611fab565b61033461031e61031660115496610267886121dd565b6011558860405161027781611cc5565b6102e460409a8b519261028a8d85611cf7565b600784526619195c1bdcda5d60ca1b60208501528381528a6020820152848d82015281606082015246608082015260a0309101526102d68a8d519485936020850197309346938a6121ec565b03601f198101835282611cf7565b5190207f19457468657265756d205369676e6564204d6573736167653a0a3332000000008b52601c52603c8a2061252f565b919091612567565b600e546001600160a01b0391821691161461223e565b600a5461035661035161271061034a848761228a565b0485612016565b6123aa565b600254865163703bafd560e01b81529194918991602090829060049082906001600160a01b03165afa9081156105c85760049160209184916105d2575b5089516318160ddd60e01b815292839182906001600160a01b03165afa9081156105c857829161058c575b506103cb90600654612016565b9485811115610578575050506103e0836123db565b6127108102908082046127101490151715610564578161271003906127108211610550578892610422610419612710946104289461229d565b97881015612039565b8661228a565b0491610436836010546122bd565b60105561044e6104468487612016565b600f546122bd565b600f5560055486516323b872dd60e01b602082015233602482015230604482015260648082018890528152610496916001600160a01b0316610491608483611cf7565b612681565b6002546001600160a01b0316803b1561054c578651630f38ca0d60e31b81526001600160a01b039290921660048301526024820185905282908290604490829084905af1801561054257610523575b50509083606093927f36af321ec8d3c75236829c5317affd40ddb308863a1236d2d277a4025cccee1e95519384526020840152820152a26001815580f35b816105319195949395611cf7565b61053e57909185386104e5565b8580fd5b86513d84823e3d90fd5b8280fd5b634e487b7160e01b89526011600452602489fd5b634e487b7160e01b88526011600452602488fd5b610428919396506127109295509495610422565b9150506020813d6020116105c0575b816105a860209383611cf7565b810103126105bb575188906103cb6103be565b600080fd5b3d915061059b565b88513d84823e3d90fd5b6105f29150823d84116105f8575b6105ea8183611cf7565b810190611ff7565b38610393565b503d6105e0565b50346101e057806003193601126101e057602061061a6122de565b6040519015158152f35b50346101e05760203660031901126101e05761063e611c85565b61064661248e565b6001600160a01b038116156106615761065e906124e6565b80f35b60405162461bcd60e51b815260206004820152602660248201527f4f776e61626c653a206e6577206f776e657220697320746865207a65726f206160448201526564647265737360d01b6064820152608490fd5b50346101e057806003193601126101e05760025460405163703bafd560e01b815290602090829060049082906001600160a01b03165afa9081156107b157829160209160049491610794575b506040516318160ddd60e01b815293849182906001600160a01b03165afa8015610787578190610754575b600654602093508181111561074d576107459250612016565b604051908152f35b5050610745565b506020823d60201161077f575b8161076e60209383611cf7565b810103126105bb576020915161072c565b3d9150610761565b50604051903d90823e3d90fd5b6107ab9150823d84116105f8576105ea8183611cf7565b38610701565b6040513d84823e3d90fd5b50346101e057806003193601126101e05760206040516127108152f35b50346101e05760206107ea36611c9b565b60405191848301936619195c1bdcda5d60ca1b855260278401526001600160601b03199060601b166047830152605b82015246607b8201523060601b609b820152608f815261083a60af82611cf7565b519020604051908152f35b50346101e057806003193601126101e0576020600654604051908152f35b50346101e057806003193601126101e0576020600d54604051908152f35b50346101e057806003193601126101e05760206040516305f5e1008152f35b50346101e057806003193601126101e057600c546040516001600160a01b039091168152602090f35b50346101e057806003193601126101e0576020601154604051908152f35b50346101e057806003193601126101e0576020600f54604051908152f35b50346101e057806003193601126101e0576020600754604051908152f35b50346101e057806003193601126101e0576001546040516001600160a01b039091168152602090f35b50346101e05761095b36611dc2565b6101808180518101031261054c57602081015191604082015190610981606084016122ca565b9260808101519360a08201519460c083015160e0840151610100850151916109ac61012087016122ca565b986109ba61014088016122ca565b946109ce6101806101608a015199016122ca565b6012546001600160a01b039182169c909a978216989082169791169060ff8b16610e31576001600160a01b03169a8b15610dec57808e1015610da75742811115610d62578115610d1d578215610cd85783151580610cce575b15610c89578415610c44578515610bff576127108711610bba578715610b69578815610b24578c15610adf5761065e9d60019c6001600160601b0360a01b60025416176002556003556004556001600160601b0360a01b6005541617600555600655600755600855600955600a556001600160601b0360a01b600b541617600b556001600160601b0360a01b600c541617600c55600d55826001600160601b0360a01b600e541617600e5560ff1916176012556124e6565b60405162461bcd60e51b815260206004820152601a60248201527f43726f776473616c653a20696e76616c6964206d616e616765720000000000006044820152606490fd5b60405162461bcd60e51b815260206004820152601f60248201527f43726f776473616c653a20696e76616c696420666565207265636569766572006044820152606490fd5b60405162461bcd60e51b815260206004820152602360248201527f43726f776473616c653a20696e76616c69642066756e64696e672072656365696044820152623b32b960e91b6064820152608490fd5b60405162461bcd60e51b815260206004820152601d60248201527f43726f776473616c653a20696e76616c6964206d616e616765206665650000006044820152606490fd5b60405162461bcd60e51b815260206004820152601e60248201527f43726f776473616c653a20696e76616c6964206d696e206465706f73697400006044820152606490fd5b60405162461bcd60e51b815260206004820152601e60248201527f43726f776473616c653a20696e76616c696420736861726520707269636500006044820152606490fd5b60405162461bcd60e51b815260206004820152601b60248201527f43726f776473616c653a20696e76616c696420736f66742063617000000000006044820152606490fd5b5082841115610a27565b60405162461bcd60e51b815260206004820152601d60248201527f43726f776473616c653a20696e76616c6964206d617820737570706c790000006044820152606490fd5b60405162461bcd60e51b815260206004820152601e60248201527f43726f776473616c653a20696e76616c696420617373657420746f6b656e00006044820152606490fd5b60405162461bcd60e51b815260206004820152601b60248201527f43726f776473616c653a20656e642074696d6520696e207061737400000000006044820152606490fd5b60405162461bcd60e51b815260206004820152601d60248201527f43726f776473616c653a20696e76616c69642074696d652072616e67650000006044820152606490fd5b60405162461bcd60e51b815260206004820152601860248201527f43726f776473616c653a20696e76616c6964207661756c7400000000000000006044820152606490fd5b60405162461bcd60e51b815260206004820152601e60248201527f43726f776473616c653a20616c726561647920696e697469616c697a656400006044820152606490fd5b50346101e057806003193601126101e0576020600854604051908152f35b50346101e057806003193601126101e057600b546040516001600160a01b039091168152602090f35b50346101e057806003193601126101e0576020600354604051908152f35b50346101e057806003193601126101e057610ef461248e565b600180546001600160a01b0319811690915581906001600160a01b03167f8be0079c531659141344cd1fd0a4f28419497f9722a3daafe3b4186f6b6457e08280a380f35b50346101e057806003193601126101e0576020600954604051908152f35b50346101e057806003193601126101e057610f77610f726122de565b6120df565b610f8560ff60125416611f07565b610f8d6123fa565b600b546001600160a01b03163381900361104c57600f5490811561100757600f839055600554610fc79183916001600160a01b0316612450565b600b546040519182526001600160a01b0316907f95c2f2f0b8c75d4ae87961d54e381ca366d0b1bf25a2c823eb0f3b6ea827b3d290602090a26001815580f35b60405162461bcd60e51b815260206004820152601c60248201527f43726f776473616c653a206e6f2066756e64696e6720617373657473000000006044820152606490fd5b606460405162461bcd60e51b815260206004820152602060248201527f43726f776473616c653a206f6e6c792066756e64696e672072656365697665726044820152fd5b50346101e057806003193601126101e0576110ac610f726122de565b6110ba60ff60125416611f07565b6110c26123fa565b600c546001600160a01b0316338190036111815760105490811561113c5760108390556005546110fc9183916001600160a01b0316612450565b600c546040519182526001600160a01b0316907fe0c47f951725b858d4295bf72d6eae743cfe10d318b04f1db124052f9b5a4c0c90602090a26001815580f35b60405162461bcd60e51b815260206004820152601860248201527f43726f776473616c653a206e6f206d616e6167652066656500000000000000006044820152606490fd5b60405162461bcd60e51b815260206004820152602360248201527f43726f776473616c653a206f6e6c79206d616e616765206665652072656365696044820152623b32b960e91b6064820152608490fd5b50346101e057806003193601126101e0576020601054604051908152f35b50346101e057806003193601126101e057600e546040516001600160a01b039091168152602090f35b50346101e05760203660031901126101e057611233611c85565b61124860018060a01b03600e54163314611e1a565b6112536101ff6122de565b6112606004544211612139565b61126e60ff60125416611f07565b6112796101ff6122de565b6001600160a01b0381169061128f821515611fab565b60025460405163703bafd560e01b81529184916001600160a01b031690602084600481855afa9384156113d55760249460209185916113e0575b506040516370a0823160e01b81526004810188905295869182906001600160a01b03165afa9384156113d557839461139e575b50611308841515612191565b611311846123db565b93823b1561139a57604051633477cc1b60e21b81526001600160a01b0392909216600483015260248201529082908290604490829084905af180156107b157611385575b505060207f861e2da04a5f7106dcb29520bc69654fa98fd012e4e10d0398911f8188a9f30091604051908152a280f35b8161138f91611cf7565b61054c578238611355565b8380fd5b925092506020823d6020116113cd575b816113bb60209383611cf7565b810103126105bb5784915192386112fc565b3d91506113ae565b6040513d85823e3d90fd5b6113f79150823d84116105f8576105ea8183611cf7565b386112c9565b50346101e057806003193601126101e057602060ff601254166040519015158152f35b50346101e05761142f36611dc2565b9061143b6101ff6122de565b6114486004544211612139565b61145660ff60125416611f07565b61145e6123fa565b6114696101ff6122de565b6001600160a01b0381169061147f821515611fab565b60025460405163703bafd560e01b8152936001600160a01b039091169190602085600481865afa9485156116b85760249560209188916116c3575b506040516370a0823160e01b815233600482015296879182906001600160a01b03165afa9485156116b8578695611684575b506114f8851515612191565b61157c61031e6103166011549361150e856121dd565b6011558760405161151e81611cc5565b6102e46040978851926115318a85611cf7565b600684526572656465656d60d01b60208501528381528d6020820152848a82015281606082015246608082015260a0309101526102d68d8a519485936020850197309346938a6121ec565b611585856123db565b9186612710611596600a548661228a565b0494803b15611680578351633477cc1b60e21b8152336004820152602481018990529082908290604490829084905af1801561167657611653575b50938360809388611639899561160a7ff54122745b7c48254b9d8e22b57ebd7176d8e786dd8fadd4932aa02294bd074799600f54612016565b600f5561161986601054612016565b6010556005546001600160a01b03169061163387876122bd565b91612450565b815194855260208501528301526060820152a16001815580f35b8161166391979695949397611cf7565b611672579091929386386115d1565b8680fd5b84513d84823e3d90fd5b5080fd5b9094506020813d6020116116b0575b816116a060209383611cf7565b810103126105bb575193386114ec565b3d9150611693565b6040513d88823e3d90fd5b6116da9150823d84116105f8576105ea8183611cf7565b386114ba565b50346101e057806003193601126101e05761170660018060a01b03600e54163314611e1a565b611711610f726122de565b61171f60ff60125416611f07565b60025481906001600160a01b0316803b15611794578180916004604051809481936350669a0360e01b83525af180156107b15761177f575b50807fba9a1b2ede938b9820087753e1645dd4b6542ac61fa6b06a3df09cd9dee6945491a180f35b8161178991611cf7565b6101e0578038611757565b50fd5b50346101e057806003193601126101e0576020600454604051908152f35b50346101e057806003193601126101e0576020600a54604051908152f35b50346101e0576117e236611d7c565b92916117f960018060a01b03600e54163314611e1a565b6118046101ff6122de565b61180f610210611e02565b61181d60ff60125416611f07565b60095461182c81831015611f53565b6001600160a01b03831692611842841515611fab565b604051906040820182811067ffffffffffffffff821117611bd157604052838252602082019185835260018060a01b036002541692604051633a5381b560e01b8152602081600481885afa908115611bc6578991611ba7575b506001600160a01b0316918215611b62575190516040519060208201926e1bd99990da185a5b91195c1bdcda5d608a1b8452602f8301526001600160601b03199060601b16604f8201524660638201523060601b608382015260778152611903609782611cf7565b5190207f19457468657265756d205369676e6564204d6573736167653a0a3332000000008852601c5261193c61031689603c8a2061252f565b6001600160a01b031603611b1357611953846123aa565b9360405163703bafd560e01b8152602081600481875afa908115611aeb576004916020918a91611af6575b506040516318160ddd60e01b815292839182906001600160a01b03165afa8015611aeb578890611ab3575b6119b69150600654612016565b9485811115611aaa5750506119d66119cd856123db565b93841015612039565b813b1561053e57604051630f38ca0d60e31b81526001600160a01b03919091166004820152602481018490529085908290604490829084905af18015611a9f57611a67575b50611a617f63258194677400bf465d9734c48cbf894a267862a28b706b43fbc83e69f23690939495604051938493845260208401526060604084015260608301906120ba565b0390a280f35b84611a977f63258194677400bf465d9734c48cbf894a267862a28b706b43fbc83e69f236909596611a6193611cf7565b949350611a1b565b6040513d87823e3d90fd5b945092506119d6565b506020813d602011611ae3575b81611acd60209383611cf7565b81010312611adf576119b690516119a9565b8780fd5b3d9150611ac0565b6040513d8a823e3d90fd5b611b0d9150823d84116105f8576105ea8183611cf7565b3861197e565b60405162461bcd60e51b815260206004820152602160248201527f43726f776473616c653a20696e76616c69642064726473207369676e617475726044820152606560f81b6064820152608490fd5b60405162461bcd60e51b815260206004820152601c60248201527f43726f776473616c653a2076616c696461746f72206e6f7420736574000000006044820152606490fd5b611bc0915060203d6020116105f8576105ea8183611cf7565b3861189b565b6040513d8b823e3d90fd5b634e487b7160e01b87526041600452602487fd5b50346101e057806003193601126101e057602061061a611e02565b50346101e0576020611c1136611c9b565b60405191848301936572656465656d60d01b855260268401526001600160601b03199060601b166046830152605a82015246607a8201523060601b609a820152608e815261083a60ae82611cf7565b9050346116805781600319360112611680576005546001600160a01b03168152602090f35b600435906001600160a01b03821682036105bb57565b60609060031901126105bb57600435906024356001600160a01b03811681036105bb579060443590565b60c0810190811067ffffffffffffffff821117611ce157604052565b634e487b7160e01b600052604160045260246000fd5b90601f8019910116810190811067ffffffffffffffff821117611ce157604052565b67ffffffffffffffff8111611ce157601f01601f191660200190565b81601f820112156105bb57803590611d4c82611d19565b92611d5a6040519485611cf7565b828452602083830101116105bb57816000926020809301838601378301015290565b60606003198201126105bb57600435916024356001600160a01b03811681036105bb57916044359067ffffffffffffffff82116105bb57611dbf91600401611d35565b90565b9060406003198301126105bb576004356001600160a01b03811681036105bb57916024359067ffffffffffffffff82116105bb57611dbf91600401611d35565b60035442101580611e105790565b5060045442111590565b15611e2157565b60405162461bcd60e51b815260206004820152601760248201527f43726f776473616c653a206f6e6c79206d616e616765720000000000000000006044820152606490fd5b15611e6d57565b60405162461bcd60e51b815260206004820152602160248201527f43726f776473616c653a2066756e64696e6720776173207375636365737366756044820152601b60fa1b6064820152608490fd5b15611ec357565b606460405162461bcd60e51b815260206004820152602060248201527f43726f776473616c653a206e6f7420696e2066756e64696e6720706572696f646044820152fd5b15611f0e57565b60405162461bcd60e51b815260206004820152601a60248201527f43726f776473616c653a206e6f7420696e697469616c697a65640000000000006044820152606490fd5b15611f5a57565b60405162461bcd60e51b815260206004820152602360248201527f43726f776473616c653a20616d6f756e74206c657373207468616e206d696e696044820152626d756d60e81b6064820152608490fd5b15611fb257565b60405162461bcd60e51b815260206004820152601b60248201527f43726f776473616c653a20696e76616c696420726563656976657200000000006044820152606490fd5b908160209103126105bb57516001600160a01b03811681036105bb5790565b9190820391821161202357565b634e487b7160e01b600052601160045260246000fd5b1561204057565b60405162461bcd60e51b815260206004820152602960248201527f43726f776473616c653a2072656d61696e696e6720616d6f756e742062656c6f60448201526877206d696e696d756d60b81b6064820152608490fd5b60005b8381106120aa5750506000910152565b818101518382015260200161209a565b906020916120d381518092818552858086019101612097565b601f01601f1916010190565b156120e657565b60405162461bcd60e51b815260206004820152602560248201527f43726f776473616c653a2066756e64696e6720776173206e6f742073756363656044820152641cdcd99d5b60da1b6064820152608490fd5b1561214057565b60405162461bcd60e51b815260206004820152602360248201527f43726f776473616c653a2066756e64696e6720706572696f64206e6f7420656e60448201526219195960ea1b6064820152608490fd5b1561219857565b60405162461bcd60e51b815260206004820152601e60248201527f43726f776473616c653a206e6f2073686172657320746f2072656465656d00006044820152606490fd5b60001981146120235760010190565b602090612206608898969497959382815194859201612097565b019485526001600160601b03199060601b166020850152603484015260548301526001600160601b03199060601b1660748201520190565b1561224557565b60405162461bcd60e51b815260206004820152601c60248201527f43726f776473616c653a20696e76616c6964207369676e6174757265000000006044820152606490fd5b8181029291811591840414171561202357565b81156122a7570490565b634e487b7160e01b600052601260045260246000fd5b9190820180921161202357565b51906001600160a01b03821682036105bb57565b60025460405163703bafd560e01b815290602090829060049082906001600160a01b03165afa9081156123815760049160209160009161238d575b506040516318160ddd60e01b815292839182906001600160a01b03165afa9081156123815760009161234f575b50600754111590565b90506020813d602011612379575b8161236a60209383611cf7565b810103126105bb575138612346565b3d915061235d565b6040513d6000823e3d90fd5b6123a49150823d84116105f8576105ea8183611cf7565b38612319565b600d546123b69161228a565b6305f5e1008102908082046305f5e100149015171561202357600854611dbf9161229d565b6305f5e1006123f0611dbf926008549061228a565b04600d549061229d565b60026000541461240b576002600055565b60405162461bcd60e51b815260206004820152601f60248201527f5265656e7472616e637947756172643a207265656e7472616e742063616c6c006044820152606490fd5b60405163a9059cbb60e01b60208201526001600160a01b0392909216602483015260448083019390935291815261248c91610491606483611cf7565b565b6001546001600160a01b031633036124a257565b606460405162461bcd60e51b815260206004820152602060248201527f4f776e61626c653a2063616c6c6572206973206e6f7420746865206f776e65726044820152fd5b600180546001600160a01b039283166001600160a01b0319821681179092559091167f8be0079c531659141344cd1fd0a4f28419497f9722a3daafe3b4186f6b6457e0600080a3565b90604181511460001461255d57612559916020820151906060604084015193015160001a9061279d565b9091565b5050600090600290565b600581101561266b57806125785750565b600181036125c55760405162461bcd60e51b815260206004820152601860248201527f45434453413a20696e76616c6964207369676e617475726500000000000000006044820152606490fd5b600281036126125760405162461bcd60e51b815260206004820152601f60248201527f45434453413a20696e76616c6964207369676e6174757265206c656e677468006044820152606490fd5b60031461261b57565b60405162461bcd60e51b815260206004820152602260248201527f45434453413a20696e76616c6964207369676e6174757265202773272076616c604482015261756560f01b6064820152608490fd5b634e487b7160e01b600052602160045260246000fd5b604080519092612705926001600160a01b03169060009081906126a48786611cf7565b602085527f5361666545524332303a206c6f772d6c6576656c2063616c6c206661696c6564602086015260208151910182855af13d15612795573d916126e983611d19565b926126f687519485611cf7565b83523d6000602085013e61281d565b8051908115918215612772575b50501561271c5750565b5162461bcd60e51b815260206004820152602a60248201527f5361666545524332303a204552433230206f7065726174696f6e20646964206e6044820152691bdd081cdd58d8d9595960b21b6064820152608490fd5b81925090602091810103126105bb576020015180151581036105bb573880612712565b60609161281d565b7f7fffffffffffffffffffffffffffffff5d576e7357a4501ddfe92f46681b20a084116128115760209360009360ff60809460405194855216868401526040830152606082015282805260015afa15612381576000516001600160a01b038116156128085790600090565b50600090600190565b50505050600090600390565b9192901561287f5750815115612831575090565b3b1561283a5790565b60405162461bcd60e51b815260206004820152601d60248201527f416464726573733a2063616c6c20746f206e6f6e2d636f6e74726163740000006044820152606490fd5b8251909150156128925750805190602001fd5b60405162461bcd60e51b8152602060048201529081906128b69060248301906120ba565b0390fdfea2646970667358221220834ba29626844ce3e039c36603e8a9d9d7e31edfeae7f476c576b6335ae23d3464736f6c634300081a0033",
  "devdoc": {
    "details": "Crowdsale template implementation, providing fair fundraising functionality",
    "kind": "dev",
    "methods": {
      "deposit(uint256,address,bytes)": {
        "details": "Deposit to purchase shares (user initiated, requires manager signature)",
        "params": {
          "amount": "Deposit amount",
          "receiver": "Receiver address",
          "signature": "Manager signature"
        }
      },
      "getDepositSignatureMessage(uint256,address,uint256)": {
        "details": "Generate deposit signature message hash for backend signing",
        "params": {
          "amount": "Deposit amount",
          "nonce": "Manager nonce",
          "receiver": "Receiver address"
        },
        "returns": {
          "_0": "Message hash to be signed"
        }
      },
      "getManagerNonce()": {
        "details": "Query manager nonce for signature verification",
        "returns": {
          "_0": "Current manager nonce"
        }
      },
      "getRedeemSignatureMessage(uint256,address,uint256)": {
        "details": "Generate redeem signature message hash for backend signing",
        "params": {
          "amount": "Number of shares to redeem",
          "nonce": "Manager nonce",
          "receiver": "Receiver address"
        },
        "returns": {
          "_0": "Message hash to be signed"
        }
      },
      "getRemainingSupply()": {
        "details": "Get remaining supply",
        "returns": {
          "_0": "Remaining supply"
        }
      },
      "getTotalRaised()": {
        "details": "Get total amount raised",
        "returns": {
          "_0": "Total amount raised"
        }
      },
      "initiate(address,bytes)": {
        "details": "Unified initialization interface",
        "params": {
          "_initData": "Encoded initialization data",
          "_vault": "Vault address"
        }
      },
      "isFundingPeriodActive()": {
        "details": "Check if funding period is active",
        "returns": {
          "_0": "Whether funding period is active"
        }
      },
      "isFundingSuccessful()": {
        "details": "Check if funding is successful",
        "returns": {
          "_0": "Whether funding is successful"
        }
      },
      "isInitialized()": {
        "details": "Query if initialized"
      },
      "offChainDeposit(uint256,address,bytes)": {
        "details": "Off-chain deposit (only manager can call, requires DRDS signature verification)",
        "params": {
          "amount": "Deposit amount",
          "drdsSignature": "DRDS signature data",
          "receiver": "Receiver address"
        }
      },
      "offChainRedeem(address)": {
        "details": "Off-chain redeem all shares (only manager can call)",
        "params": {
          "receiver": "Receiver address"
        }
      },
      "owner()": {
        "details": "Returns the address of the current owner."
      },
      "redeem(address,bytes)": {
        "details": "Redeem all shares (user initiated, requires manager signature)",
        "params": {
          "receiver": "Receiver address",
          "signature": "Manager signature"
        }
      },
      "renounceOwnership()": {
        "details": "Leaves the contract without owner. It will not be possible to call `onlyOwner` functions. Can only be called by the current owner. NOTE: Renouncing ownership will leave the contract without an owner, thereby disabling any functionality that is only available to the owner."
      },
      "transferOwnership(address)": {
        "details": "Transfers ownership of the contract to a new account (`newOwner`). Can only be called by the current owner."
      },
      "unpauseTokenOnFundingSuccess()": {
        "details": "Unpause token trading when funding is successful This function should be called after funding period ends and funding is successful"
      },
      "withdrawFundingAssets()": {
        "details": "Withdraw funding assets (only when funding is successful)"
      },
      "withdrawManageFee()": {
        "details": "Withdraw management fee (only when funding is successful)"
      }
    },
    "title": "Crowdsale",
    "version": 1
  },
  "userdoc": {
    "kind": "user",
    "methods": {},
    "notice": "Supports on-chain and off-chain deposits, refundable if funding fails",
    "version": 1
  },
  "storageLayout": {
    "storage": [
      {
        "astId": 123,
        "contract": "contracts/v2/templates/funding/Crowdsale.sol:Crowdsale",
        "label": "_status",
        "offset": 0,
        "slot": "0",
        "type": "t_uint256"
      },
      {
        "astId": 7,
        "contract": "contracts/v2/templates/funding/Crowdsale.sol:Crowdsale",
        "label": "_owner",
        "offset": 0,
        "slot": "1",
        "type": "t_address"
      },
      {
        "astId": 3316,
        "contract": "contracts/v2/templates/funding/Crowdsale.sol:Crowdsale",
        "label": "vault",
        "offset": 0,
        "slot": "2",
        "type": "t_address"
      },
      {
        "astId": 3319,
        "contract": "contracts/v2/templates/funding/Crowdsale.sol:Crowdsale",
        "label": "startTime",
        "offset": 0,
        "slot": "3",
        "type": "t_uint256"
      },
      {
        "astId": 3322,
        "contract": "contracts/v2/templates/funding/Crowdsale.sol:Crowdsale",
        "label": "endTime",
        "offset": 0,
        "slot": "4",
        "type": "t_uint256"
      },
      {
        "astId": 3325,
        "contract": "contracts/v2/templates/funding/Crowdsale.sol:Crowdsale",
        "label": "assetToken",
        "offset": 0,
        "slot": "5",
        "type": "t_address"
      },
      {
        "astId": 3328,
        "contract": "contracts/v2/templates/funding/Crowdsale.sol:Crowdsale",
        "label": "maxSupply",
        "offset": 0,
        "slot": "6",
        "type": "t_uint256"
      },
      {
        "astId": 3331,
        "contract": "contracts/v2/templates/funding/Crowdsale.sol:Crowdsale",
        "label": "softCap",
        "offset": 0,
        "slot": "7",
        "type": "t_uint256"
      },
      {
        "astId": 3334,
        "contract": "contracts/v2/templates/funding/Crowdsale.sol:Crowdsale",
        "label": "sharePrice",
        "offset": 0,
        "slot": "8",
        "type": "t_uint256"
      },
      {
        "astId": 3337,
        "contract": "contracts/v2/templates/funding/Crowdsale.sol:Crowdsale",
        "label": "minDepositAmount",
        "offset": 0,
        "slot": "9",
        "type": "t_uint256"
      },
      {
        "astId": 3340,
        "contract": "contracts/v2/templates/funding/Crowdsale.sol:Crowdsale",
        "label": "manageFeeBps",
        "offset": 0,
        "slot": "10",
        "type": "t_uint256"
      },
      {
        "astId": 3343,
        "contract": "contracts/v2/templates/funding/Crowdsale.sol:Crowdsale",
        "label": "fundingReceiver",
        "offset": 0,
        "slot": "11",
        "type": "t_address"
      },
      {
        "astId": 3346,
        "contract": "contracts/v2/templates/funding/Crowdsale.sol:Crowdsale",
        "label": "manageFeeReceiver",
        "offset": 0,
        "slot": "12",
        "type": "t_address"
      },
      {
        "astId": 3349,
        "contract": "contracts/v2/templates/funding/Crowdsale.sol:Crowdsale",
        "label": "decimalsMultiplier",
        "offset": 0,
        "slot": "13",
        "type": "t_uint256"
      },
      {
        "astId": 3352,
        "contract": "contracts/v2/templates/funding/Crowdsale.sol:Crowdsale",
        "label": "manager",
        "offset": 0,
        "slot": "14",
        "type": "t_address"
      },
      {
        "astId": 3355,
        "contract": "contracts/v2/templates/funding/Crowdsale.sol:Crowdsale",
        "label": "fundingAssets",
        "offset": 0,
        "slot": "15",
        "type": "t_uint256"
      },
      {
        "astId": 3358,
        "contract": "contracts/v2/templates/funding/Crowdsale.sol:Crowdsale",
        "label": "manageFee",
        "offset": 0,
        "slot": "16",
        "type": "t_uint256"
      },
      {
        "astId": 3368,
        "contract": "contracts/v2/templates/funding/Crowdsale.sol:Crowdsale",
        "label": "managerNonce",
        "offset": 0,
        "slot": "17",
        "type": "t_uint256"
      },
      {
        "astId": 3370,
        "contract": "contracts/v2/templates/funding/Crowdsale.sol:Crowdsale",
        "label": "_initialized",
        "offset": 0,
        "slot": "18",
        "type": "t_bool"
      }
    ],
    "types": {
      "t_address": {
        "encoding": "inplace",
        "label": "address",
        "numberOfBytes": "20"
      },
      "t_bool": {
        "encoding": "inplace",
        "label": "bool",
        "numberOfBytes": "1"
      },
      "t_uint256": {
        "encoding": "inplace",
        "label": "uint256",
        "numberOfBytes": "32"
      }
    }
  }
}