{
  "address": "0x5FbDB2315678afecb367f032d93F642f64180aa3",
  "abi": [
    {
      "inputs": [
        {
          "internalType": "address",
          "name": "deployer",
          "type": "address"
        }
      ],
      "stateMutability": "nonpayable",
      "type": "constructor"
    },
    {
      "anonymous": false,
      "inputs": [
        {
          "indexed": true,
          "internalType": "address",
          "name": "user",
          "type": "address"
        }
      ],
      "name": "Deny",
      "type": "event"
    },
    {
      "anonymous": false,
      "inputs": [
        {
          "indexed": true,
          "internalType": "address",
          "name": "escrow",
          "type": "address"
        }
      ],
      "name": "EscrowDeployed",
      "type": "event"
    },
    {
      "anonymous": false,
      "inputs": [
        {
          "indexed": true,
          "internalType": "address",
          "name": "user",
          "type": "address"
        }
      ],
      "name": "Rely",
      "type": "event"
    },
    {
      "inputs": [
        {
          "internalType": "address",
          "name": "user",
          "type": "address"
        }
      ],
      "name": "deny",
      "outputs": [],
      "stateMutability": "nonpayable",
      "type": "function"
    },
    {
      "inputs": [
        {
          "internalType": "address",
          "name": "deployer",
          "type": "address"
        }
      ],
      "name": "newEscrow",
      "outputs": [
        {
          "internalType": "address",
          "name": "",
          "type": "address"
        }
      ],
      "stateMutability": "nonpayable",
      "type": "function"
    },
    {
      "inputs": [
        {
          "internalType": "address",
          "name": "user",
          "type": "address"
        }
      ],
      "name": "rely",
      "outputs": [],
      "stateMutability": "nonpayable",
      "type": "function"
    },
    {
      "inputs": [
        {
          "internalType": "address",
          "name": "",
          "type": "address"
        }
      ],
      "name": "wards",
      "outputs": [
        {
          "internalType": "uint256",
          "name": "",
          "type": "uint256"
        }
      ],
      "stateMutability": "view",
      "type": "function"
    }
  ],
  "transactionHash": "0x52e852473a5e05de4f3cc48039f282ba9731df062b7727c83f519e7b06be4192",
  "args": [
    "0xf39Fd6e51aad88F6F4ce6aB8827279cffFb92266"
  ],
  "numDeployments": 1,
  "solcInputHash": "9572697e3a93836ab3d466dd3e23e495",
  "bytecode": "0x608034609357601f610bbc38819003918201601f19168301916001600160401b03831184841017609857808492602094604052833981010312609357516001600160a01b038116908190036093578060005260006020526001604060002055604051907fdd0e34038ac38b2a1ce960229778ac48a8719bc900b6c4f8d0475c6e8b385a60600080a2610b0d90816100af8239f35b600080fd5b634e487b7160e01b600052604160045260246000fdfe6080604052600436101561001257600080fd5b60003560e01c8063608607121461017a57806365fae35e146101025780639c52a7f11461008b5763bf353dbb1461004857600080fd5b34610086576020366003190112610086576004356001600160a01b038116908190036100865760005260006020526020604060002054604051908152f35b600080fd5b34610086576020366003190112610086576004356001600160a01b03811690819003610086573360005260006020526100cb60016040600020541461024a565b806000526000602052600060408120557f184450df2e323acec0ed3b5c7531b81f9b4cdef7914dfd4c0a4317416bb5251b600080a2005b34610086576020366003190112610086576004356001600160a01b038116908190036100865733600052600060205261014260016040600020541461024a565b80600052600060205260016040600020557fdd0e34038ac38b2a1ce960229778ac48a8719bc900b6c4f8d0475c6e8b385a60600080a2005b34610086576020366003190112610086576004356001600160a01b03811690819003610086573360005260006020526101ba60016040600020541461024a565b6040519061084b80830183811067ffffffffffffffff82111761023457602092849261028d843981520301906000f08015610228576040516020916001600160a01b0316807f985bc84aef25790c9c57b0ad211a72a2e99bf79da9943bf86efa35d4520c01c1600080a28152f35b6040513d6000823e3d90fd5b634e487b7160e01b600052604160045260246000fd5b1561025157565b60405162461bcd60e51b8152602060048201526013602482015272105d5d1a0bdb9bdd0b585d5d1a1bdc9a5e9959606a1b6044820152606490fdfe608034609357601f61084b38819003918201601f19168301916001600160401b03831184841017609857808492602094604052833981010312609357516001600160a01b038116908190036093578060005260006020526001604060002055604051907fdd0e34038ac38b2a1ce960229778ac48a8719bc900b6c4f8d0475c6e8b385a60600080a261079c90816100af8239f35b600080fd5b634e487b7160e01b600052604160045260246000fdfe6080604052600436101561001257600080fd5b6000803560e01c806365fae35e14610563578063962889911461040d5780639c52a7f11461039d578063aec42a171461008e5763bf353dbb1461005457600080fd5b3461008b57602036600319011261008b576020906040906001600160a01b0361007b6105d4565b1681528083522054604051908152f35b80fd5b503461008b57604036600319011261008b576100a86105d4565b6100b06105ea565b90338352826020526100c86001604085205414610600565b604051636eb1769f60e11b81523060048201526001600160a01b0383811660248301529190911690602081604481855afa90811561036057849161036b575b5015610111578280f35b604051636eb1769f60e11b81523060048201526001600160a01b0383166024820152602081604481855afa908115610360578491610329575b506102c557604051916101fb602084019163095ea7b360e01b835260018060a01b03169384602482015260001960448201526044815261018b606482610642565b858060409485519361019d8786610642565b602085527f5361666545524332303a206c6f772d6c6576656c2063616c6c206661696c65646020860152519082885af13d156102bd573d906101de8261067a565b916101eb86519384610642565b82523d88602084013e5b85610696565b8051908115918215610296575b5050156102405760207f6e11fb1b7f119e3f2fa29896ef5fdf8b8a2d0d4df6fe90ba8668e7d8b2ffa25e91516000198152a338808280f35b5162461bcd60e51b815260206004820152602a60248201527f5361666545524332303a204552433230206f7065726174696f6e20646964206e6044820152691bdd081cdd58d8d9595960b21b6064820152608490fd5b81925090602091810103126102b9576020015180151581036102b9573880610208565b8480fd5b6060906101f5565b60405162461bcd60e51b815260206004820152603660248201527f5361666545524332303a20617070726f76652066726f6d206e6f6e2d7a65726f60448201527520746f206e6f6e2d7a65726f20616c6c6f77616e636560501b6064820152608490fd5b90506020813d602011610358575b8161034460209383610642565b8101031261035357513861014a565b600080fd5b3d9150610337565b6040513d86823e3d90fd5b90506020813d602011610395575b8161038660209383610642565b81010312610353575138610107565b3d9150610379565b503461008b57602036600319011261008b576103b76105d4565b338252816020526103ce6001604084205414610600565b6001600160a01b03168082526020829052604082208290557f184450df2e323acec0ed3b5c7531b81f9b4cdef7914dfd4c0a4317416bb5251b8280a280f35b503461008b57604036600319011261008b576104276105d4565b906104306105ea565b91338252816020526104486001604084205414610600565b60405163095ea7b360e01b602082019081526001600160a01b039485166024830181905260006044808501919091528352949290921692506105009061048f606482610642565b6000806040948551936104a28786610642565b602085527f5361666545524332303a206c6f772d6c6576656c2063616c6c206661696c65646020860152519082885af13d156102bd573d906104e38261067a565b916104f086519384610642565b82523d6000602084013e85610696565b8051908115918215610540575b5050156102405760207f6e11fb1b7f119e3f2fa29896ef5fdf8b8a2d0d4df6fe90ba8668e7d8b2ffa25e915160008152a3005b81925090602091810103126103535760200151801515810361035357388061050d565b503461008b57602036600319011261008b5761057d6105d4565b338252816020526105946001604084205414610600565b6001600160a01b0316808252602082905260408220600190557fdd0e34038ac38b2a1ce960229778ac48a8719bc900b6c4f8d0475c6e8b385a608280a280f35b600435906001600160a01b038216820361035357565b602435906001600160a01b038216820361035357565b1561060757565b60405162461bcd60e51b8152602060048201526013602482015272105d5d1a0bdb9bdd0b585d5d1a1bdc9a5e9959606a1b6044820152606490fd5b90601f8019910116810190811067ffffffffffffffff82111761066457604052565b634e487b7160e01b600052604160045260246000fd5b67ffffffffffffffff811161066457601f01601f191660200190565b919290156106f857508151156106aa575090565b3b156106b35790565b60405162461bcd60e51b815260206004820152601d60248201527f416464726573733a2063616c6c20746f206e6f6e2d636f6e74726163740000006044820152606490fd5b82519091501561070b5750805190602001fd5b6040519062461bcd60e51b8252602060048301528181519182602483015260005b83811061074e5750508160006044809484010152601f80199101168101030190fd5b6020828201810151604487840101528593500161072c56fea2646970667358221220e47669028bf156a123f72804c441a9b7304f9d15aeaa10db2679d5b8c6e464b564736f6c634300081a0033a2646970667358221220088b7f63fd7833c4ea6c9db3c7dfc9b3f919a4d4fab5cb7f48615358ca42f6bd64736f6c634300081a0033",
  "devdoc": {
    "author": "Accelerate Finance",
    "details": "This contract is responsible for creating new instances of the Escrow contract.",
    "events": {
      "EscrowDeployed(address)": {
        "params": {
          "escrow": "deployed Escrow address."
        }
      }
    },
    "kind": "dev",
    "methods": {
      "constructor": {
        "details": "Inherits from the Auth contract to implement access control.",
        "params": {
          "deployer": "The address of the entity deploying the contract, serving as the initial administrator."
        }
      },
      "newEscrow(address)": {
        "details": "Only authorized users can call this function.",
        "params": {
          "deployer": "The address of the deployer for the new Escrow contract."
        },
        "returns": {
          "_0": "address  The address of the newly created Escrow contract."
        }
      }
    },
    "title": "EscrowFactory",
    "version": 1
  },
  "userdoc": {
    "events": {
      "EscrowDeployed(address)": {
        "notice": "Event emitted when Escrow is deployed."
      }
    },
    "kind": "user",
    "methods": {
      "constructor": {
        "notice": "Constructor function that initializes the contract and sets the deployer as the authorized user."
      },
      "deny(address)": {
        "notice": "Remove user as a ward (remove admin access)"
      },
      "newEscrow(address)": {
        "notice": "Creates a new instance of the Escrow contract."
      },
      "rely(address)": {
        "notice": "Make user a ward (give them admin access)"
      },
      "wards(address)": {
        "notice": "Returns whether the target is a ward (has admin access)"
      }
    },
    "notice": "Allows authorized users to deploy new Escrow contracts.",
    "version": 1
  },
  "storageLayout": {
    "storage": [
      {
        "astId": 8066,
        "contract": "contracts/v1/factories/EscrowFactory.sol:EscrowFactory",
        "label": "wards",
        "offset": 0,
        "slot": "0",
        "type": "t_mapping(t_address,t_uint256)"
      }
    ],
    "types": {
      "t_address": {
        "encoding": "inplace",
        "label": "address",
        "numberOfBytes": "20"
      },
      "t_mapping(t_address,t_uint256)": {
        "encoding": "mapping",
        "key": "t_address",
        "label": "mapping(address => uint256)",
        "numberOfBytes": "32",
        "value": "t_uint256"
      },
      "t_uint256": {
        "encoding": "inplace",
        "label": "uint256",
        "numberOfBytes": "32"
      }
    }
  }
}