{
  "address": "0xe7f1725E7734CE288F8367e1Bb143E90bb3F0512",
  "abi": [
    {
      "inputs": [
        {
          "internalType": "address",
          "name": "deployer",
          "type": "address"
        }
      ],
      "stateMutability": "nonpayable",
      "type": "constructor"
    },
    {
      "anonymous": false,
      "inputs": [
        {
          "indexed": true,
          "internalType": "address",
          "name": "user",
          "type": "address"
        }
      ],
      "name": "Deny",
      "type": "event"
    },
    {
      "anonymous": false,
      "inputs": [
        {
          "indexed": true,
          "internalType": "address",
          "name": "priceFeed",
          "type": "address"
        }
      ],
      "name": "PriceFeedDeployed",
      "type": "event"
    },
    {
      "anonymous": false,
      "inputs": [
        {
          "indexed": true,
          "internalType": "address",
          "name": "user",
          "type": "address"
        }
      ],
      "name": "Rely",
      "type": "event"
    },
    {
      "inputs": [
        {
          "internalType": "address",
          "name": "user",
          "type": "address"
        }
      ],
      "name": "deny",
      "outputs": [],
      "stateMutability": "nonpayable",
      "type": "function"
    },
    {
      "inputs": [
        {
          "internalType": "address",
          "name": "manager",
          "type": "address"
        }
      ],
      "name": "newPriceFeed",
      "outputs": [
        {
          "internalType": "address",
          "name": "",
          "type": "address"
        }
      ],
      "stateMutability": "nonpayable",
      "type": "function"
    },
    {
      "inputs": [
        {
          "internalType": "address",
          "name": "user",
          "type": "address"
        }
      ],
      "name": "rely",
      "outputs": [],
      "stateMutability": "nonpayable",
      "type": "function"
    },
    {
      "inputs": [
        {
          "internalType": "address",
          "name": "",
          "type": "address"
        }
      ],
      "name": "wards",
      "outputs": [
        {
          "internalType": "uint256",
          "name": "",
          "type": "uint256"
        }
      ],
      "stateMutability": "view",
      "type": "function"
    }
  ],
  "transactionHash": "0x495daae5310bc0275ea4c0059ad4f74aac695c4712ea976c623b8ae000c7e84a",
  "args": [
    "0xf39Fd6e51aad88F6F4ce6aB8827279cffFb92266"
  ],
  "numDeployments": 1,
  "solcInputHash": "0a513db19725be232d00f08182b390a6",
  "bytecode": "0x608034609357601f61117638819003918201601f19168301916001600160401b03831184841017609857808492602094604052833981010312609357516001600160a01b038116908190036093578060005260006020526001604060002055604051907fdd0e34038ac38b2a1ce960229778ac48a8719bc900b6c4f8d0475c6e8b385a60600080a26110c790816100af8239f35b600080fd5b634e487b7160e01b600052604160045260246000fdfe6080604052600436101561001257600080fd5b60003560e01c80633ac6fae11461017a57806365fae35e146101025780639c52a7f11461008b5763bf353dbb1461004857600080fd5b34610086576020366003190112610086576004356001600160a01b038116908190036100865760005260006020526020604060002054604051908152f35b600080fd5b34610086576020366003190112610086576004356001600160a01b03811690819003610086573360005260006020526100cb60016040600020541461024a565b806000526000602052600060408120557f184450df2e323acec0ed3b5c7531b81f9b4cdef7914dfd4c0a4317416bb5251b600080a2005b34610086576020366003190112610086576004356001600160a01b038116908190036100865733600052600060205261014260016040600020541461024a565b80600052600060205260016040600020557fdd0e34038ac38b2a1ce960229778ac48a8719bc900b6c4f8d0475c6e8b385a60600080a2005b34610086576020366003190112610086576004356001600160a01b03811690819003610086573360005260006020526101ba60016040600020541461024a565b60405190610e0580830183811067ffffffffffffffff82111761023457602092849261028d843981520301906000f08015610228576040516020916001600160a01b0316807f3b75a597c9d4563266cca4974c9794f8f9cc9419b85bc383a0df5601fc0b58ad600080a28152f35b6040513d6000823e3d90fd5b634e487b7160e01b600052604160045260246000fd5b1561025157565b60405162461bcd60e51b8152602060048201526013602482015272105d5d1a0bdb9bdd0b585d5d1a1bdc9a5e9959606a1b6044820152606490fdfe6080346101c757601f610e0538819003918201601f19168301916001600160401b038311848410176101cc578084926020946040528339810103126101c757516001600160a01b038116908190036101c7576000818152600080516020610de5833981519152602052604090205460ff1615610186575b6000818152600080516020610dc5833981519152602052604090205460ff1615610135575b7f80a586cc4ecf40a390b370be075aa38ab3cc512c5c1a7bc1007974dbdf2663c7600081815260208190527ff3df2cad0328610bdabaaa4666352f9e79b67a748d22942cd8aec92e2fbda4b88054600080516020610da5833981519152918290556040519391929091907fbd79b86ffe0ab8e8776151514217cd7cacd52c909f66475c3af44e129f0b00ff9080a4610ba290816101e38239f35b6000818152600080516020610dc583398151915260205260408120805460ff19166001179055339190600080516020610da583398151915290600080516020610d858339815191529080a43861009b565b6000818152600080516020610de583398151915260205260408120805460ff1916600117905533908290600080516020610d858339815191528180a4610076565b600080fd5b634e487b7160e01b600052604160045260246000fdfe608080604052600436101561001357600080fd5b60003560e01c90816301ffc9a71461076157508063248a9ca31461072c5780632f2ff15d1461067e578063313ce5671461066257806336568abe146105de57806354fd4d50146105c25780636e68b82e146103a75780637284e4161461036157806391d14854146103215780639a6fc8f514610287578063a217fddf1461026b578063ceb2097114610230578063d547741f146101f7578063ec87621c146101bc5763feaf968c146100c457600080fd5b346101b75760003660031901126101b7576001600160501b036002541680156101725780600052600160205260406000209061016e60606040519361010885610829565b8054948581526001820154908160208201526001600160501b036003600285015494856040850152015416938491015260405195869586936080936001600160501b0393979692978460a088019916875260208701526040860152606085015216910152565b0390f35b60405162461bcd60e51b815260206004820152601760248201527f4e6f207072696365206461746120617661696c61626c650000000000000000006044820152606490fd5b600080fd5b346101b75760003660031901126101b75760206040517f241ecf16d79d0f8dbfb92cbc07fe17840425976cf0667f022fe9877caa831b088152f35b346101b75761022e610208366107b4565b9061022961022482600052600060205260016040600020015490565b610899565b6108d7565b005b346101b75760003660031901126101b75760206040517f80a586cc4ecf40a390b370be075aa38ab3cc512c5c1a7bc1007974dbdf2663c78152f35b346101b75760003660031901126101b757602060405160008152f35b346101b75760203660031901126101b7576004356001600160501b0381168082036101b757806000526001602052600260406000200154156102e357600052600160205260406000209061016e60606040519361010885610829565b60405162461bcd60e51b8152602060048201526016602482015275139bc819185d1848199bdc881d1a1a5cc81c9bdd5b9960521b6044820152606490fd5b346101b75761032f366107b4565b90600052600060205260406000209060018060a01b0316600052602052602060ff604060002054166040519015158152f35b346101b75760003660031901126101b75761016e6040805190610384818361085b565b600c82526b149091951bdad95b8bd554d160a21b602083015251918291826107fd565b346101b75760403660031901126101b7573360009081527ff3df2cad0328610bdabaaa4666352f9e79b67a748d22942cd8aec92e2fbda4b76020526040902054600435906024359060ff16156104ea57600254916001600160501b038316916001600160501b0383146104d4577f7d8cee5d1217e47a14a662098e84a7758580aaf78f430c07c543249234e867bf936001600160501b036001606095011680916001600160501b031916176002556001600160501b03600360405161046b81610829565b858152602081018581526040820190868252888301958087526000526001602052604060002092518355516001830155516002820155019151166001600160501b03198254161790556001600160501b03600254169160405192835260208301526040820152a1005b634e487b7160e01b600052601160045260246000fd5b6105be6104f633610980565b6105a660116105247f80a586cc4ecf40a390b370be075aa38ab3cc512c5c1a7bc1007974dbdf2663c7610ac0565b9260376040519485927f416363657373436f6e74726f6c3a206163636f756e7420000000000000000000602085015261056681518092602086880191016107da565b83017001034b99036b4b9b9b4b733903937b6329607d1b838201526105958251809360206048850191016107da565b01010301601f19810183528261085b565b60405162461bcd60e51b8152918291600483016107fd565b0390fd5b346101b75760003660031901126101b757602060405160018152f35b346101b7576105ec366107b4565b336001600160a01b038216036106055761022e916108d7565b60405162461bcd60e51b815260206004820152602f60248201527f416363657373436f6e74726f6c3a2063616e206f6e6c792072656e6f756e636560448201526e103937b632b9903337b91039b2b63360891b6064820152608490fd5b346101b75760003660031901126101b757602060405160088152f35b346101b75761068c366107b4565b906106a861022482600052600060205260016040600020015490565b6000818152602081815260408083206001600160a01b038616845290915290205460ff16156106d357005b6000818152602081815260408083206001600160a01b0395909516808452949091528120805460ff19166001179055339291907f2f8788117e7eff1d82e926ec794901d17c78024a50270940304540a733656f0d9080a4005b346101b75760203660031901126101b7576020610759600435600052600060205260016040600020015490565b604051908152f35b346101b75760203660031901126101b7576004359063ffffffff60e01b82168092036101b757602091637965db0b60e01b81149081156107a3575b5015158152f35b6301ffc9a760e01b1490508361079c565b60409060031901126101b757600435906024356001600160a01b03811681036101b75790565b60005b8381106107ed5750506000910152565b81810151838201526020016107dd565b6040916020825261081d81518092816020860152602086860191016107da565b601f01601f1916010190565b6080810190811067ffffffffffffffff82111761084557604052565b634e487b7160e01b600052604160045260246000fd5b90601f8019910116810190811067ffffffffffffffff82111761084557604052565b67ffffffffffffffff811161084557601f01601f191660200190565b60008181526020818152604080832033845290915290205460ff16156108bc5750565b6105be906105a660116105246108d133610980565b93610ac0565b6000818152602081815260408083206001600160a01b038616845290915290205460ff16610903575050565b6000818152602081815260408083206001600160a01b0395909516808452949091528120805460ff19169055339291907ff6391f5c32d9c69d2a47ea670b442974b53935d1edc7fd64eb21e047a839171b9080a4565b90815181101561096a570160200190565b634e487b7160e01b600052603260045260246000fd5b60009061098d602a61087d565b9161099b604051938461085b565b602a83526109a9602a61087d565b6020840190601f1901368237835115610aac5760309053825160011015610a98576078602184015350602960005b60018211610a2c5750506109e85790565b606460405162461bcd60e51b815260206004820152602060248201527f537472696e67733a20686578206c656e67746820696e73756666696369656e746044820152fd5b9091600f81166010811015610a84576f181899199a1a9b1b9c1cb0b131b232b360811b901a610a5b8486610959565b5360041c918015610a705760001901906109d7565b634e487b7160e01b82526011600452602482fd5b634e487b7160e01b83526032600452602483fd5b634e487b7160e01b81526032600452602490fd5b634e487b7160e01b82526032600452602482fd5b600090610acd604261087d565b91610adb604051938461085b565b60428352610ae9604261087d565b6020840190601f1901368237835115610aac5760309053825160011015610a98576078602184015350604160005b60018211610b285750506109e85790565b9091600f81166010811015610a84576f181899199a1a9b1b9c1cb0b131b232b360811b901a610b578486610959565b5360041c918015610a70576000190190610b1756fea26469706673582212204b8893f57ec2e205e44184550c0720a9547b92fbc506580c67b273b21f86a2c664736f6c634300081a00332f8788117e7eff1d82e926ec794901d17c78024a50270940304540a733656f0d241ecf16d79d0f8dbfb92cbc07fe17840425976cf0667f022fe9877caa831b08e84508f2c7fa9c351146748b3025cb78b45df37d868e48c6a75102fecdeee645ad3228b676f7d3cd4284a5443f17f1962b36e491b30a40b2405849e597ba5fb5a2646970667358221220562b92fc12c5f00ddaa72c707f6068eb859ec99e6d3881ed50efc0ddfacb3fd464736f6c634300081a0033",
  "devdoc": {
    "author": "Accelerate Finance",
    "details": "This contract is responsible for creating new instances of the PriceFeedFactory contract.",
    "events": {
      "PriceFeedDeployed(address)": {
        "params": {
          "priceFeed": "deployed PriceFeed address."
        }
      }
    },
    "kind": "dev",
    "methods": {
      "constructor": {
        "details": "Inherits from the Auth contract to implement access control.",
        "params": {
          "deployer": "The address of the entity deploying the contract, serving as the initial administrator."
        }
      },
      "newPriceFeed(address)": {
        "details": "Only authorized users can call this function.",
        "params": {
          "manager": "The address of the manager for the new PriceFeed contract."
        },
        "returns": {
          "_0": "address  The address of the newly created PriceFeed contract."
        }
      }
    },
    "title": "PriceFeedFactory",
    "version": 1
  },
  "userdoc": {
    "events": {
      "PriceFeedDeployed(address)": {
        "notice": "Event emitted when PriceFeed is deployed."
      }
    },
    "kind": "user",
    "methods": {
      "constructor": {
        "notice": "Constructor function that initializes the contract and sets the deployer as the authorized user."
      },
      "deny(address)": {
        "notice": "Remove user as a ward (remove admin access)"
      },
      "newPriceFeed(address)": {
        "notice": "Creates a new instance of the PriceFeed contract."
      },
      "rely(address)": {
        "notice": "Make user a ward (give them admin access)"
      },
      "wards(address)": {
        "notice": "Returns whether the target is a ward (has admin access)"
      }
    },
    "notice": "Allows authorized users to deploy new PriceFeedFactory contracts.",
    "version": 1
  },
  "storageLayout": {
    "storage": [
      {
        "astId": 7362,
        "contract": "contracts/factories/PriceFeedFactory.sol:PriceFeedFactory",
        "label": "wards",
        "offset": 0,
        "slot": "0",
        "type": "t_mapping(t_address,t_uint256)"
      }
    ],
    "types": {
      "t_address": {
        "encoding": "inplace",
        "label": "address",
        "numberOfBytes": "20"
      },
      "t_mapping(t_address,t_uint256)": {
        "encoding": "mapping",
        "key": "t_address",
        "label": "mapping(address => uint256)",
        "numberOfBytes": "32",
        "value": "t_uint256"
      },
      "t_uint256": {
        "encoding": "inplace",
        "label": "uint256",
        "numberOfBytes": "32"
      }
    }
  }
}