{
  "address": "0x9fE46736679d2D9a65F0992F2272dE9f3c7fa6e0",
  "abi": [
    {
      "inputs": [
        {
          "internalType": "address",
          "name": "deployer",
          "type": "address"
        }
      ],
      "stateMutability": "nonpayable",
      "type": "constructor"
    },
    {
      "anonymous": false,
      "inputs": [
        {
          "indexed": true,
          "internalType": "address",
          "name": "user",
          "type": "address"
        }
      ],
      "name": "Deny",
      "type": "event"
    },
    {
      "anonymous": false,
      "inputs": [
        {
          "indexed": false,
          "internalType": "address",
          "name": "proxy",
          "type": "address"
        },
        {
          "indexed": false,
          "internalType": "address",
          "name": "proxyAdmin",
          "type": "address"
        },
        {
          "indexed": false,
          "internalType": "address",
          "name": "implementation",
          "type": "address"
        },
        {
          "indexed": false,
          "internalType": "address",
          "name": "guardian",
          "type": "address"
        }
      ],
      "name": "RBFDeployed",
      "type": "event"
    },
    {
      "anonymous": false,
      "inputs": [
        {
          "indexed": true,
          "internalType": "address",
          "name": "user",
          "type": "address"
        }
      ],
      "name": "Rely",
      "type": "event"
    },
    {
      "inputs": [
        {
          "internalType": "address",
          "name": "user",
          "type": "address"
        }
      ],
      "name": "deny",
      "outputs": [],
      "stateMutability": "nonpayable",
      "type": "function"
    },
    {
      "inputs": [
        {
          "components": [
            {
              "internalType": "string",
              "name": "name",
              "type": "string"
            },
            {
              "internalType": "string",
              "name": "symbol",
              "type": "string"
            },
            {
              "internalType": "address",
              "name": "assetToken",
              "type": "address"
            },
            {
              "internalType": "address",
              "name": "depositTreasury",
              "type": "address"
            },
            {
              "internalType": "address",
              "name": "dividendTreasury",
              "type": "address"
            },
            {
              "internalType": "address",
              "name": "priceFeed",
              "type": "address"
            },
            {
              "internalType": "address",
              "name": "manager",
              "type": "address"
            }
          ],
          "internalType": "struct RBFInitializeData",
          "name": "data",
          "type": "tuple"
        },
        {
          "internalType": "address",
          "name": "guardian",
          "type": "address"
        }
      ],
      "name": "newRBF",
      "outputs": [
        {
          "internalType": "address",
          "name": "",
          "type": "address"
        },
        {
          "internalType": "address",
          "name": "",
          "type": "address"
        },
        {
          "internalType": "address",
          "name": "",
          "type": "address"
        }
      ],
      "stateMutability": "nonpayable",
      "type": "function"
    },
    {
      "inputs": [
        {
          "internalType": "address",
          "name": "user",
          "type": "address"
        }
      ],
      "name": "rely",
      "outputs": [],
      "stateMutability": "nonpayable",
      "type": "function"
    },
    {
      "inputs": [
        {
          "internalType": "address",
          "name": "",
          "type": "address"
        }
      ],
      "name": "wards",
      "outputs": [
        {
          "internalType": "uint256",
          "name": "",
          "type": "uint256"
        }
      ],
      "stateMutability": "view",
      "type": "function"
    }
  ],
  "transactionHash": "0x1f41f1aad5fdfe0af98efb9a348505c27a7c8c22254bb0407cb30f2ac663c8cd",
  "args": [
    "0xf39Fd6e51aad88F6F4ce6aB8827279cffFb92266"
  ],
  "numDeployments": 1,
  "solcInputHash": "9572697e3a93836ab3d466dd3e23e495",
  "bytecode": "0x608034609357601f614a5b38819003918201601f19168301916001600160401b03831184841017609857808492602094604052833981010312609357516001600160a01b038116908190036093578060005260006020526001604060002055604051907fdd0e34038ac38b2a1ce960229778ac48a8719bc900b6c4f8d0475c6e8b385a60600080a26149ac90816100af8239f35b600080fd5b634e487b7160e01b600052604160045260246000fdfe6080604052600436101561001257600080fd5b6000803560e01c806365fae35e146105c45780639c52a7f114610554578063bf353dbb1461051c5763f6eecd831461004957600080fd5b346105195760403660031901126105195760043567ffffffffffffffff81116105155760e060031982360301126105155760405160e0810181811067ffffffffffffffff82111761050157604052816004013567ffffffffffffffff81116104fd576100bb906004369185010161069c565b8152602482013567ffffffffffffffff81116104fd576100e1906004369185010161069c565b91602082019283526100f560448201610650565b6040830190815261010860648301610650565b936060840194855261011c60848401610650565b946080850195865261014360c461013560a48701610650565b9560a0880196875201610650565b60c08601908152946024356001600160a01b03811694908590036104f95733895288602052610178600160408b2054146106f3565b604051612ee08082019082821067ffffffffffffffff8311176104e557908291611a97833903908af09687156104da5760405161066f8082019082821067ffffffffffffffff8311176104c6579082916107b3833903908bf09788156104bb576040516001600160a01b03918216999091169790610c758082019067ffffffffffffffff8211838310176104a757828e98979695949392608092610e2283398d81528c60208201526060604082015289606082015203019087f0801561042c576001600160a01b03169a8b3b156104a35761027c9561028f604051998a988998636e41f25f60e01b8a52602060048b01525160e060248b01526101048a0190610735565b90518882036023190160448a0152610735565b94516001600160a01b0390811660648801529051811660848701529051811660a48601529051811660c485015290511660e4830152038183895af1801561042c5761048f575b50813b1561046b578460405163f2fde38b60e01b8152826004820152818160248183885af1801561046f5761047a575b5050833b1561046b5760405163f2fde38b60e01b815233600482015285908181602481838a5af1801561046f57610456575b5050604051638da5cb5b60e01b8152602081600481865afa90811561042c576103739183918891610437575b506001600160a01b031614610795565b604051638da5cb5b60e01b8152602081600481885afa90811561042c57916103d36080927feceddf4857516360945567c2bfb79db089d56982d251e0bebb3f868180d2e75694606099916103fd575b506001600160a01b03163314610795565b6040519086825284602083015285604083015287820152a160405192835260208301526040820152f35b61041f915060203d602011610425575b6104178183610664565b810190610776565b386103c2565b503d61040d565b6040513d88823e3d90fd5b610450915060203d602011610425576104178183610664565b38610363565b8161046091610664565b61046b578438610337565b8480fd5b6040513d84823e3d90fd5b8161048491610664565b61046b578438610305565b8561049c91969296610664565b93386102d5565b8680fd5b634e487b7160e01b8e52604160045260248efd5b6040513d8c823e3d90fd5b634e487b7160e01b8d52604160045260248dfd5b6040513d8b823e3d90fd5b634e487b7160e01b8c52604160045260248cfd5b8880fd5b8380fd5b634e487b7160e01b84526041600452602484fd5b5080fd5b80fd5b5034610519576020366003190112610519576020906040906001600160a01b03610544610635565b1681528083522054604051908152f35b50346105195760203660031901126105195761056e610635565b3382528160205261058560016040842054146106f3565b6001600160a01b03168082526020829052604082208290557f184450df2e323acec0ed3b5c7531b81f9b4cdef7914dfd4c0a4317416bb5251b8280a280f35b5034610519576020366003190112610519576105de610635565b338252816020526105f560016040842054146106f3565b6001600160a01b0316808252602082905260408220600190557fdd0e34038ac38b2a1ce960229778ac48a8719bc900b6c4f8d0475c6e8b385a608280a280f35b600435906001600160a01b038216820361064b57565b600080fd5b35906001600160a01b038216820361064b57565b90601f8019910116810190811067ffffffffffffffff82111761068657604052565b634e487b7160e01b600052604160045260246000fd5b81601f8201121561064b5780359067ffffffffffffffff821161068657604051926106d1601f8401601f191660200185610664565b8284526020838301011161064b57816000926020809301838601378301015290565b156106fa57565b60405162461bcd60e51b8152602060048201526013602482015272105d5d1a0bdb9bdd0b585d5d1a1bdc9a5e9959606a1b6044820152606490fd5b919082519283825260005b848110610761575050826000602080949584010152601f8019910116010190565b80602080928401015182828601015201610740565b9081602091031261064b57516001600160a01b038116810361064b5790565b1561079c57565b634e487b7160e01b600052600160045260246000fdfe60808060405234605a5760008054336001600160a01b0319821681178355916001600160a01b03909116907f8be0079c531659141344cd1fd0a4f28419497f9722a3daafe3b4186f6b6457e09080a361060f90816100608239f35b600080fdfe608080604052600436101561001357600080fd5b60009081803560e01c918263204e1c7a1461046d5750508063715018a6146104135780637eff275e146103825780638da5cb5b1461035b5780639623609d1461024957806399a88ec4146101b4578063f2fde38b146100ee5763f3b7dead1461007b57600080fd5b346100eb5760203660031901126100eb57808060046001600160a01b036100a06104ad565b6040516303e1469160e61b815291165afa6100b9610532565b90156100e75780516020916001600160a01b03916100de919081018401908401610562565b16604051908152f35b5080fd5b80fd5b50346100eb5760203660031901126100eb576101086104ad565b610110610581565b6001600160a01b031680156101605781546001600160a01b03198116821783556001600160a01b03167f8be0079c531659141344cd1fd0a4f28419497f9722a3daafe3b4186f6b6457e08380a380f35b60405162461bcd60e51b815260206004820152602660248201527f4f776e61626c653a206e6577206f776e657220697320746865207a65726f206160448201526564647265737360d01b6064820152608490fd5b50346100eb5760403660031901126100eb57806101cf6104ad565b6101d76104c8565b906101e0610581565b6001600160a01b031690813b1561024557604051631b2ce7f360e11b81526001600160a01b0390911660048201529082908290602490829084905af1801561023a576102295750f35b81610233916104de565b6100eb5780f35b6040513d84823e3d90fd5b5050fd5b5060603660031901126100eb5761025e6104ad565b906102676104c8565b6044359267ffffffffffffffff8411610353573660238501121561035357836004013561029381610516565b946102a160405196876104de565b81865236602483830101116103575781859260246020930183890137860101526102c9610581565b6001600160a01b0316803b15610353576040805163278f794360e11b81526001600160a01b0390931660048401526024830152835160448301819052835b81811061033d57848085818187816064818a86838284010152601f8019910116810103019134905af1801561023a576102295750f35b8060208092880101516064828701015201610307565b8280fd5b8480fd5b50346100eb57806003193601126100eb57546040516001600160a01b039091168152602090f35b50346100eb5760403660031901126100eb578061039d6104ad565b6103a56104c8565b906103ae610581565b6001600160a01b031690813b15610245576040516308f2839760e41b81526001600160a01b039091166004820152919081908390602490829084905af18015610406576103f85780f35b610401916104de565b388180f35b50604051903d90823e3d90fd5b50346100eb57806003193601126100eb5761042c610581565b80546001600160a01b03198116825581906001600160a01b03167f8be0079c531659141344cd1fd0a4f28419497f9722a3daafe3b4186f6b6457e08280a380f35b8190346104aa5760203660031901126104aa5781906004906001600160a01b036104956104ad565b635c60da1b60e01b8352165afa6100b9610532565b50fd5b600435906001600160a01b03821682036104c357565b600080fd5b602435906001600160a01b03821682036104c357565b90601f8019910116810190811067ffffffffffffffff82111761050057604052565b634e487b7160e01b600052604160045260246000fd5b67ffffffffffffffff811161050057601f01601f191660200190565b3d1561055d573d9061054382610516565b9161055160405193846104de565b82523d6000602084013e565b606090565b908160209103126104c357516001600160a01b03811681036104c35790565b6000546001600160a01b0316330361059557565b606460405162461bcd60e51b815260206004820152602060248201527f4f776e61626c653a2063616c6c6572206973206e6f7420746865206f776e65726044820152fdfea264697066735822122058b9e5a891b425518778f28ada758022b0fa6de418f37fd8bf81041900605fe864736f6c634300081a00336080604052610c7580380380610014816102ce565b92833981016060828203126102c95761002c82610309565b61003860208401610309565b604084015190936001600160401b0382116102c957019082601f830112156102c95781519161006e6100698461031d565b6102ce565b928084526020840194602082840101116102c95784602061008f9301610338565b803b1561026e577f360894a13ba1a3210667c828492db98dca3e2076cc3735a920a3ca505d382bbc80546001600160a01b0319166001600160a01b0383169081179091557fbc7cd75a20ee27fd9adebab32041f755214dbc6bffa90cc0225b39da2e5c2d3b600080a2815115801590610266575b6101e0575b5050600080516020610c5583398151915254604080516001600160a01b03808416825290941660208501819052939192507f7e644d79422f17c01e4894b5f4f588d331ebfa28653d42ae832dc59e38c9798f91a1811561018c576001600160a01b03191617600080516020610c5583398151915255604051610846908161040f8239f35b60405162461bcd60e51b815260206004820152602660248201527f455243313936373a206e65772061646d696e20697320746865207a65726f206160448201526564647265737360d01b6064820152608490fd5b600080610255946101f160606102ce565b94602786527f416464726573733a206c6f772d6c6576656c2064656c65676174652063616c6c6020870152660819985a5b195960ca1b60408701525190845af43d1561025e573d916102456100698461031d565b9283523d6000602085013e61035b565b50388080610108565b60609161035b565b506000610103565b60405162461bcd60e51b815260206004820152602d60248201527f455243313936373a206e657720696d706c656d656e746174696f6e206973206e60448201526c1bdd08184818dbdb9d1c9858dd609a1b6064820152608490fd5b600080fd5b6040519190601f01601f191682016001600160401b038111838210176102f357604052565b634e487b7160e01b600052604160045260246000fd5b51906001600160a01b03821682036102c957565b6001600160401b0381116102f357601f01601f191660200190565b60005b83811061034b5750506000910152565b818101518382015260200161033b565b919290156103bd575081511561036f575090565b3b156103785790565b60405162461bcd60e51b815260206004820152601d60248201527f416464726573733a2063616c6c20746f206e6f6e2d636f6e74726163740000006044820152606490fd5b8251909150156103d05750805190602001fd5b6044604051809262461bcd60e51b8252602060048301526104008151809281602486015260208686019101610338565b601f01601f19168101030190fdfe60806040523661013f576000805160206107d183398151915254610033906001600160a01b03165b6001600160a01b031690565b330361013a576000356001600160e01b031916631b2ce7f360e11b8103610065575061005d61045b565b602081519101f35b63278f794360e11b8103610081575061007c6103ca565b61005d565b6308f2839760e41b8103610098575061007c6102e4565b6303e1469160e61b81036100af575061007c61023e565b635c60da1b60e01b036100c45761007c610203565b60405162461bcd60e51b815260206004820152604260248201527f5472616e73706172656e745570677261646561626c6550726f78793a2061646d60448201527f696e2063616e6e6f742066616c6c6261636b20746f2070726f78792074617267606482015261195d60f21b608482015260a490fd5b61018b565b6000805160206107d183398151915254610161906001600160a01b0316610027565b330361018b576000356001600160e01b031916631b2ce7f360e11b8103610065575061005d61045b565b6000805160206107f18339815191525460009081906001600160a01b0316368280378136915af43d6000803e156101c1573d6000f35b3d6000fd5b634e487b7160e01b600052604160045260246000fd5b90601f8019910116810190811067ffffffffffffffff8211176101fe57604052565b6101c6565b61020b610581565b60018060a01b036000805160206107f183398151915254166040519060208201526020815261023b6040826101dc565b90565b610246610581565b60018060a01b036000805160206107d183398151915254166040519060208201526020815261023b6040826101dc565b600435906001600160a01b038216820361028c57565b600080fd5b602090600319011261028c576004356001600160a01b038116810361028c5790565b67ffffffffffffffff81116101fe57601f01601f191660200190565b604051906102de6020836101dc565b60008252565b6102ec610581565b3660041161028c576001600160a01b0361030536610291565b166000805160206107d1833981519152547f7e644d79422f17c01e4894b5f4f588d331ebfa28653d42ae832dc59e38c9798f6040805160018060a01b0384168152846020820152a18115610376576001600160a01b031916176000805160206107d18339815191525561023b6102cf565b60405162461bcd60e51b815260206004820152602660248201527f455243313936373a206e65772061646d696e20697320746865207a65726f206160448201526564647265737360d01b6064820152608490fd5b3660041161028c57604036600319011261028c576103e6610276565b6024359067ffffffffffffffff821161028c573660238301121561028c57816004013590610413826102b3565b9161042160405193846101dc565b808352366024828601011161028c576020816000926024610453970183870137840101526001600160a01b0316610588565b61023b6102cf565b610463610581565b3660041161028c576001600160a01b0361047c36610291565b166020906040519061048e83836101dc565b60008252803b15610526576000805160206107f183398151915280546001600160a01b03191682179055807fbc7cd75a20ee27fd9adebab32041f755214dbc6bffa90cc0225b39da2e5c2d3b600080a281511580159061051e575b610504575b50506104fd60405191826101dc565b6000815290565b61051691610510610664565b916106af565b5038806104ee565b5060006104e9565b60405162461bcd60e51b815260048101849052602d60248201527f455243313936373a206e657720696d706c656d656e746174696f6e206973206e60448201526c1bdd08184818dbdb9d1c9858dd609a1b6064820152608490fd5b3461028c57565b803b15610609576000805160206107f183398151915280546001600160a01b0319166001600160a01b0383169081179091557fbc7cd75a20ee27fd9adebab32041f755214dbc6bffa90cc0225b39da2e5c2d3b600080a2815115801590610601575b6105f2575050565b6105fe91610510610664565b50565b5060016105ea565b60405162461bcd60e51b815260206004820152602d60248201527f455243313936373a206e657720696d706c656d656e746174696f6e206973206e60448201526c1bdd08184818dbdb9d1c9858dd609a1b6064820152608490fd5b604051906106736060836101dc565b60278252660819985a5b195960ca1b6040837f416464726573733a206c6f772d6c6576656c2064656c65676174652063616c6c60208201520152565b60008061023b9493602081519101845af43d156106ee573d916106d1836102b3565b926106df60405194856101dc565b83523d6000602085013e610742565b606091610742565b156106fd57565b60405162461bcd60e51b815260206004820152601d60248201527f416464726573733a2063616c6c20746f206e6f6e2d636f6e74726163740000006044820152606490fd5b919290156107625750815115610756575090565b61023b903b15156106f6565b8251909150156107755750805190602001fd5b6040519062461bcd60e51b8252602060048301528181519182602483015260005b8381106107b85750508160006044809484010152601f80199101168101030190fd5b6020828201810151604487840101528593500161079656feb53127684a568b3173ae13b9f8a6016e243e63b6e8ee1178d6a717850b5d6103360894a13ba1a3210667c828492db98dca3e2076cc3735a920a3ca505d382bbca26469706673582212205a24e37b8404c988bf286ad5736caa678faca592c0f556e954fd90f779592ec164736f6c634300081a0033b53127684a568b3173ae13b9f8a6016e243e63b6e8ee1178d6a717850b5d61036080806040523460bd576000549060ff8260081c16606b575060ff808216036031575b604051612e1d90816100c38239f35b60ff90811916176000557f7f26b83ff96e1f2b6a682f133852f6798a09c465da95921460cefb3847402498602060405160ff8152a1386022565b62461bcd60e51b815260206004820152602760248201527f496e697469616c697a61626c653a20636f6e747261637420697320696e697469604482015266616c697a696e6760c81b6064820152608490fd5b600080fdfe608080604052600436101561001357600080fd5b60003560e01c90816301ffc9a71461203f5750806306fdde0314611fa9578063095ea7b314611f835780630d1e666714611df75780630ff8cf9b14611a535780631083f76114611a2957806318160ddd14611a0b57806323b872dd1461194c578063248a9ca31461191f57806329d07a51146117965780632f2ff15d146116d6578063313ce567146116ba57806336568abe1461162857806339509351146115d65780633c130d90146115ab578063419759f51461158c578063481c6a75146115625780634880467c146115435780636817031b1461142b5780636e41f25f14610aad57806370a0823114610a74578063715018a614610a17578063741bef1a146109ed578063761f62221461099c5780637e916d1b146109725780638da5cb5b146109495780638e15f4731461092657806391d14854146108d9578063941705051461089e57806395d89b41146107d3578063a217fddf146107b7578063a457c2d714610710578063a9059cbb146106df578063c7cd997f1461057b578063cf6afb7714610551578063d547741f1461050c578063dd62ed3e146104bb578063e0df5b6f146102f1578063e1a45218146102d4578063ec87621c146102ab578063f2fde38b1461021c5763fbfa77cf146101ed57600080fd5b3461021757600036600319011261021757610132546040516001600160a01b039091168152602090f35b600080fd5b34610217576020366003190112610217576102356120e1565b61023d612a22565b6001600160a01b038116156102575761025590612a7a565b005b60405162461bcd60e51b815260206004820152602660248201527f4f776e61626c653a206e6577206f776e657220697320746865207a65726f206160448201526564647265737360d01b6064820152608490fd5b34610217576000366003190112610217576020604051600080516020612da88339815191528152f35b346102175760003660031901126102175760206040516127108152f35b346102175760203660031901126102175760043567ffffffffffffffff81116102175761032290369060040161222a565b61032a61271c565b805167ffffffffffffffff81116104a55761034761013554612121565b601f8111610437575b50602091601f82116001146103c6579181926000926103bb575b50508160011b916000199060031b1c191617610135555b7f9d3b637080c93cf84785a8e847e7c45118d18988dfbaf8acb02b53fcbb14dacb60405160208152806103b66020820161215b565b0390a1005b01519050828061036a565b601f19821692610135600052600080516020612d688339815191529160005b85811061041f57508360019510610406575b505050811b0161013555610381565b015160001960f88460031b161c191690558280806103f7565b919260206001819286850151815501940192016103e5565b610135600052601f820160051c600080516020612d6883398151915201906020831061048f575b601f0160051c600080516020612d6883398151915201905b8181106104835750610350565b60008155600101610476565b600080516020612d68833981519152915061045e565b634e487b7160e01b600052604160045260246000fd5b34610217576040366003190112610217576104d46120e1565b6104dc6120f7565b6001600160a01b039182166000908152606660209081526040808320949093168252928352819020549051908152f35b346102175760403660031901126102175761025560043561052b6120f7565b9061054c6105478260005260c960205260016040600020015490565b61277d565b61293c565b346102175760003660031901126102175761012f546040516001600160a01b039091168152602090f35b34610217576020366003190112610217573360009081527f91078447ce8d1911339809bd9265bbdb2dbed492509d98763c017c12dfca3e7f60205260409020546004359060ff16156106075760207f7e894213faa623a1cd298865e6664deac1321793fd8461719ec6ab4912ca8516916105f9610133541515612294565b8061013455604051908152a1005b6106db61061333612aea565b6106c360116106417f1b1177dc9aafb3727b43ffd70cb0648a09536b74b93b7ca15b76a49116e6ee35612c2a565b9260376040519485927f416363657373436f6e74726f6c3a206163636f756e742000000000000000000060208501526106838151809260208688019101612092565b83017001034b99036b4b9b9b4b733903937b6329607d1b838201526106b2825180936020604885019101612092565b01010301601f1981018352826121ec565b60405162461bcd60e51b8152918291600483016120b5565b0390fd5b34610217576040366003190112610217576107056106fb6120e1565b60243590336127bd565b602060405160018152f35b34610217576040366003190112610217576107296120e1565b60243590336000526066602052604060002060018060a01b038216600052602052604060002054918083106107645761070592039033612466565b60405162461bcd60e51b815260206004820152602560248201527f45524332303a2064656372656173656420616c6c6f77616e63652062656c6f77604482015264207a65726f60d81b6064820152608490fd5b3461021757600036600319011261021757602060405160008152f35b346102175760003660031901126102175760405160006069546107f581612121565b808452906001811690811561087a575060011461082d575b6108298361081d818503826121ec565b604051918291826120b5565b0390f35b60696000908152600080516020612d88833981519152939250905b8082106108605750909150810160200161081d61080d565b919260018160209254838588010152019101909291610848565b60ff191660208086019190915291151560051b8401909101915061081d905061080d565b346102175760003660031901126102175760206040517f1b1177dc9aafb3727b43ffd70cb0648a09536b74b93b7ca15b76a49116e6ee358152f35b34610217576040366003190112610217576108f26120f7565b60043560005260c960205260406000209060018060a01b0316600052602052602060ff604060002054166040519015158152f35b3461021757600036600319011261021757602061094161231c565b604051908152f35b34610217576000366003190112610217576033546040516001600160a01b039091168152602090f35b346102175760003660031901126102175761012e546040516001600160a01b039091168152602090f35b34610217576000366003190112610217576020620f42406109e46109be61231c565b610132546001600160a01b03166000908152606560205260409020546122f2565b6122f2565b04604051908152f35b3461021757600036600319011261021757610130546040516001600160a01b039091168152602090f35b3461021757600036600319011261021757610a30612a22565b603380546001600160a01b031981169091556000906001600160a01b03167f8be0079c531659141344cd1fd0a4f28419497f9722a3daafe3b4186f6b6457e08280a3005b34610217576020366003190112610217576020610941610a926120e1565b6001600160a01b031660009081526065602052604090205490565b346102175760203660031901126102175760043567ffffffffffffffff81116102175760e060031982360301126102175760405160e0810181811067ffffffffffffffff8211176104a557604052816004013567ffffffffffffffff811161021757610b1f906004369185010161222a565b8152602482013567ffffffffffffffff811161021757610b45906004369185010161222a565b9160208201928352610b596044820161210d565b60408301908152610b6c6064830161210d565b60608401908152610b7f6084840161210d565b9160808501928352610ba660c4610b9860a4870161210d565b9560a088019687520161210d565b9460c081019586526000549660ff8860081c16159788809961141e575b8015611407575b156113ab5760ff19811660011760005588611399575b50610c1760ff60005460081c1692610bf7846129c2565b610c00846129c2565b600160fb5551915192610c12816129c2565b6129c2565b80519067ffffffffffffffff82116104a5578190610c36606854612121565b601f8111611322575b50602090601f83116001146112ae576000926112a3575b50508160011b916000199060031b1c1916176068555b80519067ffffffffffffffff82116104a5578190610c8b606954612121565b601f811161122c575b50602090601f83116001146111b8576000926111ad575b50508160011b916000199060031b1c1916176069555b610cd660ff60005460081c16610c12816129c2565b610cdf33612a7a565b80516001600160a01b031615611151575161012d80546001600160a01b0319166001600160a01b03928316179055815116156110f0575161012e80546001600160a01b0319166001600160a01b039283161790558151161561108e575161012f80546001600160a01b0319166001600160a01b0392831617905581511615611036575161013080546001600160a01b0319166001600160a01b0392831617905581511615610fdc57805161013180546001600160a01b0319166001600160a01b0392909216918217905560008181527f81fe90a866a48a634a12852c1be675b683a22307409932a7443b8029347be756602052604090205460ff1615610f6d575b50516001600160a01b031660008181527ff5f43b48833b613af61a2aa61573d51591ce86ef304bb6e01e9115b2a39191de602052604090205460ff1615610eee575b507f1b1177dc9aafb3727b43ffd70cb0648a09536b74b93b7ca15b76a49116e6ee35600081815260c96020527f91078447ce8d1911339809bd9265bbdb2dbed492509d98763c017c12dfca3e808054600080516020612da883398151915291829055604051949391929091907fbd79b86ffe0ab8e8776151514217cd7cacd52c909f66475c3af44e129f0b00ff9080a4610eb857005b60207f7f26b83ff96e1f2b6a682f133852f6798a09c465da95921460cefb38474024989161ff00196000541660005560018152a1005b6001600160a01b03811660009081527ff5f43b48833b613af61a2aa61573d51591ce86ef304bb6e01e9115b2a39191de60205260408120805460ff19166001179055339190600080516020612da8833981519152907f2f8788117e7eff1d82e926ec794901d17c78024a50270940304540a733656f0d9080a481610e22565b6001600160a01b03811660009081527f81fe90a866a48a634a12852c1be675b683a22307409932a7443b8029347be75660205260408120805460ff191660011790553391907f2f8788117e7eff1d82e926ec794901d17c78024a50270940304540a733656f0d8180a482610de0565b60405162461bcd60e51b815260206004820152602c60248201527f5242463a206d616e6167657220616464726573732063616e206e6f742062652060448201526b7a65726f206164647265737360a01b6064820152608490fd5b60405162461bcd60e51b815260206004820152602a60248201527f5242463a20707269636546656564416464722063616e206e6f74206265207a65604482015269726f206164647265737360b01b6064820152608490fd5b60405162461bcd60e51b815260206004820152603460248201527f5242463a206469766964656e64547265617375727920616464726573732063616044820152736e6e6f74206265207a65726f206164647265737360601b6064820152608490fd5b60405162461bcd60e51b815260206004820152603360248201527f5242463a206465706f736974547265617375727920616464726573732063616e6044820152726e6f74206265207a65726f206164647265737360681b6064820152608490fd5b60405162461bcd60e51b815260206004820152602e60248201527f5242463a206173736574546f6b656e20616464726573732063616e6e6f74206260448201526d65207a65726f206164647265737360901b6064820152608490fd5b015190508880610cab565b60696000908152600080516020612d888339815191529350601f198516905b81811061121457509084600195949392106111fb575b505050811b01606955610cc1565b015160001960f88460031b161c191690558880806111ed565b929360206001819287860151815501950193016111d7565b9091506069600052601f830160051c600080516020612d8883398151915201906020841061128d575b90601f8493920160051c600080516020612d8883398151915201905b81811061127e5750610c94565b60008155849350600101611271565b600080516020612d888339815191529150611255565b015190508980610c56565b60686000908152600080516020612dc88339815191529350601f198516905b81811061130a57509084600195949392106112f1575b505050811b01606855610c6c565b015160001960f88460031b161c191690558980806112e3565b929360206001819287860151815501950193016112cd565b9091506068600052601f830160051c600080516020612dc8833981519152019060208410611383575b90601f8493920160051c600080516020612dc883398151915201905b8181106113745750610c3f565b60008155849350600101611367565b600080516020612dc8833981519152915061134b565b61ffff19166101011760005588610be0565b60405162461bcd60e51b815260206004820152602e60248201527f496e697469616c697a61626c653a20636f6e747261637420697320616c72656160448201526d191e481a5b9a5d1a585b1a5e995960921b6064820152608490fd5b50303b158015610bca5750600160ff821614610bca565b50600160ff821610610bc3565b34610217576020366003190112610217576114446120e1565b61144c61271c565b6001600160a01b031680156114f057610132546001600160a01b0381166114ab576001600160a01b0319168117610132556040519081527fd459c7242e23d490831b5676a611c4342d899d28f342d89ae80793e56a930f3090602090a1005b60405162461bcd60e51b815260206004820152601a60248201527f5242463a207661756c744164647220616c7265616479207365740000000000006044820152606490fd5b60405162461bcd60e51b815260206004820152602560248201527f5242463a207661756c74416464722063616e6e6f74206265207a65726f206164604482015264647265737360d81b6064820152608490fd5b3461021757600036600319011261021757602061013454604051908152f35b3461021757600036600319011261021757610131546040516001600160a01b039091168152602090f35b3461021757600036600319011261021757602061013354604051908152f35b346102175760003660031901126102175761082960405161081d816115cf8161215b565b03826121ec565b34610217576040366003190112610217576107056115f26120e1565b336000526066602052604060002060018060a01b03821660005260205261162160406000206024359054612271565b9033612466565b34610217576040366003190112610217576116416120f7565b336001600160a01b0382160361165d576102559060043561293c565b60405162461bcd60e51b815260206004820152602f60248201527f416363657373436f6e74726f6c3a2063616e206f6e6c792072656e6f756e636560448201526e103937b632b9903337b91039b2b63360891b6064820152608490fd5b3461021757600036600319011261021757602060405160068152f35b34610217576040366003190112610217576004356116f26120f7565b9061170e6105478260005260c960205260016040600020015490565b8060005260c9602052604060002060018060a01b03831660005260205260ff604060002054161561173b57005b600081815260c9602090815260408083206001600160a01b0395909516808452949091528120805460ff19166001179055339291907f2f8788117e7eff1d82e926ec794901d17c78024a50270940304540a733656f0d9080a4005b34610217576000366003190112610217576117af61271c565b6117bd610133541515612294565b6101345480156118c457610132546001600160a01b031690811561187f577fddf252ad1be2c89b69c2b068fc378daa952ba7f163c4a11628f55a4df523b3ef60208261180d600094606754612271565b6067558484526065825260408420818154019055604051908152a37f680bd65d4a02c56cfd447a74c5b2a4f599c7a926573ea68782d2d695121e4ad8606060018060a01b03610132541661013354610134549060405192835260208301526040820152a1600061013381905561013455005b60405162461bcd60e51b815260206004820152601f60248201527f45524332303a206d696e7420746f20746865207a65726f2061646472657373006044820152606490fd5b60405162461bcd60e51b815260206004820152602d60248201527f5242463a206465706f7369744d696e74416d6f756e74206d757374206265206760448201526c0726561746572207468616e203609c1b6064820152608490fd5b3461021757602036600319011261021757602061094160043560005260c960205260016040600020015490565b34610217576060366003190112610217576119656120e1565b61196d6120f7565b6001600160a01b0382166000908152606660209081526040808320338452909152902054916044359190600184016119aa575b61070593506127bd565b8284106119c6576119c18361070595033383612466565b6119a0565b60405162461bcd60e51b815260206004820152601d60248201527f45524332303a20696e73756666696369656e7420616c6c6f77616e63650000006044820152606490fd5b34610217576000366003190112610217576020606754604051908152f35b346102175760003660031901126102175761012d546040516001600160a01b039091168152602090f35b3461021757600036600319011261021757611a6c61271c565b611a7461256e565b61012d5461012f546040516370a0823160e01b81526001600160a01b03918216600482018190529190921691602081602481865afa908115611c6657600091611dc5575b508015611d6e576067548015611d1957610132546001600160a01b03168015611cc9576001600160a01b03811660009081526065602052604090205415611c725760405163cf6afb7760e01b815292602084600481855afa938415611c6657600094611c19575b506001600160a01b03841615611bbf576109df611b4f9260018060a01b0316600052606560205260406000205490565b04918215611b6757611b60936125c4565b600160fb55005b60405162461bcd60e51b815260206004820152602a60248201527f5242463a206469766964656e64416d6f756e74206d7573742067726561746572604482015269207468616e207a65726f60b01b6064820152608490fd5b60405162461bcd60e51b815260206004820152602c60248201527f5242463a207661756c74206469766964656e6454726561737572792063616e7460448201526b206e6f74206265207a65726f60a01b6064820152608490fd5b6020949194813d602011611c5e575b81611c35602093836121ec565b81010312611c5a5751906001600160a01b0382168203611c5757509286611b1f565b80fd5b5080fd5b3d9150611c28565b6040513d6000823e3d90fd5b60405162461bcd60e51b815260206004820152602960248201527f5242463a207661756c742062616c616e6365206d75737420626520677265617460448201526806572207468616e20360bc1b6064820152608490fd5b60405162461bcd60e51b815260206004820152602260248201527f5242463a207661756c742063616e206e6f74206265207a65726f206164647265604482015261737360f01b6064820152608490fd5b60405162461bcd60e51b815260206004820152602760248201527f5242463a20746f74616c537570706c79206d75737420626520677265617465726044820152660207468616e20360cc1b6064820152608490fd5b60405162461bcd60e51b815260206004820152602960248201527f5242463a20746f74616c4469766964656e64206d75737420626520677265617460448201526806572207468616e20360bc1b6064820152608490fd5b906020823d602011611def575b81611ddf602093836121ec565b81010312611c5757505183611ab8565b3d9150611dd2565b346102175760203660031901126102175761013254600435906001600160a01b03163303611f4557611e2761256e565b61012d546040516370a0823160e01b81523360048201526001600160a01b0390911690602081602481855afa8015611c66578391600091611f10575b5010611ecb5781611eb881604093611e9f7f2d8a08b6430a894aea608bcaa6013d5d3e263bc49110605e4d4ba76930ae5c299661013354612271565b6101335561012e546001600160a01b03169033906125c4565b8151903382526020820152a1600160fb55005b60405162461bcd60e51b815260206004820152601960248201527f5242463a20496e73756666696369656e742062616c616e6365000000000000006044820152606490fd5b9150506020813d602011611f3d575b81611f2c602093836121ec565b810103126102175782905184611e63565b3d9150611f1f565b60405162461bcd60e51b81526020600482015260166024820152751490918e881e5bdd48185c99481b9bdd081d985d5b1d60521b6044820152606490fd5b3461021757604036600319011261021757610705611f9f6120e1565b6024359033612466565b34610217576000366003190112610217576040516000606854611fcb81612121565b808452906001811690811561087a5750600114611ff2576108298361081d818503826121ec565b60686000908152600080516020612dc8833981519152939250905b8082106120255750909150810160200161081d61080d565b91926001816020925483858801015201910190929161200d565b34610217576020366003190112610217576004359063ffffffff60e01b821680920361021757602091637965db0b60e01b8114908115612081575b5015158152f35b6301ffc9a760e01b1490508361207a565b60005b8381106120a55750506000910152565b8181015183820152602001612095565b604091602082526120d58151809281602086015260208686019101612092565b601f01601f1916010190565b600435906001600160a01b038216820361021757565b602435906001600160a01b038216820361021757565b35906001600160a01b038216820361021757565b90600182811c92168015612151575b602083101461213b57565b634e487b7160e01b600052602260045260246000fd5b91607f1691612130565b610135546000929161216c82612121565b80825291600181169081156121d05750600114612187575050565b6101356000908152929350909190600080516020612d688339815191525b8383106121b6575060209250010190565b6001816020929493945483858701015201910191906121a5565b9050602093945060ff929192191683830152151560051b010190565b90601f8019910116810190811067ffffffffffffffff8211176104a557604052565b67ffffffffffffffff81116104a557601f01601f191660200190565b81601f82011215610217578035906122418261220e565b9261224f60405194856121ec565b8284526020838301011161021757816000926020809301838601378301015290565b9190820180921161227e57565b634e487b7160e01b600052601160045260246000fd5b1561229b57565b60405162461bcd60e51b815260206004820152602960248201527f5242463a206465706f736974416d6f756e74206d75737420626520677265617460448201526806572207468616e20360bc1b6064820152608490fd5b8181029291811591840414171561227e57565b519069ffffffffffffffffffff8216820361021757565b61013054604051633fabe5a360e21b81529060a090829060049082906001600160a01b03165afa8015611c6657600090819282809181936123fb575b5069ffffffffffffffffffff16151592836123ef575b836123e5575b50826123db575b50816123c5575b501561238b5790565b60405162461bcd60e51b8152602060048201526012602482015271496e76616c6964207072696365206461746160701b6044820152606490fd5b69ffffffffffffffffffff915016151538612382565b151591503861237b565b1515925038612374565b6000851215935061236e565b94509250505060a0823d60a01161245e575b8161241a60a093836121ec565b81010312611c57575061242c81612305565b90602081015160408201519269ffffffffffffffffffff612454608060608601519501612305565b9294939190612358565b3d915061240d565b6001600160a01b031690811561251d576001600160a01b03169182156124cd5760207f8c5be1e5ebec7d5bd14f71427d1e84f3dd0314c0f7b2291e5b200ac8c7c3b925918360005260668252604060002085600052825280604060002055604051908152a3565b60405162461bcd60e51b815260206004820152602260248201527f45524332303a20617070726f766520746f20746865207a65726f206164647265604482015261737360f01b6064820152608490fd5b60405162461bcd60e51b8152602060048201526024808201527f45524332303a20617070726f76652066726f6d20746865207a65726f206164646044820152637265737360e01b6064820152608490fd5b600260fb541461257f57600260fb55565b60405162461bcd60e51b815260206004820152601f60248201527f5265656e7472616e637947756172643a207265656e7472616e742063616c6c006044820152606490fd5b6040516323b872dd60e01b602082019081526001600160a01b03938416602483015292909316604484015260648084019490945292825291612684919061260c6084836121ec565b60018060a01b031660008060409586519461262788876121ec565b602086527f5361666545524332303a206c6f772d6c6576656c2063616c6c206661696c65646020870152519082855af13d15612714573d916126688361220e565b92612675875194856121ec565b83523d6000602085013e612cd6565b80519081159182156126f1575b50501561269b5750565b5162461bcd60e51b815260206004820152602a60248201527f5361666545524332303a204552433230206f7065726174696f6e20646964206e6044820152691bdd081cdd58d8d9595960b21b6064820152608490fd5b819250906020918101031261021757602001518015158103610217573880612691565b606091612cd6565b3360009081527ff5f43b48833b613af61a2aa61573d51591ce86ef304bb6e01e9115b2a39191de602052604090205460ff161561275557565b6106db61276133612aea565b6106c36011610641600080516020612da8833981519152612c2a565b600081815260c96020908152604080832033845290915290205460ff16156127a25750565b6106db906106c360116106416127b733612aea565b93612c2a565b6001600160a01b03169081156128e9576001600160a01b03169182156128985781600052606560205260406000205481811061284457817fddf252ad1be2c89b69c2b068fc378daa952ba7f163c4a11628f55a4df523b3ef9260209285600052606584520360406000205584600052606582526040600020818154019055604051908152a3565b60405162461bcd60e51b815260206004820152602660248201527f45524332303a207472616e7366657220616d6f756e7420657863656564732062604482015265616c616e636560d01b6064820152608490fd5b60405162461bcd60e51b815260206004820152602360248201527f45524332303a207472616e7366657220746f20746865207a65726f206164647260448201526265737360e81b6064820152608490fd5b60405162461bcd60e51b815260206004820152602560248201527f45524332303a207472616e736665722066726f6d20746865207a65726f206164604482015264647265737360d81b6064820152608490fd5b8060005260c9602052604060002060018060a01b03831660005260205260ff6040600020541661296a575050565b600081815260c9602090815260408083206001600160a01b0395909516808452949091528120805460ff19169055339291907ff6391f5c32d9c69d2a47ea670b442974b53935d1edc7fd64eb21e047a839171b9080a4565b156129c957565b60405162461bcd60e51b815260206004820152602b60248201527f496e697469616c697a61626c653a20636f6e7472616374206973206e6f74206960448201526a6e697469616c697a696e6760a81b6064820152608490fd5b6033546001600160a01b03163303612a3657565b606460405162461bcd60e51b815260206004820152602060248201527f4f776e61626c653a2063616c6c6572206973206e6f7420746865206f776e65726044820152fd5b603380546001600160a01b039283166001600160a01b0319821681179092559091167f8be0079c531659141344cd1fd0a4f28419497f9722a3daafe3b4186f6b6457e0600080a3565b908151811015612ad4570160200190565b634e487b7160e01b600052603260045260246000fd5b600090612af7602a61220e565b91612b0560405193846121ec565b602a8352612b13602a61220e565b6020840190601f1901368237835115612c165760309053825160011015612c02576078602184015350602960005b60018211612b96575050612b525790565b606460405162461bcd60e51b815260206004820152602060248201527f537472696e67733a20686578206c656e67746820696e73756666696369656e746044820152fd5b9091600f81166010811015612bee576f181899199a1a9b1b9c1cb0b131b232b360811b901a612bc58486612ac3565b5360041c918015612bda576000190190612b41565b634e487b7160e01b82526011600452602482fd5b634e487b7160e01b83526032600452602483fd5b634e487b7160e01b81526032600452602490fd5b634e487b7160e01b82526032600452602482fd5b600090612c37604261220e565b91612c4560405193846121ec565b60428352612c53604261220e565b6020840190601f1901368237835115612c165760309053825160011015612c02576078602184015350604160005b60018211612c92575050612b525790565b9091600f81166010811015612bee576f181899199a1a9b1b9c1cb0b131b232b360811b901a612cc18486612ac3565b5360041c918015612bda576000190190612c81565b91929015612d385750815115612cea575090565b3b15612cf35790565b60405162461bcd60e51b815260206004820152601d60248201527f416464726573733a2063616c6c20746f206e6f6e2d636f6e74726163740000006044820152606490fd5b825190915015612d4b5750805190602001fd5b60405162461bcd60e51b81529081906106db90600483016120b556fedf37d27e88e3bd0b85262482997e409a463f5be0ebb19232abf994dd8474090d7fb4302e8e91f9110a6554c2c0a24601252c2a42c2220ca988efcfe399914308241ecf16d79d0f8dbfb92cbc07fe17840425976cf0667f022fe9877caa831b08a2153420d844928b4421650203c77babc8b33d7f2e7b450e2966db0c22097753a2646970667358221220fda3b31f9c499be3df0baf6544e5c5c911c8c5ddc4cf1a7be2e22c75a319714464736f6c634300081a0033a2646970667358221220facc134648a8f4e440cd67dec11ca499a1e7ffce0b9a332a37aacde6e7d6484e64736f6c634300081a0033",
  "devdoc": {
    "author": "Accelerate Finance",
    "details": "This contract is responsible for deploying and managing instances of the RBF contract.",
    "kind": "dev",
    "methods": {
      "constructor": {
        "details": "Inherits from the Auth contract to implement access control.",
        "params": {
          "deployer": "The address of the entity deploying the contract, serving as the initial administrator."
        }
      },
      "newRBF((string,string,address,address,address,address,address),address)": {
        "details": "Deploys a new implementation of RBF, a ProxyAdmin, and a TransparentUpgradeableProxy.          Transfers ownership of the proxy admin to the guardian and the RBF to the caller.",
        "params": {
          "data": "The initialization data for the RBF contract.",
          "guardian": "The address that will take ownership of the proxy admin."
        },
        "returns": {
          "_0": "address   The address of the newly created RBF proxy contract.",
          "_1": "address   The address of the newly created proxy admin contract.",
          "_2": "address   The address of the newly created RBF implementation contract."
        }
      }
    },
    "title": "RBFFactory",
    "version": 1
  },
  "userdoc": {
    "kind": "user",
    "methods": {
      "constructor": {
        "notice": "Constructor function that initializes the contract and sets the deployer as the authorized user."
      },
      "deny(address)": {
        "notice": "Remove user as a ward (remove admin access)"
      },
      "newRBF((string,string,address,address,address,address,address),address)": {
        "notice": "Creates a new instance of the RBF contract using an upgradeable proxy."
      },
      "rely(address)": {
        "notice": "Make user a ward (give them admin access)"
      },
      "wards(address)": {
        "notice": "Returns whether the target is a ward (has admin access)"
      }
    },
    "notice": "This contract serves as a Factory for the upgradable RBF token contract.          Upon calling `newRBF` the caller address will          deploy the following:          1) RBF - The implementation contract, ERC20Upgradeable contract with the constructor disabled          2) ProxyAdmin - OZ ProxyAdmin contract, used to upgrade the proxy instance.                          Owner is set to `guardian` address.          3) TransparentUpgradeableProxy - OZ TransparentUpgradeableProxy contract, used to proxy the implementation.          Following the above mentioned deployment, the address of the RBFFactory contract will:          i) Transfer ownership of the ProxyAdmin to that of the `guardian` address.          ii) Transfer ownership of the rbfProxied to that of the msg.sender address.",
    "version": 1
  },
  "storageLayout": {
    "storage": [
      {
        "astId": 8066,
        "contract": "contracts/v1/factories/RBFFactory.sol:RBFFactory",
        "label": "wards",
        "offset": 0,
        "slot": "0",
        "type": "t_mapping(t_address,t_uint256)"
      }
    ],
    "types": {
      "t_address": {
        "encoding": "inplace",
        "label": "address",
        "numberOfBytes": "20"
      },
      "t_mapping(t_address,t_uint256)": {
        "encoding": "mapping",
        "key": "t_address",
        "label": "mapping(address => uint256)",
        "numberOfBytes": "32",
        "value": "t_uint256"
      },
      "t_uint256": {
        "encoding": "inplace",
        "label": "uint256",
        "numberOfBytes": "32"
      }
    }
  }
}