{
  "address": "0x9fE46736679d2D9a65F0992F2272dE9f3c7fa6e0",
  "abi": [
    {
      "inputs": [
        {
          "internalType": "address",
          "name": "deployer",
          "type": "address"
        }
      ],
      "stateMutability": "nonpayable",
      "type": "constructor"
    },
    {
      "anonymous": false,
      "inputs": [
        {
          "indexed": true,
          "internalType": "address",
          "name": "user",
          "type": "address"
        }
      ],
      "name": "Deny",
      "type": "event"
    },
    {
      "anonymous": false,
      "inputs": [
        {
          "indexed": false,
          "internalType": "address",
          "name": "proxy",
          "type": "address"
        },
        {
          "indexed": false,
          "internalType": "address",
          "name": "proxyAdmin",
          "type": "address"
        },
        {
          "indexed": false,
          "internalType": "address",
          "name": "implementation",
          "type": "address"
        },
        {
          "indexed": false,
          "internalType": "address",
          "name": "guardian",
          "type": "address"
        }
      ],
      "name": "RBFDeployed",
      "type": "event"
    },
    {
      "anonymous": false,
      "inputs": [
        {
          "indexed": true,
          "internalType": "address",
          "name": "user",
          "type": "address"
        }
      ],
      "name": "Rely",
      "type": "event"
    },
    {
      "inputs": [
        {
          "internalType": "address",
          "name": "user",
          "type": "address"
        }
      ],
      "name": "deny",
      "outputs": [],
      "stateMutability": "nonpayable",
      "type": "function"
    },
    {
      "inputs": [
        {
          "components": [
            {
              "internalType": "string",
              "name": "name",
              "type": "string"
            },
            {
              "internalType": "string",
              "name": "symbol",
              "type": "string"
            },
            {
              "internalType": "address",
              "name": "assetToken",
              "type": "address"
            },
            {
              "internalType": "address",
              "name": "depositTreasury",
              "type": "address"
            },
            {
              "internalType": "address",
              "name": "dividendTreasury",
              "type": "address"
            },
            {
              "internalType": "address",
              "name": "priceFeed",
              "type": "address"
            },
            {
              "internalType": "uint256",
              "name": "mintSlippageBps",
              "type": "uint256"
            },
            {
              "internalType": "address",
              "name": "manager",
              "type": "address"
            }
          ],
          "internalType": "struct RBFInitializeData",
          "name": "data",
          "type": "tuple"
        },
        {
          "internalType": "address",
          "name": "guardian",
          "type": "address"
        }
      ],
      "name": "newRBF",
      "outputs": [
        {
          "internalType": "address",
          "name": "",
          "type": "address"
        },
        {
          "internalType": "address",
          "name": "",
          "type": "address"
        },
        {
          "internalType": "address",
          "name": "",
          "type": "address"
        }
      ],
      "stateMutability": "nonpayable",
      "type": "function"
    },
    {
      "inputs": [
        {
          "internalType": "address",
          "name": "user",
          "type": "address"
        }
      ],
      "name": "rely",
      "outputs": [],
      "stateMutability": "nonpayable",
      "type": "function"
    },
    {
      "inputs": [
        {
          "internalType": "address",
          "name": "",
          "type": "address"
        }
      ],
      "name": "wards",
      "outputs": [
        {
          "internalType": "uint256",
          "name": "",
          "type": "uint256"
        }
      ],
      "stateMutability": "view",
      "type": "function"
    }
  ],
  "transactionHash": "0xcf6825d6af415f61c6df0b4d95ef758cf89a877742e56ef0f0caf4c6a1a7d14e",
  "args": [
    "0xf39Fd6e51aad88F6F4ce6aB8827279cffFb92266"
  ],
  "numDeployments": 1,
  "solcInputHash": "f04298e0cbdc902e077af79fc00442e1",
  "bytecode": "0x608034609357601f614ce038819003918201601f19168301916001600160401b03831184841017609857808492602094604052833981010312609357516001600160a01b038116908190036093578060005260006020526001604060002055604051907fdd0e34038ac38b2a1ce960229778ac48a8719bc900b6c4f8d0475c6e8b385a60600080a2614c3190816100af8239f35b600080fd5b634e487b7160e01b600052604160045260246000fdfe6080604052600436101561001257600080fd5b6000803560e01c806365fae35e146105e85780639c52a7f114610578578063bf353dbb146105405763f8a6f7011461004957600080fd5b3461053d57604036600319011261053d576004359067ffffffffffffffff821161053d57610100600319833603011261053d57604051610100810181811067ffffffffffffffff82111761052957604052826004013567ffffffffffffffff8111610525576100be90600436918601016106c0565b8152602483013567ffffffffffffffff8111610525576100e490600436918601016106c0565b90602081019182526100f860448501610674565b936040820194855261010c60648201610674565b946060830195865261012060848301610674565b936080840194855261013460a48401610674565b9660a0850197885261015360e460c087019560c4810135875201610674565b60e08601908152946024356001600160a01b03811694908590036105215733895288602052610188600160408b205414610717565b6040516131418082019082821067ffffffffffffffff83111761050d57908291611abb833903908af09687156105025760405161066f8082019082821067ffffffffffffffff8311176104ee579082916107d7833903908bf09788156104e35760018060a01b03169760018060a01b0316966040519b610c759c8d81019d8e67ffffffffffffffff8382109111176104cf57818e9f8d9e9f9a9b9c9d608093610e46843981528d6020820152606060408201528a606082015203019088f080156104c4576001600160a01b03169b8c3b156104c057610291966102a46040519a8b998a9963c3551f6d60e01b8b52602060048c01525161010060248c01526101248b0190610759565b90518982036023190160448b0152610759565b95516001600160a01b0390811660648901529051811660848801529051811660a48701529051811660c4860152905160e4850152905116610104830152038183895af18015610449576104ac575b50813b15610488578460405163f2fde38b60e01b8152826004820152818160248183885af1801561048c57610497575b5050833b156104885760405163f2fde38b60e01b815233600482015285908181602481838a5af1801561048c57610473575b5050604051638da5cb5b60e01b8152602081600481865afa908115610449576103909183918891610454575b506001600160a01b0316146107b9565b604051638da5cb5b60e01b8152602081600481885afa90811561044957916103f06080927feceddf4857516360945567c2bfb79db089d56982d251e0bebb3f868180d2e756946060999161041a575b506001600160a01b031633146107b9565b6040519086825284602083015285604083015287820152a160405192835260208301526040820152f35b61043c915060203d602011610442575b6104348183610688565b81019061079a565b386103df565b503d61042a565b6040513d88823e3d90fd5b61046d915060203d602011610442576104348183610688565b38610380565b8161047d91610688565b610488578438610354565b8480fd5b6040513d84823e3d90fd5b816104a191610688565b610488578438610322565b856104b991969296610688565b93386102f2565b8780fd5b6040513d89823e3d90fd5b634e487b7160e01b8e52604160045260248efd5b6040513d8c823e3d90fd5b634e487b7160e01b8d52604160045260248dfd5b6040513d8b823e3d90fd5b634e487b7160e01b8c52604160045260248cfd5b8880fd5b8280fd5b634e487b7160e01b83526041600452602483fd5b80fd5b503461053d57602036600319011261053d576020906040906001600160a01b03610568610659565b1681528083522054604051908152f35b503461053d57602036600319011261053d57610592610659565b338252816020526105a96001604084205414610717565b6001600160a01b03168082526020829052604082208290557f184450df2e323acec0ed3b5c7531b81f9b4cdef7914dfd4c0a4317416bb5251b8280a280f35b503461053d57602036600319011261053d57610602610659565b338252816020526106196001604084205414610717565b6001600160a01b0316808252602082905260408220600190557fdd0e34038ac38b2a1ce960229778ac48a8719bc900b6c4f8d0475c6e8b385a608280a280f35b600435906001600160a01b038216820361066f57565b600080fd5b35906001600160a01b038216820361066f57565b90601f8019910116810190811067ffffffffffffffff8211176106aa57604052565b634e487b7160e01b600052604160045260246000fd5b81601f8201121561066f5780359067ffffffffffffffff82116106aa57604051926106f5601f8401601f191660200185610688565b8284526020838301011161066f57816000926020809301838601378301015290565b1561071e57565b60405162461bcd60e51b8152602060048201526013602482015272105d5d1a0bdb9bdd0b585d5d1a1bdc9a5e9959606a1b6044820152606490fd5b919082519283825260005b848110610785575050826000602080949584010152601f8019910116010190565b80602080928401015182828601015201610764565b9081602091031261066f57516001600160a01b038116810361066f5790565b156107c057565b634e487b7160e01b600052600160045260246000fdfe60808060405234605a5760008054336001600160a01b0319821681178355916001600160a01b03909116907f8be0079c531659141344cd1fd0a4f28419497f9722a3daafe3b4186f6b6457e09080a361060f90816100608239f35b600080fdfe608080604052600436101561001357600080fd5b60009081803560e01c918263204e1c7a1461046d5750508063715018a6146104135780637eff275e146103825780638da5cb5b1461035b5780639623609d1461024957806399a88ec4146101b4578063f2fde38b146100ee5763f3b7dead1461007b57600080fd5b346100eb5760203660031901126100eb57808060046001600160a01b036100a06104ad565b6040516303e1469160e61b815291165afa6100b9610532565b90156100e75780516020916001600160a01b03916100de919081018401908401610562565b16604051908152f35b5080fd5b80fd5b50346100eb5760203660031901126100eb576101086104ad565b610110610581565b6001600160a01b031680156101605781546001600160a01b03198116821783556001600160a01b03167f8be0079c531659141344cd1fd0a4f28419497f9722a3daafe3b4186f6b6457e08380a380f35b60405162461bcd60e51b815260206004820152602660248201527f4f776e61626c653a206e6577206f776e657220697320746865207a65726f206160448201526564647265737360d01b6064820152608490fd5b50346100eb5760403660031901126100eb57806101cf6104ad565b6101d76104c8565b906101e0610581565b6001600160a01b031690813b1561024557604051631b2ce7f360e11b81526001600160a01b0390911660048201529082908290602490829084905af1801561023a576102295750f35b81610233916104de565b6100eb5780f35b6040513d84823e3d90fd5b5050fd5b5060603660031901126100eb5761025e6104ad565b906102676104c8565b6044359267ffffffffffffffff8411610353573660238501121561035357836004013561029381610516565b946102a160405196876104de565b81865236602483830101116103575781859260246020930183890137860101526102c9610581565b6001600160a01b0316803b15610353576040805163278f794360e11b81526001600160a01b0390931660048401526024830152835160448301819052835b81811061033d57848085818187816064818a86838284010152601f8019910116810103019134905af1801561023a576102295750f35b8060208092880101516064828701015201610307565b8280fd5b8480fd5b50346100eb57806003193601126100eb57546040516001600160a01b039091168152602090f35b50346100eb5760403660031901126100eb578061039d6104ad565b6103a56104c8565b906103ae610581565b6001600160a01b031690813b15610245576040516308f2839760e41b81526001600160a01b039091166004820152919081908390602490829084905af18015610406576103f85780f35b610401916104de565b388180f35b50604051903d90823e3d90fd5b50346100eb57806003193601126100eb5761042c610581565b80546001600160a01b03198116825581906001600160a01b03167f8be0079c531659141344cd1fd0a4f28419497f9722a3daafe3b4186f6b6457e08280a380f35b8190346104aa5760203660031901126104aa5781906004906001600160a01b036104956104ad565b635c60da1b60e01b8352165afa6100b9610532565b50fd5b600435906001600160a01b03821682036104c357565b600080fd5b602435906001600160a01b03821682036104c357565b90601f8019910116810190811067ffffffffffffffff82111761050057604052565b634e487b7160e01b600052604160045260246000fd5b67ffffffffffffffff811161050057601f01601f191660200190565b3d1561055d573d9061054382610516565b9161055160405193846104de565b82523d6000602084013e565b606090565b908160209103126104c357516001600160a01b03811681036104c35790565b6000546001600160a01b0316330361059557565b606460405162461bcd60e51b815260206004820152602060248201527f4f776e61626c653a2063616c6c6572206973206e6f7420746865206f776e65726044820152fdfea264697066735822122058b9e5a891b425518778f28ada758022b0fa6de418f37fd8bf81041900605fe864736f6c634300081a00336080604052610c7580380380610014816102ce565b92833981016060828203126102c95761002c82610309565b61003860208401610309565b604084015190936001600160401b0382116102c957019082601f830112156102c95781519161006e6100698461031d565b6102ce565b928084526020840194602082840101116102c95784602061008f9301610338565b803b1561026e577f360894a13ba1a3210667c828492db98dca3e2076cc3735a920a3ca505d382bbc80546001600160a01b0319166001600160a01b0383169081179091557fbc7cd75a20ee27fd9adebab32041f755214dbc6bffa90cc0225b39da2e5c2d3b600080a2815115801590610266575b6101e0575b5050600080516020610c5583398151915254604080516001600160a01b03808416825290941660208501819052939192507f7e644d79422f17c01e4894b5f4f588d331ebfa28653d42ae832dc59e38c9798f91a1811561018c576001600160a01b03191617600080516020610c5583398151915255604051610846908161040f8239f35b60405162461bcd60e51b815260206004820152602660248201527f455243313936373a206e65772061646d696e20697320746865207a65726f206160448201526564647265737360d01b6064820152608490fd5b600080610255946101f160606102ce565b94602786527f416464726573733a206c6f772d6c6576656c2064656c65676174652063616c6c6020870152660819985a5b195960ca1b60408701525190845af43d1561025e573d916102456100698461031d565b9283523d6000602085013e61035b565b50388080610108565b60609161035b565b506000610103565b60405162461bcd60e51b815260206004820152602d60248201527f455243313936373a206e657720696d706c656d656e746174696f6e206973206e60448201526c1bdd08184818dbdb9d1c9858dd609a1b6064820152608490fd5b600080fd5b6040519190601f01601f191682016001600160401b038111838210176102f357604052565b634e487b7160e01b600052604160045260246000fd5b51906001600160a01b03821682036102c957565b6001600160401b0381116102f357601f01601f191660200190565b60005b83811061034b5750506000910152565b818101518382015260200161033b565b919290156103bd575081511561036f575090565b3b156103785790565b60405162461bcd60e51b815260206004820152601d60248201527f416464726573733a2063616c6c20746f206e6f6e2d636f6e74726163740000006044820152606490fd5b8251909150156103d05750805190602001fd5b6044604051809262461bcd60e51b8252602060048301526104008151809281602486015260208686019101610338565b601f01601f19168101030190fdfe60806040523661013f576000805160206107d183398151915254610033906001600160a01b03165b6001600160a01b031690565b330361013a576000356001600160e01b031916631b2ce7f360e11b8103610065575061005d61045b565b602081519101f35b63278f794360e11b8103610081575061007c6103ca565b61005d565b6308f2839760e41b8103610098575061007c6102e4565b6303e1469160e61b81036100af575061007c61023e565b635c60da1b60e01b036100c45761007c610203565b60405162461bcd60e51b815260206004820152604260248201527f5472616e73706172656e745570677261646561626c6550726f78793a2061646d60448201527f696e2063616e6e6f742066616c6c6261636b20746f2070726f78792074617267606482015261195d60f21b608482015260a490fd5b61018b565b6000805160206107d183398151915254610161906001600160a01b0316610027565b330361018b576000356001600160e01b031916631b2ce7f360e11b8103610065575061005d61045b565b6000805160206107f18339815191525460009081906001600160a01b0316368280378136915af43d6000803e156101c1573d6000f35b3d6000fd5b634e487b7160e01b600052604160045260246000fd5b90601f8019910116810190811067ffffffffffffffff8211176101fe57604052565b6101c6565b61020b610581565b60018060a01b036000805160206107f183398151915254166040519060208201526020815261023b6040826101dc565b90565b610246610581565b60018060a01b036000805160206107d183398151915254166040519060208201526020815261023b6040826101dc565b600435906001600160a01b038216820361028c57565b600080fd5b602090600319011261028c576004356001600160a01b038116810361028c5790565b67ffffffffffffffff81116101fe57601f01601f191660200190565b604051906102de6020836101dc565b60008252565b6102ec610581565b3660041161028c576001600160a01b0361030536610291565b166000805160206107d1833981519152547f7e644d79422f17c01e4894b5f4f588d331ebfa28653d42ae832dc59e38c9798f6040805160018060a01b0384168152846020820152a18115610376576001600160a01b031916176000805160206107d18339815191525561023b6102cf565b60405162461bcd60e51b815260206004820152602660248201527f455243313936373a206e65772061646d696e20697320746865207a65726f206160448201526564647265737360d01b6064820152608490fd5b3660041161028c57604036600319011261028c576103e6610276565b6024359067ffffffffffffffff821161028c573660238301121561028c57816004013590610413826102b3565b9161042160405193846101dc565b808352366024828601011161028c576020816000926024610453970183870137840101526001600160a01b0316610588565b61023b6102cf565b610463610581565b3660041161028c576001600160a01b0361047c36610291565b166020906040519061048e83836101dc565b60008252803b15610526576000805160206107f183398151915280546001600160a01b03191682179055807fbc7cd75a20ee27fd9adebab32041f755214dbc6bffa90cc0225b39da2e5c2d3b600080a281511580159061051e575b610504575b50506104fd60405191826101dc565b6000815290565b61051691610510610664565b916106af565b5038806104ee565b5060006104e9565b60405162461bcd60e51b815260048101849052602d60248201527f455243313936373a206e657720696d706c656d656e746174696f6e206973206e60448201526c1bdd08184818dbdb9d1c9858dd609a1b6064820152608490fd5b3461028c57565b803b15610609576000805160206107f183398151915280546001600160a01b0319166001600160a01b0383169081179091557fbc7cd75a20ee27fd9adebab32041f755214dbc6bffa90cc0225b39da2e5c2d3b600080a2815115801590610601575b6105f2575050565b6105fe91610510610664565b50565b5060016105ea565b60405162461bcd60e51b815260206004820152602d60248201527f455243313936373a206e657720696d706c656d656e746174696f6e206973206e60448201526c1bdd08184818dbdb9d1c9858dd609a1b6064820152608490fd5b604051906106736060836101dc565b60278252660819985a5b195960ca1b6040837f416464726573733a206c6f772d6c6576656c2064656c65676174652063616c6c60208201520152565b60008061023b9493602081519101845af43d156106ee573d916106d1836102b3565b926106df60405194856101dc565b83523d6000602085013e610742565b606091610742565b156106fd57565b60405162461bcd60e51b815260206004820152601d60248201527f416464726573733a2063616c6c20746f206e6f6e2d636f6e74726163740000006044820152606490fd5b919290156107625750815115610756575090565b61023b903b15156106f6565b8251909150156107755750805190602001fd5b6040519062461bcd60e51b8252602060048301528181519182602483015260005b8381106107b85750508160006044809484010152601f80199101168101030190fd5b6020828201810151604487840101528593500161079656feb53127684a568b3173ae13b9f8a6016e243e63b6e8ee1178d6a717850b5d6103360894a13ba1a3210667c828492db98dca3e2076cc3735a920a3ca505d382bbca26469706673582212205a24e37b8404c988bf286ad5736caa678faca592c0f556e954fd90f779592ec164736f6c634300081a0033b53127684a568b3173ae13b9f8a6016e243e63b6e8ee1178d6a717850b5d61036080806040523460bd576000549060ff8260081c16606b575060ff808216036031575b60405161307e90816100c38239f35b60ff90811916176000557f7f26b83ff96e1f2b6a682f133852f6798a09c465da95921460cefb3847402498602060405160ff8152a1386022565b62461bcd60e51b815260206004820152602760248201527f496e697469616c697a61626c653a20636f6e747261637420697320696e697469604482015266616c697a696e6760c81b6064820152608490fd5b600080fdfe608080604052600436101561001357600080fd5b60003560e01c90816301ffc9a7146122d95750806306fdde0314612243578063095ea7b31461221d5780630d1e6667146120a05780630ff8cf9b14611d135780631083f76114611cea57806318160ddd14611ccc5780631c85da1914611cad57806323b872dd14611bee578063248a9ca314611bc157806329d07a511461190c5780632f2ff15d1461184c578063313ce5671461183057806336568abe1461179e578063395093511461174c5780633c130d9014611721578063419759f514611702578063474f3b19146116b5578063481c6a751461168c5780634880467c1461166d5780636817031b1461155557806370a082311461151c578063715018a6146114bf578063741bef1a14611496578063761f62221461142a5780637e916d1b146114015780638da5cb5b146113d85780638e15f473146113b557806391d148541461136857806395d89b411461129d578063a217fddf14611281578063a457c2d7146111da578063a9059cbb146111a9578063aa5ca9801461118a578063b77515b514611018578063bb13245f14610ff9578063c02ce6f314610fbe578063c3551f6d146105a6578063cf6afb771461057d578063d547741f14610538578063dd62ed3e146104e7578063e0df5b6f1461031d578063e1a4521814610300578063ec87621c146102d7578063f2fde38b146102485763fbfa77cf1461021957600080fd5b3461024357600036600319011261024357610101546040516001600160a01b039091168152602090f35b600080fd5b346102435760203660031901126102435761026161237b565b610269612c23565b6001600160a01b038116156102835761028190612c7b565b005b60405162461bcd60e51b815260206004820152602660248201527f4f776e61626c653a206e6577206f776e657220697320746865207a65726f206160448201526564647265737360d01b6064820152608490fd5b346102435760003660031901126102435760206040516000805160206130098339815191528152f35b346102435760003660031901126102435760206040516127108152f35b346102435760203660031901126102435760043567ffffffffffffffff81116102435761034e9036906004016124c4565b61035661297d565b805167ffffffffffffffff81116104d157610373610106546123bb565b601f8111610463575b50602091601f82116001146103f2579181926000926103e7575b50508160011b916000199060031b1c191617610106555b7f9d3b637080c93cf84785a8e847e7c45118d18988dfbaf8acb02b53fcbb14dacb60405160208152806103e2602082016123f5565b0390a1005b015190508280610396565b601f19821692610106600052600080516020612fc98339815191529160005b85811061044b57508360019510610432575b505050811b01610106556103ad565b015160001960f88460031b161c19169055828080610423565b91926020600181928685015181550194019201610411565b610106600052601f820160051c600080516020612fc98339815191520190602083106104bb575b601f0160051c600080516020612fc983398151915201905b8181106104af575061037c565b600081556001016104a2565b600080516020612fc9833981519152915061048a565b634e487b7160e01b600052604160045260246000fd5b346102435760403660031901126102435761050061237b565b610508612391565b6001600160a01b039182166000908152606660209081526040808320949093168252928352819020549051908152f35b3461024357604036600319011261024357610281600435610557612391565b906105786105738260005260c960205260016040600020015490565b6129de565b612b9d565b346102435760003660031901126102435760fd546040516001600160a01b039091168152602090f35b346102435760203660031901126102435760043567ffffffffffffffff81116102435761010060031982360301126102435760405190610100820182811067ffffffffffffffff8211176104d157604052806004013567ffffffffffffffff81116102435761061b90600436918401016124c4565b8252602481013567ffffffffffffffff81116102435761064190600436918401016124c4565b9060208301918252610655604482016123a7565b9060408401918252610669606482016123a7565b6060850190815261067c608483016123a7565b6080860190815261068f60a484016123a7565b9160a087019283526106ae60e460c089019560c48101358752016123a7565b9560e088019687526000549760ff8960081c16159889809a610fb1575b8015610f9a575b15610f3e5760ff19811660011760005589610f2c575b505190519061070760ff60005460081c1661070281612cc4565b612cc4565b80519067ffffffffffffffff82116104d15781906107266068546123bb565b601f8111610eb5575b50602090601f8311600114610e4157600092610e36575b50508160011b916000199060031b1c1916176068555b80519067ffffffffffffffff82116104d157819061077b6069546123bb565b601f8111610dbf575b50602090601f8311600114610d4b57600092610d40575b50508160011b916000199060031b1c1916176069555b6107c660ff60005460081c1661070281612cc4565b6107cf33612c7b565b84516001600160a01b031615610ce457845160fb80546001600160a01b0319166001600160a01b0392831617905581511615610c83575160fc80546001600160a01b0319166001600160a01b0392831617905581511615610c21575160fd80546001600160a01b0319166001600160a01b0392831617905581511615610bc9575160fe80546001600160a01b0319166001600160a01b0392831617905583511615610b6f57825160ff80546001600160a01b0319166001600160a01b03928316179055905161010055905160405163313ce56760e01b81529160209183916004918391165afa8015610b635760ff91600091610b34575b501660060360ff8111610b1e576108dc9061258f565b6101055580516001600160a01b031660008181527f81fe90a866a48a634a12852c1be675b683a22307409932a7443b8029347be756602052604090205460ff1615610aaf575b50516001600160a01b031660008181527ff5f43b48833b613af61a2aa61573d51591ce86ef304bb6e01e9115b2a39191de602052604090205460ff1615610a30575b507f3bca20e4acfce09f9e8fb6ee8411a666e10d62087920fce290164f804f928e09600081815260c96020527f7491c8133ce02269668e0e13b9b9def97824083734d5134d71bb731e92dcd57d805460008051602061300983398151915291829055604051949391929091907fbd79b86ffe0ab8e8776151514217cd7cacd52c909f66475c3af44e129f0b00ff9080a46109fa57005b60207f7f26b83ff96e1f2b6a682f133852f6798a09c465da95921460cefb38474024989161ff00196000541660005560018152a1005b6001600160a01b03811660009081527ff5f43b48833b613af61a2aa61573d51591ce86ef304bb6e01e9115b2a39191de60205260408120805460ff19166001179055339190600080516020613009833981519152907f2f8788117e7eff1d82e926ec794901d17c78024a50270940304540a733656f0d9080a481610964565b6001600160a01b03811660009081527f81fe90a866a48a634a12852c1be675b683a22307409932a7443b8029347be75660205260408120805460ff191660011790553391907f2f8788117e7eff1d82e926ec794901d17c78024a50270940304540a733656f0d8180a482610922565b634e487b7160e01b600052601160045260246000fd5b610b56915060203d602011610b5c575b610b4e8183612486565b810190612576565b846108c6565b503d610b44565b6040513d6000823e3d90fd5b60405162461bcd60e51b815260206004820152602c60248201527f5242463a206d616e6167657220616464726573732063616e206e6f742062652060448201526b7a65726f206164647265737360a01b6064820152608490fd5b60405162461bcd60e51b815260206004820152602a60248201527f5242463a20707269636546656564416464722063616e206e6f74206265207a65604482015269726f206164647265737360b01b6064820152608490fd5b60405162461bcd60e51b815260206004820152603460248201527f5242463a206469766964656e64547265617375727920616464726573732063616044820152736e6e6f74206265207a65726f206164647265737360601b6064820152608490fd5b60405162461bcd60e51b815260206004820152603360248201527f5242463a206465706f736974547265617375727920616464726573732063616e6044820152726e6f74206265207a65726f206164647265737360681b6064820152608490fd5b60405162461bcd60e51b815260206004820152602e60248201527f5242463a206173736574546f6b656e20616464726573732063616e6e6f74206260448201526d65207a65726f206164647265737360901b6064820152608490fd5b01519050898061079b565b60696000908152600080516020612fe98339815191529350601f198516905b818110610da75750908460019594939210610d8e575b505050811b016069556107b1565b015160001960f88460031b161c19169055898080610d80565b92936020600181928786015181550195019301610d6a565b9091506069600052601f830160051c600080516020612fe9833981519152019060208410610e20575b90601f8493920160051c600080516020612fe983398151915201905b818110610e115750610784565b60008155849350600101610e04565b600080516020612fe98339815191529150610de8565b015190508a80610746565b606860009081526000805160206130298339815191529350601f198516905b818110610e9d5750908460019594939210610e84575b505050811b0160685561075c565b015160001960f88460031b161c191690558a8080610e76565b92936020600181928786015181550195019301610e60565b9091506068600052601f830160051c600080516020613029833981519152019060208410610f16575b90601f8493920160051c60008051602061302983398151915201905b818110610f07575061072f565b60008155849350600101610efa565b6000805160206130298339815191529150610ede565b61ffff191661010117600055896106e8565b60405162461bcd60e51b815260206004820152602e60248201527f496e697469616c697a61626c653a20636f6e747261637420697320616c72656160448201526d191e481a5b9a5d1a585b1a5e995960921b6064820152608490fd5b50303b1580156106d25750600160ff8216146106d2565b50600160ff8216106106cb565b346102435760003660031901126102435760206040517f3bca20e4acfce09f9e8fb6ee8411a666e10d62087920fce290164f804f928e098152f35b3461024357600036600319011261024357602061010554604051908152f35b34610243576040366003190112610243573360009081527f7491c8133ce02269668e0e13b9b9def97824083734d5134d71bb731e92dcd57c6020526040902054600435906024359060ff16156110b2577fbfe0be8dde6e80a1b26457e692ef502ddc9831a700b6f9ef16b90d9d26bbfe849160409161109b610102541515612518565b8161010355806101045582519182526020820152a1005b6111866110be33612d4b565b61116e60116110ec7f3bca20e4acfce09f9e8fb6ee8411a666e10d62087920fce290164f804f928e09612e8b565b9260376040519485927f416363657373436f6e74726f6c3a206163636f756e7420000000000000000000602085015261112e815180926020868801910161232c565b83017001034b99036b4b9b9b4b733903937b6329607d1b8382015261115d82518093602060488501910161232c565b01010301601f198101835282612486565b60405162461bcd60e51b81529182916004830161234f565b0390fd5b3461024357600036600319011261024357602061010054604051908152f35b34610243576040366003190112610243576111cf6111c561237b565b6024359033612a1e565b602060405160018152f35b34610243576040366003190112610243576111f361237b565b60243590336000526066602052604060002060018060a01b0382166000526020526040600020549180831061122e576111cf9203903361271d565b60405162461bcd60e51b815260206004820152602560248201527f45524332303a2064656372656173656420616c6c6f77616e63652062656c6f77604482015264207a65726f60d81b6064820152608490fd5b3461024357600036600319011261024357602060405160008152f35b346102435760003660031901126102435760405160006069546112bf816123bb565b808452906001811690811561134457506001146112f7575b6112f3836112e781850382612486565b6040519182918261234f565b0390f35b60696000908152600080516020612fe9833981519152939250905b80821061132a575090915081016020016112e76112d7565b919260018160209254838588010152019101909291611312565b60ff191660208086019190915291151560051b840190910191506112e790506112d7565b3461024357604036600319011261024357611381612391565b60043560005260c960205260406000209060018060a01b0316600052602052602060ff604060002054166040519015158152f35b346102435760003660031901126102435760206113d06125d4565b604051908152f35b34610243576000366003190112610243576033546040516001600160a01b039091168152602090f35b346102435760003660031901126102435760fc546040516001600160a01b039091168152602090f35b34610243576000366003190112610243576114436125d4565b610101546001600160a01b0316600090815260656020526040902054620f42409161146d916125a0565b9080156114805760209104604051908152f35b634e487b7160e01b600052601260045260246000fd5b346102435760003660031901126102435760fe546040516001600160a01b039091168152602090f35b34610243576000366003190112610243576114d8612c23565b603380546001600160a01b031981169091556000906001600160a01b03167f8be0079c531659141344cd1fd0a4f28419497f9722a3daafe3b4186f6b6457e08280a3005b346102435760203660031901126102435760206113d061153a61237b565b6001600160a01b031660009081526065602052604090205490565b346102435760203660031901126102435761156e61237b565b61157661297d565b6001600160a01b0316801561161a57610101546001600160a01b0381166115d5576001600160a01b0319168117610101556040519081527fd459c7242e23d490831b5676a611c4342d899d28f342d89ae80793e56a930f3090602090a1005b60405162461bcd60e51b815260206004820152601a60248201527f5242463a207661756c744164647220616c7265616479207365740000000000006044820152606490fd5b60405162461bcd60e51b815260206004820152602560248201527f5242463a207661756c74416464722063616e6e6f74206265207a65726f206164604482015264647265737360d81b6064820152608490fd5b3461024357600036600319011261024357602061010454604051908152f35b346102435760003660031901126102435760ff546040516001600160a01b039091168152602090f35b34610243576020366003190112610243577fd1351ed8916d964459725cf9aacb68ecdf10d20dd01e20abfb247b6cc53751d360206004356116f461297d565b8061010055604051908152a1005b3461024357600036600319011261024357602061010254604051908152f35b34610243576000366003190112610243576112f36040516112e781611745816123f5565b0382612486565b34610243576040366003190112610243576111cf61176861237b565b336000526066602052604060002060018060a01b0382166000526020526117976040600020602435905461250b565b903361271d565b34610243576040366003190112610243576117b7612391565b336001600160a01b038216036117d35761028190600435612b9d565b60405162461bcd60e51b815260206004820152602f60248201527f416363657373436f6e74726f6c3a2063616e206f6e6c792072656e6f756e636560448201526e103937b632b9903337b91039b2b63360891b6064820152608490fd5b3461024357600036600319011261024357602060405160068152f35b3461024357604036600319011261024357600435611868612391565b906118846105738260005260c960205260016040600020015490565b8060005260c9602052604060002060018060a01b03831660005260205260ff60406000205416156118b157005b600081815260c9602090815260408083206001600160a01b0395909516808452949091528120805460ff19166001179055339291907f2f8788117e7eff1d82e926ec794901d17c78024a50270940304540a733656f0d9080a4005b346102435760003660031901126102435761192561297d565b61010254611934811515612518565b61010354908115611b6b5761010454918215611b105761195a60049261010554906125a0565b60fe5460405163313ce56760e01b81529360209185919082906001600160a01b03165afa908115610b635761199e6119a4926119a995600091611af1575b5061258f565b906125a0565b6125b3565b6127106119b982610100546125a0565b049081810391818311610b1e576119cf9161250b565b908210159081611ae6575b5015611a8e57610101546001600160a01b0316908115611a49577fddf252ad1be2c89b69c2b068fc378daa952ba7f163c4a11628f55a4df523b3ef602082611a2660009460675461250b565b6067558484526065825260408420818154019055604051908152a3600061010255005b60405162461bcd60e51b815260206004820152601f60248201527f45524332303a206d696e7420746f20746865207a65726f2061646472657373006044820152606490fd5b60405162461bcd60e51b815260206004820152602a60248201527f5242463a206465706f7369744d696e74416d6f756e74206973206e6f7420696e604482015269207468652072616e676560b01b6064820152608490fd5b9050811115826119da565b611b0a915060203d602011610b5c57610b4e8183612486565b87611998565b60405162461bcd60e51b815260206004820152602d60248201527f5242463a206465706f7369744d696e74416d6f756e74206d757374206265206760448201526c0726561746572207468616e203609c1b6064820152608490fd5b60405162461bcd60e51b815260206004820152602860248201527f5242463a206465706f7369745069726365206d75737420626520677265617465604482015267072207468616e20360c41b6064820152608490fd5b346102435760203660031901126102435760206113d060043560005260c960205260016040600020015490565b3461024357606036600319011261024357611c0761237b565b611c0f612391565b6001600160a01b038216600090815260666020908152604080832033845290915290205491604435919060018401611c4c575b6111cf9350612a1e565b828410611c6857611c63836111cf9503338361271d565b611c42565b60405162461bcd60e51b815260206004820152601d60248201527f45524332303a20696e73756666696369656e7420616c6c6f77616e63650000006044820152606490fd5b3461024357600036600319011261024357602061010354604051908152f35b34610243576000366003190112610243576020606754604051908152f35b346102435760003660031901126102435760fb546040516001600160a01b039091168152602090f35b3461024357600036600319011261024357611d2c61297d565b60fb5460fd546040516370a0823160e01b81526001600160a01b03918216600482018190529190921691602081602481865afa908115610b635760009161206e575b50801561201757606754908115611fc257610101546001600160a01b0316918215611f72576001600160a01b03831660009081526065602052604090205415611f1b5760405163cf6afb7760e01b815292602084600481845afa938415610b6357600094611ece575b506001600160a01b03841615611e74576001600160a01b0316600090815260656020526040902054611e0c926119a4916125a0565b918215611e1c5761028193612825565b60405162461bcd60e51b815260206004820152602a60248201527f5242463a206469766964656e64416d6f756e74206d7573742067726561746572604482015269207468616e207a65726f60b01b6064820152608490fd5b60405162461bcd60e51b815260206004820152602c60248201527f5242463a207661756c74206469766964656e6454726561737572792063616e7460448201526b206e6f74206265207a65726f60a01b6064820152608490fd5b6020949194813d602011611f13575b81611eea60209383612486565b81010312611f0f5751906001600160a01b0382168203611f0c57509286611dd7565b80fd5b5080fd5b3d9150611edd565b60405162461bcd60e51b815260206004820152602960248201527f5242463a207661756c742062616c616e6365206d75737420626520677265617460448201526806572207468616e20360bc1b6064820152608490fd5b60405162461bcd60e51b815260206004820152602260248201527f5242463a207661756c742063616e206e6f74206265207a65726f206164647265604482015261737360f01b6064820152608490fd5b60405162461bcd60e51b815260206004820152602760248201527f5242463a20746f74616c537570706c79206d75737420626520677265617465726044820152660207468616e20360cc1b6064820152608490fd5b60405162461bcd60e51b815260206004820152602960248201527f5242463a20746f74616c4469766964656e64206d75737420626520677265617460448201526806572207468616e20360bc1b6064820152608490fd5b906020823d602011612098575b8161208860209383612486565b81010312611f0c57505183611d6e565b3d915061207b565b346102435760203660031901126102435761010154600435906001600160a01b031633036121df5760fb546040516370a0823160e01b81523360048201526001600160a01b0390911690602081602481855afa8015610b635783916000916121aa575b501061216557816121578160409361213f7f2d8a08b6430a894aea608bcaa6013d5d3e263bc49110605e4d4ba76930ae5c29966101025461250b565b6101025560fc546001600160a01b0316903390612825565b8151903382526020820152a1005b60405162461bcd60e51b815260206004820152601960248201527f5242463a20496e73756666696369656e742062616c616e6365000000000000006044820152606490fd5b9150506020813d6020116121d7575b816121c660209383612486565b810103126102435782905184612103565b3d91506121b9565b60405162461bcd60e51b81526020600482015260166024820152751490918e881e5bdd48185c99481b9bdd081d985d5b1d60521b6044820152606490fd5b34610243576040366003190112610243576111cf61223961237b565b602435903361271d565b34610243576000366003190112610243576040516000606854612265816123bb565b8084529060018116908115611344575060011461228c576112f3836112e781850382612486565b60686000908152600080516020613029833981519152939250905b8082106122bf575090915081016020016112e76112d7565b9192600181602092548385880101520191019092916122a7565b34610243576020366003190112610243576004359063ffffffff60e01b821680920361024357602091637965db0b60e01b811490811561231b575b5015158152f35b6301ffc9a760e01b14905083612314565b60005b83811061233f5750506000910152565b818101518382015260200161232f565b6040916020825261236f815180928160208601526020868601910161232c565b601f01601f1916010190565b600435906001600160a01b038216820361024357565b602435906001600160a01b038216820361024357565b35906001600160a01b038216820361024357565b90600182811c921680156123eb575b60208310146123d557565b634e487b7160e01b600052602260045260246000fd5b91607f16916123ca565b6101065460009291612406826123bb565b808252916001811690811561246a5750600114612421575050565b6101066000908152929350909190600080516020612fc98339815191525b838310612450575060209250010190565b60018160209294939454838587010152019101919061243f565b9050602093945060ff929192191683830152151560051b010190565b90601f8019910116810190811067ffffffffffffffff8211176104d157604052565b67ffffffffffffffff81116104d157601f01601f191660200190565b81601f82011215610243578035906124db826124a8565b926124e96040519485612486565b8284526020838301011161024357816000926020809301838601378301015290565b91908201809211610b1e57565b1561251f57565b60405162461bcd60e51b815260206004820152602960248201527f5242463a206465706f736974416d6f756e74206d75737420626520677265617460448201526806572207468616e20360bc1b6064820152608490fd5b90816020910312610243575160ff811681036102435790565b60ff16604d8111610b1e57600a0a90565b81810292918115918404141715610b1e57565b8115611480570490565b519069ffffffffffffffffffff8216820361024357565b60fe54604051633fabe5a360e21b81529060a090829060049082906001600160a01b03165afa8015610b6357600090819282809181936126b2575b5069ffffffffffffffffffff16151592836126a6575b8361269c575b5082612692575b508161267c575b50156126425790565b60405162461bcd60e51b8152602060048201526012602482015271496e76616c6964207072696365206461746160701b6044820152606490fd5b69ffffffffffffffffffff915016151538612639565b1515915038612632565b151592503861262b565b60008512159350612625565b94509250505060a0823d60a011612715575b816126d160a09383612486565b81010312611f0c57506126e3816125bd565b90602081015160408201519269ffffffffffffffffffff61270b6080606086015195016125bd565b929493919061260f565b3d91506126c4565b6001600160a01b03169081156127d4576001600160a01b03169182156127845760207f8c5be1e5ebec7d5bd14f71427d1e84f3dd0314c0f7b2291e5b200ac8c7c3b925918360005260668252604060002085600052825280604060002055604051908152a3565b60405162461bcd60e51b815260206004820152602260248201527f45524332303a20617070726f766520746f20746865207a65726f206164647265604482015261737360f01b6064820152608490fd5b60405162461bcd60e51b8152602060048201526024808201527f45524332303a20617070726f76652066726f6d20746865207a65726f206164646044820152637265737360e01b6064820152608490fd5b6040516323b872dd60e01b602082019081526001600160a01b039384166024830152929093166044840152606480840194909452928252916128e5919061286d608483612486565b60018060a01b03166000806040958651946128888887612486565b602086527f5361666545524332303a206c6f772d6c6576656c2063616c6c206661696c65646020870152519082855af13d15612975573d916128c9836124a8565b926128d687519485612486565b83523d6000602085013e612f37565b8051908115918215612952575b5050156128fc5750565b5162461bcd60e51b815260206004820152602a60248201527f5361666545524332303a204552433230206f7065726174696f6e20646964206e6044820152691bdd081cdd58d8d9595960b21b6064820152608490fd5b8192509060209181010312610243576020015180151581036102435738806128f2565b606091612f37565b3360009081527ff5f43b48833b613af61a2aa61573d51591ce86ef304bb6e01e9115b2a39191de602052604090205460ff16156129b657565b6111866129c233612d4b565b61116e60116110ec600080516020613009833981519152612e8b565b600081815260c96020908152604080832033845290915290205460ff1615612a035750565b6111869061116e60116110ec612a1833612d4b565b93612e8b565b6001600160a01b0316908115612b4a576001600160a01b0316918215612af957816000526065602052604060002054818110612aa557817fddf252ad1be2c89b69c2b068fc378daa952ba7f163c4a11628f55a4df523b3ef9260209285600052606584520360406000205584600052606582526040600020818154019055604051908152a3565b60405162461bcd60e51b815260206004820152602660248201527f45524332303a207472616e7366657220616d6f756e7420657863656564732062604482015265616c616e636560d01b6064820152608490fd5b60405162461bcd60e51b815260206004820152602360248201527f45524332303a207472616e7366657220746f20746865207a65726f206164647260448201526265737360e81b6064820152608490fd5b60405162461bcd60e51b815260206004820152602560248201527f45524332303a207472616e736665722066726f6d20746865207a65726f206164604482015264647265737360d81b6064820152608490fd5b8060005260c9602052604060002060018060a01b03831660005260205260ff60406000205416612bcb575050565b600081815260c9602090815260408083206001600160a01b0395909516808452949091528120805460ff19169055339291907ff6391f5c32d9c69d2a47ea670b442974b53935d1edc7fd64eb21e047a839171b9080a4565b6033546001600160a01b03163303612c3757565b606460405162461bcd60e51b815260206004820152602060248201527f4f776e61626c653a2063616c6c6572206973206e6f7420746865206f776e65726044820152fd5b603380546001600160a01b039283166001600160a01b0319821681179092559091167f8be0079c531659141344cd1fd0a4f28419497f9722a3daafe3b4186f6b6457e0600080a3565b15612ccb57565b60405162461bcd60e51b815260206004820152602b60248201527f496e697469616c697a61626c653a20636f6e7472616374206973206e6f74206960448201526a6e697469616c697a696e6760a81b6064820152608490fd5b908151811015612d35570160200190565b634e487b7160e01b600052603260045260246000fd5b600090612d58602a6124a8565b91612d666040519384612486565b602a8352612d74602a6124a8565b6020840190601f1901368237835115612e775760309053825160011015612e63576078602184015350602960005b60018211612df7575050612db35790565b606460405162461bcd60e51b815260206004820152602060248201527f537472696e67733a20686578206c656e67746820696e73756666696369656e746044820152fd5b9091600f81166010811015612e4f576f181899199a1a9b1b9c1cb0b131b232b360811b901a612e268486612d24565b5360041c918015612e3b576000190190612da2565b634e487b7160e01b82526011600452602482fd5b634e487b7160e01b83526032600452602483fd5b634e487b7160e01b81526032600452602490fd5b634e487b7160e01b82526032600452602482fd5b600090612e9860426124a8565b91612ea66040519384612486565b60428352612eb460426124a8565b6020840190601f1901368237835115612e775760309053825160011015612e63576078602184015350604160005b60018211612ef3575050612db35790565b9091600f81166010811015612e4f576f181899199a1a9b1b9c1cb0b131b232b360811b901a612f228486612d24565b5360041c918015612e3b576000190190612ee2565b91929015612f995750815115612f4b575090565b3b15612f545790565b60405162461bcd60e51b815260206004820152601d60248201527f416464726573733a2063616c6c20746f206e6f6e2d636f6e74726163740000006044820152606490fd5b825190915015612fac5750805190602001fd5b60405162461bcd60e51b8152908190611186906004830161234f56fec9ef9fceea91e87b2c84ea400a44fde78842aae8aa24cd4b502ce5fb4d91e63b7fb4302e8e91f9110a6554c2c0a24601252c2a42c2220ca988efcfe399914308241ecf16d79d0f8dbfb92cbc07fe17840425976cf0667f022fe9877caa831b08a2153420d844928b4421650203c77babc8b33d7f2e7b450e2966db0c22097753a2646970667358221220c62193a46793c0492cf12ab4332ac320fbb433d8a3d87a7486bfb9f64ed7340c64736f6c634300081a0033a26469706673582212207c1a17fee8e8db01d539b7abf564772b4cfc7338611f1e4ebbf071036696b2f764736f6c634300081a0033",
  "devdoc": {
    "author": "Accelerate Finance",
    "details": "This contract is responsible for deploying and managing instances of the RBF contract.",
    "kind": "dev",
    "methods": {
      "constructor": {
        "details": "Inherits from the Auth contract to implement access control.",
        "params": {
          "deployer": "The address of the entity deploying the contract, serving as the initial administrator."
        }
      },
      "newRBF((string,string,address,address,address,address,uint256,address),address)": {
        "details": "Deploys a new implementation of RBF, a ProxyAdmin, and a TransparentUpgradeableProxy.          Transfers ownership of the proxy admin to the guardian and the RBF to the caller.",
        "params": {
          "data": "The initialization data for the RBF contract.",
          "guardian": "The address that will take ownership of the proxy admin."
        },
        "returns": {
          "_0": "address   The address of the newly created RBF proxy contract.",
          "_1": "address   The address of the newly created proxy admin contract.",
          "_2": "address   The address of the newly created RBF implementation contract."
        }
      }
    },
    "title": "RBFFactory",
    "version": 1
  },
  "userdoc": {
    "kind": "user",
    "methods": {
      "constructor": {
        "notice": "Constructor function that initializes the contract and sets the deployer as the authorized user."
      },
      "deny(address)": {
        "notice": "Remove user as a ward (remove admin access)"
      },
      "newRBF((string,string,address,address,address,address,uint256,address),address)": {
        "notice": "Creates a new instance of the RBF contract using an upgradeable proxy."
      },
      "rely(address)": {
        "notice": "Make user a ward (give them admin access)"
      },
      "wards(address)": {
        "notice": "Returns whether the target is a ward (has admin access)"
      }
    },
    "notice": "This contract serves as a Factory for the upgradable RBF token contract.          Upon calling `newRBF` the caller address will          deploy the following:          1) RBF - The implementation contract, ERC20Upgradeable contract with the constructor disabled          2) ProxyAdmin - OZ ProxyAdmin contract, used to upgrade the proxy instance.                          Owner is set to `guardian` address.          3) TransparentUpgradeableProxy - OZ TransparentUpgradeableProxy contract, used to proxy the implementation.          Following the above mentioned deployment, the address of the RBFFactory contract will:          i) Transfer ownership of the ProxyAdmin to that of the `guardian` address.          ii) Transfer ownership of the rbfProxied to that of the msg.sender address.",
    "version": 1
  },
  "storageLayout": {
    "storage": [
      {
        "astId": 7362,
        "contract": "contracts/factories/RBFFactory.sol:RBFFactory",
        "label": "wards",
        "offset": 0,
        "slot": "0",
        "type": "t_mapping(t_address,t_uint256)"
      }
    ],
    "types": {
      "t_address": {
        "encoding": "inplace",
        "label": "address",
        "numberOfBytes": "20"
      },
      "t_mapping(t_address,t_uint256)": {
        "encoding": "mapping",
        "key": "t_address",
        "label": "mapping(address => uint256)",
        "numberOfBytes": "32",
        "value": "t_uint256"
      },
      "t_uint256": {
        "encoding": "inplace",
        "label": "uint256",
        "numberOfBytes": "32"
      }
    }
  }
}