{
  "address": "0xDc64a140Aa3E981100a9becA4E685f962f0cF6C9",
  "abi": [
    {
      "inputs": [
        {
          "internalType": "address[]",
          "name": "_whiteLists",
          "type": "address[]"
        },
        {
          "internalType": "uint256",
          "name": "_threshold",
          "type": "uint256"
        },
        {
          "internalType": "address",
          "name": "_rbfFactory",
          "type": "address"
        },
        {
          "internalType": "address",
          "name": "_escrowFactory",
          "type": "address"
        },
        {
          "internalType": "address",
          "name": "_priceFeedFactory",
          "type": "address"
        }
      ],
      "stateMutability": "nonpayable",
      "type": "constructor"
    },
    {
      "anonymous": false,
      "inputs": [
        {
          "indexed": false,
          "internalType": "uint64",
          "name": "rbfId",
          "type": "uint64"
        },
        {
          "indexed": false,
          "internalType": "address",
          "name": "priceFeed",
          "type": "address"
        },
        {
          "indexed": false,
          "internalType": "address",
          "name": "rbf",
          "type": "address"
        },
        {
          "indexed": false,
          "internalType": "address",
          "name": "dividendTreasury",
          "type": "address"
        }
      ],
      "name": "DeployRBFEvent",
      "type": "event"
    },
    {
      "anonymous": false,
      "inputs": [
        {
          "indexed": true,
          "internalType": "address",
          "name": "previousOwner",
          "type": "address"
        },
        {
          "indexed": true,
          "internalType": "address",
          "name": "newOwner",
          "type": "address"
        }
      ],
      "name": "OwnershipTransferred",
      "type": "event"
    },
    {
      "anonymous": false,
      "inputs": [
        {
          "indexed": false,
          "internalType": "address[]",
          "name": "whiteLists",
          "type": "address[]"
        },
        {
          "indexed": false,
          "internalType": "uint256",
          "name": "threshold",
          "type": "uint256"
        }
      ],
      "name": "SetWhiteListsAndThreshold",
      "type": "event"
    },
    {
      "inputs": [
        {
          "internalType": "bytes",
          "name": "deployData",
          "type": "bytes"
        },
        {
          "internalType": "bytes[]",
          "name": "signatures",
          "type": "bytes[]"
        }
      ],
      "name": "deployRBF",
      "outputs": [],
      "stateMutability": "nonpayable",
      "type": "function"
    },
    {
      "inputs": [],
      "name": "escrowFactory",
      "outputs": [
        {
          "internalType": "contract IEscrowFactory",
          "name": "",
          "type": "address"
        }
      ],
      "stateMutability": "view",
      "type": "function"
    },
    {
      "inputs": [
        {
          "internalType": "uint64",
          "name": "rbfId",
          "type": "uint64"
        }
      ],
      "name": "getRBFInfo",
      "outputs": [
        {
          "components": [
            {
              "internalType": "uint256",
              "name": "createdAt",
              "type": "uint256"
            },
            {
              "internalType": "address",
              "name": "rbf",
              "type": "address"
            },
            {
              "internalType": "address",
              "name": "rbfProxyAdmin",
              "type": "address"
            },
            {
              "internalType": "address",
              "name": "rbfImpl",
              "type": "address"
            },
            {
              "internalType": "address",
              "name": "dividendTreasury",
              "type": "address"
            },
            {
              "internalType": "address",
              "name": "priceFeed",
              "type": "address"
            }
          ],
          "internalType": "struct RBFRouter.RBFInfo",
          "name": "",
          "type": "tuple"
        }
      ],
      "stateMutability": "view",
      "type": "function"
    },
    {
      "inputs": [],
      "name": "getWhiteListsLen",
      "outputs": [
        {
          "internalType": "uint256",
          "name": "",
          "type": "uint256"
        }
      ],
      "stateMutability": "view",
      "type": "function"
    },
    {
      "inputs": [],
      "name": "owner",
      "outputs": [
        {
          "internalType": "address",
          "name": "",
          "type": "address"
        }
      ],
      "stateMutability": "view",
      "type": "function"
    },
    {
      "inputs": [],
      "name": "priceFeedFactory",
      "outputs": [
        {
          "internalType": "contract IPriceFeedFactory",
          "name": "",
          "type": "address"
        }
      ],
      "stateMutability": "view",
      "type": "function"
    },
    {
      "inputs": [],
      "name": "rbfFactory",
      "outputs": [
        {
          "internalType": "contract IRBFFactory",
          "name": "",
          "type": "address"
        }
      ],
      "stateMutability": "view",
      "type": "function"
    },
    {
      "inputs": [],
      "name": "rbfNonce",
      "outputs": [
        {
          "internalType": "uint64",
          "name": "",
          "type": "uint64"
        }
      ],
      "stateMutability": "view",
      "type": "function"
    },
    {
      "inputs": [],
      "name": "renounceOwnership",
      "outputs": [],
      "stateMutability": "nonpayable",
      "type": "function"
    },
    {
      "inputs": [
        {
          "internalType": "address[]",
          "name": "_whiteLists",
          "type": "address[]"
        },
        {
          "internalType": "uint256",
          "name": "_threshold",
          "type": "uint256"
        }
      ],
      "name": "setWhiteListsAndThreshold",
      "outputs": [],
      "stateMutability": "nonpayable",
      "type": "function"
    },
    {
      "inputs": [],
      "name": "threshold",
      "outputs": [
        {
          "internalType": "uint256",
          "name": "",
          "type": "uint256"
        }
      ],
      "stateMutability": "view",
      "type": "function"
    },
    {
      "inputs": [
        {
          "internalType": "address",
          "name": "newOwner",
          "type": "address"
        }
      ],
      "name": "transferOwnership",
      "outputs": [],
      "stateMutability": "nonpayable",
      "type": "function"
    },
    {
      "inputs": [
        {
          "internalType": "address",
          "name": "",
          "type": "address"
        }
      ],
      "name": "whiteListed",
      "outputs": [
        {
          "internalType": "bool",
          "name": "",
          "type": "bool"
        }
      ],
      "stateMutability": "view",
      "type": "function"
    },
    {
      "inputs": [
        {
          "internalType": "uint256",
          "name": "",
          "type": "uint256"
        }
      ],
      "name": "whiteLists",
      "outputs": [
        {
          "internalType": "address",
          "name": "",
          "type": "address"
        }
      ],
      "stateMutability": "view",
      "type": "function"
    }
  ],
  "transactionHash": "0x636e802ef73fc3b22306c2ff9ce28e4950770483ab362f368a9dd31b2b968091",
  "args": [
    [
      "0x90F79bf6EB2c4f870365E785982E1f101E93b906"
    ],
    1,
    "0x9fE46736679d2D9a65F0992F2272dE9f3c7fa6e0",
    "0x5FbDB2315678afecb367f032d93F642f64180aa3",
    "0xe7f1725E7734CE288F8367e1Bb143E90bb3F0512"
  ],
  "numDeployments": 1,
  "solcInputHash": "9572697e3a93836ab3d466dd3e23e495",
  "bytecode": "0x60e0604052346103f357611b0280380380610019816103f8565b92833981019060a0818303126103f35780516001600160401b0381116103f357810182601f820112156103f3578051926001600160401b038411610383578360051b9160206100698185016103f8565b809681520190602082948201019283116103f357602001905b8282106103db5750505060208201519161009e6040820161041d565b6100b660806100af6060850161041d565b930161041d565b60008054336001600160a01b03198216811783556040519396939290916001600160a01b0316907f8be0079c531659141344cd1fd0a4f28419497f9722a3daafe3b4186f6b6457e09080a386511561039957508551906001600160401b03821161038357680100000000000000008211610383576005548260055580831061033d575b506005600052602060002060005b838110610320575050505060005b855181101561018e5760019060406000838060a01b0360208460051b8b0101511681526004602052208260ff1982541617905501610155565b508380156102e7576001556001600160a01b031680156102a2576080526001600160a01b0316801561025d5760a0526001600160a01b0316801561020e5760c0526040516116d090816104328239608051818181610582015261111e015260a0518181816106530152610f9d015260c0518181816105f001526110020152f35b60405162461bcd60e51b815260206004820152602160248201527f707269636546656564466163746f7279206d757374206e6f74206265207a65726044820152606f60f81b6064820152608490fd5b60405162461bcd60e51b815260206004820152601e60248201527f657363726f77466163746f7279206d757374206e6f74206265207a65726f00006044820152606490fd5b60405162461bcd60e51b815260206004820152601b60248201527f726266466163746f7279206d757374206e6f74206265207a65726f00000000006044820152606490fd5b60405162461bcd60e51b815260206004820152601160248201527007468726573686f6c64206d757374203e3607c1b6044820152606490fd5b82516001600160a01b031681830155602090920191600101610147565b60056000527f036b6384b5eca791c62761152d0c79bb0604c104a5fb6f4eb0703f3154bb3db09081019083015b8181106103775750610139565b6000815560010161036a565b634e487b7160e01b600052604160045260246000fd5b62461bcd60e51b815260206004820152601c60248201527f77686974654c69737473206d757374206e6f7420626520656d707479000000006044820152606490fd5b602080916103e88461041d565b815201910190610082565b600080fd5b6040519190601f01601f191682016001600160401b0381118382101761038357604052565b51906001600160a01b03821682036103f35756fe6080604052600436101561001257600080fd5b60003560e01c806342cde4e8146100f75780634426b9e5146100f25780636da194b9146100ed578063715018a6146100e8578063747fb347146100e357806376677817146100de5780638913d372146100d95780638da5cb5b146100d45780638feeb76f146100cf578063926acacf146100ca578063bdd1daaa146100c5578063c56b7142146100c0578063f2fde38b146100bb5763fa0fca84146100b657600080fd5b6107e2565b610713565b6106b8565b61063d565b61061f565b6105da565b6105b1565b61056c565b6104a5565b61041c565b6103c3565b610280565b6101d9565b61010c565b600091031261010757565b600080fd5b34610107576000366003190112610107576020600154604051908152f35b634e487b7160e01b600052604160045260246000fd5b60c081019081106001600160401b0382111761015b57604052565b61012a565b90601f801991011681019081106001600160401b0382111761015b57604052565b6040519061019161010083610160565b565b6040519061019160e083610160565b6040519061019160c083610160565b6001600160401b03811161015b5760051b60200190565b6001600160a01b0381160361010757565b34610107576040366003190112610107576004356001600160401b038111610107573660238201121561010757806004013590610215826101b1565b916102236040519384610160565b8083526024602084019160051b8301019136831161010757602401905b8282106102555761025360243585610824565b005b602080918335610264816101c8565b815201910190610240565b6001600160401b0381160361010757565b34610107576020366003190112610107576001600160401b036004356102a58161026f565b600060a06040516102b581610140565b82815282602082015282604082015282606082015282608082015201521660005260036020526103bf60406000206103606103506005604051936102f885610140565b8054855260018101546001600160a01b039081166020870152600282015416604086015260038101546001600160a01b0316606086015260048101546001600160a01b0316608086015201546001600160a01b031690565b6001600160a01b031660a0830152565b60408051825181526020808401516001600160a01b03908116918301919091528383015181169282019290925260608084015183169082015260808084015183169082015260a0928301519091169181019190915290819060c0820190565b0390f35b34610107576000366003190112610107576103dc611453565b600080546001600160a01b0319811682556001600160a01b03167f8be0079c531659141344cd1fd0a4f28419497f9722a3daafe3b4186f6b6457e08280a3005b346101075760003660031901126101075760206001600160401b0360025416604051908152f35b6001600160401b03811161015b57601f01601f191660200190565b81601f820112156101075780359061047582610443565b926104836040519485610160565b8284526020838301011161010757816000926020809301838601378301015290565b34610107576040366003190112610107576004356001600160401b038111610107576104d590369060040161045e565b6024356001600160401b038111610107573660238201121561010757806004013591610500836101b1565b9161050e6040519384610160565b8383526024602084019460051b820101903682116101075760248101945b82861061053d576102538585610ed9565b85356001600160401b0381116101075760209161056183926024369187010161045e565b81520195019461052c565b34610107576000366003190112610107576040517f00000000000000000000000000000000000000000000000000000000000000006001600160a01b03168152602090f35b34610107576000366003190112610107576000546040516001600160a01b039091168152602090f35b34610107576000366003190112610107576040517f00000000000000000000000000000000000000000000000000000000000000006001600160a01b03168152602090f35b34610107576000366003190112610107576020600554604051908152f35b34610107576000366003190112610107576040517f00000000000000000000000000000000000000000000000000000000000000006001600160a01b03168152602090f35b634e487b7160e01b600052603260045260246000fd5b6005548110156106b357600560005260206000200190600090565b610682565b34610107576020366003190112610107576004356005548110156101075760056000527f036b6384b5eca791c62761152d0c79bb0604c104a5fb6f4eb0703f3154bb3db001546040516001600160a01b039091168152602090f35b3461010757602036600319011261010757600435610730816101c8565b610738611453565b6001600160a01b0381161561078e57600080546001600160a01b039283166001600160a01b03198216811783559216907f8be0079c531659141344cd1fd0a4f28419497f9722a3daafe3b4186f6b6457e09080a3005b60405162461bcd60e51b815260206004820152602660248201527f4f776e61626c653a206e6577206f776e657220697320746865207a65726f206160448201526564647265737360d01b6064820152608490fd5b34610107576020366003190112610107576004356107ff816101c8565b60018060a01b03166000526004602052602060ff604060002054166040519015158152f35b919061082e611453565b61083a83511515610935565b610845811515610981565b60055460005b8181106108fb57505061085d836109e3565b825160005b8181106108ab5750507fa9c14782f5d99c831cebd1c0585a8e3ceacc1c6325ad789bf45725d9db9783b0919261089782600155565b6108a660405192839283610ac4565b0390a1565b806108f56108e86108ce6108c16001958a610ab0565b516001600160a01b031690565b6001600160a01b0316600090815260046020526040902090565b805460ff19166001179055565b01610862565b8061092f6109256108ce610910600195610698565b905460039190911b1c6001600160a01b031690565b805460ff19169055565b0161084b565b1561093c57565b60405162461bcd60e51b815260206004820152601c60248201527f77686974654c69737473206d757374206e6f7420626520656d707479000000006044820152606490fd5b1561098857565b60405162461bcd60e51b815260206004820152601a60248201527f7468726573686f6c64206d757374206e6f74206265207a65726f0000000000006044820152606490fd5b634e487b7160e01b600052601160045260246000fd5b8051906001600160401b03821161015b5768010000000000000000821161015b5760055482600555808310610a6a575b5060056000526020017f036b6384b5eca791c62761152d0c79bb0604c104a5fb6f4eb0703f3154bb3db060005b838110610a4d5750505050565b82516001600160a01b031682820155602090920191600101610a40565b60056000527f036b6384b5eca791c62761152d0c79bb0604c104a5fb6f4eb0703f3154bb3db09081019083015b818110610aa45750610a13565b60008155600101610a97565b80518210156106b35760209160051b010190565b929190604084019060408552805180925260206060860191019160005b818110610af357505060209150930152565b83516001600160a01b0316835260209384019390920191600101610ae1565b51906101918261026f565b60005b838110610b305750506000910152565b8181015183820152602001610b20565b81601f82011215610107578051610b5681610443565b92610b646040519485610160565b8184526020828401011161010757610b829160208085019101610b1d565b90565b5190610191826101c8565b602081830312610107578051906001600160401b03821161010757016101008183031261010757610bbf610181565b91610bc982610b12565b835260208201516001600160401b0381116101075781610bea918401610b40565b60208401526040820151916001600160401b03831161010757610c1460e092610c63948301610b40565b6040850152610c2560608201610b85565b6060850152610c3660808201610b85565b6080850152610c4760a08201610b85565b60a0850152610c5860c08201610b85565b60c085015201610b85565b60e082015290565b15610c7257565b60405162461bcd60e51b815260206004820152601760248201527f524246526f757465723a496e76616c69642072626649640000000000000000006044820152606490fd5b15610cbe57565b60405162461bcd60e51b815260206004820152601a60248201527f524246526f757465723a496e76616c6964206465706c6f7965720000000000006044820152606490fd5b6001600160401b03166001600160401b038114610d205760010190565b6109cd565b908160209103126101075751610b82816101c8565b6040513d6000823e3d90fd5b90816060910312610107578051610d5c816101c8565b9160406020830151610d6d816101c8565b920151610b82816101c8565b90602091610d9281518092818552858086019101610b1d565b601f01601f1916010190565b929160206101919260408652610e2e60c0610dde610dc9845160e060408c01526101208b0190610d79565b848601518a8203603f190160608c0152610d79565b60408401516001600160a01b0390811660808b8101919091526060860151821660a08c810191909152908601518216848c01528501511660e08a01529201516001600160a01b0316610100880152565b6001600160a01b03909216940193909352565b8151815560208201516001820180546001600160a01b039283166001600160a01b0319918216179091556040840151600284018054831691841691909117905560608401516003840180548316918416919091179055608084015160048401805490921692169190911790556101919160059060a00151910180546001600160a01b0319166001600160a01b03909216919091179055565b610ee6610ef59282611552565b60208082518301019101610b90565b610f78610f5c610f0c83516001600160401b031690565b610f35610f216002546001600160401b031690565b916001600160401b03808416911614610c6b565b60a0840151610f57906001600160a01b03166001600160a01b03163314610cb7565b610d03565b6001600160401b03166001600160401b03196002541617600255565b604051633043038960e11b815230600482015260208160248160006001600160a01b037f0000000000000000000000000000000000000000000000000000000000000000165af190811561138057600091611434575b5060c082018051604051633ac6fae160e01b81526001600160a01b03909116600482015290916020828060248101038160007f00000000000000000000000000000000000000000000000000000000000000006001600160a01b03165af191821561138057600092611401575b506111189192606060208601516110ee60408801516110c0848a01956110b18b61109061108260806110738c5160018060a01b031690565b9301516001600160a01b031690565b93516001600160a01b031690565b94611099610193565b97885260208801526001600160a01b03166040870152565b6001600160a01b031684860152565b6001600160a01b03861660808401526001600160a01b03881660a08401526001600160a01b031660c0830152565b60e08701516001600160a01b031660405163f6eecd8360e01b815295869283929060048401610d9e565b038160007f00000000000000000000000000000000000000000000000000000000000000006001600160a01b03165af192831561138057600093849185916113c4575b50906111a26111f29261119261116f6101a2565b4281526001600160a01b0389166020820152936001600160a01b03166040850152565b6001600160a01b03166060830152565b6001600160a01b03841660808201526001600160a01b03861660a08201526111ed6111d488516001600160401b031690565b6001600160401b03166000526003602052604060002090565b610e41565b516001600160a01b038281169116813b156101075760405163aec42a1760e01b81526001600160a01b039182166004820152908416602482015260008160448183865af18015611380576113af575b50803b15610107576040516332fd71af60e11b81526001600160a01b038416600482015260008160248183865af180156113805761139a575b50803b1561010757604051639c52a7f160e01b8152306004820152906000908290602490829084905af1801561138057611385575b506001600160a01b03821690813b156101075760405163f2fde38b60e01b8152336004820152916000908390602490829084905af18015611380577f29824c3a4c9d281558f1fd20fa89fe3eab29a03eb10a7200c3fc980957181e51956108a69361132792611365575b50516001600160401b031690565b604080516001600160401b0390921682526001600160a01b039586166020830152938516938101939093529290921660608201529081906080820190565b80611374600061137a93610160565b806100fc565b38611319565b610d3a565b80611374600061139493610160565b386112af565b8061137460006113a993610160565b3861127a565b8061137460006113be93610160565b38611241565b6111a295506111f292506113f0915060603d6060116113fa575b6113e88183610160565b810190610d46565b919590925061115b565b503d6113de565b61111892506114279060203d60201161142d575b61141f8183610160565b810190610d25565b9161103b565b503d611415565b61144d915060203d60201161142d5761141f8183610160565b38610fce565b6000546001600160a01b0316330361146757565b606460405162461bcd60e51b815260206004820152602060248201527f4f776e61626c653a2063616c6c6572206973206e6f7420746865206f776e65726044820152fd5b156114b257565b60405162461bcd60e51b815260206004820152601860248201527f524246526f757465723a496e76616c6964205369676e657200000000000000006044820152606490fd5b6000198114610d205760010190565b1561150d57565b60405162461bcd60e51b815260206004820152601b60248201527f524246526f757465723a496e76616c6964205468726573686f6c6400000000006044820152606490fd5b9190916020815191012060405160208101917f19457468657265756d205369676e6564204d6573736167653a0a3332000000008352603c820152603c815261159b605c82610160565b519020600092835b8151851015611687576115b68583610ab0565b5160009060418151036116375760208181015160408084015160609485015182518a815290871a81860152918201929092529283015282805290829060809060015afa1561138057516001600160a01b031660009081526004602052604090205460019161162f9161162a9060ff166114ab565b6114f7565b9401936115a3565b60405162461bcd60e51b815260206004820152602260248201527f524246526f757465723a496e76616c6964207369676e6174757265206c656e676044820152610e8d60f31b6064820152608490fd5b915050610191919250600154111561150656fea2646970667358221220ef2ec185e4c94053a58b2d54c03b3cace896feec8bfbd0e0fdcb06daab2120e164736f6c634300081a0033",
  "devdoc": {
    "author": "Accelerate Finance",
    "details": "Router contract for deploying RBF contracts and managing their settings.",
    "kind": "dev",
    "methods": {
      "constructor": {
        "details": "Sets up the factories for RBF, escrow, and price feed while initializing the whitelist and threshold.",
        "params": {
          "_escrowFactory": "Address of the escrow factory.",
          "_priceFeedFactory": "Address of the price feed factory.",
          "_rbfFactory": "Address of the RBF factory.",
          "_threshold": "Minimum number of valid signatures required.",
          "_whiteLists": "Array of addresses that are whitelisted for signing transactions."
        }
      },
      "deployRBF(bytes,bytes[])": {
        "details": "Decodes the deployment data, verifies signatures, and deploys the RBF contract along with escrow and price feed.",
        "params": {
          "deployData": "Encoded data containing deployment parameters.",
          "signatures": "Array of signatures for verification."
        }
      },
      "getRBFInfo(uint64)": {
        "params": {
          "rbfId": "rbfId The unique identifier of the RBF contract."
        },
        "returns": {
          "_0": "RBFInfo  The corresponding RBFInfo struct."
        }
      },
      "getWhiteListsLen()": {
        "details": "This function is used to get the length of the whiteLists array.",
        "returns": {
          "_0": "uint256  The length of the whiteLists array."
        }
      },
      "owner()": {
        "details": "Returns the address of the current owner."
      },
      "renounceOwnership()": {
        "details": "Leaves the contract without owner. It will not be possible to call `onlyOwner` functions. Can only be called by the current owner. NOTE: Renouncing ownership will leave the contract without an owner, thereby disabling any functionality that is only available to the owner."
      },
      "setWhiteListsAndThreshold(address[],uint256)": {
        "details": "Only the contract owner can call this function. It first clears the existing whitelist,          then sets the new whitelist addresses and updates the required signature threshold.",
        "params": {
          "_threshold": "Minimum number of valid signatures required for verification.",
          "_whiteLists": "Array of new addresses to be whitelisted."
        }
      },
      "transferOwnership(address)": {
        "details": "Transfers ownership of the contract to a new account (`newOwner`). Can only be called by the current owner."
      }
    },
    "title": "RBFRouter",
    "version": 1
  },
  "userdoc": {
    "kind": "user",
    "methods": {
      "constructor": {
        "notice": "Constructor to initialize the router with necessary parameters."
      },
      "deployRBF(bytes,bytes[])": {
        "notice": "Deploys a new RBF contract after verifying signatures."
      },
      "getRBFInfo(uint64)": {
        "notice": "Retrieves information about a deployed RBF contract."
      },
      "getWhiteListsLen()": {
        "notice": "Returns the length of the whiteLists array."
      },
      "setWhiteListsAndThreshold(address[],uint256)": {
        "notice": "Updates the whitelist of authorized signers and the signature threshold."
      }
    },
    "notice": "This contract facilitates the creation and management of RBF contracts, handling escrow and price feed deployment.",
    "version": 1
  },
  "storageLayout": {
    "storage": [
      {
        "astId": 3547,
        "contract": "contracts/v1/rbf/RBFRouter.sol:RBFRouter",
        "label": "_owner",
        "offset": 0,
        "slot": "0",
        "type": "t_address"
      },
      {
        "astId": 9864,
        "contract": "contracts/v1/rbf/RBFRouter.sol:RBFRouter",
        "label": "threshold",
        "offset": 0,
        "slot": "1",
        "type": "t_uint256"
      },
      {
        "astId": 9866,
        "contract": "contracts/v1/rbf/RBFRouter.sol:RBFRouter",
        "label": "rbfNonce",
        "offset": 0,
        "slot": "2",
        "type": "t_uint64"
      },
      {
        "astId": 9880,
        "contract": "contracts/v1/rbf/RBFRouter.sol:RBFRouter",
        "label": "rbfs",
        "offset": 0,
        "slot": "3",
        "type": "t_mapping(t_uint64,t_struct(RBFInfo)9845_storage)"
      },
      {
        "astId": 9884,
        "contract": "contracts/v1/rbf/RBFRouter.sol:RBFRouter",
        "label": "whiteListed",
        "offset": 0,
        "slot": "4",
        "type": "t_mapping(t_address,t_bool)"
      },
      {
        "astId": 9887,
        "contract": "contracts/v1/rbf/RBFRouter.sol:RBFRouter",
        "label": "whiteLists",
        "offset": 0,
        "slot": "5",
        "type": "t_array(t_address)dyn_storage"
      }
    ],
    "types": {
      "t_address": {
        "encoding": "inplace",
        "label": "address",
        "numberOfBytes": "20"
      },
      "t_array(t_address)dyn_storage": {
        "base": "t_address",
        "encoding": "dynamic_array",
        "label": "address[]",
        "numberOfBytes": "32"
      },
      "t_bool": {
        "encoding": "inplace",
        "label": "bool",
        "numberOfBytes": "1"
      },
      "t_mapping(t_address,t_bool)": {
        "encoding": "mapping",
        "key": "t_address",
        "label": "mapping(address => bool)",
        "numberOfBytes": "32",
        "value": "t_bool"
      },
      "t_mapping(t_uint64,t_struct(RBFInfo)9845_storage)": {
        "encoding": "mapping",
        "key": "t_uint64",
        "label": "mapping(uint64 => struct RBFRouter.RBFInfo)",
        "numberOfBytes": "32",
        "value": "t_struct(RBFInfo)9845_storage"
      },
      "t_struct(RBFInfo)9845_storage": {
        "encoding": "inplace",
        "label": "struct RBFRouter.RBFInfo",
        "members": [
          {
            "astId": 9834,
            "contract": "contracts/v1/rbf/RBFRouter.sol:RBFRouter",
            "label": "createdAt",
            "offset": 0,
            "slot": "0",
            "type": "t_uint256"
          },
          {
            "astId": 9836,
            "contract": "contracts/v1/rbf/RBFRouter.sol:RBFRouter",
            "label": "rbf",
            "offset": 0,
            "slot": "1",
            "type": "t_address"
          },
          {
            "astId": 9838,
            "contract": "contracts/v1/rbf/RBFRouter.sol:RBFRouter",
            "label": "rbfProxyAdmin",
            "offset": 0,
            "slot": "2",
            "type": "t_address"
          },
          {
            "astId": 9840,
            "contract": "contracts/v1/rbf/RBFRouter.sol:RBFRouter",
            "label": "rbfImpl",
            "offset": 0,
            "slot": "3",
            "type": "t_address"
          },
          {
            "astId": 9842,
            "contract": "contracts/v1/rbf/RBFRouter.sol:RBFRouter",
            "label": "dividendTreasury",
            "offset": 0,
            "slot": "4",
            "type": "t_address"
          },
          {
            "astId": 9844,
            "contract": "contracts/v1/rbf/RBFRouter.sol:RBFRouter",
            "label": "priceFeed",
            "offset": 0,
            "slot": "5",
            "type": "t_address"
          }
        ],
        "numberOfBytes": "192"
      },
      "t_uint256": {
        "encoding": "inplace",
        "label": "uint256",
        "numberOfBytes": "32"
      },
      "t_uint64": {
        "encoding": "inplace",
        "label": "uint64",
        "numberOfBytes": "8"
      }
    }
  }
}