{
  "address": "0xCf7Ed3AccA5a467e9e704C703E8D87F634fB0Fc9",
  "abi": [
    {
      "inputs": [
        {
          "internalType": "address[]",
          "name": "_whiteLists",
          "type": "address[]"
        },
        {
          "internalType": "uint256",
          "name": "_threshold",
          "type": "uint256"
        },
        {
          "internalType": "address",
          "name": "_rbfFactory",
          "type": "address"
        },
        {
          "internalType": "address",
          "name": "_escrowFactory",
          "type": "address"
        },
        {
          "internalType": "address",
          "name": "_priceFeedFactory",
          "type": "address"
        }
      ],
      "stateMutability": "nonpayable",
      "type": "constructor"
    },
    {
      "anonymous": false,
      "inputs": [
        {
          "indexed": false,
          "internalType": "uint64",
          "name": "rbfId",
          "type": "uint64"
        },
        {
          "indexed": false,
          "internalType": "address",
          "name": "priceFeed",
          "type": "address"
        },
        {
          "indexed": false,
          "internalType": "address",
          "name": "rbf",
          "type": "address"
        },
        {
          "indexed": false,
          "internalType": "address",
          "name": "dividendTreasury",
          "type": "address"
        }
      ],
      "name": "DeployRBFEvent",
      "type": "event"
    },
    {
      "anonymous": false,
      "inputs": [
        {
          "indexed": true,
          "internalType": "address",
          "name": "previousOwner",
          "type": "address"
        },
        {
          "indexed": true,
          "internalType": "address",
          "name": "newOwner",
          "type": "address"
        }
      ],
      "name": "OwnershipTransferred",
      "type": "event"
    },
    {
      "anonymous": false,
      "inputs": [
        {
          "indexed": false,
          "internalType": "address[]",
          "name": "whiteLists",
          "type": "address[]"
        },
        {
          "indexed": false,
          "internalType": "uint256",
          "name": "threshold",
          "type": "uint256"
        }
      ],
      "name": "SetWhiteListsAndThreshold",
      "type": "event"
    },
    {
      "inputs": [
        {
          "internalType": "bytes",
          "name": "deployData",
          "type": "bytes"
        },
        {
          "internalType": "bytes[]",
          "name": "signatures",
          "type": "bytes[]"
        }
      ],
      "name": "deployRBF",
      "outputs": [],
      "stateMutability": "nonpayable",
      "type": "function"
    },
    {
      "inputs": [],
      "name": "escrowFactory",
      "outputs": [
        {
          "internalType": "contract IEscrowFactory",
          "name": "",
          "type": "address"
        }
      ],
      "stateMutability": "view",
      "type": "function"
    },
    {
      "inputs": [
        {
          "internalType": "uint64",
          "name": "rbfId",
          "type": "uint64"
        }
      ],
      "name": "getRBFInfo",
      "outputs": [
        {
          "components": [
            {
              "internalType": "uint256",
              "name": "createdAt",
              "type": "uint256"
            },
            {
              "internalType": "address",
              "name": "rbf",
              "type": "address"
            },
            {
              "internalType": "address",
              "name": "rbfProxyAdmin",
              "type": "address"
            },
            {
              "internalType": "address",
              "name": "rbfImpl",
              "type": "address"
            },
            {
              "internalType": "address",
              "name": "dividendTreasury",
              "type": "address"
            },
            {
              "internalType": "address",
              "name": "priceFeed",
              "type": "address"
            }
          ],
          "internalType": "struct RBFRouter.RBFInfo",
          "name": "",
          "type": "tuple"
        }
      ],
      "stateMutability": "view",
      "type": "function"
    },
    {
      "inputs": [],
      "name": "getWhiteListsLen",
      "outputs": [
        {
          "internalType": "uint256",
          "name": "",
          "type": "uint256"
        }
      ],
      "stateMutability": "view",
      "type": "function"
    },
    {
      "inputs": [],
      "name": "owner",
      "outputs": [
        {
          "internalType": "address",
          "name": "",
          "type": "address"
        }
      ],
      "stateMutability": "view",
      "type": "function"
    },
    {
      "inputs": [],
      "name": "priceFeedFactory",
      "outputs": [
        {
          "internalType": "contract IPriceFeedFactory",
          "name": "",
          "type": "address"
        }
      ],
      "stateMutability": "view",
      "type": "function"
    },
    {
      "inputs": [],
      "name": "rbfFactory",
      "outputs": [
        {
          "internalType": "contract IRBFFactory",
          "name": "",
          "type": "address"
        }
      ],
      "stateMutability": "view",
      "type": "function"
    },
    {
      "inputs": [],
      "name": "rbfNonce",
      "outputs": [
        {
          "internalType": "uint64",
          "name": "",
          "type": "uint64"
        }
      ],
      "stateMutability": "view",
      "type": "function"
    },
    {
      "inputs": [],
      "name": "renounceOwnership",
      "outputs": [],
      "stateMutability": "nonpayable",
      "type": "function"
    },
    {
      "inputs": [
        {
          "internalType": "address[]",
          "name": "_whiteLists",
          "type": "address[]"
        },
        {
          "internalType": "uint256",
          "name": "_threshold",
          "type": "uint256"
        }
      ],
      "name": "setWhiteListsAndThreshold",
      "outputs": [],
      "stateMutability": "nonpayable",
      "type": "function"
    },
    {
      "inputs": [],
      "name": "threshold",
      "outputs": [
        {
          "internalType": "uint256",
          "name": "",
          "type": "uint256"
        }
      ],
      "stateMutability": "view",
      "type": "function"
    },
    {
      "inputs": [
        {
          "internalType": "address",
          "name": "newOwner",
          "type": "address"
        }
      ],
      "name": "transferOwnership",
      "outputs": [],
      "stateMutability": "nonpayable",
      "type": "function"
    },
    {
      "inputs": [
        {
          "internalType": "address",
          "name": "",
          "type": "address"
        }
      ],
      "name": "whiteListed",
      "outputs": [
        {
          "internalType": "bool",
          "name": "",
          "type": "bool"
        }
      ],
      "stateMutability": "view",
      "type": "function"
    },
    {
      "inputs": [
        {
          "internalType": "uint256",
          "name": "",
          "type": "uint256"
        }
      ],
      "name": "whiteLists",
      "outputs": [
        {
          "internalType": "address",
          "name": "",
          "type": "address"
        }
      ],
      "stateMutability": "view",
      "type": "function"
    }
  ],
  "transactionHash": "0xb39b30f544d924dddfb976467deeff85d9144755603bbfac08c44e60dd9b0147",
  "args": [
    [
      "0x90F79bf6EB2c4f870365E785982E1f101E93b906",
      "0x1CBd3b2770909D4e10f157cABC84C7264073C9Ec"
    ],
    2,
    "0x9fE46736679d2D9a65F0992F2272dE9f3c7fa6e0",
    "0x5FbDB2315678afecb367f032d93F642f64180aa3",
    "0xe7f1725E7734CE288F8367e1Bb143E90bb3F0512"
  ],
  "numDeployments": 1,
  "solcInputHash": "0572710e54ae512a691e2633e2e1442a",
  "bytecode": "0x60e0604052346103f357611b2b80380380610019816103f8565b92833981019060a0818303126103f35780516001600160401b0381116103f357810182601f820112156103f3578051926001600160401b038411610383578360051b9160206100698185016103f8565b809681520190602082948201019283116103f357602001905b8282106103db5750505060208201519161009e6040820161041d565b6100b660806100af6060850161041d565b930161041d565b60008054336001600160a01b03198216811783556040519396939290916001600160a01b0316907f8be0079c531659141344cd1fd0a4f28419497f9722a3daafe3b4186f6b6457e09080a386511561039957508551906001600160401b03821161038357680100000000000000008211610383576005548260055580831061033d575b506005600052602060002060005b838110610320575050505060005b855181101561018e5760019060406000838060a01b0360208460051b8b0101511681526004602052208260ff1982541617905501610155565b508380156102e7576001556001600160a01b031680156102a2576080526001600160a01b0316801561025d5760a0526001600160a01b0316801561020e5760c0526040516116f9908161043282396080518181816105830152611147015260a0518181816106540152610fbf015260c0518181816105f101526110240152f35b60405162461bcd60e51b815260206004820152602160248201527f707269636546656564466163746f7279206d757374206e6f74206265207a65726044820152606f60f81b6064820152608490fd5b60405162461bcd60e51b815260206004820152601e60248201527f657363726f77466163746f7279206d757374206e6f74206265207a65726f00006044820152606490fd5b60405162461bcd60e51b815260206004820152601b60248201527f726266466163746f7279206d757374206e6f74206265207a65726f00000000006044820152606490fd5b60405162461bcd60e51b815260206004820152601160248201527007468726573686f6c64206d757374203e3607c1b6044820152606490fd5b82516001600160a01b031681830155602090920191600101610147565b60056000527f036b6384b5eca791c62761152d0c79bb0604c104a5fb6f4eb0703f3154bb3db09081019083015b8181106103775750610139565b6000815560010161036a565b634e487b7160e01b600052604160045260246000fd5b62461bcd60e51b815260206004820152601c60248201527f77686974654c69737473206d757374206e6f7420626520656d707479000000006044820152606490fd5b602080916103e88461041d565b815201910190610082565b600080fd5b6040519190601f01601f191682016001600160401b0381118382101761038357604052565b51906001600160a01b03821682036103f35756fe6080604052600436101561001257600080fd5b60003560e01c806342cde4e8146100f75780634426b9e5146100f25780636da194b9146100ed578063715018a6146100e8578063747fb347146100e357806376677817146100de5780638913d372146100d95780638da5cb5b146100d45780638feeb76f146100cf578063926acacf146100ca578063bdd1daaa146100c5578063c56b7142146100c0578063f2fde38b146100bb5763fa0fca84146100b657600080fd5b6107e3565b610714565b6106b9565b61063e565b610620565b6105db565b6105b2565b61056d565b6104a6565b61041d565b6103c4565b610281565b6101da565b61010c565b600091031261010757565b600080fd5b34610107576000366003190112610107576020600154604051908152f35b634e487b7160e01b600052604160045260246000fd5b60c081019081106001600160401b0382111761015b57604052565b61012a565b90601f801991011681019081106001600160401b0382111761015b57604052565b6040519061019161012083610160565b565b6040519061019161010083610160565b6040519061019160c083610160565b6001600160401b03811161015b5760051b60200190565b6001600160a01b0381160361010757565b34610107576040366003190112610107576004356001600160401b038111610107573660238201121561010757806004013590610216826101b2565b916102246040519384610160565b8083526024602084019160051b8301019136831161010757602401905b8282106102565761025460243585610825565b005b602080918335610265816101c9565b815201910190610241565b6001600160401b0381160361010757565b34610107576020366003190112610107576001600160401b036004356102a681610270565b600060a06040516102b681610140565b82815282602082015282604082015282606082015282608082015201521660005260036020526103c060406000206103616103516005604051936102f985610140565b8054855260018101546001600160a01b039081166020870152600282015416604086015260038101546001600160a01b0316606086015260048101546001600160a01b0316608086015201546001600160a01b031690565b6001600160a01b031660a0830152565b60408051825181526020808401516001600160a01b03908116918301919091528383015181169282019290925260608084015183169082015260808084015183169082015260a0928301519091169181019190915290819060c0820190565b0390f35b34610107576000366003190112610107576103dd61147c565b600080546001600160a01b0319811682556001600160a01b03167f8be0079c531659141344cd1fd0a4f28419497f9722a3daafe3b4186f6b6457e08280a3005b346101075760003660031901126101075760206001600160401b0360025416604051908152f35b6001600160401b03811161015b57601f01601f191660200190565b81601f820112156101075780359061047682610444565b926104846040519485610160565b8284526020838301011161010757816000926020809301838601378301015290565b34610107576040366003190112610107576004356001600160401b038111610107576104d690369060040161045f565b6024356001600160401b038111610107573660238201121561010757806004013591610501836101b2565b9161050f6040519384610160565b8383526024602084019460051b820101903682116101075760248101945b82861061053e576102548585610efb565b85356001600160401b0381116101075760209161056283926024369187010161045f565b81520195019461052d565b34610107576000366003190112610107576040517f00000000000000000000000000000000000000000000000000000000000000006001600160a01b03168152602090f35b34610107576000366003190112610107576000546040516001600160a01b039091168152602090f35b34610107576000366003190112610107576040517f00000000000000000000000000000000000000000000000000000000000000006001600160a01b03168152602090f35b34610107576000366003190112610107576020600554604051908152f35b34610107576000366003190112610107576040517f00000000000000000000000000000000000000000000000000000000000000006001600160a01b03168152602090f35b634e487b7160e01b600052603260045260246000fd5b6005548110156106b457600560005260206000200190600090565b610683565b34610107576020366003190112610107576004356005548110156101075760056000527f036b6384b5eca791c62761152d0c79bb0604c104a5fb6f4eb0703f3154bb3db001546040516001600160a01b039091168152602090f35b3461010757602036600319011261010757600435610731816101c9565b61073961147c565b6001600160a01b0381161561078f57600080546001600160a01b039283166001600160a01b03198216811783559216907f8be0079c531659141344cd1fd0a4f28419497f9722a3daafe3b4186f6b6457e09080a3005b60405162461bcd60e51b815260206004820152602660248201527f4f776e61626c653a206e6577206f776e657220697320746865207a65726f206160448201526564647265737360d01b6064820152608490fd5b3461010757602036600319011261010757600435610800816101c9565b60018060a01b03166000526004602052602060ff604060002054166040519015158152f35b919061082f61147c565b61083b83511515610936565b610846811515610982565b60055460005b8181106108fc57505061085e836109e4565b825160005b8181106108ac5750507fa9c14782f5d99c831cebd1c0585a8e3ceacc1c6325ad789bf45725d9db9783b0919261089882600155565b6108a760405192839283610ac5565b0390a1565b806108f66108e96108cf6108c26001958a610ab1565b516001600160a01b031690565b6001600160a01b0316600090815260046020526040902090565b805460ff19166001179055565b01610863565b806109306109266108cf610911600195610699565b905460039190911b1c6001600160a01b031690565b805460ff19169055565b0161084c565b1561093d57565b60405162461bcd60e51b815260206004820152601c60248201527f77686974654c69737473206d757374206e6f7420626520656d707479000000006044820152606490fd5b1561098957565b60405162461bcd60e51b815260206004820152601a60248201527f7468726573686f6c64206d757374206e6f74206265207a65726f0000000000006044820152606490fd5b634e487b7160e01b600052601160045260246000fd5b8051906001600160401b03821161015b5768010000000000000000821161015b5760055482600555808310610a6b575b5060056000526020017f036b6384b5eca791c62761152d0c79bb0604c104a5fb6f4eb0703f3154bb3db060005b838110610a4e5750505050565b82516001600160a01b031682820155602090920191600101610a41565b60056000527f036b6384b5eca791c62761152d0c79bb0604c104a5fb6f4eb0703f3154bb3db09081019083015b818110610aa55750610a14565b60008155600101610a98565b80518210156106b45760209160051b010190565b929190604084019060408552805180925260206060860191019160005b818110610af457505060209150930152565b83516001600160a01b0316835260209384019390920191600101610ae2565b519061019182610270565b60005b838110610b315750506000910152565b8181015183820152602001610b21565b81601f82011215610107578051610b5781610444565b92610b656040519485610160565b8184526020828401011161010757610b839160208085019101610b1e565b90565b5190610191826101c9565b602081830312610107578051906001600160401b03821161010757016101208183031261010757610bc0610181565b91610bca82610b13565b835260208201516001600160401b0381116101075781610beb918401610b41565b60208401526040820151916001600160401b03831161010757610c1661010092610c6f948301610b41565b6040850152610c2760608201610b86565b6060850152610c3860808201610b86565b608085015260a081015160a0850152610c5360c08201610b86565b60c0850152610c6460e08201610b86565b60e085015201610b86565b61010082015290565b15610c7f57565b60405162461bcd60e51b815260206004820152601760248201527f524246526f757465723a496e76616c69642072626649640000000000000000006044820152606490fd5b15610ccb57565b60405162461bcd60e51b815260206004820152601a60248201527f524246526f757465723a496e76616c6964206465706c6f7965720000000000006044820152606490fd5b6001600160401b03166001600160401b038114610d2d5760010190565b6109ce565b908160209103126101075751610b83816101c9565b6040513d6000823e3d90fd5b90816060910312610107578051610d69816101c9565b9160406020830151610d7a816101c9565b920151610b83816101c9565b90602091610d9f81518092818552858086019101610b1e565b601f01601f1916010190565b929160206101919260408652610e5060e0610dec610dd7845161010060408c01526101408b0190610d86565b848601518a8203603f190160608c0152610d86565b60408401516001600160a01b0390811660808b015260608501511660a08a01529260808101516001600160a01b031660c08a015260a08101516001600160a01b03168983015260c08101516101008a015201516001600160a01b0316610120880152565b6001600160a01b03909216940193909352565b8151815560208201516001820180546001600160a01b039283166001600160a01b0319918216179091556040840151600284018054831691841691909117905560608401516003840180548316918416919091179055608084015160048401805490921692169190911790556101919160059060a00151910180546001600160a01b0319166001600160a01b03909216919091179055565b610f08610f17928261157b565b60208082518301019101610b91565b610f9a610f7e610f2e83516001600160401b031690565b610f57610f436002546001600160401b031690565b916001600160401b03808416911614610c78565b60c0840151610f79906001600160a01b03166001600160a01b03163314610cc4565b610d10565b6001600160401b03166001600160401b03196002541617600255565b604051633043038960e11b815230600482015260208160248160006001600160a01b037f0000000000000000000000000000000000000000000000000000000000000000165af19081156113a95760009161145d575b5060e082018051604051633ac6fae160e01b81526001600160a01b03909116600482015290916020828060248101038160007f00000000000000000000000000000000000000000000000000000000000000006001600160a01b03165af19182156113a95760009261142a575b506111419192606060208601516111166040880151838901946110e38a6110d461108d895160018060a01b031690565b60808301516110b39060a0906001600160a01b031694015195516001600160a01b031690565b956110bc610193565b98895260208901526001600160a01b03166040880152565b6001600160a01b031685870152565b6001600160a01b03871660808501526001600160a01b03891660a085015260c08401526001600160a01b031660e0830152565b6101008701516001600160a01b031660405163f8a6f70160e01b815295869283929060048401610dab565b038160007f00000000000000000000000000000000000000000000000000000000000000006001600160a01b03165af19283156113a957600093849185916113ed575b50906111cb61121b926111bb6111986101a3565b4281526001600160a01b0389166020820152936001600160a01b03166040850152565b6001600160a01b03166060830152565b6001600160a01b03841660808201526001600160a01b03861660a08201526112166111fd88516001600160401b031690565b6001600160401b03166000526003602052604060002090565b610e63565b516001600160a01b038281169116813b156101075760405163aec42a1760e01b81526001600160a01b039182166004820152908416602482015260008160448183865af180156113a9576113d8575b50803b15610107576040516332fd71af60e11b81526001600160a01b038416600482015260008160248183865af180156113a9576113c3575b50803b1561010757604051639c52a7f160e01b8152306004820152906000908290602490829084905af180156113a9576113ae575b506001600160a01b03821690813b156101075760405163f2fde38b60e01b8152336004820152916000908390602490829084905af180156113a9577f29824c3a4c9d281558f1fd20fa89fe3eab29a03eb10a7200c3fc980957181e51956108a7936113509261138e575b50516001600160401b031690565b604080516001600160401b0390921682526001600160a01b039586166020830152938516938101939093529290921660608201529081906080820190565b8061139d60006113a393610160565b806100fc565b38611342565b610d47565b8061139d60006113bd93610160565b386112d8565b8061139d60006113d293610160565b386112a3565b8061139d60006113e793610160565b3861126a565b6111cb955061121b9250611419915060603d606011611423575b6114118183610160565b810190610d53565b9195909250611184565b503d611407565b61114192506114509060203d602011611456575b6114488183610160565b810190610d32565b9161105d565b503d61143e565b611476915060203d602011611456576114488183610160565b38610ff0565b6000546001600160a01b0316330361149057565b606460405162461bcd60e51b815260206004820152602060248201527f4f776e61626c653a2063616c6c6572206973206e6f7420746865206f776e65726044820152fd5b156114db57565b60405162461bcd60e51b815260206004820152601860248201527f524246526f757465723a496e76616c6964205369676e657200000000000000006044820152606490fd5b6000198114610d2d5760010190565b1561153657565b60405162461bcd60e51b815260206004820152601b60248201527f524246526f757465723a496e76616c6964205468726573686f6c6400000000006044820152606490fd5b9190916020815191012060405160208101917f19457468657265756d205369676e6564204d6573736167653a0a3332000000008352603c820152603c81526115c4605c82610160565b519020600092835b81518510156116b0576115df8583610ab1565b5160009060418151036116605760208181015160408084015160609485015182518a815290871a81860152918201929092529283015282805290829060809060015afa156113a957516001600160a01b0316600090815260046020526040902054600191611658916116539060ff166114d4565b611520565b9401936115cc565b60405162461bcd60e51b815260206004820152602260248201527f524246526f757465723a496e76616c6964207369676e6174757265206c656e676044820152610e8d60f31b6064820152608490fd5b915050610191919250600154111561152f56fea2646970667358221220e011fa4575c48786ca78a5dfd14d26e42726dc79a446fdec3a87a5edde48f3fd64736f6c634300081a0033",
  "devdoc": {
    "author": "Accelerate Finance",
    "details": "Router contract for deploying RBF contracts and managing their settings.",
    "kind": "dev",
    "methods": {
      "constructor": {
        "details": "Sets up the factories for RBF, escrow, and price feed while initializing the whitelist and threshold.",
        "params": {
          "_escrowFactory": "Address of the escrow factory.",
          "_priceFeedFactory": "Address of the price feed factory.",
          "_rbfFactory": "Address of the RBF factory.",
          "_threshold": "Minimum number of valid signatures required.",
          "_whiteLists": "Array of addresses that are whitelisted for signing transactions."
        }
      },
      "deployRBF(bytes,bytes[])": {
        "details": "Decodes the deployment data, verifies signatures, and deploys the RBF contract along with escrow and price feed.",
        "params": {
          "deployData": "Encoded data containing deployment parameters.",
          "signatures": "Array of signatures for verification."
        }
      },
      "getRBFInfo(uint64)": {
        "params": {
          "rbfId": "rbfId The unique identifier of the RBF contract."
        },
        "returns": {
          "_0": "RBFInfo  The corresponding RBFInfo struct."
        }
      },
      "getWhiteListsLen()": {
        "details": "This function is used to get the length of the whiteLists array.",
        "returns": {
          "_0": "uint256  The length of the whiteLists array."
        }
      },
      "owner()": {
        "details": "Returns the address of the current owner."
      },
      "renounceOwnership()": {
        "details": "Leaves the contract without owner. It will not be possible to call `onlyOwner` functions. Can only be called by the current owner. NOTE: Renouncing ownership will leave the contract without an owner, thereby disabling any functionality that is only available to the owner."
      },
      "setWhiteListsAndThreshold(address[],uint256)": {
        "details": "Only the contract owner can call this function. It first clears the existing whitelist,          then sets the new whitelist addresses and updates the required signature threshold.",
        "params": {
          "_threshold": "Minimum number of valid signatures required for verification.",
          "_whiteLists": "Array of new addresses to be whitelisted."
        }
      },
      "transferOwnership(address)": {
        "details": "Transfers ownership of the contract to a new account (`newOwner`). Can only be called by the current owner."
      }
    },
    "title": "RBFRouter",
    "version": 1
  },
  "userdoc": {
    "kind": "user",
    "methods": {
      "constructor": {
        "notice": "Constructor to initialize the router with necessary parameters."
      },
      "deployRBF(bytes,bytes[])": {
        "notice": "Deploys a new RBF contract after verifying signatures."
      },
      "getRBFInfo(uint64)": {
        "notice": "Retrieves information about a deployed RBF contract."
      },
      "getWhiteListsLen()": {
        "notice": "Returns the length of the whiteLists array."
      },
      "setWhiteListsAndThreshold(address[],uint256)": {
        "notice": "Updates the whitelist of authorized signers and the signature threshold."
      }
    },
    "notice": "This contract facilitates the creation and management of RBF contracts, handling escrow and price feed deployment.",
    "version": 1
  },
  "storageLayout": {
    "storage": [
      {
        "astId": 3462,
        "contract": "contracts/rbf/RBFRouter.sol:RBFRouter",
        "label": "_owner",
        "offset": 0,
        "slot": "0",
        "type": "t_address"
      },
      {
        "astId": 9251,
        "contract": "contracts/rbf/RBFRouter.sol:RBFRouter",
        "label": "threshold",
        "offset": 0,
        "slot": "1",
        "type": "t_uint256"
      },
      {
        "astId": 9253,
        "contract": "contracts/rbf/RBFRouter.sol:RBFRouter",
        "label": "rbfNonce",
        "offset": 0,
        "slot": "2",
        "type": "t_uint64"
      },
      {
        "astId": 9267,
        "contract": "contracts/rbf/RBFRouter.sol:RBFRouter",
        "label": "rbfs",
        "offset": 0,
        "slot": "3",
        "type": "t_mapping(t_uint64,t_struct(RBFInfo)9230_storage)"
      },
      {
        "astId": 9271,
        "contract": "contracts/rbf/RBFRouter.sol:RBFRouter",
        "label": "whiteListed",
        "offset": 0,
        "slot": "4",
        "type": "t_mapping(t_address,t_bool)"
      },
      {
        "astId": 9274,
        "contract": "contracts/rbf/RBFRouter.sol:RBFRouter",
        "label": "whiteLists",
        "offset": 0,
        "slot": "5",
        "type": "t_array(t_address)dyn_storage"
      }
    ],
    "types": {
      "t_address": {
        "encoding": "inplace",
        "label": "address",
        "numberOfBytes": "20"
      },
      "t_array(t_address)dyn_storage": {
        "base": "t_address",
        "encoding": "dynamic_array",
        "label": "address[]",
        "numberOfBytes": "32"
      },
      "t_bool": {
        "encoding": "inplace",
        "label": "bool",
        "numberOfBytes": "1"
      },
      "t_mapping(t_address,t_bool)": {
        "encoding": "mapping",
        "key": "t_address",
        "label": "mapping(address => bool)",
        "numberOfBytes": "32",
        "value": "t_bool"
      },
      "t_mapping(t_uint64,t_struct(RBFInfo)9230_storage)": {
        "encoding": "mapping",
        "key": "t_uint64",
        "label": "mapping(uint64 => struct RBFRouter.RBFInfo)",
        "numberOfBytes": "32",
        "value": "t_struct(RBFInfo)9230_storage"
      },
      "t_struct(RBFInfo)9230_storage": {
        "encoding": "inplace",
        "label": "struct RBFRouter.RBFInfo",
        "members": [
          {
            "astId": 9219,
            "contract": "contracts/rbf/RBFRouter.sol:RBFRouter",
            "label": "createdAt",
            "offset": 0,
            "slot": "0",
            "type": "t_uint256"
          },
          {
            "astId": 9221,
            "contract": "contracts/rbf/RBFRouter.sol:RBFRouter",
            "label": "rbf",
            "offset": 0,
            "slot": "1",
            "type": "t_address"
          },
          {
            "astId": 9223,
            "contract": "contracts/rbf/RBFRouter.sol:RBFRouter",
            "label": "rbfProxyAdmin",
            "offset": 0,
            "slot": "2",
            "type": "t_address"
          },
          {
            "astId": 9225,
            "contract": "contracts/rbf/RBFRouter.sol:RBFRouter",
            "label": "rbfImpl",
            "offset": 0,
            "slot": "3",
            "type": "t_address"
          },
          {
            "astId": 9227,
            "contract": "contracts/rbf/RBFRouter.sol:RBFRouter",
            "label": "dividendTreasury",
            "offset": 0,
            "slot": "4",
            "type": "t_address"
          },
          {
            "astId": 9229,
            "contract": "contracts/rbf/RBFRouter.sol:RBFRouter",
            "label": "priceFeed",
            "offset": 0,
            "slot": "5",
            "type": "t_address"
          }
        ],
        "numberOfBytes": "192"
      },
      "t_uint256": {
        "encoding": "inplace",
        "label": "uint256",
        "numberOfBytes": "32"
      },
      "t_uint64": {
        "encoding": "inplace",
        "label": "uint64",
        "numberOfBytes": "8"
      }
    }
  }
}