{
  "address": "0xDc64a140Aa3E981100a9becA4E685f962f0cF6C9",
  "abi": [
    {
      "inputs": [
        {
          "internalType": "address",
          "name": "deployer",
          "type": "address"
        }
      ],
      "stateMutability": "nonpayable",
      "type": "constructor"
    },
    {
      "anonymous": false,
      "inputs": [
        {
          "indexed": true,
          "internalType": "address",
          "name": "user",
          "type": "address"
        }
      ],
      "name": "Deny",
      "type": "event"
    },
    {
      "anonymous": false,
      "inputs": [
        {
          "indexed": true,
          "internalType": "address",
          "name": "user",
          "type": "address"
        }
      ],
      "name": "Rely",
      "type": "event"
    },
    {
      "anonymous": false,
      "inputs": [
        {
          "indexed": false,
          "internalType": "address",
          "name": "proxy",
          "type": "address"
        },
        {
          "indexed": false,
          "internalType": "address",
          "name": "proxyAdmin",
          "type": "address"
        },
        {
          "indexed": false,
          "internalType": "address",
          "name": "implementation",
          "type": "address"
        },
        {
          "indexed": false,
          "internalType": "address",
          "name": "guardian",
          "type": "address"
        }
      ],
      "name": "VaultDeployed",
      "type": "event"
    },
    {
      "inputs": [
        {
          "internalType": "address",
          "name": "user",
          "type": "address"
        }
      ],
      "name": "deny",
      "outputs": [],
      "stateMutability": "nonpayable",
      "type": "function"
    },
    {
      "inputs": [
        {
          "components": [
            {
              "internalType": "string",
              "name": "name",
              "type": "string"
            },
            {
              "internalType": "string",
              "name": "symbol",
              "type": "string"
            },
            {
              "internalType": "address",
              "name": "assetToken",
              "type": "address"
            },
            {
              "internalType": "address",
              "name": "rbf",
              "type": "address"
            },
            {
              "internalType": "uint256",
              "name": "maxSupply",
              "type": "uint256"
            },
            {
              "internalType": "uint256",
              "name": "subStartTime",
              "type": "uint256"
            },
            {
              "internalType": "uint256",
              "name": "subEndTime",
              "type": "uint256"
            },
            {
              "internalType": "uint256",
              "name": "duration",
              "type": "uint256"
            },
            {
              "internalType": "uint256",
              "name": "fundThreshold",
              "type": "uint256"
            },
            {
              "internalType": "uint256",
              "name": "financePrice",
              "type": "uint256"
            },
            {
              "internalType": "uint256",
              "name": "minDepositAmount",
              "type": "uint256"
            },
            {
              "internalType": "uint256",
              "name": "manageFee",
              "type": "uint256"
            },
            {
              "internalType": "address",
              "name": "manager",
              "type": "address"
            },
            {
              "internalType": "address",
              "name": "feeReceiver",
              "type": "address"
            },
            {
              "internalType": "address",
              "name": "dividendTreasury",
              "type": "address"
            },
            {
              "internalType": "address[]",
              "name": "whitelists",
              "type": "address[]"
            }
          ],
          "internalType": "struct VaultInitializeData",
          "name": "data",
          "type": "tuple"
        },
        {
          "internalType": "address",
          "name": "guardian",
          "type": "address"
        }
      ],
      "name": "newVault",
      "outputs": [
        {
          "internalType": "address",
          "name": "",
          "type": "address"
        },
        {
          "internalType": "address",
          "name": "",
          "type": "address"
        },
        {
          "internalType": "address",
          "name": "",
          "type": "address"
        }
      ],
      "stateMutability": "nonpayable",
      "type": "function"
    },
    {
      "inputs": [
        {
          "internalType": "address",
          "name": "user",
          "type": "address"
        }
      ],
      "name": "rely",
      "outputs": [],
      "stateMutability": "nonpayable",
      "type": "function"
    },
    {
      "inputs": [
        {
          "internalType": "address",
          "name": "",
          "type": "address"
        }
      ],
      "name": "wards",
      "outputs": [
        {
          "internalType": "uint256",
          "name": "",
          "type": "uint256"
        }
      ],
      "stateMutability": "view",
      "type": "function"
    }
  ],
  "transactionHash": "0x318eb79166d89b09ec3c1cf780abce4dd5f307da81a93b49c536e59ad2a028a1",
  "args": [
    "0xf39Fd6e51aad88F6F4ce6aB8827279cffFb92266"
  ],
  "numDeployments": 1,
  "solcInputHash": "0572710e54ae512a691e2633e2e1442a",
  "bytecode": "0x608034609357601f6155ed38819003918201601f19168301916001600160401b03831184841017609857808492602094604052833981010312609357516001600160a01b038116908190036093578060005260006020526001604060002055604051907fdd0e34038ac38b2a1ce960229778ac48a8719bc900b6c4f8d0475c6e8b385a60600080a261553e90816100af8239f35b600080fd5b634e487b7160e01b600052604160045260246000fdfe6080604052600436101561001257600080fd5b6000803560e01c80635510b6521461016457806365fae35e146100f35780639c52a7f1146100835763bf353dbb1461004957600080fd5b34610080576020366003190112610080576020906040906001600160a01b036100706107b9565b1681528083522054604051908152f35b80fd5b50346100805760203660031901126100805761009d6107b9565b338252816020526100b460016040842054146107e3565b6001600160a01b03168082526020829052604082208290557f184450df2e323acec0ed3b5c7531b81f9b4cdef7914dfd4c0a4317416bb5251b8280a280f35b50346100805760203660031901126100805761010d6107b9565b3382528160205261012460016040842054146107e3565b6001600160a01b0316808252602082905260408220600190557fdd0e34038ac38b2a1ce960229778ac48a8719bc900b6c4f8d0475c6e8b385a608280a280f35b50346100805760403660031901126100805760043567ffffffffffffffff811161072157610200600319823603011261072157610280604052806004013567ffffffffffffffff811161071d576101c1906004369184010161075d565b608052602481013567ffffffffffffffff811161071d576101e8906004369184010161075d565b60a0526101f7604482016107cf565b60c052610206606482016107cf565b60e05260848101356101005260a48101356101205260c48101356101405260e481013561016052610104810135610180526101248101356101a0526101448101356101c0526101648101356101e05261026261018482016107cf565b610200526102736101a482016107cf565b610220526102846101c482016107cf565b610240526101e48101359067ffffffffffffffff821161071d5736602383830101121561071d57600482820101359167ffffffffffffffff83116106b0578260051b604051936102d76020830186610725565b8452602084019136602485830184010111610719579091602482850101925b602485840182010184106106f957610260869052602435876001600160a01b0382168203610080573381528060205261033560016040832054146107e3565b604051806139be81011067ffffffffffffffff6139be830111176106e5576139be611b4b8239806139be8101039082f080156106d8576040518061066f81011067ffffffffffffffff61066f830111176106c45761066f61086782398061066f8101039083f0801561064f5760405180610c7581011067ffffffffffffffff610c75830111176106b057610c75610ed682396001600160a01b03838116610c758301908152908316602082015260606040820181905281018590528190036080019084f09283156106a4576001600160a01b0384163b15610080576040516337c895a760e01b8152602060048201526104546104406080516102006024850152610224840190610825565b60a051838203602319016044850152610825565b60c0516001600160a01b03908116606484015260e051811660848401526101005160a48401526101205160c48401526101405160e484015261016051610104840152610180516101248401526101a0516101448401526101c0516101648401526101e0516101848401526102005181166101a48401526102205181166101c484015261024051166101e48301526102605182820360231901610204840152805180835260209182019285928592910190835b81811061067f575092935090915081900381836001600160a01b038a165af1801561064f57829061066f575b50506001600160a01b0382163b156100805760405163f2fde38b60e01b81526001600160a01b038681166004830152829082906024908290849088165af1801561064f5790829161065a575b50506001600160a01b0384163b156100805760405163f2fde38b60e01b81523360048201528181602481836001600160a01b038a165af1801561064f5761063a575b5050604080516001600160a01b0385811682528381166020830152848116928201929092529416606085810191909152937f08063c8075192206c58e6dd01ffef672f99055179aead6066f80fb31dd2db15090608090a1604080516001600160a01b03948516815291841660208301529190921690820152f35b610645828092610725565b61008057806105c0565b6040513d84823e3d90fd5b8161066491610725565b61008057808661057e565b61067891610725565b8581610532565b85516001600160a01b0316835260209586019588955087945090920191600101610506565b604051903d90823e3d90fd5b634e487b7160e01b84526041600452602484fd5b634e487b7160e01b83526041600452602483fd5b50604051903d90823e3d90fd5b634e487b7160e01b82526041600452602482fd5b602092838060049461070a886107cf565b815201950194925092506102f6565b8580fd5b8280fd5b5080fd5b90601f8019910116810190811067ffffffffffffffff82111761074757604052565b634e487b7160e01b600052604160045260246000fd5b81601f820112156107b45780359067ffffffffffffffff82116107475760405192610792601f8401601f191660200185610725565b828452602083830101116107b457816000926020809301838601378301015290565b600080fd5b600435906001600160a01b03821682036107b457565b35906001600160a01b03821682036107b457565b156107ea57565b60405162461bcd60e51b8152602060048201526013602482015272105d5d1a0bdb9bdd0b585d5d1a1bdc9a5e9959606a1b6044820152606490fd5b919082519283825260005b848110610851575050826000602080949584010152601f8019910116010190565b8060208092840101518282860101520161083056fe60808060405234605a5760008054336001600160a01b0319821681178355916001600160a01b03909116907f8be0079c531659141344cd1fd0a4f28419497f9722a3daafe3b4186f6b6457e09080a361060f90816100608239f35b600080fdfe608080604052600436101561001357600080fd5b60009081803560e01c918263204e1c7a1461046d5750508063715018a6146104135780637eff275e146103825780638da5cb5b1461035b5780639623609d1461024957806399a88ec4146101b4578063f2fde38b146100ee5763f3b7dead1461007b57600080fd5b346100eb5760203660031901126100eb57808060046001600160a01b036100a06104ad565b6040516303e1469160e61b815291165afa6100b9610532565b90156100e75780516020916001600160a01b03916100de919081018401908401610562565b16604051908152f35b5080fd5b80fd5b50346100eb5760203660031901126100eb576101086104ad565b610110610581565b6001600160a01b031680156101605781546001600160a01b03198116821783556001600160a01b03167f8be0079c531659141344cd1fd0a4f28419497f9722a3daafe3b4186f6b6457e08380a380f35b60405162461bcd60e51b815260206004820152602660248201527f4f776e61626c653a206e6577206f776e657220697320746865207a65726f206160448201526564647265737360d01b6064820152608490fd5b50346100eb5760403660031901126100eb57806101cf6104ad565b6101d76104c8565b906101e0610581565b6001600160a01b031690813b1561024557604051631b2ce7f360e11b81526001600160a01b0390911660048201529082908290602490829084905af1801561023a576102295750f35b81610233916104de565b6100eb5780f35b6040513d84823e3d90fd5b5050fd5b5060603660031901126100eb5761025e6104ad565b906102676104c8565b6044359267ffffffffffffffff8411610353573660238501121561035357836004013561029381610516565b946102a160405196876104de565b81865236602483830101116103575781859260246020930183890137860101526102c9610581565b6001600160a01b0316803b15610353576040805163278f794360e11b81526001600160a01b0390931660048401526024830152835160448301819052835b81811061033d57848085818187816064818a86838284010152601f8019910116810103019134905af1801561023a576102295750f35b8060208092880101516064828701015201610307565b8280fd5b8480fd5b50346100eb57806003193601126100eb57546040516001600160a01b039091168152602090f35b50346100eb5760403660031901126100eb578061039d6104ad565b6103a56104c8565b906103ae610581565b6001600160a01b031690813b15610245576040516308f2839760e41b81526001600160a01b039091166004820152919081908390602490829084905af18015610406576103f85780f35b610401916104de565b388180f35b50604051903d90823e3d90fd5b50346100eb57806003193601126100eb5761042c610581565b80546001600160a01b03198116825581906001600160a01b03167f8be0079c531659141344cd1fd0a4f28419497f9722a3daafe3b4186f6b6457e08280a380f35b8190346104aa5760203660031901126104aa5781906004906001600160a01b036104956104ad565b635c60da1b60e01b8352165afa6100b9610532565b50fd5b600435906001600160a01b03821682036104c357565b600080fd5b602435906001600160a01b03821682036104c357565b90601f8019910116810190811067ffffffffffffffff82111761050057604052565b634e487b7160e01b600052604160045260246000fd5b67ffffffffffffffff811161050057601f01601f191660200190565b3d1561055d573d9061054382610516565b9161055160405193846104de565b82523d6000602084013e565b606090565b908160209103126104c357516001600160a01b03811681036104c35790565b6000546001600160a01b0316330361059557565b606460405162461bcd60e51b815260206004820152602060248201527f4f776e61626c653a2063616c6c6572206973206e6f7420746865206f776e65726044820152fdfea264697066735822122058b9e5a891b425518778f28ada758022b0fa6de418f37fd8bf81041900605fe864736f6c634300081a00336080604052610c7580380380610014816102ce565b92833981016060828203126102c95761002c82610309565b61003860208401610309565b604084015190936001600160401b0382116102c957019082601f830112156102c95781519161006e6100698461031d565b6102ce565b928084526020840194602082840101116102c95784602061008f9301610338565b803b1561026e577f360894a13ba1a3210667c828492db98dca3e2076cc3735a920a3ca505d382bbc80546001600160a01b0319166001600160a01b0383169081179091557fbc7cd75a20ee27fd9adebab32041f755214dbc6bffa90cc0225b39da2e5c2d3b600080a2815115801590610266575b6101e0575b5050600080516020610c5583398151915254604080516001600160a01b03808416825290941660208501819052939192507f7e644d79422f17c01e4894b5f4f588d331ebfa28653d42ae832dc59e38c9798f91a1811561018c576001600160a01b03191617600080516020610c5583398151915255604051610846908161040f8239f35b60405162461bcd60e51b815260206004820152602660248201527f455243313936373a206e65772061646d696e20697320746865207a65726f206160448201526564647265737360d01b6064820152608490fd5b600080610255946101f160606102ce565b94602786527f416464726573733a206c6f772d6c6576656c2064656c65676174652063616c6c6020870152660819985a5b195960ca1b60408701525190845af43d1561025e573d916102456100698461031d565b9283523d6000602085013e61035b565b50388080610108565b60609161035b565b506000610103565b60405162461bcd60e51b815260206004820152602d60248201527f455243313936373a206e657720696d706c656d656e746174696f6e206973206e60448201526c1bdd08184818dbdb9d1c9858dd609a1b6064820152608490fd5b600080fd5b6040519190601f01601f191682016001600160401b038111838210176102f357604052565b634e487b7160e01b600052604160045260246000fd5b51906001600160a01b03821682036102c957565b6001600160401b0381116102f357601f01601f191660200190565b60005b83811061034b5750506000910152565b818101518382015260200161033b565b919290156103bd575081511561036f575090565b3b156103785790565b60405162461bcd60e51b815260206004820152601d60248201527f416464726573733a2063616c6c20746f206e6f6e2d636f6e74726163740000006044820152606490fd5b8251909150156103d05750805190602001fd5b6044604051809262461bcd60e51b8252602060048301526104008151809281602486015260208686019101610338565b601f01601f19168101030190fdfe60806040523661013f576000805160206107d183398151915254610033906001600160a01b03165b6001600160a01b031690565b330361013a576000356001600160e01b031916631b2ce7f360e11b8103610065575061005d61045b565b602081519101f35b63278f794360e11b8103610081575061007c6103ca565b61005d565b6308f2839760e41b8103610098575061007c6102e4565b6303e1469160e61b81036100af575061007c61023e565b635c60da1b60e01b036100c45761007c610203565b60405162461bcd60e51b815260206004820152604260248201527f5472616e73706172656e745570677261646561626c6550726f78793a2061646d60448201527f696e2063616e6e6f742066616c6c6261636b20746f2070726f78792074617267606482015261195d60f21b608482015260a490fd5b61018b565b6000805160206107d183398151915254610161906001600160a01b0316610027565b330361018b576000356001600160e01b031916631b2ce7f360e11b8103610065575061005d61045b565b6000805160206107f18339815191525460009081906001600160a01b0316368280378136915af43d6000803e156101c1573d6000f35b3d6000fd5b634e487b7160e01b600052604160045260246000fd5b90601f8019910116810190811067ffffffffffffffff8211176101fe57604052565b6101c6565b61020b610581565b60018060a01b036000805160206107f183398151915254166040519060208201526020815261023b6040826101dc565b90565b610246610581565b60018060a01b036000805160206107d183398151915254166040519060208201526020815261023b6040826101dc565b600435906001600160a01b038216820361028c57565b600080fd5b602090600319011261028c576004356001600160a01b038116810361028c5790565b67ffffffffffffffff81116101fe57601f01601f191660200190565b604051906102de6020836101dc565b60008252565b6102ec610581565b3660041161028c576001600160a01b0361030536610291565b166000805160206107d1833981519152547f7e644d79422f17c01e4894b5f4f588d331ebfa28653d42ae832dc59e38c9798f6040805160018060a01b0384168152846020820152a18115610376576001600160a01b031916176000805160206107d18339815191525561023b6102cf565b60405162461bcd60e51b815260206004820152602660248201527f455243313936373a206e65772061646d696e20697320746865207a65726f206160448201526564647265737360d01b6064820152608490fd5b3660041161028c57604036600319011261028c576103e6610276565b6024359067ffffffffffffffff821161028c573660238301121561028c57816004013590610413826102b3565b9161042160405193846101dc565b808352366024828601011161028c576020816000926024610453970183870137840101526001600160a01b0316610588565b61023b6102cf565b610463610581565b3660041161028c576001600160a01b0361047c36610291565b166020906040519061048e83836101dc565b60008252803b15610526576000805160206107f183398151915280546001600160a01b03191682179055807fbc7cd75a20ee27fd9adebab32041f755214dbc6bffa90cc0225b39da2e5c2d3b600080a281511580159061051e575b610504575b50506104fd60405191826101dc565b6000815290565b61051691610510610664565b916106af565b5038806104ee565b5060006104e9565b60405162461bcd60e51b815260048101849052602d60248201527f455243313936373a206e657720696d706c656d656e746174696f6e206973206e60448201526c1bdd08184818dbdb9d1c9858dd609a1b6064820152608490fd5b3461028c57565b803b15610609576000805160206107f183398151915280546001600160a01b0319166001600160a01b0383169081179091557fbc7cd75a20ee27fd9adebab32041f755214dbc6bffa90cc0225b39da2e5c2d3b600080a2815115801590610601575b6105f2575050565b6105fe91610510610664565b50565b5060016105ea565b60405162461bcd60e51b815260206004820152602d60248201527f455243313936373a206e657720696d706c656d656e746174696f6e206973206e60448201526c1bdd08184818dbdb9d1c9858dd609a1b6064820152608490fd5b604051906106736060836101dc565b60278252660819985a5b195960ca1b6040837f416464726573733a206c6f772d6c6576656c2064656c65676174652063616c6c60208201520152565b60008061023b9493602081519101845af43d156106ee573d916106d1836102b3565b926106df60405194856101dc565b83523d6000602085013e610742565b606091610742565b156106fd57565b60405162461bcd60e51b815260206004820152601d60248201527f416464726573733a2063616c6c20746f206e6f6e2d636f6e74726163740000006044820152606490fd5b919290156107625750815115610756575090565b61023b903b15156106f6565b8251909150156107755750805190602001fd5b6040519062461bcd60e51b8252602060048301528181519182602483015260005b8381106107b85750508160006044809484010152601f80199101168101030190fd5b6020828201810151604487840101528593500161079656feb53127684a568b3173ae13b9f8a6016e243e63b6e8ee1178d6a717850b5d6103360894a13ba1a3210667c828492db98dca3e2076cc3735a920a3ca505d382bbca26469706673582212205a24e37b8404c988bf286ad5736caa678faca592c0f556e954fd90f779592ec164736f6c634300081a0033b53127684a568b3173ae13b9f8a6016e243e63b6e8ee1178d6a717850b5d6103608080604052346015576139a3908161001b8239f35b600080fdfe608080604052600436101561001357600080fd5b600090813560e01c90816301ffc9a714612b4f5750806306fdde0314612aba578063095ea7b314612a935780630fb5a6b414612a745780630ff8cf9b146127b15780631083f7611461278857806318160ddd1461276a57806319329e4d146124bd5780631cf2e29e1461249457806323b872dd146123c9578063248a9ca31461239b57806324c62c441461237c5780632e48f1851461235d5780632f2ff15d14612298578063313ce5671461227c5780633197cbb61461225d57806336568abe146121ca57806337c895a71461131657806339509351146112c4578063481c6a751461129a5780634bbdf4da1461127b5780635a05ddb5146111bc578063645006ca1461119d57806369a4684d1461117e57806370a0823114611144578063715018a6146110e75780638ab1d68114610f0a5780638da5cb5b14610ee157806391d1485414610e95578063926acacf14610e7657806395d89b4114610da957806396aee65914610d695780639f81df8d14610d4a578063a035b1fe14610c81578063a217fddf14610c65578063a457c2d714610bc0578063a9059cbb14610b84578063b3f0067414610b5b578063b6b55f25146108c2578063bb13245f146108a3578063bc25606c14610884578063be040fb014610638578063c56b7142146105f3578063c66f2455146105d4578063cf6afb77146105ab578063d547741f14610565578063d5abeb0114610547578063dd62ed3e146104f2578063ddfc7555146104d3578063e1a45218146104b6578063e43252d71461034e578063ec87621c14610325578063f2fde38b146102945763f6153ccd1461027357600080fd5b34610291578060031936011261029157602061010854604051908152f35b80fd5b5034610291576020366003190112610291576102ae612bf3565b6102b66132aa565b6001600160a01b038116156102d1576102ce90613302565b80f35b60405162461bcd60e51b815260206004820152602660248201527f4f776e61626c653a206e6577206f776e657220697320746865207a65726f206160448201526564647265737360d01b6064820152608490fd5b5034610291578060031936011261029157602060405160008051602061392e8339815191528152f35b503461029157602036600319011261029157610368612bf3565b610370612f98565b61037f61010154421115612daa565b6001600160a01b03811680835261010d602052604083205460ff1661046357606461010e54101561041e57825261010d60205260408220805460ff1916600117905561010e54600160401b81101561040a57906103e68260016102ce940161010e55612cce565b81546001600160a01b0393841660039290921b91821b9390911b1916919091179055565b634e487b7160e01b83526041600452602483fd5b60405162461bcd60e51b815260206004820152601860248201527f5661756c743a2057686974656c6973742069732066756c6c00000000000000006044820152606490fd5b60405162461bcd60e51b815260206004820152602560248201527f5661756c743a204164647265737320697320616c72656164792077686974656c6044820152641a5cdd195960da1b6064820152608490fd5b503461029157806003193601126102915760206040516127108152f35b5034610291578060031936011261029157602061010054604051908152f35b503461029157604036600319011261029157604061050e612bf3565b91610517612c09565b9260018060a01b031681526034602052209060018060a01b03166000526020526020604060002054604051908152f35b5034610291578060031936011261029157602060ff54604051908152f35b5034610291576040366003190112610291576102ce600435610585612c09565b906105a66105a18260005260c960205260016040600020015490565b613097565b613181565b503461029157806003193601126102915760fe546040516001600160a01b039091168152602090f35b5034610291578060031936011261029157602061010954604051908152f35b5034610291576020366003190112610291576004359061010e5482101561029157602061061f83612cce565b905460405160039290921b1c6001600160a01b03168152f35b503461029157806003193601126102915733815261010d60205261066260ff604083205416612e45565b61067161010154421015612daa565b6106a561271061069a6305f5e10061068f60ff5461010c5490612d3b565b046101035490612d3b565b046101085410612dec565b338152603360205260408120546305f5e1006106db61010c546106c981151561338f565b6106d66101065485612d4e565b612d3b565b049033156108355733835260336020526040832054918183106107e557602093826107dd943383526033875203604082205582603554036035556040518381527fddf252ad1be2c89b69c2b068fc378daa952ba7f163c4a11628f55a4df523b3ef863392a37ff54122745b7c48254b9d8e22b57ebd7176d8e786dd8fadd4932aa02294bd0747816127106107726101045483612d3b565b04936107818561010a54612e38565b61010a556107928261010954612e38565b6101095560fc546107b8906001600160a01b03166107b08785612d6e565b903390613267565b60408051338152602081019290925281019190915260608101849052608090a1612d6e565b604051908152f35b60405162461bcd60e51b815260206004820152602260248201527f45524332303a206275726e20616d6f756e7420657863656564732062616c616e604482015261636560f01b6064820152608490fd5b60405162461bcd60e51b815260206004820152602160248201527f45524332303a206275726e2066726f6d20746865207a65726f206164647265736044820152607360f81b6064820152608490fd5b5034610291578060031936011261029157602061010c54604051908152f35b5034610291578060031936011261029157602061010654604051908152f35b50346102915760203660031901126102915760043533825261010d6020526108f060ff604084205416612e45565b610105548110610b16576101005442101580610b09575b61091090612daa565b61091d8161010854612d6e565b610108556127106109316101045483612d3b565b04906109408261010a54612d6e565b61010a556109518161010954612d6e565b6101095560fc54610979906001600160a01b031661096f8484612d6e565b903090339061334b565b61010c5461098881151561338f565b6109956101065483612d3b565b6305f5e1008102908082046305f5e1001490151715610af557906109b891612d4e565b91603554916109c78484612d6e565b60ff5410610ab0573315610a6b57602094610a03857f62ecb2a394867776d4797065f4c2c678a4d98de37e96d0a89642599b6e0c4f5495612d6e565b6035553381526033865260408120858154019055604051908582527fddf252ad1be2c89b69c2b068fc378daa952ba7f163c4a11628f55a4df523b3ef873393a360408051338152602081019290925281019190915260608101839052608090a1604051908152f35b60405162461bcd60e51b815260206004820152601f60248201527f45524332303a206d696e7420746f20746865207a65726f2061646472657373006044820152606490fd5b60405162461bcd60e51b815260206004820152601960248201527f5661756c743a206d6178537570706c79206578636565646564000000000000006044820152606490fd5b634e487b7160e01b85526011600452602485fd5b5061010154421115610907565b60405162461bcd60e51b815260206004820152601c60248201527f5661756c743a206465706f736974206c657373207468616e206d696e000000006044820152606490fd5b503461029157806003193601126102915760fd546040516001600160a01b039091168152602090f35b503461029157604036600319011261029157610bb5610ba1612bf3565b610bab81336130d7565b60243590336133ed565b602060405160018152f35b503461029157604036600319011261029157610bda612bf3565b60406024359233815260346020522060018060a01b03821660005260205260406000205491808310610c1257610bb592039033612e90565b60405162461bcd60e51b815260206004820152602560248201527f45524332303a2064656372656173656420616c6c6f77616e63652062656c6f77604482015264207a65726f60d81b6064820152608490fd5b5034610291578060031936011261029157602090604051908152f35b503461029157806003193601126102915760355460fb54604051633b0fb11160e11b8152919290602090839060049082906001600160a01b03165afa918215610d3d578192610d04575b5050620f424090818102918183041490151715610cee576020916107dd91612d4e565b634e487b7160e01b600052601160045260246000fd5b9091506020813d602011610d35575b81610d2060209383612c33565b81010312610d3057519038610ccb565b600080fd5b3d9150610d13565b50604051903d90823e3d90fd5b5034610291578060031936011261029157602061010a54604051908152f35b50346102915760203660031901126102915760209060ff906040906001600160a01b03610d94612bf3565b16815261010d84522054166040519015158152f35b5034610291578060031936011261029157604051908060375490610dcc82612d01565b8085529160018116908115610e4f5750600114610e04575b610e0084610df481860382612c33565b60405191829182612bc7565b0390f35b6037815260008051602061394e833981519152939250905b808210610e3557509091508101602001610df482610de4565b919260018160209254838588010152019101909291610e1c565b60ff191660208087019190915292151560051b85019092019250610df49150839050610de4565b5034610291578060031936011261029157602061010e54604051908152f35b5034610291576040366003190112610291576040610eb1612c09565b91600435815260c9602052209060018060a01b0316600052602052602060ff604060002054166040519015158152f35b50346102915780600319360112610291576065546040516001600160a01b039091168152602090f35b503461029157602036600319011261029157610f24612bf3565b610f2c612f98565b610f3b61010154421115612daa565b6001600160a01b031680825261010d602052604082205460ff1615611093578082526033602052604082205461104e5780825261010d60205260408220805460ff19169055815b61010e54808210156110485782610f9883612cce565b905460039190911b1c6001600160a01b031614610fb85750600101610f82565b909150600019810190811161103457906103e6610fd7610fef93612cce565b905460039190911b1c6001600160a01b031691612cce565b61010e548015611020576000190161100681612cce565b81549060018060a01b039060031b1b1916905561010e5580f35b634e487b7160e01b82526031600452602482fd5b634e487b7160e01b83526011600452602483fd5b50505080f35b60405162461bcd60e51b815260206004820152601a60248201527f5661756c743a2041646472657373206861732062616c616e63650000000000006044820152606490fd5b60405162461bcd60e51b815260206004820152602660248201527f5661756c743a2041646472657373206973206e6f7420696e20746865207768696044820152651d195b1a5cdd60d21b6064820152608490fd5b50346102915780600319360112610291576111006132aa565b606580546001600160a01b0319811690915581906001600160a01b03167f8be0079c531659141344cd1fd0a4f28419497f9722a3daafe3b4186f6b6457e08280a380f35b50346102915760203660031901126102915760206107dd611163612bf3565b6001600160a01b031660009081526033602052604090205490565b5034610291578060031936011261029157602061010154604051908152f35b5034610291578060031936011261029157602061010554604051908152f35b50346102915780600319360112610291576111d5612f98565b61010b541561123d576111ed61010154421015612daa565b61121761271061120b6305f5e10061068f60ff5461010c5490612d3b565b04610108541015612dec565b61010a80549082905560fc5460fd546102ce92916001600160a01b039182169116613267565b60405162461bcd60e51b81526020600482015260166024820152755661756c743a20496e76616c696420656e6454696d6560501b6044820152606490fd5b5034610291578060031936011261029157602061010454604051908152f35b5034610291578060031936011261029157610107546040516001600160a01b039091168152602090f35b503461029157604036600319011261029157610bb59060406112e4612bf3565b9133815260346020522060018060a01b03821660005260205261130f60406000206024359054612d6e565b9033612e90565b5034610291576020366003190112610291576004359067ffffffffffffffff82116102915761020060031983360301126102915760405191610200830183811067ffffffffffffffff82111761040a57604052806004013567ffffffffffffffff81116121c65761138d9060043691840101612c87565b8352602481013567ffffffffffffffff81116121c6576113b39060043691840101612c87565b60208401526113c460448201612c1f565b60408401526113d560648201612c1f565b60608401526084810135608084015260a481013560a084015260c481013560c084015260e481013560e084015261010481013561010084015261012481013561012084015261014481013561014084015261016481013561016084015261143f6101848201612c1f565b6101808401526114526101a48201612c1f565b6101a08401526114656101c48201612c1f565b6101c08401526101e481013567ffffffffffffffff81116121c6573660238284010112156121c65767ffffffffffffffff600482840101351161040a57604051916114bc60206004848401013560051b0184612c33565b6004828201013583526020830190366020600480868501013560051b868501010101116121c257602483820101915b6024828501600481013560051b010183106121a257505050506101e0830152805460ff8160081c161590818092612195575b801561217e575b156121225760ff198116600117835581612111575b5082519260208101519361155c60ff855460081c1661155781613207565b613207565b80519067ffffffffffffffff8211611b4f57819061157b603654612d01565b601f81116120b0575b50602090601f831160011461203f578692612034575b50508160011b916000199060031b1c1916176036555b835167ffffffffffffffff8111612020576115cc603754612d01565b601f8111611fbf575b506020601f8211600114611f4c5784958293949592611f41575b50508160011b916000199060031b1c1916176037555b61161960ff845460081c1661155781613207565b61162233613302565b60408101516001600160a01b031615611ef257604081015160fc80546001600160a01b0319166001600160a01b0392831617905560608201511615611ead5760018060a01b036060820151166bffffffffffffffffffffffff60a01b60fb54161760fb55608081015115611e6857608081015160ff5560a081015160c08201511115611e2a5760a08101516101005560c08101516101015560e081015115611de55760e0810151610102556101008101518015159081611dd8575b5015611d93576101008101516101035561012081015115611d4e576101208101518061010c556101408201518015159182611d2d575b505015611ce857610140810151610105556101608101518015159081611cdb575b5015611c9657610160810151610104556101808101516001600160a01b031615611c585761018081015161010780546001600160a01b0319166001600160a01b039283161790556101a08201511615611c08576101a081015160fd80546001600160a01b0319166001600160a01b039283161790556101c08201511615611bb35760018060a01b036101c0820151166bffffffffffffffffffffffff60a01b60fe54161760fe556101e0810151518015159081611ba7575b5015611b63576101e081015180519067ffffffffffffffff8211611b4f57600160401b8211611b4f5760209061010e548361010e55808410611afb575b500161010e8552845b828110611abe57505050825b6101e082015190815181101561187e576001916020838060a01b03918360051b01015116855261010d602052604085208260ff198254161790550161183e565b5050604081810151905163313ce56760e01b815290602090829060049082906001600160a01b03165afa8015611ab3578490611a72575b60ff91501660060360ff8111611a5e5760ff16604d8111611a5e57600a0a6101065561018081015183805260c9602090815260408086206001600160a01b039093166000818152939092529091205460ff1615611a04575b50610180015160008051602061392e833981519152835260c9602090815260408085206001600160a01b039093166000818152939092529091205460ff1615611990575b506119595780f35b61ff001981541681557f7f26b83ff96e1f2b6a682f133852f6798a09c465da95921460cefb3847402498602060405160018152a180f35b60008051602061392e833981519152835260c96020526040832060018060a01b0382166000526020526040600020600160ff19825416179055339060008051602061392e8339815191527f2f8788117e7eff1d82e926ec794901d17c78024a50270940304540a733656f0d8580a438611951565b83805260c9602090815260408086206001600160a01b038416600090815292529020805460ff191660011790553390847f2f8788117e7eff1d82e926ec794901d17c78024a50270940304540a733656f0d8180a43861190d565b634e487b7160e01b84526011600452602484fd5b506020813d602011611aab575b81611a8c60209383612c33565b81010312611aa7575160ff81168103611aa75760ff906118b5565b8380fd5b3d9150611a7f565b6040513d86823e3d90fd5b81516001600160a01b03167f44731785622d53a842eeb261a70df6f2b61b9624656157b6168597f0656f4805820155602090910190600101611832565b611b49907f44731785622d53a842eeb261a70df6f2b61b9624656157b6168597f0656f480501847f44731785622d53a842eeb261a70df6f2b61b9624656157b6168597f0656f480501612d93565b38611829565b634e487b7160e01b85526041600452602485fd5b606460405162461bcd60e51b815260206004820152602060248201527f5661756c743a20496e76616c69642077686974656c69737473206c656e6774686044820152fd5b606491501115386117ec565b60405162461bcd60e51b815260206004820152602760248201527f5661756c743a20496e76616c6964206469766964656e645472656173757279206044820152666164647265737360c81b6064820152608490fd5b60405162461bcd60e51b815260206004820152602260248201527f5661756c743a20496e76616c6964206665655265636569766572206164647265604482015261737360f01b6064820152608490fd5b60405162461bcd60e51b81526020600482015260166024820152752b30bab63a1d1024b73b30b634b21036b0b730b3b2b960511b6044820152606490fd5b60405162461bcd60e51b815260206004820152601960248201527f5661756c743a20496e76616c6964206d616e61676572466565000000000000006044820152606490fd5b6127109150111538611734565b60405162461bcd60e51b815260206004820152601f60248201527f5661756c743a20496e76616c6964206d696e4465706f736974416d6f756e74006044820152606490fd5b6305f5e100919250611d4490608085015190612d3b565b0410153880611713565b60405162461bcd60e51b815260206004820152601b60248201527f5661756c743a20496e76616c69642066696e616e6365507269636500000000006044820152606490fd5b60405162461bcd60e51b815260206004820152601c60248201527f5661756c743a20496e76616c69642066756e645468726573686f6c64000000006044820152606490fd5b61271091501115386116dd565b60405162461bcd60e51b815260206004820152601760248201527f5661756c743a20496e76616c6964206475726174696f6e0000000000000000006044820152606490fd5b60405162461bcd60e51b81526020600482015260166024820152755661756c743a20496e76616c69642073756254696d6560501b6044820152606490fd5b60405162461bcd60e51b815260206004820152601860248201527f5661756c743a20496e76616c6964206d6178537570706c7900000000000000006044820152606490fd5b60405162461bcd60e51b815260206004820152601a60248201527f5661756c743a20496e76616c69642072626620616464726573730000000000006044820152606490fd5b60405162461bcd60e51b815260206004820152602160248201527f5661756c743a20496e76616c6964206173736574546f6b656e206164647265736044820152607360f81b6064820152608490fd5b0151905038806115ef565b6037855260008051602061394e83398151915290855b601f1984168110611fa7575060019394959683601f19811610611f8e575b505050811b01603755611605565b015160001960f88460031b161c19169055388080611f80565b9091602060018192858b015181550193019101611f62565b6120049060378652601f830160051c60008051602061394e83398151915201906020841061200a575b601f0160051c60008051602061394e8339815191520190612d93565b386115d5565b60008051602061394e8339815191529150611fe8565b634e487b7160e01b84526041600452602484fd5b01519050388061159a565b6036875260008051602061390e8339815191529250601f198416875b818110612098575090846001959493921061207f575b505050811b016036556115b0565b015160001960f88460031b161c19169055388080612071565b9293602060018192878601518155019501930161205b565b6120f59060368852601f840160051c60008051602061390e8339815191520190602085106120fb575b601f0160051c60008051602061390e8339815191520190612d93565b38611584565b60008051602061390e83398151915291506120d9565b61ffff191661010117825538611539565b60405162461bcd60e51b815260206004820152602e60248201527f496e697469616c697a61626c653a20636f6e747261637420697320616c72656160448201526d191e481a5b9a5d1a585b1a5e995960921b6064820152608490fd5b50303b1580156115245750600160ff821614611524565b50600160ff82161061151d565b60209182806004936121b387612c1f565b815201940193915091506114eb565b8480fd5b8280fd5b5034610291576040366003190112610291576121e4612c09565b336001600160a01b03821603612200576102ce90600435613181565b60405162461bcd60e51b815260206004820152602f60248201527f416363657373436f6e74726f6c3a2063616e206f6e6c792072656e6f756e636560448201526e103937b632b9903337b91039b2b63360891b6064820152608490fd5b5034610291578060031936011261029157602061010b54604051908152f35b5034610291578060031936011261029157602060405160068152f35b5034610291576040366003190112610291576004356122b5612c09565b906122d16105a18260005260c960205260016040600020015490565b80835260c96020526040832060018060a01b03831660005260205260ff60406000205416156122fe578280f35b80835260c9602090815260408085206001600160a01b0394909416600081815294909252909220805460ff191660011790553391907f2f8788117e7eff1d82e926ec794901d17c78024a50270940304540a733656f0d8480a438808280f35b503461029157806003193601126102915760206040516305f5e1008152f35b5034610291578060031936011261029157602061010354604051908152f35b50346102915760203660031901126102915760206107dd60043560005260c960205260016040600020015490565b5034610291576060366003190112610291576123e3612bf3565b906123ec612c09565b6040604435926123fc83866130d7565b6001600160a01b038516815260346020908152919020336000908152915260409020549260018401612433575b610bb593506133ed565b82841061244f5761244a83610bb595033383612e90565b612429565b60405162461bcd60e51b815260206004820152601d60248201527f45524332303a20696e73756666696369656e7420616c6c6f77616e63650000006044820152606490fd5b503461029157806003193601126102915760fb546040516001600160a01b039091168152602090f35b50346102915780600319360112610291576124d6612f98565b61010954801561272557610108546305f5e1006124f960ff5461010c5490612d3b565b0481149081156126e9575b50156126a45761010b541561268e575b61010982905560fc5460fb5460405163095ea7b360e01b81526001600160a01b0391821660048201526024810184905291602091839160449183918891165af190811561260b57839161265f575b501561261a5760fb5482906001600160a01b0316803b15612616578190602460405180948193630d1e666760e01b83528760048401525af1801561260b576125d4575b5060207f342efa8b74ee0ae2bd42f90e22f28383024e8ed56bdf2a812f38202eacbd10f791604051908152a180f35b826126037f342efa8b74ee0ae2bd42f90e22f28383024e8ed56bdf2a812f38202eacbd10f79394602093612c33565b9291506125a5565b6040513d85823e3d90fd5b5080fd5b60405162461bcd60e51b815260206004820152601f60248201527f5661756c743a206173736574546f6b656e20617070726f7665206572726f72006044820152606490fd5b612681915060203d602011612687575b6126798183612c33565b810190612d7b565b38612562565b503d61266f565b61269b6101025442612d6e565b61010b55612514565b60405162461bcd60e51b815260206004820152601760248201527f5661756c743a2066756e6472616973696e67206661696c0000000000000000006044820152606490fd5b610101544210159150816126ff575b5038612504565b905061271061271c6305f5e10061068f60ff5461010c5490612d3b565b041115386126f8565b60405162461bcd60e51b815260206004820152601b60248201527f5661756c743a20617373657442616c616e6365206973207a65726f00000000006044820152606490fd5b50346102915780600319360112610291576020603554604051908152f35b503461029157806003193601126102915760fc546040516001600160a01b039091168152602090f35b50346102915780600319360112610291576127ca612f98565b60fc5460fe546040516370a0823160e01b81526001600160a01b0391821660048201529160209183916024918391165afa908115612a69578291612a37575b5080156129f2576035549081156129b657825b61010e5460ff821610156129b25761283381612cce565b905460039190911b1c6001600160a01b0316845261010d602052604084205460ff1661286d575b60ff1660ff8114611a5e5760010161281c565b61289d61287982612cce565b905460039190911b1c6001600160a01b031660009081526033602052604090205490565b1561285a576128ae61287982612cce565b906128b881612cce565b905460039190911b1c6001600160a01b031691821561296e57846128df856128e493612d3b565b612d4e565b9182156129155760fc5460fe5460ff9461290e93909290916001600160a01b03908116911661334b565b905061285a565b60405162461bcd60e51b815260206004820152602b60248201527f5661756c743a206469766964656e64416d6f756e74206d75737420626967676560448201526a72207468616e207a65726f60a81b6064820152608490fd5b606460405162461bcd60e51b815260206004820152602060248201527f5661756c743a207265636569707465722063616e206e6f74206265207a65726f6044820152fd5b8380f35b60405162461bcd60e51b81526020600482015260146024820152735661756c743a204e6f2072627520746f2070617960601b6044820152606490fd5b60405162461bcd60e51b815260206004820152601960248201527f5661756c743a204e6f206469766964656e6420746f20706179000000000000006044820152606490fd5b90506020813d602011612a61575b81612a5260209383612c33565b81010312612616575138612809565b3d9150612a45565b6040513d84823e3d90fd5b5034610291578060031936011261029157602061010254604051908152f35b503461029157604036600319011261029157610bb5612ab0612bf3565b6024359033612e90565b5034610291578060031936011261029157604051908060365490612add82612d01565b8085529160018116908115610e4f5750600114612b0457610e0084610df481860382612c33565b6036815260008051602061390e833981519152939250905b808210612b3557509091508101602001610df482610de4565b919260018160209254838588010152019101909291612b1c565b9050346126165760203660031901126126165760043563ffffffff60e01b81168091036121c65760209250637965db0b60e01b8114908115612b93575b5015158152f35b6301ffc9a760e01b14905038612b8c565b60005b838110612bb75750506000910152565b8181015183820152602001612ba7565b60409160208252612be78151809281602086015260208686019101612ba4565b601f01601f1916010190565b600435906001600160a01b0382168203610d3057565b602435906001600160a01b0382168203610d3057565b35906001600160a01b0382168203610d3057565b90601f8019910116810190811067ffffffffffffffff821117612c5557604052565b634e487b7160e01b600052604160045260246000fd5b67ffffffffffffffff8111612c5557601f01601f191660200190565b81601f82011215610d3057803590612c9e82612c6b565b92612cac6040519485612c33565b82845260208383010111610d3057816000926020809301838601378301015290565b61010e54811015612ceb5761010e60005260206000200190600090565b634e487b7160e01b600052603260045260246000fd5b90600182811c92168015612d31575b6020831014612d1b57565b634e487b7160e01b600052602260045260246000fd5b91607f1691612d10565b81810292918115918404141715610cee57565b8115612d58570490565b634e487b7160e01b600052601260045260246000fd5b91908201809211610cee57565b90816020910312610d3057518015158103610d305790565b818110612d9e575050565b60008155600101612d93565b15612db157565b60405162461bcd60e51b81526020600482015260136024820152725661756c743a20496e76616c69642074696d6560681b6044820152606490fd5b15612df357565b60405162461bcd60e51b815260206004820152601b60248201527f5661756c743a206e6f7420616c6c6f77656420776974686472617700000000006044820152606490fd5b91908203918211610cee57565b15612e4c57565b606460405162461bcd60e51b815260206004820152602060248201527f5661756c743a20796f7520617265206e6f7420696e742077686974656c6973746044820152fd5b6001600160a01b0316908115612f47576001600160a01b0316918215612ef75760207f8c5be1e5ebec7d5bd14f71427d1e84f3dd0314c0f7b2291e5b200ac8c7c3b925918360005260348252604060002085600052825280604060002055604051908152a3565b60405162461bcd60e51b815260206004820152602260248201527f45524332303a20617070726f766520746f20746865207a65726f206164647265604482015261737360f01b6064820152608490fd5b60405162461bcd60e51b8152602060048201526024808201527f45524332303a20617070726f76652066726f6d20746865207a65726f206164646044820152637265737360e01b6064820152608490fd5b3360009081527ff5f43b48833b613af61a2aa61573d51591ce86ef304bb6e01e9115b2a39191de602052604090205460ff1615612fd157565b613093612fdd33613690565b61307b6011612ff960008051602061392e8339815191526137d0565b9260376040519485927f416363657373436f6e74726f6c3a206163636f756e7420000000000000000000602085015261303b8151809260208688019101612ba4565b83017001034b99036b4b9b9b4b733903937b6329607d1b8382015261306a825180936020604885019101612ba4565b01010301601f198101835282612c33565b60405162461bcd60e51b815291829160048301612bc7565b0390fd5b600081815260c96020908152604080832033845290915290205460ff16156130bc5750565b6130939061307b6011612ff96130d133613690565b936137d0565b6001600160a01b0316600090815261010d602052604090205460ff16908161315d575b501561310257565b60405162461bcd60e51b815260206004820152602d60248201527f5661756c743a207472616e736665722066726f6d20616e6420746f206d75737460448201526c081a5b881dda1a5d195b1a5cdd609a1b6064820152608490fd5b6001600160a01b0316600090815261010d602052604090205460ff169050386130fa565b8060005260c9602052604060002060018060a01b03831660005260205260ff604060002054166131af575050565b600081815260c9602090815260408083206001600160a01b0395909516808452949091528120805460ff19169055339291907ff6391f5c32d9c69d2a47ea670b442974b53935d1edc7fd64eb21e047a839171b9080a4565b1561320e57565b60405162461bcd60e51b815260206004820152602b60248201527f496e697469616c697a61626c653a20636f6e7472616374206973206e6f74206960448201526a6e697469616c697a696e6760a81b6064820152608490fd5b60405163a9059cbb60e01b60208201526001600160a01b039290921660248301526044808301939093529181526132a8916132a3606483612c33565b61356c565b565b6065546001600160a01b031633036132be57565b606460405162461bcd60e51b815260206004820152602060248201527f4f776e61626c653a2063616c6c6572206973206e6f7420746865206f776e65726044820152fd5b606580546001600160a01b039283166001600160a01b0319821681179092559091167f8be0079c531659141344cd1fd0a4f28419497f9722a3daafe3b4186f6b6457e0600080a3565b6040516323b872dd60e01b60208201526001600160a01b0392831660248201529290911660448301526064808301939093529181526132a8916132a3608483612c33565b1561339657565b60405162461bcd60e51b815260206004820152602960248201527f5661756c743a2066696e616e63655072696365206d75737420626967676572206044820152687468616e207a65726f60b81b6064820152608490fd5b6001600160a01b0316908115613519576001600160a01b03169182156134c85781600052603360205260406000205481811061347457817fddf252ad1be2c89b69c2b068fc378daa952ba7f163c4a11628f55a4df523b3ef9260209285600052603384520360406000205584600052603382526040600020818154019055604051908152a3565b60405162461bcd60e51b815260206004820152602660248201527f45524332303a207472616e7366657220616d6f756e7420657863656564732062604482015265616c616e636560d01b6064820152608490fd5b60405162461bcd60e51b815260206004820152602360248201527f45524332303a207472616e7366657220746f20746865207a65726f206164647260448201526265737360e81b6064820152608490fd5b60405162461bcd60e51b815260206004820152602560248201527f45524332303a207472616e736665722066726f6d20746865207a65726f206164604482015264647265737360d81b6064820152608490fd5b6040805190926135f0926001600160a01b031690600090819061358f8786612c33565b602085527f5361666545524332303a206c6f772d6c6576656c2063616c6c206661696c6564602086015260208151910182855af13d15613677573d916135d483612c6b565b926135e187519485612c33565b83523d6000602085013e61387c565b805190811591821561365d575b5050156136075750565b5162461bcd60e51b815260206004820152602a60248201527f5361666545524332303a204552433230206f7065726174696f6e20646964206e6044820152691bdd081cdd58d8d9595960b21b6064820152608490fd5b6136709250602080918301019101612d7b565b38806135fd565b60609161387c565b908151811015612ceb570160200190565b60009061369d602a612c6b565b916136ab6040519384612c33565b602a83526136b9602a612c6b565b6020840190601f19013682378351156137bc57603090538251600110156137a8576078602184015350602960005b6001821161373c5750506136f85790565b606460405162461bcd60e51b815260206004820152602060248201527f537472696e67733a20686578206c656e67746820696e73756666696369656e746044820152fd5b9091600f81166010811015613794576f181899199a1a9b1b9c1cb0b131b232b360811b901a61376b848661367f565b5360041c9180156137805760001901906136e7565b634e487b7160e01b82526011600452602482fd5b634e487b7160e01b83526032600452602483fd5b634e487b7160e01b81526032600452602490fd5b634e487b7160e01b82526032600452602482fd5b6000906137dd6042612c6b565b916137eb6040519384612c33565b604283526137f96042612c6b565b6020840190601f19013682378351156137bc57603090538251600110156137a8576078602184015350604160005b600182116138385750506136f85790565b9091600f81166010811015613794576f181899199a1a9b1b9c1cb0b131b232b360811b901a613867848661367f565b5360041c918015613780576000190190613827565b919290156138de5750815115613890575090565b3b156138995790565b60405162461bcd60e51b815260206004820152601d60248201527f416464726573733a2063616c6c20746f206e6f6e2d636f6e74726163740000006044820152606490fd5b8251909150156138f15750805190602001fd5b60405162461bcd60e51b81529081906130939060048301612bc756fe4a11f94e20a93c79f6ec743a1954ec4fc2c08429ae2122118bf234b2185c81b8241ecf16d79d0f8dbfb92cbc07fe17840425976cf0667f022fe9877caa831b0842a7b7dd785cd69714a189dffb3fd7d7174edc9ece837694ce50f7078f7c31aea2646970667358221220e3bcfcbc5f9497d9b0d24dd8cbde476a20df9f54048208f8a5a60c5eff29984464736f6c634300081a0033a2646970667358221220c17987d03796bd13e4526c5e0eff2323e7680c56ee8a0a2c7d8c60ade317c26164736f6c634300081a0033",
  "devdoc": {
    "author": "Accelerate Finance",
    "details": "This contract is responsible for deploying and managing instances of the Vault contract.",
    "kind": "dev",
    "methods": {
      "constructor": {
        "details": "Inherits from the Auth contract to implement access control.",
        "params": {
          "deployer": "The address of the entity deploying the contract, serving as the initial administrator."
        }
      },
      "newVault((string,string,address,address,uint256,uint256,uint256,uint256,uint256,uint256,uint256,uint256,address,address,address,address[]),address)": {
        "details": "Deploys a new implementation of Vault, a ProxyAdmin, and a TransparentUpgradeableProxy.          Transfers ownership of the proxy admin to the guardian and the Vault to the caller.",
        "params": {
          "data": "The initialization data for the Vault contract.",
          "guardian": "The address that will take ownership of the proxy admin."
        },
        "returns": {
          "_0": "address   The address of the newly created Vault proxy contract.",
          "_1": "address   The address of the newly created proxy admin contract.",
          "_2": "address   The address of the newly created Vault implementation contract."
        }
      }
    },
    "title": "VaultFactory",
    "version": 1
  },
  "userdoc": {
    "kind": "user",
    "methods": {
      "constructor": {
        "notice": "Constructor function that initializes the contract and sets the deployer as the authorized user."
      },
      "deny(address)": {
        "notice": "Remove user as a ward (remove admin access)"
      },
      "newVault((string,string,address,address,uint256,uint256,uint256,uint256,uint256,uint256,uint256,uint256,address,address,address,address[]),address)": {
        "notice": "Creates a new instance of the Vault contract using an upgradeable proxy."
      },
      "rely(address)": {
        "notice": "Make user a ward (give them admin access)"
      },
      "wards(address)": {
        "notice": "Returns whether the target is a ward (has admin access)"
      }
    },
    "notice": "This contract serves as a Factory for the upgradable Vault token contract.          Upon calling `newVault` the caller address will          deploy the following:          1) Vault - The implementation contract, ERC20Upgradeable contract with the constructor disabled          2) ProxyAdmin - OZ ProxyAdmin contract, used to upgrade the proxy instance.                          Owner is set to `guardian` address.          3) TransparentUpgradeableProxy - OZ TransparentUpgradeableProxy contract, used to proxy the implementation.          Following the above mentioned deployment, the address of the VaultFactory contract will:          i) Transfer ownership of the ProxyAdmin to that of the `guardian` address.          ii) Transfer ownership of the vaultProxied to that of the `msg.sender` address.",
    "version": 1
  },
  "storageLayout": {
    "storage": [
      {
        "astId": 7362,
        "contract": "contracts/factories/VaultFactory.sol:VaultFactory",
        "label": "wards",
        "offset": 0,
        "slot": "0",
        "type": "t_mapping(t_address,t_uint256)"
      }
    ],
    "types": {
      "t_address": {
        "encoding": "inplace",
        "label": "address",
        "numberOfBytes": "20"
      },
      "t_mapping(t_address,t_uint256)": {
        "encoding": "mapping",
        "key": "t_address",
        "label": "mapping(address => uint256)",
        "numberOfBytes": "32",
        "value": "t_uint256"
      },
      "t_uint256": {
        "encoding": "inplace",
        "label": "uint256",
        "numberOfBytes": "32"
      }
    }
  }
}