{
  "address": "0xe7f1725E7734CE288F8367e1Bb143E90bb3F0512",
  "abi": [
    {
      "inputs": [],
      "stateMutability": "nonpayable",
      "type": "constructor"
    },
    {
      "anonymous": false,
      "inputs": [
        {
          "indexed": false,
          "internalType": "address",
          "name": "proxy",
          "type": "address"
        },
        {
          "indexed": false,
          "internalType": "address",
          "name": "proxyAdmin",
          "type": "address"
        },
        {
          "indexed": false,
          "internalType": "address",
          "name": "implementation",
          "type": "address"
        },
        {
          "indexed": false,
          "internalType": "address",
          "name": "guardian",
          "type": "address"
        }
      ],
      "name": "TokenDeployed",
      "type": "event"
    },
    {
      "inputs": [
        {
          "internalType": "address",
          "name": "vault",
          "type": "address"
        },
        {
          "internalType": "bytes",
          "name": "initData",
          "type": "bytes"
        },
        {
          "internalType": "address",
          "name": "guardian",
          "type": "address"
        }
      ],
      "name": "newToken",
      "outputs": [
        {
          "internalType": "address",
          "name": "",
          "type": "address"
        },
        {
          "internalType": "address",
          "name": "",
          "type": "address"
        },
        {
          "internalType": "address",
          "name": "",
          "type": "address"
        }
      ],
      "stateMutability": "nonpayable",
      "type": "function"
    }
  ],
  "transactionHash": "0x3a56588fc416931edaff804fd870178671aaabe7ef59a037633667c2649a49a2",
  "args": [],
  "numDeployments": 1,
  "solcInputHash": "bf854f03069a11264233a9803646134e",
  "bytecode": "0x60808060405234601557612f8c908161001b8239f35b600080fdfe608080604052600436101561001357600080fd5b600090813560e01c63808908711461002a57600080fd5b3461036f57606036600319011261036f576004356001600160a01b03811692908390036102905760243567ffffffffffffffff811161036f573660238201121561036f5780600401359067ffffffffffffffff821161037357610097601f8301601f191660200185610387565b81845236602483830101116102c95781839260246020930183870137840101526044356001600160a01b038116939084900361036f57831561030e576040516118b38082019082821067ffffffffffffffff8311176102cd579082916116a48339039083f09182156103025760405161066f8082019082821067ffffffffffffffff8311176102ee579082916103c08339039082f09283156102e1576040516001600160a01b03918216949091169290610c758082019067ffffffffffffffff8211838310176102cd576080918391610a2f83398781528660208201526060604082015285606082015203019083f08015610293576001600160a01b031694853b156102c957908290604051928391634447224360e11b8352600483015260406024830152805190816044840152835b8281106102ae5750508181846064809484010152601f8019910116810103018183895af1801561029357829061029e575b5050813b156102905760405163f2fde38b60e01b815260048101869052818160248183875af180156102935761027b575b50507f796096084bbc594560c22217a52364993372dbc567fbc11fb89a536403707f9960806060956040519086825284602083015285604083015287820152a160405192835260208301526040820152f35b610286828092610387565b6102905780610229565b80fd5b6040513d84823e3d90fd5b6102a791610387565b38816101f8565b602081830181015160648884010152879550869450016101c7565b8280fd5b634e487b7160e01b85526041600452602485fd5b50604051903d90823e3d90fd5b634e487b7160e01b84526041600452602484fd5b604051903d90823e3d90fd5b60405162461bcd60e51b815260206004820152603360248201527f5661756c74546f6b656e466163746f72793a20677561726469616e2063616e206044820152726e6f74206265207a65726f206164647265737360681b6064820152608490fd5b5080fd5b634e487b7160e01b83526041600452602483fd5b90601f8019910116810190811067ffffffffffffffff8211176103a957604052565b634e487b7160e01b600052604160045260246000fdfe60808060405234605a5760008054336001600160a01b0319821681178355916001600160a01b03909116907f8be0079c531659141344cd1fd0a4f28419497f9722a3daafe3b4186f6b6457e09080a361060f90816100608239f35b600080fdfe608080604052600436101561001357600080fd5b60009081803560e01c918263204e1c7a1461046d5750508063715018a6146104135780637eff275e146103825780638da5cb5b1461035b5780639623609d1461024957806399a88ec4146101b4578063f2fde38b146100ee5763f3b7dead1461007b57600080fd5b346100eb5760203660031901126100eb57808060046001600160a01b036100a06104ad565b6040516303e1469160e61b815291165afa6100b9610532565b90156100e75780516020916001600160a01b03916100de919081018401908401610562565b16604051908152f35b5080fd5b80fd5b50346100eb5760203660031901126100eb576101086104ad565b610110610581565b6001600160a01b031680156101605781546001600160a01b03198116821783556001600160a01b03167f8be0079c531659141344cd1fd0a4f28419497f9722a3daafe3b4186f6b6457e08380a380f35b60405162461bcd60e51b815260206004820152602660248201527f4f776e61626c653a206e6577206f776e657220697320746865207a65726f206160448201526564647265737360d01b6064820152608490fd5b50346100eb5760403660031901126100eb57806101cf6104ad565b6101d76104c8565b906101e0610581565b6001600160a01b031690813b1561024557604051631b2ce7f360e11b81526001600160a01b0390911660048201529082908290602490829084905af1801561023a576102295750f35b81610233916104de565b6100eb5780f35b6040513d84823e3d90fd5b5050fd5b5060603660031901126100eb5761025e6104ad565b906102676104c8565b6044359267ffffffffffffffff8411610353573660238501121561035357836004013561029381610516565b946102a160405196876104de565b81865236602483830101116103575781859260246020930183890137860101526102c9610581565b6001600160a01b0316803b15610353576040805163278f794360e11b81526001600160a01b0390931660048401526024830152835160448301819052835b81811061033d57848085818187816064818a86838284010152601f8019910116810103019134905af1801561023a576102295750f35b8060208092880101516064828701015201610307565b8280fd5b8480fd5b50346100eb57806003193601126100eb57546040516001600160a01b039091168152602090f35b50346100eb5760403660031901126100eb578061039d6104ad565b6103a56104c8565b906103ae610581565b6001600160a01b031690813b15610245576040516308f2839760e41b81526001600160a01b039091166004820152919081908390602490829084905af18015610406576103f85780f35b610401916104de565b388180f35b50604051903d90823e3d90fd5b50346100eb57806003193601126100eb5761042c610581565b80546001600160a01b03198116825581906001600160a01b03167f8be0079c531659141344cd1fd0a4f28419497f9722a3daafe3b4186f6b6457e08280a380f35b8190346104aa5760203660031901126104aa5781906004906001600160a01b036104956104ad565b635c60da1b60e01b8352165afa6100b9610532565b50fd5b600435906001600160a01b03821682036104c357565b600080fd5b602435906001600160a01b03821682036104c357565b90601f8019910116810190811067ffffffffffffffff82111761050057604052565b634e487b7160e01b600052604160045260246000fd5b67ffffffffffffffff811161050057601f01601f191660200190565b3d1561055d573d9061054382610516565b9161055160405193846104de565b82523d6000602084013e565b606090565b908160209103126104c357516001600160a01b03811681036104c35790565b6000546001600160a01b0316330361059557565b606460405162461bcd60e51b815260206004820152602060248201527f4f776e61626c653a2063616c6c6572206973206e6f7420746865206f776e65726044820152fdfea264697066735822122058b9e5a891b425518778f28ada758022b0fa6de418f37fd8bf81041900605fe864736f6c634300081a00336080604052610c7580380380610014816102ce565b92833981016060828203126102c95761002c82610309565b61003860208401610309565b604084015190936001600160401b0382116102c957019082601f830112156102c95781519161006e6100698461031d565b6102ce565b928084526020840194602082840101116102c95784602061008f9301610338565b803b1561026e577f360894a13ba1a3210667c828492db98dca3e2076cc3735a920a3ca505d382bbc80546001600160a01b0319166001600160a01b0383169081179091557fbc7cd75a20ee27fd9adebab32041f755214dbc6bffa90cc0225b39da2e5c2d3b600080a2815115801590610266575b6101e0575b5050600080516020610c5583398151915254604080516001600160a01b03808416825290941660208501819052939192507f7e644d79422f17c01e4894b5f4f588d331ebfa28653d42ae832dc59e38c9798f91a1811561018c576001600160a01b03191617600080516020610c5583398151915255604051610846908161040f8239f35b60405162461bcd60e51b815260206004820152602660248201527f455243313936373a206e65772061646d696e20697320746865207a65726f206160448201526564647265737360d01b6064820152608490fd5b600080610255946101f160606102ce565b94602786527f416464726573733a206c6f772d6c6576656c2064656c65676174652063616c6c6020870152660819985a5b195960ca1b60408701525190845af43d1561025e573d916102456100698461031d565b9283523d6000602085013e61035b565b50388080610108565b60609161035b565b506000610103565b60405162461bcd60e51b815260206004820152602d60248201527f455243313936373a206e657720696d706c656d656e746174696f6e206973206e60448201526c1bdd08184818dbdb9d1c9858dd609a1b6064820152608490fd5b600080fd5b6040519190601f01601f191682016001600160401b038111838210176102f357604052565b634e487b7160e01b600052604160045260246000fd5b51906001600160a01b03821682036102c957565b6001600160401b0381116102f357601f01601f191660200190565b60005b83811061034b5750506000910152565b818101518382015260200161033b565b919290156103bd575081511561036f575090565b3b156103785790565b60405162461bcd60e51b815260206004820152601d60248201527f416464726573733a2063616c6c20746f206e6f6e2d636f6e74726163740000006044820152606490fd5b8251909150156103d05750805190602001fd5b6044604051809262461bcd60e51b8252602060048301526104008151809281602486015260208686019101610338565b601f01601f19168101030190fdfe60806040523661013f576000805160206107d183398151915254610033906001600160a01b03165b6001600160a01b031690565b330361013a576000356001600160e01b031916631b2ce7f360e11b8103610065575061005d61045b565b602081519101f35b63278f794360e11b8103610081575061007c6103ca565b61005d565b6308f2839760e41b8103610098575061007c6102e4565b6303e1469160e61b81036100af575061007c61023e565b635c60da1b60e01b036100c45761007c610203565b60405162461bcd60e51b815260206004820152604260248201527f5472616e73706172656e745570677261646561626c6550726f78793a2061646d60448201527f696e2063616e6e6f742066616c6c6261636b20746f2070726f78792074617267606482015261195d60f21b608482015260a490fd5b61018b565b6000805160206107d183398151915254610161906001600160a01b0316610027565b330361018b576000356001600160e01b031916631b2ce7f360e11b8103610065575061005d61045b565b6000805160206107f18339815191525460009081906001600160a01b0316368280378136915af43d6000803e156101c1573d6000f35b3d6000fd5b634e487b7160e01b600052604160045260246000fd5b90601f8019910116810190811067ffffffffffffffff8211176101fe57604052565b6101c6565b61020b610581565b60018060a01b036000805160206107f183398151915254166040519060208201526020815261023b6040826101dc565b90565b610246610581565b60018060a01b036000805160206107d183398151915254166040519060208201526020815261023b6040826101dc565b600435906001600160a01b038216820361028c57565b600080fd5b602090600319011261028c576004356001600160a01b038116810361028c5790565b67ffffffffffffffff81116101fe57601f01601f191660200190565b604051906102de6020836101dc565b60008252565b6102ec610581565b3660041161028c576001600160a01b0361030536610291565b166000805160206107d1833981519152547f7e644d79422f17c01e4894b5f4f588d331ebfa28653d42ae832dc59e38c9798f6040805160018060a01b0384168152846020820152a18115610376576001600160a01b031916176000805160206107d18339815191525561023b6102cf565b60405162461bcd60e51b815260206004820152602660248201527f455243313936373a206e65772061646d696e20697320746865207a65726f206160448201526564647265737360d01b6064820152608490fd5b3660041161028c57604036600319011261028c576103e6610276565b6024359067ffffffffffffffff821161028c573660238301121561028c57816004013590610413826102b3565b9161042160405193846101dc565b808352366024828601011161028c576020816000926024610453970183870137840101526001600160a01b0316610588565b61023b6102cf565b610463610581565b3660041161028c576001600160a01b0361047c36610291565b166020906040519061048e83836101dc565b60008252803b15610526576000805160206107f183398151915280546001600160a01b03191682179055807fbc7cd75a20ee27fd9adebab32041f755214dbc6bffa90cc0225b39da2e5c2d3b600080a281511580159061051e575b610504575b50506104fd60405191826101dc565b6000815290565b61051691610510610664565b916106af565b5038806104ee565b5060006104e9565b60405162461bcd60e51b815260048101849052602d60248201527f455243313936373a206e657720696d706c656d656e746174696f6e206973206e60448201526c1bdd08184818dbdb9d1c9858dd609a1b6064820152608490fd5b3461028c57565b803b15610609576000805160206107f183398151915280546001600160a01b0319166001600160a01b0383169081179091557fbc7cd75a20ee27fd9adebab32041f755214dbc6bffa90cc0225b39da2e5c2d3b600080a2815115801590610601575b6105f2575050565b6105fe91610510610664565b50565b5060016105ea565b60405162461bcd60e51b815260206004820152602d60248201527f455243313936373a206e657720696d706c656d656e746174696f6e206973206e60448201526c1bdd08184818dbdb9d1c9858dd609a1b6064820152608490fd5b604051906106736060836101dc565b60278252660819985a5b195960ca1b6040837f416464726573733a206c6f772d6c6576656c2064656c65676174652063616c6c60208201520152565b60008061023b9493602081519101845af43d156106ee573d916106d1836102b3565b926106df60405194856101dc565b83523d6000602085013e610742565b606091610742565b156106fd57565b60405162461bcd60e51b815260206004820152601d60248201527f416464726573733a2063616c6c20746f206e6f6e2d636f6e74726163740000006044820152606490fd5b919290156107625750815115610756575090565b61023b903b15156106f6565b8251909150156107755750805190602001fd5b6040519062461bcd60e51b8252602060048301528181519182602483015260005b8381106107b85750508160006044809484010152601f80199101168101030190fd5b6020828201810151604487840101528593500161079656feb53127684a568b3173ae13b9f8a6016e243e63b6e8ee1178d6a717850b5d6103360894a13ba1a3210667c828492db98dca3e2076cc3735a920a3ca505d382bbca26469706673582212205a24e37b8404c988bf286ad5736caa678faca592c0f556e954fd90f779592ec164736f6c634300081a0033b53127684a568b3173ae13b9f8a6016e243e63b6e8ee1178d6a717850b5d61036080806040523460bd576000549060ff8260081c16606b575060ff808216036031575b6040516117f090816100c38239f35b60ff90811916176000557f7f26b83ff96e1f2b6a682f133852f6798a09c465da95921460cefb3847402498602060405160ff8152a1386022565b62461bcd60e51b815260206004820152602760248201527f496e697469616c697a61626c653a20636f6e747261637420697320696e697469604482015266616c697a696e6760c81b6064820152608490fd5b600080fdfe608080604052600436101561001357600080fd5b60003560e01c90816306fdde031461106c57508063095ea7b31461104657806318160ddd1461102857806323b872dd14610fd7578063313ce56714610fb35780633950935114610f615780633f4ba83a14610eaf57806340c10f1914610d6c5780635c975abb14610d4957806370a0823114610d0f578063715018a614610cb257806379cc679014610afb5780638456cb5914610a83578063888e4486146103fa5780638da5cb5b146103d157806395d89b4114610305578063a457c2d71461025e578063a9059cbb14610214578063dd62ed3e146101c3578063f2fde38b146101345763fbfa77cf1461010657600080fd5b3461012f57600036600319011261012f5760c9546040516001600160a01b039091168152602090f35b600080fd5b3461012f57602036600319011261012f5761014d61114f565b61015561144c565b6001600160a01b0381161561016f5761016d906114a4565b005b60405162461bcd60e51b815260206004820152602660248201527f4f776e61626c653a206e6577206f776e657220697320746865207a65726f206160448201526564647265737360d01b6064820152608490fd5b3461012f57604036600319011261012f576101dc61114f565b6101e4611165565b6001600160a01b039182166000908152603460209081526040808320949093168252928352819020549051908152f35b3461012f57604036600319011261012f5761025361023061114f565b61024160ff60005460081c166111f3565b610249611408565b6024359033611586565b602060405160018152f35b3461012f57604036600319011261012f5761027761114f565b60243590336000526034602052604060002060018060a01b038216600052602052604060002054918083106102b25761025392039033611300565b60405162461bcd60e51b815260206004820152602560248201527f45524332303a2064656372656173656420616c6c6f77616e63652062656c6f77604482015264207a65726f60d81b6064820152608490fd5b3461012f57600036600319011261012f576040516000603754610327816111b9565b80845290600181169081156103ad575060011461035f575b61035b8361034f8185038261117b565b60405191829182611123565b0390f35b919050603760005260008051602061179b833981519152916000905b8082106103935750909150810160200161034f61033f565b91926001816020925483858801015201910190929161037b565b60ff191660208086019190915291151560051b8401909101915061034f905061033f565b3461012f57600036600319011261012f576097546040516001600160a01b039091168152602090f35b3461012f57604036600319011261012f5761041361114f565b60243567ffffffffffffffff811161012f573660238201121561012f5780600401359061043f8261119d565b9161044d604051938461117b565b8083526020830191366024838301011161012f57816000926024602093018537840101526000549260ff8460081c161593848095610a76575b8015610a5f575b15610a035760ff198116600117600055846109f1575b5082518301916060846020850194031261012f575167ffffffffffffffff811161012f578260206104d6928601016112bb565b91604084015167ffffffffffffffff811161012f5760609160206104fc928701016112bb565b9301519260ff84169283850361012f576001600160a01b0383169384156109a2578151156109645782511561091f576018106108da5761054c60ff60005460081c16610547816111f3565b6111f3565b80519067ffffffffffffffff82116107ce57819061056b6036546111b9565b601f8111610863575b50602090601f83116001146107ef576000926107e4575b50508160011b916000199060031b1c1916176036555b80519067ffffffffffffffff82116107ce576105be6037546111b9565b601f8111610761575b50602090601f83116001146106e95761063d939291600091836106de575b50508160011b916000199060031b1c1916176037555b61061060ff60005460081c16610547816111f3565b610619336114a4565b61062e60ff60005460081c16610547816111f3565b60ff19606554166065556114a4565b610645611408565b600160ff1960655416176065557f62e78cea01bee320cd4e420270b5ea74000d11b0c9f74754ebdbfc544b05a2586020604051338152a160c9549160ff60a01b9060a01b16916affffffffffffffffffffff60a81b16171760c9556106a657005b61ff0019600054166000557f7f26b83ff96e1f2b6a682f133852f6798a09c465da95921460cefb3847402498602060405160018152a1005b0151905087806105e5565b90601f19831691603760005260008051602061179b8339815191529260005b818110610749575091600193918561063d97969410610730575b505050811b016037556105fb565b015160001960f88460031b161c19169055878080610722565b92936020600181928786015181550195019301610708565b6037600052601f830160051c60008051602061179b8339815191520190602084106107b8575b601f0160051c60008051602061179b83398151915201905b8181106107ac57506105c7565b6000815560010161079f565b60008051602061179b8339815191529150610787565b634e487b7160e01b600052604160045260246000fd5b01519050878061058b565b6036600090815260008051602061177b8339815191529350601f198516905b81811061084b5750908460019594939210610832575b505050811b016036556105a1565b015160001960f88460031b161c19169055878080610824565b9293602060018192878601518155019501930161080e565b9091506036600052601f830160051c60008051602061177b8339815191520190602084106108c4575b90601f8493920160051c60008051602061177b83398151915201905b8181106108b55750610574565b600081558493506001016108a8565b60008051602061177b833981519152915061088c565b60405162461bcd60e51b815260206004820152601c60248201527f5661756c74546f6b656e3a20696e76616c696420646563696d616c73000000006044820152606490fd5b60405162461bcd60e51b815260206004820152601860248201527f5661756c74546f6b656e3a20656d7074792073796d626f6c00000000000000006044820152606490fd5b60405162461bcd60e51b81526020600482015260166024820152755661756c74546f6b656e3a20656d707479206e616d6560501b6044820152606490fd5b60405162461bcd60e51b815260206004820152602160248201527f5661756c74546f6b656e3a20696e76616c6964207661756c74206164647265736044820152607360f81b6064820152608490fd5b61ffff191661010117600055846104a3565b60405162461bcd60e51b815260206004820152602e60248201527f496e697469616c697a61626c653a20636f6e747261637420697320616c72656160448201526d191e481a5b9a5d1a585b1a5e995960921b6064820152608490fd5b50303b15801561048d5750600160ff82161461048d565b50600160ff821610610486565b3461012f57600036600319011261012f57610aa560ff60005460081c166111f3565b610aba60018060a01b0360c954163314611276565b610ac2611408565b600160ff1960655416176065557f62e78cea01bee320cd4e420270b5ea74000d11b0c9f74754ebdbfc544b05a2586020604051338152a1005b3461012f57604036600319011261012f57610b1461114f565b60243590610b2960ff60005460081c166111f3565b610b3e60018060a01b0360c954163314611276565b8115610c5c57610b4f8233836114ed565b6001600160a01b0316908115610c0d576000918083526033602052604083205491808310610bbd576020817fddf252ad1be2c89b69c2b068fc378daa952ba7f163c4a11628f55a4df523b3ef928695858752603384520360408620558060355403603555604051908152a380f35b60405162461bcd60e51b815260206004820152602260248201527f45524332303a206275726e20616d6f756e7420657863656564732062616c616e604482015261636560f01b6064820152608490fd5b60405162461bcd60e51b815260206004820152602160248201527f45524332303a206275726e2066726f6d20746865207a65726f206164647265736044820152607360f81b6064820152608490fd5b60405162461bcd60e51b815260206004820152602860248201527f5661756c74546f6b656e3a206275726e20616d6f756e74206d75737420626520604482015267706f73697469766560c01b6064820152608490fd5b3461012f57600036600319011261012f57610ccb61144c565b609780546001600160a01b031981169091556000906001600160a01b03167f8be0079c531659141344cd1fd0a4f28419497f9722a3daafe3b4186f6b6457e08280a3005b3461012f57602036600319011261012f576001600160a01b03610d3061114f565b1660005260336020526020604060002054604051908152f35b3461012f57600036600319011261012f57602060ff606554166040519015158152f35b3461012f57604036600319011261012f57610d8561114f565b60243590610d9a60ff60005460081c166111f3565b610daf60018060a01b0360c954163314611276565b8115610e59576001600160a01b0316908115610e14577fddf252ad1be2c89b69c2b068fc378daa952ba7f163c4a11628f55a4df523b3ef602082610df7600094603554611253565b6035558484526033825260408420818154019055604051908152a3005b60405162461bcd60e51b815260206004820152601f60248201527f45524332303a206d696e7420746f20746865207a65726f2061646472657373006044820152606490fd5b60405162461bcd60e51b815260206004820152602860248201527f5661756c74546f6b656e3a206d696e7420616d6f756e74206d75737420626520604482015267706f73697469766560c01b6064820152608490fd5b3461012f57600036600319011261012f57610ed160ff60005460081c166111f3565b610ee660018060a01b0360c954163314611276565b60655460ff811615610f255760ff19166065557f5db9ee0a495bf2e6ff9c91a7834c1ba4fdd244a5e8aa4e537bd38aeae4b073aa6020604051338152a1005b60405162461bcd60e51b815260206004820152601460248201527314185d5cd8589b194e881b9bdd081c185d5cd95960621b6044820152606490fd5b3461012f57604036600319011261012f57610253610f7d61114f565b336000526034602052604060002060018060a01b038216600052602052610fac60406000206024359054611253565b9033611300565b3461012f57600036600319011261012f57602060ff60c95460a01c16604051908152f35b3461012f57606036600319011261012f57610253610ff361114f565b610ffb611165565b6044359161101060ff60005460081c166111f3565b611018611408565b6110238333836114ed565b611586565b3461012f57600036600319011261012f576020603554604051908152f35b3461012f57604036600319011261012f5761025361106261114f565b6024359033611300565b3461012f57600036600319011261012f57600060365461108b816111b9565b80845290600181169081156103ad57506001146110b25761035b8361034f8185038261117b565b919050603660005260008051602061177b833981519152916000905b8082106110e65750909150810160200161034f61033f565b9192600181602092548385880101520191019092916110ce565b60005b8381106111135750506000910152565b8181015183820152602001611103565b604091602082526111438151809281602086015260208686019101611100565b601f01601f1916010190565b600435906001600160a01b038216820361012f57565b602435906001600160a01b038216820361012f57565b90601f8019910116810190811067ffffffffffffffff8211176107ce57604052565b67ffffffffffffffff81116107ce57601f01601f191660200190565b90600182811c921680156111e9575b60208310146111d357565b634e487b7160e01b600052602260045260246000fd5b91607f16916111c8565b156111fa57565b60405162461bcd60e51b815260206004820152602b60248201527f496e697469616c697a61626c653a20636f6e7472616374206973206e6f74206960448201526a6e697469616c697a696e6760a81b6064820152608490fd5b9190820180921161126057565b634e487b7160e01b600052601160045260246000fd5b1561127d57565b60405162461bcd60e51b815260206004820152601660248201527515985d5b1d151bdad95b8e881bdb9b1e481d985d5b1d60521b6044820152606490fd5b81601f8201121561012f5780516112d18161119d565b926112df604051948561117b565b8184526020828401011161012f576112fd9160208085019101611100565b90565b6001600160a01b03169081156113b7576001600160a01b03169182156113675760207f8c5be1e5ebec7d5bd14f71427d1e84f3dd0314c0f7b2291e5b200ac8c7c3b925918360005260348252604060002085600052825280604060002055604051908152a3565b60405162461bcd60e51b815260206004820152602260248201527f45524332303a20617070726f766520746f20746865207a65726f206164647265604482015261737360f01b6064820152608490fd5b60405162461bcd60e51b8152602060048201526024808201527f45524332303a20617070726f76652066726f6d20746865207a65726f206164646044820152637265737360e01b6064820152608490fd5b60ff6065541661141457565b60405162461bcd60e51b815260206004820152601060248201526f14185d5cd8589b194e881c185d5cd95960821b6044820152606490fd5b6097546001600160a01b0316330361146057565b606460405162461bcd60e51b815260206004820152602060248201527f4f776e61626c653a2063616c6c6572206973206e6f7420746865206f776e65726044820152fd5b609780546001600160a01b039283166001600160a01b0319821681179092559091167f8be0079c531659141344cd1fd0a4f28419497f9722a3daafe3b4186f6b6457e0600080a3565b6001600160a01b038082166000908152603460209081526040808320938616835292905220549290919060018401611526575b50505050565b80841061154157611538930391611300565b38808080611520565b60405162461bcd60e51b815260206004820152601d60248201527f45524332303a20696e73756666696369656e7420616c6c6f77616e63650000006044820152606490fd5b6000926001600160a01b03909116918215611727576001600160a01b03169283156116d65760c9546001600160a01b0316803b611673575b50828152603360205260408120549180831061161f57604082827fddf252ad1be2c89b69c2b068fc378daa952ba7f163c4a11628f55a4df523b3ef9587602096526033865203828220558681526033845220818154019055604051908152a3565b60405162461bcd60e51b815260206004820152602660248201527f45524332303a207472616e7366657220616d6f756e7420657863656564732062604482015265616c616e636560d01b6064820152608490fd5b803b156116d25781809160646040518094819363677ba3d360e01b83528960048401528a60248401528860448401525af180156116c75782906116b7575b506115be565b6116c09161117b565b38816116b1565b6040513d84823e3d90fd5b5080fd5b60405162461bcd60e51b815260206004820152602360248201527f45524332303a207472616e7366657220746f20746865207a65726f206164647260448201526265737360e81b6064820152608490fd5b60405162461bcd60e51b815260206004820152602560248201527f45524332303a207472616e736665722066726f6d20746865207a65726f206164604482015264647265737360d81b6064820152608490fdfe4a11f94e20a93c79f6ec743a1954ec4fc2c08429ae2122118bf234b2185c81b842a7b7dd785cd69714a189dffb3fd7d7174edc9ece837694ce50f7078f7c31aea2646970667358221220fbdedb59c253b67e914384d910c19ae158159dadcb8b9b2aa6687bb2279cfaf464736f6c634300081a0033a264697066735822122046bf715ab5e5cb695b4757ba6145127aff1ac38f47f482fc41e3d1ebb8282f2464736f6c634300081a0033",
  "devdoc": {
    "kind": "dev",
    "methods": {},
    "version": 1
  },
  "userdoc": {
    "kind": "user",
    "methods": {},
    "version": 1
  },
  "storageLayout": {
    "storage": [],
    "types": null
  }
}