{
  "address": "0x5FC8d32690cc91D4c39d9d3abcBD16989F875707",
  "abi": [
    {
      "inputs": [
        {
          "internalType": "address",
          "name": "_escrowFactory",
          "type": "address"
        },
        {
          "internalType": "address",
          "name": "_vaultFactory",
          "type": "address"
        }
      ],
      "stateMutability": "nonpayable",
      "type": "constructor"
    },
    {
      "anonymous": false,
      "inputs": [
        {
          "indexed": false,
          "internalType": "uint64",
          "name": "vaultId",
          "type": "uint64"
        },
        {
          "indexed": false,
          "internalType": "address",
          "name": "vault",
          "type": "address"
        },
        {
          "indexed": false,
          "internalType": "address",
          "name": "dividendEscrow",
          "type": "address"
        }
      ],
      "name": "DeployVaultEvent",
      "type": "event"
    },
    {
      "anonymous": false,
      "inputs": [
        {
          "indexed": true,
          "internalType": "address",
          "name": "previousOwner",
          "type": "address"
        },
        {
          "indexed": true,
          "internalType": "address",
          "name": "newOwner",
          "type": "address"
        }
      ],
      "name": "OwnershipTransferred",
      "type": "event"
    },
    {
      "inputs": [
        {
          "components": [
            {
              "internalType": "uint64",
              "name": "vaultId",
              "type": "uint64"
            },
            {
              "internalType": "string",
              "name": "name",
              "type": "string"
            },
            {
              "internalType": "string",
              "name": "symbol",
              "type": "string"
            },
            {
              "internalType": "address",
              "name": "assetToken",
              "type": "address"
            },
            {
              "internalType": "address",
              "name": "rbf",
              "type": "address"
            },
            {
              "internalType": "uint256",
              "name": "maxSupply",
              "type": "uint256"
            },
            {
              "internalType": "uint256",
              "name": "subStartTime",
              "type": "uint256"
            },
            {
              "internalType": "uint256",
              "name": "subEndTime",
              "type": "uint256"
            },
            {
              "internalType": "uint256",
              "name": "duration",
              "type": "uint256"
            },
            {
              "internalType": "uint256",
              "name": "fundThreshold",
              "type": "uint256"
            },
            {
              "internalType": "uint256",
              "name": "financePrice",
              "type": "uint256"
            },
            {
              "internalType": "uint256",
              "name": "minDepositAmount",
              "type": "uint256"
            },
            {
              "internalType": "uint256",
              "name": "manageFee",
              "type": "uint256"
            },
            {
              "internalType": "address",
              "name": "manager",
              "type": "address"
            },
            {
              "internalType": "address",
              "name": "feeReceiver",
              "type": "address"
            },
            {
              "internalType": "address[]",
              "name": "whitelists",
              "type": "address[]"
            },
            {
              "internalType": "address",
              "name": "guardian",
              "type": "address"
            }
          ],
          "internalType": "struct VaultDeployData",
          "name": "vaultDeployData",
          "type": "tuple"
        }
      ],
      "name": "deployVault",
      "outputs": [],
      "stateMutability": "nonpayable",
      "type": "function"
    },
    {
      "inputs": [],
      "name": "escrowFactory",
      "outputs": [
        {
          "internalType": "contract IEscrowFactory",
          "name": "",
          "type": "address"
        }
      ],
      "stateMutability": "view",
      "type": "function"
    },
    {
      "inputs": [
        {
          "internalType": "uint64",
          "name": "vaultId",
          "type": "uint64"
        }
      ],
      "name": "getVaultInfo",
      "outputs": [
        {
          "components": [
            {
              "internalType": "uint256",
              "name": "createdAt",
              "type": "uint256"
            },
            {
              "internalType": "address",
              "name": "vault",
              "type": "address"
            },
            {
              "internalType": "address",
              "name": "vaultProxyAdmin",
              "type": "address"
            },
            {
              "internalType": "address",
              "name": "vaultImpl",
              "type": "address"
            },
            {
              "internalType": "address",
              "name": "dividendTreasury",
              "type": "address"
            }
          ],
          "internalType": "struct VaultRouter.VaultInfo",
          "name": "",
          "type": "tuple"
        }
      ],
      "stateMutability": "view",
      "type": "function"
    },
    {
      "inputs": [],
      "name": "owner",
      "outputs": [
        {
          "internalType": "address",
          "name": "",
          "type": "address"
        }
      ],
      "stateMutability": "view",
      "type": "function"
    },
    {
      "inputs": [
        {
          "internalType": "address",
          "name": "",
          "type": "address"
        }
      ],
      "name": "rbfVaultExist",
      "outputs": [
        {
          "internalType": "bool",
          "name": "",
          "type": "bool"
        }
      ],
      "stateMutability": "view",
      "type": "function"
    },
    {
      "inputs": [],
      "name": "renounceOwnership",
      "outputs": [],
      "stateMutability": "nonpayable",
      "type": "function"
    },
    {
      "inputs": [
        {
          "internalType": "address",
          "name": "newOwner",
          "type": "address"
        }
      ],
      "name": "transferOwnership",
      "outputs": [],
      "stateMutability": "nonpayable",
      "type": "function"
    },
    {
      "inputs": [],
      "name": "vaultFactory",
      "outputs": [
        {
          "internalType": "contract IVaultFactory",
          "name": "",
          "type": "address"
        }
      ],
      "stateMutability": "view",
      "type": "function"
    },
    {
      "inputs": [],
      "name": "vaultNonce",
      "outputs": [
        {
          "internalType": "uint64",
          "name": "",
          "type": "uint64"
        }
      ],
      "stateMutability": "view",
      "type": "function"
    }
  ],
  "transactionHash": "0xf51323922c89f39a66533b1cdc944975c8a6af6c4d6db69ec07d55967908bce3",
  "args": [
    "0x5FbDB2315678afecb367f032d93F642f64180aa3",
    "0xCf7Ed3AccA5a467e9e704C703E8D87F634fB0Fc9"
  ],
  "numDeployments": 1,
  "solcInputHash": "9c9d5cd9db7c1aa0a0d43ff013ef70dd",
  "bytecode": "0x60c0346100d957601f61109d38819003918201601f19168301916001600160401b038311848410176100de5780849260409485528339810103126100d957610052602061004b836100f4565b92016100f4565b60008054336001600160a01b0319821681178355604051949290916001600160a01b0316907f8be0079c531659141344cd1fd0a4f28419497f9722a3daafe3b4186f6b6457e09080a36001600160a01b039081166080521660a052610f94908161010982396080518181816102c20152610697015260a05181818161027d015261090f0152f35b600080fd5b634e487b7160e01b600052604160045260246000fd5b51906001600160a01b03821682036100d95756fe6080604052600436101561001257600080fd5b6000803560e01c80630f1dd38e1461039b578063715018a61461034157806380c69b93146103185780638da5cb5b146102f1578063bdd1daaa146102ac578063d8a06f7314610267578063ee30206114610228578063f2fde38b146101625763fc06bb861461008057600080fd5b3461015f57602036600319011261015f576004356001600160401b03811680910361015b578160409160a093608084516100b981610dda565b8281528260208201528286820152826060820152015281526001602052206040516100e381610dda565b815480825260018084015490851b6000190190811660208085019182526002860154831660408087019182526003880154851660608089019182526004909901548616608098890190815282519788529451861693870193909352905184169085015251821694830194909452925190921690820152f35b5080fd5b80fd5b503461015f57602036600319011261015f5761017c610e87565b610184610f06565b6001600160a01b031680156101d45781546001600160a01b03198116821783556001600160a01b03167f8be0079c531659141344cd1fd0a4f28419497f9722a3daafe3b4186f6b6457e08380a380f35b60405162461bcd60e51b815260206004820152602660248201527f4f776e61626c653a206e6577206f776e657220697320746865207a65726f206160448201526564647265737360d01b6064820152608490fd5b503461015f57602036600319011261015f5760209060ff906040906001600160a01b03610253610e87565b168152600284522054166040519015158152f35b503461015f578060031936011261015f576040517f00000000000000000000000000000000000000000000000000000000000000006001600160a01b03168152602090f35b503461015f578060031936011261015f576040517f00000000000000000000000000000000000000000000000000000000000000006001600160a01b03168152602090f35b503461015f578060031936011261015f57546040516001600160a01b039091168152602090f35b503461015f578060031936011261015f576001600160401b036020915460a01c16604051908152f35b503461015f578060031936011261015f5761035a610f06565b80546001600160a01b03198116825581906001600160a01b03167f8be0079c531659141344cd1fd0a4f28419497f9722a3daafe3b4186f6b6457e08280a380f35b503461015f57602036600319011261015f576001600160401b036004351161015f576102206004353603600319011261015f576102a0604052600435600401356001600160401b038116810361015b57608052602460043501356001600160401b03811161015b57610414906004369181350101610e2c565b60a052600435604401356001600160401b03811161015b5761043d906004369181350101610e2c565b60c05261044e600435606401610e9d565b60e05261045f600435608401610e9d565b6101005260043560a48101356101205260c48101356101405260e481013561016052610104810135610180526101248101356101a0526101448101356101c0526101648101356101e052610184810135610200526104c0906101a401610e9d565b610220526104d36004356101c401610e9d565b610240526004356101e401356001600160401b03811161015b57366023826004350101121561015b576004818135010135906001600160401b038211610dc6578160051b604051926105286020830185610e0b565b83526020830190366024600435850183010111610baa576024836004350101915b602460043585018301018310610da6576102608590528561056f60043561020401610e9d565b610200608001526001600160401b03608051168154906001600160401b038260a01c1603610d6f576001600160401b0360805116906001600160401b03808260a01c1614610d5b5767ffffffffffffffff60a01b19811660a091821c6001600160401b031660010190911b67ffffffffffffffff60a01b1617825561010051604051638da5cb5b60e01b815290602090829060049082906001600160a01b03165afa908115610c8c578391610d21575b50336001600160a01b0390911603610cdc57610100516001600160a01b031682526002602052604082205460ff16610c9757610100516001600160a01b039081168352600260209081526040808520805460ff1916600117905551633043038960e11b815230600482015292918390602490829087907f0000000000000000000000000000000000000000000000000000000000000000165af1918215610c8c578392610c4c575b5060206080015160406080015160018060a01b036060608001511660018060a01b0360808001511660a06080015160c06080015160e06080015161010060800151610120608001519061014060800151926101606080015194610180608001519660018060a01b036101a060800151169860018060a01b036101c060800151169a6101e0608001519c6040519e8f6001600160401b03610200828181011092011117610c34578f90916040926102008301845282526020820152015260608d015260808c015260a08b015260c08a015260e08901526101008801526101208701526101408601526101608501526101808401526101a083015260018060a01b0384166101c08301526101e082015260018060a01b0361020060800151166040518092632a885b2960e11b8252604060048301526101e061082e61081883516102006044870152610244860190610ec5565b6020840151858203604319016064870152610ec5565b60408301516001600160a01b0390811660848601526060840151811660a4860152608084015160c486015260a084015160e486015260c084015161010486015260e08401516101248601526101008401516101448601526101208401516101648601526101408401516101848601526101608401516101a486015261018084015181166101c48601526101a084015181166101e48601526101c08401511661020485015291015182820360431901610224840152805180835260209283019290910190885b818110610c1257505050602482019290925260609181900381877f00000000000000000000000000000000000000000000000000000000000000006001600160a01b03165af18015610c07578485928692610bae575b506004906040519261095a84610dda565b4284526001600160a01b0391821660208086018281529684166040808801918252938516606088019081528a8616608089018181528b8e52600194859052958d2098518955985192880180546001600160a01b03199081169488169490941790559051600288018054841691871691909117905551600387018054831691861691909117905591519390940180549091169282169290921790915560e05191929116903b15610baa5760405163aec42a1760e01b81526004810191909152602481018290528481604481836001600160a01b0389165af18015610b9f57610b8b575b506001600160a01b0383163b15610b52576040516332fd71af60e11b81526004810182905284908181602481836001600160a01b038a165af18015610b5657610b76575b50506001600160a01b0383163b15610b5257604051639c52a7f160e01b815230600482015284908181602481836001600160a01b038a165af18015610b5657610b61575b5050803b15610b525760405163f2fde38b60e01b81523360048201528490818160248183875af18015610b5657610b39575b507f3b24bf365725d0511ed5973a369c47e35f035bff7e9b7078f34e39821dbe63886060848685604051928352602083015260018060a01b03166040820152a180f35b81610b4691949394610e0b565b610b5257908385610af6565b8380fd5b6040513d84823e3d90fd5b81610b6b91610e0b565b610b52578385610ac4565b81610b8091610e0b565b610b52578385610a80565b84610b9891959295610e0b565b9284610a3c565b6040513d87823e3d90fd5b8480fd5b925050506060813d606011610bff575b81610bcb60609383610e0b565b81010312610b5257610bdc81610eb1565b906004610bf76040610bf060208501610eb1565b9301610eb1565b919290610949565b3d9150610bbe565b6040513d86823e3d90fd5b82516001600160a01b03168452869450602093840193909201916001016108f3565b5050505060248f634e487b7160e01b81526041600452fd5b9091506020813d602011610c84575b81610c6860209383610e0b565b81010312610c8057610c7990610eb1565b90836106c7565b8280fd5b3d9150610c5b565b6040513d85823e3d90fd5b60405162461bcd60e51b815260206004820152601760248201527f726266207661756c7420616c72656164792065786973740000000000000000006044820152606490fd5b60405162461bcd60e51b815260206004820152601f60248201527f6f6e6c7920726266206f776e65722063616e206465706c6f79207661756c74006044820152606490fd5b90506020813d602011610d53575b81610d3c60209383610e0b565b81010312610c8057610d4d90610eb1565b8361061f565b3d9150610d2f565b634e487b7160e01b83526011600452602483fd5b60405162461bcd60e51b815260206004820152600f60248201526e125b9d985b1a59081d985d5b1d1259608a1b6044820152606490fd5b6020918280600493610db787610e9d565b81520194019391509150610549565b634e487b7160e01b83526041600452602483fd5b60a081019081106001600160401b03821117610df557604052565b634e487b7160e01b600052604160045260246000fd5b90601f801991011681019081106001600160401b03821117610df557604052565b81601f82011215610e82578035906001600160401b038211610df55760405192610e60601f8401601f191660200185610e0b565b82845260208383010111610e8257816000926020809301838601378301015290565b600080fd5b600435906001600160a01b0382168203610e8257565b35906001600160a01b0382168203610e8257565b51906001600160a01b0382168203610e8257565b919082519283825260005b848110610ef1575050826000602080949584010152601f8019910116010190565b80602080928401015182828601015201610ed0565b6000546001600160a01b03163303610f1a57565b606460405162461bcd60e51b815260206004820152602060248201527f4f776e61626c653a2063616c6c6572206973206e6f7420746865206f776e65726044820152fdfea2646970667358221220799c3e05e2d63682e1528b51a710426538c8afe412cf537fc45d5f3dcfab7a7864736f6c634300081a0033",
  "devdoc": {
    "author": "Accelerate Finance",
    "details": "Manages the deployment of vaults and associated escrow contracts.",
    "kind": "dev",
    "methods": {
      "constructor": {
        "details": "Constructor initializes the VaultRouter with escrow and vault factory addresses.",
        "params": {
          "_escrowFactory": "Address of the escrow factory contract.",
          "_vaultFactory": "Address of the vault factory contract."
        }
      },
      "deployVault((uint64,string,string,address,address,uint256,uint256,uint256,uint256,uint256,uint256,uint256,uint256,address,address,address[],address))": {
        "details": "Deploys a new vault using provided deployment data.",
        "params": {
          "vaultDeployData": "Struct containing vault initialization parameters."
        }
      },
      "getVaultInfo(uint64)": {
        "details": "Retrieves information about a deployed vault.",
        "params": {
          "vaultId": "The unique ID of the vault."
        },
        "returns": {
          "_0": "VaultInfo struct containing details of the vault."
        }
      },
      "owner()": {
        "details": "Returns the address of the current owner."
      },
      "renounceOwnership()": {
        "details": "Leaves the contract without owner. It will not be possible to call `onlyOwner` functions. Can only be called by the current owner. NOTE: Renouncing ownership will leave the contract without an owner, thereby disabling any functionality that is only available to the owner."
      },
      "transferOwnership(address)": {
        "details": "Transfers ownership of the contract to a new account (`newOwner`). Can only be called by the current owner."
      }
    },
    "title": "VaultRouter",
    "version": 1
  },
  "userdoc": {
    "kind": "user",
    "methods": {
      "deployVault((uint64,string,string,address,address,uint256,uint256,uint256,uint256,uint256,uint256,uint256,uint256,address,address,address[],address))": {
        "notice": "Only the owner of the associated RBF contract can deploy a vault."
      }
    },
    "notice": "This contract allows users to deploy new vaults and retrieve vault information.",
    "version": 1
  },
  "storageLayout": {
    "storage": [
      {
        "astId": 3547,
        "contract": "contracts/v1/vault/VaultRouter.sol:VaultRouter",
        "label": "_owner",
        "offset": 0,
        "slot": "0",
        "type": "t_address"
      },
      {
        "astId": 12013,
        "contract": "contracts/v1/vault/VaultRouter.sol:VaultRouter",
        "label": "vaultNonce",
        "offset": 20,
        "slot": "0",
        "type": "t_uint64"
      },
      {
        "astId": 12018,
        "contract": "contracts/v1/vault/VaultRouter.sol:VaultRouter",
        "label": "vaults",
        "offset": 0,
        "slot": "1",
        "type": "t_mapping(t_uint64,t_struct(VaultInfo)12005_storage)"
      },
      {
        "astId": 12022,
        "contract": "contracts/v1/vault/VaultRouter.sol:VaultRouter",
        "label": "rbfVaultExist",
        "offset": 0,
        "slot": "2",
        "type": "t_mapping(t_address,t_bool)"
      }
    ],
    "types": {
      "t_address": {
        "encoding": "inplace",
        "label": "address",
        "numberOfBytes": "20"
      },
      "t_bool": {
        "encoding": "inplace",
        "label": "bool",
        "numberOfBytes": "1"
      },
      "t_mapping(t_address,t_bool)": {
        "encoding": "mapping",
        "key": "t_address",
        "label": "mapping(address => bool)",
        "numberOfBytes": "32",
        "value": "t_bool"
      },
      "t_mapping(t_uint64,t_struct(VaultInfo)12005_storage)": {
        "encoding": "mapping",
        "key": "t_uint64",
        "label": "mapping(uint64 => struct VaultRouter.VaultInfo)",
        "numberOfBytes": "32",
        "value": "t_struct(VaultInfo)12005_storage"
      },
      "t_struct(VaultInfo)12005_storage": {
        "encoding": "inplace",
        "label": "struct VaultRouter.VaultInfo",
        "members": [
          {
            "astId": 11996,
            "contract": "contracts/v1/vault/VaultRouter.sol:VaultRouter",
            "label": "createdAt",
            "offset": 0,
            "slot": "0",
            "type": "t_uint256"
          },
          {
            "astId": 11998,
            "contract": "contracts/v1/vault/VaultRouter.sol:VaultRouter",
            "label": "vault",
            "offset": 0,
            "slot": "1",
            "type": "t_address"
          },
          {
            "astId": 12000,
            "contract": "contracts/v1/vault/VaultRouter.sol:VaultRouter",
            "label": "vaultProxyAdmin",
            "offset": 0,
            "slot": "2",
            "type": "t_address"
          },
          {
            "astId": 12002,
            "contract": "contracts/v1/vault/VaultRouter.sol:VaultRouter",
            "label": "vaultImpl",
            "offset": 0,
            "slot": "3",
            "type": "t_address"
          },
          {
            "astId": 12004,
            "contract": "contracts/v1/vault/VaultRouter.sol:VaultRouter",
            "label": "dividendTreasury",
            "offset": 0,
            "slot": "4",
            "type": "t_address"
          }
        ],
        "numberOfBytes": "160"
      },
      "t_uint256": {
        "encoding": "inplace",
        "label": "uint256",
        "numberOfBytes": "32"
      },
      "t_uint64": {
        "encoding": "inplace",
        "label": "uint64",
        "numberOfBytes": "8"
      }
    }
  }
}