{
  "address": "0x3Aa5ebB10DC797CAC828524e59A333d0A371443c",
  "abi": [
    {
      "anonymous": false,
      "inputs": [
        {
          "indexed": true,
          "internalType": "address",
          "name": "previousOwner",
          "type": "address"
        },
        {
          "indexed": true,
          "internalType": "address",
          "name": "newOwner",
          "type": "address"
        }
      ],
      "name": "OwnershipTransferred",
      "type": "event"
    },
    {
      "anonymous": false,
      "inputs": [
        {
          "indexed": true,
          "internalType": "uint256",
          "name": "templateId",
          "type": "uint256"
        },
        {
          "indexed": true,
          "internalType": "address",
          "name": "template",
          "type": "address"
        }
      ],
      "name": "TemplateAdded",
      "type": "event"
    },
    {
      "anonymous": false,
      "inputs": [
        {
          "indexed": true,
          "internalType": "uint256",
          "name": "templateId",
          "type": "uint256"
        },
        {
          "indexed": true,
          "internalType": "address",
          "name": "accumulatedYield",
          "type": "address"
        },
        {
          "indexed": true,
          "internalType": "address",
          "name": "vault",
          "type": "address"
        }
      ],
      "name": "YieldCreated",
      "type": "event"
    },
    {
      "inputs": [
        {
          "internalType": "uint256",
          "name": "templateId",
          "type": "uint256"
        },
        {
          "internalType": "address",
          "name": "template",
          "type": "address"
        }
      ],
      "name": "addTemplate",
      "outputs": [],
      "stateMutability": "nonpayable",
      "type": "function"
    },
    {
      "inputs": [
        {
          "internalType": "uint256",
          "name": "templateId",
          "type": "uint256"
        },
        {
          "internalType": "address",
          "name": "vault",
          "type": "address"
        },
        {
          "internalType": "address",
          "name": "vaultToken",
          "type": "address"
        },
        {
          "internalType": "bytes",
          "name": "initData",
          "type": "bytes"
        }
      ],
      "name": "createYield",
      "outputs": [
        {
          "internalType": "address",
          "name": "accumulatedYield",
          "type": "address"
        }
      ],
      "stateMutability": "nonpayable",
      "type": "function"
    },
    {
      "inputs": [
        {
          "internalType": "uint256",
          "name": "templateId",
          "type": "uint256"
        }
      ],
      "name": "getTemplate",
      "outputs": [
        {
          "internalType": "address",
          "name": "",
          "type": "address"
        }
      ],
      "stateMutability": "view",
      "type": "function"
    },
    {
      "inputs": [],
      "name": "getTemplateCount",
      "outputs": [
        {
          "internalType": "uint256",
          "name": "",
          "type": "uint256"
        }
      ],
      "stateMutability": "view",
      "type": "function"
    },
    {
      "inputs": [],
      "name": "owner",
      "outputs": [
        {
          "internalType": "address",
          "name": "",
          "type": "address"
        }
      ],
      "stateMutability": "view",
      "type": "function"
    },
    {
      "inputs": [],
      "name": "renounceOwnership",
      "outputs": [],
      "stateMutability": "nonpayable",
      "type": "function"
    },
    {
      "inputs": [],
      "name": "templateCount",
      "outputs": [
        {
          "internalType": "uint256",
          "name": "",
          "type": "uint256"
        }
      ],
      "stateMutability": "view",
      "type": "function"
    },
    {
      "inputs": [
        {
          "internalType": "uint256",
          "name": "",
          "type": "uint256"
        }
      ],
      "name": "templates",
      "outputs": [
        {
          "internalType": "address",
          "name": "",
          "type": "address"
        }
      ],
      "stateMutability": "view",
      "type": "function"
    },
    {
      "inputs": [
        {
          "internalType": "address",
          "name": "newOwner",
          "type": "address"
        }
      ],
      "name": "transferOwnership",
      "outputs": [],
      "stateMutability": "nonpayable",
      "type": "function"
    }
  ],
  "transactionHash": "0x3ee6f35ac5a2f03dade165c886c3d60b95ab924baf0bb2efee0c89157706b920",
  "args": [],
  "numDeployments": 1,
  "solcInputHash": "9572697e3a93836ab3d466dd3e23e495",
  "bytecode": "0x60808060405234605a5760008054336001600160a01b0319821681178355916001600160a01b03909116907f8be0079c531659141344cd1fd0a4f28419497f9722a3daafe3b4186f6b6457e09080a361077790816100608239f35b600080fdfe608080604052600436101561001357600080fd5b60003560e01c90816326705c3c146106645750806331543cf4146105905780635016959a14610646578063715018a6146105ed5780638da5cb5b146105c4578063bc52565214610590578063cafdadde1461042f578063d16ce86f146101525763f2fde38b1461008257600080fd5b3461014d57602036600319011261014d576004356001600160a01b0381169081900361014d576100b06106e9565b80156100f957600080546001600160a01b03198116831782556001600160a01b0316907f8be0079c531659141344cd1fd0a4f28419497f9722a3daafe3b4186f6b6457e09080a3005b60405162461bcd60e51b815260206004820152602660248201527f4f776e61626c653a206e6577206f776e657220697320746865207a65726f206160448201526564647265737360d01b6064820152608490fd5b600080fd5b3461014d57608036600319011261014d5760043561016e61067f565b906044356001600160a01b0381169081900361014d576064359267ffffffffffffffff841161014d573660238501121561014d5783600401356101b0816106cd565b946101be6040519687610695565b818652366024838301011161014d578160009260246020930183890137860101526000838152600160205260409020546001600160a01b038116156103eb5780763d602d80600a3d3981f3363d3d373d3d3d363d7300000062ffffff6e5af43d82803e903d91602b57fd5bf39360881c16176000526effffffffffffffffffffffffffffff199060781b1617602052603760096000f06001600160a01b0381169490929085156103ad57604051630aedf8cf60e21b602082019081526001600160a01b0390941660248201526044810192909252606060648301528051608483018190529060005b8281106103975787876000808989828a6102dc60a4828d85838284010152601f801991011681010301601f198101835282610695565b51925af13d15610392573d6102f0816106cd565b906102fe6040519283610695565b8152600060203d92013e5b1561034157602091604051918133917fc7cf0f921e5c6314ed32730ef0319d666986f4be68576276607ed6e16ed7828a600080a48152f35b60405162461bcd60e51b815260206004820152602360248201527f5969656c64466163746f72793a20696e697469616c697a6174696f6e206661696044820152621b195960ea1b6064820152608490fd5b610309565b80602080928401015160a48287010152016102a6565b60405162461bcd60e51b8152602060048201526016602482015275115490cc4c4d8dce8818dc99585d194819985a5b195960521b6044820152606490fd5b606460405162461bcd60e51b815260206004820152602060248201527f5969656c64466163746f72793a2074656d706c617465206e6f7420666f756e646044820152fd5b3461014d57604036600319011261014d5760043561044b61067f565b6104536106e9565b6001600160a01b031690811561054b576000818152600160205260409020546001600160a01b03166104f857600081815260016020526040902080546001600160a01b031916831790556002548110156104cf575b7f015902ea38b371359d3cfcc702e9445d97bf18c32ee4f72ebe2361cf53e0088e600080a3005b600181018082116104e2576002556104a8565b634e487b7160e01b600052601160045260246000fd5b60405162461bcd60e51b815260206004820152602560248201527f5969656c64466163746f72793a2074656d706c61746520616c72656164792065604482015264786973747360d81b6064820152608490fd5b60405162461bcd60e51b815260206004820152601e60248201527f5969656c64466163746f72793a20696e76616c69642074656d706c61746500006044820152606490fd5b3461014d57602036600319011261014d576004356000526001602052602060018060a01b0360406000205416604051908152f35b3461014d57600036600319011261014d576000546040516001600160a01b039091168152602090f35b3461014d57600036600319011261014d576106066106e9565b600080546001600160a01b0319811682556001600160a01b03167f8be0079c531659141344cd1fd0a4f28419497f9722a3daafe3b4186f6b6457e08280a3005b3461014d57600036600319011261014d576020600254604051908152f35b3461014d57600036600319011261014d576020906002548152f35b602435906001600160a01b038216820361014d57565b90601f8019910116810190811067ffffffffffffffff8211176106b757604052565b634e487b7160e01b600052604160045260246000fd5b67ffffffffffffffff81116106b757601f01601f191660200190565b6000546001600160a01b031633036106fd57565b606460405162461bcd60e51b815260206004820152602060248201527f4f776e61626c653a2063616c6c6572206973206e6f7420746865206f776e65726044820152fdfea2646970667358221220cf3a56aa024fffe6f647c1b8f3979dc22b04ea6c1fdb40f09e6c6d22630028ae64736f6c634300081a0033",
  "devdoc": {
    "kind": "dev",
    "methods": {
      "owner()": {
        "details": "Returns the address of the current owner."
      },
      "renounceOwnership()": {
        "details": "Leaves the contract without owner. It will not be possible to call `onlyOwner` functions. Can only be called by the current owner. NOTE: Renouncing ownership will leave the contract without an owner, thereby disabling any functionality that is only available to the owner."
      },
      "transferOwnership(address)": {
        "details": "Transfers ownership of the contract to a new account (`newOwner`). Can only be called by the current owner."
      }
    },
    "version": 1
  },
  "userdoc": {
    "kind": "user",
    "methods": {},
    "version": 1
  },
  "storageLayout": {
    "storage": [
      {
        "astId": 3547,
        "contract": "contracts/v2/factories/YieldFactory.sol:YieldFactory",
        "label": "_owner",
        "offset": 0,
        "slot": "0",
        "type": "t_address"
      },
      {
        "astId": 13811,
        "contract": "contracts/v2/factories/YieldFactory.sol:YieldFactory",
        "label": "templates",
        "offset": 0,
        "slot": "1",
        "type": "t_mapping(t_uint256,t_address)"
      },
      {
        "astId": 13813,
        "contract": "contracts/v2/factories/YieldFactory.sol:YieldFactory",
        "label": "templateCount",
        "offset": 0,
        "slot": "2",
        "type": "t_uint256"
      }
    ],
    "types": {
      "t_address": {
        "encoding": "inplace",
        "label": "address",
        "numberOfBytes": "20"
      },
      "t_mapping(t_uint256,t_address)": {
        "encoding": "mapping",
        "key": "t_uint256",
        "label": "mapping(uint256 => address)",
        "numberOfBytes": "32",
        "value": "t_address"
      },
      "t_uint256": {
        "encoding": "inplace",
        "label": "uint256",
        "numberOfBytes": "32"
      }
    }
  }
}