{
  "address": "0x0Bb31496efB60F1A765a7Bb516e0f152432353B3",
  "abi": [
    {
      "inputs": [],
      "stateMutability": "nonpayable",
      "type": "constructor"
    },
    {
      "anonymous": false,
      "inputs": [
        {
          "indexed": true,
          "internalType": "address",
          "name": "previousOwner",
          "type": "address"
        },
        {
          "indexed": true,
          "internalType": "address",
          "name": "newOwner",
          "type": "address"
        }
      ],
      "name": "OwnershipTransferred",
      "type": "event"
    },
    {
      "anonymous": false,
      "inputs": [],
      "name": "TokenPaused",
      "type": "event"
    },
    {
      "anonymous": false,
      "inputs": [],
      "name": "TokenUnpaused",
      "type": "event"
    },
    {
      "anonymous": false,
      "inputs": [
        {
          "indexed": false,
          "internalType": "bytes",
          "name": "dataHash",
          "type": "bytes"
        },
        {
          "indexed": false,
          "internalType": "bytes",
          "name": "signature",
          "type": "bytes"
        }
      ],
      "name": "VerifyDataUpdated",
      "type": "event"
    },
    {
      "anonymous": false,
      "inputs": [
        {
          "indexed": true,
          "internalType": "address",
          "name": "addr",
          "type": "address"
        }
      ],
      "name": "WhitelistAdded",
      "type": "event"
    },
    {
      "anonymous": false,
      "inputs": [
        {
          "indexed": true,
          "internalType": "address",
          "name": "addr",
          "type": "address"
        }
      ],
      "name": "WhitelistRemoved",
      "type": "event"
    },
    {
      "anonymous": false,
      "inputs": [
        {
          "indexed": false,
          "internalType": "bool",
          "name": "enabled",
          "type": "bool"
        }
      ],
      "name": "WhitelistStatusChanged",
      "type": "event"
    },
    {
      "inputs": [],
      "name": "accumulatedYield",
      "outputs": [
        {
          "internalType": "address",
          "name": "",
          "type": "address"
        }
      ],
      "stateMutability": "view",
      "type": "function"
    },
    {
      "inputs": [
        {
          "internalType": "address",
          "name": "_addr",
          "type": "address"
        }
      ],
      "name": "addToWhitelist",
      "outputs": [],
      "stateMutability": "nonpayable",
      "type": "function"
    },
    {
      "inputs": [
        {
          "internalType": "address",
          "name": "from",
          "type": "address"
        },
        {
          "internalType": "uint256",
          "name": "amount",
          "type": "uint256"
        }
      ],
      "name": "burnToken",
      "outputs": [],
      "stateMutability": "nonpayable",
      "type": "function"
    },
    {
      "inputs": [
        {
          "internalType": "address",
          "name": "_vaultToken",
          "type": "address"
        },
        {
          "internalType": "address",
          "name": "_funding",
          "type": "address"
        },
        {
          "internalType": "address",
          "name": "_yield",
          "type": "address"
        }
      ],
      "name": "configureModules",
      "outputs": [],
      "stateMutability": "nonpayable",
      "type": "function"
    },
    {
      "inputs": [],
      "name": "dataHash",
      "outputs": [
        {
          "internalType": "bytes",
          "name": "",
          "type": "bytes"
        }
      ],
      "stateMutability": "view",
      "type": "function"
    },
    {
      "inputs": [],
      "name": "disableWhitelist",
      "outputs": [],
      "stateMutability": "nonpayable",
      "type": "function"
    },
    {
      "inputs": [],
      "name": "enableWhitelist",
      "outputs": [],
      "stateMutability": "nonpayable",
      "type": "function"
    },
    {
      "inputs": [],
      "name": "funding",
      "outputs": [
        {
          "internalType": "address",
          "name": "",
          "type": "address"
        }
      ],
      "stateMutability": "view",
      "type": "function"
    },
    {
      "inputs": [],
      "name": "getDividendModule",
      "outputs": [
        {
          "internalType": "address",
          "name": "",
          "type": "address"
        }
      ],
      "stateMutability": "view",
      "type": "function"
    },
    {
      "inputs": [],
      "name": "getFundingModule",
      "outputs": [
        {
          "internalType": "address",
          "name": "",
          "type": "address"
        }
      ],
      "stateMutability": "view",
      "type": "function"
    },
    {
      "inputs": [
        {
          "internalType": "bytes",
          "name": "_initData",
          "type": "bytes"
        }
      ],
      "name": "initiate",
      "outputs": [],
      "stateMutability": "nonpayable",
      "type": "function"
    },
    {
      "inputs": [],
      "name": "isFundingSuccessful",
      "outputs": [
        {
          "internalType": "bool",
          "name": "",
          "type": "bool"
        }
      ],
      "stateMutability": "view",
      "type": "function"
    },
    {
      "inputs": [],
      "name": "isTokenPaused",
      "outputs": [
        {
          "internalType": "bool",
          "name": "",
          "type": "bool"
        }
      ],
      "stateMutability": "view",
      "type": "function"
    },
    {
      "inputs": [],
      "name": "isWhiteList",
      "outputs": [
        {
          "internalType": "bool",
          "name": "",
          "type": "bool"
        }
      ],
      "stateMutability": "view",
      "type": "function"
    },
    {
      "inputs": [
        {
          "internalType": "address",
          "name": "",
          "type": "address"
        }
      ],
      "name": "isWhitelisted",
      "outputs": [
        {
          "internalType": "bool",
          "name": "",
          "type": "bool"
        }
      ],
      "stateMutability": "view",
      "type": "function"
    },
    {
      "inputs": [],
      "name": "manager",
      "outputs": [
        {
          "internalType": "address",
          "name": "",
          "type": "address"
        }
      ],
      "stateMutability": "view",
      "type": "function"
    },
    {
      "inputs": [
        {
          "internalType": "address",
          "name": "to",
          "type": "address"
        },
        {
          "internalType": "uint256",
          "name": "amount",
          "type": "uint256"
        }
      ],
      "name": "mintToken",
      "outputs": [],
      "stateMutability": "nonpayable",
      "type": "function"
    },
    {
      "inputs": [
        {
          "internalType": "address",
          "name": "from",
          "type": "address"
        },
        {
          "internalType": "address",
          "name": "to",
          "type": "address"
        },
        {
          "internalType": "uint256",
          "name": "amount",
          "type": "uint256"
        }
      ],
      "name": "onTokenTransfer",
      "outputs": [],
      "stateMutability": "nonpayable",
      "type": "function"
    },
    {
      "inputs": [],
      "name": "owner",
      "outputs": [
        {
          "internalType": "address",
          "name": "",
          "type": "address"
        }
      ],
      "stateMutability": "view",
      "type": "function"
    },
    {
      "inputs": [],
      "name": "pauseToken",
      "outputs": [],
      "stateMutability": "nonpayable",
      "type": "function"
    },
    {
      "inputs": [
        {
          "internalType": "address",
          "name": "_addr",
          "type": "address"
        }
      ],
      "name": "removeFromWhitelist",
      "outputs": [],
      "stateMutability": "nonpayable",
      "type": "function"
    },
    {
      "inputs": [],
      "name": "renounceOwnership",
      "outputs": [],
      "stateMutability": "nonpayable",
      "type": "function"
    },
    {
      "inputs": [],
      "name": "signature",
      "outputs": [
        {
          "internalType": "bytes",
          "name": "",
          "type": "bytes"
        }
      ],
      "stateMutability": "view",
      "type": "function"
    },
    {
      "inputs": [
        {
          "internalType": "address",
          "name": "newOwner",
          "type": "address"
        }
      ],
      "name": "transferOwnership",
      "outputs": [],
      "stateMutability": "nonpayable",
      "type": "function"
    },
    {
      "inputs": [],
      "name": "unpauseToken",
      "outputs": [],
      "stateMutability": "nonpayable",
      "type": "function"
    },
    {
      "inputs": [
        {
          "internalType": "bytes",
          "name": "hash",
          "type": "bytes"
        },
        {
          "internalType": "bytes",
          "name": "_signature",
          "type": "bytes"
        }
      ],
      "name": "updateVerifyData",
      "outputs": [],
      "stateMutability": "nonpayable",
      "type": "function"
    },
    {
      "inputs": [],
      "name": "validator",
      "outputs": [
        {
          "internalType": "address",
          "name": "",
          "type": "address"
        }
      ],
      "stateMutability": "view",
      "type": "function"
    },
    {
      "inputs": [],
      "name": "vaultToken",
      "outputs": [
        {
          "internalType": "address",
          "name": "",
          "type": "address"
        }
      ],
      "stateMutability": "view",
      "type": "function"
    },
    {
      "inputs": [],
      "name": "verify",
      "outputs": [
        {
          "internalType": "bool",
          "name": "",
          "type": "bool"
        }
      ],
      "stateMutability": "pure",
      "type": "function"
    },
    {
      "inputs": [],
      "name": "whitelistEnabled",
      "outputs": [
        {
          "internalType": "bool",
          "name": "",
          "type": "bool"
        }
      ],
      "stateMutability": "view",
      "type": "function"
    }
  ],
  "transactionHash": "0xd3faf43da68854aab7a2fc4c72eae47062fe9de9dcd9dc3b706c14e44d4abef1",
  "args": [],
  "numDeployments": 1,
  "solcInputHash": "42d72c55161f263dde5fb479a35dbaf9",
  "bytecode": "0x60808060405234605e5760008054336001600160a01b0319821681178355916001600160a01b03909116907f8be0079c531659141344cd1fd0a4f28419497f9722a3daafe3b4186f6b6457e09080a360018055611c5390816100648239f35b600080fdfe6080604052600436101561001257600080fd5b6000803560e01c80631790da96146116a35780631b3012a31461160e5780631edf47da146112955780632c349627146111d75780632f17b18214610d2157806331b1125f14610f275780633841ce5814610efe5780633a5381b514610ed55780633af32abf14610e96578063481c6a7514610e6d57806350669a0314610d4757806351fb012d14610d2157806351ff484714610c4c578063677ba3d314610ac0578063703bafd514610a97578063715018a614610a3d57806379c650681461097c5780638ab1d681146108df5780638da5cb5b146108b8578063cb4c86b7146106ad578063cdfb2b4e1461083f578063d1df306c14610748578063d6b0f484146106d6578063dd53bd2b146106ad578063e43252d714610665578063f2fde38b146105d7578063f64e88141461029e578063f8a3c8f2146101ae578063fc735e99146101925763fcdfd5c51461016757600080fd5b3461018f578060031936011261018f576007546040516001600160a01b039091168152602090f35b80fd5b503461018f578060031936011261018f57602060405160018152f35b503461018f578060031936011261018f576009546001600160a01b031690811561024e57602060049260405193848092637c51e47960e11b82525afa908115610242578091610205575b6020826040519015158152f35b90506020823d60201161023a575b8161022060209383611702565b8101031261018f5750610234602091611803565b386101f8565b3d9150610213565b604051903d90823e3d90fd5b60405162461bcd60e51b815260206004820152602260248201527f42617369635661756c743a2066756e64696e67206d6f64756c65206e6f742073604482015261195d60f21b6064820152608490fd5b503461018f57602036600319011261018f5760043567ffffffffffffffff81116105d3576102d090369060040161177b565b9081518201906080836020840193031261018f576102f060208401611a11565b906102fd60408501611a11565b9161030a60608601611803565b9460808101519067ffffffffffffffff82116105cf570184603f820112156105cb5760208101519467ffffffffffffffff86116105b7578560051b91604051966103576020850189611702565b8752602087019281016040019182116105b357604001915b81831061058f5750506009546001600160a01b0392831694909216905060a082901c60ff1661054a5783156105055780156104c05785610434575b60028054600480546001600160a01b0319169093179092556001600160a81b0319909116841795151560a01b60ff60a01b169590951790945560ff60a01b19909316600160a01b176009559091805b8351811015610427576001906104216001600160a01b0361041a8388611bb3565b5116611ac4565b016103f9565b5061043182611a7d565b80f35b825b85518110156104ba576001600160a01b036104518288611bb3565b51161561046057600101610436565b60405162461bcd60e51b815260206004820152602c60248201527f42617369635661756c743a2077686974656c697374206164647265737320636160448201526b6e6e6f74206265207a65726f60a01b6064820152608490fd5b506103aa565b60405162461bcd60e51b815260206004820152601d60248201527f42617369635661756c743a20696e76616c69642076616c696461746f720000006044820152606490fd5b60405162461bcd60e51b815260206004820152601b60248201527f42617369635661756c743a20696e76616c6964206d616e6167657200000000006044820152606490fd5b60405162461bcd60e51b815260206004820152601f60248201527f42617369635661756c743a20616c726561647920696e697469616c697a6564006044820152606490fd5b82516001600160a01b03811681036105af5781526020928301920161036f565b8580fd5b8480fd5b634e487b7160e01b84526041600452602484fd5b8280fd5b8380fd5b5080fd5b503461018f57602036600319011261018f576105f16117d7565b6105f9611a25565b6001600160a01b038116156106115761043190611a7d565b60405162461bcd60e51b815260206004820152602660248201527f4f776e61626c653a206e6577206f776e657220697320746865207a65726f206160448201526564647265737360d01b6064820152608490fd5b503461018f57602036600319011261018f576104316106826117d7565b61069760018060a01b03600254163314611895565b6106a860ff60095460a01c166118e1565b611ac4565b503461018f578060031936011261018f576009546040516001600160a01b039091168152602090f35b503461018f578060031936011261018f576002546106fe336001600160a01b03831614611895565b61070f60ff60095460a01c166118e1565b60ff60a01b19166002556040518181527f1cf28b997975c7be355bcef74f2f5019aa48253bc1e54b3c8b002471865fdba890602090a180f35b503461018f57604036600319011261018f57806107636117d7565b60095461078a9060ff90610781336001600160a01b038316146119c5565b60a01c166118e1565b60ff60025460a01c16610818575b6008546001600160a01b03166107af81151561192d565b803b156108145760405163079cc67960e41b81526001600160a01b039092166004830152602480359083015282908290818381604481015b03925af18015610809576107f85750f35b8161080291611702565b61018f5780f35b6040513d84823e3d90fd5b5050fd5b6001600160a01b03811682526003602052604082205461083a9060ff16611979565b610798565b503461018f578060031936011261018f57600254610867336001600160a01b03831614611895565b61087860ff60095460a01c166118e1565b60ff60a01b1916600160a01b17600255604051600181527f1cf28b997975c7be355bcef74f2f5019aa48253bc1e54b3c8b002471865fdba890602090a180f35b503461018f578060031936011261018f57546040516001600160a01b039091168152602090f35b503461018f57602036600319011261018f576108f96117d7565b61090e60018060a01b03600254163314611895565b61091f60ff60095460a01c166118e1565b6001600160a01b0316808252600360205260408220546109419060ff16611979565b808252600360205260408220805460ff191690557fde8cf212af7ce38b2840785a2768d97ff2dbf3c21b516961cec0061e134c2a1e8280a280f35b503461018f57604036600319011261018f57806109976117d7565b6009546109b59060ff90610781336001600160a01b038316146119c5565b60ff60025460a01c16610a16575b6008546001600160a01b03166109da81151561192d565b803b15610814576040516340c10f1960e01b81526001600160a01b039092166004830152602480359083015282908290818381604481016107e7565b6001600160a01b038116825260036020526040822054610a389060ff16611979565b6109c3565b503461018f578060031936011261018f57610a56611a25565b80546001600160a01b03198116825581906001600160a01b03167f8be0079c531659141344cd1fd0a4f28419497f9722a3daafe3b4186f6b6457e08280a380f35b503461018f578060031936011261018f576008546040516001600160a01b039091168152602090f35b503461018f57606036600319011261018f57610ada6117d7565b610ae26117ed565b610af360ff60095460a01c166118e1565b60ff60025460a01c1680610c25575b610bfe575b6008546001600160a01b03163303610bb95760075483926001600160a01b039091169182151580610ba7575b80610b95575b610b4257505050f35b823b15610b9057604051635329441f60e11b81526001600160a01b0392831660048201529116602482015260448035908201529082908290606490829084905af18015610809576107f85750f35b505050fd5b506001600160a01b0381161515610b39565b506001600160a01b0382161515610b33565b60405162461bcd60e51b815260206004820152601f60248201527f42617369635661756c743a206f6e6c7920746f6b656e2063616e2063616c6c006044820152606490fd5b6001600160a01b038116835260036020526040832054610c209060ff16611979565b610b07565b6001600160a01b038316845260036020526040842054610c479060ff16611979565b610b02565b503461018f578060031936011261018f57604051908060065490610c6f826116c8565b8085529160018116908115610cfa5750600114610caf575b610cab84610c9781860382611702565b60405191829160208352602083019061173a565b0390f35b60068152600080516020611bfe833981519152939250905b808210610ce057509091508101602001610c9782610c87565b919260018160209254838588010152019101909291610cc7565b60ff191660208087019190915292151560051b85019092019250610c979150839050610c87565b503461018f578060031936011261018f57602060ff60025460a01c166040519015158152f35b503461018f578060031936011261018f57600954610d6a60ff8260a01c166118e1565b6002546001600160a01b03163314908115610e5a575b5015610e095760085481906001600160a01b0316610d9f81151561192d565b803b15610e0657818091600460405180948193631fa5d41d60e11b83525af1801561080957610df1575b50807f034f571e8421592eac76524eb9ce5c1ec88251bd2ea778a88cf713dbd15cfc3391a180f35b81610dfb91611702565b61018f578038610dc9565b50fd5b60405162461bcd60e51b815260206004820152602360248201527f42617369635661756c743a206f6e6c79206d616e61676572206f722066756e64604482015262696e6760e81b6064820152608490fd5b6001600160a01b03163314905038610d80565b503461018f578060031936011261018f576002546040516001600160a01b039091168152602090f35b503461018f57602036600319011261018f5760209060ff906040906001600160a01b03610ec16117d7565b168152600384522054166040519015158152f35b503461018f578060031936011261018f576004546040516001600160a01b039091168152602090f35b503461018f578060031936011261018f576007546040516001600160a01b039091168152602090f35b503461018f57606036600319011261018f57610f416117d7565b610f496117ed565b6044356001600160a01b0381169291908390036105cf57610f68611a25565b60095491610f7b60ff8460a01c166118e1565b600854906001600160a01b038216611192576001600160a01b0316908115611143576001600160a01b031916176008556001600160a01b0382166110fe576001600160a01b03169081156110ad576001600160a01b031916176009556007546001600160a01b038116611058578115610fff576001600160a01b0319161760075580f35b60405162461bcd60e51b815260206004820152602b60248201527f42617369635661756c743a20696e76616c6964206469766964656e64206d6f6460448201526a756c65206164647265737360a81b6064820152608490fd5b60405162461bcd60e51b815260206004820152602760248201527f42617369635661756c743a206469766964656e64206d6f64756c6520616c726560448201526618591e481cd95d60ca1b6064820152608490fd5b60405162461bcd60e51b815260206004820152602360248201527f42617369635661756c743a20696e76616c69642066756e64696e67206164647260448201526265737360e81b6064820152608490fd5b60405162461bcd60e51b815260206004820152601f60248201527f42617369635661756c743a2066756e64696e6720616c726561647920736574006044820152606490fd5b60405162461bcd60e51b815260206004820152602160248201527f42617369635661756c743a20696e76616c696420746f6b656e206164647265736044820152607360f81b6064820152608490fd5b60405162461bcd60e51b815260206004820152601d60248201527f42617369635661756c743a20746f6b656e20616c7265616479207365740000006044820152606490fd5b503461018f578060031936011261018f576111fd60018060a01b03600254163314611895565b61120e60ff60095460a01c166118e1565b60085481906001600160a01b031661122781151561192d565b803b15610e0657818091600460405180958193638456cb5960e01b83525af1801561128857611278575b7fe7792495f34379948e170e2eaab4c10e47ffdd0999c32d6e9848e863802f188c8180a180f35b61128191611702565b3881611251565b50604051903d90823e3d90fd5b503461018f57604036600319011261018f5760043567ffffffffffffffff81116105d3576112c790369060040161177b565b9060243567ffffffffffffffff81116105d3576112e890369060040161177b565b916112fe60018060a01b03600254163314611895565b61130f60ff60095460a01c166118e1565b80519267ffffffffffffffff84116115fa5761132c6005546116c8565b601f811161158f575b50602093601f81116001146115205783948192939491611515575b508160011b916000199060031b1c1916176005555b805167ffffffffffffffff81116105b7576113816006546116c8565b601f81116114aa575b506020601f8211600114611413576113f492827f54dddae9d1794a76ed9a0d813b38cd24dd636b9435046a24cfa0c81ed2cd53b59593611402938891611408575b508160011b916000199060031b1c1916176006555b60405193849360408552604085019061173a565b90838203602085015261173a565b0390a180f35b9050820151386113cb565b60068552600080516020611bfe83398151915290601f198316865b818110611492575083611402936113f496937f54dddae9d1794a76ed9a0d813b38cd24dd636b9435046a24cfa0c81ed2cd53b5989660019410611479575b5050811b016006556113e0565b84015160001960f88460031b161c19169055388061146c565b9192602060018192868901518155019401920161142e565b60068552601f820160051c600080516020611bfe8339815191520190602083106114ff575b601f0160051c600080516020611bfe83398151915201905b8181106114f4575061138a565b8581556001016114e7565b600080516020611bfe83398151915291506114cf565b905083015138611350565b60058452601f19811694600080516020611bde83398151915290855b8781106115775750826001949596971061155e575b5050811b01600555611365565b85015160001960f88460031b161c191690553880611551565b9091602060018192858901518155019301910161153c565b60058452601f850160051c600080516020611bde8339815191520190602086106115e4575b601f0160051c600080516020611bde83398151915201905b8181106115d95750611335565b8481556001016115cc565b600080516020611bde83398151915291506115b4565b634e487b7160e01b83526041600452602483fd5b503461018f578060031936011261018f57604051908060055490611631826116c8565b8085529160018116908115610cfa575060011461165857610cab84610c9781860382611702565b60058152600080516020611bde833981519152939250905b80821061168957509091508101602001610c9782610c87565b919260018160209254838588010152019101909291611670565b503461018f578060031936011261018f5760206116be611810565b6040519015158152f35b90600182811c921680156116f8575b60208310146116e257565b634e487b7160e01b600052602260045260246000fd5b91607f16916116d7565b90601f8019910116810190811067ffffffffffffffff82111761172457604052565b634e487b7160e01b600052604160045260246000fd5b919082519283825260005b848110611766575050826000602080949584010152601f8019910116010190565b80602080928401015182828601015201611745565b81601f820112156117d25780359067ffffffffffffffff821161172457604051926117b0601f8401601f191660200185611702565b828452602083830101116117d257816000926020809301838601378301015290565b600080fd5b600435906001600160a01b03821682036117d257565b602435906001600160a01b03821682036117d257565b519081151582036117d257565b6008546001600160a01b0316801561188f57602060049160405192838092635c975abb60e01b82525afa9081156118835760009161184c575090565b90506020813d60201161187b575b8161186760209383611702565b810103126117d25761187890611803565b90565b3d915061185a565b6040513d6000823e3d90fd5b50600090565b1561189c57565b60405162461bcd60e51b815260206004820152601860248201527f42617369635661756c743a206f6e6c79206d616e6167657200000000000000006044820152606490fd5b156118e857565b60405162461bcd60e51b815260206004820152601b60248201527f42617369635661756c743a206e6f7420696e697469616c697a656400000000006044820152606490fd5b1561193457565b60405162461bcd60e51b815260206004820152601960248201527f42617369635661756c743a20746f6b656e206e6f7420736574000000000000006044820152606490fd5b1561198057565b60405162461bcd60e51b815260206004820152601b60248201527f42617369635661756c743a206e6f742077686974656c697374656400000000006044820152606490fd5b156119cc57565b60405162461bcd60e51b815260206004820152601860248201527f42617369635661756c743a206f6e6c792066756e64696e6700000000000000006044820152606490fd5b51906001600160a01b03821682036117d257565b6000546001600160a01b03163303611a3957565b606460405162461bcd60e51b815260206004820152602060248201527f4f776e61626c653a2063616c6c6572206973206e6f7420746865206f776e65726044820152fd5b600080546001600160a01b039283166001600160a01b03198216811783559216907f8be0079c531659141344cd1fd0a4f28419497f9722a3daafe3b4186f6b6457e09080a3565b6001600160a01b03168015611b6e5780600052600360205260ff60406000205416611b29578060005260036020526040600020600160ff198254161790557f4790a4adb426ca2345bb5108f6e454eae852a7bf687544cd66a7270dff3a41d6600080a2565b60405162461bcd60e51b815260206004820152601f60248201527f42617369635661756c743a20616c72656164792077686974656c6973746564006044820152606490fd5b60405162461bcd60e51b815260206004820152601b60248201527f42617369635661756c743a20696e76616c6964206164647265737300000000006044820152606490fd5b8051821015611bc75760209160051b010190565b634e487b7160e01b600052603260045260246000fdfe036b6384b5eca791c62761152d0c79bb0604c104a5fb6f4eb0703f3154bb3db0f652222313e28459528d920b65115c16c04f3efc82aaedc97be59f3f377c0d3fa264697066735822122019808fc7e14ee76e20d238ffff908d5f90d991401a26f2e1077636f31755252d64736f6c634300081a0033",
  "devdoc": {
    "details": "Basic vault template implementation, providing fundamental storage and permission management",
    "kind": "dev",
    "methods": {
      "addToWhitelist(address)": {
        "details": "Add address to whitelist",
        "params": {
          "_addr": "Address to add"
        }
      },
      "burnToken(address,uint256)": {
        "details": "Burn tokens through vault, Only callable by the funding module",
        "params": {
          "amount": "Amount to burn",
          "from": "Address to burn from"
        }
      },
      "disableWhitelist()": {
        "details": "Disable whitelist"
      },
      "enableWhitelist()": {
        "details": "Enable whitelist"
      },
      "getDividendModule()": {
        "details": "Get dividend module address",
        "returns": {
          "_0": "Dividend module address"
        }
      },
      "getFundingModule()": {
        "details": "Get funding module address",
        "returns": {
          "_0": "Funding module address"
        }
      },
      "initiate(bytes)": {
        "details": "Unified initialization interface",
        "params": {
          "_initData": "Encoded initialization data"
        }
      },
      "isFundingSuccessful()": {
        "details": "Check if funding is successful by querying the funding module",
        "returns": {
          "_0": "Whether funding is successful"
        }
      },
      "isTokenPaused()": {
        "details": "Check if token is paused",
        "returns": {
          "_0": "Whether token is paused"
        }
      },
      "isWhiteList()": {
        "details": "Check if whitelist is enabled",
        "returns": {
          "_0": "Whether whitelist is enabled"
        }
      },
      "mintToken(address,uint256)": {
        "details": "Mint tokens through vault, Only callable by the funding module",
        "params": {
          "amount": "Amount to mint",
          "to": "Recipient address"
        }
      },
      "onTokenTransfer(address,address,uint256)": {
        "details": "Hook called on token transfer, Only callable by the token module",
        "params": {
          "amount": "Transfer amount",
          "from": "From address",
          "to": "To address"
        }
      },
      "owner()": {
        "details": "Returns the address of the current owner."
      },
      "pauseToken()": {
        "details": "Pause token"
      },
      "removeFromWhitelist(address)": {
        "details": "Remove address from whitelist",
        "params": {
          "_addr": "Address to remove"
        }
      },
      "renounceOwnership()": {
        "details": "Leaves the contract without owner. It will not be possible to call `onlyOwner` functions. Can only be called by the current owner. NOTE: Renouncing ownership will leave the contract without an owner, thereby disabling any functionality that is only available to the owner."
      },
      "transferOwnership(address)": {
        "details": "Transfers ownership of the contract to a new account (`newOwner`). Can only be called by the current owner."
      },
      "unpauseToken()": {
        "details": "Unpause token"
      },
      "updateVerifyData(bytes,bytes)": {
        "details": "Update verification data",
        "params": {
          "_signature": "Signature data",
          "hash": "Data hash"
        }
      },
      "verify()": {
        "details": "Verify data (simple implementation, actual applications need more complex verification logic)",
        "returns": {
          "_0": "Verification result"
        }
      }
    },
    "title": "BasicVault",
    "version": 1
  },
  "userdoc": {
    "kind": "user",
    "methods": {},
    "notice": "This contract does not contain specific business logic, business functions are implemented by other modules",
    "version": 1
  },
  "storageLayout": {
    "storage": [
      {
        "astId": 3547,
        "contract": "contracts/v2/templates/vault/BasicVault.sol:BasicVault",
        "label": "_owner",
        "offset": 0,
        "slot": "0",
        "type": "t_address"
      },
      {
        "astId": 4744,
        "contract": "contracts/v2/templates/vault/BasicVault.sol:BasicVault",
        "label": "_status",
        "offset": 0,
        "slot": "1",
        "type": "t_uint256"
      },
      {
        "astId": 16558,
        "contract": "contracts/v2/templates/vault/BasicVault.sol:BasicVault",
        "label": "manager",
        "offset": 0,
        "slot": "2",
        "type": "t_address"
      },
      {
        "astId": 16561,
        "contract": "contracts/v2/templates/vault/BasicVault.sol:BasicVault",
        "label": "whitelistEnabled",
        "offset": 20,
        "slot": "2",
        "type": "t_bool"
      },
      {
        "astId": 16566,
        "contract": "contracts/v2/templates/vault/BasicVault.sol:BasicVault",
        "label": "isWhitelisted",
        "offset": 0,
        "slot": "3",
        "type": "t_mapping(t_address,t_bool)"
      },
      {
        "astId": 16569,
        "contract": "contracts/v2/templates/vault/BasicVault.sol:BasicVault",
        "label": "validator",
        "offset": 0,
        "slot": "4",
        "type": "t_address"
      },
      {
        "astId": 16572,
        "contract": "contracts/v2/templates/vault/BasicVault.sol:BasicVault",
        "label": "dataHash",
        "offset": 0,
        "slot": "5",
        "type": "t_bytes_storage"
      },
      {
        "astId": 16575,
        "contract": "contracts/v2/templates/vault/BasicVault.sol:BasicVault",
        "label": "signature",
        "offset": 0,
        "slot": "6",
        "type": "t_bytes_storage"
      },
      {
        "astId": 16577,
        "contract": "contracts/v2/templates/vault/BasicVault.sol:BasicVault",
        "label": "accumulatedYield",
        "offset": 0,
        "slot": "7",
        "type": "t_address"
      },
      {
        "astId": 16580,
        "contract": "contracts/v2/templates/vault/BasicVault.sol:BasicVault",
        "label": "vaultToken",
        "offset": 0,
        "slot": "8",
        "type": "t_address"
      },
      {
        "astId": 16582,
        "contract": "contracts/v2/templates/vault/BasicVault.sol:BasicVault",
        "label": "funding",
        "offset": 0,
        "slot": "9",
        "type": "t_address"
      },
      {
        "astId": 16584,
        "contract": "contracts/v2/templates/vault/BasicVault.sol:BasicVault",
        "label": "_initialized",
        "offset": 20,
        "slot": "9",
        "type": "t_bool"
      }
    ],
    "types": {
      "t_address": {
        "encoding": "inplace",
        "label": "address",
        "numberOfBytes": "20"
      },
      "t_bool": {
        "encoding": "inplace",
        "label": "bool",
        "numberOfBytes": "1"
      },
      "t_bytes_storage": {
        "encoding": "bytes",
        "label": "bytes",
        "numberOfBytes": "32"
      },
      "t_mapping(t_address,t_bool)": {
        "encoding": "mapping",
        "key": "t_address",
        "label": "mapping(address => bool)",
        "numberOfBytes": "32",
        "value": "t_bool"
      },
      "t_uint256": {
        "encoding": "inplace",
        "label": "uint256",
        "numberOfBytes": "32"
      }
    }
  }
}